{"contracts/EventCreator.sol":{"EventCreator":{"abi":[{"inputs":[],"name":"TransferFailed","type":"error"},{"anonymous":false,"inputs":[{"indexed":false,"internalType":"address","name":"addr","type":"address"}],"name":"EventCreated","type":"event"},{"anonymous":false,"inputs":[{"indexed":true,"internalType":"address","name":"previousOwner","type":"address"},{"indexed":true,"internalType":"address","name":"newOwner","type":"address"}],"name":"OwnershipTransferred","type":"event"},{"inputs":[{"components":[{"internalType":"uint256","name":"maxParticipants","type":"uint256"},{"internalType":"uint256","name":"registrationEnd","type":"uint256"},{"internalType":"uint256","name":"start","type":"uint256"},{"internalType":"uint256","name":"end","type":"uint256"},{"internalType":"uint256","name":"ticketPrice","type":"uint256"},{"internalType":"uint256","name":"preSaleTicketPrice","type":"uint256"},{"internalType":"string","name":"name","type":"string"},{"internalType":"string","name":"description","type":"string"},{"internalType":"string","name":"link","type":"string"},{"internalType":"string","name":"image","type":"string"},{"internalType":"string","name":"location","type":"string"},{"internalType":"bool","name":"registrationOpen","type":"bool"},{"internalType":"bool","name":"onlyWhitelistRegistration","type":"bool"}],"internalType":"struct Utils.EventStruct","name":"_eventData","type":"tuple"}],"name":"createEvent","outputs":[{"internalType":"address","name":"","type":"address"}],"stateMutability":"nonpayable","type":"function"},{"inputs":[{"internalType":"uint256","name":"","type":"uint256"}],"name":"events","outputs":[{"internalType":"address","name":"","type":"address"}],"stateMutability":"view","type":"function"},{"inputs":[],"name":"fee","outputs":[{"internalType":"uint256","name":"","type":"uint256"}],"stateMutability":"view","type":"function"},{"inputs":[{"internalType":"uint256","name":"offset","type":"uint256"},{"internalType":"uint256","name":"limit","type":"uint256"},{"internalType":"uint256","name":"currTimestamp","type":"uint256"}],"name":"getEvents","outputs":[{"components":[{"internalType":"address","name":"addr","type":"address"},{"internalType":"address","name":"organizer","type":"address"},{"internalType":"bool","name":"registrationOpen","type":"bool"},{"internalType":"bool","name":"onlyWhitelistRegistration","type":"bool"},{"internalType":"bool","name":"isRegistered","type":"bool"},{"internalType":"bool","name":"isChecked","type":"bool"},{"internalType":"uint256","name":"maxParticipants","type":"uint256"},{"internalType":"uint256","name":"registrationEnd","type":"uint256"},{"internalType":"uint256","name":"start","type":"uint256"},{"internalType":"uint256","name":"end","type":"uint256"},{"internalType":"uint256","name":"ticketPrice","type":"uint256"},{"internalType":"uint256","name":"preSaleTicketPrice","type":"uint256"},{"internalType":"uint256","name":"registeredParticipantCount","type":"uint256"},{"internalType":"uint256","name":"checkedParticipantCount","type":"uint256"},{"internalType":"string","name":"name","type":"string"},{"internalType":"string","name":"description","type":"string"},{"internalType":"string","name":"link","type":"string"},{"internalType":"string","name":"image","type":"string"},{"internalType":"string","name":"location","type":"string"}],"internalType":"struct Utils.EventInfoStruct[]","name":"","type":"tuple[]"}],"stateMutability":"view","type":"function"},{"inputs":[],"name":"owner","outputs":[{"internalType":"address","name":"","type":"address"}],"stateMutability":"view","type":"function"},{"inputs":[],"name":"renounceOwnership","outputs":[],"stateMutability":"nonpayable","type":"function"},{"inputs":[{"internalType":"string","name":"uri","type":"string"}],"name":"setTokenUri","outputs":[],"stateMutability":"nonpayable","type":"function"},{"inputs":[{"internalType":"address","name":"newOwner","type":"address"}],"name":"transferOwnership","outputs":[],"stateMutability":"nonpayable","type":"function"},{"inputs":[],"name":"withdraw","outputs":[],"stateMutability":"nonpayable","type":"function"}],"evm":{"bytecode":{"linkReferences":{},"object":"6001805560c0604052601560809081527f687474703a2f2f6c6f63616c686f73743a33333333000000000000000000000060a05260029062000042908262000157565b503480156200005057600080fd5b506200005c3362000062565b62000223565b600080546001600160a01b038381166001600160a01b0319831681178455604051919092169283917f8be0079c531659141344cd1fd0a4f28419497f9722a3daafe3b4186f6b6457e09190a35050565b634e487b7160e01b600052604160045260246000fd5b600181811c90821680620000dd57607f821691505b602082108103620000fe57634e487b7160e01b600052602260045260246000fd5b50919050565b601f8211156200015257600081815260208120601f850160051c810160208610156200012d5750805b601f850160051c820191505b818110156200014e5782815560010162000139565b5050505b505050565b81516001600160401b03811115620001735762000173620000b2565b6200018b81620001848454620000c8565b8462000104565b602080601f831160018114620001c35760008415620001aa5750858301515b600019600386901b1c1916600185901b1785556200014e565b600085815260208120601f198616915b82811015620001f457888601518255948401946001909101908401620001d3565b5085821015620002135787850151600019600388901b60f8161c191681555b5050505050600190811b01905550565b613dea80620002336000396000f3fe60806040523480156200001157600080fd5b5060043610620000b05760003560e01c8063715018a6116200007f578063ddca3f431162000062578063ddca3f43146200014e578063f2fde38b1462000167578063fce580f0146200017e57600080fd5b8063715018a614620001325780638da5cb5b146200013c57600080fd5b80630675b7c614620000b55780630b79143014620000ce5780630ea4e6a014620001025780633ccfd60b1462000128575b600080fd5b620000cc620000c63660046200080f565b62000195565b005b620000e5620000df36600462000897565b620001b1565b6040516001600160a01b0390911681526020015b60405180910390f35b6200011962000113366004620008b1565b620001dc565b604051620000f9919062000932565b620000cc62000497565b620000cc62000518565b6000546001600160a01b0316620000e5565b6200015860015481565b604051908152602001620000f9565b620000cc6200017836600462000add565b62000530565b620000e56200018f36600462000afd565b620005ca565b6200019f620006a6565b6002620001ad828262000bcb565b5050565b60038181548110620001c257600080fd5b6000918252602090912001546001600160a01b0316905081565b60035460609060008080838810620001f8576000925062000224565b8662000205898662000cae565b1015620002205762000218888562000cae565b925062000224565b8692505b60008367ffffffffffffffff8111156200024257620002426200076d565b6040519080825280602002602001820160405280156200032557816020015b6200031160405180610260016040528060006001600160a01b0316815260200160006001600160a01b03168152602001600015158152602001600015158152602001600015158152602001600015158152602001600081526020016000815260200160008152602001600081526020016000815260200160008152602001600081526020016000815260200160608152602001606081526020016060815260200160608152602001606081525090565b815260200190600190039081620002615790505b509050836000036200033e579450620004909350505050565b6200034a848662000cae565b9250831562000363576200036060018562000cae565b91505b815b6000600382815481106200037d576200037d62000cca565b6000918252602090912001546040517f1d645b12000000000000000000000000000000000000000000000000000000008152600481018b90526001600160a01b0390911691508190631d645b1290602401600060405180830381865afa158015620003ec573d6000803e3d6000fd5b505050506040513d6000823e601f3d908101601f1916820160405262000416919081019062000d62565b8362000423848762000cae565b8151811062000436576200043662000cca565b60209081029190910101526200044e60018762000cae565b6200045a838662000cae565b148062000465575081155b1562000472575062000488565b816200047e8162000f48565b9250505062000365565b509450505050505b9392505050565b620004a1620006a6565b476000819003620004de576040517f90b8ec1800000000000000000000000000000000000000000000000000000000815260040160405180910390fd5b600080546040516001600160a01b039091169183156108fc02918491818181858888f19350505050158015620001ad573d6000803e3d6000fd5b62000522620006a6565b6200052e600062000702565b565b6200053a620006a6565b6001600160a01b038116620005bc5760405162461bcd60e51b815260206004820152602660248201527f4f776e61626c653a206e6577206f776e657220697320746865207a65726f206160448201527f646472657373000000000000000000000000000000000000000000000000000060648201526084015b60405180910390fd5b620005c78162000702565b50565b60008082336001546002604051620005e2906200075f565b620005f194939291906200106d565b604051809103906000f0801580156200060e573d6000803e3d6000fd5b50600380546001810182556000919091527fc2575a0e9e593c00f959f8c92f12db2869c3395a3b0502d05e2516446f71f85b01805473ffffffffffffffffffffffffffffffffffffffff19166001600160a01b0383169081179091556040519081529091507ffc8a4c0621b9788c4dbe57053a51ce2d22625a067d039f38004df2a07ca755a49060200160405180910390a192915050565b6000546001600160a01b031633146200052e5760405162461bcd60e51b815260206004820181905260248201527f4f776e61626c653a2063616c6c6572206973206e6f7420746865206f776e65726044820152606401620005b3565b600080546001600160a01b0383811673ffffffffffffffffffffffffffffffffffffffff19831681178455604051919092169283917f8be0079c531659141344cd1fd0a4f28419497f9722a3daafe3b4186f6b6457e09190a35050565b612bb1806200120483390190565b634e487b7160e01b600052604160045260246000fd5b604051610260810167ffffffffffffffff81118282101715620007aa57620007aa6200076d565b60405290565b604051601f8201601f1916810167ffffffffffffffff81118282101715620007dc57620007dc6200076d565b604052919050565b600067ffffffffffffffff8211156200080157620008016200076d565b50601f01601f191660200190565b6000602082840312156200082257600080fd5b813567ffffffffffffffff8111156200083a57600080fd5b8201601f810184136200084c57600080fd5b8035620008636200085d82620007e4565b620007b0565b8181528560208385010111156200087957600080fd5b81602084016020830137600091810160200191909152949350505050565b600060208284031215620008aa57600080fd5b5035919050565b600080600060608486031215620008c757600080fd5b505081359360208301359350604090920135919050565b60005b83811015620008fb578181015183820152602001620008e1565b50506000910152565b600081518084526200091e816020860160208601620008de565b601f01601f19169290920160200192915050565b60006020808301818452808551808352604092508286019150828160051b87010184880160005b8381101562000ab957603f19898403018552815180516001600160a01b0390811685528882015116888501528681015115158785015260608082015115159085015260808082015115159085015260a08082015115159085015260c0808201519085015260e08082015190850152610100808201519085015261012080820151908501526101408082015190850152610160808201519085015261018080820151908501526101a080820151908501526101c080820151610260828701819052919062000a298388018262000904565b925050506101e0808301518683038288015262000a47838262000904565b92505050610200808301518683038288015262000a65838262000904565b92505050610220808301518683038288015262000a83838262000904565b92505050610240808301519250858203818701525062000aa4818362000904565b96890196945050509086019060010162000959565b509098975050505050505050565b6001600160a01b0381168114620005c757600080fd5b60006020828403121562000af057600080fd5b8135620004908162000ac7565b60006020828403121562000b1057600080fd5b813567ffffffffffffffff81111562000b2857600080fd5b82016101a081850312156200049057600080fd5b600181811c9082168062000b5157607f821691505b60208210810362000b7257634e487b7160e01b600052602260045260246000fd5b50919050565b601f82111562000bc657600081815260208120601f850160051c8101602086101562000ba15750805b601f850160051c820191505b8181101562000bc25782815560010162000bad565b5050505b505050565b815167ffffffffffffffff81111562000be85762000be86200076d565b62000c008162000bf9845462000b3c565b8462000b78565b602080601f83116001811462000c38576000841562000c1f5750858301515b600019600386901b1c1916600185901b17855562000bc2565b600085815260208120601f198616915b8281101562000c695788860151825594840194600190910190840162000c48565b508582101562000c885787850151600019600388901b60f8161c191681555b5050505050600190811b01905550565b634e487b7160e01b600052601160045260246000fd5b8181038181111562000cc45762000cc462000c98565b92915050565b634e487b7160e01b600052603260045260246000fd5b805162000ced8162000ac7565b919050565b8015158114620005c757600080fd5b805162000ced8162000cf2565b600082601f83011262000d2057600080fd5b815162000d316200085d82620007e4565b81815284602083860101111562000d4757600080fd5b62000d5a826020830160208701620008de565b949350505050565b60006020828403121562000d7557600080fd5b815167ffffffffffffffff8082111562000d8e57600080fd5b90830190610260828603121562000da457600080fd5b62000dae62000783565b62000db98362000ce0565b815262000dc96020840162000ce0565b602082015262000ddc6040840162000d01565b604082015262000def6060840162000d01565b606082015262000e026080840162000d01565b608082015262000e1560a0840162000d01565b60a082015260c0838101519082015260e08084015190820152610100808401519082015261012080840151908201526101408084015190820152610160808401519082015261018080840151908201526101a080840151908201526101c0808401518381111562000e8557600080fd5b62000e938882870162000d0e565b8284015250506101e0808401518381111562000eae57600080fd5b62000ebc8882870162000d0e565b828401525050610200808401518381111562000ed757600080fd5b62000ee58882870162000d0e565b828401525050610220808401518381111562000f0057600080fd5b62000f0e8882870162000d0e565b828401525050610240808401518381111562000f2957600080fd5b62000f378882870162000d0e565b918301919091525095945050505050565b60008162000f5a5762000f5a62000c98565b506000190190565b6000808335601e1984360301811262000f7a57600080fd5b830160208101925035905067ffffffffffffffff81111562000f9b57600080fd5b80360382131562000fab57600080fd5b9250929050565b81835281816020850137506000828201602090810191909152601f909101601f19169091010190565b803562000ced8162000cf2565b6000815462000ff78162000b3c565b808552602060018381168015620010175760018114620010325762001062565b60ff1985168884015283151560051b88018301955062001062565b866000528260002060005b858110156200105a5781548a82018601529083019084016200103d565b890184019650505b505050505092915050565b6080815284356080820152602085013560a0820152604085013560c0820152606085013560e0820152608085013561010082015260a08501356101208201526000620010bd60c087018762000f62565b6101a06101408181870152620010d96102208701848662000fb2565b9350620010ea60e08b018b62000f62565b9350607f196101608189880301818a01526200110887878562000fb2565b96506200111a6101008e018e62000f62565b96509250610180828a890301818b01526200113788888662000fb2565b9750620011496101208f018f62000f62565b97509350828a890301868b01526200116388888662000fb2565b975062001173858f018f62000f62565b97509550828a8903016101c08b01526200118f88888862000fb2565b97506200119e828f0162000fdb565b8015156101e08c01529650620011b6818f0162000fdb565b9650505050505050620011ce61020085018215159052565b506001600160a01b03861660208401528460408401528281036060840152620011f8818562000fe8565b97965050505050505056fe60806040526007805461ff0019166101001790557f16d95910a21726a3e7b59a8c6166b355396434419809cb902e2063555b8d60de6011553480156200004457600080fd5b5060405162002bb138038062002bb183398101604081905262000067916200045a565b60c084015160408051808201909152600481526321a922ab60e11b60208201526200009233620001f9565b6003620000a08382620006a8565b506004620000af8282620006a8565b5060018055505060408401511580620000ca57506060840151155b15620000e957604051630968678160e11b815260040160405180910390fd5b60e0840151601290620000fd9082620006a8565b50610100840151601390620001139082620006a8565b506014620001228282620006a8565b50610120840151601590620001389082620006a8565b5083516008556040840151600a556060840151600b556080840151600e5560a0840151600f55610140840151601690620001739082620006a8565b5061016084015160078054610180870151151560ff19931515610100029390931661ffff19909116179190911790556020840151600003620001bd576040840151600955620001c6565b60208401516009555b6007805462010000600160b01b0319163362010000021790556010829055620001ef8362000249565b5050505062000774565b600080546001600160a01b038381166001600160a01b0319831681178455604051919092169283917f8be0079c531659141344cd1fd0a4f28419497f9722a3daafe3b4186f6b6457e09190a35050565b62000253620002cc565b6001600160a01b038116620002be5760405162461bcd60e51b815260206004820152602660248201527f4f776e61626c653a206e6577206f776e657220697320746865207a65726f206160448201526564647265737360d01b60648201526084015b60405180910390fd5b620002c981620001f9565b50565b6000546001600160a01b03163314620003285760405162461bcd60e51b815260206004820181905260248201527f4f776e61626c653a2063616c6c6572206973206e6f7420746865206f776e65726044820152606401620002b5565b565b634e487b7160e01b600052604160045260246000fd5b6040516101a081016001600160401b03811182821017156200036657620003666200032a565b60405290565b604051601f8201601f191681016001600160401b03811182821017156200039757620003976200032a565b604052919050565b600082601f830112620003b157600080fd5b81516001600160401b03811115620003cd57620003cd6200032a565b6020620003e3601f8301601f191682016200036c565b8281528582848701011115620003f857600080fd5b60005b8381101562000418578581018301518282018401528201620003fb565b506000928101909101919091529392505050565b805180151581146200043d57600080fd5b919050565b80516001600160a01b03811681146200043d57600080fd5b600080600080608085870312156200047157600080fd5b84516001600160401b03808211156200048957600080fd5b908601906101a082890312156200049f57600080fd5b620004a962000340565b825181526020830151602082015260408301516040820152606083015160608201526080830151608082015260a083015160a082015260c083015182811115620004f257600080fd5b620005008a8286016200039f565b60c08301525060e0830151828111156200051957600080fd5b620005278a8286016200039f565b60e08301525061010080840151838111156200054257600080fd5b620005508b8287016200039f565b82840152505061012080840151838111156200056b57600080fd5b620005798b8287016200039f565b82840152505061014080840151838111156200059457600080fd5b620005a28b8287016200039f565b828401525050610160620005b88185016200042c565b90820152610180620005cc8482016200042c565b908201529550620005e06020880162000442565b9450604087015193506060870151915080821115620005fe57600080fd5b506200060d878288016200039f565b91505092959194509250565b600181811c908216806200062e57607f821691505b6020821081036200064f57634e487b7160e01b600052602260045260246000fd5b50919050565b601f821115620006a357600081815260208120601f850160051c810160208610156200067e5750805b601f850160051c820191505b818110156200069f578281556001016200068a565b5050505b505050565b81516001600160401b03811115620006c457620006c46200032a565b620006dc81620006d5845462000619565b8462000655565b602080601f831160018114620007145760008415620006fb5750858301515b600019600386901b1c1916600185901b1785556200069f565b600085815260208120601f198616915b82811015620007455788860151825594840194600190910190840162000724565b5085821015620007645787850151600019600388901b60f8161c191681555b5050505050600190811b01905550565b61242d80620007846000396000f3fe6080604052600436106102c55760003560e01c8063715018a611610179578063c4625ba3116100d6578063ead121111161008a578063f34094a711610064578063f34094a71461075d578063f3ccaac014610765578063fe1e2f511461077a57600080fd5b8063ead12111146106f5578063efbe1c1c14610727578063f2fde38b1461073d57600080fd5b8063c7cac600116100bb578063c7cac6001461069b578063c87b56dd146106b5578063d9a59e33146106d557600080fd5b8063c4625ba314610665578063c6a7cbc91461067b57600080fd5b80638818ed381161012d57806395d89b411161011257806395d89b4114610627578063be9a65551461063c578063c025e6861461065257600080fd5b80638818ed38146105e35780638da5cb5b1461060957600080fd5b8063736f88cd1161015e578063736f88cd146105985780637de33aec146105b75780638121e42d146105cd57600080fd5b8063715018a61461056e5780637284e4161461058357600080fd5b80631d645b12116102275780633ccfd60b116101db578063622c40ce116101c0578063622c40ce146104f65780636352211e1461051657806370a082311461054e57600080fd5b80633ccfd60b146104cc578063516f279e146104e157600080fd5b8063336df1061161020c578063336df1061461047f578063355e0c5d146104a1578063386bfc98146104b657600080fd5b80631d645b121461043c57806324924bf71461046957600080fd5b806313446a751161027e578063158c613411610263578063158c6134146103d157806318160ddd1461040a5780631c4695f41461042757600080fd5b806313446a751461038b57806314d0f1ba146103a157600080fd5b806306fdde03116102af57806306fdde031461032357806309e69ede146103455780631209b1f61461037557600080fd5b8062f4494f146102ca57806301ffc9a7146102f3575b600080fd5b3480156102d657600080fd5b506102e060105481565b6040519081526020015b60405180910390f35b3480156102ff57600080fd5b5061031361030e366004611cd9565b6107aa565b60405190151581526020016102ea565b34801561032f57600080fd5b50610338610847565b6040516102ea9190611d3c565b34801561035157600080fd5b50610313610360366004611d6b565b60176020526000908152604090205460ff1681565b34801561038157600080fd5b506102e0600e5481565b34801561039757600080fd5b506102e060095481565b3480156103ad57600080fd5b506103136103bc366004611d6b565b60196020526000908152604090205460ff1681565b3480156103dd57600080fd5b506103136103ec366004611d6b565b6001600160a01b031660009081526017602052604090205460ff1690565b34801561041657600080fd5b5060025460015403600019016102e0565b34801561043357600080fd5b506103386108d9565b34801561044857600080fd5b5061045c610457366004611d86565b610967565b6040516102ea9190611d9f565b34801561047557600080fd5b506102e060085481565b34801561048b57600080fd5b5061049f61049a366004611f29565b610dc1565b005b3480156104ad57600080fd5b50610338610df4565b3480156104c257600080fd5b506102e060115481565b3480156104d857600080fd5b5061049f610e01565b3480156104ed57600080fd5b50610338610f75565b34801561050257600080fd5b5061049f610511366004612029565b610f82565b34801561052257600080fd5b50610536610531366004611d86565b6110af565b6040516001600160a01b0390911681526020016102ea565b34801561055a57600080fd5b506102e0610569366004611d6b565b6110ba565b34801561057a57600080fd5b5061049f611122565b34801561058f57600080fd5b50610338611136565b3480156105a457600080fd5b5060075461031390610100900460ff1681565b3480156105c357600080fd5b506102e0600d5481565b3480156105d957600080fd5b506102e0600f5481565b3480156105ef57600080fd5b50600754610536906201000090046001600160a01b031681565b34801561061557600080fd5b506000546001600160a01b0316610536565b34801561063357600080fd5b50610338611143565b34801561064857600080fd5b506102e0600a5481565b61049f610660366004612147565b611152565b34801561067157600080fd5b506102e0600c5481565b34801561068757600080fd5b5061049f610696366004611d86565b6112bd565b3480156106a757600080fd5b506007546103139060ff1681565b3480156106c157600080fd5b506103386106d0366004611d86565b6112ca565b3480156106e157600080fd5b5061049f6106f0366004611d6b565b61139d565b34801561070157600080fd5b50610715610710366004611d86565b61156c565b60405160ff90911681526020016102ea565b34801561073357600080fd5b506102e0600b5481565b34801561074957600080fd5b5061049f610758366004611d6b565b6115ef565b61049f611684565b34801561077157600080fd5b50610338611771565b34801561078657600080fd5b50610313610795366004611d6b565b60186020526000908152604090205460ff1681565b60007f01ffc9a7000000000000000000000000000000000000000000000000000000006001600160e01b03198316148061080d57507f80ac58cd000000000000000000000000000000000000000000000000000000006001600160e01b03198316145b8061084157507f5b5e139f000000000000000000000000000000000000000000000000000000006001600160e01b03198316145b92915050565b606060038054610856906121bc565b80601f0160208091040260200160405190810160405280929190818152602001828054610882906121bc565b80156108cf5780601f106108a4576101008083540402835291602001916108cf565b820191906000526020600020905b8154815290600101906020018083116108b257829003601f168201915b5050505050905090565b601380546108e6906121bc565b80601f0160208091040260200160405190810160405280929190818152602001828054610912906121bc565b801561095f5780601f106109345761010080835404028352916020019161095f565b820191906000526020600020905b81548152906001019060200180831161094257829003601f168201915b505050505081565b610a1660405180610260016040528060006001600160a01b0316815260200160006001600160a01b03168152602001600015158152602001600015158152602001600015158152602001600015158152602001600081526020016000815260200160008152602001600081526020016000815260200160008152602001600081526020016000815260200160608152602001606081526020016060815260200160608152602001606081525090565b610ac560405180610260016040528060006001600160a01b0316815260200160006001600160a01b03168152602001600015158152602001600015158152602001600015158152602001600015158152602001600081526020016000815260200160008152602001600081526020016000815260200160008152602001600081526020016000815260200160608152602001606081526020016060815260200160608152602001606081525090565b600a54610100820152600b5461012082015260095460e0820152610ae7610847565b6101c082015260128054610afa906121bc565b80601f0160208091040260200160405190810160405280929190818152602001828054610b26906121bc565b8015610b735780601f10610b4857610100808354040283529160200191610b73565b820191906000526020600020905b815481529060010190602001808311610b5657829003601f168201915b50505050506101e082015260085460c0820152600e54610140820152600f5461016082015260138054610ba5906121bc565b80601f0160208091040260200160405190810160405280929190818152602001828054610bd1906121bc565b8015610c1e5780601f10610bf357610100808354040283529160200191610c1e565b820191906000526020600020905b815481529060010190602001808311610c0157829003601f168201915b505050505081610200018190525060158054610c39906121bc565b80601f0160208091040260200160405190810160405280929190818152602001828054610c65906121bc565b8015610cb25780601f10610c8757610100808354040283529160200191610cb2565b820191906000526020600020905b815481529060010190602001808311610c9557829003601f168201915b505050505081610220018190525060168054610ccd906121bc565b80601f0160208091040260200160405190810160405280929190818152602001828054610cf9906121bc565b8015610d465780601f10610d1b57610100808354040283529160200191610d46565b820191906000526020600020905b815481529060010190602001808311610d2957829003601f168201915b50505050506102408201526000546001600160a01b03166020820152610d6b8361156c565b60ff9081161560408084019190915233600081815260176020908152838220548516151560808701529181526018909152205416151560a0820152600c54610180820152600d546101a082015230815292915050565b610dc961177e565b6001600160a01b03919091166000908152601960205260409020805460ff1916911515919091179055565b601480546108e6906121bc565b610e0961177e565b476000819003610e2c576040516312171d8360e31b815260040160405180910390fd5b601054600190600090610e4090606461220c565b60105490915015610ee957600760029054906101000a90046001600160a01b03166001600160a01b0316606484601054610e7a919061221f565b610e849190612236565b604051600081818185875af1925050503d8060008114610ec0576040519150601f19603f3d011682016040523d82523d6000602084013e610ec5565b606091505b50508092505081610ee9576040516312171d8360e31b815260040160405180910390fd5b6000546001600160a01b03166064610f01858461221f565b610f0b9190612236565b604051600081818185875af1925050503d8060008114610f47576040519150601f19603f3d011682016040523d82523d6000602084013e610f4c565b606091505b50508092505081610f70576040516312171d8360e31b815260040160405180910390fd5b505050565b601680546108e6906121bc565b610f8a61177e565b4281604001511015610fc8576040517f93d9b84f00000000000000000000000000000000000000000000000000000000815260040160405180910390fd5b600c5481511080610fe0575080606001518160400151115b15611017576040517f41cc6b2100000000000000000000000000000000000000000000000000000000815260040160405180910390fd5b60c081015160129061102990826122a6565b5060e081015160139061103c90826122a6565b5061010081015160169061105090826122a6565b5080516008556080810151600e5560a0810151600f556040810151600a556060810151600b5560208101516009556101208101516007805461014090930151151560ff19921515610100029290921661ffff1990931692909217179055565b6000610841826117d8565b60006001600160a01b0382166110fc576040517f8f4eb60400000000000000000000000000000000000000000000000000000000815260040160405180910390fd5b506001600160a01b031660009081526006602052604090205467ffffffffffffffff1690565b61112a61177e565b6111346000611867565b565b601280546108e6906121bc565b606060048054610856906121bc565b600061115d4261156c565b90508060ff166001036111835760405163a8ab2d2560e01b815260040160405180910390fd5b8060ff166002036111a757604051632fc209f360e01b815260040160405180910390fd5b8060ff166003036111cb57604051630ea075bf60e21b815260040160405180910390fd5b8060ff166004036111ef57604051632437ffe960e11b815260040160405180910390fd5b60075460ff1615806112735750611271838380806020026020016040519081016040528093929190818152602001838360200280828437600092019190915250506011546040516bffffffffffffffffffffffff193360601b1660208201529092506034019050604051602081830303815290604052805190602001206118cf565b155b156112915760405163ad7acb4760e01b815260040160405180910390fd5b600f543410156112b457604051633c89335b60e11b815260040160405180910390fd5b610f70336118e5565b6112c561177e565b601155565b60606112d58261196e565b61130b576040517fa14c4b5000000000000000000000000000000000000000000000000000000000815260040160405180910390fd5b60148054611318906121bc565b80601f0160208091040260200160405190810160405280929190818152602001828054611344906121bc565b80156113915780601f1061136657610100808354040283529160200191611391565b820191906000526020600020905b81548152906001019060200180831161137457829003601f168201915b50505050509050919050565b6000546001600160a01b031633148015906113c857503360009081526019602052604090205460ff16155b156113ff576040517feaa45d6a00000000000000000000000000000000000000000000000000000000815260040160405180910390fd5b600a5442908110806114125750600b5481115b15611449576040517f91e3be3900000000000000000000000000000000000000000000000000000000815260040160405180910390fd5b6001600160a01b03821660009081526017602052604090205460ff1661149b576040517faba4733900000000000000000000000000000000000000000000000000000000815260040160405180910390fd5b6001600160a01b03821660009081526018602052604090205460ff16156114ee576040517fc98289f000000000000000000000000000000000000000000000000000000000815260040160405180910390fd5b6001600160a01b0382166000908152601860205260408120805460ff19166001908117909155600d805491929091611527908490612366565b90915550506040516001600160a01b03831681527fcbf477e63735f8d27f9b668165862d7c6e84e5650edec70229523db18c2f1efd9060200160405180910390a15050565b6000600a5482111561158057506001919050565b600754610100900460ff161580611598575060095482115b156115a557506002919050565b3360009081526017602052604090205460ff16156115c557506003919050565b60006008541180156115da5750600854600c54145b156115e757506004919050565b506000919050565b6115f761177e565b6001600160a01b0381166116785760405162461bcd60e51b815260206004820152602660248201527f4f776e61626c653a206e6577206f776e657220697320746865207a65726f206160448201527f646472657373000000000000000000000000000000000000000000000000000060648201526084015b60405180910390fd5b61168181611867565b50565b600061168f4261156c565b90508060ff166001036116b55760405163a8ab2d2560e01b815260040160405180910390fd5b8060ff166002036116d957604051632fc209f360e01b815260040160405180910390fd5b8060ff166003036116fd57604051630ea075bf60e21b815260040160405180910390fd5b8060ff1660040361172157604051632437ffe960e11b815260040160405180910390fd5b60075460ff16156117455760405163ad7acb4760e01b815260040160405180910390fd5b600e5434101561176857604051633c89335b60e11b815260040160405180910390fd5b611681336118e5565b601580546108e6906121bc565b6000546001600160a01b031633146111345760405162461bcd60e51b815260206004820181905260248201527f4f776e61626c653a2063616c6c6572206973206e6f7420746865206f776e6572604482015260640161166f565b60008180600111611835576001548110156118355760008181526005602052604081205490600160e01b82169003611833575b8060000361182c57506000190160008181526005602052604090205461180b565b9392505050565b505b6040517fdf2d9b4200000000000000000000000000000000000000000000000000000000815260040160405180910390fd5b600080546001600160a01b038381167fffffffffffffffffffffffff0000000000000000000000000000000000000000831681178455604051919092169283917f8be0079c531659141344cd1fd0a4f28419497f9722a3daafe3b4186f6b6457e09190a35050565b6000826118dc85846119a3565b14949350505050565b6001600160a01b0381166000908152601760205260408120805460ff19166001908117909155600c80549192909161191e908490612366565b9091555061192f90508160016119f0565b6040516001600160a01b03821681527fe11711cd714e06fbbbea301a8e90822f2f2ea4808e37e3adf06038f33c53ff279060200160405180910390a150565b600081600111158015611982575060015482105b8015610841575050600090815260056020526040902054600160e01b161590565b600081815b84518110156119e8576119d4828683815181106119c7576119c7612379565b6020026020010151611a0e565b9150806119e08161238f565b9150506119a8565b509392505050565b611a0a828260405180602001604052806000815250611a3a565b5050565b6000818310611a2a57600082815260208490526040902061182c565b5060009182526020526040902090565b611a448383611aa7565b6001600160a01b0383163b15610f70576001548281035b611a6e6000868380600101945086611bd8565b611a8b576040516368d2bf6b60e11b815260040160405180910390fd5b818110611a5b578160015414611aa057600080fd5b5050505050565b6001546000829003611ae5576040517fb562e8dd00000000000000000000000000000000000000000000000000000000815260040160405180910390fd5b6001600160a01b03831660008181526006602090815260408083208054680100000000000000018802019055848352600590915281206001851460e11b4260a01b178317905582840190839083907fddf252ad1be2c89b69c2b068fc378daa952ba7f163c4a11628f55a4df523b3ef8180a4600183015b818114611b9457808360007fddf252ad1be2c89b69c2b068fc378daa952ba7f163c4a11628f55a4df523b3ef600080a4600101611b5c565b5081600003611bcf576040517f2e07630000000000000000000000000000000000000000000000000000000000815260040160405180910390fd5b60015550505050565b604051630a85bd0160e11b81526000906001600160a01b0385169063150b7a0290611c0d9033908990889088906004016123a8565b6020604051808303816000875af1925050508015611c48575060408051601f3d908101601f19168201909252611c45918101906123da565b60015b611ca6573d808015611c76576040519150601f19603f3d011682016040523d82523d6000602084013e611c7b565b606091505b508051600003611c9e576040516368d2bf6b60e11b815260040160405180910390fd5b805181602001fd5b6001600160e01b031916630a85bd0160e11b149050949350505050565b6001600160e01b03198116811461168157600080fd5b600060208284031215611ceb57600080fd5b813561182c81611cc3565b6000815180845260005b81811015611d1c57602081850181015186830182015201611d00565b506000602082860101526020601f19601f83011685010191505092915050565b60208152600061182c6020830184611cf6565b80356001600160a01b0381168114611d6657600080fd5b919050565b600060208284031215611d7d57600080fd5b61182c82611d4f565b600060208284031215611d9857600080fd5b5035919050565b60208152611db96020820183516001600160a01b03169052565b60006020830151611dd560408401826001600160a01b03169052565b5060408301518015156060840152506060830151801515608084015250608083015180151560a08401525060a083015180151560c08401525060c083015160e08381019190915283015161010080840191909152830151610120808401919091528301516101408084019190915283015161016080840191909152830151610180808401919091528301516101a0808401919091528301516101c0808401919091528301516102606101e0808501829052611e94610280860184611cf6565b9250808601519050601f19610200818786030181880152611eb58584611cf6565b945080880151925050610220818786030181880152611ed48584611cf6565b945080880151925050610240818786030181880152611ef38584611cf6565b908801518782039092018488015293509050611f0f8382611cf6565b9695505050505050565b80358015158114611d6657600080fd5b60008060408385031215611f3c57600080fd5b611f4583611d4f565b9150611f5360208401611f19565b90509250929050565b634e487b7160e01b600052604160045260246000fd5b604051610160810167ffffffffffffffff81118282101715611f9657611f96611f5c565b60405290565b600082601f830112611fad57600080fd5b813567ffffffffffffffff80821115611fc857611fc8611f5c565b604051601f8301601f19908116603f01168101908282118183101715611ff057611ff0611f5c565b8160405283815286602085880101111561200957600080fd5b836020870160208301376000602085830101528094505050505092915050565b60006020828403121561203b57600080fd5b813567ffffffffffffffff8082111561205357600080fd5b90830190610160828603121561206857600080fd5b612070611f72565b823581526020830135602082015260408301356040820152606083013560608201526080830135608082015260a083013560a082015260c0830135828111156120b857600080fd5b6120c487828601611f9c565b60c08301525060e0830135828111156120dc57600080fd5b6120e887828601611f9c565b60e083015250610100808401358381111561210257600080fd5b61210e88828701611f9c565b8284015250506101209150612124828401611f19565b828201526101409150612138828401611f19565b91810191909152949350505050565b6000806020838503121561215a57600080fd5b823567ffffffffffffffff8082111561217257600080fd5b818501915085601f83011261218657600080fd5b81358181111561219557600080fd5b8660208260051b85010111156121aa57600080fd5b60209290920196919550909350505050565b600181811c908216806121d057607f821691505b6020821081036121f057634e487b7160e01b600052602260045260246000fd5b50919050565b634e487b7160e01b600052601160045260246000fd5b81810381811115610841576108416121f6565b8082028115828204841417610841576108416121f6565b60008261225357634e487b7160e01b600052601260045260246000fd5b500490565b601f821115610f7057600081815260208120601f850160051c8101602086101561227f5750805b601f850160051c820191505b8181101561229e5782815560010161228b565b505050505050565b815167ffffffffffffffff8111156122c0576122c0611f5c565b6122d4816122ce84546121bc565b84612258565b602080601f83116001811461230957600084156122f15750858301515b600019600386901b1c1916600185901b17855561229e565b600085815260208120601f198616915b8281101561233857888601518255948401946001909101908401612319565b50858210156123565787850151600019600388901b60f8161c191681555b5050505050600190811b01905550565b80820180821115610841576108416121f6565b634e487b7160e01b600052603260045260246000fd5b6000600182016123a1576123a16121f6565b5060010190565b60006001600160a01b03808716835280861660208401525083604083015260806060830152611f0f6080830184611cf6565b6000602082840312156123ec57600080fd5b815161182c81611cc356fea2646970667358221220cf8f066d9bad9e8f348d33b2224648487d5b21062b509c71ccff004b8fc67be464736f6c63430008110033a26469706673582212204a70db4147cc6e545a875ab535c3aa9fdacf498419d978799a84c5fff04aba8464736f6c63430008110033","opcodes":"PUSH1 0x1 DUP1 SSTORE PUSH1 0xC0 PUSH1 0x40 MSTORE PUSH1 0x15 PUSH1 0x80 SWAP1 DUP2 MSTORE PUSH32 0x687474703A2F2F6C6F63616C686F73743A333333330000000000000000000000 PUSH1 0xA0 MSTORE PUSH1 0x2 SWAP1 PUSH3 0x42 SWAP1 DUP3 PUSH3 0x157 JUMP JUMPDEST POP CALLVALUE DUP1 ISZERO PUSH3 0x50 JUMPI PUSH1 0x0 DUP1 REVERT JUMPDEST POP PUSH3 0x5C CALLER PUSH3 0x62 JUMP JUMPDEST PUSH3 0x223 JUMP JUMPDEST PUSH1 0x0 DUP1 SLOAD PUSH1 0x1 PUSH1 0x1 PUSH1 0xA0 SHL SUB DUP4 DUP2 AND PUSH1 0x1 PUSH1 0x1 PUSH1 0xA0 SHL SUB NOT DUP4 AND DUP2 OR DUP5 SSTORE PUSH1 0x40 MLOAD SWAP2 SWAP1 SWAP3 AND SWAP3 DUP4 SWAP2 PUSH32 0x8BE0079C531659141344CD1FD0A4F28419497F9722A3DAAFE3B4186F6B6457E0 SWAP2 SWAP1 LOG3 POP POP JUMP JUMPDEST PUSH4 0x4E487B71 PUSH1 0xE0 SHL PUSH1 0x0 MSTORE PUSH1 0x41 PUSH1 0x4 MSTORE PUSH1 0x24 PUSH1 0x0 REVERT JUMPDEST PUSH1 0x1 DUP2 DUP2 SHR SWAP1 DUP3 AND DUP1 PUSH3 0xDD JUMPI PUSH1 0x7F DUP3 AND SWAP2 POP JUMPDEST PUSH1 0x20 DUP3 LT DUP2 SUB PUSH3 0xFE JUMPI PUSH4 0x4E487B71 PUSH1 0xE0 SHL PUSH1 0x0 MSTORE PUSH1 0x22 PUSH1 0x4 MSTORE PUSH1 0x24 PUSH1 0x0 REVERT JUMPDEST POP SWAP2 SWAP1 POP JUMP JUMPDEST PUSH1 0x1F DUP3 GT ISZERO PUSH3 0x152 JUMPI PUSH1 0x0 DUP2 DUP2 MSTORE PUSH1 0x20 DUP2 KECCAK256 PUSH1 0x1F DUP6 ADD PUSH1 0x5 SHR DUP2 ADD PUSH1 0x20 DUP7 LT ISZERO PUSH3 0x12D JUMPI POP DUP1 JUMPDEST PUSH1 0x1F DUP6 ADD PUSH1 0x5 SHR DUP3 ADD SWAP2 POP JUMPDEST DUP2 DUP2 LT ISZERO PUSH3 0x14E JUMPI DUP3 DUP2 SSTORE PUSH1 0x1 ADD PUSH3 0x139 JUMP JUMPDEST POP POP POP JUMPDEST POP POP POP JUMP JUMPDEST DUP2 MLOAD PUSH1 0x1 PUSH1 0x1 PUSH1 0x40 SHL SUB DUP2 GT ISZERO PUSH3 0x173 JUMPI PUSH3 0x173 PUSH3 0xB2 JUMP JUMPDEST PUSH3 0x18B DUP2 PUSH3 0x184 DUP5 SLOAD PUSH3 0xC8 JUMP JUMPDEST DUP5 PUSH3 0x104 JUMP JUMPDEST PUSH1 0x20 DUP1 PUSH1 0x1F DUP4 GT PUSH1 0x1 DUP2 EQ PUSH3 0x1C3 JUMPI PUSH1 0x0 DUP5 ISZERO PUSH3 0x1AA JUMPI POP DUP6 DUP4 ADD MLOAD JUMPDEST PUSH1 0x0 NOT PUSH1 0x3 DUP7 SWAP1 SHL SHR NOT AND PUSH1 0x1 DUP6 SWAP1 SHL OR DUP6 SSTORE PUSH3 0x14E JUMP JUMPDEST PUSH1 0x0 DUP6 DUP2 MSTORE PUSH1 0x20 DUP2 KECCAK256 PUSH1 0x1F NOT DUP7 AND SWAP2 JUMPDEST DUP3 DUP2 LT ISZERO PUSH3 0x1F4 JUMPI DUP9 DUP7 ADD MLOAD DUP3 SSTORE SWAP5 DUP5 ADD SWAP5 PUSH1 0x1 SWAP1 SWAP2 ADD SWAP1 DUP5 ADD PUSH3 0x1D3 JUMP JUMPDEST POP DUP6 DUP3 LT ISZERO PUSH3 0x213 JUMPI DUP8 DUP6 ADD MLOAD PUSH1 0x0 NOT PUSH1 0x3 DUP9 SWAP1 SHL PUSH1 0xF8 AND SHR NOT AND DUP2 SSTORE JUMPDEST POP POP POP POP POP PUSH1 0x1 SWAP1 DUP2 SHL ADD SWAP1 SSTORE POP JUMP JUMPDEST PUSH2 0x3DEA DUP1 PUSH3 0x233 PUSH1 0x0 CODECOPY PUSH1 0x0 RETURN INVALID PUSH1 0x80 PUSH1 0x40 MSTORE CALLVALUE DUP1 ISZERO PUSH3 0x11 JUMPI PUSH1 0x0 DUP1 REVERT JUMPDEST POP PUSH1 0x4 CALLDATASIZE LT PUSH3 0xB0 JUMPI PUSH1 0x0 CALLDATALOAD PUSH1 0xE0 SHR DUP1 PUSH4 0x715018A6 GT PUSH3 0x7F JUMPI DUP1 PUSH4 0xDDCA3F43 GT PUSH3 0x62 JUMPI DUP1 PUSH4 0xDDCA3F43 EQ PUSH3 0x14E JUMPI DUP1 PUSH4 0xF2FDE38B EQ PUSH3 0x167 JUMPI DUP1 PUSH4 0xFCE580F0 EQ PUSH3 0x17E JUMPI PUSH1 0x0 DUP1 REVERT JUMPDEST DUP1 PUSH4 0x715018A6 EQ PUSH3 0x132 JUMPI DUP1 PUSH4 0x8DA5CB5B EQ PUSH3 0x13C JUMPI PUSH1 0x0 DUP1 REVERT JUMPDEST DUP1 PUSH4 0x675B7C6 EQ PUSH3 0xB5 JUMPI DUP1 PUSH4 0xB791430 EQ PUSH3 0xCE JUMPI DUP1 PUSH4 0xEA4E6A0 EQ PUSH3 0x102 JUMPI DUP1 PUSH4 0x3CCFD60B EQ PUSH3 0x128 JUMPI JUMPDEST PUSH1 0x0 DUP1 REVERT JUMPDEST PUSH3 0xCC PUSH3 0xC6 CALLDATASIZE PUSH1 0x4 PUSH3 0x80F JUMP JUMPDEST PUSH3 0x195 JUMP JUMPDEST STOP JUMPDEST PUSH3 0xE5 PUSH3 0xDF CALLDATASIZE PUSH1 0x4 PUSH3 0x897 JUMP JUMPDEST PUSH3 0x1B1 JUMP JUMPDEST PUSH1 0x40 MLOAD PUSH1 0x1 PUSH1 0x1 PUSH1 0xA0 SHL SUB SWAP1 SWAP2 AND DUP2 MSTORE PUSH1 0x20 ADD JUMPDEST PUSH1 0x40 MLOAD DUP1 SWAP2 SUB SWAP1 RETURN JUMPDEST PUSH3 0x119 PUSH3 0x113 CALLDATASIZE PUSH1 0x4 PUSH3 0x8B1 JUMP JUMPDEST PUSH3 0x1DC JUMP JUMPDEST PUSH1 0x40 MLOAD PUSH3 0xF9 SWAP2 SWAP1 PUSH3 0x932 JUMP JUMPDEST PUSH3 0xCC PUSH3 0x497 JUMP JUMPDEST PUSH3 0xCC PUSH3 0x518 JUMP JUMPDEST PUSH1 0x0 SLOAD PUSH1 0x1 PUSH1 0x1 PUSH1 0xA0 SHL SUB AND PUSH3 0xE5 JUMP JUMPDEST PUSH3 0x158 PUSH1 0x1 SLOAD DUP2 JUMP JUMPDEST PUSH1 0x40 MLOAD SWAP1 DUP2 MSTORE PUSH1 0x20 ADD PUSH3 0xF9 JUMP JUMPDEST PUSH3 0xCC PUSH3 0x178 CALLDATASIZE PUSH1 0x4 PUSH3 0xADD JUMP JUMPDEST PUSH3 0x530 JUMP JUMPDEST PUSH3 0xE5 PUSH3 0x18F CALLDATASIZE PUSH1 0x4 PUSH3 0xAFD JUMP JUMPDEST PUSH3 0x5CA JUMP JUMPDEST PUSH3 0x19F PUSH3 0x6A6 JUMP JUMPDEST PUSH1 0x2 PUSH3 0x1AD DUP3 DUP3 PUSH3 0xBCB JUMP JUMPDEST POP POP JUMP JUMPDEST PUSH1 0x3 DUP2 DUP2 SLOAD DUP2 LT PUSH3 0x1C2 JUMPI PUSH1 0x0 DUP1 REVERT JUMPDEST PUSH1 0x0 SWAP2 DUP3 MSTORE PUSH1 0x20 SWAP1 SWAP2 KECCAK256 ADD SLOAD PUSH1 0x1 PUSH1 0x1 PUSH1 0xA0 SHL SUB AND SWAP1 POP DUP2 JUMP JUMPDEST PUSH1 0x3 SLOAD PUSH1 0x60 SWAP1 PUSH1 0x0 DUP1 DUP1 DUP4 DUP9 LT PUSH3 0x1F8 JUMPI PUSH1 0x0 SWAP3 POP PUSH3 0x224 JUMP JUMPDEST DUP7 PUSH3 0x205 DUP10 DUP7 PUSH3 0xCAE JUMP JUMPDEST LT ISZERO PUSH3 0x220 JUMPI PUSH3 0x218 DUP9 DUP6 PUSH3 0xCAE JUMP JUMPDEST SWAP3 POP PUSH3 0x224 JUMP JUMPDEST DUP7 SWAP3 POP JUMPDEST PUSH1 0x0 DUP4 PUSH8 0xFFFFFFFFFFFFFFFF DUP2 GT ISZERO PUSH3 0x242 JUMPI PUSH3 0x242 PUSH3 0x76D JUMP JUMPDEST PUSH1 0x40 MLOAD SWAP1 DUP1 DUP3 MSTORE DUP1 PUSH1 0x20 MUL PUSH1 0x20 ADD DUP3 ADD PUSH1 0x40 MSTORE DUP1 ISZERO PUSH3 0x325 JUMPI DUP2 PUSH1 0x20 ADD JUMPDEST PUSH3 0x311 PUSH1 0x40 MLOAD DUP1 PUSH2 0x260 ADD PUSH1 0x40 MSTORE DUP1 PUSH1 0x0 PUSH1 0x1 PUSH1 0x1 PUSH1 0xA0 SHL SUB AND DUP2 MSTORE PUSH1 0x20 ADD PUSH1 0x0 PUSH1 0x1 PUSH1 0x1 PUSH1 0xA0 SHL SUB AND DUP2 MSTORE PUSH1 0x20 ADD PUSH1 0x0 ISZERO ISZERO DUP2 MSTORE PUSH1 0x20 ADD PUSH1 0x0 ISZERO ISZERO DUP2 MSTORE PUSH1 0x20 ADD PUSH1 0x0 ISZERO ISZERO DUP2 MSTORE PUSH1 0x20 ADD PUSH1 0x0 ISZERO ISZERO DUP2 MSTORE PUSH1 0x20 ADD PUSH1 0x0 DUP2 MSTORE PUSH1 0x20 ADD PUSH1 0x0 DUP2 MSTORE PUSH1 0x20 ADD PUSH1 0x0 DUP2 MSTORE PUSH1 0x20 ADD PUSH1 0x0 DUP2 MSTORE PUSH1 0x20 ADD PUSH1 0x0 DUP2 MSTORE PUSH1 0x20 ADD PUSH1 0x0 DUP2 MSTORE PUSH1 0x20 ADD PUSH1 0x0 DUP2 MSTORE PUSH1 0x20 ADD PUSH1 0x0 DUP2 MSTORE PUSH1 0x20 ADD PUSH1 0x60 DUP2 MSTORE PUSH1 0x20 ADD PUSH1 0x60 DUP2 MSTORE PUSH1 0x20 ADD PUSH1 0x60 DUP2 MSTORE PUSH1 0x20 ADD PUSH1 0x60 DUP2 MSTORE PUSH1 0x20 ADD PUSH1 0x60 DUP2 MSTORE POP SWAP1 JUMP JUMPDEST DUP2 MSTORE PUSH1 0x20 ADD SWAP1 PUSH1 0x1 SWAP1 SUB SWAP1 DUP2 PUSH3 0x261 JUMPI SWAP1 POP JUMPDEST POP SWAP1 POP DUP4 PUSH1 0x0 SUB PUSH3 0x33E JUMPI SWAP5 POP PUSH3 0x490 SWAP4 POP POP POP POP JUMP JUMPDEST PUSH3 0x34A DUP5 DUP7 PUSH3 0xCAE JUMP JUMPDEST SWAP3 POP DUP4 ISZERO PUSH3 0x363 JUMPI PUSH3 0x360 PUSH1 0x1 DUP6 PUSH3 0xCAE JUMP JUMPDEST SWAP2 POP JUMPDEST DUP2 JUMPDEST PUSH1 0x0 PUSH1 0x3 DUP3 DUP2 SLOAD DUP2 LT PUSH3 0x37D JUMPI PUSH3 0x37D PUSH3 0xCCA JUMP JUMPDEST PUSH1 0x0 SWAP2 DUP3 MSTORE PUSH1 0x20 SWAP1 SWAP2 KECCAK256 ADD SLOAD PUSH1 0x40 MLOAD PUSH32 0x1D645B1200000000000000000000000000000000000000000000000000000000 DUP2 MSTORE PUSH1 0x4 DUP2 ADD DUP12 SWAP1 MSTORE PUSH1 0x1 PUSH1 0x1 PUSH1 0xA0 SHL SUB SWAP1 SWAP2 AND SWAP2 POP DUP2 SWAP1 PUSH4 0x1D645B12 SWAP1 PUSH1 0x24 ADD PUSH1 0x0 PUSH1 0x40 MLOAD DUP1 DUP4 SUB DUP2 DUP7 GAS STATICCALL ISZERO DUP1 ISZERO PUSH3 0x3EC JUMPI RETURNDATASIZE PUSH1 0x0 DUP1 RETURNDATACOPY RETURNDATASIZE PUSH1 0x0 REVERT JUMPDEST POP POP POP POP PUSH1 0x40 MLOAD RETURNDATASIZE PUSH1 0x0 DUP3 RETURNDATACOPY PUSH1 0x1F RETURNDATASIZE SWAP1 DUP2 ADD PUSH1 0x1F NOT AND DUP3 ADD PUSH1 0x40 MSTORE PUSH3 0x416 SWAP2 SWAP1 DUP2 ADD SWAP1 PUSH3 0xD62 JUMP JUMPDEST DUP4 PUSH3 0x423 DUP5 DUP8 PUSH3 0xCAE JUMP JUMPDEST DUP2 MLOAD DUP2 LT PUSH3 0x436 JUMPI PUSH3 0x436 PUSH3 0xCCA JUMP JUMPDEST PUSH1 0x20 SWAP1 DUP2 MUL SWAP2 SWAP1 SWAP2 ADD ADD MSTORE PUSH3 0x44E PUSH1 0x1 DUP8 PUSH3 0xCAE JUMP JUMPDEST PUSH3 0x45A DUP4 DUP7 PUSH3 0xCAE JUMP JUMPDEST EQ DUP1 PUSH3 0x465 JUMPI POP DUP2 ISZERO JUMPDEST ISZERO PUSH3 0x472 JUMPI POP PUSH3 0x488 JUMP JUMPDEST DUP2 PUSH3 0x47E DUP2 PUSH3 0xF48 JUMP JUMPDEST SWAP3 POP POP POP PUSH3 0x365 JUMP JUMPDEST POP SWAP5 POP POP POP POP POP JUMPDEST SWAP4 SWAP3 POP POP POP JUMP JUMPDEST PUSH3 0x4A1 PUSH3 0x6A6 JUMP JUMPDEST SELFBALANCE PUSH1 0x0 DUP2 SWAP1 SUB PUSH3 0x4DE JUMPI PUSH1 0x40 MLOAD PUSH32 0x90B8EC1800000000000000000000000000000000000000000000000000000000 DUP2 MSTORE PUSH1 0x4 ADD PUSH1 0x40 MLOAD DUP1 SWAP2 SUB SWAP1 REVERT JUMPDEST PUSH1 0x0 DUP1 SLOAD PUSH1 0x40 MLOAD PUSH1 0x1 PUSH1 0x1 PUSH1 0xA0 SHL SUB SWAP1 SWAP2 AND SWAP2 DUP4 ISZERO PUSH2 0x8FC MUL SWAP2 DUP5 SWAP2 DUP2 DUP2 DUP2 DUP6 DUP9 DUP9 CALL SWAP4 POP POP POP POP ISZERO DUP1 ISZERO PUSH3 0x1AD JUMPI RETURNDATASIZE PUSH1 0x0 DUP1 RETURNDATACOPY RETURNDATASIZE PUSH1 0x0 REVERT JUMPDEST PUSH3 0x522 PUSH3 0x6A6 JUMP JUMPDEST PUSH3 0x52E PUSH1 0x0 PUSH3 0x702 JUMP JUMPDEST JUMP JUMPDEST PUSH3 0x53A PUSH3 0x6A6 JUMP JUMPDEST PUSH1 0x1 PUSH1 0x1 PUSH1 0xA0 SHL SUB DUP2 AND PUSH3 0x5BC JUMPI PUSH1 0x40 MLOAD PUSH3 0x461BCD PUSH1 0xE5 SHL DUP2 MSTORE PUSH1 0x20 PUSH1 0x4 DUP3 ADD MSTORE PUSH1 0x26 PUSH1 0x24 DUP3 ADD MSTORE PUSH32 0x4F776E61626C653A206E6577206F776E657220697320746865207A65726F2061 PUSH1 0x44 DUP3 ADD MSTORE PUSH32 0x6464726573730000000000000000000000000000000000000000000000000000 PUSH1 0x64 DUP3 ADD MSTORE PUSH1 0x84 ADD JUMPDEST PUSH1 0x40 MLOAD DUP1 SWAP2 SUB SWAP1 REVERT JUMPDEST PUSH3 0x5C7 DUP2 PUSH3 0x702 JUMP JUMPDEST POP JUMP JUMPDEST PUSH1 0x0 DUP1 DUP3 CALLER PUSH1 0x1 SLOAD PUSH1 0x2 PUSH1 0x40 MLOAD PUSH3 0x5E2 SWAP1 PUSH3 0x75F JUMP JUMPDEST PUSH3 0x5F1 SWAP5 SWAP4 SWAP3 SWAP2 SWAP1 PUSH3 0x106D JUMP JUMPDEST PUSH1 0x40 MLOAD DUP1 SWAP2 SUB SWAP1 PUSH1 0x0 CREATE DUP1 ISZERO DUP1 ISZERO PUSH3 0x60E JUMPI RETURNDATASIZE PUSH1 0x0 DUP1 RETURNDATACOPY RETURNDATASIZE PUSH1 0x0 REVERT JUMPDEST POP PUSH1 0x3 DUP1 SLOAD PUSH1 0x1 DUP2 ADD DUP3 SSTORE PUSH1 0x0 SWAP2 SWAP1 SWAP2 MSTORE PUSH32 0xC2575A0E9E593C00F959F8C92F12DB2869C3395A3B0502D05E2516446F71F85B ADD DUP1 SLOAD PUSH20 0xFFFFFFFFFFFFFFFFFFFFFFFFFFFFFFFFFFFFFFFF NOT AND PUSH1 0x1 PUSH1 0x1 PUSH1 0xA0 SHL SUB DUP4 AND SWAP1 DUP2 OR SWAP1 SWAP2 SSTORE PUSH1 0x40 MLOAD SWAP1 DUP2 MSTORE SWAP1 SWAP2 POP PUSH32 0xFC8A4C0621B9788C4DBE57053A51CE2D22625A067D039F38004DF2A07CA755A4 SWAP1 PUSH1 0x20 ADD PUSH1 0x40 MLOAD DUP1 SWAP2 SUB SWAP1 LOG1 SWAP3 SWAP2 POP POP JUMP JUMPDEST PUSH1 0x0 SLOAD PUSH1 0x1 PUSH1 0x1 PUSH1 0xA0 SHL SUB AND CALLER EQ PUSH3 0x52E JUMPI PUSH1 0x40 MLOAD PUSH3 0x461BCD PUSH1 0xE5 SHL DUP2 MSTORE PUSH1 0x20 PUSH1 0x4 DUP3 ADD DUP2 SWAP1 MSTORE PUSH1 0x24 DUP3 ADD MSTORE PUSH32 0x4F776E61626C653A2063616C6C6572206973206E6F7420746865206F776E6572 PUSH1 0x44 DUP3 ADD MSTORE PUSH1 0x64 ADD PUSH3 0x5B3 JUMP JUMPDEST PUSH1 0x0 DUP1 SLOAD PUSH1 0x1 PUSH1 0x1 PUSH1 0xA0 SHL SUB DUP4 DUP2 AND PUSH20 0xFFFFFFFFFFFFFFFFFFFFFFFFFFFFFFFFFFFFFFFF NOT DUP4 AND DUP2 OR DUP5 SSTORE PUSH1 0x40 MLOAD SWAP2 SWAP1 SWAP3 AND SWAP3 DUP4 SWAP2 PUSH32 0x8BE0079C531659141344CD1FD0A4F28419497F9722A3DAAFE3B4186F6B6457E0 SWAP2 SWAP1 LOG3 POP POP JUMP JUMPDEST PUSH2 0x2BB1 DUP1 PUSH3 0x1204 DUP4 CODECOPY ADD SWAP1 JUMP JUMPDEST PUSH4 0x4E487B71 PUSH1 0xE0 SHL PUSH1 0x0 MSTORE PUSH1 0x41 PUSH1 0x4 MSTORE PUSH1 0x24 PUSH1 0x0 REVERT JUMPDEST PUSH1 0x40 MLOAD PUSH2 0x260 DUP2 ADD PUSH8 0xFFFFFFFFFFFFFFFF DUP2 GT DUP3 DUP3 LT OR ISZERO PUSH3 0x7AA JUMPI PUSH3 0x7AA PUSH3 0x76D JUMP JUMPDEST PUSH1 0x40 MSTORE SWAP1 JUMP JUMPDEST PUSH1 0x40 MLOAD PUSH1 0x1F DUP3 ADD PUSH1 0x1F NOT AND DUP2 ADD PUSH8 0xFFFFFFFFFFFFFFFF DUP2 GT DUP3 DUP3 LT OR ISZERO PUSH3 0x7DC JUMPI PUSH3 0x7DC PUSH3 0x76D JUMP JUMPDEST PUSH1 0x40 MSTORE SWAP2 SWAP1 POP JUMP JUMPDEST PUSH1 0x0 PUSH8 0xFFFFFFFFFFFFFFFF DUP3 GT ISZERO PUSH3 0x801 JUMPI PUSH3 0x801 PUSH3 0x76D JUMP JUMPDEST POP PUSH1 0x1F ADD PUSH1 0x1F NOT AND PUSH1 0x20 ADD SWAP1 JUMP JUMPDEST PUSH1 0x0 PUSH1 0x20 DUP3 DUP5 SUB SLT ISZERO PUSH3 0x822 JUMPI PUSH1 0x0 DUP1 REVERT JUMPDEST DUP2 CALLDATALOAD PUSH8 0xFFFFFFFFFFFFFFFF DUP2 GT ISZERO PUSH3 0x83A JUMPI PUSH1 0x0 DUP1 REVERT JUMPDEST DUP3 ADD PUSH1 0x1F DUP2 ADD DUP5 SGT PUSH3 0x84C JUMPI PUSH1 0x0 DUP1 REVERT JUMPDEST DUP1 CALLDATALOAD PUSH3 0x863 PUSH3 0x85D DUP3 PUSH3 0x7E4 JUMP JUMPDEST PUSH3 0x7B0 JUMP JUMPDEST DUP2 DUP2 MSTORE DUP6 PUSH1 0x20 DUP4 DUP6 ADD ADD GT ISZERO PUSH3 0x879 JUMPI PUSH1 0x0 DUP1 REVERT JUMPDEST DUP2 PUSH1 0x20 DUP5 ADD PUSH1 0x20 DUP4 ADD CALLDATACOPY PUSH1 0x0 SWAP2 DUP2 ADD PUSH1 0x20 ADD SWAP2 SWAP1 SWAP2 MSTORE SWAP5 SWAP4 POP POP POP POP JUMP JUMPDEST PUSH1 0x0 PUSH1 0x20 DUP3 DUP5 SUB SLT ISZERO PUSH3 0x8AA JUMPI PUSH1 0x0 DUP1 REVERT JUMPDEST POP CALLDATALOAD SWAP2 SWAP1 POP JUMP JUMPDEST PUSH1 0x0 DUP1 PUSH1 0x0 PUSH1 0x60 DUP5 DUP7 SUB SLT ISZERO PUSH3 0x8C7 JUMPI PUSH1 0x0 DUP1 REVERT JUMPDEST POP POP DUP2 CALLDATALOAD SWAP4 PUSH1 0x20 DUP4 ADD CALLDATALOAD SWAP4 POP PUSH1 0x40 SWAP1 SWAP3 ADD CALLDATALOAD SWAP2 SWAP1 POP JUMP JUMPDEST PUSH1 0x0 JUMPDEST DUP4 DUP2 LT ISZERO PUSH3 0x8FB JUMPI DUP2 DUP2 ADD MLOAD DUP4 DUP3 ADD MSTORE PUSH1 0x20 ADD PUSH3 0x8E1 JUMP JUMPDEST POP POP PUSH1 0x0 SWAP2 ADD MSTORE JUMP JUMPDEST PUSH1 0x0 DUP2 MLOAD DUP1 DUP5 MSTORE PUSH3 0x91E DUP2 PUSH1 0x20 DUP7 ADD PUSH1 0x20 DUP7 ADD PUSH3 0x8DE JUMP JUMPDEST PUSH1 0x1F ADD PUSH1 0x1F NOT AND SWAP3 SWAP1 SWAP3 ADD PUSH1 0x20 ADD SWAP3 SWAP2 POP POP JUMP JUMPDEST PUSH1 0x0 PUSH1 0x20 DUP1 DUP4 ADD DUP2 DUP5 MSTORE DUP1 DUP6 MLOAD DUP1 DUP4 MSTORE PUSH1 0x40 SWAP3 POP DUP3 DUP7 ADD SWAP2 POP DUP3 DUP2 PUSH1 0x5 SHL DUP8 ADD ADD DUP5 DUP9 ADD PUSH1 0x0 JUMPDEST DUP4 DUP2 LT ISZERO PUSH3 0xAB9 JUMPI PUSH1 0x3F NOT DUP10 DUP5 SUB ADD DUP6 MSTORE DUP2 MLOAD DUP1 MLOAD PUSH1 0x1 PUSH1 0x1 PUSH1 0xA0 SHL SUB SWAP1 DUP2 AND DUP6 MSTORE DUP9 DUP3 ADD MLOAD AND DUP9 DUP6 ADD MSTORE DUP7 DUP2 ADD MLOAD ISZERO ISZERO DUP8 DUP6 ADD MSTORE PUSH1 0x60 DUP1 DUP3 ADD MLOAD ISZERO ISZERO SWAP1 DUP6 ADD MSTORE PUSH1 0x80 DUP1 DUP3 ADD MLOAD ISZERO ISZERO SWAP1 DUP6 ADD MSTORE PUSH1 0xA0 DUP1 DUP3 ADD MLOAD ISZERO ISZERO SWAP1 DUP6 ADD MSTORE PUSH1 0xC0 DUP1 DUP3 ADD MLOAD SWAP1 DUP6 ADD MSTORE PUSH1 0xE0 DUP1 DUP3 ADD MLOAD SWAP1 DUP6 ADD MSTORE PUSH2 0x100 DUP1 DUP3 ADD MLOAD SWAP1 DUP6 ADD MSTORE PUSH2 0x120 DUP1 DUP3 ADD MLOAD SWAP1 DUP6 ADD MSTORE PUSH2 0x140 DUP1 DUP3 ADD MLOAD SWAP1 DUP6 ADD MSTORE PUSH2 0x160 DUP1 DUP3 ADD MLOAD SWAP1 DUP6 ADD MSTORE PUSH2 0x180 DUP1 DUP3 ADD MLOAD SWAP1 DUP6 ADD MSTORE PUSH2 0x1A0 DUP1 DUP3 ADD MLOAD SWAP1 DUP6 ADD MSTORE PUSH2 0x1C0 DUP1 DUP3 ADD MLOAD PUSH2 0x260 DUP3 DUP8 ADD DUP2 SWAP1 MSTORE SWAP2 SWAP1 PUSH3 0xA29 DUP4 DUP9 ADD DUP3 PUSH3 0x904 JUMP JUMPDEST SWAP3 POP POP POP PUSH2 0x1E0 DUP1 DUP4 ADD MLOAD DUP7 DUP4 SUB DUP3 DUP9 ADD MSTORE PUSH3 0xA47 DUP4 DUP3 PUSH3 0x904 JUMP JUMPDEST SWAP3 POP POP POP PUSH2 0x200 DUP1 DUP4 ADD MLOAD DUP7 DUP4 SUB DUP3 DUP9 ADD MSTORE PUSH3 0xA65 DUP4 DUP3 PUSH3 0x904 JUMP JUMPDEST SWAP3 POP POP POP PUSH2 0x220 DUP1 DUP4 ADD MLOAD DUP7 DUP4 SUB DUP3 DUP9 ADD MSTORE PUSH3 0xA83 DUP4 DUP3 PUSH3 0x904 JUMP JUMPDEST SWAP3 POP POP POP PUSH2 0x240 DUP1 DUP4 ADD MLOAD SWAP3 POP DUP6 DUP3 SUB DUP2 DUP8 ADD MSTORE POP PUSH3 0xAA4 DUP2 DUP4 PUSH3 0x904 JUMP JUMPDEST SWAP7 DUP10 ADD SWAP7 SWAP5 POP POP POP SWAP1 DUP7 ADD SWAP1 PUSH1 0x1 ADD PUSH3 0x959 JUMP JUMPDEST POP SWAP1 SWAP9 SWAP8 POP POP POP POP POP POP POP POP JUMP JUMPDEST PUSH1 0x1 PUSH1 0x1 PUSH1 0xA0 SHL SUB DUP2 AND DUP2 EQ PUSH3 0x5C7 JUMPI PUSH1 0x0 DUP1 REVERT JUMPDEST PUSH1 0x0 PUSH1 0x20 DUP3 DUP5 SUB SLT ISZERO PUSH3 0xAF0 JUMPI PUSH1 0x0 DUP1 REVERT JUMPDEST DUP2 CALLDATALOAD PUSH3 0x490 DUP2 PUSH3 0xAC7 JUMP JUMPDEST PUSH1 0x0 PUSH1 0x20 DUP3 DUP5 SUB SLT ISZERO PUSH3 0xB10 JUMPI PUSH1 0x0 DUP1 REVERT JUMPDEST DUP2 CALLDATALOAD PUSH8 0xFFFFFFFFFFFFFFFF DUP2 GT ISZERO PUSH3 0xB28 JUMPI PUSH1 0x0 DUP1 REVERT JUMPDEST DUP3 ADD PUSH2 0x1A0 DUP2 DUP6 SUB SLT ISZERO PUSH3 0x490 JUMPI PUSH1 0x0 DUP1 REVERT JUMPDEST PUSH1 0x1 DUP2 DUP2 SHR SWAP1 DUP3 AND DUP1 PUSH3 0xB51 JUMPI PUSH1 0x7F DUP3 AND SWAP2 POP JUMPDEST PUSH1 0x20 DUP3 LT DUP2 SUB PUSH3 0xB72 JUMPI PUSH4 0x4E487B71 PUSH1 0xE0 SHL PUSH1 0x0 MSTORE PUSH1 0x22 PUSH1 0x4 MSTORE PUSH1 0x24 PUSH1 0x0 REVERT JUMPDEST POP SWAP2 SWAP1 POP JUMP JUMPDEST PUSH1 0x1F DUP3 GT ISZERO PUSH3 0xBC6 JUMPI PUSH1 0x0 DUP2 DUP2 MSTORE PUSH1 0x20 DUP2 KECCAK256 PUSH1 0x1F DUP6 ADD PUSH1 0x5 SHR DUP2 ADD PUSH1 0x20 DUP7 LT ISZERO PUSH3 0xBA1 JUMPI POP DUP1 JUMPDEST PUSH1 0x1F DUP6 ADD PUSH1 0x5 SHR DUP3 ADD SWAP2 POP JUMPDEST DUP2 DUP2 LT ISZERO PUSH3 0xBC2 JUMPI DUP3 DUP2 SSTORE PUSH1 0x1 ADD PUSH3 0xBAD JUMP JUMPDEST POP POP POP JUMPDEST POP POP POP JUMP JUMPDEST DUP2 MLOAD PUSH8 0xFFFFFFFFFFFFFFFF DUP2 GT ISZERO PUSH3 0xBE8 JUMPI PUSH3 0xBE8 PUSH3 0x76D JUMP JUMPDEST PUSH3 0xC00 DUP2 PUSH3 0xBF9 DUP5 SLOAD PUSH3 0xB3C JUMP JUMPDEST DUP5 PUSH3 0xB78 JUMP JUMPDEST PUSH1 0x20 DUP1 PUSH1 0x1F DUP4 GT PUSH1 0x1 DUP2 EQ PUSH3 0xC38 JUMPI PUSH1 0x0 DUP5 ISZERO PUSH3 0xC1F JUMPI POP DUP6 DUP4 ADD MLOAD JUMPDEST PUSH1 0x0 NOT PUSH1 0x3 DUP7 SWAP1 SHL SHR NOT AND PUSH1 0x1 DUP6 SWAP1 SHL OR DUP6 SSTORE PUSH3 0xBC2 JUMP JUMPDEST PUSH1 0x0 DUP6 DUP2 MSTORE PUSH1 0x20 DUP2 KECCAK256 PUSH1 0x1F NOT DUP7 AND SWAP2 JUMPDEST DUP3 DUP2 LT ISZERO PUSH3 0xC69 JUMPI DUP9 DUP7 ADD MLOAD DUP3 SSTORE SWAP5 DUP5 ADD SWAP5 PUSH1 0x1 SWAP1 SWAP2 ADD SWAP1 DUP5 ADD PUSH3 0xC48 JUMP JUMPDEST POP DUP6 DUP3 LT ISZERO PUSH3 0xC88 JUMPI DUP8 DUP6 ADD MLOAD PUSH1 0x0 NOT PUSH1 0x3 DUP9 SWAP1 SHL PUSH1 0xF8 AND SHR NOT AND DUP2 SSTORE JUMPDEST POP POP POP POP POP PUSH1 0x1 SWAP1 DUP2 SHL ADD SWAP1 SSTORE POP JUMP JUMPDEST PUSH4 0x4E487B71 PUSH1 0xE0 SHL PUSH1 0x0 MSTORE PUSH1 0x11 PUSH1 0x4 MSTORE PUSH1 0x24 PUSH1 0x0 REVERT JUMPDEST DUP2 DUP2 SUB DUP2 DUP2 GT ISZERO PUSH3 0xCC4 JUMPI PUSH3 0xCC4 PUSH3 0xC98 JUMP JUMPDEST SWAP3 SWAP2 POP POP JUMP JUMPDEST PUSH4 0x4E487B71 PUSH1 0xE0 SHL PUSH1 0x0 MSTORE PUSH1 0x32 PUSH1 0x4 MSTORE PUSH1 0x24 PUSH1 0x0 REVERT JUMPDEST DUP1 MLOAD PUSH3 0xCED DUP2 PUSH3 0xAC7 JUMP JUMPDEST SWAP2 SWAP1 POP JUMP JUMPDEST DUP1 ISZERO ISZERO DUP2 EQ PUSH3 0x5C7 JUMPI PUSH1 0x0 DUP1 REVERT JUMPDEST DUP1 MLOAD PUSH3 0xCED DUP2 PUSH3 0xCF2 JUMP JUMPDEST PUSH1 0x0 DUP3 PUSH1 0x1F DUP4 ADD SLT PUSH3 0xD20 JUMPI PUSH1 0x0 DUP1 REVERT JUMPDEST DUP2 MLOAD PUSH3 0xD31 PUSH3 0x85D DUP3 PUSH3 0x7E4 JUMP JUMPDEST DUP2 DUP2 MSTORE DUP5 PUSH1 0x20 DUP4 DUP7 ADD ADD GT ISZERO PUSH3 0xD47 JUMPI PUSH1 0x0 DUP1 REVERT JUMPDEST PUSH3 0xD5A DUP3 PUSH1 0x20 DUP4 ADD PUSH1 0x20 DUP8 ADD PUSH3 0x8DE JUMP JUMPDEST SWAP5 SWAP4 POP POP POP POP JUMP JUMPDEST PUSH1 0x0 PUSH1 0x20 DUP3 DUP5 SUB SLT ISZERO PUSH3 0xD75 JUMPI PUSH1 0x0 DUP1 REVERT JUMPDEST DUP2 MLOAD PUSH8 0xFFFFFFFFFFFFFFFF DUP1 DUP3 GT ISZERO PUSH3 0xD8E JUMPI PUSH1 0x0 DUP1 REVERT JUMPDEST SWAP1 DUP4 ADD SWAP1 PUSH2 0x260 DUP3 DUP7 SUB SLT ISZERO PUSH3 0xDA4 JUMPI PUSH1 0x0 DUP1 REVERT JUMPDEST PUSH3 0xDAE PUSH3 0x783 JUMP JUMPDEST PUSH3 0xDB9 DUP4 PUSH3 0xCE0 JUMP JUMPDEST DUP2 MSTORE PUSH3 0xDC9 PUSH1 0x20 DUP5 ADD PUSH3 0xCE0 JUMP JUMPDEST PUSH1 0x20 DUP3 ADD MSTORE PUSH3 0xDDC PUSH1 0x40 DUP5 ADD PUSH3 0xD01 JUMP JUMPDEST PUSH1 0x40 DUP3 ADD MSTORE PUSH3 0xDEF PUSH1 0x60 DUP5 ADD PUSH3 0xD01 JUMP JUMPDEST PUSH1 0x60 DUP3 ADD MSTORE PUSH3 0xE02 PUSH1 0x80 DUP5 ADD PUSH3 0xD01 JUMP JUMPDEST PUSH1 0x80 DUP3 ADD MSTORE PUSH3 0xE15 PUSH1 0xA0 DUP5 ADD PUSH3 0xD01 JUMP JUMPDEST PUSH1 0xA0 DUP3 ADD MSTORE PUSH1 0xC0 DUP4 DUP2 ADD MLOAD SWAP1 DUP3 ADD MSTORE PUSH1 0xE0 DUP1 DUP5 ADD MLOAD SWAP1 DUP3 ADD MSTORE PUSH2 0x100 DUP1 DUP5 ADD MLOAD SWAP1 DUP3 ADD MSTORE PUSH2 0x120 DUP1 DUP5 ADD MLOAD SWAP1 DUP3 ADD MSTORE PUSH2 0x140 DUP1 DUP5 ADD MLOAD SWAP1 DUP3 ADD MSTORE PUSH2 0x160 DUP1 DUP5 ADD MLOAD SWAP1 DUP3 ADD MSTORE PUSH2 0x180 DUP1 DUP5 ADD MLOAD SWAP1 DUP3 ADD MSTORE PUSH2 0x1A0 DUP1 DUP5 ADD MLOAD SWAP1 DUP3 ADD MSTORE PUSH2 0x1C0 DUP1 DUP5 ADD MLOAD DUP4 DUP2 GT ISZERO PUSH3 0xE85 JUMPI PUSH1 0x0 DUP1 REVERT JUMPDEST PUSH3 0xE93 DUP9 DUP3 DUP8 ADD PUSH3 0xD0E JUMP JUMPDEST DUP3 DUP5 ADD MSTORE POP POP PUSH2 0x1E0 DUP1 DUP5 ADD MLOAD DUP4 DUP2 GT ISZERO PUSH3 0xEAE JUMPI PUSH1 0x0 DUP1 REVERT JUMPDEST PUSH3 0xEBC DUP9 DUP3 DUP8 ADD PUSH3 0xD0E JUMP JUMPDEST DUP3 DUP5 ADD MSTORE POP POP PUSH2 0x200 DUP1 DUP5 ADD MLOAD DUP4 DUP2 GT ISZERO PUSH3 0xED7 JUMPI PUSH1 0x0 DUP1 REVERT JUMPDEST PUSH3 0xEE5 DUP9 DUP3 DUP8 ADD PUSH3 0xD0E JUMP JUMPDEST DUP3 DUP5 ADD MSTORE POP POP PUSH2 0x220 DUP1 DUP5 ADD MLOAD DUP4 DUP2 GT ISZERO PUSH3 0xF00 JUMPI PUSH1 0x0 DUP1 REVERT JUMPDEST PUSH3 0xF0E DUP9 DUP3 DUP8 ADD PUSH3 0xD0E JUMP JUMPDEST DUP3 DUP5 ADD MSTORE POP POP PUSH2 0x240 DUP1 DUP5 ADD MLOAD DUP4 DUP2 GT ISZERO PUSH3 0xF29 JUMPI PUSH1 0x0 DUP1 REVERT JUMPDEST PUSH3 0xF37 DUP9 DUP3 DUP8 ADD PUSH3 0xD0E JUMP JUMPDEST SWAP2 DUP4 ADD SWAP2 SWAP1 SWAP2 MSTORE POP SWAP6 SWAP5 POP POP POP POP POP JUMP JUMPDEST PUSH1 0x0 DUP2 PUSH3 0xF5A JUMPI PUSH3 0xF5A PUSH3 0xC98 JUMP JUMPDEST POP PUSH1 0x0 NOT ADD SWAP1 JUMP JUMPDEST PUSH1 0x0 DUP1 DUP4 CALLDATALOAD PUSH1 0x1E NOT DUP5 CALLDATASIZE SUB ADD DUP2 SLT PUSH3 0xF7A JUMPI PUSH1 0x0 DUP1 REVERT JUMPDEST DUP4 ADD PUSH1 0x20 DUP2 ADD SWAP3 POP CALLDATALOAD SWAP1 POP PUSH8 0xFFFFFFFFFFFFFFFF DUP2 GT ISZERO PUSH3 0xF9B JUMPI PUSH1 0x0 DUP1 REVERT JUMPDEST DUP1 CALLDATASIZE SUB DUP3 SGT ISZERO PUSH3 0xFAB JUMPI PUSH1 0x0 DUP1 REVERT JUMPDEST SWAP3 POP SWAP3 SWAP1 POP JUMP JUMPDEST DUP2 DUP4 MSTORE DUP2 DUP2 PUSH1 0x20 DUP6 ADD CALLDATACOPY POP PUSH1 0x0 DUP3 DUP3 ADD PUSH1 0x20 SWAP1 DUP2 ADD SWAP2 SWAP1 SWAP2 MSTORE PUSH1 0x1F SWAP1 SWAP2 ADD PUSH1 0x1F NOT AND SWAP1 SWAP2 ADD ADD SWAP1 JUMP JUMPDEST DUP1 CALLDATALOAD PUSH3 0xCED DUP2 PUSH3 0xCF2 JUMP JUMPDEST PUSH1 0x0 DUP2 SLOAD PUSH3 0xFF7 DUP2 PUSH3 0xB3C JUMP JUMPDEST DUP1 DUP6 MSTORE PUSH1 0x20 PUSH1 0x1 DUP4 DUP2 AND DUP1 ISZERO PUSH3 0x1017 JUMPI PUSH1 0x1 DUP2 EQ PUSH3 0x1032 JUMPI PUSH3 0x1062 JUMP JUMPDEST PUSH1 0xFF NOT DUP6 AND DUP9 DUP5 ADD MSTORE DUP4 ISZERO ISZERO PUSH1 0x5 SHL DUP9 ADD DUP4 ADD SWAP6 POP PUSH3 0x1062 JUMP JUMPDEST DUP7 PUSH1 0x0 MSTORE DUP3 PUSH1 0x0 KECCAK256 PUSH1 0x0 JUMPDEST DUP6 DUP2 LT ISZERO PUSH3 0x105A JUMPI DUP2 SLOAD DUP11 DUP3 ADD DUP7 ADD MSTORE SWAP1 DUP4 ADD SWAP1 DUP5 ADD PUSH3 0x103D JUMP JUMPDEST DUP10 ADD DUP5 ADD SWAP7 POP POP JUMPDEST POP POP POP POP POP SWAP3 SWAP2 POP POP JUMP JUMPDEST PUSH1 0x80 DUP2 MSTORE DUP5 CALLDATALOAD PUSH1 0x80 DUP3 ADD MSTORE PUSH1 0x20 DUP6 ADD CALLDATALOAD PUSH1 0xA0 DUP3 ADD MSTORE PUSH1 0x40 DUP6 ADD CALLDATALOAD PUSH1 0xC0 DUP3 ADD MSTORE PUSH1 0x60 DUP6 ADD CALLDATALOAD PUSH1 0xE0 DUP3 ADD MSTORE PUSH1 0x80 DUP6 ADD CALLDATALOAD PUSH2 0x100 DUP3 ADD MSTORE PUSH1 0xA0 DUP6 ADD CALLDATALOAD PUSH2 0x120 DUP3 ADD MSTORE PUSH1 0x0 PUSH3 0x10BD PUSH1 0xC0 DUP8 ADD DUP8 PUSH3 0xF62 JUMP JUMPDEST PUSH2 0x1A0 PUSH2 0x140 DUP2 DUP2 DUP8 ADD MSTORE PUSH3 0x10D9 PUSH2 0x220 DUP8 ADD DUP5 DUP7 PUSH3 0xFB2 JUMP JUMPDEST SWAP4 POP PUSH3 0x10EA PUSH1 0xE0 DUP12 ADD DUP12 PUSH3 0xF62 JUMP JUMPDEST SWAP4 POP PUSH1 0x7F NOT PUSH2 0x160 DUP2 DUP10 DUP9 SUB ADD DUP2 DUP11 ADD MSTORE PUSH3 0x1108 DUP8 DUP8 DUP6 PUSH3 0xFB2 JUMP JUMPDEST SWAP7 POP PUSH3 0x111A PUSH2 0x100 DUP15 ADD DUP15 PUSH3 0xF62 JUMP JUMPDEST SWAP7 POP SWAP3 POP PUSH2 0x180 DUP3 DUP11 DUP10 SUB ADD DUP2 DUP12 ADD MSTORE PUSH3 0x1137 DUP9 DUP9 DUP7 PUSH3 0xFB2 JUMP JUMPDEST SWAP8 POP PUSH3 0x1149 PUSH2 0x120 DUP16 ADD DUP16 PUSH3 0xF62 JUMP JUMPDEST SWAP8 POP SWAP4 POP DUP3 DUP11 DUP10 SUB ADD DUP7 DUP12 ADD MSTORE PUSH3 0x1163 DUP9 DUP9 DUP7 PUSH3 0xFB2 JUMP JUMPDEST SWAP8 POP PUSH3 0x1173 DUP6 DUP16 ADD DUP16 PUSH3 0xF62 JUMP JUMPDEST SWAP8 POP SWAP6 POP DUP3 DUP11 DUP10 SUB ADD PUSH2 0x1C0 DUP12 ADD MSTORE PUSH3 0x118F DUP9 DUP9 DUP9 PUSH3 0xFB2 JUMP JUMPDEST SWAP8 POP PUSH3 0x119E DUP3 DUP16 ADD PUSH3 0xFDB JUMP JUMPDEST DUP1 ISZERO ISZERO PUSH2 0x1E0 DUP13 ADD MSTORE SWAP7 POP PUSH3 0x11B6 DUP2 DUP16 ADD PUSH3 0xFDB JUMP JUMPDEST SWAP7 POP POP POP POP POP POP POP PUSH3 0x11CE PUSH2 0x200 DUP6 ADD DUP3 ISZERO ISZERO SWAP1 MSTORE JUMP JUMPDEST POP PUSH1 0x1 PUSH1 0x1 PUSH1 0xA0 SHL SUB DUP7 AND PUSH1 0x20 DUP5 ADD MSTORE DUP5 PUSH1 0x40 DUP5 ADD MSTORE DUP3 DUP2 SUB PUSH1 0x60 DUP5 ADD MSTORE PUSH3 0x11F8 DUP2 DUP6 PUSH3 0xFE8 JUMP JUMPDEST SWAP8 SWAP7 POP POP POP POP POP POP POP JUMP INVALID PUSH1 0x80 PUSH1 0x40 MSTORE PUSH1 0x7 DUP1 SLOAD PUSH2 0xFF00 NOT AND PUSH2 0x100 OR SWAP1 SSTORE PUSH32 0x16D95910A21726A3E7B59A8C6166B355396434419809CB902E2063555B8D60DE PUSH1 0x11 SSTORE CALLVALUE DUP1 ISZERO PUSH3 0x44 JUMPI PUSH1 0x0 DUP1 REVERT JUMPDEST POP PUSH1 0x40 MLOAD PUSH3 0x2BB1 CODESIZE SUB DUP1 PUSH3 0x2BB1 DUP4 CODECOPY DUP2 ADD PUSH1 0x40 DUP2 SWAP1 MSTORE PUSH3 0x67 SWAP2 PUSH3 0x45A JUMP JUMPDEST PUSH1 0xC0 DUP5 ADD MLOAD PUSH1 0x40 DUP1 MLOAD DUP1 DUP3 ADD SWAP1 SWAP2 MSTORE PUSH1 0x4 DUP2 MSTORE PUSH4 0x21A922AB PUSH1 0xE1 SHL PUSH1 0x20 DUP3 ADD MSTORE PUSH3 0x92 CALLER PUSH3 0x1F9 JUMP JUMPDEST PUSH1 0x3 PUSH3 0xA0 DUP4 DUP3 PUSH3 0x6A8 JUMP JUMPDEST POP PUSH1 0x4 PUSH3 0xAF DUP3 DUP3 PUSH3 0x6A8 JUMP JUMPDEST POP PUSH1 0x1 DUP1 SSTORE POP POP PUSH1 0x40 DUP5 ADD MLOAD ISZERO DUP1 PUSH3 0xCA JUMPI POP PUSH1 0x60 DUP5 ADD MLOAD ISZERO JUMPDEST ISZERO PUSH3 0xE9 JUMPI PUSH1 0x40 MLOAD PUSH4 0x9686781 PUSH1 0xE1 SHL DUP2 MSTORE PUSH1 0x4 ADD PUSH1 0x40 MLOAD DUP1 SWAP2 SUB SWAP1 REVERT JUMPDEST PUSH1 0xE0 DUP5 ADD MLOAD PUSH1 0x12 SWAP1 PUSH3 0xFD SWAP1 DUP3 PUSH3 0x6A8 JUMP JUMPDEST POP PUSH2 0x100 DUP5 ADD MLOAD PUSH1 0x13 SWAP1 PUSH3 0x113 SWAP1 DUP3 PUSH3 0x6A8 JUMP JUMPDEST POP PUSH1 0x14 PUSH3 0x122 DUP3 DUP3 PUSH3 0x6A8 JUMP JUMPDEST POP PUSH2 0x120 DUP5 ADD MLOAD PUSH1 0x15 SWAP1 PUSH3 0x138 SWAP1 DUP3 PUSH3 0x6A8 JUMP JUMPDEST POP DUP4 MLOAD PUSH1 0x8 SSTORE PUSH1 0x40 DUP5 ADD MLOAD PUSH1 0xA SSTORE PUSH1 0x60 DUP5 ADD MLOAD PUSH1 0xB SSTORE PUSH1 0x80 DUP5 ADD MLOAD PUSH1 0xE SSTORE PUSH1 0xA0 DUP5 ADD MLOAD PUSH1 0xF SSTORE PUSH2 0x140 DUP5 ADD MLOAD PUSH1 0x16 SWAP1 PUSH3 0x173 SWAP1 DUP3 PUSH3 0x6A8 JUMP JUMPDEST POP PUSH2 0x160 DUP5 ADD MLOAD PUSH1 0x7 DUP1 SLOAD PUSH2 0x180 DUP8 ADD MLOAD ISZERO ISZERO PUSH1 0xFF NOT SWAP4 ISZERO ISZERO PUSH2 0x100 MUL SWAP4 SWAP1 SWAP4 AND PUSH2 0xFFFF NOT SWAP1 SWAP2 AND OR SWAP2 SWAP1 SWAP2 OR SWAP1 SSTORE PUSH1 0x20 DUP5 ADD MLOAD PUSH1 0x0 SUB PUSH3 0x1BD JUMPI PUSH1 0x40 DUP5 ADD MLOAD PUSH1 0x9 SSTORE PUSH3 0x1C6 JUMP JUMPDEST PUSH1 0x20 DUP5 ADD MLOAD PUSH1 0x9 SSTORE JUMPDEST PUSH1 0x7 DUP1 SLOAD PUSH3 0x10000 PUSH1 0x1 PUSH1 0xB0 SHL SUB NOT AND CALLER PUSH3 0x10000 MUL OR SWAP1 SSTORE PUSH1 0x10 DUP3 SWAP1 SSTORE PUSH3 0x1EF DUP4 PUSH3 0x249 JUMP JUMPDEST POP POP POP POP PUSH3 0x774 JUMP JUMPDEST PUSH1 0x0 DUP1 SLOAD PUSH1 0x1 PUSH1 0x1 PUSH1 0xA0 SHL SUB DUP4 DUP2 AND PUSH1 0x1 PUSH1 0x1 PUSH1 0xA0 SHL SUB NOT DUP4 AND DUP2 OR DUP5 SSTORE PUSH1 0x40 MLOAD SWAP2 SWAP1 SWAP3 AND SWAP3 DUP4 SWAP2 PUSH32 0x8BE0079C531659141344CD1FD0A4F28419497F9722A3DAAFE3B4186F6B6457E0 SWAP2 SWAP1 LOG3 POP POP JUMP JUMPDEST PUSH3 0x253 PUSH3 0x2CC JUMP JUMPDEST PUSH1 0x1 PUSH1 0x1 PUSH1 0xA0 SHL SUB DUP2 AND PUSH3 0x2BE JUMPI PUSH1 0x40 MLOAD PUSH3 0x461BCD PUSH1 0xE5 SHL DUP2 MSTORE PUSH1 0x20 PUSH1 0x4 DUP3 ADD MSTORE PUSH1 0x26 PUSH1 0x24 DUP3 ADD MSTORE PUSH32 0x4F776E61626C653A206E6577206F776E657220697320746865207A65726F2061 PUSH1 0x44 DUP3 ADD MSTORE PUSH6 0x646472657373 PUSH1 0xD0 SHL PUSH1 0x64 DUP3 ADD MSTORE PUSH1 0x84 ADD JUMPDEST PUSH1 0x40 MLOAD DUP1 SWAP2 SUB SWAP1 REVERT JUMPDEST PUSH3 0x2C9 DUP2 PUSH3 0x1F9 JUMP JUMPDEST POP JUMP JUMPDEST PUSH1 0x0 SLOAD PUSH1 0x1 PUSH1 0x1 PUSH1 0xA0 SHL SUB AND CALLER EQ PUSH3 0x328 JUMPI PUSH1 0x40 MLOAD PUSH3 0x461BCD PUSH1 0xE5 SHL DUP2 MSTORE PUSH1 0x20 PUSH1 0x4 DUP3 ADD DUP2 SWAP1 MSTORE PUSH1 0x24 DUP3 ADD MSTORE PUSH32 0x4F776E61626C653A2063616C6C6572206973206E6F7420746865206F776E6572 PUSH1 0x44 DUP3 ADD MSTORE PUSH1 0x64 ADD PUSH3 0x2B5 JUMP JUMPDEST JUMP JUMPDEST PUSH4 0x4E487B71 PUSH1 0xE0 SHL PUSH1 0x0 MSTORE PUSH1 0x41 PUSH1 0x4 MSTORE PUSH1 0x24 PUSH1 0x0 REVERT JUMPDEST PUSH1 0x40 MLOAD PUSH2 0x1A0 DUP2 ADD PUSH1 0x1 PUSH1 0x1 PUSH1 0x40 SHL SUB DUP2 GT DUP3 DUP3 LT OR ISZERO PUSH3 0x366 JUMPI PUSH3 0x366 PUSH3 0x32A JUMP JUMPDEST PUSH1 0x40 MSTORE SWAP1 JUMP JUMPDEST PUSH1 0x40 MLOAD PUSH1 0x1F DUP3 ADD PUSH1 0x1F NOT AND DUP2 ADD PUSH1 0x1 PUSH1 0x1 PUSH1 0x40 SHL SUB DUP2 GT DUP3 DUP3 LT OR ISZERO PUSH3 0x397 JUMPI PUSH3 0x397 PUSH3 0x32A JUMP JUMPDEST PUSH1 0x40 MSTORE SWAP2 SWAP1 POP JUMP JUMPDEST PUSH1 0x0 DUP3 PUSH1 0x1F DUP4 ADD SLT PUSH3 0x3B1 JUMPI PUSH1 0x0 DUP1 REVERT JUMPDEST DUP2 MLOAD PUSH1 0x1 PUSH1 0x1 PUSH1 0x40 SHL SUB DUP2 GT ISZERO PUSH3 0x3CD JUMPI PUSH3 0x3CD PUSH3 0x32A JUMP JUMPDEST PUSH1 0x20 PUSH3 0x3E3 PUSH1 0x1F DUP4 ADD PUSH1 0x1F NOT AND DUP3 ADD PUSH3 0x36C JUMP JUMPDEST DUP3 DUP2 MSTORE DUP6 DUP3 DUP5 DUP8 ADD ADD GT ISZERO PUSH3 0x3F8 JUMPI PUSH1 0x0 DUP1 REVERT JUMPDEST PUSH1 0x0 JUMPDEST DUP4 DUP2 LT ISZERO PUSH3 0x418 JUMPI DUP6 DUP2 ADD DUP4 ADD MLOAD DUP3 DUP3 ADD DUP5 ADD MSTORE DUP3 ADD PUSH3 0x3FB JUMP JUMPDEST POP PUSH1 0x0 SWAP3 DUP2 ADD SWAP1 SWAP2 ADD SWAP2 SWAP1 SWAP2 MSTORE SWAP4 SWAP3 POP POP POP JUMP JUMPDEST DUP1 MLOAD DUP1 ISZERO ISZERO DUP2 EQ PUSH3 0x43D JUMPI PUSH1 0x0 DUP1 REVERT JUMPDEST SWAP2 SWAP1 POP JUMP JUMPDEST DUP1 MLOAD PUSH1 0x1 PUSH1 0x1 PUSH1 0xA0 SHL SUB DUP2 AND DUP2 EQ PUSH3 0x43D JUMPI PUSH1 0x0 DUP1 REVERT JUMPDEST PUSH1 0x0 DUP1 PUSH1 0x0 DUP1 PUSH1 0x80 DUP6 DUP8 SUB SLT ISZERO PUSH3 0x471 JUMPI PUSH1 0x0 DUP1 REVERT JUMPDEST DUP5 MLOAD PUSH1 0x1 PUSH1 0x1 PUSH1 0x40 SHL SUB DUP1 DUP3 GT ISZERO PUSH3 0x489 JUMPI PUSH1 0x0 DUP1 REVERT JUMPDEST SWAP1 DUP7 ADD SWAP1 PUSH2 0x1A0 DUP3 DUP10 SUB SLT ISZERO PUSH3 0x49F JUMPI PUSH1 0x0 DUP1 REVERT JUMPDEST PUSH3 0x4A9 PUSH3 0x340 JUMP JUMPDEST DUP3 MLOAD DUP2 MSTORE PUSH1 0x20 DUP4 ADD MLOAD PUSH1 0x20 DUP3 ADD MSTORE PUSH1 0x40 DUP4 ADD MLOAD PUSH1 0x40 DUP3 ADD MSTORE PUSH1 0x60 DUP4 ADD MLOAD PUSH1 0x60 DUP3 ADD MSTORE PUSH1 0x80 DUP4 ADD MLOAD PUSH1 0x80 DUP3 ADD MSTORE PUSH1 0xA0 DUP4 ADD MLOAD PUSH1 0xA0 DUP3 ADD MSTORE PUSH1 0xC0 DUP4 ADD MLOAD DUP3 DUP2 GT ISZERO PUSH3 0x4F2 JUMPI PUSH1 0x0 DUP1 REVERT JUMPDEST PUSH3 0x500 DUP11 DUP3 DUP7 ADD PUSH3 0x39F JUMP JUMPDEST PUSH1 0xC0 DUP4 ADD MSTORE POP PUSH1 0xE0 DUP4 ADD MLOAD DUP3 DUP2 GT ISZERO PUSH3 0x519 JUMPI PUSH1 0x0 DUP1 REVERT JUMPDEST PUSH3 0x527 DUP11 DUP3 DUP7 ADD PUSH3 0x39F JUMP JUMPDEST PUSH1 0xE0 DUP4 ADD MSTORE POP PUSH2 0x100 DUP1 DUP5 ADD MLOAD DUP4 DUP2 GT ISZERO PUSH3 0x542 JUMPI PUSH1 0x0 DUP1 REVERT JUMPDEST PUSH3 0x550 DUP12 DUP3 DUP8 ADD PUSH3 0x39F JUMP JUMPDEST DUP3 DUP5 ADD MSTORE POP POP PUSH2 0x120 DUP1 DUP5 ADD MLOAD DUP4 DUP2 GT ISZERO PUSH3 0x56B JUMPI PUSH1 0x0 DUP1 REVERT JUMPDEST PUSH3 0x579 DUP12 DUP3 DUP8 ADD PUSH3 0x39F JUMP JUMPDEST DUP3 DUP5 ADD MSTORE POP POP PUSH2 0x140 DUP1 DUP5 ADD MLOAD DUP4 DUP2 GT ISZERO PUSH3 0x594 JUMPI PUSH1 0x0 DUP1 REVERT JUMPDEST PUSH3 0x5A2 DUP12 DUP3 DUP8 ADD PUSH3 0x39F JUMP JUMPDEST DUP3 DUP5 ADD MSTORE POP POP PUSH2 0x160 PUSH3 0x5B8 DUP2 DUP6 ADD PUSH3 0x42C JUMP JUMPDEST SWAP1 DUP3 ADD MSTORE PUSH2 0x180 PUSH3 0x5CC DUP5 DUP3 ADD PUSH3 0x42C JUMP JUMPDEST SWAP1 DUP3 ADD MSTORE SWAP6 POP PUSH3 0x5E0 PUSH1 0x20 DUP9 ADD PUSH3 0x442 JUMP JUMPDEST SWAP5 POP PUSH1 0x40 DUP8 ADD MLOAD SWAP4 POP PUSH1 0x60 DUP8 ADD MLOAD SWAP2 POP DUP1 DUP3 GT ISZERO PUSH3 0x5FE JUMPI PUSH1 0x0 DUP1 REVERT JUMPDEST POP PUSH3 0x60D DUP8 DUP3 DUP9 ADD PUSH3 0x39F JUMP JUMPDEST SWAP2 POP POP SWAP3 SWAP6 SWAP2 SWAP5 POP SWAP3 POP JUMP JUMPDEST PUSH1 0x1 DUP2 DUP2 SHR SWAP1 DUP3 AND DUP1 PUSH3 0x62E JUMPI PUSH1 0x7F DUP3 AND SWAP2 POP JUMPDEST PUSH1 0x20 DUP3 LT DUP2 SUB PUSH3 0x64F JUMPI PUSH4 0x4E487B71 PUSH1 0xE0 SHL PUSH1 0x0 MSTORE PUSH1 0x22 PUSH1 0x4 MSTORE PUSH1 0x24 PUSH1 0x0 REVERT JUMPDEST POP SWAP2 SWAP1 POP JUMP JUMPDEST PUSH1 0x1F DUP3 GT ISZERO PUSH3 0x6A3 JUMPI PUSH1 0x0 DUP2 DUP2 MSTORE PUSH1 0x20 DUP2 KECCAK256 PUSH1 0x1F DUP6 ADD PUSH1 0x5 SHR DUP2 ADD PUSH1 0x20 DUP7 LT ISZERO PUSH3 0x67E JUMPI POP DUP1 JUMPDEST PUSH1 0x1F DUP6 ADD PUSH1 0x5 SHR DUP3 ADD SWAP2 POP JUMPDEST DUP2 DUP2 LT ISZERO PUSH3 0x69F JUMPI DUP3 DUP2 SSTORE PUSH1 0x1 ADD PUSH3 0x68A JUMP JUMPDEST POP POP POP JUMPDEST POP POP POP JUMP JUMPDEST DUP2 MLOAD PUSH1 0x1 PUSH1 0x1 PUSH1 0x40 SHL SUB DUP2 GT ISZERO PUSH3 0x6C4 JUMPI PUSH3 0x6C4 PUSH3 0x32A JUMP JUMPDEST PUSH3 0x6DC DUP2 PUSH3 0x6D5 DUP5 SLOAD PUSH3 0x619 JUMP JUMPDEST DUP5 PUSH3 0x655 JUMP JUMPDEST PUSH1 0x20 DUP1 PUSH1 0x1F DUP4 GT PUSH1 0x1 DUP2 EQ PUSH3 0x714 JUMPI PUSH1 0x0 DUP5 ISZERO PUSH3 0x6FB JUMPI POP DUP6 DUP4 ADD MLOAD JUMPDEST PUSH1 0x0 NOT PUSH1 0x3 DUP7 SWAP1 SHL SHR NOT AND PUSH1 0x1 DUP6 SWAP1 SHL OR DUP6 SSTORE PUSH3 0x69F JUMP JUMPDEST PUSH1 0x0 DUP6 DUP2 MSTORE PUSH1 0x20 DUP2 KECCAK256 PUSH1 0x1F NOT DUP7 AND SWAP2 JUMPDEST DUP3 DUP2 LT ISZERO PUSH3 0x745 JUMPI DUP9 DUP7 ADD MLOAD DUP3 SSTORE SWAP5 DUP5 ADD SWAP5 PUSH1 0x1 SWAP1 SWAP2 ADD SWAP1 DUP5 ADD PUSH3 0x724 JUMP JUMPDEST POP DUP6 DUP3 LT ISZERO PUSH3 0x764 JUMPI DUP8 DUP6 ADD MLOAD PUSH1 0x0 NOT PUSH1 0x3 DUP9 SWAP1 SHL PUSH1 0xF8 AND SHR NOT AND DUP2 SSTORE JUMPDEST POP POP POP POP POP PUSH1 0x1 SWAP1 DUP2 SHL ADD SWAP1 SSTORE POP JUMP JUMPDEST PUSH2 0x242D DUP1 PUSH3 0x784 PUSH1 0x0 CODECOPY PUSH1 0x0 RETURN INVALID PUSH1 0x80 PUSH1 0x40 MSTORE PUSH1 0x4 CALLDATASIZE LT PUSH2 0x2C5 JUMPI PUSH1 0x0 CALLDATALOAD PUSH1 0xE0 SHR DUP1 PUSH4 0x715018A6 GT PUSH2 0x179 JUMPI DUP1 PUSH4 0xC4625BA3 GT PUSH2 0xD6 JUMPI DUP1 PUSH4 0xEAD12111 GT PUSH2 0x8A JUMPI DUP1 PUSH4 0xF34094A7 GT PUSH2 0x64 JUMPI DUP1 PUSH4 0xF34094A7 EQ PUSH2 0x75D JUMPI DUP1 PUSH4 0xF3CCAAC0 EQ PUSH2 0x765 JUMPI DUP1 PUSH4 0xFE1E2F51 EQ PUSH2 0x77A JUMPI PUSH1 0x0 DUP1 REVERT JUMPDEST DUP1 PUSH4 0xEAD12111 EQ PUSH2 0x6F5 JUMPI DUP1 PUSH4 0xEFBE1C1C EQ PUSH2 0x727 JUMPI DUP1 PUSH4 0xF2FDE38B EQ PUSH2 0x73D JUMPI PUSH1 0x0 DUP1 REVERT JUMPDEST DUP1 PUSH4 0xC7CAC600 GT PUSH2 0xBB JUMPI DUP1 PUSH4 0xC7CAC600 EQ PUSH2 0x69B JUMPI DUP1 PUSH4 0xC87B56DD EQ PUSH2 0x6B5 JUMPI DUP1 PUSH4 0xD9A59E33 EQ PUSH2 0x6D5 JUMPI PUSH1 0x0 DUP1 REVERT JUMPDEST DUP1 PUSH4 0xC4625BA3 EQ PUSH2 0x665 JUMPI DUP1 PUSH4 0xC6A7CBC9 EQ PUSH2 0x67B JUMPI PUSH1 0x0 DUP1 REVERT JUMPDEST DUP1 PUSH4 0x8818ED38 GT PUSH2 0x12D JUMPI DUP1 PUSH4 0x95D89B41 GT PUSH2 0x112 JUMPI DUP1 PUSH4 0x95D89B41 EQ PUSH2 0x627 JUMPI DUP1 PUSH4 0xBE9A6555 EQ PUSH2 0x63C JUMPI DUP1 PUSH4 0xC025E686 EQ PUSH2 0x652 JUMPI PUSH1 0x0 DUP1 REVERT JUMPDEST DUP1 PUSH4 0x8818ED38 EQ PUSH2 0x5E3 JUMPI DUP1 PUSH4 0x8DA5CB5B EQ PUSH2 0x609 JUMPI PUSH1 0x0 DUP1 REVERT JUMPDEST DUP1 PUSH4 0x736F88CD GT PUSH2 0x15E JUMPI DUP1 PUSH4 0x736F88CD EQ PUSH2 0x598 JUMPI DUP1 PUSH4 0x7DE33AEC EQ PUSH2 0x5B7 JUMPI DUP1 PUSH4 0x8121E42D EQ PUSH2 0x5CD JUMPI PUSH1 0x0 DUP1 REVERT JUMPDEST DUP1 PUSH4 0x715018A6 EQ PUSH2 0x56E JUMPI DUP1 PUSH4 0x7284E416 EQ PUSH2 0x583 JUMPI PUSH1 0x0 DUP1 REVERT JUMPDEST DUP1 PUSH4 0x1D645B12 GT PUSH2 0x227 JUMPI DUP1 PUSH4 0x3CCFD60B GT PUSH2 0x1DB JUMPI DUP1 PUSH4 0x622C40CE GT PUSH2 0x1C0 JUMPI DUP1 PUSH4 0x622C40CE EQ PUSH2 0x4F6 JUMPI DUP1 PUSH4 0x6352211E EQ PUSH2 0x516 JUMPI DUP1 PUSH4 0x70A08231 EQ PUSH2 0x54E JUMPI PUSH1 0x0 DUP1 REVERT JUMPDEST DUP1 PUSH4 0x3CCFD60B EQ PUSH2 0x4CC JUMPI DUP1 PUSH4 0x516F279E EQ PUSH2 0x4E1 JUMPI PUSH1 0x0 DUP1 REVERT JUMPDEST DUP1 PUSH4 0x336DF106 GT PUSH2 0x20C JUMPI DUP1 PUSH4 0x336DF106 EQ PUSH2 0x47F JUMPI DUP1 PUSH4 0x355E0C5D EQ PUSH2 0x4A1 JUMPI DUP1 PUSH4 0x386BFC98 EQ PUSH2 0x4B6 JUMPI PUSH1 0x0 DUP1 REVERT JUMPDEST DUP1 PUSH4 0x1D645B12 EQ PUSH2 0x43C JUMPI DUP1 PUSH4 0x24924BF7 EQ PUSH2 0x469 JUMPI PUSH1 0x0 DUP1 REVERT JUMPDEST DUP1 PUSH4 0x13446A75 GT PUSH2 0x27E JUMPI DUP1 PUSH4 0x158C6134 GT PUSH2 0x263 JUMPI DUP1 PUSH4 0x158C6134 EQ PUSH2 0x3D1 JUMPI DUP1 PUSH4 0x18160DDD EQ PUSH2 0x40A JUMPI DUP1 PUSH4 0x1C4695F4 EQ PUSH2 0x427 JUMPI PUSH1 0x0 DUP1 REVERT JUMPDEST DUP1 PUSH4 0x13446A75 EQ PUSH2 0x38B JUMPI DUP1 PUSH4 0x14D0F1BA EQ PUSH2 0x3A1 JUMPI PUSH1 0x0 DUP1 REVERT JUMPDEST DUP1 PUSH4 0x6FDDE03 GT PUSH2 0x2AF JUMPI DUP1 PUSH4 0x6FDDE03 EQ PUSH2 0x323 JUMPI DUP1 PUSH4 0x9E69EDE EQ PUSH2 0x345 JUMPI DUP1 PUSH4 0x1209B1F6 EQ PUSH2 0x375 JUMPI PUSH1 0x0 DUP1 REVERT JUMPDEST DUP1 PUSH3 0xF4494F EQ PUSH2 0x2CA JUMPI DUP1 PUSH4 0x1FFC9A7 EQ PUSH2 0x2F3 JUMPI JUMPDEST PUSH1 0x0 DUP1 REVERT JUMPDEST CALLVALUE DUP1 ISZERO PUSH2 0x2D6 JUMPI PUSH1 0x0 DUP1 REVERT JUMPDEST POP PUSH2 0x2E0 PUSH1 0x10 SLOAD DUP2 JUMP JUMPDEST PUSH1 0x40 MLOAD SWAP1 DUP2 MSTORE PUSH1 0x20 ADD JUMPDEST PUSH1 0x40 MLOAD DUP1 SWAP2 SUB SWAP1 RETURN JUMPDEST CALLVALUE DUP1 ISZERO PUSH2 0x2FF JUMPI PUSH1 0x0 DUP1 REVERT JUMPDEST POP PUSH2 0x313 PUSH2 0x30E CALLDATASIZE PUSH1 0x4 PUSH2 0x1CD9 JUMP JUMPDEST PUSH2 0x7AA JUMP JUMPDEST PUSH1 0x40 MLOAD SWAP1 ISZERO ISZERO DUP2 MSTORE PUSH1 0x20 ADD PUSH2 0x2EA JUMP JUMPDEST CALLVALUE DUP1 ISZERO PUSH2 0x32F JUMPI PUSH1 0x0 DUP1 REVERT JUMPDEST POP PUSH2 0x338 PUSH2 0x847 JUMP JUMPDEST PUSH1 0x40 MLOAD PUSH2 0x2EA SWAP2 SWAP1 PUSH2 0x1D3C JUMP JUMPDEST CALLVALUE DUP1 ISZERO PUSH2 0x351 JUMPI PUSH1 0x0 DUP1 REVERT JUMPDEST POP PUSH2 0x313 PUSH2 0x360 CALLDATASIZE PUSH1 0x4 PUSH2 0x1D6B JUMP JUMPDEST PUSH1 0x17 PUSH1 0x20 MSTORE PUSH1 0x0 SWAP1 DUP2 MSTORE PUSH1 0x40 SWAP1 KECCAK256 SLOAD PUSH1 0xFF AND DUP2 JUMP JUMPDEST CALLVALUE DUP1 ISZERO PUSH2 0x381 JUMPI PUSH1 0x0 DUP1 REVERT JUMPDEST POP PUSH2 0x2E0 PUSH1 0xE SLOAD DUP2 JUMP JUMPDEST CALLVALUE DUP1 ISZERO PUSH2 0x397 JUMPI PUSH1 0x0 DUP1 REVERT JUMPDEST POP PUSH2 0x2E0 PUSH1 0x9 SLOAD DUP2 JUMP JUMPDEST CALLVALUE DUP1 ISZERO PUSH2 0x3AD JUMPI PUSH1 0x0 DUP1 REVERT JUMPDEST POP PUSH2 0x313 PUSH2 0x3BC CALLDATASIZE PUSH1 0x4 PUSH2 0x1D6B JUMP JUMPDEST PUSH1 0x19 PUSH1 0x20 MSTORE PUSH1 0x0 SWAP1 DUP2 MSTORE PUSH1 0x40 SWAP1 KECCAK256 SLOAD PUSH1 0xFF AND DUP2 JUMP JUMPDEST CALLVALUE DUP1 ISZERO PUSH2 0x3DD JUMPI PUSH1 0x0 DUP1 REVERT JUMPDEST POP PUSH2 0x313 PUSH2 0x3EC CALLDATASIZE PUSH1 0x4 PUSH2 0x1D6B JUMP JUMPDEST PUSH1 0x1 PUSH1 0x1 PUSH1 0xA0 SHL SUB AND PUSH1 0x0 SWAP1 DUP2 MSTORE PUSH1 0x17 PUSH1 0x20 MSTORE PUSH1 0x40 SWAP1 KECCAK256 SLOAD PUSH1 0xFF AND SWAP1 JUMP JUMPDEST CALLVALUE DUP1 ISZERO PUSH2 0x416 JUMPI PUSH1 0x0 DUP1 REVERT JUMPDEST POP PUSH1 0x2 SLOAD PUSH1 0x1 SLOAD SUB PUSH1 0x0 NOT ADD PUSH2 0x2E0 JUMP JUMPDEST CALLVALUE DUP1 ISZERO PUSH2 0x433 JUMPI PUSH1 0x0 DUP1 REVERT JUMPDEST POP PUSH2 0x338 PUSH2 0x8D9 JUMP JUMPDEST CALLVALUE DUP1 ISZERO PUSH2 0x448 JUMPI PUSH1 0x0 DUP1 REVERT JUMPDEST POP PUSH2 0x45C PUSH2 0x457 CALLDATASIZE PUSH1 0x4 PUSH2 0x1D86 JUMP JUMPDEST PUSH2 0x967 JUMP JUMPDEST PUSH1 0x40 MLOAD PUSH2 0x2EA SWAP2 SWAP1 PUSH2 0x1D9F JUMP JUMPDEST CALLVALUE DUP1 ISZERO PUSH2 0x475 JUMPI PUSH1 0x0 DUP1 REVERT JUMPDEST POP PUSH2 0x2E0 PUSH1 0x8 SLOAD DUP2 JUMP JUMPDEST CALLVALUE DUP1 ISZERO PUSH2 0x48B JUMPI PUSH1 0x0 DUP1 REVERT JUMPDEST POP PUSH2 0x49F PUSH2 0x49A CALLDATASIZE PUSH1 0x4 PUSH2 0x1F29 JUMP JUMPDEST PUSH2 0xDC1 JUMP JUMPDEST STOP JUMPDEST CALLVALUE DUP1 ISZERO PUSH2 0x4AD JUMPI PUSH1 0x0 DUP1 REVERT JUMPDEST POP PUSH2 0x338 PUSH2 0xDF4 JUMP JUMPDEST CALLVALUE DUP1 ISZERO PUSH2 0x4C2 JUMPI PUSH1 0x0 DUP1 REVERT JUMPDEST POP PUSH2 0x2E0 PUSH1 0x11 SLOAD DUP2 JUMP JUMPDEST CALLVALUE DUP1 ISZERO PUSH2 0x4D8 JUMPI PUSH1 0x0 DUP1 REVERT JUMPDEST POP PUSH2 0x49F PUSH2 0xE01 JUMP JUMPDEST CALLVALUE DUP1 ISZERO PUSH2 0x4ED JUMPI PUSH1 0x0 DUP1 REVERT JUMPDEST POP PUSH2 0x338 PUSH2 0xF75 JUMP JUMPDEST CALLVALUE DUP1 ISZERO PUSH2 0x502 JUMPI PUSH1 0x0 DUP1 REVERT JUMPDEST POP PUSH2 0x49F PUSH2 0x511 CALLDATASIZE PUSH1 0x4 PUSH2 0x2029 JUMP JUMPDEST PUSH2 0xF82 JUMP JUMPDEST CALLVALUE DUP1 ISZERO PUSH2 0x522 JUMPI PUSH1 0x0 DUP1 REVERT JUMPDEST POP PUSH2 0x536 PUSH2 0x531 CALLDATASIZE PUSH1 0x4 PUSH2 0x1D86 JUMP JUMPDEST PUSH2 0x10AF JUMP JUMPDEST PUSH1 0x40 MLOAD PUSH1 0x1 PUSH1 0x1 PUSH1 0xA0 SHL SUB SWAP1 SWAP2 AND DUP2 MSTORE PUSH1 0x20 ADD PUSH2 0x2EA JUMP JUMPDEST CALLVALUE DUP1 ISZERO PUSH2 0x55A JUMPI PUSH1 0x0 DUP1 REVERT JUMPDEST POP PUSH2 0x2E0 PUSH2 0x569 CALLDATASIZE PUSH1 0x4 PUSH2 0x1D6B JUMP JUMPDEST PUSH2 0x10BA JUMP JUMPDEST CALLVALUE DUP1 ISZERO PUSH2 0x57A JUMPI PUSH1 0x0 DUP1 REVERT JUMPDEST POP PUSH2 0x49F PUSH2 0x1122 JUMP JUMPDEST CALLVALUE DUP1 ISZERO PUSH2 0x58F JUMPI PUSH1 0x0 DUP1 REVERT JUMPDEST POP PUSH2 0x338 PUSH2 0x1136 JUMP JUMPDEST CALLVALUE DUP1 ISZERO PUSH2 0x5A4 JUMPI PUSH1 0x0 DUP1 REVERT JUMPDEST POP PUSH1 0x7 SLOAD PUSH2 0x313 SWAP1 PUSH2 0x100 SWAP1 DIV PUSH1 0xFF AND DUP2 JUMP JUMPDEST CALLVALUE DUP1 ISZERO PUSH2 0x5C3 JUMPI PUSH1 0x0 DUP1 REVERT JUMPDEST POP PUSH2 0x2E0 PUSH1 0xD SLOAD DUP2 JUMP JUMPDEST CALLVALUE DUP1 ISZERO PUSH2 0x5D9 JUMPI PUSH1 0x0 DUP1 REVERT JUMPDEST POP PUSH2 0x2E0 PUSH1 0xF SLOAD DUP2 JUMP JUMPDEST CALLVALUE DUP1 ISZERO PUSH2 0x5EF JUMPI PUSH1 0x0 DUP1 REVERT JUMPDEST POP PUSH1 0x7 SLOAD PUSH2 0x536 SWAP1 PUSH3 0x10000 SWAP1 DIV PUSH1 0x1 PUSH1 0x1 PUSH1 0xA0 SHL SUB AND DUP2 JUMP JUMPDEST CALLVALUE DUP1 ISZERO PUSH2 0x615 JUMPI PUSH1 0x0 DUP1 REVERT JUMPDEST POP PUSH1 0x0 SLOAD PUSH1 0x1 PUSH1 0x1 PUSH1 0xA0 SHL SUB AND PUSH2 0x536 JUMP JUMPDEST CALLVALUE DUP1 ISZERO PUSH2 0x633 JUMPI PUSH1 0x0 DUP1 REVERT JUMPDEST POP PUSH2 0x338 PUSH2 0x1143 JUMP JUMPDEST CALLVALUE DUP1 ISZERO PUSH2 0x648 JUMPI PUSH1 0x0 DUP1 REVERT JUMPDEST POP PUSH2 0x2E0 PUSH1 0xA SLOAD DUP2 JUMP JUMPDEST PUSH2 0x49F PUSH2 0x660 CALLDATASIZE PUSH1 0x4 PUSH2 0x2147 JUMP JUMPDEST PUSH2 0x1152 JUMP JUMPDEST CALLVALUE DUP1 ISZERO PUSH2 0x671 JUMPI PUSH1 0x0 DUP1 REVERT JUMPDEST POP PUSH2 0x2E0 PUSH1 0xC SLOAD DUP2 JUMP JUMPDEST CALLVALUE DUP1 ISZERO PUSH2 0x687 JUMPI PUSH1 0x0 DUP1 REVERT JUMPDEST POP PUSH2 0x49F PUSH2 0x696 CALLDATASIZE PUSH1 0x4 PUSH2 0x1D86 JUMP JUMPDEST PUSH2 0x12BD JUMP JUMPDEST CALLVALUE DUP1 ISZERO PUSH2 0x6A7 JUMPI PUSH1 0x0 DUP1 REVERT JUMPDEST POP PUSH1 0x7 SLOAD PUSH2 0x313 SWAP1 PUSH1 0xFF AND DUP2 JUMP JUMPDEST CALLVALUE DUP1 ISZERO PUSH2 0x6C1 JUMPI PUSH1 0x0 DUP1 REVERT JUMPDEST POP PUSH2 0x338 PUSH2 0x6D0 CALLDATASIZE PUSH1 0x4 PUSH2 0x1D86 JUMP JUMPDEST PUSH2 0x12CA JUMP JUMPDEST CALLVALUE DUP1 ISZERO PUSH2 0x6E1 JUMPI PUSH1 0x0 DUP1 REVERT JUMPDEST POP PUSH2 0x49F PUSH2 0x6F0 CALLDATASIZE PUSH1 0x4 PUSH2 0x1D6B JUMP JUMPDEST PUSH2 0x139D JUMP JUMPDEST CALLVALUE DUP1 ISZERO PUSH2 0x701 JUMPI PUSH1 0x0 DUP1 REVERT JUMPDEST POP PUSH2 0x715 PUSH2 0x710 CALLDATASIZE PUSH1 0x4 PUSH2 0x1D86 JUMP JUMPDEST PUSH2 0x156C JUMP JUMPDEST PUSH1 0x40 MLOAD PUSH1 0xFF SWAP1 SWAP2 AND DUP2 MSTORE PUSH1 0x20 ADD PUSH2 0x2EA JUMP JUMPDEST CALLVALUE DUP1 ISZERO PUSH2 0x733 JUMPI PUSH1 0x0 DUP1 REVERT JUMPDEST POP PUSH2 0x2E0 PUSH1 0xB SLOAD DUP2 JUMP JUMPDEST CALLVALUE DUP1 ISZERO PUSH2 0x749 JUMPI PUSH1 0x0 DUP1 REVERT JUMPDEST POP PUSH2 0x49F PUSH2 0x758 CALLDATASIZE PUSH1 0x4 PUSH2 0x1D6B JUMP JUMPDEST PUSH2 0x15EF JUMP JUMPDEST PUSH2 0x49F PUSH2 0x1684 JUMP JUMPDEST CALLVALUE DUP1 ISZERO PUSH2 0x771 JUMPI PUSH1 0x0 DUP1 REVERT JUMPDEST POP PUSH2 0x338 PUSH2 0x1771 JUMP JUMPDEST CALLVALUE DUP1 ISZERO PUSH2 0x786 JUMPI PUSH1 0x0 DUP1 REVERT JUMPDEST POP PUSH2 0x313 PUSH2 0x795 CALLDATASIZE PUSH1 0x4 PUSH2 0x1D6B JUMP JUMPDEST PUSH1 0x18 PUSH1 0x20 MSTORE PUSH1 0x0 SWAP1 DUP2 MSTORE PUSH1 0x40 SWAP1 KECCAK256 SLOAD PUSH1 0xFF AND DUP2 JUMP JUMPDEST PUSH1 0x0 PUSH32 0x1FFC9A700000000000000000000000000000000000000000000000000000000 PUSH1 0x1 PUSH1 0x1 PUSH1 0xE0 SHL SUB NOT DUP4 AND EQ DUP1 PUSH2 0x80D JUMPI POP PUSH32 0x80AC58CD00000000000000000000000000000000000000000000000000000000 PUSH1 0x1 PUSH1 0x1 PUSH1 0xE0 SHL SUB NOT DUP4 AND EQ JUMPDEST DUP1 PUSH2 0x841 JUMPI POP PUSH32 0x5B5E139F00000000000000000000000000000000000000000000000000000000 PUSH1 0x1 PUSH1 0x1 PUSH1 0xE0 SHL SUB NOT DUP4 AND EQ JUMPDEST SWAP3 SWAP2 POP POP JUMP JUMPDEST PUSH1 0x60 PUSH1 0x3 DUP1 SLOAD PUSH2 0x856 SWAP1 PUSH2 0x21BC JUMP JUMPDEST DUP1 PUSH1 0x1F ADD PUSH1 0x20 DUP1 SWAP2 DIV MUL PUSH1 0x20 ADD PUSH1 0x40 MLOAD SWAP1 DUP2 ADD PUSH1 0x40 MSTORE DUP1 SWAP3 SWAP2 SWAP1 DUP2 DUP2 MSTORE PUSH1 0x20 ADD DUP3 DUP1 SLOAD PUSH2 0x882 SWAP1 PUSH2 0x21BC JUMP JUMPDEST DUP1 ISZERO PUSH2 0x8CF JUMPI DUP1 PUSH1 0x1F LT PUSH2 0x8A4 JUMPI PUSH2 0x100 DUP1 DUP4 SLOAD DIV MUL DUP4 MSTORE SWAP2 PUSH1 0x20 ADD SWAP2 PUSH2 0x8CF JUMP JUMPDEST DUP3 ADD SWAP2 SWAP1 PUSH1 0x0 MSTORE PUSH1 0x20 PUSH1 0x0 KECCAK256 SWAP1 JUMPDEST DUP2 SLOAD DUP2 MSTORE SWAP1 PUSH1 0x1 ADD SWAP1 PUSH1 0x20 ADD DUP1 DUP4 GT PUSH2 0x8B2 JUMPI DUP3 SWAP1 SUB PUSH1 0x1F AND DUP3 ADD SWAP2 JUMPDEST POP POP POP POP POP SWAP1 POP SWAP1 JUMP JUMPDEST PUSH1 0x13 DUP1 SLOAD PUSH2 0x8E6 SWAP1 PUSH2 0x21BC JUMP JUMPDEST DUP1 PUSH1 0x1F ADD PUSH1 0x20 DUP1 SWAP2 DIV MUL PUSH1 0x20 ADD PUSH1 0x40 MLOAD SWAP1 DUP2 ADD PUSH1 0x40 MSTORE DUP1 SWAP3 SWAP2 SWAP1 DUP2 DUP2 MSTORE PUSH1 0x20 ADD DUP3 DUP1 SLOAD PUSH2 0x912 SWAP1 PUSH2 0x21BC JUMP JUMPDEST DUP1 ISZERO PUSH2 0x95F JUMPI DUP1 PUSH1 0x1F LT PUSH2 0x934 JUMPI PUSH2 0x100 DUP1 DUP4 SLOAD DIV MUL DUP4 MSTORE SWAP2 PUSH1 0x20 ADD SWAP2 PUSH2 0x95F JUMP JUMPDEST DUP3 ADD SWAP2 SWAP1 PUSH1 0x0 MSTORE PUSH1 0x20 PUSH1 0x0 KECCAK256 SWAP1 JUMPDEST DUP2 SLOAD DUP2 MSTORE SWAP1 PUSH1 0x1 ADD SWAP1 PUSH1 0x20 ADD DUP1 DUP4 GT PUSH2 0x942 JUMPI DUP3 SWAP1 SUB PUSH1 0x1F AND DUP3 ADD SWAP2 JUMPDEST POP POP POP POP POP DUP2 JUMP JUMPDEST PUSH2 0xA16 PUSH1 0x40 MLOAD DUP1 PUSH2 0x260 ADD PUSH1 0x40 MSTORE DUP1 PUSH1 0x0 PUSH1 0x1 PUSH1 0x1 PUSH1 0xA0 SHL SUB AND DUP2 MSTORE PUSH1 0x20 ADD PUSH1 0x0 PUSH1 0x1 PUSH1 0x1 PUSH1 0xA0 SHL SUB AND DUP2 MSTORE PUSH1 0x20 ADD PUSH1 0x0 ISZERO ISZERO DUP2 MSTORE PUSH1 0x20 ADD PUSH1 0x0 ISZERO ISZERO DUP2 MSTORE PUSH1 0x20 ADD PUSH1 0x0 ISZERO ISZERO DUP2 MSTORE PUSH1 0x20 ADD PUSH1 0x0 ISZERO ISZERO DUP2 MSTORE PUSH1 0x20 ADD PUSH1 0x0 DUP2 MSTORE PUSH1 0x20 ADD PUSH1 0x0 DUP2 MSTORE PUSH1 0x20 ADD PUSH1 0x0 DUP2 MSTORE PUSH1 0x20 ADD PUSH1 0x0 DUP2 MSTORE PUSH1 0x20 ADD PUSH1 0x0 DUP2 MSTORE PUSH1 0x20 ADD PUSH1 0x0 DUP2 MSTORE PUSH1 0x20 ADD PUSH1 0x0 DUP2 MSTORE PUSH1 0x20 ADD PUSH1 0x0 DUP2 MSTORE PUSH1 0x20 ADD PUSH1 0x60 DUP2 MSTORE PUSH1 0x20 ADD PUSH1 0x60 DUP2 MSTORE PUSH1 0x20 ADD PUSH1 0x60 DUP2 MSTORE PUSH1 0x20 ADD PUSH1 0x60 DUP2 MSTORE PUSH1 0x20 ADD PUSH1 0x60 DUP2 MSTORE POP SWAP1 JUMP JUMPDEST PUSH2 0xAC5 PUSH1 0x40 MLOAD DUP1 PUSH2 0x260 ADD PUSH1 0x40 MSTORE DUP1 PUSH1 0x0 PUSH1 0x1 PUSH1 0x1 PUSH1 0xA0 SHL SUB AND DUP2 MSTORE PUSH1 0x20 ADD PUSH1 0x0 PUSH1 0x1 PUSH1 0x1 PUSH1 0xA0 SHL SUB AND DUP2 MSTORE PUSH1 0x20 ADD PUSH1 0x0 ISZERO ISZERO DUP2 MSTORE PUSH1 0x20 ADD PUSH1 0x0 ISZERO ISZERO DUP2 MSTORE PUSH1 0x20 ADD PUSH1 0x0 ISZERO ISZERO DUP2 MSTORE PUSH1 0x20 ADD PUSH1 0x0 ISZERO ISZERO DUP2 MSTORE PUSH1 0x20 ADD PUSH1 0x0 DUP2 MSTORE PUSH1 0x20 ADD PUSH1 0x0 DUP2 MSTORE PUSH1 0x20 ADD PUSH1 0x0 DUP2 MSTORE PUSH1 0x20 ADD PUSH1 0x0 DUP2 MSTORE PUSH1 0x20 ADD PUSH1 0x0 DUP2 MSTORE PUSH1 0x20 ADD PUSH1 0x0 DUP2 MSTORE PUSH1 0x20 ADD PUSH1 0x0 DUP2 MSTORE PUSH1 0x20 ADD PUSH1 0x0 DUP2 MSTORE PUSH1 0x20 ADD PUSH1 0x60 DUP2 MSTORE PUSH1 0x20 ADD PUSH1 0x60 DUP2 MSTORE PUSH1 0x20 ADD PUSH1 0x60 DUP2 MSTORE PUSH1 0x20 ADD PUSH1 0x60 DUP2 MSTORE PUSH1 0x20 ADD PUSH1 0x60 DUP2 MSTORE POP SWAP1 JUMP JUMPDEST PUSH1 0xA SLOAD PUSH2 0x100 DUP3 ADD MSTORE PUSH1 0xB SLOAD PUSH2 0x120 DUP3 ADD MSTORE PUSH1 0x9 SLOAD PUSH1 0xE0 DUP3 ADD MSTORE PUSH2 0xAE7 PUSH2 0x847 JUMP JUMPDEST PUSH2 0x1C0 DUP3 ADD MSTORE PUSH1 0x12 DUP1 SLOAD PUSH2 0xAFA SWAP1 PUSH2 0x21BC JUMP JUMPDEST DUP1 PUSH1 0x1F ADD PUSH1 0x20 DUP1 SWAP2 DIV MUL PUSH1 0x20 ADD PUSH1 0x40 MLOAD SWAP1 DUP2 ADD PUSH1 0x40 MSTORE DUP1 SWAP3 SWAP2 SWAP1 DUP2 DUP2 MSTORE PUSH1 0x20 ADD DUP3 DUP1 SLOAD PUSH2 0xB26 SWAP1 PUSH2 0x21BC JUMP JUMPDEST DUP1 ISZERO PUSH2 0xB73 JUMPI DUP1 PUSH1 0x1F LT PUSH2 0xB48 JUMPI PUSH2 0x100 DUP1 DUP4 SLOAD DIV MUL DUP4 MSTORE SWAP2 PUSH1 0x20 ADD SWAP2 PUSH2 0xB73 JUMP JUMPDEST DUP3 ADD SWAP2 SWAP1 PUSH1 0x0 MSTORE PUSH1 0x20 PUSH1 0x0 KECCAK256 SWAP1 JUMPDEST DUP2 SLOAD DUP2 MSTORE SWAP1 PUSH1 0x1 ADD SWAP1 PUSH1 0x20 ADD DUP1 DUP4 GT PUSH2 0xB56 JUMPI DUP3 SWAP1 SUB PUSH1 0x1F AND DUP3 ADD SWAP2 JUMPDEST POP POP POP POP POP PUSH2 0x1E0 DUP3 ADD MSTORE PUSH1 0x8 SLOAD PUSH1 0xC0 DUP3 ADD MSTORE PUSH1 0xE SLOAD PUSH2 0x140 DUP3 ADD MSTORE PUSH1 0xF SLOAD PUSH2 0x160 DUP3 ADD MSTORE PUSH1 0x13 DUP1 SLOAD PUSH2 0xBA5 SWAP1 PUSH2 0x21BC JUMP JUMPDEST DUP1 PUSH1 0x1F ADD PUSH1 0x20 DUP1 SWAP2 DIV MUL PUSH1 0x20 ADD PUSH1 0x40 MLOAD SWAP1 DUP2 ADD PUSH1 0x40 MSTORE DUP1 SWAP3 SWAP2 SWAP1 DUP2 DUP2 MSTORE PUSH1 0x20 ADD DUP3 DUP1 SLOAD PUSH2 0xBD1 SWAP1 PUSH2 0x21BC JUMP JUMPDEST DUP1 ISZERO PUSH2 0xC1E JUMPI DUP1 PUSH1 0x1F LT PUSH2 0xBF3 JUMPI PUSH2 0x100 DUP1 DUP4 SLOAD DIV MUL DUP4 MSTORE SWAP2 PUSH1 0x20 ADD SWAP2 PUSH2 0xC1E JUMP JUMPDEST DUP3 ADD SWAP2 SWAP1 PUSH1 0x0 MSTORE PUSH1 0x20 PUSH1 0x0 KECCAK256 SWAP1 JUMPDEST DUP2 SLOAD DUP2 MSTORE SWAP1 PUSH1 0x1 ADD SWAP1 PUSH1 0x20 ADD DUP1 DUP4 GT PUSH2 0xC01 JUMPI DUP3 SWAP1 SUB PUSH1 0x1F AND DUP3 ADD SWAP2 JUMPDEST POP POP POP POP POP DUP2 PUSH2 0x200 ADD DUP2 SWAP1 MSTORE POP PUSH1 0x15 DUP1 SLOAD PUSH2 0xC39 SWAP1 PUSH2 0x21BC JUMP JUMPDEST DUP1 PUSH1 0x1F ADD PUSH1 0x20 DUP1 SWAP2 DIV MUL PUSH1 0x20 ADD PUSH1 0x40 MLOAD SWAP1 DUP2 ADD PUSH1 0x40 MSTORE DUP1 SWAP3 SWAP2 SWAP1 DUP2 DUP2 MSTORE PUSH1 0x20 ADD DUP3 DUP1 SLOAD PUSH2 0xC65 SWAP1 PUSH2 0x21BC JUMP JUMPDEST DUP1 ISZERO PUSH2 0xCB2 JUMPI DUP1 PUSH1 0x1F LT PUSH2 0xC87 JUMPI PUSH2 0x100 DUP1 DUP4 SLOAD DIV MUL DUP4 MSTORE SWAP2 PUSH1 0x20 ADD SWAP2 PUSH2 0xCB2 JUMP JUMPDEST DUP3 ADD SWAP2 SWAP1 PUSH1 0x0 MSTORE PUSH1 0x20 PUSH1 0x0 KECCAK256 SWAP1 JUMPDEST DUP2 SLOAD DUP2 MSTORE SWAP1 PUSH1 0x1 ADD SWAP1 PUSH1 0x20 ADD DUP1 DUP4 GT PUSH2 0xC95 JUMPI DUP3 SWAP1 SUB PUSH1 0x1F AND DUP3 ADD SWAP2 JUMPDEST POP POP POP POP POP DUP2 PUSH2 0x220 ADD DUP2 SWAP1 MSTORE POP PUSH1 0x16 DUP1 SLOAD PUSH2 0xCCD SWAP1 PUSH2 0x21BC JUMP JUMPDEST DUP1 PUSH1 0x1F ADD PUSH1 0x20 DUP1 SWAP2 DIV MUL PUSH1 0x20 ADD PUSH1 0x40 MLOAD SWAP1 DUP2 ADD PUSH1 0x40 MSTORE DUP1 SWAP3 SWAP2 SWAP1 DUP2 DUP2 MSTORE PUSH1 0x20 ADD DUP3 DUP1 SLOAD PUSH2 0xCF9 SWAP1 PUSH2 0x21BC JUMP JUMPDEST DUP1 ISZERO PUSH2 0xD46 JUMPI DUP1 PUSH1 0x1F LT PUSH2 0xD1B JUMPI PUSH2 0x100 DUP1 DUP4 SLOAD DIV MUL DUP4 MSTORE SWAP2 PUSH1 0x20 ADD SWAP2 PUSH2 0xD46 JUMP JUMPDEST DUP3 ADD SWAP2 SWAP1 PUSH1 0x0 MSTORE PUSH1 0x20 PUSH1 0x0 KECCAK256 SWAP1 JUMPDEST DUP2 SLOAD DUP2 MSTORE SWAP1 PUSH1 0x1 ADD SWAP1 PUSH1 0x20 ADD DUP1 DUP4 GT PUSH2 0xD29 JUMPI DUP3 SWAP1 SUB PUSH1 0x1F AND DUP3 ADD SWAP2 JUMPDEST POP POP POP POP POP PUSH2 0x240 DUP3 ADD MSTORE PUSH1 0x0 SLOAD PUSH1 0x1 PUSH1 0x1 PUSH1 0xA0 SHL SUB AND PUSH1 0x20 DUP3 ADD MSTORE PUSH2 0xD6B DUP4 PUSH2 0x156C JUMP JUMPDEST PUSH1 0xFF SWAP1 DUP2 AND ISZERO PUSH1 0x40 DUP1 DUP5 ADD SWAP2 SWAP1 SWAP2 MSTORE CALLER PUSH1 0x0 DUP2 DUP2 MSTORE PUSH1 0x17 PUSH1 0x20 SWAP1 DUP2 MSTORE DUP4 DUP3 KECCAK256 SLOAD DUP6 AND ISZERO ISZERO PUSH1 0x80 DUP8 ADD MSTORE SWAP2 DUP2 MSTORE PUSH1 0x18 SWAP1 SWAP2 MSTORE KECCAK256 SLOAD AND ISZERO ISZERO PUSH1 0xA0 DUP3 ADD MSTORE PUSH1 0xC SLOAD PUSH2 0x180 DUP3 ADD MSTORE PUSH1 0xD SLOAD PUSH2 0x1A0 DUP3 ADD MSTORE ADDRESS DUP2 MSTORE SWAP3 SWAP2 POP POP JUMP JUMPDEST PUSH2 0xDC9 PUSH2 0x177E JUMP JUMPDEST PUSH1 0x1 PUSH1 0x1 PUSH1 0xA0 SHL SUB SWAP2 SWAP1 SWAP2 AND PUSH1 0x0 SWAP1 DUP2 MSTORE PUSH1 0x19 PUSH1 0x20 MSTORE PUSH1 0x40 SWAP1 KECCAK256 DUP1 SLOAD PUSH1 0xFF NOT AND SWAP2 ISZERO ISZERO SWAP2 SWAP1 SWAP2 OR SWAP1 SSTORE JUMP JUMPDEST PUSH1 0x14 DUP1 SLOAD PUSH2 0x8E6 SWAP1 PUSH2 0x21BC JUMP JUMPDEST PUSH2 0xE09 PUSH2 0x177E JUMP JUMPDEST SELFBALANCE PUSH1 0x0 DUP2 SWAP1 SUB PUSH2 0xE2C JUMPI PUSH1 0x40 MLOAD PUSH4 0x12171D83 PUSH1 0xE3 SHL DUP2 MSTORE PUSH1 0x4 ADD PUSH1 0x40 MLOAD DUP1 SWAP2 SUB SWAP1 REVERT JUMPDEST PUSH1 0x10 SLOAD PUSH1 0x1 SWAP1 PUSH1 0x0 SWAP1 PUSH2 0xE40 SWAP1 PUSH1 0x64 PUSH2 0x220C JUMP JUMPDEST PUSH1 0x10 SLOAD SWAP1 SWAP2 POP ISZERO PUSH2 0xEE9 JUMPI PUSH1 0x7 PUSH1 0x2 SWAP1 SLOAD SWAP1 PUSH2 0x100 EXP SWAP1 DIV PUSH1 0x1 PUSH1 0x1 PUSH1 0xA0 SHL SUB AND PUSH1 0x1 PUSH1 0x1 PUSH1 0xA0 SHL SUB AND PUSH1 0x64 DUP5 PUSH1 0x10 SLOAD PUSH2 0xE7A SWAP2 SWAP1 PUSH2 0x221F JUMP JUMPDEST PUSH2 0xE84 SWAP2 SWAP1 PUSH2 0x2236 JUMP JUMPDEST PUSH1 0x40 MLOAD PUSH1 0x0 DUP2 DUP2 DUP2 DUP6 DUP8 GAS CALL SWAP3 POP POP POP RETURNDATASIZE DUP1 PUSH1 0x0 DUP2 EQ PUSH2 0xEC0 JUMPI PUSH1 0x40 MLOAD SWAP2 POP PUSH1 0x1F NOT PUSH1 0x3F RETURNDATASIZE ADD AND DUP3 ADD PUSH1 0x40 MSTORE RETURNDATASIZE DUP3 MSTORE RETURNDATASIZE PUSH1 0x0 PUSH1 0x20 DUP5 ADD RETURNDATACOPY PUSH2 0xEC5 JUMP JUMPDEST PUSH1 0x60 SWAP2 POP JUMPDEST POP POP DUP1 SWAP3 POP POP DUP2 PUSH2 0xEE9 JUMPI PUSH1 0x40 MLOAD PUSH4 0x12171D83 PUSH1 0xE3 SHL DUP2 MSTORE PUSH1 0x4 ADD PUSH1 0x40 MLOAD DUP1 SWAP2 SUB SWAP1 REVERT JUMPDEST PUSH1 0x0 SLOAD PUSH1 0x1 PUSH1 0x1 PUSH1 0xA0 SHL SUB AND PUSH1 0x64 PUSH2 0xF01 DUP6 DUP5 PUSH2 0x221F JUMP JUMPDEST PUSH2 0xF0B SWAP2 SWAP1 PUSH2 0x2236 JUMP JUMPDEST PUSH1 0x40 MLOAD PUSH1 0x0 DUP2 DUP2 DUP2 DUP6 DUP8 GAS CALL SWAP3 POP POP POP RETURNDATASIZE DUP1 PUSH1 0x0 DUP2 EQ PUSH2 0xF47 JUMPI PUSH1 0x40 MLOAD SWAP2 POP PUSH1 0x1F NOT PUSH1 0x3F RETURNDATASIZE ADD AND DUP3 ADD PUSH1 0x40 MSTORE RETURNDATASIZE DUP3 MSTORE RETURNDATASIZE PUSH1 0x0 PUSH1 0x20 DUP5 ADD RETURNDATACOPY PUSH2 0xF4C JUMP JUMPDEST PUSH1 0x60 SWAP2 POP JUMPDEST POP POP DUP1 SWAP3 POP POP DUP2 PUSH2 0xF70 JUMPI PUSH1 0x40 MLOAD PUSH4 0x12171D83 PUSH1 0xE3 SHL DUP2 MSTORE PUSH1 0x4 ADD PUSH1 0x40 MLOAD DUP1 SWAP2 SUB SWAP1 REVERT JUMPDEST POP POP POP JUMP JUMPDEST PUSH1 0x16 DUP1 SLOAD PUSH2 0x8E6 SWAP1 PUSH2 0x21BC JUMP JUMPDEST PUSH2 0xF8A PUSH2 0x177E JUMP JUMPDEST TIMESTAMP DUP2 PUSH1 0x40 ADD MLOAD LT ISZERO PUSH2 0xFC8 JUMPI PUSH1 0x40 MLOAD PUSH32 0x93D9B84F00000000000000000000000000000000000000000000000000000000 DUP2 MSTORE PUSH1 0x4 ADD PUSH1 0x40 MLOAD DUP1 SWAP2 SUB SWAP1 REVERT JUMPDEST PUSH1 0xC SLOAD DUP2 MLOAD LT DUP1 PUSH2 0xFE0 JUMPI POP DUP1 PUSH1 0x60 ADD MLOAD DUP2 PUSH1 0x40 ADD MLOAD GT JUMPDEST ISZERO PUSH2 0x1017 JUMPI PUSH1 0x40 MLOAD PUSH32 0x41CC6B2100000000000000000000000000000000000000000000000000000000 DUP2 MSTORE PUSH1 0x4 ADD PUSH1 0x40 MLOAD DUP1 SWAP2 SUB SWAP1 REVERT JUMPDEST PUSH1 0xC0 DUP2 ADD MLOAD PUSH1 0x12 SWAP1 PUSH2 0x1029 SWAP1 DUP3 PUSH2 0x22A6 JUMP JUMPDEST POP PUSH1 0xE0 DUP2 ADD MLOAD PUSH1 0x13 SWAP1 PUSH2 0x103C SWAP1 DUP3 PUSH2 0x22A6 JUMP JUMPDEST POP PUSH2 0x100 DUP2 ADD MLOAD PUSH1 0x16 SWAP1 PUSH2 0x1050 SWAP1 DUP3 PUSH2 0x22A6 JUMP JUMPDEST POP DUP1 MLOAD PUSH1 0x8 SSTORE PUSH1 0x80 DUP2 ADD MLOAD PUSH1 0xE SSTORE PUSH1 0xA0 DUP2 ADD MLOAD PUSH1 0xF SSTORE PUSH1 0x40 DUP2 ADD MLOAD PUSH1 0xA SSTORE PUSH1 0x60 DUP2 ADD MLOAD PUSH1 0xB SSTORE PUSH1 0x20 DUP2 ADD MLOAD PUSH1 0x9 SSTORE PUSH2 0x120 DUP2 ADD MLOAD PUSH1 0x7 DUP1 SLOAD PUSH2 0x140 SWAP1 SWAP4 ADD MLOAD ISZERO ISZERO PUSH1 0xFF NOT SWAP3 ISZERO ISZERO PUSH2 0x100 MUL SWAP3 SWAP1 SWAP3 AND PUSH2 0xFFFF NOT SWAP1 SWAP4 AND SWAP3 SWAP1 SWAP3 OR OR SWAP1 SSTORE JUMP JUMPDEST PUSH1 0x0 PUSH2 0x841 DUP3 PUSH2 0x17D8 JUMP JUMPDEST PUSH1 0x0 PUSH1 0x1 PUSH1 0x1 PUSH1 0xA0 SHL SUB DUP3 AND PUSH2 0x10FC JUMPI PUSH1 0x40 MLOAD PUSH32 0x8F4EB60400000000000000000000000000000000000000000000000000000000 DUP2 MSTORE PUSH1 0x4 ADD PUSH1 0x40 MLOAD DUP1 SWAP2 SUB SWAP1 REVERT JUMPDEST POP PUSH1 0x1 PUSH1 0x1 PUSH1 0xA0 SHL SUB AND PUSH1 0x0 SWAP1 DUP2 MSTORE PUSH1 0x6 PUSH1 0x20 MSTORE PUSH1 0x40 SWAP1 KECCAK256 SLOAD PUSH8 0xFFFFFFFFFFFFFFFF AND SWAP1 JUMP JUMPDEST PUSH2 0x112A PUSH2 0x177E JUMP JUMPDEST PUSH2 0x1134 PUSH1 0x0 PUSH2 0x1867 JUMP JUMPDEST JUMP JUMPDEST PUSH1 0x12 DUP1 SLOAD PUSH2 0x8E6 SWAP1 PUSH2 0x21BC JUMP JUMPDEST PUSH1 0x60 PUSH1 0x4 DUP1 SLOAD PUSH2 0x856 SWAP1 PUSH2 0x21BC JUMP JUMPDEST PUSH1 0x0 PUSH2 0x115D TIMESTAMP PUSH2 0x156C JUMP JUMPDEST SWAP1 POP DUP1 PUSH1 0xFF AND PUSH1 0x1 SUB PUSH2 0x1183 JUMPI PUSH1 0x40 MLOAD PUSH4 0xA8AB2D25 PUSH1 0xE0 SHL DUP2 MSTORE PUSH1 0x4 ADD PUSH1 0x40 MLOAD DUP1 SWAP2 SUB SWAP1 REVERT JUMPDEST DUP1 PUSH1 0xFF AND PUSH1 0x2 SUB PUSH2 0x11A7 JUMPI PUSH1 0x40 MLOAD PUSH4 0x2FC209F3 PUSH1 0xE0 SHL DUP2 MSTORE PUSH1 0x4 ADD PUSH1 0x40 MLOAD DUP1 SWAP2 SUB SWAP1 REVERT JUMPDEST DUP1 PUSH1 0xFF AND PUSH1 0x3 SUB PUSH2 0x11CB JUMPI PUSH1 0x40 MLOAD PUSH4 0xEA075BF PUSH1 0xE2 SHL DUP2 MSTORE PUSH1 0x4 ADD PUSH1 0x40 MLOAD DUP1 SWAP2 SUB SWAP1 REVERT JUMPDEST DUP1 PUSH1 0xFF AND PUSH1 0x4 SUB PUSH2 0x11EF JUMPI PUSH1 0x40 MLOAD PUSH4 0x2437FFE9 PUSH1 0xE1 SHL DUP2 MSTORE PUSH1 0x4 ADD PUSH1 0x40 MLOAD DUP1 SWAP2 SUB SWAP1 REVERT JUMPDEST PUSH1 0x7 SLOAD PUSH1 0xFF AND ISZERO DUP1 PUSH2 0x1273 JUMPI POP PUSH2 0x1271 DUP4 DUP4 DUP1 DUP1 PUSH1 0x20 MUL PUSH1 0x20 ADD PUSH1 0x40 MLOAD SWAP1 DUP2 ADD PUSH1 0x40 MSTORE DUP1 SWAP4 SWAP3 SWAP2 SWAP1 DUP2 DUP2 MSTORE PUSH1 0x20 ADD DUP4 DUP4 PUSH1 0x20 MUL DUP1 DUP3 DUP5 CALLDATACOPY PUSH1 0x0 SWAP3 ADD SWAP2 SWAP1 SWAP2 MSTORE POP POP PUSH1 0x11 SLOAD PUSH1 0x40 MLOAD PUSH12 0xFFFFFFFFFFFFFFFFFFFFFFFF NOT CALLER PUSH1 0x60 SHL AND PUSH1 0x20 DUP3 ADD MSTORE SWAP1 SWAP3 POP PUSH1 0x34 ADD SWAP1 POP PUSH1 0x40 MLOAD PUSH1 0x20 DUP2 DUP4 SUB SUB DUP2 MSTORE SWAP1 PUSH1 0x40 MSTORE DUP1 MLOAD SWAP1 PUSH1 0x20 ADD KECCAK256 PUSH2 0x18CF JUMP JUMPDEST ISZERO JUMPDEST ISZERO PUSH2 0x1291 JUMPI PUSH1 0x40 MLOAD PUSH4 0xAD7ACB47 PUSH1 0xE0 SHL DUP2 MSTORE PUSH1 0x4 ADD PUSH1 0x40 MLOAD DUP1 SWAP2 SUB SWAP1 REVERT JUMPDEST PUSH1 0xF SLOAD CALLVALUE LT ISZERO PUSH2 0x12B4 JUMPI PUSH1 0x40 MLOAD PUSH4 0x3C89335B PUSH1 0xE1 SHL DUP2 MSTORE PUSH1 0x4 ADD PUSH1 0x40 MLOAD DUP1 SWAP2 SUB SWAP1 REVERT JUMPDEST PUSH2 0xF70 CALLER PUSH2 0x18E5 JUMP JUMPDEST PUSH2 0x12C5 PUSH2 0x177E JUMP JUMPDEST PUSH1 0x11 SSTORE JUMP JUMPDEST PUSH1 0x60 PUSH2 0x12D5 DUP3 PUSH2 0x196E JUMP JUMPDEST PUSH2 0x130B JUMPI PUSH1 0x40 MLOAD PUSH32 0xA14C4B5000000000000000000000000000000000000000000000000000000000 DUP2 MSTORE PUSH1 0x4 ADD PUSH1 0x40 MLOAD DUP1 SWAP2 SUB SWAP1 REVERT JUMPDEST PUSH1 0x14 DUP1 SLOAD PUSH2 0x1318 SWAP1 PUSH2 0x21BC JUMP JUMPDEST DUP1 PUSH1 0x1F ADD PUSH1 0x20 DUP1 SWAP2 DIV MUL PUSH1 0x20 ADD PUSH1 0x40 MLOAD SWAP1 DUP2 ADD PUSH1 0x40 MSTORE DUP1 SWAP3 SWAP2 SWAP1 DUP2 DUP2 MSTORE PUSH1 0x20 ADD DUP3 DUP1 SLOAD PUSH2 0x1344 SWAP1 PUSH2 0x21BC JUMP JUMPDEST DUP1 ISZERO PUSH2 0x1391 JUMPI DUP1 PUSH1 0x1F LT PUSH2 0x1366 JUMPI PUSH2 0x100 DUP1 DUP4 SLOAD DIV MUL DUP4 MSTORE SWAP2 PUSH1 0x20 ADD SWAP2 PUSH2 0x1391 JUMP JUMPDEST DUP3 ADD SWAP2 SWAP1 PUSH1 0x0 MSTORE PUSH1 0x20 PUSH1 0x0 KECCAK256 SWAP1 JUMPDEST DUP2 SLOAD DUP2 MSTORE SWAP1 PUSH1 0x1 ADD SWAP1 PUSH1 0x20 ADD DUP1 DUP4 GT PUSH2 0x1374 JUMPI DUP3 SWAP1 SUB PUSH1 0x1F AND DUP3 ADD SWAP2 JUMPDEST POP POP POP POP POP SWAP1 POP SWAP2 SWAP1 POP JUMP JUMPDEST PUSH1 0x0 SLOAD PUSH1 0x1 PUSH1 0x1 PUSH1 0xA0 SHL SUB AND CALLER EQ DUP1 ISZERO SWAP1 PUSH2 0x13C8 JUMPI POP CALLER PUSH1 0x0 SWAP1 DUP2 MSTORE PUSH1 0x19 PUSH1 0x20 MSTORE PUSH1 0x40 SWAP1 KECCAK256 SLOAD PUSH1 0xFF AND ISZERO JUMPDEST ISZERO PUSH2 0x13FF JUMPI PUSH1 0x40 MLOAD PUSH32 0xEAA45D6A00000000000000000000000000000000000000000000000000000000 DUP2 MSTORE PUSH1 0x4 ADD PUSH1 0x40 MLOAD DUP1 SWAP2 SUB SWAP1 REVERT JUMPDEST PUSH1 0xA SLOAD TIMESTAMP SWAP1 DUP2 LT DUP1 PUSH2 0x1412 JUMPI POP PUSH1 0xB SLOAD DUP2 GT JUMPDEST ISZERO PUSH2 0x1449 JUMPI PUSH1 0x40 MLOAD PUSH32 0x91E3BE3900000000000000000000000000000000000000000000000000000000 DUP2 MSTORE PUSH1 0x4 ADD PUSH1 0x40 MLOAD DUP1 SWAP2 SUB SWAP1 REVERT JUMPDEST PUSH1 0x1 PUSH1 0x1 PUSH1 0xA0 SHL SUB DUP3 AND PUSH1 0x0 SWAP1 DUP2 MSTORE PUSH1 0x17 PUSH1 0x20 MSTORE PUSH1 0x40 SWAP1 KECCAK256 SLOAD PUSH1 0xFF AND PUSH2 0x149B JUMPI PUSH1 0x40 MLOAD PUSH32 0xABA4733900000000000000000000000000000000000000000000000000000000 DUP2 MSTORE PUSH1 0x4 ADD PUSH1 0x40 MLOAD DUP1 SWAP2 SUB SWAP1 REVERT JUMPDEST PUSH1 0x1 PUSH1 0x1 PUSH1 0xA0 SHL SUB DUP3 AND PUSH1 0x0 SWAP1 DUP2 MSTORE PUSH1 0x18 PUSH1 0x20 MSTORE PUSH1 0x40 SWAP1 KECCAK256 SLOAD PUSH1 0xFF AND ISZERO PUSH2 0x14EE JUMPI PUSH1 0x40 MLOAD PUSH32 0xC98289F000000000000000000000000000000000000000000000000000000000 DUP2 MSTORE PUSH1 0x4 ADD PUSH1 0x40 MLOAD DUP1 SWAP2 SUB SWAP1 REVERT JUMPDEST PUSH1 0x1 PUSH1 0x1 PUSH1 0xA0 SHL SUB DUP3 AND PUSH1 0x0 SWAP1 DUP2 MSTORE PUSH1 0x18 PUSH1 0x20 MSTORE PUSH1 0x40 DUP2 KECCAK256 DUP1 SLOAD PUSH1 0xFF NOT AND PUSH1 0x1 SWAP1 DUP2 OR SWAP1 SWAP2 SSTORE PUSH1 0xD DUP1 SLOAD SWAP2 SWAP3 SWAP1 SWAP2 PUSH2 0x1527 SWAP1 DUP5 SWAP1 PUSH2 0x2366 JUMP JUMPDEST SWAP1 SWAP2 SSTORE POP POP PUSH1 0x40 MLOAD PUSH1 0x1 PUSH1 0x1 PUSH1 0xA0 SHL SUB DUP4 AND DUP2 MSTORE PUSH32 0xCBF477E63735F8D27F9B668165862D7C6E84E5650EDEC70229523DB18C2F1EFD SWAP1 PUSH1 0x20 ADD PUSH1 0x40 MLOAD DUP1 SWAP2 SUB SWAP1 LOG1 POP POP JUMP JUMPDEST PUSH1 0x0 PUSH1 0xA SLOAD DUP3 GT ISZERO PUSH2 0x1580 JUMPI POP PUSH1 0x1 SWAP2 SWAP1 POP JUMP JUMPDEST PUSH1 0x7 SLOAD PUSH2 0x100 SWAP1 DIV PUSH1 0xFF AND ISZERO DUP1 PUSH2 0x1598 JUMPI POP PUSH1 0x9 SLOAD DUP3 GT JUMPDEST ISZERO PUSH2 0x15A5 JUMPI POP PUSH1 0x2 SWAP2 SWAP1 POP JUMP JUMPDEST CALLER PUSH1 0x0 SWAP1 DUP2 MSTORE PUSH1 0x17 PUSH1 0x20 MSTORE PUSH1 0x40 SWAP1 KECCAK256 SLOAD PUSH1 0xFF AND ISZERO PUSH2 0x15C5 JUMPI POP PUSH1 0x3 SWAP2 SWAP1 POP JUMP JUMPDEST PUSH1 0x0 PUSH1 0x8 SLOAD GT DUP1 ISZERO PUSH2 0x15DA JUMPI POP PUSH1 0x8 SLOAD PUSH1 0xC SLOAD EQ JUMPDEST ISZERO PUSH2 0x15E7 JUMPI POP PUSH1 0x4 SWAP2 SWAP1 POP JUMP JUMPDEST POP PUSH1 0x0 SWAP2 SWAP1 POP JUMP JUMPDEST PUSH2 0x15F7 PUSH2 0x177E JUMP JUMPDEST PUSH1 0x1 PUSH1 0x1 PUSH1 0xA0 SHL SUB DUP2 AND PUSH2 0x1678 JUMPI PUSH1 0x40 MLOAD PUSH3 0x461BCD PUSH1 0xE5 SHL DUP2 MSTORE PUSH1 0x20 PUSH1 0x4 DUP3 ADD MSTORE PUSH1 0x26 PUSH1 0x24 DUP3 ADD MSTORE PUSH32 0x4F776E61626C653A206E6577206F776E657220697320746865207A65726F2061 PUSH1 0x44 DUP3 ADD MSTORE PUSH32 0x6464726573730000000000000000000000000000000000000000000000000000 PUSH1 0x64 DUP3 ADD MSTORE PUSH1 0x84 ADD JUMPDEST PUSH1 0x40 MLOAD DUP1 SWAP2 SUB SWAP1 REVERT JUMPDEST PUSH2 0x1681 DUP2 PUSH2 0x1867 JUMP JUMPDEST POP JUMP JUMPDEST PUSH1 0x0 PUSH2 0x168F TIMESTAMP PUSH2 0x156C JUMP JUMPDEST SWAP1 POP DUP1 PUSH1 0xFF AND PUSH1 0x1 SUB PUSH2 0x16B5 JUMPI PUSH1 0x40 MLOAD PUSH4 0xA8AB2D25 PUSH1 0xE0 SHL DUP2 MSTORE PUSH1 0x4 ADD PUSH1 0x40 MLOAD DUP1 SWAP2 SUB SWAP1 REVERT JUMPDEST DUP1 PUSH1 0xFF AND PUSH1 0x2 SUB PUSH2 0x16D9 JUMPI PUSH1 0x40 MLOAD PUSH4 0x2FC209F3 PUSH1 0xE0 SHL DUP2 MSTORE PUSH1 0x4 ADD PUSH1 0x40 MLOAD DUP1 SWAP2 SUB SWAP1 REVERT JUMPDEST DUP1 PUSH1 0xFF AND PUSH1 0x3 SUB PUSH2 0x16FD JUMPI PUSH1 0x40 MLOAD PUSH4 0xEA075BF PUSH1 0xE2 SHL DUP2 MSTORE PUSH1 0x4 ADD PUSH1 0x40 MLOAD DUP1 SWAP2 SUB SWAP1 REVERT JUMPDEST DUP1 PUSH1 0xFF AND PUSH1 0x4 SUB PUSH2 0x1721 JUMPI PUSH1 0x40 MLOAD PUSH4 0x2437FFE9 PUSH1 0xE1 SHL DUP2 MSTORE PUSH1 0x4 ADD PUSH1 0x40 MLOAD DUP1 SWAP2 SUB SWAP1 REVERT JUMPDEST PUSH1 0x7 SLOAD PUSH1 0xFF AND ISZERO PUSH2 0x1745 JUMPI PUSH1 0x40 MLOAD PUSH4 0xAD7ACB47 PUSH1 0xE0 SHL DUP2 MSTORE PUSH1 0x4 ADD PUSH1 0x40 MLOAD DUP1 SWAP2 SUB SWAP1 REVERT JUMPDEST PUSH1 0xE SLOAD CALLVALUE LT ISZERO PUSH2 0x1768 JUMPI PUSH1 0x40 MLOAD PUSH4 0x3C89335B PUSH1 0xE1 SHL DUP2 MSTORE PUSH1 0x4 ADD PUSH1 0x40 MLOAD DUP1 SWAP2 SUB SWAP1 REVERT JUMPDEST PUSH2 0x1681 CALLER PUSH2 0x18E5 JUMP JUMPDEST PUSH1 0x15 DUP1 SLOAD PUSH2 0x8E6 SWAP1 PUSH2 0x21BC JUMP JUMPDEST PUSH1 0x0 SLOAD PUSH1 0x1 PUSH1 0x1 PUSH1 0xA0 SHL SUB AND CALLER EQ PUSH2 0x1134 JUMPI PUSH1 0x40 MLOAD PUSH3 0x461BCD PUSH1 0xE5 SHL DUP2 MSTORE PUSH1 0x20 PUSH1 0x4 DUP3 ADD DUP2 SWAP1 MSTORE PUSH1 0x24 DUP3 ADD MSTORE PUSH32 0x4F776E61626C653A2063616C6C6572206973206E6F7420746865206F776E6572 PUSH1 0x44 DUP3 ADD MSTORE PUSH1 0x64 ADD PUSH2 0x166F JUMP JUMPDEST PUSH1 0x0 DUP2 DUP1 PUSH1 0x1 GT PUSH2 0x1835 JUMPI PUSH1 0x1 SLOAD DUP2 LT ISZERO PUSH2 0x1835 JUMPI PUSH1 0x0 DUP2 DUP2 MSTORE PUSH1 0x5 PUSH1 0x20 MSTORE PUSH1 0x40 DUP2 KECCAK256 SLOAD SWAP1 PUSH1 0x1 PUSH1 0xE0 SHL DUP3 AND SWAP1 SUB PUSH2 0x1833 JUMPI JUMPDEST DUP1 PUSH1 0x0 SUB PUSH2 0x182C JUMPI POP PUSH1 0x0 NOT ADD PUSH1 0x0 DUP2 DUP2 MSTORE PUSH1 0x5 PUSH1 0x20 MSTORE PUSH1 0x40 SWAP1 KECCAK256 SLOAD PUSH2 0x180B JUMP JUMPDEST SWAP4 SWAP3 POP POP POP JUMP JUMPDEST POP JUMPDEST PUSH1 0x40 MLOAD PUSH32 0xDF2D9B4200000000000000000000000000000000000000000000000000000000 DUP2 MSTORE PUSH1 0x4 ADD PUSH1 0x40 MLOAD DUP1 SWAP2 SUB SWAP1 REVERT JUMPDEST PUSH1 0x0 DUP1 SLOAD PUSH1 0x1 PUSH1 0x1 PUSH1 0xA0 SHL SUB DUP4 DUP2 AND PUSH32 0xFFFFFFFFFFFFFFFFFFFFFFFF0000000000000000000000000000000000000000 DUP4 AND DUP2 OR DUP5 SSTORE PUSH1 0x40 MLOAD SWAP2 SWAP1 SWAP3 AND SWAP3 DUP4 SWAP2 PUSH32 0x8BE0079C531659141344CD1FD0A4F28419497F9722A3DAAFE3B4186F6B6457E0 SWAP2 SWAP1 LOG3 POP POP JUMP JUMPDEST PUSH1 0x0 DUP3 PUSH2 0x18DC DUP6 DUP5 PUSH2 0x19A3 JUMP JUMPDEST EQ SWAP5 SWAP4 POP POP POP POP JUMP JUMPDEST PUSH1 0x1 PUSH1 0x1 PUSH1 0xA0 SHL SUB DUP2 AND PUSH1 0x0 SWAP1 DUP2 MSTORE PUSH1 0x17 PUSH1 0x20 MSTORE PUSH1 0x40 DUP2 KECCAK256 DUP1 SLOAD PUSH1 0xFF NOT AND PUSH1 0x1 SWAP1 DUP2 OR SWAP1 SWAP2 SSTORE PUSH1 0xC DUP1 SLOAD SWAP2 SWAP3 SWAP1 SWAP2 PUSH2 0x191E SWAP1 DUP5 SWAP1 PUSH2 0x2366 JUMP JUMPDEST SWAP1 SWAP2 SSTORE POP PUSH2 0x192F SWAP1 POP DUP2 PUSH1 0x1 PUSH2 0x19F0 JUMP JUMPDEST PUSH1 0x40 MLOAD PUSH1 0x1 PUSH1 0x1 PUSH1 0xA0 SHL SUB DUP3 AND DUP2 MSTORE PUSH32 0xE11711CD714E06FBBBEA301A8E90822F2F2EA4808E37E3ADF06038F33C53FF27 SWAP1 PUSH1 0x20 ADD PUSH1 0x40 MLOAD DUP1 SWAP2 SUB SWAP1 LOG1 POP JUMP JUMPDEST PUSH1 0x0 DUP2 PUSH1 0x1 GT ISZERO DUP1 ISZERO PUSH2 0x1982 JUMPI POP PUSH1 0x1 SLOAD DUP3 LT JUMPDEST DUP1 ISZERO PUSH2 0x841 JUMPI POP POP PUSH1 0x0 SWAP1 DUP2 MSTORE PUSH1 0x5 PUSH1 0x20 MSTORE PUSH1 0x40 SWAP1 KECCAK256 SLOAD PUSH1 0x1 PUSH1 0xE0 SHL AND ISZERO SWAP1 JUMP JUMPDEST PUSH1 0x0 DUP2 DUP2 JUMPDEST DUP5 MLOAD DUP2 LT ISZERO PUSH2 0x19E8 JUMPI PUSH2 0x19D4 DUP3 DUP7 DUP4 DUP2 MLOAD DUP2 LT PUSH2 0x19C7 JUMPI PUSH2 0x19C7 PUSH2 0x2379 JUMP JUMPDEST PUSH1 0x20 MUL PUSH1 0x20 ADD ADD MLOAD PUSH2 0x1A0E JUMP JUMPDEST SWAP2 POP DUP1 PUSH2 0x19E0 DUP2 PUSH2 0x238F JUMP JUMPDEST SWAP2 POP POP PUSH2 0x19A8 JUMP JUMPDEST POP SWAP4 SWAP3 POP POP POP JUMP JUMPDEST PUSH2 0x1A0A DUP3 DUP3 PUSH1 0x40 MLOAD DUP1 PUSH1 0x20 ADD PUSH1 0x40 MSTORE DUP1 PUSH1 0x0 DUP2 MSTORE POP PUSH2 0x1A3A JUMP JUMPDEST POP POP JUMP JUMPDEST PUSH1 0x0 DUP2 DUP4 LT PUSH2 0x1A2A JUMPI PUSH1 0x0 DUP3 DUP2 MSTORE PUSH1 0x20 DUP5 SWAP1 MSTORE PUSH1 0x40 SWAP1 KECCAK256 PUSH2 0x182C JUMP JUMPDEST POP PUSH1 0x0 SWAP2 DUP3 MSTORE PUSH1 0x20 MSTORE PUSH1 0x40 SWAP1 KECCAK256 SWAP1 JUMP JUMPDEST PUSH2 0x1A44 DUP4 DUP4 PUSH2 0x1AA7 JUMP JUMPDEST PUSH1 0x1 PUSH1 0x1 PUSH1 0xA0 SHL SUB DUP4 AND EXTCODESIZE ISZERO PUSH2 0xF70 JUMPI PUSH1 0x1 SLOAD DUP3 DUP2 SUB JUMPDEST PUSH2 0x1A6E PUSH1 0x0 DUP7 DUP4 DUP1 PUSH1 0x1 ADD SWAP5 POP DUP7 PUSH2 0x1BD8 JUMP JUMPDEST PUSH2 0x1A8B JUMPI PUSH1 0x40 MLOAD PUSH4 0x68D2BF6B PUSH1 0xE1 SHL DUP2 MSTORE PUSH1 0x4 ADD PUSH1 0x40 MLOAD DUP1 SWAP2 SUB SWAP1 REVERT JUMPDEST DUP2 DUP2 LT PUSH2 0x1A5B JUMPI DUP2 PUSH1 0x1 SLOAD EQ PUSH2 0x1AA0 JUMPI PUSH1 0x0 DUP1 REVERT JUMPDEST POP POP POP POP POP JUMP JUMPDEST PUSH1 0x1 SLOAD PUSH1 0x0 DUP3 SWAP1 SUB PUSH2 0x1AE5 JUMPI PUSH1 0x40 MLOAD PUSH32 0xB562E8DD00000000000000000000000000000000000000000000000000000000 DUP2 MSTORE PUSH1 0x4 ADD PUSH1 0x40 MLOAD DUP1 SWAP2 SUB SWAP1 REVERT JUMPDEST PUSH1 0x1 PUSH1 0x1 PUSH1 0xA0 SHL SUB DUP4 AND PUSH1 0x0 DUP2 DUP2 MSTORE PUSH1 0x6 PUSH1 0x20 SWAP1 DUP2 MSTORE PUSH1 0x40 DUP1 DUP4 KECCAK256 DUP1 SLOAD PUSH9 0x10000000000000001 DUP9 MUL ADD SWAP1 SSTORE DUP5 DUP4 MSTORE PUSH1 0x5 SWAP1 SWAP2 MSTORE DUP2 KECCAK256 PUSH1 0x1 DUP6 EQ PUSH1 0xE1 SHL TIMESTAMP PUSH1 0xA0 SHL OR DUP4 OR SWAP1 SSTORE DUP3 DUP5 ADD SWAP1 DUP4 SWAP1 DUP4 SWAP1 PUSH32 0xDDF252AD1BE2C89B69C2B068FC378DAA952BA7F163C4A11628F55A4DF523B3EF DUP2 DUP1 LOG4 PUSH1 0x1 DUP4 ADD JUMPDEST DUP2 DUP2 EQ PUSH2 0x1B94 JUMPI DUP1 DUP4 PUSH1 0x0 PUSH32 0xDDF252AD1BE2C89B69C2B068FC378DAA952BA7F163C4A11628F55A4DF523B3EF PUSH1 0x0 DUP1 LOG4 PUSH1 0x1 ADD PUSH2 0x1B5C JUMP JUMPDEST POP DUP2 PUSH1 0x0 SUB PUSH2 0x1BCF JUMPI PUSH1 0x40 MLOAD PUSH32 0x2E07630000000000000000000000000000000000000000000000000000000000 DUP2 MSTORE PUSH1 0x4 ADD PUSH1 0x40 MLOAD DUP1 SWAP2 SUB SWAP1 REVERT JUMPDEST PUSH1 0x1 SSTORE POP POP POP POP JUMP JUMPDEST PUSH1 0x40 MLOAD PUSH4 0xA85BD01 PUSH1 0xE1 SHL DUP2 MSTORE PUSH1 0x0 SWAP1 PUSH1 0x1 PUSH1 0x1 PUSH1 0xA0 SHL SUB DUP6 AND SWAP1 PUSH4 0x150B7A02 SWAP1 PUSH2 0x1C0D SWAP1 CALLER SWAP1 DUP10 SWAP1 DUP9 SWAP1 DUP9 SWAP1 PUSH1 0x4 ADD PUSH2 0x23A8 JUMP JUMPDEST PUSH1 0x20 PUSH1 0x40 MLOAD DUP1 DUP4 SUB DUP2 PUSH1 0x0 DUP8 GAS CALL SWAP3 POP POP POP DUP1 ISZERO PUSH2 0x1C48 JUMPI POP PUSH1 0x40 DUP1 MLOAD PUSH1 0x1F RETURNDATASIZE SWAP1 DUP2 ADD PUSH1 0x1F NOT AND DUP3 ADD SWAP1 SWAP3 MSTORE PUSH2 0x1C45 SWAP2 DUP2 ADD SWAP1 PUSH2 0x23DA JUMP JUMPDEST PUSH1 0x1 JUMPDEST PUSH2 0x1CA6 JUMPI RETURNDATASIZE DUP1 DUP1 ISZERO PUSH2 0x1C76 JUMPI PUSH1 0x40 MLOAD SWAP2 POP PUSH1 0x1F NOT PUSH1 0x3F RETURNDATASIZE ADD AND DUP3 ADD PUSH1 0x40 MSTORE RETURNDATASIZE DUP3 MSTORE RETURNDATASIZE PUSH1 0x0 PUSH1 0x20 DUP5 ADD RETURNDATACOPY PUSH2 0x1C7B JUMP JUMPDEST PUSH1 0x60 SWAP2 POP JUMPDEST POP DUP1 MLOAD PUSH1 0x0 SUB PUSH2 0x1C9E JUMPI PUSH1 0x40 MLOAD PUSH4 0x68D2BF6B PUSH1 0xE1 SHL DUP2 MSTORE PUSH1 0x4 ADD PUSH1 0x40 MLOAD DUP1 SWAP2 SUB SWAP1 REVERT JUMPDEST DUP1 MLOAD DUP2 PUSH1 0x20 ADD REVERT JUMPDEST PUSH1 0x1 PUSH1 0x1 PUSH1 0xE0 SHL SUB NOT AND PUSH4 0xA85BD01 PUSH1 0xE1 SHL EQ SWAP1 POP SWAP5 SWAP4 POP POP POP POP JUMP JUMPDEST PUSH1 0x1 PUSH1 0x1 PUSH1 0xE0 SHL SUB NOT DUP2 AND DUP2 EQ PUSH2 0x1681 JUMPI PUSH1 0x0 DUP1 REVERT JUMPDEST PUSH1 0x0 PUSH1 0x20 DUP3 DUP5 SUB SLT ISZERO PUSH2 0x1CEB JUMPI PUSH1 0x0 DUP1 REVERT JUMPDEST DUP2 CALLDATALOAD PUSH2 0x182C DUP2 PUSH2 0x1CC3 JUMP JUMPDEST PUSH1 0x0 DUP2 MLOAD DUP1 DUP5 MSTORE PUSH1 0x0 JUMPDEST DUP2 DUP2 LT ISZERO PUSH2 0x1D1C JUMPI PUSH1 0x20 DUP2 DUP6 ADD DUP2 ADD MLOAD DUP7 DUP4 ADD DUP3 ADD MSTORE ADD PUSH2 0x1D00 JUMP JUMPDEST POP PUSH1 0x0 PUSH1 0x20 DUP3 DUP7 ADD ADD MSTORE PUSH1 0x20 PUSH1 0x1F NOT PUSH1 0x1F DUP4 ADD AND DUP6 ADD ADD SWAP2 POP POP SWAP3 SWAP2 POP POP JUMP JUMPDEST PUSH1 0x20 DUP2 MSTORE PUSH1 0x0 PUSH2 0x182C PUSH1 0x20 DUP4 ADD DUP5 PUSH2 0x1CF6 JUMP JUMPDEST DUP1 CALLDATALOAD PUSH1 0x1 PUSH1 0x1 PUSH1 0xA0 SHL SUB DUP2 AND DUP2 EQ PUSH2 0x1D66 JUMPI PUSH1 0x0 DUP1 REVERT JUMPDEST SWAP2 SWAP1 POP JUMP JUMPDEST PUSH1 0x0 PUSH1 0x20 DUP3 DUP5 SUB SLT ISZERO PUSH2 0x1D7D JUMPI PUSH1 0x0 DUP1 REVERT JUMPDEST PUSH2 0x182C DUP3 PUSH2 0x1D4F JUMP JUMPDEST PUSH1 0x0 PUSH1 0x20 DUP3 DUP5 SUB SLT ISZERO PUSH2 0x1D98 JUMPI PUSH1 0x0 DUP1 REVERT JUMPDEST POP CALLDATALOAD SWAP2 SWAP1 POP JUMP JUMPDEST PUSH1 0x20 DUP2 MSTORE PUSH2 0x1DB9 PUSH1 0x20 DUP3 ADD DUP4 MLOAD PUSH1 0x1 PUSH1 0x1 PUSH1 0xA0 SHL SUB AND SWAP1 MSTORE JUMP JUMPDEST PUSH1 0x0 PUSH1 0x20 DUP4 ADD MLOAD PUSH2 0x1DD5 PUSH1 0x40 DUP5 ADD DUP3 PUSH1 0x1 PUSH1 0x1 PUSH1 0xA0 SHL SUB AND SWAP1 MSTORE JUMP JUMPDEST POP PUSH1 0x40 DUP4 ADD MLOAD DUP1 ISZERO ISZERO PUSH1 0x60 DUP5 ADD MSTORE POP PUSH1 0x60 DUP4 ADD MLOAD DUP1 ISZERO ISZERO PUSH1 0x80 DUP5 ADD MSTORE POP PUSH1 0x80 DUP4 ADD MLOAD DUP1 ISZERO ISZERO PUSH1 0xA0 DUP5 ADD MSTORE POP PUSH1 0xA0 DUP4 ADD MLOAD DUP1 ISZERO ISZERO PUSH1 0xC0 DUP5 ADD MSTORE POP PUSH1 0xC0 DUP4 ADD MLOAD PUSH1 0xE0 DUP4 DUP2 ADD SWAP2 SWAP1 SWAP2 MSTORE DUP4 ADD MLOAD PUSH2 0x100 DUP1 DUP5 ADD SWAP2 SWAP1 SWAP2 MSTORE DUP4 ADD MLOAD PUSH2 0x120 DUP1 DUP5 ADD SWAP2 SWAP1 SWAP2 MSTORE DUP4 ADD MLOAD PUSH2 0x140 DUP1 DUP5 ADD SWAP2 SWAP1 SWAP2 MSTORE DUP4 ADD MLOAD PUSH2 0x160 DUP1 DUP5 ADD SWAP2 SWAP1 SWAP2 MSTORE DUP4 ADD MLOAD PUSH2 0x180 DUP1 DUP5 ADD SWAP2 SWAP1 SWAP2 MSTORE DUP4 ADD MLOAD PUSH2 0x1A0 DUP1 DUP5 ADD SWAP2 SWAP1 SWAP2 MSTORE DUP4 ADD MLOAD PUSH2 0x1C0 DUP1 DUP5 ADD SWAP2 SWAP1 SWAP2 MSTORE DUP4 ADD MLOAD PUSH2 0x260 PUSH2 0x1E0 DUP1 DUP6 ADD DUP3 SWAP1 MSTORE PUSH2 0x1E94 PUSH2 0x280 DUP7 ADD DUP5 PUSH2 0x1CF6 JUMP JUMPDEST SWAP3 POP DUP1 DUP7 ADD MLOAD SWAP1 POP PUSH1 0x1F NOT PUSH2 0x200 DUP2 DUP8 DUP7 SUB ADD DUP2 DUP9 ADD MSTORE PUSH2 0x1EB5 DUP6 DUP5 PUSH2 0x1CF6 JUMP JUMPDEST SWAP5 POP DUP1 DUP9 ADD MLOAD SWAP3 POP POP PUSH2 0x220 DUP2 DUP8 DUP7 SUB ADD DUP2 DUP9 ADD MSTORE PUSH2 0x1ED4 DUP6 DUP5 PUSH2 0x1CF6 JUMP JUMPDEST SWAP5 POP DUP1 DUP9 ADD MLOAD SWAP3 POP POP PUSH2 0x240 DUP2 DUP8 DUP7 SUB ADD DUP2 DUP9 ADD MSTORE PUSH2 0x1EF3 DUP6 DUP5 PUSH2 0x1CF6 JUMP JUMPDEST SWAP1 DUP9 ADD MLOAD DUP8 DUP3 SUB SWAP1 SWAP3 ADD DUP5 DUP9 ADD MSTORE SWAP4 POP SWAP1 POP PUSH2 0x1F0F DUP4 DUP3 PUSH2 0x1CF6 JUMP JUMPDEST SWAP7 SWAP6 POP POP POP POP POP POP JUMP JUMPDEST DUP1 CALLDATALOAD DUP1 ISZERO ISZERO DUP2 EQ PUSH2 0x1D66 JUMPI PUSH1 0x0 DUP1 REVERT JUMPDEST PUSH1 0x0 DUP1 PUSH1 0x40 DUP4 DUP6 SUB SLT ISZERO PUSH2 0x1F3C JUMPI PUSH1 0x0 DUP1 REVERT JUMPDEST PUSH2 0x1F45 DUP4 PUSH2 0x1D4F JUMP JUMPDEST SWAP2 POP PUSH2 0x1F53 PUSH1 0x20 DUP5 ADD PUSH2 0x1F19 JUMP JUMPDEST SWAP1 POP SWAP3 POP SWAP3 SWAP1 POP JUMP JUMPDEST PUSH4 0x4E487B71 PUSH1 0xE0 SHL PUSH1 0x0 MSTORE PUSH1 0x41 PUSH1 0x4 MSTORE PUSH1 0x24 PUSH1 0x0 REVERT JUMPDEST PUSH1 0x40 MLOAD PUSH2 0x160 DUP2 ADD PUSH8 0xFFFFFFFFFFFFFFFF DUP2 GT DUP3 DUP3 LT OR ISZERO PUSH2 0x1F96 JUMPI PUSH2 0x1F96 PUSH2 0x1F5C JUMP JUMPDEST PUSH1 0x40 MSTORE SWAP1 JUMP JUMPDEST PUSH1 0x0 DUP3 PUSH1 0x1F DUP4 ADD SLT PUSH2 0x1FAD JUMPI PUSH1 0x0 DUP1 REVERT JUMPDEST DUP2 CALLDATALOAD PUSH8 0xFFFFFFFFFFFFFFFF DUP1 DUP3 GT ISZERO PUSH2 0x1FC8 JUMPI PUSH2 0x1FC8 PUSH2 0x1F5C JUMP JUMPDEST PUSH1 0x40 MLOAD PUSH1 0x1F DUP4 ADD PUSH1 0x1F NOT SWAP1 DUP2 AND PUSH1 0x3F ADD AND DUP2 ADD SWAP1 DUP3 DUP3 GT DUP2 DUP4 LT OR ISZERO PUSH2 0x1FF0 JUMPI PUSH2 0x1FF0 PUSH2 0x1F5C JUMP JUMPDEST DUP2 PUSH1 0x40 MSTORE DUP4 DUP2 MSTORE DUP7 PUSH1 0x20 DUP6 DUP9 ADD ADD GT ISZERO PUSH2 0x2009 JUMPI PUSH1 0x0 DUP1 REVERT JUMPDEST DUP4 PUSH1 0x20 DUP8 ADD PUSH1 0x20 DUP4 ADD CALLDATACOPY PUSH1 0x0 PUSH1 0x20 DUP6 DUP4 ADD ADD MSTORE DUP1 SWAP5 POP POP POP POP POP SWAP3 SWAP2 POP POP JUMP JUMPDEST PUSH1 0x0 PUSH1 0x20 DUP3 DUP5 SUB SLT ISZERO PUSH2 0x203B JUMPI PUSH1 0x0 DUP1 REVERT JUMPDEST DUP2 CALLDATALOAD PUSH8 0xFFFFFFFFFFFFFFFF DUP1 DUP3 GT ISZERO PUSH2 0x2053 JUMPI PUSH1 0x0 DUP1 REVERT JUMPDEST SWAP1 DUP4 ADD SWAP1 PUSH2 0x160 DUP3 DUP7 SUB SLT ISZERO PUSH2 0x2068 JUMPI PUSH1 0x0 DUP1 REVERT JUMPDEST PUSH2 0x2070 PUSH2 0x1F72 JUMP JUMPDEST DUP3 CALLDATALOAD DUP2 MSTORE PUSH1 0x20 DUP4 ADD CALLDATALOAD PUSH1 0x20 DUP3 ADD MSTORE PUSH1 0x40 DUP4 ADD CALLDATALOAD PUSH1 0x40 DUP3 ADD MSTORE PUSH1 0x60 DUP4 ADD CALLDATALOAD PUSH1 0x60 DUP3 ADD MSTORE PUSH1 0x80 DUP4 ADD CALLDATALOAD PUSH1 0x80 DUP3 ADD MSTORE PUSH1 0xA0 DUP4 ADD CALLDATALOAD PUSH1 0xA0 DUP3 ADD MSTORE PUSH1 0xC0 DUP4 ADD CALLDATALOAD DUP3 DUP2 GT ISZERO PUSH2 0x20B8 JUMPI PUSH1 0x0 DUP1 REVERT JUMPDEST PUSH2 0x20C4 DUP8 DUP3 DUP7 ADD PUSH2 0x1F9C JUMP JUMPDEST PUSH1 0xC0 DUP4 ADD MSTORE POP PUSH1 0xE0 DUP4 ADD CALLDATALOAD DUP3 DUP2 GT ISZERO PUSH2 0x20DC JUMPI PUSH1 0x0 DUP1 REVERT JUMPDEST PUSH2 0x20E8 DUP8 DUP3 DUP7 ADD PUSH2 0x1F9C JUMP JUMPDEST PUSH1 0xE0 DUP4 ADD MSTORE POP PUSH2 0x100 DUP1 DUP5 ADD CALLDATALOAD DUP4 DUP2 GT ISZERO PUSH2 0x2102 JUMPI PUSH1 0x0 DUP1 REVERT JUMPDEST PUSH2 0x210E DUP9 DUP3 DUP8 ADD PUSH2 0x1F9C JUMP JUMPDEST DUP3 DUP5 ADD MSTORE POP POP PUSH2 0x120 SWAP2 POP PUSH2 0x2124 DUP3 DUP5 ADD PUSH2 0x1F19 JUMP JUMPDEST DUP3 DUP3 ADD MSTORE PUSH2 0x140 SWAP2 POP PUSH2 0x2138 DUP3 DUP5 ADD PUSH2 0x1F19 JUMP JUMPDEST SWAP2 DUP2 ADD SWAP2 SWAP1 SWAP2 MSTORE SWAP5 SWAP4 POP POP POP POP JUMP JUMPDEST PUSH1 0x0 DUP1 PUSH1 0x20 DUP4 DUP6 SUB SLT ISZERO PUSH2 0x215A JUMPI PUSH1 0x0 DUP1 REVERT JUMPDEST DUP3 CALLDATALOAD PUSH8 0xFFFFFFFFFFFFFFFF DUP1 DUP3 GT ISZERO PUSH2 0x2172 JUMPI PUSH1 0x0 DUP1 REVERT JUMPDEST DUP2 DUP6 ADD SWAP2 POP DUP6 PUSH1 0x1F DUP4 ADD SLT PUSH2 0x2186 JUMPI PUSH1 0x0 DUP1 REVERT JUMPDEST DUP2 CALLDATALOAD DUP2 DUP2 GT ISZERO PUSH2 0x2195 JUMPI PUSH1 0x0 DUP1 REVERT JUMPDEST DUP7 PUSH1 0x20 DUP3 PUSH1 0x5 SHL DUP6 ADD ADD GT ISZERO PUSH2 0x21AA JUMPI PUSH1 0x0 DUP1 REVERT JUMPDEST PUSH1 0x20 SWAP3 SWAP1 SWAP3 ADD SWAP7 SWAP2 SWAP6 POP SWAP1 SWAP4 POP POP POP POP JUMP JUMPDEST PUSH1 0x1 DUP2 DUP2 SHR SWAP1 DUP3 AND DUP1 PUSH2 0x21D0 JUMPI PUSH1 0x7F DUP3 AND SWAP2 POP JUMPDEST PUSH1 0x20 DUP3 LT DUP2 SUB PUSH2 0x21F0 JUMPI PUSH4 0x4E487B71 PUSH1 0xE0 SHL PUSH1 0x0 MSTORE PUSH1 0x22 PUSH1 0x4 MSTORE PUSH1 0x24 PUSH1 0x0 REVERT JUMPDEST POP SWAP2 SWAP1 POP JUMP JUMPDEST PUSH4 0x4E487B71 PUSH1 0xE0 SHL PUSH1 0x0 MSTORE PUSH1 0x11 PUSH1 0x4 MSTORE PUSH1 0x24 PUSH1 0x0 REVERT JUMPDEST DUP2 DUP2 SUB DUP2 DUP2 GT ISZERO PUSH2 0x841 JUMPI PUSH2 0x841 PUSH2 0x21F6 JUMP JUMPDEST DUP1 DUP3 MUL DUP2 ISZERO DUP3 DUP3 DIV DUP5 EQ OR PUSH2 0x841 JUMPI PUSH2 0x841 PUSH2 0x21F6 JUMP JUMPDEST PUSH1 0x0 DUP3 PUSH2 0x2253 JUMPI PUSH4 0x4E487B71 PUSH1 0xE0 SHL PUSH1 0x0 MSTORE PUSH1 0x12 PUSH1 0x4 MSTORE PUSH1 0x24 PUSH1 0x0 REVERT JUMPDEST POP DIV SWAP1 JUMP JUMPDEST PUSH1 0x1F DUP3 GT ISZERO PUSH2 0xF70 JUMPI PUSH1 0x0 DUP2 DUP2 MSTORE PUSH1 0x20 DUP2 KECCAK256 PUSH1 0x1F DUP6 ADD PUSH1 0x5 SHR DUP2 ADD PUSH1 0x20 DUP7 LT ISZERO PUSH2 0x227F JUMPI POP DUP1 JUMPDEST PUSH1 0x1F DUP6 ADD PUSH1 0x5 SHR DUP3 ADD SWAP2 POP JUMPDEST DUP2 DUP2 LT ISZERO PUSH2 0x229E JUMPI DUP3 DUP2 SSTORE PUSH1 0x1 ADD PUSH2 0x228B JUMP JUMPDEST POP POP POP POP POP POP JUMP JUMPDEST DUP2 MLOAD PUSH8 0xFFFFFFFFFFFFFFFF DUP2 GT ISZERO PUSH2 0x22C0 JUMPI PUSH2 0x22C0 PUSH2 0x1F5C JUMP JUMPDEST PUSH2 0x22D4 DUP2 PUSH2 0x22CE DUP5 SLOAD PUSH2 0x21BC JUMP JUMPDEST DUP5 PUSH2 0x2258 JUMP JUMPDEST PUSH1 0x20 DUP1 PUSH1 0x1F DUP4 GT PUSH1 0x1 DUP2 EQ PUSH2 0x2309 JUMPI PUSH1 0x0 DUP5 ISZERO PUSH2 0x22F1 JUMPI POP DUP6 DUP4 ADD MLOAD JUMPDEST PUSH1 0x0 NOT PUSH1 0x3 DUP7 SWAP1 SHL SHR NOT AND PUSH1 0x1 DUP6 SWAP1 SHL OR DUP6 SSTORE PUSH2 0x229E JUMP JUMPDEST PUSH1 0x0 DUP6 DUP2 MSTORE PUSH1 0x20 DUP2 KECCAK256 PUSH1 0x1F NOT DUP7 AND SWAP2 JUMPDEST DUP3 DUP2 LT ISZERO PUSH2 0x2338 JUMPI DUP9 DUP7 ADD MLOAD DUP3 SSTORE SWAP5 DUP5 ADD SWAP5 PUSH1 0x1 SWAP1 SWAP2 ADD SWAP1 DUP5 ADD PUSH2 0x2319 JUMP JUMPDEST POP DUP6 DUP3 LT ISZERO PUSH2 0x2356 JUMPI DUP8 DUP6 ADD MLOAD PUSH1 0x0 NOT PUSH1 0x3 DUP9 SWAP1 SHL PUSH1 0xF8 AND SHR NOT AND DUP2 SSTORE JUMPDEST POP POP POP POP POP PUSH1 0x1 SWAP1 DUP2 SHL ADD SWAP1 SSTORE POP JUMP JUMPDEST DUP1 DUP3 ADD DUP1 DUP3 GT ISZERO PUSH2 0x841 JUMPI PUSH2 0x841 PUSH2 0x21F6 JUMP JUMPDEST PUSH4 0x4E487B71 PUSH1 0xE0 SHL PUSH1 0x0 MSTORE PUSH1 0x32 PUSH1 0x4 MSTORE PUSH1 0x24 PUSH1 0x0 REVERT JUMPDEST PUSH1 0x0 PUSH1 0x1 DUP3 ADD PUSH2 0x23A1 JUMPI PUSH2 0x23A1 PUSH2 0x21F6 JUMP JUMPDEST POP PUSH1 0x1 ADD SWAP1 JUMP JUMPDEST PUSH1 0x0 PUSH1 0x1 PUSH1 0x1 PUSH1 0xA0 SHL SUB DUP1 DUP8 AND DUP4 MSTORE DUP1 DUP7 AND PUSH1 0x20 DUP5 ADD MSTORE POP DUP4 PUSH1 0x40 DUP4 ADD MSTORE PUSH1 0x80 PUSH1 0x60 DUP4 ADD MSTORE PUSH2 0x1F0F PUSH1 0x80 DUP4 ADD DUP5 PUSH2 0x1CF6 JUMP JUMPDEST PUSH1 0x0 PUSH1 0x20 DUP3 DUP5 SUB SLT ISZERO PUSH2 0x23EC JUMPI PUSH1 0x0 DUP1 REVERT JUMPDEST DUP2 MLOAD PUSH2 0x182C DUP2 PUSH2 0x1CC3 JUMP INVALID LOG2 PUSH5 0x6970667358 0x22 SLT KECCAK256 0xCF DUP16 MOD PUSH14 0x9BAD9E8F348D33B2224648487D5B 0x21 MOD 0x2B POP SWAP13 PUSH18 0xCCFF004B8FC67BE464736F6C634300081100 CALLER LOG2 PUSH5 0x6970667358 0x22 SLT KECCAK256 0x4A PUSH17 0xDB4147CC6E545A875AB535C3AA9FDACF49 DUP5 NOT 0xD9 PUSH25 0x799A84C5FFF04ABA8464736F6C634300081100330000000000 "},"methodIdentifiers":{"createEvent((uint256,uint256,uint256,uint256,uint256,uint256,string,string,string,string,string,bool,bool))":"fce580f0","events(uint256)":"0b791430","fee()":"ddca3f43","getEvents(uint256,uint256,uint256)":"0ea4e6a0","owner()":"8da5cb5b","renounceOwnership()":"715018a6","setTokenUri(string)":"0675b7c6","transferOwnership(address)":"f2fde38b","withdraw()":"3ccfd60b"}}}}}