{"contracts/Event.sol":{"Event":{"abi":[{"inputs":[{"components":[{"internalType":"uint32","name":"maxParticipants","type":"uint32"},{"internalType":"uint256","name":"registrationEnd","type":"uint256"},{"internalType":"uint256","name":"start","type":"uint256"},{"internalType":"uint256","name":"end","type":"uint256"},{"internalType":"uint256","name":"ticketPrice","type":"uint256"},{"internalType":"uint256","name":"preSaleTicketPrice","type":"uint256"},{"internalType":"string","name":"name","type":"string"},{"internalType":"bytes32","name":"link","type":"bytes32"},{"internalType":"bytes32","name":"image","type":"bytes32"},{"internalType":"bytes32","name":"location","type":"bytes32"},{"internalType":"string","name":"description","type":"string"},{"internalType":"bool","name":"registrationOpen","type":"bool"},{"internalType":"bool","name":"onlyWhitelistRegistration","type":"bool"}],"internalType":"struct Utils.EventStruct","name":"eventData","type":"tuple"},{"internalType":"address","name":"owner","type":"address"},{"internalType":"uint8","name":"fee","type":"uint8"}],"stateMutability":"nonpayable","type":"constructor"},{"inputs":[],"name":"AddressNotWhitelisted","type":"error"},{"inputs":[],"name":"AlreadyCheckedIn","type":"error"},{"inputs":[],"name":"AlreadyRegistered","type":"error"},{"inputs":[],"name":"BadRequest","type":"error"},{"inputs":[],"name":"BalanceQueryForZeroAddress","type":"error"},{"inputs":[],"name":"CanNotModifyStartedEvent","type":"error"},{"inputs":[],"name":"CheckInNotAvailable","type":"error"},{"inputs":[],"name":"EventAlreadyStarted","type":"error"},{"inputs":[],"name":"MintToZeroAddress","type":"error"},{"inputs":[],"name":"MintZeroQuantity","type":"error"},{"inputs":[],"name":"NoSeatsAvailable","type":"error"},{"inputs":[],"name":"NotModerator","type":"error"},{"inputs":[],"name":"NotRegistered","type":"error"},{"inputs":[],"name":"OwnerQueryForNonexistentToken","type":"error"},{"inputs":[],"name":"ProvideRequiredArguments","type":"error"},{"inputs":[],"name":"RegistrationClosed","type":"error"},{"inputs":[],"name":"TransferFailed","type":"error"},{"inputs":[],"name":"TransferToNonERC721ReceiverImplementer","type":"error"},{"inputs":[],"name":"URIQueryForNonexistentToken","type":"error"},{"inputs":[],"name":"ValueNotEnough","type":"error"},{"anonymous":false,"inputs":[{"indexed":true,"internalType":"address","name":"previousOwner","type":"address"},{"indexed":true,"internalType":"address","name":"newOwner","type":"address"}],"name":"OwnershipTransferred","type":"event"},{"anonymous":false,"inputs":[{"indexed":false,"internalType":"address","name":"participant","type":"address"}],"name":"ParticipantChecked","type":"event"},{"anonymous":false,"inputs":[{"indexed":false,"internalType":"address","name":"participant","type":"address"}],"name":"ParticipantRegistered","type":"event"},{"anonymous":false,"inputs":[{"indexed":true,"internalType":"address","name":"from","type":"address"},{"indexed":true,"internalType":"address","name":"to","type":"address"},{"indexed":true,"internalType":"uint256","name":"tokenId","type":"uint256"}],"name":"Transfer","type":"event"},{"inputs":[{"internalType":"address","name":"addr","type":"address"},{"internalType":"bool","name":"status","type":"bool"}],"name":"addModerator","outputs":[],"stateMutability":"nonpayable","type":"function"},{"inputs":[{"internalType":"address","name":"owner","type":"address"}],"name":"balanceOf","outputs":[{"internalType":"uint256","name":"","type":"uint256"}],"stateMutability":"view","type":"function"},{"inputs":[{"components":[{"internalType":"uint32","name":"maxParticipants","type":"uint32"},{"internalType":"uint256","name":"registrationEnd","type":"uint256"},{"internalType":"uint256","name":"start","type":"uint256"},{"internalType":"uint256","name":"end","type":"uint256"},{"internalType":"uint256","name":"ticketPrice","type":"uint256"},{"internalType":"uint256","name":"preSaleTicketPrice","type":"uint256"},{"internalType":"string","name":"description","type":"string"},{"internalType":"bytes32","name":"link","type":"bytes32"},{"internalType":"bytes32","name":"location","type":"bytes32"},{"internalType":"bool","name":"registrationOpen","type":"bool"},{"internalType":"bool","name":"onlyWhitelistRegistration","type":"bool"}],"internalType":"struct Utils.EventUpdateStruct","name":"eventData","type":"tuple"}],"name":"changeEventInfo","outputs":[],"stateMutability":"nonpayable","type":"function"},{"inputs":[{"internalType":"bytes32","name":"rootHash","type":"bytes32"}],"name":"changeWhitelistRoot","outputs":[],"stateMutability":"nonpayable","type":"function"},{"inputs":[{"internalType":"address","name":"participant","type":"address"}],"name":"checkIn","outputs":[],"stateMutability":"nonpayable","type":"function"},{"inputs":[],"name":"checkedParticipantCount","outputs":[{"internalType":"uint256","name":"","type":"uint256"}],"stateMutability":"view","type":"function"},{"inputs":[{"internalType":"address","name":"","type":"address"}],"name":"checkedParticipants","outputs":[{"internalType":"bool","name":"","type":"bool"}],"stateMutability":"view","type":"function"},{"inputs":[],"name":"description","outputs":[{"internalType":"string","name":"","type":"string"}],"stateMutability":"view","type":"function"},{"inputs":[],"name":"end","outputs":[{"internalType":"uint256","name":"","type":"uint256"}],"stateMutability":"view","type":"function"},{"inputs":[{"internalType":"uint256","name":"currTimestamp","type":"uint256"}],"name":"getEventInfo","outputs":[{"components":[{"internalType":"address","name":"addr","type":"address"},{"internalType":"address","name":"organizer","type":"address"},{"internalType":"bool","name":"registrationOpen","type":"bool"},{"internalType":"bool","name":"onlyWhitelistRegistration","type":"bool"},{"internalType":"bool","name":"isRegistered","type":"bool"},{"internalType":"bool","name":"isChecked","type":"bool"},{"internalType":"uint32","name":"maxParticipants","type":"uint32"},{"internalType":"uint256","name":"registrationEnd","type":"uint256"},{"internalType":"uint256","name":"start","type":"uint256"},{"internalType":"uint256","name":"end","type":"uint256"},{"internalType":"uint256","name":"ticketPrice","type":"uint256"},{"internalType":"uint256","name":"preSaleTicketPrice","type":"uint256"},{"internalType":"uint256","name":"registeredParticipantCount","type":"uint256"},{"internalType":"uint256","name":"checkedParticipantCount","type":"uint256"},{"internalType":"string","name":"description","type":"string"},{"internalType":"string","name":"name","type":"string"},{"internalType":"bytes32","name":"link","type":"bytes32"},{"internalType":"bytes32","name":"image","type":"bytes32"},{"internalType":"bytes32","name":"location","type":"bytes32"}],"internalType":"struct Utils.EventInfoStruct","name":"","type":"tuple"}],"stateMutability":"view","type":"function"},{"inputs":[{"internalType":"uint256","name":"currTimestamp","type":"uint256"}],"name":"getRegistrationOpen","outputs":[{"internalType":"uint8","name":"","type":"uint8"}],"stateMutability":"view","type":"function"},{"inputs":[],"name":"image","outputs":[{"internalType":"bytes32","name":"","type":"bytes32"}],"stateMutability":"view","type":"function"},{"inputs":[],"name":"link","outputs":[{"internalType":"bytes32","name":"","type":"bytes32"}],"stateMutability":"view","type":"function"},{"inputs":[],"name":"location","outputs":[{"internalType":"bytes32","name":"","type":"bytes32"}],"stateMutability":"view","type":"function"},{"inputs":[],"name":"maxParticipants","outputs":[{"internalType":"uint32","name":"","type":"uint32"}],"stateMutability":"view","type":"function"},{"inputs":[{"internalType":"address","name":"","type":"address"}],"name":"moderators","outputs":[{"internalType":"bool","name":"","type":"bool"}],"stateMutability":"view","type":"function"},{"inputs":[],"name":"name","outputs":[{"internalType":"string","name":"","type":"string"}],"stateMutability":"view","type":"function"},{"inputs":[],"name":"onlyWhitelistRegistration","outputs":[{"internalType":"bool","name":"","type":"bool"}],"stateMutability":"view","type":"function"},{"inputs":[],"name":"owner","outputs":[{"internalType":"address","name":"","type":"address"}],"stateMutability":"view","type":"function"},{"inputs":[{"internalType":"uint256","name":"tokenId","type":"uint256"}],"name":"ownerOf","outputs":[{"internalType":"address","name":"","type":"address"}],"stateMutability":"view","type":"function"},{"inputs":[],"name":"parentContractAddr","outputs":[{"internalType":"address","name":"","type":"address"}],"stateMutability":"view","type":"function"},{"inputs":[],"name":"parentContractFee","outputs":[{"internalType":"uint8","name":"","type":"uint8"}],"stateMutability":"view","type":"function"},{"inputs":[{"internalType":"address","name":"","type":"address"}],"name":"participants","outputs":[{"internalType":"bool","name":"","type":"bool"}],"stateMutability":"view","type":"function"},{"inputs":[],"name":"preSaleTicketPrice","outputs":[{"internalType":"uint256","name":"","type":"uint256"}],"stateMutability":"view","type":"function"},{"inputs":[],"name":"publicRegister","outputs":[],"stateMutability":"payable","type":"function"},{"inputs":[],"name":"registeredParticipantCount","outputs":[{"internalType":"uint256","name":"","type":"uint256"}],"stateMutability":"view","type":"function"},{"inputs":[],"name":"registrationEnd","outputs":[{"internalType":"uint256","name":"","type":"uint256"}],"stateMutability":"view","type":"function"},{"inputs":[],"name":"registrationOpen","outputs":[{"internalType":"bool","name":"","type":"bool"}],"stateMutability":"view","type":"function"},{"inputs":[],"name":"renounceOwnership","outputs":[],"stateMutability":"nonpayable","type":"function"},{"inputs":[],"name":"start","outputs":[{"internalType":"uint256","name":"","type":"uint256"}],"stateMutability":"view","type":"function"},{"inputs":[{"internalType":"bytes4","name":"interfaceId","type":"bytes4"}],"name":"supportsInterface","outputs":[{"internalType":"bool","name":"","type":"bool"}],"stateMutability":"view","type":"function"},{"inputs":[],"name":"symbol","outputs":[{"internalType":"string","name":"","type":"string"}],"stateMutability":"view","type":"function"},{"inputs":[],"name":"ticketPrice","outputs":[{"internalType":"uint256","name":"","type":"uint256"}],"stateMutability":"view","type":"function"},{"inputs":[{"internalType":"uint256","name":"tokenId","type":"uint256"}],"name":"tokenURI","outputs":[{"internalType":"string","name":"","type":"string"}],"stateMutability":"view","type":"function"},{"inputs":[],"name":"totalSupply","outputs":[{"internalType":"uint256","name":"","type":"uint256"}],"stateMutability":"view","type":"function"},{"inputs":[{"internalType":"address","name":"newOwner","type":"address"}],"name":"transferOwnership","outputs":[],"stateMutability":"nonpayable","type":"function"},{"inputs":[{"internalType":"address","name":"owner","type":"address"}],"name":"verifyTicket","outputs":[{"internalType":"bool","name":"","type":"bool"}],"stateMutability":"view","type":"function"},{"inputs":[{"internalType":"bytes32[]","name":"_proof","type":"bytes32[]"}],"name":"whitelistRegister","outputs":[],"stateMutability":"payable","type":"function"},{"inputs":[],"name":"whitelistRoot","outputs":[{"internalType":"bytes32","name":"","type":"bytes32"}],"stateMutability":"view","type":"function"},{"inputs":[],"name":"withdraw","outputs":[],"stateMutability":"nonpayable","type":"function"}],"evm":{"bytecode":{"linkReferences":{},"object":"60806040526007805461ff0019166101001790557f16d95910a21726a3e7b59a8c6166b355396434419809cb902e2063555b8d60de600f553480156200004457600080fd5b5060405162002e7038038062002e7083398101604081905262000067916200047b565b60c083015160408051808201909152600481526321a922ab60e11b60208201526200009233620001f3565b6003620000a0838262000660565b506004620000af828262000660565b5060018055505060408301511580620000ca57506060830151155b15620000e957604051630968678160e11b815260040160405180910390fd5b610140830151601090620000fe908262000660565b5060e08301516011556101008084015160125583516007805460408701516009556060870151600a556080870151600d5560a0870151600e5561012087015160135561016087015161018088015165ffffffffff00199092166201000063ffffffff9095169490940261ff001916939093179215159093029190911760ff19169115159190911790556020830151600003620001a2576040830151600855620001ab565b60208301516008555b60078054600160301b600160d81b031916336701000000000000000260ff60301b191617660100000000000060ff841602179055620001ea8262000243565b5050506200072c565b600080546001600160a01b038381166001600160a01b0319831681178455604051919092169283917f8be0079c531659141344cd1fd0a4f28419497f9722a3daafe3b4186f6b6457e09190a35050565b6200024d620002c6565b6001600160a01b038116620002b85760405162461bcd60e51b815260206004820152602660248201527f4f776e61626c653a206e6577206f776e657220697320746865207a65726f206160448201526564647265737360d01b60648201526084015b60405180910390fd5b620002c381620001f3565b50565b6000546001600160a01b03163314620003225760405162461bcd60e51b815260206004820181905260248201527f4f776e61626c653a2063616c6c6572206973206e6f7420746865206f776e65726044820152606401620002af565b565b634e487b7160e01b600052604160045260246000fd5b6040516101a081016001600160401b038111828210171562000360576200036062000324565b60405290565b604051601f8201601f191681016001600160401b038111828210171562000391576200039162000324565b604052919050565b805163ffffffff81168114620003ae57600080fd5b919050565b600082601f830112620003c557600080fd5b81516001600160401b03811115620003e157620003e162000324565b6020620003f7601f8301601f1916820162000366565b82815285828487010111156200040c57600080fd5b60005b838110156200042c5785810183015182820184015282016200040f565b506000928101909101919091529392505050565b80518015158114620003ae57600080fd5b80516001600160a01b0381168114620003ae57600080fd5b805160ff81168114620003ae57600080fd5b6000806000606084860312156200049157600080fd5b83516001600160401b0380821115620004a957600080fd5b908501906101a08288031215620004bf57600080fd5b620004c96200033a565b620004d48362000399565b81526020830151602082015260408301516040820152606083015160608201526080830151608082015260a083015160a082015260c0830151828111156200051b57600080fd5b6200052989828601620003b3565b60c08301525060e083810151908201526101008084015190820152610120808401519082015261014080840151838111156200056457600080fd5b620005728a828701620003b3565b82840152505061016091506200058a82840162000440565b828201526101809150620005a082840162000440565b82820152809550505050620005b86020850162000451565b9150620005c86040850162000469565b90509250925092565b600181811c90821680620005e657607f821691505b6020821081036200060757634e487b7160e01b600052602260045260246000fd5b50919050565b601f8211156200065b57600081815260208120601f850160051c81016020861015620006365750805b601f850160051c820191505b81811015620006575782815560010162000642565b5050505b505050565b81516001600160401b038111156200067c576200067c62000324565b62000694816200068d8454620005d1565b846200060d565b602080601f831160018114620006cc5760008415620006b35750858301515b600019600386901b1c1916600185901b17855562000657565b600085815260208120601f198616915b82811015620006fd57888601518255948401946001909101908401620006dc565b50858210156200071c5787850151600019600388901b60f8161c191681555b5050505050600190811b01905550565b612734806200073c6000396000f3fe6080604052600436106102ba5760003560e01c80637284e4161161016e578063c6a7cbc9116100cb578063efbe1c1c1161007f578063f34094a711610064578063f34094a714610774578063f3ccaac01461077c578063fe1e2f511461079257600080fd5b8063efbe1c1c1461073e578063f2fde38b1461075457600080fd5b8063c87b56dd116100b0578063c87b56dd146106de578063d9a59e33146106fe578063ead121111461071e57600080fd5b8063c6a7cbc9146106a4578063c7cac600146106c457600080fd5b80638da5cb5b11610122578063be9a655511610107578063be9a655514610665578063c025e6861461067b578063c4625ba31461068e57600080fd5b80638da5cb5b1461063257806395d89b411461065057600080fd5b80637de33aec116101535780637de33aec146105db5780638121e42d146105f15780638818ed381461060757600080fd5b80637284e416146105a7578063736f88cd146105bc57600080fd5b80631d645b121161021c578063516f279e116101d0578063666f77b6116101b5578063666f77b61461055257806370a0823114610572578063715018a61461059257600080fd5b8063516f279e146105045780636352211e1461051a57600080fd5b8063336df10611610201578063336df106146104b7578063386bfc98146104d95780633ccfd60b146104ef57600080fd5b80631d645b121461045257806324924bf71461047f57600080fd5b806313446a7511610273578063158c613411610258578063158c6134146103e657806318160ddd1461041f5780631c4695f41461043c57600080fd5b806313446a75146103a057806314d0f1ba146103b657600080fd5b806306fdde03116102a457806306fdde031461032a57806309e69ede1461034c5780631209b1f61461037c57600080fd5b8062f4494f146102bf57806301ffc9a7146102fa575b600080fd5b3480156102cb57600080fd5b506007546102e3906601000000000000900460ff1681565b60405160ff90911681526020015b60405180910390f35b34801561030657600080fd5b5061031a610315366004611ed8565b6107c2565b60405190151581526020016102f1565b34801561033657600080fd5b5061033f61085f565b6040516102f19190611f45565b34801561035857600080fd5b5061031a610367366004611f74565b60146020526000908152604090205460ff1681565b34801561038857600080fd5b50610392600d5481565b6040519081526020016102f1565b3480156103ac57600080fd5b5061039260085481565b3480156103c257600080fd5b5061031a6103d1366004611f74565b60166020526000908152604090205460ff1681565b3480156103f257600080fd5b5061031a610401366004611f74565b6001600160a01b031660009081526014602052604090205460ff1690565b34801561042b57600080fd5b506002546001540360001901610392565b34801561044857600080fd5b5061039260115481565b34801561045e57600080fd5b5061047261046d366004611f8f565b6108f1565b6040516102f19190611fa8565b34801561048b57600080fd5b506007546104a29062010000900463ffffffff1681565b60405163ffffffff90911681526020016102f1565b3480156104c357600080fd5b506104d76104d23660046120ff565b610b8b565b005b3480156104e557600080fd5b50610392600f5481565b3480156104fb57600080fd5b506104d7610bbe565b34801561051057600080fd5b5061039260135481565b34801561052657600080fd5b5061053a610535366004611f8f565b610d52565b6040516001600160a01b0390911681526020016102f1565b34801561055e57600080fd5b506104d761056d366004612235565b610d5d565b34801561057e57600080fd5b5061039261058d366004611f74565b610e91565b34801561059e57600080fd5b506104d7610ef9565b3480156105b357600080fd5b5061033f610f0d565b3480156105c857600080fd5b5060075461031a90610100900460ff1681565b3480156105e757600080fd5b50610392600c5481565b3480156105fd57600080fd5b50610392600e5481565b34801561061357600080fd5b5060075461053a9067010000000000000090046001600160a01b031681565b34801561063e57600080fd5b506000546001600160a01b031661053a565b34801561065c57600080fd5b5061033f610f9b565b34801561067157600080fd5b5061039260095481565b6104d7610689366004612325565b610faa565b34801561069a57600080fd5b50610392600b5481565b3480156106b057600080fd5b506104d76106bf366004611f8f565b611115565b3480156106d057600080fd5b5060075461031a9060ff1681565b3480156106ea57600080fd5b5061033f6106f9366004611f8f565b611122565b34801561070a57600080fd5b506104d7610719366004611f74565b61122b565b34801561072a57600080fd5b506102e3610739366004611f8f565b6113fa565b34801561074a57600080fd5b50610392600a5481565b34801561076057600080fd5b506104d761076f366004611f74565b611495565b6104d761152a565b34801561078857600080fd5b5061039260125481565b34801561079e57600080fd5b5061031a6107ad366004611f74565b60156020526000908152604090205460ff1681565b60007f01ffc9a7000000000000000000000000000000000000000000000000000000006001600160e01b03198316148061082557507f80ac58cd000000000000000000000000000000000000000000000000000000006001600160e01b03198316145b8061085957507f5b5e139f000000000000000000000000000000000000000000000000000000006001600160e01b03198316145b92915050565b60606003805461086e9061239a565b80601f016020809104026020016040519081016040528092919081815260200182805461089a9061239a565b80156108e75780601f106108bc576101008083540402835291602001916108e7565b820191906000526020600020905b8154815290600101906020018083116108ca57829003601f168201915b5050505050905090565b604080516102608101825260008082526020820181905291810182905260608082018390526080820183905260a0820183905260c0820183905260e08201839052610100820183905261012082018390526101408201839052610160820183905261018082018390526101a082018390526101c082018190526101e082015261020081018290526102208101829052610240810191909152604080516102608101825260008082526020820181905291810182905260608082018390526080820183905260a0820183905260c0820183905260e08201839052610100820183905261012082018390526101408201839052610160820183905261018082018390526101a082018390526101c082018190526101e082015261020081018290526102208101829052610240810191909152600954610100820152600a5461012082015260085460e0820152610a4361085f565b6101e082015260108054610a569061239a565b80601f0160208091040260200160405190810160405280929190818152602001828054610a829061239a565b8015610acf5780601f10610aa457610100808354040283529160200191610acf565b820191906000526020600020905b815481529060010190602001808311610ab257829003601f168201915b50505050506101c082015260075462010000900463ffffffff1660c0820152600d54610140820152600e546101608201526011546102008201526012546102208201526013546102408201526000546001600160a01b03166020820152610b35836113fa565b60ff9081161560408084019190915233600081815260146020908152838220548516151560808701529181526015909152205416151560a0820152600b54610180820152600c546101a082015230815292915050565b610b93611617565b6001600160a01b03919091166000908152601660205260409020805460ff1916911515919091179055565b610bc6611617565b476000819003610be9576040516312171d8360e31b815260040160405180910390fd5b600754600190600090610c0a906601000000000000900460ff1660646123ea565b60075460ff9182169250660100000000000090041615610cc65760075467010000000000000081046001600160a01b031690606490610c579086906601000000000000900460ff16612403565b610c61919061241a565b604051600081818185875af1925050503d8060008114610c9d576040519150601f19603f3d011682016040523d82523d6000602084013e610ca2565b606091505b50508092505081610cc6576040516312171d8360e31b815260040160405180910390fd5b6000546001600160a01b03166064610cde8584612403565b610ce8919061241a565b604051600081818185875af1925050503d8060008114610d24576040519150601f19603f3d011682016040523d82523d6000602084013e610d29565b606091505b50508092505081610d4d576040516312171d8360e31b815260040160405180910390fd5b505050565b600061085982611671565b610d65611617565b4281604001511015610da3576040517f93d9b84f00000000000000000000000000000000000000000000000000000000815260040160405180910390fd5b600b54815163ffffffff161080610dc1575080606001518160400151115b15610df8576040517f41cc6b2100000000000000000000000000000000000000000000000000000000815260040160405180910390fd5b60c0810151601090610e0a908261248a565b5060e0810151601155610100808201516013558151600780546080850151600d5560a0850151600e5560408501516009556060850151600a55602085015160085561012085015161014090950151151560ff1995151590940261ff001963ffffffff90941662010000029390931665ffffffffff0019909116179190911792909216179055565b60006001600160a01b038216610ed3576040517f8f4eb60400000000000000000000000000000000000000000000000000000000815260040160405180910390fd5b506001600160a01b031660009081526006602052604090205467ffffffffffffffff1690565b610f01611617565b610f0b6000611700565b565b60108054610f1a9061239a565b80601f0160208091040260200160405190810160405280929190818152602001828054610f469061239a565b8015610f935780601f10610f6857610100808354040283529160200191610f93565b820191906000526020600020905b815481529060010190602001808311610f7657829003601f168201915b505050505081565b60606004805461086e9061239a565b6000610fb5426113fa565b90508060ff16600103610fdb5760405163a8ab2d2560e01b815260040160405180910390fd5b8060ff16600203610fff57604051632fc209f360e01b815260040160405180910390fd5b8060ff1660030361102357604051630ea075bf60e21b815260040160405180910390fd5b8060ff1660040361104757604051632437ffe960e11b815260040160405180910390fd5b60075460ff1615806110cb57506110c983838080602002602001604051908101604052809392919081815260200183836020028082843760009201919091525050600f546040516bffffffffffffffffffffffff193360601b166020820152909250603401905060405160208183030381529060405280519060200120611768565b155b156110e95760405163ad7acb4760e01b815260040160405180910390fd5b600e5434101561110c57604051633c89335b60e11b815260040160405180910390fd5b610d4d3361177e565b61111d611617565b600f55565b606061112d82611807565b611163576040517fa14c4b5000000000000000000000000000000000000000000000000000000000815260040160405180910390fd5b600060078054906101000a90046001600160a01b03166001600160a01b031663a2df578a6040518163ffffffff1660e01b8152600401600060405180830381865afa1580156111b6573d6000803e3d6000fd5b505050506040513d6000823e601f3d908101601f191682016040526111de919081019061254a565b90506000816111ec4661183c565b6111f73060146118dc565b6112008761183c565b60405160200161121394939291906125c1565b60408051601f19818403018152919052949350505050565b6000546001600160a01b0316331480159061125657503360009081526016602052604090205460ff16155b1561128d576040517feaa45d6a00000000000000000000000000000000000000000000000000000000815260040160405180910390fd5b60095442908110806112a05750600a5481115b156112d7576040517f91e3be3900000000000000000000000000000000000000000000000000000000815260040160405180910390fd5b6001600160a01b03821660009081526014602052604090205460ff16611329576040517faba4733900000000000000000000000000000000000000000000000000000000815260040160405180910390fd5b6001600160a01b03821660009081526015602052604090205460ff161561137c576040517fc98289f000000000000000000000000000000000000000000000000000000000815260040160405180910390fd5b6001600160a01b0382166000908152601560205260408120805460ff19166001908117909155600c8054919290916113b590849061264c565b90915550506040516001600160a01b03831681527fcbf477e63735f8d27f9b668165862d7c6e84e5650edec70229523db18c2f1efd9060200160405180910390a15050565b600060095482111561140e57506001919050565b600754610100900460ff161580611426575060085482115b1561143357506002919050565b3360009081526014602052604090205460ff161561145357506003919050565b60075462010000900463ffffffff16158015906114805750600754600b546201000090910463ffffffff16145b1561148d57506004919050565b506000919050565b61149d611617565b6001600160a01b03811661151e5760405162461bcd60e51b815260206004820152602660248201527f4f776e61626c653a206e6577206f776e657220697320746865207a65726f206160448201527f646472657373000000000000000000000000000000000000000000000000000060648201526084015b60405180910390fd5b61152781611700565b50565b6000611535426113fa565b90508060ff1660010361155b5760405163a8ab2d2560e01b815260040160405180910390fd5b8060ff1660020361157f57604051632fc209f360e01b815260040160405180910390fd5b8060ff166003036115a357604051630ea075bf60e21b815260040160405180910390fd5b8060ff166004036115c757604051632437ffe960e11b815260040160405180910390fd5b60075460ff16156115eb5760405163ad7acb4760e01b815260040160405180910390fd5b600d5434101561160e57604051633c89335b60e11b815260040160405180910390fd5b6115273361177e565b6000546001600160a01b03163314610f0b5760405162461bcd60e51b815260206004820181905260248201527f4f776e61626c653a2063616c6c6572206973206e6f7420746865206f776e65726044820152606401611515565b600081806001116116ce576001548110156116ce5760008181526005602052604081205490600160e01b821690036116cc575b806000036116c55750600019016000818152600560205260409020546116a4565b9392505050565b505b6040517fdf2d9b4200000000000000000000000000000000000000000000000000000000815260040160405180910390fd5b600080546001600160a01b038381167fffffffffffffffffffffffff0000000000000000000000000000000000000000831681178455604051919092169283917f8be0079c531659141344cd1fd0a4f28419497f9722a3daafe3b4186f6b6457e09190a35050565b6000826117758584611abd565b14949350505050565b6001600160a01b0381166000908152601460205260408120805460ff19166001908117909155600b8054919290916117b790849061264c565b909155506117c89050816001611b0a565b6040516001600160a01b03821681527fe11711cd714e06fbbbea301a8e90822f2f2ea4808e37e3adf06038f33c53ff279060200160405180910390a150565b60008160011115801561181b575060015482105b8015610859575050600090815260056020526040902054600160e01b161590565b6060600061184983611b28565b600101905060008167ffffffffffffffff81111561186957611869612132565b6040519080825280601f01601f191660200182016040528015611893576020820181803683370190505b5090508181016020015b600019017f3031323334353637383961626364656600000000000000000000000000000000600a86061a8153600a850494508461189d57509392505050565b606060006118eb836002612403565b6118f690600261264c565b67ffffffffffffffff81111561190e5761190e612132565b6040519080825280601f01601f191660200182016040528015611938576020820181803683370190505b5090507f30000000000000000000000000000000000000000000000000000000000000008160008151811061196f5761196f61265f565b60200101906001600160f81b031916908160001a9053507f7800000000000000000000000000000000000000000000000000000000000000816001815181106119ba576119ba61265f565b60200101906001600160f81b031916908160001a90535060006119de846002612403565b6119e990600161264c565b90505b6001811115611a6e577f303132333435363738396162636465660000000000000000000000000000000085600f1660108110611a2a57611a2a61265f565b1a60f81b828281518110611a4057611a4061265f565b60200101906001600160f81b031916908160001a90535060049490941c93611a6781612675565b90506119ec565b5083156116c55760405162461bcd60e51b815260206004820181905260248201527f537472696e67733a20686578206c656e67746820696e73756666696369656e746044820152606401611515565b600081815b8451811015611b0257611aee82868381518110611ae157611ae161265f565b6020026020010151611c0a565b915080611afa8161268c565b915050611ac2565b509392505050565b611b24828260405180602001604052806000815250611c39565b5050565b6000807a184f03e93ff9f4daa797ed6e38ed64bf6a1f0100000000000000008310611b71577a184f03e93ff9f4daa797ed6e38ed64bf6a1f010000000000000000830492506040015b6d04ee2d6d415b85acef81000000008310611b9d576d04ee2d6d415b85acef8100000000830492506020015b662386f26fc100008310611bbb57662386f26fc10000830492506010015b6305f5e1008310611bd3576305f5e100830492506008015b6127108310611be757612710830492506004015b60648310611bf9576064830492506002015b600a83106108595760010192915050565b6000818310611c265760008281526020849052604090206116c5565b60008381526020839052604090206116c5565b611c438383611ca6565b6001600160a01b0383163b15610d4d576001548281035b611c6d6000868380600101945086611dd7565b611c8a576040516368d2bf6b60e11b815260040160405180910390fd5b818110611c5a578160015414611c9f57600080fd5b5050505050565b6001546000829003611ce4576040517fb562e8dd00000000000000000000000000000000000000000000000000000000815260040160405180910390fd5b6001600160a01b03831660008181526006602090815260408083208054680100000000000000018802019055848352600590915281206001851460e11b4260a01b178317905582840190839083907fddf252ad1be2c89b69c2b068fc378daa952ba7f163c4a11628f55a4df523b3ef8180a4600183015b818114611d9357808360007fddf252ad1be2c89b69c2b068fc378daa952ba7f163c4a11628f55a4df523b3ef600080a4600101611d5b565b5081600003611dce576040517f2e07630000000000000000000000000000000000000000000000000000000000815260040160405180910390fd5b60015550505050565b604051630a85bd0160e11b81526000906001600160a01b0385169063150b7a0290611e0c9033908990889088906004016126a5565b6020604051808303816000875af1925050508015611e47575060408051601f3d908101601f19168201909252611e44918101906126e1565b60015b611ea5573d808015611e75576040519150601f19603f3d011682016040523d82523d6000602084013e611e7a565b606091505b508051600003611e9d576040516368d2bf6b60e11b815260040160405180910390fd5b805181602001fd5b6001600160e01b031916630a85bd0160e11b149050949350505050565b6001600160e01b03198116811461152757600080fd5b600060208284031215611eea57600080fd5b81356116c581611ec2565b60005b83811015611f10578181015183820152602001611ef8565b50506000910152565b60008151808452611f31816020860160208601611ef5565b601f01601f19169290920160200192915050565b6020815260006116c56020830184611f19565b80356001600160a01b0381168114611f6f57600080fd5b919050565b600060208284031215611f8657600080fd5b6116c582611f58565b600060208284031215611fa157600080fd5b5035919050565b60208152611fc26020820183516001600160a01b03169052565b60006020830151611fde60408401826001600160a01b03169052565b5060408301518015156060840152506060830151801515608084015250608083015180151560a08401525060a083015180151560c08401525060c083015163ffffffff811660e08401525060e083015161010083810191909152830151610120808401919091528301516101408084019190915283015161016080840191909152830151610180808401919091528301516101a0808401919091528301516101c0808401919091528301516102606101e08085018290526120a3610280860184611f19565b9250808601519050610200601f1986850301818701526120c38483611f19565b908701516102208781019190915287015161024080880191909152909601519190940152509192915050565b80358015158114611f6f57600080fd5b6000806040838503121561211257600080fd5b61211b83611f58565b9150612129602084016120ef565b90509250929050565b634e487b7160e01b600052604160045260246000fd5b604051610160810167ffffffffffffffff8111828210171561216c5761216c612132565b60405290565b604051601f8201601f1916810167ffffffffffffffff8111828210171561219b5761219b612132565b604052919050565b803563ffffffff81168114611f6f57600080fd5b600067ffffffffffffffff8211156121d1576121d1612132565b50601f01601f191660200190565b600082601f8301126121f057600080fd5b81356122036121fe826121b7565b612172565b81815284602083860101111561221857600080fd5b816020850160208301376000918101602001919091529392505050565b60006020828403121561224757600080fd5b813567ffffffffffffffff8082111561225f57600080fd5b90830190610160828603121561227457600080fd5b61227c612148565b612285836121a3565b81526020830135602082015260408301356040820152606083013560608201526080830135608082015260a083013560a082015260c0830135828111156122cb57600080fd5b6122d7878286016121df565b60c08301525060e08381013590820152610100808401359082015261012091506123028284016120ef565b8282015261014091506123168284016120ef565b91810191909152949350505050565b6000806020838503121561233857600080fd5b823567ffffffffffffffff8082111561235057600080fd5b818501915085601f83011261236457600080fd5b81358181111561237357600080fd5b8660208260051b850101111561238857600080fd5b60209290920196919550909350505050565b600181811c908216806123ae57607f821691505b6020821081036123ce57634e487b7160e01b600052602260045260246000fd5b50919050565b634e487b7160e01b600052601160045260246000fd5b60ff8281168282160390811115610859576108596123d4565b8082028115828204841417610859576108596123d4565b60008261243757634e487b7160e01b600052601260045260246000fd5b500490565b601f821115610d4d57600081815260208120601f850160051c810160208610156124635750805b601f850160051c820191505b818110156124825782815560010161246f565b505050505050565b815167ffffffffffffffff8111156124a4576124a4612132565b6124b8816124b2845461239a565b8461243c565b602080601f8311600181146124ed57600084156124d55750858301515b600019600386901b1c1916600185901b178555612482565b600085815260208120601f198616915b8281101561251c578886015182559484019460019091019084016124fd565b508582101561253a5787850151600019600388901b60f8161c191681555b5050505050600190811b01905550565b60006020828403121561255c57600080fd5b815167ffffffffffffffff81111561257357600080fd5b8201601f8101841361258457600080fd5b80516125926121fe826121b7565b8181528560208385010111156125a757600080fd5b6125b8826020830160208601611ef5565b95945050505050565b600085516125d3818460208a01611ef5565b8551908301906125e7818360208a01611ef5565b7f2f0000000000000000000000000000000000000000000000000000000000000091018181528551909190612623816001850160208a01611ef5565b6001920191820152835161263e816002840160208801611ef5565b016002019695505050505050565b80820180821115610859576108596123d4565b634e487b7160e01b600052603260045260246000fd5b600081612684576126846123d4565b506000190190565b60006001820161269e5761269e6123d4565b5060010190565b60006001600160a01b038087168352808616602084015250836040830152608060608301526126d76080830184611f19565b9695505050505050565b6000602082840312156126f357600080fd5b81516116c581611ec256fea26469706673582212205dd22864b21e27a73a07f2ef7b359e091e08fde974762d179e3f0fa30f7f97d864736f6c63430008110033","opcodes":"PUSH1 0x80 PUSH1 0x40 MSTORE PUSH1 0x7 DUP1 SLOAD PUSH2 0xFF00 NOT AND PUSH2 0x100 OR SWAP1 SSTORE PUSH32 0x16D95910A21726A3E7B59A8C6166B355396434419809CB902E2063555B8D60DE PUSH1 0xF SSTORE CALLVALUE DUP1 ISZERO PUSH3 0x44 JUMPI PUSH1 0x0 DUP1 REVERT JUMPDEST POP PUSH1 0x40 MLOAD PUSH3 0x2E70 CODESIZE SUB DUP1 PUSH3 0x2E70 DUP4 CODECOPY DUP2 ADD PUSH1 0x40 DUP2 SWAP1 MSTORE PUSH3 0x67 SWAP2 PUSH3 0x47B JUMP JUMPDEST PUSH1 0xC0 DUP4 ADD MLOAD PUSH1 0x40 DUP1 MLOAD DUP1 DUP3 ADD SWAP1 SWAP2 MSTORE PUSH1 0x4 DUP2 MSTORE PUSH4 0x21A922AB PUSH1 0xE1 SHL PUSH1 0x20 DUP3 ADD MSTORE PUSH3 0x92 CALLER PUSH3 0x1F3 JUMP JUMPDEST PUSH1 0x3 PUSH3 0xA0 DUP4 DUP3 PUSH3 0x660 JUMP JUMPDEST POP PUSH1 0x4 PUSH3 0xAF DUP3 DUP3 PUSH3 0x660 JUMP JUMPDEST POP PUSH1 0x1 DUP1 SSTORE POP POP PUSH1 0x40 DUP4 ADD MLOAD ISZERO DUP1 PUSH3 0xCA JUMPI POP PUSH1 0x60 DUP4 ADD MLOAD ISZERO JUMPDEST ISZERO PUSH3 0xE9 JUMPI PUSH1 0x40 MLOAD PUSH4 0x9686781 PUSH1 0xE1 SHL DUP2 MSTORE PUSH1 0x4 ADD PUSH1 0x40 MLOAD DUP1 SWAP2 SUB SWAP1 REVERT JUMPDEST PUSH2 0x140 DUP4 ADD MLOAD PUSH1 0x10 SWAP1 PUSH3 0xFE SWAP1 DUP3 PUSH3 0x660 JUMP JUMPDEST POP PUSH1 0xE0 DUP4 ADD MLOAD PUSH1 0x11 SSTORE PUSH2 0x100 DUP1 DUP5 ADD MLOAD PUSH1 0x12 SSTORE DUP4 MLOAD PUSH1 0x7 DUP1 SLOAD PUSH1 0x40 DUP8 ADD MLOAD PUSH1 0x9 SSTORE PUSH1 0x60 DUP8 ADD MLOAD PUSH1 0xA SSTORE PUSH1 0x80 DUP8 ADD MLOAD PUSH1 0xD SSTORE PUSH1 0xA0 DUP8 ADD MLOAD PUSH1 0xE SSTORE PUSH2 0x120 DUP8 ADD MLOAD PUSH1 0x13 SSTORE PUSH2 0x160 DUP8 ADD MLOAD PUSH2 0x180 DUP9 ADD MLOAD PUSH6 0xFFFFFFFFFF00 NOT SWAP1 SWAP3 AND PUSH3 0x10000 PUSH4 0xFFFFFFFF SWAP1 SWAP6 AND SWAP5 SWAP1 SWAP5 MUL PUSH2 0xFF00 NOT AND SWAP4 SWAP1 SWAP4 OR SWAP3 ISZERO ISZERO SWAP1 SWAP4 MUL SWAP2 SWAP1 SWAP2 OR PUSH1 0xFF NOT AND SWAP2 ISZERO ISZERO SWAP2 SWAP1 SWAP2 OR SWAP1 SSTORE PUSH1 0x20 DUP4 ADD MLOAD PUSH1 0x0 SUB PUSH3 0x1A2 JUMPI PUSH1 0x40 DUP4 ADD MLOAD PUSH1 0x8 SSTORE PUSH3 0x1AB JUMP JUMPDEST PUSH1 0x20 DUP4 ADD MLOAD PUSH1 0x8 SSTORE JUMPDEST PUSH1 0x7 DUP1 SLOAD PUSH1 0x1 PUSH1 0x30 SHL PUSH1 0x1 PUSH1 0xD8 SHL SUB NOT AND CALLER PUSH8 0x100000000000000 MUL PUSH1 0xFF PUSH1 0x30 SHL NOT AND OR PUSH7 0x1000000000000 PUSH1 0xFF DUP5 AND MUL OR SWAP1 SSTORE PUSH3 0x1EA DUP3 PUSH3 0x243 JUMP JUMPDEST POP POP POP PUSH3 0x72C JUMP JUMPDEST PUSH1 0x0 DUP1 SLOAD PUSH1 0x1 PUSH1 0x1 PUSH1 0xA0 SHL SUB DUP4 DUP2 AND PUSH1 0x1 PUSH1 0x1 PUSH1 0xA0 SHL SUB NOT DUP4 AND DUP2 OR DUP5 SSTORE PUSH1 0x40 MLOAD SWAP2 SWAP1 SWAP3 AND SWAP3 DUP4 SWAP2 PUSH32 0x8BE0079C531659141344CD1FD0A4F28419497F9722A3DAAFE3B4186F6B6457E0 SWAP2 SWAP1 LOG3 POP POP JUMP JUMPDEST PUSH3 0x24D PUSH3 0x2C6 JUMP JUMPDEST PUSH1 0x1 PUSH1 0x1 PUSH1 0xA0 SHL SUB DUP2 AND PUSH3 0x2B8 JUMPI PUSH1 0x40 MLOAD PUSH3 0x461BCD PUSH1 0xE5 SHL DUP2 MSTORE PUSH1 0x20 PUSH1 0x4 DUP3 ADD MSTORE PUSH1 0x26 PUSH1 0x24 DUP3 ADD MSTORE PUSH32 0x4F776E61626C653A206E6577206F776E657220697320746865207A65726F2061 PUSH1 0x44 DUP3 ADD MSTORE PUSH6 0x646472657373 PUSH1 0xD0 SHL PUSH1 0x64 DUP3 ADD MSTORE PUSH1 0x84 ADD JUMPDEST PUSH1 0x40 MLOAD DUP1 SWAP2 SUB SWAP1 REVERT JUMPDEST PUSH3 0x2C3 DUP2 PUSH3 0x1F3 JUMP JUMPDEST POP JUMP JUMPDEST PUSH1 0x0 SLOAD PUSH1 0x1 PUSH1 0x1 PUSH1 0xA0 SHL SUB AND CALLER EQ PUSH3 0x322 JUMPI PUSH1 0x40 MLOAD PUSH3 0x461BCD PUSH1 0xE5 SHL DUP2 MSTORE PUSH1 0x20 PUSH1 0x4 DUP3 ADD DUP2 SWAP1 MSTORE PUSH1 0x24 DUP3 ADD MSTORE PUSH32 0x4F776E61626C653A2063616C6C6572206973206E6F7420746865206F776E6572 PUSH1 0x44 DUP3 ADD MSTORE PUSH1 0x64 ADD PUSH3 0x2AF JUMP JUMPDEST JUMP JUMPDEST PUSH4 0x4E487B71 PUSH1 0xE0 SHL PUSH1 0x0 MSTORE PUSH1 0x41 PUSH1 0x4 MSTORE PUSH1 0x24 PUSH1 0x0 REVERT JUMPDEST PUSH1 0x40 MLOAD PUSH2 0x1A0 DUP2 ADD PUSH1 0x1 PUSH1 0x1 PUSH1 0x40 SHL SUB DUP2 GT DUP3 DUP3 LT OR ISZERO PUSH3 0x360 JUMPI PUSH3 0x360 PUSH3 0x324 JUMP JUMPDEST PUSH1 0x40 MSTORE SWAP1 JUMP JUMPDEST PUSH1 0x40 MLOAD PUSH1 0x1F DUP3 ADD PUSH1 0x1F NOT AND DUP2 ADD PUSH1 0x1 PUSH1 0x1 PUSH1 0x40 SHL SUB DUP2 GT DUP3 DUP3 LT OR ISZERO PUSH3 0x391 JUMPI PUSH3 0x391 PUSH3 0x324 JUMP JUMPDEST PUSH1 0x40 MSTORE SWAP2 SWAP1 POP JUMP JUMPDEST DUP1 MLOAD PUSH4 0xFFFFFFFF DUP2 AND DUP2 EQ PUSH3 0x3AE JUMPI PUSH1 0x0 DUP1 REVERT JUMPDEST SWAP2 SWAP1 POP JUMP JUMPDEST PUSH1 0x0 DUP3 PUSH1 0x1F DUP4 ADD SLT PUSH3 0x3C5 JUMPI PUSH1 0x0 DUP1 REVERT JUMPDEST DUP2 MLOAD PUSH1 0x1 PUSH1 0x1 PUSH1 0x40 SHL SUB DUP2 GT ISZERO PUSH3 0x3E1 JUMPI PUSH3 0x3E1 PUSH3 0x324 JUMP JUMPDEST PUSH1 0x20 PUSH3 0x3F7 PUSH1 0x1F DUP4 ADD PUSH1 0x1F NOT AND DUP3 ADD PUSH3 0x366 JUMP JUMPDEST DUP3 DUP2 MSTORE DUP6 DUP3 DUP5 DUP8 ADD ADD GT ISZERO PUSH3 0x40C JUMPI PUSH1 0x0 DUP1 REVERT JUMPDEST PUSH1 0x0 JUMPDEST DUP4 DUP2 LT ISZERO PUSH3 0x42C JUMPI DUP6 DUP2 ADD DUP4 ADD MLOAD DUP3 DUP3 ADD DUP5 ADD MSTORE DUP3 ADD PUSH3 0x40F JUMP JUMPDEST POP PUSH1 0x0 SWAP3 DUP2 ADD SWAP1 SWAP2 ADD SWAP2 SWAP1 SWAP2 MSTORE SWAP4 SWAP3 POP POP POP JUMP JUMPDEST DUP1 MLOAD DUP1 ISZERO ISZERO DUP2 EQ PUSH3 0x3AE JUMPI PUSH1 0x0 DUP1 REVERT JUMPDEST DUP1 MLOAD PUSH1 0x1 PUSH1 0x1 PUSH1 0xA0 SHL SUB DUP2 AND DUP2 EQ PUSH3 0x3AE JUMPI PUSH1 0x0 DUP1 REVERT JUMPDEST DUP1 MLOAD PUSH1 0xFF DUP2 AND DUP2 EQ PUSH3 0x3AE JUMPI PUSH1 0x0 DUP1 REVERT JUMPDEST PUSH1 0x0 DUP1 PUSH1 0x0 PUSH1 0x60 DUP5 DUP7 SUB SLT ISZERO PUSH3 0x491 JUMPI PUSH1 0x0 DUP1 REVERT JUMPDEST DUP4 MLOAD PUSH1 0x1 PUSH1 0x1 PUSH1 0x40 SHL SUB DUP1 DUP3 GT ISZERO PUSH3 0x4A9 JUMPI PUSH1 0x0 DUP1 REVERT JUMPDEST SWAP1 DUP6 ADD SWAP1 PUSH2 0x1A0 DUP3 DUP9 SUB SLT ISZERO PUSH3 0x4BF JUMPI PUSH1 0x0 DUP1 REVERT JUMPDEST PUSH3 0x4C9 PUSH3 0x33A JUMP JUMPDEST PUSH3 0x4D4 DUP4 PUSH3 0x399 JUMP JUMPDEST DUP2 MSTORE PUSH1 0x20 DUP4 ADD MLOAD PUSH1 0x20 DUP3 ADD MSTORE PUSH1 0x40 DUP4 ADD MLOAD PUSH1 0x40 DUP3 ADD MSTORE PUSH1 0x60 DUP4 ADD MLOAD PUSH1 0x60 DUP3 ADD MSTORE PUSH1 0x80 DUP4 ADD MLOAD PUSH1 0x80 DUP3 ADD MSTORE PUSH1 0xA0 DUP4 ADD MLOAD PUSH1 0xA0 DUP3 ADD MSTORE PUSH1 0xC0 DUP4 ADD MLOAD DUP3 DUP2 GT ISZERO PUSH3 0x51B JUMPI PUSH1 0x0 DUP1 REVERT JUMPDEST PUSH3 0x529 DUP10 DUP3 DUP7 ADD PUSH3 0x3B3 JUMP JUMPDEST PUSH1 0xC0 DUP4 ADD MSTORE POP PUSH1 0xE0 DUP4 DUP2 ADD MLOAD SWAP1 DUP3 ADD MSTORE PUSH2 0x100 DUP1 DUP5 ADD MLOAD SWAP1 DUP3 ADD MSTORE PUSH2 0x120 DUP1 DUP5 ADD MLOAD SWAP1 DUP3 ADD MSTORE PUSH2 0x140 DUP1 DUP5 ADD MLOAD DUP4 DUP2 GT ISZERO PUSH3 0x564 JUMPI PUSH1 0x0 DUP1 REVERT JUMPDEST PUSH3 0x572 DUP11 DUP3 DUP8 ADD PUSH3 0x3B3 JUMP JUMPDEST DUP3 DUP5 ADD MSTORE POP POP PUSH2 0x160 SWAP2 POP PUSH3 0x58A DUP3 DUP5 ADD PUSH3 0x440 JUMP JUMPDEST DUP3 DUP3 ADD MSTORE PUSH2 0x180 SWAP2 POP PUSH3 0x5A0 DUP3 DUP5 ADD PUSH3 0x440 JUMP JUMPDEST DUP3 DUP3 ADD MSTORE DUP1 SWAP6 POP POP POP POP PUSH3 0x5B8 PUSH1 0x20 DUP6 ADD PUSH3 0x451 JUMP JUMPDEST SWAP2 POP PUSH3 0x5C8 PUSH1 0x40 DUP6 ADD PUSH3 0x469 JUMP JUMPDEST SWAP1 POP SWAP3 POP SWAP3 POP SWAP3 JUMP JUMPDEST PUSH1 0x1 DUP2 DUP2 SHR SWAP1 DUP3 AND DUP1 PUSH3 0x5E6 JUMPI PUSH1 0x7F DUP3 AND SWAP2 POP JUMPDEST PUSH1 0x20 DUP3 LT DUP2 SUB PUSH3 0x607 JUMPI PUSH4 0x4E487B71 PUSH1 0xE0 SHL PUSH1 0x0 MSTORE PUSH1 0x22 PUSH1 0x4 MSTORE PUSH1 0x24 PUSH1 0x0 REVERT JUMPDEST POP SWAP2 SWAP1 POP JUMP JUMPDEST PUSH1 0x1F DUP3 GT ISZERO PUSH3 0x65B JUMPI PUSH1 0x0 DUP2 DUP2 MSTORE PUSH1 0x20 DUP2 KECCAK256 PUSH1 0x1F DUP6 ADD PUSH1 0x5 SHR DUP2 ADD PUSH1 0x20 DUP7 LT ISZERO PUSH3 0x636 JUMPI POP DUP1 JUMPDEST PUSH1 0x1F DUP6 ADD PUSH1 0x5 SHR DUP3 ADD SWAP2 POP JUMPDEST DUP2 DUP2 LT ISZERO PUSH3 0x657 JUMPI DUP3 DUP2 SSTORE PUSH1 0x1 ADD PUSH3 0x642 JUMP JUMPDEST POP POP POP JUMPDEST POP POP POP JUMP JUMPDEST DUP2 MLOAD PUSH1 0x1 PUSH1 0x1 PUSH1 0x40 SHL SUB DUP2 GT ISZERO PUSH3 0x67C JUMPI PUSH3 0x67C PUSH3 0x324 JUMP JUMPDEST PUSH3 0x694 DUP2 PUSH3 0x68D DUP5 SLOAD PUSH3 0x5D1 JUMP JUMPDEST DUP5 PUSH3 0x60D JUMP JUMPDEST PUSH1 0x20 DUP1 PUSH1 0x1F DUP4 GT PUSH1 0x1 DUP2 EQ PUSH3 0x6CC JUMPI PUSH1 0x0 DUP5 ISZERO PUSH3 0x6B3 JUMPI POP DUP6 DUP4 ADD MLOAD JUMPDEST PUSH1 0x0 NOT PUSH1 0x3 DUP7 SWAP1 SHL SHR NOT AND PUSH1 0x1 DUP6 SWAP1 SHL OR DUP6 SSTORE PUSH3 0x657 JUMP JUMPDEST PUSH1 0x0 DUP6 DUP2 MSTORE PUSH1 0x20 DUP2 KECCAK256 PUSH1 0x1F NOT DUP7 AND SWAP2 JUMPDEST DUP3 DUP2 LT ISZERO PUSH3 0x6FD JUMPI DUP9 DUP7 ADD MLOAD DUP3 SSTORE SWAP5 DUP5 ADD SWAP5 PUSH1 0x1 SWAP1 SWAP2 ADD SWAP1 DUP5 ADD PUSH3 0x6DC JUMP JUMPDEST POP DUP6 DUP3 LT ISZERO PUSH3 0x71C JUMPI DUP8 DUP6 ADD MLOAD PUSH1 0x0 NOT PUSH1 0x3 DUP9 SWAP1 SHL PUSH1 0xF8 AND SHR NOT AND DUP2 SSTORE JUMPDEST POP POP POP POP POP PUSH1 0x1 SWAP1 DUP2 SHL ADD SWAP1 SSTORE POP JUMP JUMPDEST PUSH2 0x2734 DUP1 PUSH3 0x73C PUSH1 0x0 CODECOPY PUSH1 0x0 RETURN INVALID PUSH1 0x80 PUSH1 0x40 MSTORE PUSH1 0x4 CALLDATASIZE LT PUSH2 0x2BA JUMPI PUSH1 0x0 CALLDATALOAD PUSH1 0xE0 SHR DUP1 PUSH4 0x7284E416 GT PUSH2 0x16E JUMPI DUP1 PUSH4 0xC6A7CBC9 GT PUSH2 0xCB JUMPI DUP1 PUSH4 0xEFBE1C1C GT PUSH2 0x7F JUMPI DUP1 PUSH4 0xF34094A7 GT PUSH2 0x64 JUMPI DUP1 PUSH4 0xF34094A7 EQ PUSH2 0x774 JUMPI DUP1 PUSH4 0xF3CCAAC0 EQ PUSH2 0x77C JUMPI DUP1 PUSH4 0xFE1E2F51 EQ PUSH2 0x792 JUMPI PUSH1 0x0 DUP1 REVERT JUMPDEST DUP1 PUSH4 0xEFBE1C1C EQ PUSH2 0x73E JUMPI DUP1 PUSH4 0xF2FDE38B EQ PUSH2 0x754 JUMPI PUSH1 0x0 DUP1 REVERT JUMPDEST DUP1 PUSH4 0xC87B56DD GT PUSH2 0xB0 JUMPI DUP1 PUSH4 0xC87B56DD EQ PUSH2 0x6DE JUMPI DUP1 PUSH4 0xD9A59E33 EQ PUSH2 0x6FE JUMPI DUP1 PUSH4 0xEAD12111 EQ PUSH2 0x71E JUMPI PUSH1 0x0 DUP1 REVERT JUMPDEST DUP1 PUSH4 0xC6A7CBC9 EQ PUSH2 0x6A4 JUMPI DUP1 PUSH4 0xC7CAC600 EQ PUSH2 0x6C4 JUMPI PUSH1 0x0 DUP1 REVERT JUMPDEST DUP1 PUSH4 0x8DA5CB5B GT PUSH2 0x122 JUMPI DUP1 PUSH4 0xBE9A6555 GT PUSH2 0x107 JUMPI DUP1 PUSH4 0xBE9A6555 EQ PUSH2 0x665 JUMPI DUP1 PUSH4 0xC025E686 EQ PUSH2 0x67B JUMPI DUP1 PUSH4 0xC4625BA3 EQ PUSH2 0x68E JUMPI PUSH1 0x0 DUP1 REVERT JUMPDEST DUP1 PUSH4 0x8DA5CB5B EQ PUSH2 0x632 JUMPI DUP1 PUSH4 0x95D89B41 EQ PUSH2 0x650 JUMPI PUSH1 0x0 DUP1 REVERT JUMPDEST DUP1 PUSH4 0x7DE33AEC GT PUSH2 0x153 JUMPI DUP1 PUSH4 0x7DE33AEC EQ PUSH2 0x5DB JUMPI DUP1 PUSH4 0x8121E42D EQ PUSH2 0x5F1 JUMPI DUP1 PUSH4 0x8818ED38 EQ PUSH2 0x607 JUMPI PUSH1 0x0 DUP1 REVERT JUMPDEST DUP1 PUSH4 0x7284E416 EQ PUSH2 0x5A7 JUMPI DUP1 PUSH4 0x736F88CD EQ PUSH2 0x5BC JUMPI PUSH1 0x0 DUP1 REVERT JUMPDEST DUP1 PUSH4 0x1D645B12 GT PUSH2 0x21C JUMPI DUP1 PUSH4 0x516F279E GT PUSH2 0x1D0 JUMPI DUP1 PUSH4 0x666F77B6 GT PUSH2 0x1B5 JUMPI DUP1 PUSH4 0x666F77B6 EQ PUSH2 0x552 JUMPI DUP1 PUSH4 0x70A08231 EQ PUSH2 0x572 JUMPI DUP1 PUSH4 0x715018A6 EQ PUSH2 0x592 JUMPI PUSH1 0x0 DUP1 REVERT JUMPDEST DUP1 PUSH4 0x516F279E EQ PUSH2 0x504 JUMPI DUP1 PUSH4 0x6352211E EQ PUSH2 0x51A JUMPI PUSH1 0x0 DUP1 REVERT JUMPDEST DUP1 PUSH4 0x336DF106 GT PUSH2 0x201 JUMPI DUP1 PUSH4 0x336DF106 EQ PUSH2 0x4B7 JUMPI DUP1 PUSH4 0x386BFC98 EQ PUSH2 0x4D9 JUMPI DUP1 PUSH4 0x3CCFD60B EQ PUSH2 0x4EF JUMPI PUSH1 0x0 DUP1 REVERT JUMPDEST DUP1 PUSH4 0x1D645B12 EQ PUSH2 0x452 JUMPI DUP1 PUSH4 0x24924BF7 EQ PUSH2 0x47F JUMPI PUSH1 0x0 DUP1 REVERT JUMPDEST DUP1 PUSH4 0x13446A75 GT PUSH2 0x273 JUMPI DUP1 PUSH4 0x158C6134 GT PUSH2 0x258 JUMPI DUP1 PUSH4 0x158C6134 EQ PUSH2 0x3E6 JUMPI DUP1 PUSH4 0x18160DDD EQ PUSH2 0x41F JUMPI DUP1 PUSH4 0x1C4695F4 EQ PUSH2 0x43C JUMPI PUSH1 0x0 DUP1 REVERT JUMPDEST DUP1 PUSH4 0x13446A75 EQ PUSH2 0x3A0 JUMPI DUP1 PUSH4 0x14D0F1BA EQ PUSH2 0x3B6 JUMPI PUSH1 0x0 DUP1 REVERT JUMPDEST DUP1 PUSH4 0x6FDDE03 GT PUSH2 0x2A4 JUMPI DUP1 PUSH4 0x6FDDE03 EQ PUSH2 0x32A JUMPI DUP1 PUSH4 0x9E69EDE EQ PUSH2 0x34C JUMPI DUP1 PUSH4 0x1209B1F6 EQ PUSH2 0x37C JUMPI PUSH1 0x0 DUP1 REVERT JUMPDEST DUP1 PUSH3 0xF4494F EQ PUSH2 0x2BF JUMPI DUP1 PUSH4 0x1FFC9A7 EQ PUSH2 0x2FA JUMPI JUMPDEST PUSH1 0x0 DUP1 REVERT JUMPDEST CALLVALUE DUP1 ISZERO PUSH2 0x2CB JUMPI PUSH1 0x0 DUP1 REVERT JUMPDEST POP PUSH1 0x7 SLOAD PUSH2 0x2E3 SWAP1 PUSH7 0x1000000000000 SWAP1 DIV PUSH1 0xFF AND DUP2 JUMP JUMPDEST PUSH1 0x40 MLOAD PUSH1 0xFF SWAP1 SWAP2 AND DUP2 MSTORE PUSH1 0x20 ADD JUMPDEST PUSH1 0x40 MLOAD DUP1 SWAP2 SUB SWAP1 RETURN JUMPDEST CALLVALUE DUP1 ISZERO PUSH2 0x306 JUMPI PUSH1 0x0 DUP1 REVERT JUMPDEST POP PUSH2 0x31A PUSH2 0x315 CALLDATASIZE PUSH1 0x4 PUSH2 0x1ED8 JUMP JUMPDEST PUSH2 0x7C2 JUMP JUMPDEST PUSH1 0x40 MLOAD SWAP1 ISZERO ISZERO DUP2 MSTORE PUSH1 0x20 ADD PUSH2 0x2F1 JUMP JUMPDEST CALLVALUE DUP1 ISZERO PUSH2 0x336 JUMPI PUSH1 0x0 DUP1 REVERT JUMPDEST POP PUSH2 0x33F PUSH2 0x85F JUMP JUMPDEST PUSH1 0x40 MLOAD PUSH2 0x2F1 SWAP2 SWAP1 PUSH2 0x1F45 JUMP JUMPDEST CALLVALUE DUP1 ISZERO PUSH2 0x358 JUMPI PUSH1 0x0 DUP1 REVERT JUMPDEST POP PUSH2 0x31A PUSH2 0x367 CALLDATASIZE PUSH1 0x4 PUSH2 0x1F74 JUMP JUMPDEST PUSH1 0x14 PUSH1 0x20 MSTORE PUSH1 0x0 SWAP1 DUP2 MSTORE PUSH1 0x40 SWAP1 KECCAK256 SLOAD PUSH1 0xFF AND DUP2 JUMP JUMPDEST CALLVALUE DUP1 ISZERO PUSH2 0x388 JUMPI PUSH1 0x0 DUP1 REVERT JUMPDEST POP PUSH2 0x392 PUSH1 0xD SLOAD DUP2 JUMP JUMPDEST PUSH1 0x40 MLOAD SWAP1 DUP2 MSTORE PUSH1 0x20 ADD PUSH2 0x2F1 JUMP JUMPDEST CALLVALUE DUP1 ISZERO PUSH2 0x3AC JUMPI PUSH1 0x0 DUP1 REVERT JUMPDEST POP PUSH2 0x392 PUSH1 0x8 SLOAD DUP2 JUMP JUMPDEST CALLVALUE DUP1 ISZERO PUSH2 0x3C2 JUMPI PUSH1 0x0 DUP1 REVERT JUMPDEST POP PUSH2 0x31A PUSH2 0x3D1 CALLDATASIZE PUSH1 0x4 PUSH2 0x1F74 JUMP JUMPDEST PUSH1 0x16 PUSH1 0x20 MSTORE PUSH1 0x0 SWAP1 DUP2 MSTORE PUSH1 0x40 SWAP1 KECCAK256 SLOAD PUSH1 0xFF AND DUP2 JUMP JUMPDEST CALLVALUE DUP1 ISZERO PUSH2 0x3F2 JUMPI PUSH1 0x0 DUP1 REVERT JUMPDEST POP PUSH2 0x31A PUSH2 0x401 CALLDATASIZE PUSH1 0x4 PUSH2 0x1F74 JUMP JUMPDEST PUSH1 0x1 PUSH1 0x1 PUSH1 0xA0 SHL SUB AND PUSH1 0x0 SWAP1 DUP2 MSTORE PUSH1 0x14 PUSH1 0x20 MSTORE PUSH1 0x40 SWAP1 KECCAK256 SLOAD PUSH1 0xFF AND SWAP1 JUMP JUMPDEST CALLVALUE DUP1 ISZERO PUSH2 0x42B JUMPI PUSH1 0x0 DUP1 REVERT JUMPDEST POP PUSH1 0x2 SLOAD PUSH1 0x1 SLOAD SUB PUSH1 0x0 NOT ADD PUSH2 0x392 JUMP JUMPDEST CALLVALUE DUP1 ISZERO PUSH2 0x448 JUMPI PUSH1 0x0 DUP1 REVERT JUMPDEST POP PUSH2 0x392 PUSH1 0x11 SLOAD DUP2 JUMP JUMPDEST CALLVALUE DUP1 ISZERO PUSH2 0x45E JUMPI PUSH1 0x0 DUP1 REVERT JUMPDEST POP PUSH2 0x472 PUSH2 0x46D CALLDATASIZE PUSH1 0x4 PUSH2 0x1F8F JUMP JUMPDEST PUSH2 0x8F1 JUMP JUMPDEST PUSH1 0x40 MLOAD PUSH2 0x2F1 SWAP2 SWAP1 PUSH2 0x1FA8 JUMP JUMPDEST CALLVALUE DUP1 ISZERO PUSH2 0x48B JUMPI PUSH1 0x0 DUP1 REVERT JUMPDEST POP PUSH1 0x7 SLOAD PUSH2 0x4A2 SWAP1 PUSH3 0x10000 SWAP1 DIV PUSH4 0xFFFFFFFF AND DUP2 JUMP JUMPDEST PUSH1 0x40 MLOAD PUSH4 0xFFFFFFFF SWAP1 SWAP2 AND DUP2 MSTORE PUSH1 0x20 ADD PUSH2 0x2F1 JUMP JUMPDEST CALLVALUE DUP1 ISZERO PUSH2 0x4C3 JUMPI PUSH1 0x0 DUP1 REVERT JUMPDEST POP PUSH2 0x4D7 PUSH2 0x4D2 CALLDATASIZE PUSH1 0x4 PUSH2 0x20FF JUMP JUMPDEST PUSH2 0xB8B JUMP JUMPDEST STOP JUMPDEST CALLVALUE DUP1 ISZERO PUSH2 0x4E5 JUMPI PUSH1 0x0 DUP1 REVERT JUMPDEST POP PUSH2 0x392 PUSH1 0xF SLOAD DUP2 JUMP JUMPDEST CALLVALUE DUP1 ISZERO PUSH2 0x4FB JUMPI PUSH1 0x0 DUP1 REVERT JUMPDEST POP PUSH2 0x4D7 PUSH2 0xBBE JUMP JUMPDEST CALLVALUE DUP1 ISZERO PUSH2 0x510 JUMPI PUSH1 0x0 DUP1 REVERT JUMPDEST POP PUSH2 0x392 PUSH1 0x13 SLOAD DUP2 JUMP JUMPDEST CALLVALUE DUP1 ISZERO PUSH2 0x526 JUMPI PUSH1 0x0 DUP1 REVERT JUMPDEST POP PUSH2 0x53A PUSH2 0x535 CALLDATASIZE PUSH1 0x4 PUSH2 0x1F8F JUMP JUMPDEST PUSH2 0xD52 JUMP JUMPDEST PUSH1 0x40 MLOAD PUSH1 0x1 PUSH1 0x1 PUSH1 0xA0 SHL SUB SWAP1 SWAP2 AND DUP2 MSTORE PUSH1 0x20 ADD PUSH2 0x2F1 JUMP JUMPDEST CALLVALUE DUP1 ISZERO PUSH2 0x55E JUMPI PUSH1 0x0 DUP1 REVERT JUMPDEST POP PUSH2 0x4D7 PUSH2 0x56D CALLDATASIZE PUSH1 0x4 PUSH2 0x2235 JUMP JUMPDEST PUSH2 0xD5D JUMP JUMPDEST CALLVALUE DUP1 ISZERO PUSH2 0x57E JUMPI PUSH1 0x0 DUP1 REVERT JUMPDEST POP PUSH2 0x392 PUSH2 0x58D CALLDATASIZE PUSH1 0x4 PUSH2 0x1F74 JUMP JUMPDEST PUSH2 0xE91 JUMP JUMPDEST CALLVALUE DUP1 ISZERO PUSH2 0x59E JUMPI PUSH1 0x0 DUP1 REVERT JUMPDEST POP PUSH2 0x4D7 PUSH2 0xEF9 JUMP JUMPDEST CALLVALUE DUP1 ISZERO PUSH2 0x5B3 JUMPI PUSH1 0x0 DUP1 REVERT JUMPDEST POP PUSH2 0x33F PUSH2 0xF0D JUMP JUMPDEST CALLVALUE DUP1 ISZERO PUSH2 0x5C8 JUMPI PUSH1 0x0 DUP1 REVERT JUMPDEST POP PUSH1 0x7 SLOAD PUSH2 0x31A SWAP1 PUSH2 0x100 SWAP1 DIV PUSH1 0xFF AND DUP2 JUMP JUMPDEST CALLVALUE DUP1 ISZERO PUSH2 0x5E7 JUMPI PUSH1 0x0 DUP1 REVERT JUMPDEST POP PUSH2 0x392 PUSH1 0xC SLOAD DUP2 JUMP JUMPDEST CALLVALUE DUP1 ISZERO PUSH2 0x5FD JUMPI PUSH1 0x0 DUP1 REVERT JUMPDEST POP PUSH2 0x392 PUSH1 0xE SLOAD DUP2 JUMP JUMPDEST CALLVALUE DUP1 ISZERO PUSH2 0x613 JUMPI PUSH1 0x0 DUP1 REVERT JUMPDEST POP PUSH1 0x7 SLOAD PUSH2 0x53A SWAP1 PUSH8 0x100000000000000 SWAP1 DIV PUSH1 0x1 PUSH1 0x1 PUSH1 0xA0 SHL SUB AND DUP2 JUMP JUMPDEST CALLVALUE DUP1 ISZERO PUSH2 0x63E JUMPI PUSH1 0x0 DUP1 REVERT JUMPDEST POP PUSH1 0x0 SLOAD PUSH1 0x1 PUSH1 0x1 PUSH1 0xA0 SHL SUB AND PUSH2 0x53A JUMP JUMPDEST CALLVALUE DUP1 ISZERO PUSH2 0x65C JUMPI PUSH1 0x0 DUP1 REVERT JUMPDEST POP PUSH2 0x33F PUSH2 0xF9B JUMP JUMPDEST CALLVALUE DUP1 ISZERO PUSH2 0x671 JUMPI PUSH1 0x0 DUP1 REVERT JUMPDEST POP PUSH2 0x392 PUSH1 0x9 SLOAD DUP2 JUMP JUMPDEST PUSH2 0x4D7 PUSH2 0x689 CALLDATASIZE PUSH1 0x4 PUSH2 0x2325 JUMP JUMPDEST PUSH2 0xFAA JUMP JUMPDEST CALLVALUE DUP1 ISZERO PUSH2 0x69A JUMPI PUSH1 0x0 DUP1 REVERT JUMPDEST POP PUSH2 0x392 PUSH1 0xB SLOAD DUP2 JUMP JUMPDEST CALLVALUE DUP1 ISZERO PUSH2 0x6B0 JUMPI PUSH1 0x0 DUP1 REVERT JUMPDEST POP PUSH2 0x4D7 PUSH2 0x6BF CALLDATASIZE PUSH1 0x4 PUSH2 0x1F8F JUMP JUMPDEST PUSH2 0x1115 JUMP JUMPDEST CALLVALUE DUP1 ISZERO PUSH2 0x6D0 JUMPI PUSH1 0x0 DUP1 REVERT JUMPDEST POP PUSH1 0x7 SLOAD PUSH2 0x31A SWAP1 PUSH1 0xFF AND DUP2 JUMP JUMPDEST CALLVALUE DUP1 ISZERO PUSH2 0x6EA JUMPI PUSH1 0x0 DUP1 REVERT JUMPDEST POP PUSH2 0x33F PUSH2 0x6F9 CALLDATASIZE PUSH1 0x4 PUSH2 0x1F8F JUMP JUMPDEST PUSH2 0x1122 JUMP JUMPDEST CALLVALUE DUP1 ISZERO PUSH2 0x70A JUMPI PUSH1 0x0 DUP1 REVERT JUMPDEST POP PUSH2 0x4D7 PUSH2 0x719 CALLDATASIZE PUSH1 0x4 PUSH2 0x1F74 JUMP JUMPDEST PUSH2 0x122B JUMP JUMPDEST CALLVALUE DUP1 ISZERO PUSH2 0x72A JUMPI PUSH1 0x0 DUP1 REVERT JUMPDEST POP PUSH2 0x2E3 PUSH2 0x739 CALLDATASIZE PUSH1 0x4 PUSH2 0x1F8F JUMP JUMPDEST PUSH2 0x13FA JUMP JUMPDEST CALLVALUE DUP1 ISZERO PUSH2 0x74A JUMPI PUSH1 0x0 DUP1 REVERT JUMPDEST POP PUSH2 0x392 PUSH1 0xA SLOAD DUP2 JUMP JUMPDEST CALLVALUE DUP1 ISZERO PUSH2 0x760 JUMPI PUSH1 0x0 DUP1 REVERT JUMPDEST POP PUSH2 0x4D7 PUSH2 0x76F CALLDATASIZE PUSH1 0x4 PUSH2 0x1F74 JUMP JUMPDEST PUSH2 0x1495 JUMP JUMPDEST PUSH2 0x4D7 PUSH2 0x152A JUMP JUMPDEST CALLVALUE DUP1 ISZERO PUSH2 0x788 JUMPI PUSH1 0x0 DUP1 REVERT JUMPDEST POP PUSH2 0x392 PUSH1 0x12 SLOAD DUP2 JUMP JUMPDEST CALLVALUE DUP1 ISZERO PUSH2 0x79E JUMPI PUSH1 0x0 DUP1 REVERT JUMPDEST POP PUSH2 0x31A PUSH2 0x7AD CALLDATASIZE PUSH1 0x4 PUSH2 0x1F74 JUMP JUMPDEST PUSH1 0x15 PUSH1 0x20 MSTORE PUSH1 0x0 SWAP1 DUP2 MSTORE PUSH1 0x40 SWAP1 KECCAK256 SLOAD PUSH1 0xFF AND DUP2 JUMP JUMPDEST PUSH1 0x0 PUSH32 0x1FFC9A700000000000000000000000000000000000000000000000000000000 PUSH1 0x1 PUSH1 0x1 PUSH1 0xE0 SHL SUB NOT DUP4 AND EQ DUP1 PUSH2 0x825 JUMPI POP PUSH32 0x80AC58CD00000000000000000000000000000000000000000000000000000000 PUSH1 0x1 PUSH1 0x1 PUSH1 0xE0 SHL SUB NOT DUP4 AND EQ JUMPDEST DUP1 PUSH2 0x859 JUMPI POP PUSH32 0x5B5E139F00000000000000000000000000000000000000000000000000000000 PUSH1 0x1 PUSH1 0x1 PUSH1 0xE0 SHL SUB NOT DUP4 AND EQ JUMPDEST SWAP3 SWAP2 POP POP JUMP JUMPDEST PUSH1 0x60 PUSH1 0x3 DUP1 SLOAD PUSH2 0x86E SWAP1 PUSH2 0x239A JUMP JUMPDEST DUP1 PUSH1 0x1F ADD PUSH1 0x20 DUP1 SWAP2 DIV MUL PUSH1 0x20 ADD PUSH1 0x40 MLOAD SWAP1 DUP2 ADD PUSH1 0x40 MSTORE DUP1 SWAP3 SWAP2 SWAP1 DUP2 DUP2 MSTORE PUSH1 0x20 ADD DUP3 DUP1 SLOAD PUSH2 0x89A SWAP1 PUSH2 0x239A JUMP JUMPDEST DUP1 ISZERO PUSH2 0x8E7 JUMPI DUP1 PUSH1 0x1F LT PUSH2 0x8BC JUMPI PUSH2 0x100 DUP1 DUP4 SLOAD DIV MUL DUP4 MSTORE SWAP2 PUSH1 0x20 ADD SWAP2 PUSH2 0x8E7 JUMP JUMPDEST DUP3 ADD SWAP2 SWAP1 PUSH1 0x0 MSTORE PUSH1 0x20 PUSH1 0x0 KECCAK256 SWAP1 JUMPDEST DUP2 SLOAD DUP2 MSTORE SWAP1 PUSH1 0x1 ADD SWAP1 PUSH1 0x20 ADD DUP1 DUP4 GT PUSH2 0x8CA JUMPI DUP3 SWAP1 SUB PUSH1 0x1F AND DUP3 ADD SWAP2 JUMPDEST POP POP POP POP POP SWAP1 POP SWAP1 JUMP JUMPDEST PUSH1 0x40 DUP1 MLOAD PUSH2 0x260 DUP2 ADD DUP3 MSTORE PUSH1 0x0 DUP1 DUP3 MSTORE PUSH1 0x20 DUP3 ADD DUP2 SWAP1 MSTORE SWAP2 DUP2 ADD DUP3 SWAP1 MSTORE PUSH1 0x60 DUP1 DUP3 ADD DUP4 SWAP1 MSTORE PUSH1 0x80 DUP3 ADD DUP4 SWAP1 MSTORE PUSH1 0xA0 DUP3 ADD DUP4 SWAP1 MSTORE PUSH1 0xC0 DUP3 ADD DUP4 SWAP1 MSTORE PUSH1 0xE0 DUP3 ADD DUP4 SWAP1 MSTORE PUSH2 0x100 DUP3 ADD DUP4 SWAP1 MSTORE PUSH2 0x120 DUP3 ADD DUP4 SWAP1 MSTORE PUSH2 0x140 DUP3 ADD DUP4 SWAP1 MSTORE PUSH2 0x160 DUP3 ADD DUP4 SWAP1 MSTORE PUSH2 0x180 DUP3 ADD DUP4 SWAP1 MSTORE PUSH2 0x1A0 DUP3 ADD DUP4 SWAP1 MSTORE PUSH2 0x1C0 DUP3 ADD DUP2 SWAP1 MSTORE PUSH2 0x1E0 DUP3 ADD MSTORE PUSH2 0x200 DUP2 ADD DUP3 SWAP1 MSTORE PUSH2 0x220 DUP2 ADD DUP3 SWAP1 MSTORE PUSH2 0x240 DUP2 ADD SWAP2 SWAP1 SWAP2 MSTORE PUSH1 0x40 DUP1 MLOAD PUSH2 0x260 DUP2 ADD DUP3 MSTORE PUSH1 0x0 DUP1 DUP3 MSTORE PUSH1 0x20 DUP3 ADD DUP2 SWAP1 MSTORE SWAP2 DUP2 ADD DUP3 SWAP1 MSTORE PUSH1 0x60 DUP1 DUP3 ADD DUP4 SWAP1 MSTORE PUSH1 0x80 DUP3 ADD DUP4 SWAP1 MSTORE PUSH1 0xA0 DUP3 ADD DUP4 SWAP1 MSTORE PUSH1 0xC0 DUP3 ADD DUP4 SWAP1 MSTORE PUSH1 0xE0 DUP3 ADD DUP4 SWAP1 MSTORE PUSH2 0x100 DUP3 ADD DUP4 SWAP1 MSTORE PUSH2 0x120 DUP3 ADD DUP4 SWAP1 MSTORE PUSH2 0x140 DUP3 ADD DUP4 SWAP1 MSTORE PUSH2 0x160 DUP3 ADD DUP4 SWAP1 MSTORE PUSH2 0x180 DUP3 ADD DUP4 SWAP1 MSTORE PUSH2 0x1A0 DUP3 ADD DUP4 SWAP1 MSTORE PUSH2 0x1C0 DUP3 ADD DUP2 SWAP1 MSTORE PUSH2 0x1E0 DUP3 ADD MSTORE PUSH2 0x200 DUP2 ADD DUP3 SWAP1 MSTORE PUSH2 0x220 DUP2 ADD DUP3 SWAP1 MSTORE PUSH2 0x240 DUP2 ADD SWAP2 SWAP1 SWAP2 MSTORE PUSH1 0x9 SLOAD PUSH2 0x100 DUP3 ADD MSTORE PUSH1 0xA SLOAD PUSH2 0x120 DUP3 ADD MSTORE PUSH1 0x8 SLOAD PUSH1 0xE0 DUP3 ADD MSTORE PUSH2 0xA43 PUSH2 0x85F JUMP JUMPDEST PUSH2 0x1E0 DUP3 ADD MSTORE PUSH1 0x10 DUP1 SLOAD PUSH2 0xA56 SWAP1 PUSH2 0x239A JUMP JUMPDEST DUP1 PUSH1 0x1F ADD PUSH1 0x20 DUP1 SWAP2 DIV MUL PUSH1 0x20 ADD PUSH1 0x40 MLOAD SWAP1 DUP2 ADD PUSH1 0x40 MSTORE DUP1 SWAP3 SWAP2 SWAP1 DUP2 DUP2 MSTORE PUSH1 0x20 ADD DUP3 DUP1 SLOAD PUSH2 0xA82 SWAP1 PUSH2 0x239A JUMP JUMPDEST DUP1 ISZERO PUSH2 0xACF JUMPI DUP1 PUSH1 0x1F LT PUSH2 0xAA4 JUMPI PUSH2 0x100 DUP1 DUP4 SLOAD DIV MUL DUP4 MSTORE SWAP2 PUSH1 0x20 ADD SWAP2 PUSH2 0xACF JUMP JUMPDEST DUP3 ADD SWAP2 SWAP1 PUSH1 0x0 MSTORE PUSH1 0x20 PUSH1 0x0 KECCAK256 SWAP1 JUMPDEST DUP2 SLOAD DUP2 MSTORE SWAP1 PUSH1 0x1 ADD SWAP1 PUSH1 0x20 ADD DUP1 DUP4 GT PUSH2 0xAB2 JUMPI DUP3 SWAP1 SUB PUSH1 0x1F AND DUP3 ADD SWAP2 JUMPDEST POP POP POP POP POP PUSH2 0x1C0 DUP3 ADD MSTORE PUSH1 0x7 SLOAD PUSH3 0x10000 SWAP1 DIV PUSH4 0xFFFFFFFF AND PUSH1 0xC0 DUP3 ADD MSTORE PUSH1 0xD SLOAD PUSH2 0x140 DUP3 ADD MSTORE PUSH1 0xE SLOAD PUSH2 0x160 DUP3 ADD MSTORE PUSH1 0x11 SLOAD PUSH2 0x200 DUP3 ADD MSTORE PUSH1 0x12 SLOAD PUSH2 0x220 DUP3 ADD MSTORE PUSH1 0x13 SLOAD PUSH2 0x240 DUP3 ADD MSTORE PUSH1 0x0 SLOAD PUSH1 0x1 PUSH1 0x1 PUSH1 0xA0 SHL SUB AND PUSH1 0x20 DUP3 ADD MSTORE PUSH2 0xB35 DUP4 PUSH2 0x13FA JUMP JUMPDEST PUSH1 0xFF SWAP1 DUP2 AND ISZERO PUSH1 0x40 DUP1 DUP5 ADD SWAP2 SWAP1 SWAP2 MSTORE CALLER PUSH1 0x0 DUP2 DUP2 MSTORE PUSH1 0x14 PUSH1 0x20 SWAP1 DUP2 MSTORE DUP4 DUP3 KECCAK256 SLOAD DUP6 AND ISZERO ISZERO PUSH1 0x80 DUP8 ADD MSTORE SWAP2 DUP2 MSTORE PUSH1 0x15 SWAP1 SWAP2 MSTORE KECCAK256 SLOAD AND ISZERO ISZERO PUSH1 0xA0 DUP3 ADD MSTORE PUSH1 0xB SLOAD PUSH2 0x180 DUP3 ADD MSTORE PUSH1 0xC SLOAD PUSH2 0x1A0 DUP3 ADD MSTORE ADDRESS DUP2 MSTORE SWAP3 SWAP2 POP POP JUMP JUMPDEST PUSH2 0xB93 PUSH2 0x1617 JUMP JUMPDEST PUSH1 0x1 PUSH1 0x1 PUSH1 0xA0 SHL SUB SWAP2 SWAP1 SWAP2 AND PUSH1 0x0 SWAP1 DUP2 MSTORE PUSH1 0x16 PUSH1 0x20 MSTORE PUSH1 0x40 SWAP1 KECCAK256 DUP1 SLOAD PUSH1 0xFF NOT AND SWAP2 ISZERO ISZERO SWAP2 SWAP1 SWAP2 OR SWAP1 SSTORE JUMP JUMPDEST PUSH2 0xBC6 PUSH2 0x1617 JUMP JUMPDEST SELFBALANCE PUSH1 0x0 DUP2 SWAP1 SUB PUSH2 0xBE9 JUMPI PUSH1 0x40 MLOAD PUSH4 0x12171D83 PUSH1 0xE3 SHL DUP2 MSTORE PUSH1 0x4 ADD PUSH1 0x40 MLOAD DUP1 SWAP2 SUB SWAP1 REVERT JUMPDEST PUSH1 0x7 SLOAD PUSH1 0x1 SWAP1 PUSH1 0x0 SWAP1 PUSH2 0xC0A SWAP1 PUSH7 0x1000000000000 SWAP1 DIV PUSH1 0xFF AND PUSH1 0x64 PUSH2 0x23EA JUMP JUMPDEST PUSH1 0x7 SLOAD PUSH1 0xFF SWAP2 DUP3 AND SWAP3 POP PUSH7 0x1000000000000 SWAP1 DIV AND ISZERO PUSH2 0xCC6 JUMPI PUSH1 0x7 SLOAD PUSH8 0x100000000000000 DUP2 DIV PUSH1 0x1 PUSH1 0x1 PUSH1 0xA0 SHL SUB AND SWAP1 PUSH1 0x64 SWAP1 PUSH2 0xC57 SWAP1 DUP7 SWAP1 PUSH7 0x1000000000000 SWAP1 DIV PUSH1 0xFF AND PUSH2 0x2403 JUMP JUMPDEST PUSH2 0xC61 SWAP2 SWAP1 PUSH2 0x241A JUMP JUMPDEST PUSH1 0x40 MLOAD PUSH1 0x0 DUP2 DUP2 DUP2 DUP6 DUP8 GAS CALL SWAP3 POP POP POP RETURNDATASIZE DUP1 PUSH1 0x0 DUP2 EQ PUSH2 0xC9D JUMPI PUSH1 0x40 MLOAD SWAP2 POP PUSH1 0x1F NOT PUSH1 0x3F RETURNDATASIZE ADD AND DUP3 ADD PUSH1 0x40 MSTORE RETURNDATASIZE DUP3 MSTORE RETURNDATASIZE PUSH1 0x0 PUSH1 0x20 DUP5 ADD RETURNDATACOPY PUSH2 0xCA2 JUMP JUMPDEST PUSH1 0x60 SWAP2 POP JUMPDEST POP POP DUP1 SWAP3 POP POP DUP2 PUSH2 0xCC6 JUMPI PUSH1 0x40 MLOAD PUSH4 0x12171D83 PUSH1 0xE3 SHL DUP2 MSTORE PUSH1 0x4 ADD PUSH1 0x40 MLOAD DUP1 SWAP2 SUB SWAP1 REVERT JUMPDEST PUSH1 0x0 SLOAD PUSH1 0x1 PUSH1 0x1 PUSH1 0xA0 SHL SUB AND PUSH1 0x64 PUSH2 0xCDE DUP6 DUP5 PUSH2 0x2403 JUMP JUMPDEST PUSH2 0xCE8 SWAP2 SWAP1 PUSH2 0x241A JUMP JUMPDEST PUSH1 0x40 MLOAD PUSH1 0x0 DUP2 DUP2 DUP2 DUP6 DUP8 GAS CALL SWAP3 POP POP POP RETURNDATASIZE DUP1 PUSH1 0x0 DUP2 EQ PUSH2 0xD24 JUMPI PUSH1 0x40 MLOAD SWAP2 POP PUSH1 0x1F NOT PUSH1 0x3F RETURNDATASIZE ADD AND DUP3 ADD PUSH1 0x40 MSTORE RETURNDATASIZE DUP3 MSTORE RETURNDATASIZE PUSH1 0x0 PUSH1 0x20 DUP5 ADD RETURNDATACOPY PUSH2 0xD29 JUMP JUMPDEST PUSH1 0x60 SWAP2 POP JUMPDEST POP POP DUP1 SWAP3 POP POP DUP2 PUSH2 0xD4D JUMPI PUSH1 0x40 MLOAD PUSH4 0x12171D83 PUSH1 0xE3 SHL DUP2 MSTORE PUSH1 0x4 ADD PUSH1 0x40 MLOAD DUP1 SWAP2 SUB SWAP1 REVERT JUMPDEST POP POP POP JUMP JUMPDEST PUSH1 0x0 PUSH2 0x859 DUP3 PUSH2 0x1671 JUMP JUMPDEST PUSH2 0xD65 PUSH2 0x1617 JUMP JUMPDEST TIMESTAMP DUP2 PUSH1 0x40 ADD MLOAD LT ISZERO PUSH2 0xDA3 JUMPI PUSH1 0x40 MLOAD PUSH32 0x93D9B84F00000000000000000000000000000000000000000000000000000000 DUP2 MSTORE PUSH1 0x4 ADD PUSH1 0x40 MLOAD DUP1 SWAP2 SUB SWAP1 REVERT JUMPDEST PUSH1 0xB SLOAD DUP2 MLOAD PUSH4 0xFFFFFFFF AND LT DUP1 PUSH2 0xDC1 JUMPI POP DUP1 PUSH1 0x60 ADD MLOAD DUP2 PUSH1 0x40 ADD MLOAD GT JUMPDEST ISZERO PUSH2 0xDF8 JUMPI PUSH1 0x40 MLOAD PUSH32 0x41CC6B2100000000000000000000000000000000000000000000000000000000 DUP2 MSTORE PUSH1 0x4 ADD PUSH1 0x40 MLOAD DUP1 SWAP2 SUB SWAP1 REVERT JUMPDEST PUSH1 0xC0 DUP2 ADD MLOAD PUSH1 0x10 SWAP1 PUSH2 0xE0A SWAP1 DUP3 PUSH2 0x248A JUMP JUMPDEST POP PUSH1 0xE0 DUP2 ADD MLOAD PUSH1 0x11 SSTORE PUSH2 0x100 DUP1 DUP3 ADD MLOAD PUSH1 0x13 SSTORE DUP2 MLOAD PUSH1 0x7 DUP1 SLOAD PUSH1 0x80 DUP6 ADD MLOAD PUSH1 0xD SSTORE PUSH1 0xA0 DUP6 ADD MLOAD PUSH1 0xE SSTORE PUSH1 0x40 DUP6 ADD MLOAD PUSH1 0x9 SSTORE PUSH1 0x60 DUP6 ADD MLOAD PUSH1 0xA SSTORE PUSH1 0x20 DUP6 ADD MLOAD PUSH1 0x8 SSTORE PUSH2 0x120 DUP6 ADD MLOAD PUSH2 0x140 SWAP1 SWAP6 ADD MLOAD ISZERO ISZERO PUSH1 0xFF NOT SWAP6 ISZERO ISZERO SWAP1 SWAP5 MUL PUSH2 0xFF00 NOT PUSH4 0xFFFFFFFF SWAP1 SWAP5 AND PUSH3 0x10000 MUL SWAP4 SWAP1 SWAP4 AND PUSH6 0xFFFFFFFFFF00 NOT SWAP1 SWAP2 AND OR SWAP2 SWAP1 SWAP2 OR SWAP3 SWAP1 SWAP3 AND OR SWAP1 SSTORE JUMP JUMPDEST PUSH1 0x0 PUSH1 0x1 PUSH1 0x1 PUSH1 0xA0 SHL SUB DUP3 AND PUSH2 0xED3 JUMPI PUSH1 0x40 MLOAD PUSH32 0x8F4EB60400000000000000000000000000000000000000000000000000000000 DUP2 MSTORE PUSH1 0x4 ADD PUSH1 0x40 MLOAD DUP1 SWAP2 SUB SWAP1 REVERT JUMPDEST POP PUSH1 0x1 PUSH1 0x1 PUSH1 0xA0 SHL SUB AND PUSH1 0x0 SWAP1 DUP2 MSTORE PUSH1 0x6 PUSH1 0x20 MSTORE PUSH1 0x40 SWAP1 KECCAK256 SLOAD PUSH8 0xFFFFFFFFFFFFFFFF AND SWAP1 JUMP JUMPDEST PUSH2 0xF01 PUSH2 0x1617 JUMP JUMPDEST PUSH2 0xF0B PUSH1 0x0 PUSH2 0x1700 JUMP JUMPDEST JUMP JUMPDEST PUSH1 0x10 DUP1 SLOAD PUSH2 0xF1A SWAP1 PUSH2 0x239A JUMP JUMPDEST DUP1 PUSH1 0x1F ADD PUSH1 0x20 DUP1 SWAP2 DIV MUL PUSH1 0x20 ADD PUSH1 0x40 MLOAD SWAP1 DUP2 ADD PUSH1 0x40 MSTORE DUP1 SWAP3 SWAP2 SWAP1 DUP2 DUP2 MSTORE PUSH1 0x20 ADD DUP3 DUP1 SLOAD PUSH2 0xF46 SWAP1 PUSH2 0x239A JUMP JUMPDEST DUP1 ISZERO PUSH2 0xF93 JUMPI DUP1 PUSH1 0x1F LT PUSH2 0xF68 JUMPI PUSH2 0x100 DUP1 DUP4 SLOAD DIV MUL DUP4 MSTORE SWAP2 PUSH1 0x20 ADD SWAP2 PUSH2 0xF93 JUMP JUMPDEST DUP3 ADD SWAP2 SWAP1 PUSH1 0x0 MSTORE PUSH1 0x20 PUSH1 0x0 KECCAK256 SWAP1 JUMPDEST DUP2 SLOAD DUP2 MSTORE SWAP1 PUSH1 0x1 ADD SWAP1 PUSH1 0x20 ADD DUP1 DUP4 GT PUSH2 0xF76 JUMPI DUP3 SWAP1 SUB PUSH1 0x1F AND DUP3 ADD SWAP2 JUMPDEST POP POP POP POP POP DUP2 JUMP JUMPDEST PUSH1 0x60 PUSH1 0x4 DUP1 SLOAD PUSH2 0x86E SWAP1 PUSH2 0x239A JUMP JUMPDEST PUSH1 0x0 PUSH2 0xFB5 TIMESTAMP PUSH2 0x13FA JUMP JUMPDEST SWAP1 POP DUP1 PUSH1 0xFF AND PUSH1 0x1 SUB PUSH2 0xFDB JUMPI PUSH1 0x40 MLOAD PUSH4 0xA8AB2D25 PUSH1 0xE0 SHL DUP2 MSTORE PUSH1 0x4 ADD PUSH1 0x40 MLOAD DUP1 SWAP2 SUB SWAP1 REVERT JUMPDEST DUP1 PUSH1 0xFF AND PUSH1 0x2 SUB PUSH2 0xFFF JUMPI PUSH1 0x40 MLOAD PUSH4 0x2FC209F3 PUSH1 0xE0 SHL DUP2 MSTORE PUSH1 0x4 ADD PUSH1 0x40 MLOAD DUP1 SWAP2 SUB SWAP1 REVERT JUMPDEST DUP1 PUSH1 0xFF AND PUSH1 0x3 SUB PUSH2 0x1023 JUMPI PUSH1 0x40 MLOAD PUSH4 0xEA075BF PUSH1 0xE2 SHL DUP2 MSTORE PUSH1 0x4 ADD PUSH1 0x40 MLOAD DUP1 SWAP2 SUB SWAP1 REVERT JUMPDEST DUP1 PUSH1 0xFF AND PUSH1 0x4 SUB PUSH2 0x1047 JUMPI PUSH1 0x40 MLOAD PUSH4 0x2437FFE9 PUSH1 0xE1 SHL DUP2 MSTORE PUSH1 0x4 ADD PUSH1 0x40 MLOAD DUP1 SWAP2 SUB SWAP1 REVERT JUMPDEST PUSH1 0x7 SLOAD PUSH1 0xFF AND ISZERO DUP1 PUSH2 0x10CB JUMPI POP PUSH2 0x10C9 DUP4 DUP4 DUP1 DUP1 PUSH1 0x20 MUL PUSH1 0x20 ADD PUSH1 0x40 MLOAD SWAP1 DUP2 ADD PUSH1 0x40 MSTORE DUP1 SWAP4 SWAP3 SWAP2 SWAP1 DUP2 DUP2 MSTORE PUSH1 0x20 ADD DUP4 DUP4 PUSH1 0x20 MUL DUP1 DUP3 DUP5 CALLDATACOPY PUSH1 0x0 SWAP3 ADD SWAP2 SWAP1 SWAP2 MSTORE POP POP PUSH1 0xF SLOAD PUSH1 0x40 MLOAD PUSH12 0xFFFFFFFFFFFFFFFFFFFFFFFF NOT CALLER PUSH1 0x60 SHL AND PUSH1 0x20 DUP3 ADD MSTORE SWAP1 SWAP3 POP PUSH1 0x34 ADD SWAP1 POP PUSH1 0x40 MLOAD PUSH1 0x20 DUP2 DUP4 SUB SUB DUP2 MSTORE SWAP1 PUSH1 0x40 MSTORE DUP1 MLOAD SWAP1 PUSH1 0x20 ADD KECCAK256 PUSH2 0x1768 JUMP JUMPDEST ISZERO JUMPDEST ISZERO PUSH2 0x10E9 JUMPI PUSH1 0x40 MLOAD PUSH4 0xAD7ACB47 PUSH1 0xE0 SHL DUP2 MSTORE PUSH1 0x4 ADD PUSH1 0x40 MLOAD DUP1 SWAP2 SUB SWAP1 REVERT JUMPDEST PUSH1 0xE SLOAD CALLVALUE LT ISZERO PUSH2 0x110C JUMPI PUSH1 0x40 MLOAD PUSH4 0x3C89335B PUSH1 0xE1 SHL DUP2 MSTORE PUSH1 0x4 ADD PUSH1 0x40 MLOAD DUP1 SWAP2 SUB SWAP1 REVERT JUMPDEST PUSH2 0xD4D CALLER PUSH2 0x177E JUMP JUMPDEST PUSH2 0x111D PUSH2 0x1617 JUMP JUMPDEST PUSH1 0xF SSTORE JUMP JUMPDEST PUSH1 0x60 PUSH2 0x112D DUP3 PUSH2 0x1807 JUMP JUMPDEST PUSH2 0x1163 JUMPI PUSH1 0x40 MLOAD PUSH32 0xA14C4B5000000000000000000000000000000000000000000000000000000000 DUP2 MSTORE PUSH1 0x4 ADD PUSH1 0x40 MLOAD DUP1 SWAP2 SUB SWAP1 REVERT JUMPDEST PUSH1 0x0 PUSH1 0x7 DUP1 SLOAD SWAP1 PUSH2 0x100 EXP SWAP1 DIV PUSH1 0x1 PUSH1 0x1 PUSH1 0xA0 SHL SUB AND PUSH1 0x1 PUSH1 0x1 PUSH1 0xA0 SHL SUB AND PUSH4 0xA2DF578A PUSH1 0x40 MLOAD DUP2 PUSH4 0xFFFFFFFF AND PUSH1 0xE0 SHL DUP2 MSTORE PUSH1 0x4 ADD PUSH1 0x0 PUSH1 0x40 MLOAD DUP1 DUP4 SUB DUP2 DUP7 GAS STATICCALL ISZERO DUP1 ISZERO PUSH2 0x11B6 JUMPI RETURNDATASIZE PUSH1 0x0 DUP1 RETURNDATACOPY RETURNDATASIZE PUSH1 0x0 REVERT JUMPDEST POP POP POP POP PUSH1 0x40 MLOAD RETURNDATASIZE PUSH1 0x0 DUP3 RETURNDATACOPY PUSH1 0x1F RETURNDATASIZE SWAP1 DUP2 ADD PUSH1 0x1F NOT AND DUP3 ADD PUSH1 0x40 MSTORE PUSH2 0x11DE SWAP2 SWAP1 DUP2 ADD SWAP1 PUSH2 0x254A JUMP JUMPDEST SWAP1 POP PUSH1 0x0 DUP2 PUSH2 0x11EC CHAINID PUSH2 0x183C JUMP JUMPDEST PUSH2 0x11F7 ADDRESS PUSH1 0x14 PUSH2 0x18DC JUMP JUMPDEST PUSH2 0x1200 DUP8 PUSH2 0x183C JUMP JUMPDEST PUSH1 0x40 MLOAD PUSH1 0x20 ADD PUSH2 0x1213 SWAP5 SWAP4 SWAP3 SWAP2 SWAP1 PUSH2 0x25C1 JUMP JUMPDEST PUSH1 0x40 DUP1 MLOAD PUSH1 0x1F NOT DUP2 DUP5 SUB ADD DUP2 MSTORE SWAP2 SWAP1 MSTORE SWAP5 SWAP4 POP POP POP POP JUMP JUMPDEST PUSH1 0x0 SLOAD PUSH1 0x1 PUSH1 0x1 PUSH1 0xA0 SHL SUB AND CALLER EQ DUP1 ISZERO SWAP1 PUSH2 0x1256 JUMPI POP CALLER PUSH1 0x0 SWAP1 DUP2 MSTORE PUSH1 0x16 PUSH1 0x20 MSTORE PUSH1 0x40 SWAP1 KECCAK256 SLOAD PUSH1 0xFF AND ISZERO JUMPDEST ISZERO PUSH2 0x128D JUMPI PUSH1 0x40 MLOAD PUSH32 0xEAA45D6A00000000000000000000000000000000000000000000000000000000 DUP2 MSTORE PUSH1 0x4 ADD PUSH1 0x40 MLOAD DUP1 SWAP2 SUB SWAP1 REVERT JUMPDEST PUSH1 0x9 SLOAD TIMESTAMP SWAP1 DUP2 LT DUP1 PUSH2 0x12A0 JUMPI POP PUSH1 0xA SLOAD DUP2 GT JUMPDEST ISZERO PUSH2 0x12D7 JUMPI PUSH1 0x40 MLOAD PUSH32 0x91E3BE3900000000000000000000000000000000000000000000000000000000 DUP2 MSTORE PUSH1 0x4 ADD PUSH1 0x40 MLOAD DUP1 SWAP2 SUB SWAP1 REVERT JUMPDEST PUSH1 0x1 PUSH1 0x1 PUSH1 0xA0 SHL SUB DUP3 AND PUSH1 0x0 SWAP1 DUP2 MSTORE PUSH1 0x14 PUSH1 0x20 MSTORE PUSH1 0x40 SWAP1 KECCAK256 SLOAD PUSH1 0xFF AND PUSH2 0x1329 JUMPI PUSH1 0x40 MLOAD PUSH32 0xABA4733900000000000000000000000000000000000000000000000000000000 DUP2 MSTORE PUSH1 0x4 ADD PUSH1 0x40 MLOAD DUP1 SWAP2 SUB SWAP1 REVERT JUMPDEST PUSH1 0x1 PUSH1 0x1 PUSH1 0xA0 SHL SUB DUP3 AND PUSH1 0x0 SWAP1 DUP2 MSTORE PUSH1 0x15 PUSH1 0x20 MSTORE PUSH1 0x40 SWAP1 KECCAK256 SLOAD PUSH1 0xFF AND ISZERO PUSH2 0x137C JUMPI PUSH1 0x40 MLOAD PUSH32 0xC98289F000000000000000000000000000000000000000000000000000000000 DUP2 MSTORE PUSH1 0x4 ADD PUSH1 0x40 MLOAD DUP1 SWAP2 SUB SWAP1 REVERT JUMPDEST PUSH1 0x1 PUSH1 0x1 PUSH1 0xA0 SHL SUB DUP3 AND PUSH1 0x0 SWAP1 DUP2 MSTORE PUSH1 0x15 PUSH1 0x20 MSTORE PUSH1 0x40 DUP2 KECCAK256 DUP1 SLOAD PUSH1 0xFF NOT AND PUSH1 0x1 SWAP1 DUP2 OR SWAP1 SWAP2 SSTORE PUSH1 0xC DUP1 SLOAD SWAP2 SWAP3 SWAP1 SWAP2 PUSH2 0x13B5 SWAP1 DUP5 SWAP1 PUSH2 0x264C JUMP JUMPDEST SWAP1 SWAP2 SSTORE POP POP PUSH1 0x40 MLOAD PUSH1 0x1 PUSH1 0x1 PUSH1 0xA0 SHL SUB DUP4 AND DUP2 MSTORE PUSH32 0xCBF477E63735F8D27F9B668165862D7C6E84E5650EDEC70229523DB18C2F1EFD SWAP1 PUSH1 0x20 ADD PUSH1 0x40 MLOAD DUP1 SWAP2 SUB SWAP1 LOG1 POP POP JUMP JUMPDEST PUSH1 0x0 PUSH1 0x9 SLOAD DUP3 GT ISZERO PUSH2 0x140E JUMPI POP PUSH1 0x1 SWAP2 SWAP1 POP JUMP JUMPDEST PUSH1 0x7 SLOAD PUSH2 0x100 SWAP1 DIV PUSH1 0xFF AND ISZERO DUP1 PUSH2 0x1426 JUMPI POP PUSH1 0x8 SLOAD DUP3 GT JUMPDEST ISZERO PUSH2 0x1433 JUMPI POP PUSH1 0x2 SWAP2 SWAP1 POP JUMP JUMPDEST CALLER PUSH1 0x0 SWAP1 DUP2 MSTORE PUSH1 0x14 PUSH1 0x20 MSTORE PUSH1 0x40 SWAP1 KECCAK256 SLOAD PUSH1 0xFF AND ISZERO PUSH2 0x1453 JUMPI POP PUSH1 0x3 SWAP2 SWAP1 POP JUMP JUMPDEST PUSH1 0x7 SLOAD PUSH3 0x10000 SWAP1 DIV PUSH4 0xFFFFFFFF AND ISZERO DUP1 ISZERO SWAP1 PUSH2 0x1480 JUMPI POP PUSH1 0x7 SLOAD PUSH1 0xB SLOAD PUSH3 0x10000 SWAP1 SWAP2 DIV PUSH4 0xFFFFFFFF AND EQ JUMPDEST ISZERO PUSH2 0x148D JUMPI POP PUSH1 0x4 SWAP2 SWAP1 POP JUMP JUMPDEST POP PUSH1 0x0 SWAP2 SWAP1 POP JUMP JUMPDEST PUSH2 0x149D PUSH2 0x1617 JUMP JUMPDEST PUSH1 0x1 PUSH1 0x1 PUSH1 0xA0 SHL SUB DUP2 AND PUSH2 0x151E JUMPI PUSH1 0x40 MLOAD PUSH3 0x461BCD PUSH1 0xE5 SHL DUP2 MSTORE PUSH1 0x20 PUSH1 0x4 DUP3 ADD MSTORE PUSH1 0x26 PUSH1 0x24 DUP3 ADD MSTORE PUSH32 0x4F776E61626C653A206E6577206F776E657220697320746865207A65726F2061 PUSH1 0x44 DUP3 ADD MSTORE PUSH32 0x6464726573730000000000000000000000000000000000000000000000000000 PUSH1 0x64 DUP3 ADD MSTORE PUSH1 0x84 ADD JUMPDEST PUSH1 0x40 MLOAD DUP1 SWAP2 SUB SWAP1 REVERT JUMPDEST PUSH2 0x1527 DUP2 PUSH2 0x1700 JUMP JUMPDEST POP JUMP JUMPDEST PUSH1 0x0 PUSH2 0x1535 TIMESTAMP PUSH2 0x13FA JUMP JUMPDEST SWAP1 POP DUP1 PUSH1 0xFF AND PUSH1 0x1 SUB PUSH2 0x155B JUMPI PUSH1 0x40 MLOAD PUSH4 0xA8AB2D25 PUSH1 0xE0 SHL DUP2 MSTORE PUSH1 0x4 ADD PUSH1 0x40 MLOAD DUP1 SWAP2 SUB SWAP1 REVERT JUMPDEST DUP1 PUSH1 0xFF AND PUSH1 0x2 SUB PUSH2 0x157F JUMPI PUSH1 0x40 MLOAD PUSH4 0x2FC209F3 PUSH1 0xE0 SHL DUP2 MSTORE PUSH1 0x4 ADD PUSH1 0x40 MLOAD DUP1 SWAP2 SUB SWAP1 REVERT JUMPDEST DUP1 PUSH1 0xFF AND PUSH1 0x3 SUB PUSH2 0x15A3 JUMPI PUSH1 0x40 MLOAD PUSH4 0xEA075BF PUSH1 0xE2 SHL DUP2 MSTORE PUSH1 0x4 ADD PUSH1 0x40 MLOAD DUP1 SWAP2 SUB SWAP1 REVERT JUMPDEST DUP1 PUSH1 0xFF AND PUSH1 0x4 SUB PUSH2 0x15C7 JUMPI PUSH1 0x40 MLOAD PUSH4 0x2437FFE9 PUSH1 0xE1 SHL DUP2 MSTORE PUSH1 0x4 ADD PUSH1 0x40 MLOAD DUP1 SWAP2 SUB SWAP1 REVERT JUMPDEST PUSH1 0x7 SLOAD PUSH1 0xFF AND ISZERO PUSH2 0x15EB JUMPI PUSH1 0x40 MLOAD PUSH4 0xAD7ACB47 PUSH1 0xE0 SHL DUP2 MSTORE PUSH1 0x4 ADD PUSH1 0x40 MLOAD DUP1 SWAP2 SUB SWAP1 REVERT JUMPDEST PUSH1 0xD SLOAD CALLVALUE LT ISZERO PUSH2 0x160E JUMPI PUSH1 0x40 MLOAD PUSH4 0x3C89335B PUSH1 0xE1 SHL DUP2 MSTORE PUSH1 0x4 ADD PUSH1 0x40 MLOAD DUP1 SWAP2 SUB SWAP1 REVERT JUMPDEST PUSH2 0x1527 CALLER PUSH2 0x177E JUMP JUMPDEST PUSH1 0x0 SLOAD PUSH1 0x1 PUSH1 0x1 PUSH1 0xA0 SHL SUB AND CALLER EQ PUSH2 0xF0B JUMPI PUSH1 0x40 MLOAD PUSH3 0x461BCD PUSH1 0xE5 SHL DUP2 MSTORE PUSH1 0x20 PUSH1 0x4 DUP3 ADD DUP2 SWAP1 MSTORE PUSH1 0x24 DUP3 ADD MSTORE PUSH32 0x4F776E61626C653A2063616C6C6572206973206E6F7420746865206F776E6572 PUSH1 0x44 DUP3 ADD MSTORE PUSH1 0x64 ADD PUSH2 0x1515 JUMP JUMPDEST PUSH1 0x0 DUP2 DUP1 PUSH1 0x1 GT PUSH2 0x16CE JUMPI PUSH1 0x1 SLOAD DUP2 LT ISZERO PUSH2 0x16CE JUMPI PUSH1 0x0 DUP2 DUP2 MSTORE PUSH1 0x5 PUSH1 0x20 MSTORE PUSH1 0x40 DUP2 KECCAK256 SLOAD SWAP1 PUSH1 0x1 PUSH1 0xE0 SHL DUP3 AND SWAP1 SUB PUSH2 0x16CC JUMPI JUMPDEST DUP1 PUSH1 0x0 SUB PUSH2 0x16C5 JUMPI POP PUSH1 0x0 NOT ADD PUSH1 0x0 DUP2 DUP2 MSTORE PUSH1 0x5 PUSH1 0x20 MSTORE PUSH1 0x40 SWAP1 KECCAK256 SLOAD PUSH2 0x16A4 JUMP JUMPDEST SWAP4 SWAP3 POP POP POP JUMP JUMPDEST POP JUMPDEST PUSH1 0x40 MLOAD PUSH32 0xDF2D9B4200000000000000000000000000000000000000000000000000000000 DUP2 MSTORE PUSH1 0x4 ADD PUSH1 0x40 MLOAD DUP1 SWAP2 SUB SWAP1 REVERT JUMPDEST PUSH1 0x0 DUP1 SLOAD PUSH1 0x1 PUSH1 0x1 PUSH1 0xA0 SHL SUB DUP4 DUP2 AND PUSH32 0xFFFFFFFFFFFFFFFFFFFFFFFF0000000000000000000000000000000000000000 DUP4 AND DUP2 OR DUP5 SSTORE PUSH1 0x40 MLOAD SWAP2 SWAP1 SWAP3 AND SWAP3 DUP4 SWAP2 PUSH32 0x8BE0079C531659141344CD1FD0A4F28419497F9722A3DAAFE3B4186F6B6457E0 SWAP2 SWAP1 LOG3 POP POP JUMP JUMPDEST PUSH1 0x0 DUP3 PUSH2 0x1775 DUP6 DUP5 PUSH2 0x1ABD JUMP JUMPDEST EQ SWAP5 SWAP4 POP POP POP POP JUMP JUMPDEST PUSH1 0x1 PUSH1 0x1 PUSH1 0xA0 SHL SUB DUP2 AND PUSH1 0x0 SWAP1 DUP2 MSTORE PUSH1 0x14 PUSH1 0x20 MSTORE PUSH1 0x40 DUP2 KECCAK256 DUP1 SLOAD PUSH1 0xFF NOT AND PUSH1 0x1 SWAP1 DUP2 OR SWAP1 SWAP2 SSTORE PUSH1 0xB DUP1 SLOAD SWAP2 SWAP3 SWAP1 SWAP2 PUSH2 0x17B7 SWAP1 DUP5 SWAP1 PUSH2 0x264C JUMP JUMPDEST SWAP1 SWAP2 SSTORE POP PUSH2 0x17C8 SWAP1 POP DUP2 PUSH1 0x1 PUSH2 0x1B0A JUMP JUMPDEST PUSH1 0x40 MLOAD PUSH1 0x1 PUSH1 0x1 PUSH1 0xA0 SHL SUB DUP3 AND DUP2 MSTORE PUSH32 0xE11711CD714E06FBBBEA301A8E90822F2F2EA4808E37E3ADF06038F33C53FF27 SWAP1 PUSH1 0x20 ADD PUSH1 0x40 MLOAD DUP1 SWAP2 SUB SWAP1 LOG1 POP JUMP JUMPDEST PUSH1 0x0 DUP2 PUSH1 0x1 GT ISZERO DUP1 ISZERO PUSH2 0x181B JUMPI POP PUSH1 0x1 SLOAD DUP3 LT JUMPDEST DUP1 ISZERO PUSH2 0x859 JUMPI POP POP PUSH1 0x0 SWAP1 DUP2 MSTORE PUSH1 0x5 PUSH1 0x20 MSTORE PUSH1 0x40 SWAP1 KECCAK256 SLOAD PUSH1 0x1 PUSH1 0xE0 SHL AND ISZERO SWAP1 JUMP JUMPDEST PUSH1 0x60 PUSH1 0x0 PUSH2 0x1849 DUP4 PUSH2 0x1B28 JUMP JUMPDEST PUSH1 0x1 ADD SWAP1 POP PUSH1 0x0 DUP2 PUSH8 0xFFFFFFFFFFFFFFFF DUP2 GT ISZERO PUSH2 0x1869 JUMPI PUSH2 0x1869 PUSH2 0x2132 JUMP JUMPDEST PUSH1 0x40 MLOAD SWAP1 DUP1 DUP3 MSTORE DUP1 PUSH1 0x1F ADD PUSH1 0x1F NOT AND PUSH1 0x20 ADD DUP3 ADD PUSH1 0x40 MSTORE DUP1 ISZERO PUSH2 0x1893 JUMPI PUSH1 0x20 DUP3 ADD DUP2 DUP1 CALLDATASIZE DUP4 CALLDATACOPY ADD SWAP1 POP JUMPDEST POP SWAP1 POP DUP2 DUP2 ADD PUSH1 0x20 ADD JUMPDEST PUSH1 0x0 NOT ADD PUSH32 0x3031323334353637383961626364656600000000000000000000000000000000 PUSH1 0xA DUP7 MOD BYTE DUP2 MSTORE8 PUSH1 0xA DUP6 DIV SWAP5 POP DUP5 PUSH2 0x189D JUMPI POP SWAP4 SWAP3 POP POP POP JUMP JUMPDEST PUSH1 0x60 PUSH1 0x0 PUSH2 0x18EB DUP4 PUSH1 0x2 PUSH2 0x2403 JUMP JUMPDEST PUSH2 0x18F6 SWAP1 PUSH1 0x2 PUSH2 0x264C JUMP JUMPDEST PUSH8 0xFFFFFFFFFFFFFFFF DUP2 GT ISZERO PUSH2 0x190E JUMPI PUSH2 0x190E PUSH2 0x2132 JUMP JUMPDEST PUSH1 0x40 MLOAD SWAP1 DUP1 DUP3 MSTORE DUP1 PUSH1 0x1F ADD PUSH1 0x1F NOT AND PUSH1 0x20 ADD DUP3 ADD PUSH1 0x40 MSTORE DUP1 ISZERO PUSH2 0x1938 JUMPI PUSH1 0x20 DUP3 ADD DUP2 DUP1 CALLDATASIZE DUP4 CALLDATACOPY ADD SWAP1 POP JUMPDEST POP SWAP1 POP PUSH32 0x3000000000000000000000000000000000000000000000000000000000000000 DUP2 PUSH1 0x0 DUP2 MLOAD DUP2 LT PUSH2 0x196F JUMPI PUSH2 0x196F PUSH2 0x265F JUMP JUMPDEST PUSH1 0x20 ADD ADD SWAP1 PUSH1 0x1 PUSH1 0x1 PUSH1 0xF8 SHL SUB NOT AND SWAP1 DUP2 PUSH1 0x0 BYTE SWAP1 MSTORE8 POP PUSH32 0x7800000000000000000000000000000000000000000000000000000000000000 DUP2 PUSH1 0x1 DUP2 MLOAD DUP2 LT PUSH2 0x19BA JUMPI PUSH2 0x19BA PUSH2 0x265F JUMP JUMPDEST PUSH1 0x20 ADD ADD SWAP1 PUSH1 0x1 PUSH1 0x1 PUSH1 0xF8 SHL SUB NOT AND SWAP1 DUP2 PUSH1 0x0 BYTE SWAP1 MSTORE8 POP PUSH1 0x0 PUSH2 0x19DE DUP5 PUSH1 0x2 PUSH2 0x2403 JUMP JUMPDEST PUSH2 0x19E9 SWAP1 PUSH1 0x1 PUSH2 0x264C JUMP JUMPDEST SWAP1 POP JUMPDEST PUSH1 0x1 DUP2 GT ISZERO PUSH2 0x1A6E JUMPI PUSH32 0x3031323334353637383961626364656600000000000000000000000000000000 DUP6 PUSH1 0xF AND PUSH1 0x10 DUP2 LT PUSH2 0x1A2A JUMPI PUSH2 0x1A2A PUSH2 0x265F JUMP JUMPDEST BYTE PUSH1 0xF8 SHL DUP3 DUP3 DUP2 MLOAD DUP2 LT PUSH2 0x1A40 JUMPI PUSH2 0x1A40 PUSH2 0x265F JUMP JUMPDEST PUSH1 0x20 ADD ADD SWAP1 PUSH1 0x1 PUSH1 0x1 PUSH1 0xF8 SHL SUB NOT AND SWAP1 DUP2 PUSH1 0x0 BYTE SWAP1 MSTORE8 POP PUSH1 0x4 SWAP5 SWAP1 SWAP5 SHR SWAP4 PUSH2 0x1A67 DUP2 PUSH2 0x2675 JUMP JUMPDEST SWAP1 POP PUSH2 0x19EC JUMP JUMPDEST POP DUP4 ISZERO PUSH2 0x16C5 JUMPI PUSH1 0x40 MLOAD PUSH3 0x461BCD PUSH1 0xE5 SHL DUP2 MSTORE PUSH1 0x20 PUSH1 0x4 DUP3 ADD DUP2 SWAP1 MSTORE PUSH1 0x24 DUP3 ADD MSTORE PUSH32 0x537472696E67733A20686578206C656E67746820696E73756666696369656E74 PUSH1 0x44 DUP3 ADD MSTORE PUSH1 0x64 ADD PUSH2 0x1515 JUMP JUMPDEST PUSH1 0x0 DUP2 DUP2 JUMPDEST DUP5 MLOAD DUP2 LT ISZERO PUSH2 0x1B02 JUMPI PUSH2 0x1AEE DUP3 DUP7 DUP4 DUP2 MLOAD DUP2 LT PUSH2 0x1AE1 JUMPI PUSH2 0x1AE1 PUSH2 0x265F JUMP JUMPDEST PUSH1 0x20 MUL PUSH1 0x20 ADD ADD MLOAD PUSH2 0x1C0A JUMP JUMPDEST SWAP2 POP DUP1 PUSH2 0x1AFA DUP2 PUSH2 0x268C JUMP JUMPDEST SWAP2 POP POP PUSH2 0x1AC2 JUMP JUMPDEST POP SWAP4 SWAP3 POP POP POP JUMP JUMPDEST PUSH2 0x1B24 DUP3 DUP3 PUSH1 0x40 MLOAD DUP1 PUSH1 0x20 ADD PUSH1 0x40 MSTORE DUP1 PUSH1 0x0 DUP2 MSTORE POP PUSH2 0x1C39 JUMP JUMPDEST POP POP JUMP JUMPDEST PUSH1 0x0 DUP1 PUSH27 0x184F03E93FF9F4DAA797ED6E38ED64BF6A1F010000000000000000 DUP4 LT PUSH2 0x1B71 JUMPI PUSH27 0x184F03E93FF9F4DAA797ED6E38ED64BF6A1F010000000000000000 DUP4 DIV SWAP3 POP PUSH1 0x40 ADD JUMPDEST PUSH14 0x4EE2D6D415B85ACEF8100000000 DUP4 LT PUSH2 0x1B9D JUMPI PUSH14 0x4EE2D6D415B85ACEF8100000000 DUP4 DIV SWAP3 POP PUSH1 0x20 ADD JUMPDEST PUSH7 0x2386F26FC10000 DUP4 LT PUSH2 0x1BBB JUMPI PUSH7 0x2386F26FC10000 DUP4 DIV SWAP3 POP PUSH1 0x10 ADD JUMPDEST PUSH4 0x5F5E100 DUP4 LT PUSH2 0x1BD3 JUMPI PUSH4 0x5F5E100 DUP4 DIV SWAP3 POP PUSH1 0x8 ADD JUMPDEST PUSH2 0x2710 DUP4 LT PUSH2 0x1BE7 JUMPI PUSH2 0x2710 DUP4 DIV SWAP3 POP PUSH1 0x4 ADD JUMPDEST PUSH1 0x64 DUP4 LT PUSH2 0x1BF9 JUMPI PUSH1 0x64 DUP4 DIV SWAP3 POP PUSH1 0x2 ADD JUMPDEST PUSH1 0xA DUP4 LT PUSH2 0x859 JUMPI PUSH1 0x1 ADD SWAP3 SWAP2 POP POP JUMP JUMPDEST PUSH1 0x0 DUP2 DUP4 LT PUSH2 0x1C26 JUMPI PUSH1 0x0 DUP3 DUP2 MSTORE PUSH1 0x20 DUP5 SWAP1 MSTORE PUSH1 0x40 SWAP1 KECCAK256 PUSH2 0x16C5 JUMP JUMPDEST PUSH1 0x0 DUP4 DUP2 MSTORE PUSH1 0x20 DUP4 SWAP1 MSTORE PUSH1 0x40 SWAP1 KECCAK256 PUSH2 0x16C5 JUMP JUMPDEST PUSH2 0x1C43 DUP4 DUP4 PUSH2 0x1CA6 JUMP JUMPDEST PUSH1 0x1 PUSH1 0x1 PUSH1 0xA0 SHL SUB DUP4 AND EXTCODESIZE ISZERO PUSH2 0xD4D JUMPI PUSH1 0x1 SLOAD DUP3 DUP2 SUB JUMPDEST PUSH2 0x1C6D PUSH1 0x0 DUP7 DUP4 DUP1 PUSH1 0x1 ADD SWAP5 POP DUP7 PUSH2 0x1DD7 JUMP JUMPDEST PUSH2 0x1C8A JUMPI PUSH1 0x40 MLOAD PUSH4 0x68D2BF6B PUSH1 0xE1 SHL DUP2 MSTORE PUSH1 0x4 ADD PUSH1 0x40 MLOAD DUP1 SWAP2 SUB SWAP1 REVERT JUMPDEST DUP2 DUP2 LT PUSH2 0x1C5A JUMPI DUP2 PUSH1 0x1 SLOAD EQ PUSH2 0x1C9F JUMPI PUSH1 0x0 DUP1 REVERT JUMPDEST POP POP POP POP POP JUMP JUMPDEST PUSH1 0x1 SLOAD PUSH1 0x0 DUP3 SWAP1 SUB PUSH2 0x1CE4 JUMPI PUSH1 0x40 MLOAD PUSH32 0xB562E8DD00000000000000000000000000000000000000000000000000000000 DUP2 MSTORE PUSH1 0x4 ADD PUSH1 0x40 MLOAD DUP1 SWAP2 SUB SWAP1 REVERT JUMPDEST PUSH1 0x1 PUSH1 0x1 PUSH1 0xA0 SHL SUB DUP4 AND PUSH1 0x0 DUP2 DUP2 MSTORE PUSH1 0x6 PUSH1 0x20 SWAP1 DUP2 MSTORE PUSH1 0x40 DUP1 DUP4 KECCAK256 DUP1 SLOAD PUSH9 0x10000000000000001 DUP9 MUL ADD SWAP1 SSTORE DUP5 DUP4 MSTORE PUSH1 0x5 SWAP1 SWAP2 MSTORE DUP2 KECCAK256 PUSH1 0x1 DUP6 EQ PUSH1 0xE1 SHL TIMESTAMP PUSH1 0xA0 SHL OR DUP4 OR SWAP1 SSTORE DUP3 DUP5 ADD SWAP1 DUP4 SWAP1 DUP4 SWAP1 PUSH32 0xDDF252AD1BE2C89B69C2B068FC378DAA952BA7F163C4A11628F55A4DF523B3EF DUP2 DUP1 LOG4 PUSH1 0x1 DUP4 ADD JUMPDEST DUP2 DUP2 EQ PUSH2 0x1D93 JUMPI DUP1 DUP4 PUSH1 0x0 PUSH32 0xDDF252AD1BE2C89B69C2B068FC378DAA952BA7F163C4A11628F55A4DF523B3EF PUSH1 0x0 DUP1 LOG4 PUSH1 0x1 ADD PUSH2 0x1D5B JUMP JUMPDEST POP DUP2 PUSH1 0x0 SUB PUSH2 0x1DCE JUMPI PUSH1 0x40 MLOAD PUSH32 0x2E07630000000000000000000000000000000000000000000000000000000000 DUP2 MSTORE PUSH1 0x4 ADD PUSH1 0x40 MLOAD DUP1 SWAP2 SUB SWAP1 REVERT JUMPDEST PUSH1 0x1 SSTORE POP POP POP POP JUMP JUMPDEST PUSH1 0x40 MLOAD PUSH4 0xA85BD01 PUSH1 0xE1 SHL DUP2 MSTORE PUSH1 0x0 SWAP1 PUSH1 0x1 PUSH1 0x1 PUSH1 0xA0 SHL SUB DUP6 AND SWAP1 PUSH4 0x150B7A02 SWAP1 PUSH2 0x1E0C SWAP1 CALLER SWAP1 DUP10 SWAP1 DUP9 SWAP1 DUP9 SWAP1 PUSH1 0x4 ADD PUSH2 0x26A5 JUMP JUMPDEST PUSH1 0x20 PUSH1 0x40 MLOAD DUP1 DUP4 SUB DUP2 PUSH1 0x0 DUP8 GAS CALL SWAP3 POP POP POP DUP1 ISZERO PUSH2 0x1E47 JUMPI POP PUSH1 0x40 DUP1 MLOAD PUSH1 0x1F RETURNDATASIZE SWAP1 DUP2 ADD PUSH1 0x1F NOT AND DUP3 ADD SWAP1 SWAP3 MSTORE PUSH2 0x1E44 SWAP2 DUP2 ADD SWAP1 PUSH2 0x26E1 JUMP JUMPDEST PUSH1 0x1 JUMPDEST PUSH2 0x1EA5 JUMPI RETURNDATASIZE DUP1 DUP1 ISZERO PUSH2 0x1E75 JUMPI PUSH1 0x40 MLOAD SWAP2 POP PUSH1 0x1F NOT PUSH1 0x3F RETURNDATASIZE ADD AND DUP3 ADD PUSH1 0x40 MSTORE RETURNDATASIZE DUP3 MSTORE RETURNDATASIZE PUSH1 0x0 PUSH1 0x20 DUP5 ADD RETURNDATACOPY PUSH2 0x1E7A JUMP JUMPDEST PUSH1 0x60 SWAP2 POP JUMPDEST POP DUP1 MLOAD PUSH1 0x0 SUB PUSH2 0x1E9D JUMPI PUSH1 0x40 MLOAD PUSH4 0x68D2BF6B PUSH1 0xE1 SHL DUP2 MSTORE PUSH1 0x4 ADD PUSH1 0x40 MLOAD DUP1 SWAP2 SUB SWAP1 REVERT JUMPDEST DUP1 MLOAD DUP2 PUSH1 0x20 ADD REVERT JUMPDEST PUSH1 0x1 PUSH1 0x1 PUSH1 0xE0 SHL SUB NOT AND PUSH4 0xA85BD01 PUSH1 0xE1 SHL EQ SWAP1 POP SWAP5 SWAP4 POP POP POP POP JUMP JUMPDEST PUSH1 0x1 PUSH1 0x1 PUSH1 0xE0 SHL SUB NOT DUP2 AND DUP2 EQ PUSH2 0x1527 JUMPI PUSH1 0x0 DUP1 REVERT JUMPDEST PUSH1 0x0 PUSH1 0x20 DUP3 DUP5 SUB SLT ISZERO PUSH2 0x1EEA JUMPI PUSH1 0x0 DUP1 REVERT JUMPDEST DUP2 CALLDATALOAD PUSH2 0x16C5 DUP2 PUSH2 0x1EC2 JUMP JUMPDEST PUSH1 0x0 JUMPDEST DUP4 DUP2 LT ISZERO PUSH2 0x1F10 JUMPI DUP2 DUP2 ADD MLOAD DUP4 DUP3 ADD MSTORE PUSH1 0x20 ADD PUSH2 0x1EF8 JUMP JUMPDEST POP POP PUSH1 0x0 SWAP2 ADD MSTORE JUMP JUMPDEST PUSH1 0x0 DUP2 MLOAD DUP1 DUP5 MSTORE PUSH2 0x1F31 DUP2 PUSH1 0x20 DUP7 ADD PUSH1 0x20 DUP7 ADD PUSH2 0x1EF5 JUMP JUMPDEST PUSH1 0x1F ADD PUSH1 0x1F NOT AND SWAP3 SWAP1 SWAP3 ADD PUSH1 0x20 ADD SWAP3 SWAP2 POP POP JUMP JUMPDEST PUSH1 0x20 DUP2 MSTORE PUSH1 0x0 PUSH2 0x16C5 PUSH1 0x20 DUP4 ADD DUP5 PUSH2 0x1F19 JUMP JUMPDEST DUP1 CALLDATALOAD PUSH1 0x1 PUSH1 0x1 PUSH1 0xA0 SHL SUB DUP2 AND DUP2 EQ PUSH2 0x1F6F JUMPI PUSH1 0x0 DUP1 REVERT JUMPDEST SWAP2 SWAP1 POP JUMP JUMPDEST PUSH1 0x0 PUSH1 0x20 DUP3 DUP5 SUB SLT ISZERO PUSH2 0x1F86 JUMPI PUSH1 0x0 DUP1 REVERT JUMPDEST PUSH2 0x16C5 DUP3 PUSH2 0x1F58 JUMP JUMPDEST PUSH1 0x0 PUSH1 0x20 DUP3 DUP5 SUB SLT ISZERO PUSH2 0x1FA1 JUMPI PUSH1 0x0 DUP1 REVERT JUMPDEST POP CALLDATALOAD SWAP2 SWAP1 POP JUMP JUMPDEST PUSH1 0x20 DUP2 MSTORE PUSH2 0x1FC2 PUSH1 0x20 DUP3 ADD DUP4 MLOAD PUSH1 0x1 PUSH1 0x1 PUSH1 0xA0 SHL SUB AND SWAP1 MSTORE JUMP JUMPDEST PUSH1 0x0 PUSH1 0x20 DUP4 ADD MLOAD PUSH2 0x1FDE PUSH1 0x40 DUP5 ADD DUP3 PUSH1 0x1 PUSH1 0x1 PUSH1 0xA0 SHL SUB AND SWAP1 MSTORE JUMP JUMPDEST POP PUSH1 0x40 DUP4 ADD MLOAD DUP1 ISZERO ISZERO PUSH1 0x60 DUP5 ADD MSTORE POP PUSH1 0x60 DUP4 ADD MLOAD DUP1 ISZERO ISZERO PUSH1 0x80 DUP5 ADD MSTORE POP PUSH1 0x80 DUP4 ADD MLOAD DUP1 ISZERO ISZERO PUSH1 0xA0 DUP5 ADD MSTORE POP PUSH1 0xA0 DUP4 ADD MLOAD DUP1 ISZERO ISZERO PUSH1 0xC0 DUP5 ADD MSTORE POP PUSH1 0xC0 DUP4 ADD MLOAD PUSH4 0xFFFFFFFF DUP2 AND PUSH1 0xE0 DUP5 ADD MSTORE POP PUSH1 0xE0 DUP4 ADD MLOAD PUSH2 0x100 DUP4 DUP2 ADD SWAP2 SWAP1 SWAP2 MSTORE DUP4 ADD MLOAD PUSH2 0x120 DUP1 DUP5 ADD SWAP2 SWAP1 SWAP2 MSTORE DUP4 ADD MLOAD PUSH2 0x140 DUP1 DUP5 ADD SWAP2 SWAP1 SWAP2 MSTORE DUP4 ADD MLOAD PUSH2 0x160 DUP1 DUP5 ADD SWAP2 SWAP1 SWAP2 MSTORE DUP4 ADD MLOAD PUSH2 0x180 DUP1 DUP5 ADD SWAP2 SWAP1 SWAP2 MSTORE DUP4 ADD MLOAD PUSH2 0x1A0 DUP1 DUP5 ADD SWAP2 SWAP1 SWAP2 MSTORE DUP4 ADD MLOAD PUSH2 0x1C0 DUP1 DUP5 ADD SWAP2 SWAP1 SWAP2 MSTORE DUP4 ADD MLOAD PUSH2 0x260 PUSH2 0x1E0 DUP1 DUP6 ADD DUP3 SWAP1 MSTORE PUSH2 0x20A3 PUSH2 0x280 DUP7 ADD DUP5 PUSH2 0x1F19 JUMP JUMPDEST SWAP3 POP DUP1 DUP7 ADD MLOAD SWAP1 POP PUSH2 0x200 PUSH1 0x1F NOT DUP7 DUP6 SUB ADD DUP2 DUP8 ADD MSTORE PUSH2 0x20C3 DUP5 DUP4 PUSH2 0x1F19 JUMP JUMPDEST SWAP1 DUP8 ADD MLOAD PUSH2 0x220 DUP8 DUP2 ADD SWAP2 SWAP1 SWAP2 MSTORE DUP8 ADD MLOAD PUSH2 0x240 DUP1 DUP9 ADD SWAP2 SWAP1 SWAP2 MSTORE SWAP1 SWAP7 ADD MLOAD SWAP2 SWAP1 SWAP5 ADD MSTORE POP SWAP2 SWAP3 SWAP2 POP POP JUMP JUMPDEST DUP1 CALLDATALOAD DUP1 ISZERO ISZERO DUP2 EQ PUSH2 0x1F6F JUMPI PUSH1 0x0 DUP1 REVERT JUMPDEST PUSH1 0x0 DUP1 PUSH1 0x40 DUP4 DUP6 SUB SLT ISZERO PUSH2 0x2112 JUMPI PUSH1 0x0 DUP1 REVERT JUMPDEST PUSH2 0x211B DUP4 PUSH2 0x1F58 JUMP JUMPDEST SWAP2 POP PUSH2 0x2129 PUSH1 0x20 DUP5 ADD PUSH2 0x20EF JUMP JUMPDEST SWAP1 POP SWAP3 POP SWAP3 SWAP1 POP JUMP JUMPDEST PUSH4 0x4E487B71 PUSH1 0xE0 SHL PUSH1 0x0 MSTORE PUSH1 0x41 PUSH1 0x4 MSTORE PUSH1 0x24 PUSH1 0x0 REVERT JUMPDEST PUSH1 0x40 MLOAD PUSH2 0x160 DUP2 ADD PUSH8 0xFFFFFFFFFFFFFFFF DUP2 GT DUP3 DUP3 LT OR ISZERO PUSH2 0x216C JUMPI PUSH2 0x216C PUSH2 0x2132 JUMP JUMPDEST PUSH1 0x40 MSTORE SWAP1 JUMP JUMPDEST PUSH1 0x40 MLOAD PUSH1 0x1F DUP3 ADD PUSH1 0x1F NOT AND DUP2 ADD PUSH8 0xFFFFFFFFFFFFFFFF DUP2 GT DUP3 DUP3 LT OR ISZERO PUSH2 0x219B JUMPI PUSH2 0x219B PUSH2 0x2132 JUMP JUMPDEST PUSH1 0x40 MSTORE SWAP2 SWAP1 POP JUMP JUMPDEST DUP1 CALLDATALOAD PUSH4 0xFFFFFFFF DUP2 AND DUP2 EQ PUSH2 0x1F6F JUMPI PUSH1 0x0 DUP1 REVERT JUMPDEST PUSH1 0x0 PUSH8 0xFFFFFFFFFFFFFFFF DUP3 GT ISZERO PUSH2 0x21D1 JUMPI PUSH2 0x21D1 PUSH2 0x2132 JUMP JUMPDEST POP PUSH1 0x1F ADD PUSH1 0x1F NOT AND PUSH1 0x20 ADD SWAP1 JUMP JUMPDEST PUSH1 0x0 DUP3 PUSH1 0x1F DUP4 ADD SLT PUSH2 0x21F0 JUMPI PUSH1 0x0 DUP1 REVERT JUMPDEST DUP2 CALLDATALOAD PUSH2 0x2203 PUSH2 0x21FE DUP3 PUSH2 0x21B7 JUMP JUMPDEST PUSH2 0x2172 JUMP JUMPDEST DUP2 DUP2 MSTORE DUP5 PUSH1 0x20 DUP4 DUP7 ADD ADD GT ISZERO PUSH2 0x2218 JUMPI PUSH1 0x0 DUP1 REVERT JUMPDEST DUP2 PUSH1 0x20 DUP6 ADD PUSH1 0x20 DUP4 ADD CALLDATACOPY PUSH1 0x0 SWAP2 DUP2 ADD PUSH1 0x20 ADD SWAP2 SWAP1 SWAP2 MSTORE SWAP4 SWAP3 POP POP POP JUMP JUMPDEST PUSH1 0x0 PUSH1 0x20 DUP3 DUP5 SUB SLT ISZERO PUSH2 0x2247 JUMPI PUSH1 0x0 DUP1 REVERT JUMPDEST DUP2 CALLDATALOAD PUSH8 0xFFFFFFFFFFFFFFFF DUP1 DUP3 GT ISZERO PUSH2 0x225F JUMPI PUSH1 0x0 DUP1 REVERT JUMPDEST SWAP1 DUP4 ADD SWAP1 PUSH2 0x160 DUP3 DUP7 SUB SLT ISZERO PUSH2 0x2274 JUMPI PUSH1 0x0 DUP1 REVERT JUMPDEST PUSH2 0x227C PUSH2 0x2148 JUMP JUMPDEST PUSH2 0x2285 DUP4 PUSH2 0x21A3 JUMP JUMPDEST DUP2 MSTORE PUSH1 0x20 DUP4 ADD CALLDATALOAD PUSH1 0x20 DUP3 ADD MSTORE PUSH1 0x40 DUP4 ADD CALLDATALOAD PUSH1 0x40 DUP3 ADD MSTORE PUSH1 0x60 DUP4 ADD CALLDATALOAD PUSH1 0x60 DUP3 ADD MSTORE PUSH1 0x80 DUP4 ADD CALLDATALOAD PUSH1 0x80 DUP3 ADD MSTORE PUSH1 0xA0 DUP4 ADD CALLDATALOAD PUSH1 0xA0 DUP3 ADD MSTORE PUSH1 0xC0 DUP4 ADD CALLDATALOAD DUP3 DUP2 GT ISZERO PUSH2 0x22CB JUMPI PUSH1 0x0 DUP1 REVERT JUMPDEST PUSH2 0x22D7 DUP8 DUP3 DUP7 ADD PUSH2 0x21DF JUMP JUMPDEST PUSH1 0xC0 DUP4 ADD MSTORE POP PUSH1 0xE0 DUP4 DUP2 ADD CALLDATALOAD SWAP1 DUP3 ADD MSTORE PUSH2 0x100 DUP1 DUP5 ADD CALLDATALOAD SWAP1 DUP3 ADD MSTORE PUSH2 0x120 SWAP2 POP PUSH2 0x2302 DUP3 DUP5 ADD PUSH2 0x20EF JUMP JUMPDEST DUP3 DUP3 ADD MSTORE PUSH2 0x140 SWAP2 POP PUSH2 0x2316 DUP3 DUP5 ADD PUSH2 0x20EF JUMP JUMPDEST SWAP2 DUP2 ADD SWAP2 SWAP1 SWAP2 MSTORE SWAP5 SWAP4 POP POP POP POP JUMP JUMPDEST PUSH1 0x0 DUP1 PUSH1 0x20 DUP4 DUP6 SUB SLT ISZERO PUSH2 0x2338 JUMPI PUSH1 0x0 DUP1 REVERT JUMPDEST DUP3 CALLDATALOAD PUSH8 0xFFFFFFFFFFFFFFFF DUP1 DUP3 GT ISZERO PUSH2 0x2350 JUMPI PUSH1 0x0 DUP1 REVERT JUMPDEST DUP2 DUP6 ADD SWAP2 POP DUP6 PUSH1 0x1F DUP4 ADD SLT PUSH2 0x2364 JUMPI PUSH1 0x0 DUP1 REVERT JUMPDEST DUP2 CALLDATALOAD DUP2 DUP2 GT ISZERO PUSH2 0x2373 JUMPI PUSH1 0x0 DUP1 REVERT JUMPDEST DUP7 PUSH1 0x20 DUP3 PUSH1 0x5 SHL DUP6 ADD ADD GT ISZERO PUSH2 0x2388 JUMPI PUSH1 0x0 DUP1 REVERT JUMPDEST PUSH1 0x20 SWAP3 SWAP1 SWAP3 ADD SWAP7 SWAP2 SWAP6 POP SWAP1 SWAP4 POP POP POP POP JUMP JUMPDEST PUSH1 0x1 DUP2 DUP2 SHR SWAP1 DUP3 AND DUP1 PUSH2 0x23AE JUMPI PUSH1 0x7F DUP3 AND SWAP2 POP JUMPDEST PUSH1 0x20 DUP3 LT DUP2 SUB PUSH2 0x23CE JUMPI PUSH4 0x4E487B71 PUSH1 0xE0 SHL PUSH1 0x0 MSTORE PUSH1 0x22 PUSH1 0x4 MSTORE PUSH1 0x24 PUSH1 0x0 REVERT JUMPDEST POP SWAP2 SWAP1 POP JUMP JUMPDEST PUSH4 0x4E487B71 PUSH1 0xE0 SHL PUSH1 0x0 MSTORE PUSH1 0x11 PUSH1 0x4 MSTORE PUSH1 0x24 PUSH1 0x0 REVERT JUMPDEST PUSH1 0xFF DUP3 DUP2 AND DUP3 DUP3 AND SUB SWAP1 DUP2 GT ISZERO PUSH2 0x859 JUMPI PUSH2 0x859 PUSH2 0x23D4 JUMP JUMPDEST DUP1 DUP3 MUL DUP2 ISZERO DUP3 DUP3 DIV DUP5 EQ OR PUSH2 0x859 JUMPI PUSH2 0x859 PUSH2 0x23D4 JUMP JUMPDEST PUSH1 0x0 DUP3 PUSH2 0x2437 JUMPI PUSH4 0x4E487B71 PUSH1 0xE0 SHL PUSH1 0x0 MSTORE PUSH1 0x12 PUSH1 0x4 MSTORE PUSH1 0x24 PUSH1 0x0 REVERT JUMPDEST POP DIV SWAP1 JUMP JUMPDEST PUSH1 0x1F DUP3 GT ISZERO PUSH2 0xD4D JUMPI PUSH1 0x0 DUP2 DUP2 MSTORE PUSH1 0x20 DUP2 KECCAK256 PUSH1 0x1F DUP6 ADD PUSH1 0x5 SHR DUP2 ADD PUSH1 0x20 DUP7 LT ISZERO PUSH2 0x2463 JUMPI POP DUP1 JUMPDEST PUSH1 0x1F DUP6 ADD PUSH1 0x5 SHR DUP3 ADD SWAP2 POP JUMPDEST DUP2 DUP2 LT ISZERO PUSH2 0x2482 JUMPI DUP3 DUP2 SSTORE PUSH1 0x1 ADD PUSH2 0x246F JUMP JUMPDEST POP POP POP POP POP POP JUMP JUMPDEST DUP2 MLOAD PUSH8 0xFFFFFFFFFFFFFFFF DUP2 GT ISZERO PUSH2 0x24A4 JUMPI PUSH2 0x24A4 PUSH2 0x2132 JUMP JUMPDEST PUSH2 0x24B8 DUP2 PUSH2 0x24B2 DUP5 SLOAD PUSH2 0x239A JUMP JUMPDEST DUP5 PUSH2 0x243C JUMP JUMPDEST PUSH1 0x20 DUP1 PUSH1 0x1F DUP4 GT PUSH1 0x1 DUP2 EQ PUSH2 0x24ED JUMPI PUSH1 0x0 DUP5 ISZERO PUSH2 0x24D5 JUMPI POP DUP6 DUP4 ADD MLOAD JUMPDEST PUSH1 0x0 NOT PUSH1 0x3 DUP7 SWAP1 SHL SHR NOT AND PUSH1 0x1 DUP6 SWAP1 SHL OR DUP6 SSTORE PUSH2 0x2482 JUMP JUMPDEST PUSH1 0x0 DUP6 DUP2 MSTORE PUSH1 0x20 DUP2 KECCAK256 PUSH1 0x1F NOT DUP7 AND SWAP2 JUMPDEST DUP3 DUP2 LT ISZERO PUSH2 0x251C JUMPI DUP9 DUP7 ADD MLOAD DUP3 SSTORE SWAP5 DUP5 ADD SWAP5 PUSH1 0x1 SWAP1 SWAP2 ADD SWAP1 DUP5 ADD PUSH2 0x24FD JUMP JUMPDEST POP DUP6 DUP3 LT ISZERO PUSH2 0x253A JUMPI DUP8 DUP6 ADD MLOAD PUSH1 0x0 NOT PUSH1 0x3 DUP9 SWAP1 SHL PUSH1 0xF8 AND SHR NOT AND DUP2 SSTORE JUMPDEST POP POP POP POP POP PUSH1 0x1 SWAP1 DUP2 SHL ADD SWAP1 SSTORE POP JUMP JUMPDEST PUSH1 0x0 PUSH1 0x20 DUP3 DUP5 SUB SLT ISZERO PUSH2 0x255C JUMPI PUSH1 0x0 DUP1 REVERT JUMPDEST DUP2 MLOAD PUSH8 0xFFFFFFFFFFFFFFFF DUP2 GT ISZERO PUSH2 0x2573 JUMPI PUSH1 0x0 DUP1 REVERT JUMPDEST DUP3 ADD PUSH1 0x1F DUP2 ADD DUP5 SGT PUSH2 0x2584 JUMPI PUSH1 0x0 DUP1 REVERT JUMPDEST DUP1 MLOAD PUSH2 0x2592 PUSH2 0x21FE DUP3 PUSH2 0x21B7 JUMP JUMPDEST DUP2 DUP2 MSTORE DUP6 PUSH1 0x20 DUP4 DUP6 ADD ADD GT ISZERO PUSH2 0x25A7 JUMPI PUSH1 0x0 DUP1 REVERT JUMPDEST PUSH2 0x25B8 DUP3 PUSH1 0x20 DUP4 ADD PUSH1 0x20 DUP7 ADD PUSH2 0x1EF5 JUMP JUMPDEST SWAP6 SWAP5 POP POP POP POP POP JUMP JUMPDEST PUSH1 0x0 DUP6 MLOAD PUSH2 0x25D3 DUP2 DUP5 PUSH1 0x20 DUP11 ADD PUSH2 0x1EF5 JUMP JUMPDEST DUP6 MLOAD SWAP1 DUP4 ADD SWAP1 PUSH2 0x25E7 DUP2 DUP4 PUSH1 0x20 DUP11 ADD PUSH2 0x1EF5 JUMP JUMPDEST PUSH32 0x2F00000000000000000000000000000000000000000000000000000000000000 SWAP2 ADD DUP2 DUP2 MSTORE DUP6 MLOAD SWAP1 SWAP2 SWAP1 PUSH2 0x2623 DUP2 PUSH1 0x1 DUP6 ADD PUSH1 0x20 DUP11 ADD PUSH2 0x1EF5 JUMP JUMPDEST PUSH1 0x1 SWAP3 ADD SWAP2 DUP3 ADD MSTORE DUP4 MLOAD PUSH2 0x263E DUP2 PUSH1 0x2 DUP5 ADD PUSH1 0x20 DUP9 ADD PUSH2 0x1EF5 JUMP JUMPDEST ADD PUSH1 0x2 ADD SWAP7 SWAP6 POP POP POP POP POP POP JUMP JUMPDEST DUP1 DUP3 ADD DUP1 DUP3 GT ISZERO PUSH2 0x859 JUMPI PUSH2 0x859 PUSH2 0x23D4 JUMP JUMPDEST PUSH4 0x4E487B71 PUSH1 0xE0 SHL PUSH1 0x0 MSTORE PUSH1 0x32 PUSH1 0x4 MSTORE PUSH1 0x24 PUSH1 0x0 REVERT JUMPDEST PUSH1 0x0 DUP2 PUSH2 0x2684 JUMPI PUSH2 0x2684 PUSH2 0x23D4 JUMP JUMPDEST POP PUSH1 0x0 NOT ADD SWAP1 JUMP JUMPDEST PUSH1 0x0 PUSH1 0x1 DUP3 ADD PUSH2 0x269E JUMPI PUSH2 0x269E PUSH2 0x23D4 JUMP JUMPDEST POP PUSH1 0x1 ADD SWAP1 JUMP JUMPDEST PUSH1 0x0 PUSH1 0x1 PUSH1 0x1 PUSH1 0xA0 SHL SUB DUP1 DUP8 AND DUP4 MSTORE DUP1 DUP7 AND PUSH1 0x20 DUP5 ADD MSTORE POP DUP4 PUSH1 0x40 DUP4 ADD MSTORE PUSH1 0x80 PUSH1 0x60 DUP4 ADD MSTORE PUSH2 0x26D7 PUSH1 0x80 DUP4 ADD DUP5 PUSH2 0x1F19 JUMP JUMPDEST SWAP7 SWAP6 POP POP POP POP POP POP JUMP JUMPDEST PUSH1 0x0 PUSH1 0x20 DUP3 DUP5 SUB SLT ISZERO PUSH2 0x26F3 JUMPI PUSH1 0x0 DUP1 REVERT JUMPDEST DUP2 MLOAD PUSH2 0x16C5 DUP2 PUSH2 0x1EC2 JUMP INVALID LOG2 PUSH5 0x6970667358 0x22 SLT KECCAK256 0x5D 0xD2 0x28 PUSH5 0xB21E27A73A SMOD CALLCODE 0xEF PUSH28 0x359E091E08FDE974762D179E3F0FA30F7F97D864736F6C6343000811 STOP CALLER "},"methodIdentifiers":{"addModerator(address,bool)":"336df106","balanceOf(address)":"70a08231","changeEventInfo((uint32,uint256,uint256,uint256,uint256,uint256,string,bytes32,bytes32,bool,bool))":"666f77b6","changeWhitelistRoot(bytes32)":"c6a7cbc9","checkIn(address)":"d9a59e33","checkedParticipantCount()":"7de33aec","checkedParticipants(address)":"fe1e2f51","description()":"7284e416","end()":"efbe1c1c","getEventInfo(uint256)":"1d645b12","getRegistrationOpen(uint256)":"ead12111","image()":"f3ccaac0","link()":"1c4695f4","location()":"516f279e","maxParticipants()":"24924bf7","moderators(address)":"14d0f1ba","name()":"06fdde03","onlyWhitelistRegistration()":"c7cac600","owner()":"8da5cb5b","ownerOf(uint256)":"6352211e","parentContractAddr()":"8818ed38","parentContractFee()":"00f4494f","participants(address)":"09e69ede","preSaleTicketPrice()":"8121e42d","publicRegister()":"f34094a7","registeredParticipantCount()":"c4625ba3","registrationEnd()":"13446a75","registrationOpen()":"736f88cd","renounceOwnership()":"715018a6","start()":"be9a6555","supportsInterface(bytes4)":"01ffc9a7","symbol()":"95d89b41","ticketPrice()":"1209b1f6","tokenURI(uint256)":"c87b56dd","totalSupply()":"18160ddd","transferOwnership(address)":"f2fde38b","verifyTicket(address)":"158c6134","whitelistRegister(bytes32[])":"c025e686","whitelistRoot()":"386bfc98","withdraw()":"3ccfd60b"}}}}}