{"contracts/EventCreator.sol":{"EventCreator":{"abi":[{"inputs":[],"name":"TransferFailed","type":"error"},{"anonymous":false,"inputs":[{"indexed":false,"internalType":"address","name":"addr","type":"address"}],"name":"EventCreated","type":"event"},{"anonymous":false,"inputs":[{"indexed":true,"internalType":"address","name":"previousOwner","type":"address"},{"indexed":true,"internalType":"address","name":"newOwner","type":"address"}],"name":"OwnershipTransferred","type":"event"},{"inputs":[{"components":[{"internalType":"string","name":"name","type":"string"},{"internalType":"string","name":"description","type":"string"},{"internalType":"string","name":"link","type":"string"},{"internalType":"uint256","name":"maxParticipants","type":"uint256"},{"internalType":"uint256","name":"registrationEnd","type":"uint256"},{"internalType":"uint256","name":"start","type":"uint256"},{"internalType":"uint256","name":"end","type":"uint256"},{"internalType":"uint256","name":"ticketPrice","type":"uint256"},{"internalType":"uint256","name":"preSaleTicketPrice","type":"uint256"}],"internalType":"struct Utils.EventStruct","name":"_eventData","type":"tuple"}],"name":"createEvent","outputs":[{"internalType":"address","name":"","type":"address"}],"stateMutability":"nonpayable","type":"function"},{"inputs":[{"internalType":"uint256","name":"","type":"uint256"}],"name":"events","outputs":[{"internalType":"address","name":"","type":"address"}],"stateMutability":"view","type":"function"},{"inputs":[],"name":"fee","outputs":[{"internalType":"uint256","name":"","type":"uint256"}],"stateMutability":"view","type":"function"},{"inputs":[{"internalType":"uint256","name":"offset","type":"uint256"},{"internalType":"uint256","name":"limit","type":"uint256"},{"internalType":"uint256","name":"currTimestamp","type":"uint256"}],"name":"getEvents","outputs":[{"components":[{"internalType":"string","name":"name","type":"string"},{"internalType":"string","name":"description","type":"string"},{"internalType":"string","name":"link","type":"string"},{"internalType":"uint256","name":"maxParticipants","type":"uint256"},{"internalType":"uint256","name":"registrationEnd","type":"uint256"},{"internalType":"uint256","name":"start","type":"uint256"},{"internalType":"uint256","name":"end","type":"uint256"},{"internalType":"uint256","name":"ticketPrice","type":"uint256"},{"internalType":"uint256","name":"preSaleTicketPrice","type":"uint256"},{"internalType":"uint256","name":"registeredParticipantCount","type":"uint256"},{"internalType":"uint256","name":"checkedParticipantCount","type":"uint256"},{"internalType":"bool","name":"registrationOpen","type":"bool"},{"internalType":"bool","name":"onlyWhitelistRegistration","type":"bool"},{"internalType":"bool","name":"isRegistered","type":"bool"},{"internalType":"bool","name":"isChecked","type":"bool"},{"internalType":"address","name":"addr","type":"address"}],"internalType":"struct Utils.EventInfoStruct[]","name":"","type":"tuple[]"}],"stateMutability":"view","type":"function"},{"inputs":[],"name":"owner","outputs":[{"internalType":"address","name":"","type":"address"}],"stateMutability":"view","type":"function"},{"inputs":[],"name":"renounceOwnership","outputs":[],"stateMutability":"nonpayable","type":"function"},{"inputs":[{"internalType":"address","name":"newOwner","type":"address"}],"name":"transferOwnership","outputs":[],"stateMutability":"nonpayable","type":"function"},{"inputs":[],"name":"withdraw","outputs":[],"stateMutability":"nonpayable","type":"function"}],"evm":{"bytecode":{"linkReferences":{},"object":"6080604052600160025534801561001557600080fd5b5061003261002761003760201b60201c565b61003f60201b60201c565b610103565b600033905090565b60008060009054906101000a900473ffffffffffffffffffffffffffffffffffffffff169050816000806101000a81548173ffffffffffffffffffffffffffffffffffffffff021916908373ffffffffffffffffffffffffffffffffffffffff1602179055508173ffffffffffffffffffffffffffffffffffffffff168173ffffffffffffffffffffffffffffffffffffffff167f8be0079c531659141344cd1fd0a4f28419497f9722a3daafe3b4186f6b6457e060405160405180910390a35050565b614ae3806101126000396000f3fe60806040523480156200001157600080fd5b5060043610620000945760003560e01c8063715018a61162000063578063715018a614620001475780638da5cb5b1462000153578063ddca3f431462000175578063f2fde38b14620001975762000094565b80630b79143014620000995780630ea4e6a014620000cf5780632261dca414620001055780633ccfd60b146200013b575b600080fd5b620000b76004803603810190620000b19190620008f3565b620001b7565b604051620000c691906200096a565b60405180910390f35b620000ed6004803603810190620000e7919062000987565b620001f7565b604051620000fc919062000d1c565b60405180910390f35b6200012360048036038101906200011d919062000d68565b62000452565b6040516200013291906200096a565b60405180910390f35b620001456200053b565b005b62000151620005d9565b005b6200015d620005f1565b6040516200016c91906200096a565b60405180910390f35b6200017f6200061a565b6040516200018e919062000dca565b60405180910390f35b620001b56004803603810190620001af919062000e18565b62000620565b005b60018181548110620001c857600080fd5b906000526020600020016000915054906101000a900473ffffffffffffffffffffffffffffffffffffffff1681565b60606000600180549050905060008060008388106200021a57600092506200024b565b86888562000229919062000e79565b1015620002465787846200023e919062000e79565b92506200024a565b8692505b5b60008367ffffffffffffffff8111156200026a576200026962000eb4565b5b604051908082528060200260200182016040528015620002a757816020015b62000293620007fb565b815260200190600190039081620002895790505b50905060008403620002c15780955050505050506200044b565b8385620002cf919062000e79565b92506000841115620002ed57600184620002ea919062000e79565b91505b60008290505b600115620004415760006001828154811062000314576200031362000ee3565b5b9060005260206000200160009054906101000a900473ffffffffffffffffffffffffffffffffffffffff1690508073ffffffffffffffffffffffffffffffffffffffff16631d645b128a6040518263ffffffff1660e01b81526004016200037c919062000dca565b600060405180830381865afa1580156200039a573d6000803e3d6000fd5b505050506040513d6000823e3d601f19601f82011682018060405250810190620003c591906200128a565b838386620003d4919062000e79565b81518110620003e857620003e762000ee3565b5b602002602001018190525060018662000402919062000e79565b828562000410919062000e79565b14806200041d5750600082145b156200042a575062000441565b81806200043790620012db565b92505050620002f3565b8196505050505050505b9392505050565b6000808233600254604051620004689062000896565b620004769392919062001524565b604051809103906000f08015801562000493573d6000803e3d6000fd5b5090506001819080600181540180825580915050600190039060005260206000200160009091909190916101000a81548173ffffffffffffffffffffffffffffffffffffffff021916908373ffffffffffffffffffffffffffffffffffffffff1602179055507ffc8a4c0621b9788c4dbe57053a51ce2d22625a067d039f38004df2a07ca755a4816040516200052a91906200096a565b60405180910390a180915050919050565b62000545620006aa565b60004790506000810362000585576040517f90b8ec1800000000000000000000000000000000000000000000000000000000815260040160405180910390fd5b6200058f620005f1565b73ffffffffffffffffffffffffffffffffffffffff166108fc829081150290604051600060405180830381858888f19350505050158015620005d5573d6000803e3d6000fd5b5050565b620005e3620006aa565b620005ef60006200072f565b565b60008060009054906101000a900473ffffffffffffffffffffffffffffffffffffffff16905090565b60025481565b6200062a620006aa565b600073ffffffffffffffffffffffffffffffffffffffff168173ffffffffffffffffffffffffffffffffffffffff16036200069c576040517f08c379a00000000000000000000000000000000000000000000000000000000081526004016200069390620015ef565b60405180910390fd5b620006a7816200072f565b50565b620006b4620007f3565b73ffffffffffffffffffffffffffffffffffffffff16620006d4620005f1565b73ffffffffffffffffffffffffffffffffffffffff16146200072d576040517f08c379a0000000000000000000000000000000000000000000000000000000008152600401620007249062001661565b60405180910390fd5b565b60008060009054906101000a900473ffffffffffffffffffffffffffffffffffffffff169050816000806101000a81548173ffffffffffffffffffffffffffffffffffffffff021916908373ffffffffffffffffffffffffffffffffffffffff1602179055508173ffffffffffffffffffffffffffffffffffffffff168173ffffffffffffffffffffffffffffffffffffffff167f8be0079c531659141344cd1fd0a4f28419497f9722a3daafe3b4186f6b6457e060405160405180910390a35050565b600033905090565b6040518061020001604052806060815260200160608152602001606081526020016000815260200160008152602001600081526020016000815260200160008152602001600081526020016000815260200160008152602001600015158152602001600015158152602001600015158152602001600015158152602001600073ffffffffffffffffffffffffffffffffffffffff1681525090565b61342a806200168483390190565b6000604051905090565b600080fd5b600080fd5b6000819050919050565b620008cd81620008b8565b8114620008d957600080fd5b50565b600081359050620008ed81620008c2565b92915050565b6000602082840312156200090c576200090b620008ae565b5b60006200091c84828501620008dc565b91505092915050565b600073ffffffffffffffffffffffffffffffffffffffff82169050919050565b6000620009528262000925565b9050919050565b620009648162000945565b82525050565b600060208201905062000981600083018462000959565b92915050565b600080600060608486031215620009a357620009a2620008ae565b5b6000620009b386828701620008dc565b9350506020620009c686828701620008dc565b9250506040620009d986828701620008dc565b9150509250925092565b600081519050919050565b600082825260208201905092915050565b6000819050602082019050919050565b600081519050919050565b600082825260208201905092915050565b60005b8381101562000a4b57808201518184015260208101905062000a2e565b8381111562000a5b576000848401525b50505050565b6000601f19601f8301169050919050565b600062000a7f8262000a0f565b62000a8b818562000a1a565b935062000a9d81856020860162000a2b565b62000aa88162000a61565b840191505092915050565b62000abe81620008b8565b82525050565b60008115159050919050565b62000adb8162000ac4565b82525050565b62000aec8162000945565b82525050565b600061020083016000830151848203600086015262000b12828262000a72565b9150506020830151848203602086015262000b2e828262000a72565b9150506040830151848203604086015262000b4a828262000a72565b915050606083015162000b61606086018262000ab3565b50608083015162000b76608086018262000ab3565b5060a083015162000b8b60a086018262000ab3565b5060c083015162000ba060c086018262000ab3565b5060e083015162000bb560e086018262000ab3565b5061010083015162000bcc61010086018262000ab3565b5061012083015162000be361012086018262000ab3565b5061014083015162000bfa61014086018262000ab3565b5061016083015162000c1161016086018262000ad0565b5061018083015162000c2861018086018262000ad0565b506101a083015162000c3f6101a086018262000ad0565b506101c083015162000c566101c086018262000ad0565b506101e083015162000c6d6101e086018262000ae1565b508091505092915050565b600062000c86838362000af2565b905092915050565b6000602082019050919050565b600062000ca882620009e3565b62000cb48185620009ee565b93508360208202850162000cc885620009ff565b8060005b8581101562000d0a578484038952815162000ce8858262000c78565b945062000cf58362000c8e565b925060208a0199505060018101905062000ccc565b50829750879550505050505092915050565b6000602082019050818103600083015262000d38818462000c9b565b905092915050565b600080fd5b6000610120828403121562000d5f5762000d5e62000d40565b5b81905092915050565b60006020828403121562000d815762000d80620008ae565b5b600082013567ffffffffffffffff81111562000da25762000da1620008b3565b5b62000db08482850162000d45565b91505092915050565b62000dc481620008b8565b82525050565b600060208201905062000de1600083018462000db9565b92915050565b62000df28162000945565b811462000dfe57600080fd5b50565b60008135905062000e128162000de7565b92915050565b60006020828403121562000e315762000e30620008ae565b5b600062000e418482850162000e01565b91505092915050565b7f4e487b7100000000000000000000000000000000000000000000000000000000600052601160045260246000fd5b600062000e8682620008b8565b915062000e9383620008b8565b92508282101562000ea95762000ea862000e4a565b5b828203905092915050565b7f4e487b7100000000000000000000000000000000000000000000000000000000600052604160045260246000fd5b7f4e487b7100000000000000000000000000000000000000000000000000000000600052603260045260246000fd5b600080fd5b62000f228262000a61565b810181811067ffffffffffffffff8211171562000f445762000f4362000eb4565b5b80604052505050565b600062000f59620008a4565b905062000f67828262000f17565b919050565b600080fd5b600080fd5b600080fd5b600067ffffffffffffffff82111562000f995762000f9862000eb4565b5b62000fa48262000a61565b9050602081019050919050565b600062000fc862000fc28462000f7b565b62000f4d565b90508281526020810184848401111562000fe75762000fe662000f76565b5b62000ff484828562000a2b565b509392505050565b600082601f83011262001014576200101362000f71565b5b81516200102684826020860162000fb1565b91505092915050565b6000815190506200104081620008c2565b92915050565b620010518162000ac4565b81146200105d57600080fd5b50565b600081519050620010718162001046565b92915050565b600081519050620010888162000de7565b92915050565b60006102008284031215620010a857620010a762000f12565b5b620010b561020062000f4d565b9050600082015167ffffffffffffffff811115620010d857620010d762000f6c565b5b620010e68482850162000ffc565b600083015250602082015167ffffffffffffffff8111156200110d576200110c62000f6c565b5b6200111b8482850162000ffc565b602083015250604082015167ffffffffffffffff81111562001142576200114162000f6c565b5b620011508482850162000ffc565b604083015250606062001166848285016200102f565b60608301525060806200117c848285016200102f565b60808301525060a062001192848285016200102f565b60a08301525060c0620011a8848285016200102f565b60c08301525060e0620011be848285016200102f565b60e083015250610100620011d5848285016200102f565b61010083015250610120620011ed848285016200102f565b6101208301525061014062001205848285016200102f565b610140830152506101606200121d8482850162001060565b61016083015250610180620012358482850162001060565b610180830152506101a06200124d8482850162001060565b6101a0830152506101c0620012658482850162001060565b6101c0830152506101e06200127d8482850162001077565b6101e08301525092915050565b600060208284031215620012a357620012a2620008ae565b5b600082015167ffffffffffffffff811115620012c457620012c3620008b3565b5b620012d2848285016200108e565b91505092915050565b6000620012e882620008b8565b915060008203620012fe57620012fd62000e4a565b5b600182039050919050565b600080fd5b600080fd5b600080fd5b6000808335600160200384360303811262001338576200133762001313565b5b83810192508235915060208301925067ffffffffffffffff82111562001363576200136262001309565b5b6001820236038413156200137c576200137b6200130e565b5b509250929050565b82818337600083830152505050565b6000620013a1838562000a1a565b9350620013b083858462001384565b620013bb8362000a61565b840190509392505050565b6000620013d76020840184620008dc565b905092915050565b60006101208301620013f5600084018462001318565b85830360008701526200140a83828462001393565b925050506200141d602084018462001318565b85830360208701526200143283828462001393565b9250505062001445604084018462001318565b85830360408701526200145a83828462001393565b925050506200146d6060840184620013c6565b6200147c606086018262000ab3565b506200148c6080840184620013c6565b6200149b608086018262000ab3565b50620014ab60a0840184620013c6565b620014ba60a086018262000ab3565b50620014ca60c0840184620013c6565b620014d960c086018262000ab3565b50620014e960e0840184620013c6565b620014f860e086018262000ab3565b5062001509610100840184620013c6565b6200151961010086018262000ab3565b508091505092915050565b60006060820190508181036000830152620015408186620013df565b905062001551602083018562000959565b62001560604083018462000db9565b949350505050565b600082825260208201905092915050565b7f4f776e61626c653a206e6577206f776e657220697320746865207a65726f206160008201527f6464726573730000000000000000000000000000000000000000000000000000602082015250565b6000620015d760268362001568565b9150620015e48262001579565b604082019050919050565b600060208201905081810360008301526200160a81620015c8565b9050919050565b7f4f776e61626c653a2063616c6c6572206973206e6f7420746865206f776e6572600082015250565b60006200164960208362001568565b9150620016568262001611565b602082019050919050565b600060208201905081810360008301526200167c816200163a565b905091905056fe60806040526001600060156101000a81548160ff0219169083151502179055507f16d95910a21726a3e7b59a8c6166b355396434419809cb902e2063555b8d60de60001b600a553480156200005357600080fd5b506040516200342a3803806200342a83398181016040528101906200007991906200086b565b620000996200008d6200020460201b60201c565b6200020c60201b60201c565b60008360a001511480620000b1575060008360c00151145b15620000e9576040517f12d0cf0200000000000000000000000000000000000000000000000000000000815260040160405180910390fd5b8260000151600b90805190602001906200010592919062000420565b508260200151600c90805190602001906200012292919062000420565b508260400151600d90805190602001906200013f92919062000420565b5082606001516001819055508260a001516003819055508260c001516004819055508260e00151600781905550826101000151600881905550600083608001510362000196578260a00151600281905550620001a2565b82608001516002819055505b33601160006101000a81548173ffffffffffffffffffffffffffffffffffffffff021916908373ffffffffffffffffffffffffffffffffffffffff16021790555080600981905550620001fb82620002d060201b60201c565b50505062000a65565b600033905090565b60008060009054906101000a900473ffffffffffffffffffffffffffffffffffffffff169050816000806101000a81548173ffffffffffffffffffffffffffffffffffffffff021916908373ffffffffffffffffffffffffffffffffffffffff1602179055508173ffffffffffffffffffffffffffffffffffffffff168173ffffffffffffffffffffffffffffffffffffffff167f8be0079c531659141344cd1fd0a4f28419497f9722a3daafe3b4186f6b6457e060405160405180910390a35050565b620002e06200036660201b60201c565b600073ffffffffffffffffffffffffffffffffffffffff168173ffffffffffffffffffffffffffffffffffffffff160362000352576040517f08c379a000000000000000000000000000000000000000000000000000000000815260040162000349906200096d565b60405180910390fd5b62000363816200020c60201b60201c565b50565b620003766200020460201b60201c565b73ffffffffffffffffffffffffffffffffffffffff166200039c620003f760201b60201c565b73ffffffffffffffffffffffffffffffffffffffff1614620003f5576040517f08c379a0000000000000000000000000000000000000000000000000000000008152600401620003ec90620009df565b60405180910390fd5b565b60008060009054906101000a900473ffffffffffffffffffffffffffffffffffffffff16905090565b8280546200042e9062000a30565b90600052602060002090601f0160209004810192826200045257600085556200049e565b82601f106200046d57805160ff19168380011785556200049e565b828001600101855582156200049e579182015b828111156200049d57825182559160200191906001019062000480565b5b509050620004ad9190620004b1565b5090565b5b80821115620004cc576000816000905550600101620004b2565b5090565b6000604051905090565b600080fd5b600080fd5b600080fd5b6000601f19601f8301169050919050565b7f4e487b7100000000000000000000000000000000000000000000000000000000600052604160045260246000fd5b6200053482620004e9565b810181811067ffffffffffffffff82111715620005565762000555620004fa565b5b80604052505050565b60006200056b620004d0565b905062000579828262000529565b919050565b600080fd5b600080fd5b600080fd5b600067ffffffffffffffff821115620005ab57620005aa620004fa565b5b620005b682620004e9565b9050602081019050919050565b60005b83811015620005e3578082015181840152602081019050620005c6565b83811115620005f3576000848401525b50505050565b6000620006106200060a846200058d565b6200055f565b9050828152602081018484840111156200062f576200062e62000588565b5b6200063c848285620005c3565b509392505050565b600082601f8301126200065c576200065b62000583565b5b81516200066e848260208601620005f9565b91505092915050565b6000819050919050565b6200068c8162000677565b81146200069857600080fd5b50565b600081519050620006ac8162000681565b92915050565b60006101208284031215620006cc57620006cb620004e4565b5b620006d96101206200055f565b9050600082015167ffffffffffffffff811115620006fc57620006fb6200057e565b5b6200070a8482850162000644565b600083015250602082015167ffffffffffffffff8111156200073157620007306200057e565b5b6200073f8482850162000644565b602083015250604082015167ffffffffffffffff8111156200076657620007656200057e565b5b620007748482850162000644565b60408301525060606200078a848285016200069b565b6060830152506080620007a0848285016200069b565b60808301525060a0620007b6848285016200069b565b60a08301525060c0620007cc848285016200069b565b60c08301525060e0620007e2848285016200069b565b60e083015250610100620007f9848285016200069b565b6101008301525092915050565b600073ffffffffffffffffffffffffffffffffffffffff82169050919050565b6000620008338262000806565b9050919050565b620008458162000826565b81146200085157600080fd5b50565b60008151905062000865816200083a565b92915050565b600080600060608486031215620008875762000886620004da565b5b600084015167ffffffffffffffff811115620008a857620008a7620004df565b5b620008b686828701620006b2565b9350506020620008c98682870162000854565b9250506040620008dc868287016200069b565b9150509250925092565b600082825260208201905092915050565b7f4f776e61626c653a206e6577206f776e657220697320746865207a65726f206160008201527f6464726573730000000000000000000000000000000000000000000000000000602082015250565b600062000955602683620008e6565b91506200096282620008f7565b604082019050919050565b60006020820190508181036000830152620009888162000946565b9050919050565b7f4f776e61626c653a2063616c6c6572206973206e6f7420746865206f776e6572600082015250565b6000620009c7602083620008e6565b9150620009d4826200098f565b602082019050919050565b60006020820190508181036000830152620009fa81620009b8565b9050919050565b7f4e487b7100000000000000000000000000000000000000000000000000000000600052602260045260246000fd5b6000600282049050600182168062000a4957607f821691505b60208210810362000a5f5762000a5e62000a01565b5b50919050565b6129b58062000a756000396000f3fe6080604052600436106101f85760003560e01c80637fd34e921161010d578063c6a7cbc9116100a0578063ead121111161006f578063ead12111146106cd578063efbe1c1c1461070a578063f2fde38b14610735578063f34094a71461075e578063fe1e2f5114610768576101f8565b8063c6a7cbc914610627578063c7cac60014610650578063d9a59e331461067b578063dae076c8146106a4576101f8565b8063be9a6555116100dc578063be9a65551461058c578063bffa3123146105b7578063c025e686146105e0578063c4625ba3146105fc576101f8565b80637fd34e92146104e25780638121e42d1461050b5780638818ed38146105365780638da5cb5b14610561576101f8565b806324924bf7116101905780636c9de4ef1161015f5780636c9de4ef14610421578063715018a61461044a5780637284e41614610461578063736f88cd1461048c5780637de33aec146104b7576101f8565b806324924bf71461038b578063336df106146103b6578063386bfc98146103df5780633ccfd60b1461040a576101f8565b806313446a75116101cc57806313446a75146102bb57806314d0f1ba146102e65780631c4695f4146103235780631d645b121461034e576101f8565b8062f4494f146101fd57806306fdde031461022857806309e69ede146102535780631209b1f614610290575b600080fd5b34801561020957600080fd5b506102126107a5565b60405161021f9190611cc1565b60405180910390f35b34801561023457600080fd5b5061023d6107ab565b60405161024a9190611d75565b60405180910390f35b34801561025f57600080fd5b5061027a60048036038101906102759190611e09565b610839565b6040516102879190611e51565b60405180910390f35b34801561029c57600080fd5b506102a5610859565b6040516102b29190611cc1565b60405180910390f35b3480156102c757600080fd5b506102d061085f565b6040516102dd9190611cc1565b60405180910390f35b3480156102f257600080fd5b5061030d60048036038101906103089190611e09565b610865565b60405161031a9190611e51565b60405180910390f35b34801561032f57600080fd5b50610338610885565b6040516103459190611d75565b60405180910390f35b34801561035a57600080fd5b5061037560048036038101906103709190611e98565b610913565b60405161038291906120a2565b60405180910390f35b34801561039757600080fd5b506103a0610c5a565b6040516103ad9190611cc1565b60405180910390f35b3480156103c257600080fd5b506103dd60048036038101906103d891906120f0565b610c60565b005b3480156103eb57600080fd5b506103f4610cc3565b6040516104019190612149565b60405180910390f35b34801561041657600080fd5b5061041f610cc9565b005b34801561042d57600080fd5b5061044860048036038101906104439190612164565b610ed9565b005b34801561045657600080fd5b5061045f610f19565b005b34801561046d57600080fd5b50610476610f2d565b6040516104839190611d75565b60405180910390f35b34801561049857600080fd5b506104a1610fbb565b6040516104ae9190611e51565b60405180910390f35b3480156104c357600080fd5b506104cc610fce565b6040516104d99190611cc1565b60405180910390f35b3480156104ee57600080fd5b50610509600480360381019061050491906121a4565b610fd4565b005b34801561051757600080fd5b50610520610fee565b60405161052d9190611cc1565b60405180910390f35b34801561054257600080fd5b5061054b610ff4565b60405161055891906121f3565b60405180910390f35b34801561056d57600080fd5b5061057661101a565b60405161058391906121f3565b60405180910390f35b34801561059857600080fd5b506105a1611043565b6040516105ae9190611cc1565b60405180910390f35b3480156105c357600080fd5b506105de60048036038101906105d9919061220e565b611049565b005b6105fa60048036038101906105f591906122c6565b61106b565b005b34801561060857600080fd5b5061061161127a565b60405161061e9190611cc1565b60405180910390f35b34801561063357600080fd5b5061064e6004803603810190610649919061233f565b611280565b005b34801561065c57600080fd5b50610665611292565b6040516106729190611e51565b60405180910390f35b34801561068757600080fd5b506106a2600480360381019061069d9190611e09565b6112a5565b005b3480156106b057600080fd5b506106cb60048036038101906106c6919061249c565b61156a565b005b3480156106d957600080fd5b506106f460048036038101906106ef9190611e98565b6115c4565b6040516107019190612573565b60405180910390f35b34801561071657600080fd5b5061071f61168c565b60405161072c9190611cc1565b60405180910390f35b34801561074157600080fd5b5061075c60048036038101906107579190611e09565b611692565b005b610766611715565b005b34801561077457600080fd5b5061078f600480360381019061078a9190611e09565b6118a5565b60405161079c9190611e51565b60405180910390f35b60095481565b600b80546107b8906125bd565b80601f01602080910402602001604051908101604052809291908181526020018280546107e4906125bd565b80156108315780601f1061080657610100808354040283529160200191610831565b820191906000526020600020905b81548152906001019060200180831161081457829003601f168201915b505050505081565b600e6020528060005260406000206000915054906101000a900460ff1681565b60075481565b60025481565b60106020528060005260406000206000915054906101000a900460ff1681565b600d8054610892906125bd565b80601f01602080910402602001604051908101604052809291908181526020018280546108be906125bd565b801561090b5780601f106108e05761010080835404028352916020019161090b565b820191906000526020600020905b8154815290600101906020018083116108ee57829003601f168201915b505050505081565b61091b611b6a565b610923611b6a565b6003548160a00181815250506004548160c0018181525050600254816080018181525050600b8054610954906125bd565b80601f0160208091040260200160405190810160405280929190818152602001828054610980906125bd565b80156109cd5780601f106109a2576101008083540402835291602001916109cd565b820191906000526020600020905b8154815290600101906020018083116109b057829003601f168201915b50505050508160000181905250600c80546109e7906125bd565b80601f0160208091040260200160405190810160405280929190818152602001828054610a13906125bd565b8015610a605780601f10610a3557610100808354040283529160200191610a60565b820191906000526020600020905b815481529060010190602001808311610a4357829003601f168201915b505050505081602001819052506001548160600181815250506007548160e001818152505060085481610100018181525050600d8054610a9f906125bd565b80601f0160208091040260200160405190810160405280929190818152602001828054610acb906125bd565b8015610b185780601f10610aed57610100808354040283529160200191610b18565b820191906000526020600020905b815481529060010190602001808311610afb57829003601f168201915b505050505081604001819052506000610b30846115c4565b60ff161481610160019015159081151581525050600e60003373ffffffffffffffffffffffffffffffffffffffff1673ffffffffffffffffffffffffffffffffffffffff16815260200190815260200160002060009054906101000a900460ff16816101a0019015159081151581525050600f60003373ffffffffffffffffffffffffffffffffffffffff1673ffffffffffffffffffffffffffffffffffffffff16815260200190815260200160002060009054906101000a900460ff16816101c0019015159081151581525050600554816101200181815250506006548161014001818152505030816101e0019073ffffffffffffffffffffffffffffffffffffffff16908173ffffffffffffffffffffffffffffffffffffffff168152505080915050919050565b60015481565b610c686118c5565b80601060008473ffffffffffffffffffffffffffffffffffffffff1673ffffffffffffffffffffffffffffffffffffffff16815260200190815260200160002060006101000a81548160ff0219169083151502179055505050565b600a5481565b610cd16118c5565b600047905060008103610d10576040517f90b8ec1800000000000000000000000000000000000000000000000000000000815260040160405180910390fd5b60006001905060006009546064610d27919061261d565b905060006009541115610e1357601160009054906101000a900473ffffffffffffffffffffffffffffffffffffffff1673ffffffffffffffffffffffffffffffffffffffff16606484600954610d7d9190612651565b610d8791906126da565b604051610d939061273c565b60006040518083038185875af1925050503d8060008114610dd0576040519150601f19603f3d011682016040523d82523d6000602084013e610dd5565b606091505b50508092505081610e12576040517f90b8ec1800000000000000000000000000000000000000000000000000000000815260040160405180910390fd5b5b610e1b61101a565b73ffffffffffffffffffffffffffffffffffffffff1660648483610e3f9190612651565b610e4991906126da565b604051610e559061273c565b60006040518083038185875af1925050503d8060008114610e92576040519150601f19603f3d011682016040523d82523d6000602084013e610e97565b606091505b50508092505081610ed4576040517f90b8ec1800000000000000000000000000000000000000000000000000000000815260040160405180910390fd5b505050565b610ee16118c5565b81600060156101000a81548160ff02191690831515021790555080600060146101000a81548160ff0219169083151502179055505050565b610f216118c5565b610f2b6000611943565b565b600c8054610f3a906125bd565b80601f0160208091040260200160405190810160405280929190818152602001828054610f66906125bd565b8015610fb35780601f10610f8857610100808354040283529160200191610fb3565b820191906000526020600020905b815481529060010190602001808311610f9657829003601f168201915b505050505081565b600060159054906101000a900460ff1681565b60065481565b610fdc6118c5565b81600781905550806008819055505050565b60085481565b601160009054906101000a900473ffffffffffffffffffffffffffffffffffffffff1681565b60008060009054906101000a900473ffffffffffffffffffffffffffffffffffffffff16905090565b60035481565b6110516118c5565b826003819055508160048190555080600281905550505050565b6000611076426115c4565b905060018160ff16036110b5576040517fa8ab2d2500000000000000000000000000000000000000000000000000000000815260040160405180910390fd5b60028160ff16036110f2576040517f2fc209f300000000000000000000000000000000000000000000000000000000815260040160405180910390fd5b60038160ff160361112f576040517f3a81d6fc00000000000000000000000000000000000000000000000000000000815260040160405180910390fd5b60048160ff160361116c576040517f486fffd200000000000000000000000000000000000000000000000000000000815260040160405180910390fd5b600060149054906101000a900460ff1615806111f957506111f7838380806020026020016040519081016040528093929190818152602001838360200280828437600081840152601f19601f82011690508083019250505050505050600a54336040516020016111dc9190612799565b60405160208183030381529060405280519060200120611a07565b155b15611230576040517fad7acb4700000000000000000000000000000000000000000000000000000000815260040160405180910390fd5b60085434101561126c576040517f791266b600000000000000000000000000000000000000000000000000000000815260040160405180910390fd5b61127533611a1e565b505050565b60055481565b6112886118c5565b80600a8190555050565b600060149054906101000a900460ff1681565b6112ad61101a565b73ffffffffffffffffffffffffffffffffffffffff163373ffffffffffffffffffffffffffffffffffffffff16141580156113325750601060003373ffffffffffffffffffffffffffffffffffffffff1673ffffffffffffffffffffffffffffffffffffffff16815260200190815260200160002060009054906101000a900460ff16155b15611369576040517feaa45d6a00000000000000000000000000000000000000000000000000000000815260040160405180910390fd5b600042905060035481108061137f575060045481115b156113b6576040517f91e3be3900000000000000000000000000000000000000000000000000000000815260040160405180910390fd5b600e60008373ffffffffffffffffffffffffffffffffffffffff1673ffffffffffffffffffffffffffffffffffffffff16815260200190815260200160002060009054906101000a900460ff16611439576040517faba4733900000000000000000000000000000000000000000000000000000000815260040160405180910390fd5b600f60008373ffffffffffffffffffffffffffffffffffffffff1673ffffffffffffffffffffffffffffffffffffffff16815260200190815260200160002060009054906101000a900460ff16156114bd576040517fc98289f000000000000000000000000000000000000000000000000000000000815260040160405180910390fd5b6001600f60008473ffffffffffffffffffffffffffffffffffffffff1673ffffffffffffffffffffffffffffffffffffffff16815260200190815260200160002060006101000a81548160ff02191690831515021790555060016006600082825461152891906127b4565b925050819055507fcbf477e63735f8d27f9b668165862d7c6e84e5650edec70229523db18c2f1efd8260405161155e91906121f3565b60405180910390a15050565b6115726118c5565b83600b9080519060200190611588929190611c05565b5082600c908051906020019061159f929190611c05565b5081600d90805190602001906115b6929190611c05565b508060018190555050505050565b60006003548211156115d95760019050611687565b600060159054906101000a900460ff1615806115f6575060025482115b156116045760029050611687565b600e60003373ffffffffffffffffffffffffffffffffffffffff1673ffffffffffffffffffffffffffffffffffffffff16815260200190815260200160002060009054906101000a900460ff161561165f5760039050611687565b60006001541180156116745750600154600554145b156116825760049050611687565b600090505b919050565b60045481565b61169a6118c5565b600073ffffffffffffffffffffffffffffffffffffffff168173ffffffffffffffffffffffffffffffffffffffff1603611709576040517f08c379a00000000000000000000000000000000000000000000000000000000081526004016117009061287c565b60405180910390fd5b61171281611943565b50565b6000611720426115c4565b905060018160ff160361175f576040517fa8ab2d2500000000000000000000000000000000000000000000000000000000815260040160405180910390fd5b60028160ff160361179c576040517f2fc209f300000000000000000000000000000000000000000000000000000000815260040160405180910390fd5b60038160ff16036117d9576040517f3a81d6fc00000000000000000000000000000000000000000000000000000000815260040160405180910390fd5b60048160ff1603611816576040517f486fffd200000000000000000000000000000000000000000000000000000000815260040160405180910390fd5b600060149054906101000a900460ff161561185d576040517fad7acb4700000000000000000000000000000000000000000000000000000000815260040160405180910390fd5b600754341015611899576040517f791266b600000000000000000000000000000000000000000000000000000000815260040160405180910390fd5b6118a233611a1e565b50565b600f6020528060005260406000206000915054906101000a900460ff1681565b6118cd611aca565b73ffffffffffffffffffffffffffffffffffffffff166118eb61101a565b73ffffffffffffffffffffffffffffffffffffffff1614611941576040517f08c379a0000000000000000000000000000000000000000000000000000000008152600401611938906128e8565b60405180910390fd5b565b60008060009054906101000a900473ffffffffffffffffffffffffffffffffffffffff169050816000806101000a81548173ffffffffffffffffffffffffffffffffffffffff021916908373ffffffffffffffffffffffffffffffffffffffff1602179055508173ffffffffffffffffffffffffffffffffffffffff168173ffffffffffffffffffffffffffffffffffffffff167f8be0079c531659141344cd1fd0a4f28419497f9722a3daafe3b4186f6b6457e060405160405180910390a35050565b600082611a148584611ad2565b1490509392505050565b6001600e60008373ffffffffffffffffffffffffffffffffffffffff1673ffffffffffffffffffffffffffffffffffffffff16815260200190815260200160002060006101000a81548160ff021916908315150217905550600160056000828254611a8991906127b4565b925050819055507fe11711cd714e06fbbbea301a8e90822f2f2ea4808e37e3adf06038f33c53ff2781604051611abf91906121f3565b60405180910390a150565b600033905090565b60008082905060005b8451811015611b1d57611b0882868381518110611afb57611afa612908565b5b6020026020010151611b28565b91508080611b1590612937565b915050611adb565b508091505092915050565b6000818310611b4057611b3b8284611b53565b611b4b565b611b4a8383611b53565b5b905092915050565b600082600052816020526040600020905092915050565b6040518061020001604052806060815260200160608152602001606081526020016000815260200160008152602001600081526020016000815260200160008152602001600081526020016000815260200160008152602001600015158152602001600015158152602001600015158152602001600015158152602001600073ffffffffffffffffffffffffffffffffffffffff1681525090565b828054611c11906125bd565b90600052602060002090601f016020900481019282611c335760008555611c7a565b82601f10611c4c57805160ff1916838001178555611c7a565b82800160010185558215611c7a579182015b82811115611c79578251825591602001919060010190611c5e565b5b509050611c879190611c8b565b5090565b5b80821115611ca4576000816000905550600101611c8c565b5090565b6000819050919050565b611cbb81611ca8565b82525050565b6000602082019050611cd66000830184611cb2565b92915050565b600081519050919050565b600082825260208201905092915050565b60005b83811015611d16578082015181840152602081019050611cfb565b83811115611d25576000848401525b50505050565b6000601f19601f8301169050919050565b6000611d4782611cdc565b611d518185611ce7565b9350611d61818560208601611cf8565b611d6a81611d2b565b840191505092915050565b60006020820190508181036000830152611d8f8184611d3c565b905092915050565b6000604051905090565b600080fd5b600080fd5b600073ffffffffffffffffffffffffffffffffffffffff82169050919050565b6000611dd682611dab565b9050919050565b611de681611dcb565b8114611df157600080fd5b50565b600081359050611e0381611ddd565b92915050565b600060208284031215611e1f57611e1e611da1565b5b6000611e2d84828501611df4565b91505092915050565b60008115159050919050565b611e4b81611e36565b82525050565b6000602082019050611e666000830184611e42565b92915050565b611e7581611ca8565b8114611e8057600080fd5b50565b600081359050611e9281611e6c565b92915050565b600060208284031215611eae57611ead611da1565b5b6000611ebc84828501611e83565b91505092915050565b600082825260208201905092915050565b6000611ee182611cdc565b611eeb8185611ec5565b9350611efb818560208601611cf8565b611f0481611d2b565b840191505092915050565b611f1881611ca8565b82525050565b611f2781611e36565b82525050565b611f3681611dcb565b82525050565b6000610200830160008301518482036000860152611f5a8282611ed6565b91505060208301518482036020860152611f748282611ed6565b91505060408301518482036040860152611f8e8282611ed6565b9150506060830151611fa36060860182611f0f565b506080830151611fb66080860182611f0f565b5060a0830151611fc960a0860182611f0f565b5060c0830151611fdc60c0860182611f0f565b5060e0830151611fef60e0860182611f0f565b50610100830151612004610100860182611f0f565b50610120830151612019610120860182611f0f565b5061014083015161202e610140860182611f0f565b50610160830151612043610160860182611f1e565b50610180830151612058610180860182611f1e565b506101a083015161206d6101a0860182611f1e565b506101c08301516120826101c0860182611f1e565b506101e08301516120976101e0860182611f2d565b508091505092915050565b600060208201905081810360008301526120bc8184611f3c565b905092915050565b6120cd81611e36565b81146120d857600080fd5b50565b6000813590506120ea816120c4565b92915050565b6000806040838503121561210757612106611da1565b5b600061211585828601611df4565b9250506020612126858286016120db565b9150509250929050565b6000819050919050565b61214381612130565b82525050565b600060208201905061215e600083018461213a565b92915050565b6000806040838503121561217b5761217a611da1565b5b6000612189858286016120db565b925050602061219a858286016120db565b9150509250929050565b600080604083850312156121bb576121ba611da1565b5b60006121c985828601611e83565b92505060206121da85828601611e83565b9150509250929050565b6121ed81611dcb565b82525050565b600060208201905061220860008301846121e4565b92915050565b60008060006060848603121561222757612226611da1565b5b600061223586828701611e83565b935050602061224686828701611e83565b925050604061225786828701611e83565b9150509250925092565b600080fd5b600080fd5b600080fd5b60008083601f84011261228657612285612261565b5b8235905067ffffffffffffffff8111156122a3576122a2612266565b5b6020830191508360208202830111156122bf576122be61226b565b5b9250929050565b600080602083850312156122dd576122dc611da1565b5b600083013567ffffffffffffffff8111156122fb576122fa611da6565b5b61230785828601612270565b92509250509250929050565b61231c81612130565b811461232757600080fd5b50565b60008135905061233981612313565b92915050565b60006020828403121561235557612354611da1565b5b60006123638482850161232a565b91505092915050565b600080fd5b7f4e487b7100000000000000000000000000000000000000000000000000000000600052604160045260246000fd5b6123a982611d2b565b810181811067ffffffffffffffff821117156123c8576123c7612371565b5b80604052505050565b60006123db611d97565b90506123e782826123a0565b919050565b600067ffffffffffffffff82111561240757612406612371565b5b61241082611d2b565b9050602081019050919050565b82818337600083830152505050565b600061243f61243a846123ec565b6123d1565b90508281526020810184848401111561245b5761245a61236c565b5b61246684828561241d565b509392505050565b600082601f83011261248357612482612261565b5b813561249384826020860161242c565b91505092915050565b600080600080608085870312156124b6576124b5611da1565b5b600085013567ffffffffffffffff8111156124d4576124d3611da6565b5b6124e08782880161246e565b945050602085013567ffffffffffffffff81111561250157612500611da6565b5b61250d8782880161246e565b935050604085013567ffffffffffffffff81111561252e5761252d611da6565b5b61253a8782880161246e565b925050606061254b87828801611e83565b91505092959194509250565b600060ff82169050919050565b61256d81612557565b82525050565b60006020820190506125886000830184612564565b92915050565b7f4e487b7100000000000000000000000000000000000000000000000000000000600052602260045260246000fd5b600060028204905060018216806125d557607f821691505b6020821081036125e8576125e761258e565b5b50919050565b7f4e487b7100000000000000000000000000000000000000000000000000000000600052601160045260246000fd5b600061262882611ca8565b915061263383611ca8565b925082821015612646576126456125ee565b5b828203905092915050565b600061265c82611ca8565b915061266783611ca8565b9250817fffffffffffffffffffffffffffffffffffffffffffffffffffffffffffffffff04831182151516156126a05761269f6125ee565b5b828202905092915050565b7f4e487b7100000000000000000000000000000000000000000000000000000000600052601260045260246000fd5b60006126e582611ca8565b91506126f083611ca8565b925082612700576126ff6126ab565b5b828204905092915050565b600081905092915050565b50565b600061272660008361270b565b915061273182612716565b600082019050919050565b600061274782612719565b9150819050919050565b60008160601b9050919050565b600061276982612751565b9050919050565b600061277b8261275e565b9050919050565b61279361278e82611dcb565b612770565b82525050565b60006127a58284612782565b60148201915081905092915050565b60006127bf82611ca8565b91506127ca83611ca8565b9250827fffffffffffffffffffffffffffffffffffffffffffffffffffffffffffffffff038211156127ff576127fe6125ee565b5b828201905092915050565b7f4f776e61626c653a206e6577206f776e657220697320746865207a65726f206160008201527f6464726573730000000000000000000000000000000000000000000000000000602082015250565b6000612866602683611ce7565b91506128718261280a565b604082019050919050565b6000602082019050818103600083015261289581612859565b9050919050565b7f4f776e61626c653a2063616c6c6572206973206e6f7420746865206f776e6572600082015250565b60006128d2602083611ce7565b91506128dd8261289c565b602082019050919050565b60006020820190508181036000830152612901816128c5565b9050919050565b7f4e487b7100000000000000000000000000000000000000000000000000000000600052603260045260246000fd5b600061294282611ca8565b91507fffffffffffffffffffffffffffffffffffffffffffffffffffffffffffffffff8203612974576129736125ee565b5b60018201905091905056fea2646970667358221220e75e6aa677a0c17ecc88cd747e188354e8e4ff935646f4ab00a83676afbcad6d64736f6c634300080d0033a2646970667358221220fb48d4ce54dd3dcdd1f7448f7fcd785661a8bcd3cc1fc3217a2bf7073cca3ac664736f6c634300080d0033","opcodes":"PUSH1 0x80 PUSH1 0x40 MSTORE PUSH1 0x1 PUSH1 0x2 SSTORE CALLVALUE DUP1 ISZERO PUSH2 0x15 JUMPI PUSH1 0x0 DUP1 REVERT JUMPDEST POP PUSH2 0x32 PUSH2 0x27 PUSH2 0x37 PUSH1 0x20 SHL PUSH1 0x20 SHR JUMP JUMPDEST PUSH2 0x3F PUSH1 0x20 SHL PUSH1 0x20 SHR JUMP JUMPDEST PUSH2 0x103 JUMP JUMPDEST PUSH1 0x0 CALLER SWAP1 POP SWAP1 JUMP JUMPDEST PUSH1 0x0 DUP1 PUSH1 0x0 SWAP1 SLOAD SWAP1 PUSH2 0x100 EXP SWAP1 DIV PUSH20 0xFFFFFFFFFFFFFFFFFFFFFFFFFFFFFFFFFFFFFFFF AND SWAP1 POP DUP2 PUSH1 0x0 DUP1 PUSH2 0x100 EXP DUP2 SLOAD DUP2 PUSH20 0xFFFFFFFFFFFFFFFFFFFFFFFFFFFFFFFFFFFFFFFF MUL NOT AND SWAP1 DUP4 PUSH20 0xFFFFFFFFFFFFFFFFFFFFFFFFFFFFFFFFFFFFFFFF AND MUL OR SWAP1 SSTORE POP DUP2 PUSH20 0xFFFFFFFFFFFFFFFFFFFFFFFFFFFFFFFFFFFFFFFF AND DUP2 PUSH20 0xFFFFFFFFFFFFFFFFFFFFFFFFFFFFFFFFFFFFFFFF AND PUSH32 0x8BE0079C531659141344CD1FD0A4F28419497F9722A3DAAFE3B4186F6B6457E0 PUSH1 0x40 MLOAD PUSH1 0x40 MLOAD DUP1 SWAP2 SUB SWAP1 LOG3 POP POP JUMP JUMPDEST PUSH2 0x4AE3 DUP1 PUSH2 0x112 PUSH1 0x0 CODECOPY PUSH1 0x0 RETURN INVALID PUSH1 0x80 PUSH1 0x40 MSTORE CALLVALUE DUP1 ISZERO PUSH3 0x11 JUMPI PUSH1 0x0 DUP1 REVERT JUMPDEST POP PUSH1 0x4 CALLDATASIZE LT PUSH3 0x94 JUMPI PUSH1 0x0 CALLDATALOAD PUSH1 0xE0 SHR DUP1 PUSH4 0x715018A6 GT PUSH3 0x63 JUMPI DUP1 PUSH4 0x715018A6 EQ PUSH3 0x147 JUMPI DUP1 PUSH4 0x8DA5CB5B EQ PUSH3 0x153 JUMPI DUP1 PUSH4 0xDDCA3F43 EQ PUSH3 0x175 JUMPI DUP1 PUSH4 0xF2FDE38B EQ PUSH3 0x197 JUMPI PUSH3 0x94 JUMP JUMPDEST DUP1 PUSH4 0xB791430 EQ PUSH3 0x99 JUMPI DUP1 PUSH4 0xEA4E6A0 EQ PUSH3 0xCF JUMPI DUP1 PUSH4 0x2261DCA4 EQ PUSH3 0x105 JUMPI DUP1 PUSH4 0x3CCFD60B EQ PUSH3 0x13B JUMPI JUMPDEST PUSH1 0x0 DUP1 REVERT JUMPDEST PUSH3 0xB7 PUSH1 0x4 DUP1 CALLDATASIZE SUB DUP2 ADD SWAP1 PUSH3 0xB1 SWAP2 SWAP1 PUSH3 0x8F3 JUMP JUMPDEST PUSH3 0x1B7 JUMP JUMPDEST PUSH1 0x40 MLOAD PUSH3 0xC6 SWAP2 SWAP1 PUSH3 0x96A JUMP JUMPDEST PUSH1 0x40 MLOAD DUP1 SWAP2 SUB SWAP1 RETURN JUMPDEST PUSH3 0xED PUSH1 0x4 DUP1 CALLDATASIZE SUB DUP2 ADD SWAP1 PUSH3 0xE7 SWAP2 SWAP1 PUSH3 0x987 JUMP JUMPDEST PUSH3 0x1F7 JUMP JUMPDEST PUSH1 0x40 MLOAD PUSH3 0xFC SWAP2 SWAP1 PUSH3 0xD1C JUMP JUMPDEST PUSH1 0x40 MLOAD DUP1 SWAP2 SUB SWAP1 RETURN JUMPDEST PUSH3 0x123 PUSH1 0x4 DUP1 CALLDATASIZE SUB DUP2 ADD SWAP1 PUSH3 0x11D SWAP2 SWAP1 PUSH3 0xD68 JUMP JUMPDEST PUSH3 0x452 JUMP JUMPDEST PUSH1 0x40 MLOAD PUSH3 0x132 SWAP2 SWAP1 PUSH3 0x96A JUMP JUMPDEST PUSH1 0x40 MLOAD DUP1 SWAP2 SUB SWAP1 RETURN JUMPDEST PUSH3 0x145 PUSH3 0x53B JUMP JUMPDEST STOP JUMPDEST PUSH3 0x151 PUSH3 0x5D9 JUMP JUMPDEST STOP JUMPDEST PUSH3 0x15D PUSH3 0x5F1 JUMP JUMPDEST PUSH1 0x40 MLOAD PUSH3 0x16C SWAP2 SWAP1 PUSH3 0x96A JUMP JUMPDEST PUSH1 0x40 MLOAD DUP1 SWAP2 SUB SWAP1 RETURN JUMPDEST PUSH3 0x17F PUSH3 0x61A JUMP JUMPDEST PUSH1 0x40 MLOAD PUSH3 0x18E SWAP2 SWAP1 PUSH3 0xDCA JUMP JUMPDEST PUSH1 0x40 MLOAD DUP1 SWAP2 SUB SWAP1 RETURN JUMPDEST PUSH3 0x1B5 PUSH1 0x4 DUP1 CALLDATASIZE SUB DUP2 ADD SWAP1 PUSH3 0x1AF SWAP2 SWAP1 PUSH3 0xE18 JUMP JUMPDEST PUSH3 0x620 JUMP JUMPDEST STOP JUMPDEST PUSH1 0x1 DUP2 DUP2 SLOAD DUP2 LT PUSH3 0x1C8 JUMPI PUSH1 0x0 DUP1 REVERT JUMPDEST SWAP1 PUSH1 0x0 MSTORE PUSH1 0x20 PUSH1 0x0 KECCAK256 ADD PUSH1 0x0 SWAP2 POP SLOAD SWAP1 PUSH2 0x100 EXP SWAP1 DIV PUSH20 0xFFFFFFFFFFFFFFFFFFFFFFFFFFFFFFFFFFFFFFFF AND DUP2 JUMP JUMPDEST PUSH1 0x60 PUSH1 0x0 PUSH1 0x1 DUP1 SLOAD SWAP1 POP SWAP1 POP PUSH1 0x0 DUP1 PUSH1 0x0 DUP4 DUP9 LT PUSH3 0x21A JUMPI PUSH1 0x0 SWAP3 POP PUSH3 0x24B JUMP JUMPDEST DUP7 DUP9 DUP6 PUSH3 0x229 SWAP2 SWAP1 PUSH3 0xE79 JUMP JUMPDEST LT ISZERO PUSH3 0x246 JUMPI DUP8 DUP5 PUSH3 0x23E SWAP2 SWAP1 PUSH3 0xE79 JUMP JUMPDEST SWAP3 POP PUSH3 0x24A JUMP JUMPDEST DUP7 SWAP3 POP JUMPDEST JUMPDEST PUSH1 0x0 DUP4 PUSH8 0xFFFFFFFFFFFFFFFF DUP2 GT ISZERO PUSH3 0x26A JUMPI PUSH3 0x269 PUSH3 0xEB4 JUMP JUMPDEST JUMPDEST PUSH1 0x40 MLOAD SWAP1 DUP1 DUP3 MSTORE DUP1 PUSH1 0x20 MUL PUSH1 0x20 ADD DUP3 ADD PUSH1 0x40 MSTORE DUP1 ISZERO PUSH3 0x2A7 JUMPI DUP2 PUSH1 0x20 ADD JUMPDEST PUSH3 0x293 PUSH3 0x7FB JUMP JUMPDEST DUP2 MSTORE PUSH1 0x20 ADD SWAP1 PUSH1 0x1 SWAP1 SUB SWAP1 DUP2 PUSH3 0x289 JUMPI SWAP1 POP JUMPDEST POP SWAP1 POP PUSH1 0x0 DUP5 SUB PUSH3 0x2C1 JUMPI DUP1 SWAP6 POP POP POP POP POP POP PUSH3 0x44B JUMP JUMPDEST DUP4 DUP6 PUSH3 0x2CF SWAP2 SWAP1 PUSH3 0xE79 JUMP JUMPDEST SWAP3 POP PUSH1 0x0 DUP5 GT ISZERO PUSH3 0x2ED JUMPI PUSH1 0x1 DUP5 PUSH3 0x2EA SWAP2 SWAP1 PUSH3 0xE79 JUMP JUMPDEST SWAP2 POP JUMPDEST PUSH1 0x0 DUP3 SWAP1 POP JUMPDEST PUSH1 0x1 ISZERO PUSH3 0x441 JUMPI PUSH1 0x0 PUSH1 0x1 DUP3 DUP2 SLOAD DUP2 LT PUSH3 0x314 JUMPI PUSH3 0x313 PUSH3 0xEE3 JUMP JUMPDEST JUMPDEST SWAP1 PUSH1 0x0 MSTORE PUSH1 0x20 PUSH1 0x0 KECCAK256 ADD PUSH1 0x0 SWAP1 SLOAD SWAP1 PUSH2 0x100 EXP SWAP1 DIV PUSH20 0xFFFFFFFFFFFFFFFFFFFFFFFFFFFFFFFFFFFFFFFF AND SWAP1 POP DUP1 PUSH20 0xFFFFFFFFFFFFFFFFFFFFFFFFFFFFFFFFFFFFFFFF AND PUSH4 0x1D645B12 DUP11 PUSH1 0x40 MLOAD DUP3 PUSH4 0xFFFFFFFF AND PUSH1 0xE0 SHL DUP2 MSTORE PUSH1 0x4 ADD PUSH3 0x37C SWAP2 SWAP1 PUSH3 0xDCA JUMP JUMPDEST PUSH1 0x0 PUSH1 0x40 MLOAD DUP1 DUP4 SUB DUP2 DUP7 GAS STATICCALL ISZERO DUP1 ISZERO PUSH3 0x39A JUMPI RETURNDATASIZE PUSH1 0x0 DUP1 RETURNDATACOPY RETURNDATASIZE PUSH1 0x0 REVERT JUMPDEST POP POP POP POP PUSH1 0x40 MLOAD RETURNDATASIZE PUSH1 0x0 DUP3 RETURNDATACOPY RETURNDATASIZE PUSH1 0x1F NOT PUSH1 0x1F DUP3 ADD AND DUP3 ADD DUP1 PUSH1 0x40 MSTORE POP DUP2 ADD SWAP1 PUSH3 0x3C5 SWAP2 SWAP1 PUSH3 0x128A JUMP JUMPDEST DUP4 DUP4 DUP7 PUSH3 0x3D4 SWAP2 SWAP1 PUSH3 0xE79 JUMP JUMPDEST DUP2 MLOAD DUP2 LT PUSH3 0x3E8 JUMPI PUSH3 0x3E7 PUSH3 0xEE3 JUMP JUMPDEST JUMPDEST PUSH1 0x20 MUL PUSH1 0x20 ADD ADD DUP2 SWAP1 MSTORE POP PUSH1 0x1 DUP7 PUSH3 0x402 SWAP2 SWAP1 PUSH3 0xE79 JUMP JUMPDEST DUP3 DUP6 PUSH3 0x410 SWAP2 SWAP1 PUSH3 0xE79 JUMP JUMPDEST EQ DUP1 PUSH3 0x41D JUMPI POP PUSH1 0x0 DUP3 EQ JUMPDEST ISZERO PUSH3 0x42A JUMPI POP PUSH3 0x441 JUMP JUMPDEST DUP2 DUP1 PUSH3 0x437 SWAP1 PUSH3 0x12DB JUMP JUMPDEST SWAP3 POP POP POP PUSH3 0x2F3 JUMP JUMPDEST DUP2 SWAP7 POP POP POP POP POP POP POP JUMPDEST SWAP4 SWAP3 POP POP POP JUMP JUMPDEST PUSH1 0x0 DUP1 DUP3 CALLER PUSH1 0x2 SLOAD PUSH1 0x40 MLOAD PUSH3 0x468 SWAP1 PUSH3 0x896 JUMP JUMPDEST PUSH3 0x476 SWAP4 SWAP3 SWAP2 SWAP1 PUSH3 0x1524 JUMP JUMPDEST PUSH1 0x40 MLOAD DUP1 SWAP2 SUB SWAP1 PUSH1 0x0 CREATE DUP1 ISZERO DUP1 ISZERO PUSH3 0x493 JUMPI RETURNDATASIZE PUSH1 0x0 DUP1 RETURNDATACOPY RETURNDATASIZE PUSH1 0x0 REVERT JUMPDEST POP SWAP1 POP PUSH1 0x1 DUP2 SWAP1 DUP1 PUSH1 0x1 DUP2 SLOAD ADD DUP1 DUP3 SSTORE DUP1 SWAP2 POP POP PUSH1 0x1 SWAP1 SUB SWAP1 PUSH1 0x0 MSTORE PUSH1 0x20 PUSH1 0x0 KECCAK256 ADD PUSH1 0x0 SWAP1 SWAP2 SWAP1 SWAP2 SWAP1 SWAP2 PUSH2 0x100 EXP DUP2 SLOAD DUP2 PUSH20 0xFFFFFFFFFFFFFFFFFFFFFFFFFFFFFFFFFFFFFFFF MUL NOT AND SWAP1 DUP4 PUSH20 0xFFFFFFFFFFFFFFFFFFFFFFFFFFFFFFFFFFFFFFFF AND MUL OR SWAP1 SSTORE POP PUSH32 0xFC8A4C0621B9788C4DBE57053A51CE2D22625A067D039F38004DF2A07CA755A4 DUP2 PUSH1 0x40 MLOAD PUSH3 0x52A SWAP2 SWAP1 PUSH3 0x96A JUMP JUMPDEST PUSH1 0x40 MLOAD DUP1 SWAP2 SUB SWAP1 LOG1 DUP1 SWAP2 POP POP SWAP2 SWAP1 POP JUMP JUMPDEST PUSH3 0x545 PUSH3 0x6AA JUMP JUMPDEST PUSH1 0x0 SELFBALANCE SWAP1 POP PUSH1 0x0 DUP2 SUB PUSH3 0x585 JUMPI PUSH1 0x40 MLOAD PUSH32 0x90B8EC1800000000000000000000000000000000000000000000000000000000 DUP2 MSTORE PUSH1 0x4 ADD PUSH1 0x40 MLOAD DUP1 SWAP2 SUB SWAP1 REVERT JUMPDEST PUSH3 0x58F PUSH3 0x5F1 JUMP JUMPDEST PUSH20 0xFFFFFFFFFFFFFFFFFFFFFFFFFFFFFFFFFFFFFFFF AND PUSH2 0x8FC DUP3 SWAP1 DUP2 ISZERO MUL SWAP1 PUSH1 0x40 MLOAD PUSH1 0x0 PUSH1 0x40 MLOAD DUP1 DUP4 SUB DUP2 DUP6 DUP9 DUP9 CALL SWAP4 POP POP POP POP ISZERO DUP1 ISZERO PUSH3 0x5D5 JUMPI RETURNDATASIZE PUSH1 0x0 DUP1 RETURNDATACOPY RETURNDATASIZE PUSH1 0x0 REVERT JUMPDEST POP POP JUMP JUMPDEST PUSH3 0x5E3 PUSH3 0x6AA JUMP JUMPDEST PUSH3 0x5EF PUSH1 0x0 PUSH3 0x72F JUMP JUMPDEST JUMP JUMPDEST PUSH1 0x0 DUP1 PUSH1 0x0 SWAP1 SLOAD SWAP1 PUSH2 0x100 EXP SWAP1 DIV PUSH20 0xFFFFFFFFFFFFFFFFFFFFFFFFFFFFFFFFFFFFFFFF AND SWAP1 POP SWAP1 JUMP JUMPDEST PUSH1 0x2 SLOAD DUP2 JUMP JUMPDEST PUSH3 0x62A PUSH3 0x6AA JUMP JUMPDEST PUSH1 0x0 PUSH20 0xFFFFFFFFFFFFFFFFFFFFFFFFFFFFFFFFFFFFFFFF AND DUP2 PUSH20 0xFFFFFFFFFFFFFFFFFFFFFFFFFFFFFFFFFFFFFFFF AND SUB PUSH3 0x69C JUMPI PUSH1 0x40 MLOAD PUSH32 0x8C379A000000000000000000000000000000000000000000000000000000000 DUP2 MSTORE PUSH1 0x4 ADD PUSH3 0x693 SWAP1 PUSH3 0x15EF JUMP JUMPDEST PUSH1 0x40 MLOAD DUP1 SWAP2 SUB SWAP1 REVERT JUMPDEST PUSH3 0x6A7 DUP2 PUSH3 0x72F JUMP JUMPDEST POP JUMP JUMPDEST PUSH3 0x6B4 PUSH3 0x7F3 JUMP JUMPDEST PUSH20 0xFFFFFFFFFFFFFFFFFFFFFFFFFFFFFFFFFFFFFFFF AND PUSH3 0x6D4 PUSH3 0x5F1 JUMP JUMPDEST PUSH20 0xFFFFFFFFFFFFFFFFFFFFFFFFFFFFFFFFFFFFFFFF AND EQ PUSH3 0x72D JUMPI PUSH1 0x40 MLOAD PUSH32 0x8C379A000000000000000000000000000000000000000000000000000000000 DUP2 MSTORE PUSH1 0x4 ADD PUSH3 0x724 SWAP1 PUSH3 0x1661 JUMP JUMPDEST PUSH1 0x40 MLOAD DUP1 SWAP2 SUB SWAP1 REVERT JUMPDEST JUMP JUMPDEST PUSH1 0x0 DUP1 PUSH1 0x0 SWAP1 SLOAD SWAP1 PUSH2 0x100 EXP SWAP1 DIV PUSH20 0xFFFFFFFFFFFFFFFFFFFFFFFFFFFFFFFFFFFFFFFF AND SWAP1 POP DUP2 PUSH1 0x0 DUP1 PUSH2 0x100 EXP DUP2 SLOAD DUP2 PUSH20 0xFFFFFFFFFFFFFFFFFFFFFFFFFFFFFFFFFFFFFFFF MUL NOT AND SWAP1 DUP4 PUSH20 0xFFFFFFFFFFFFFFFFFFFFFFFFFFFFFFFFFFFFFFFF AND MUL OR SWAP1 SSTORE POP DUP2 PUSH20 0xFFFFFFFFFFFFFFFFFFFFFFFFFFFFFFFFFFFFFFFF AND DUP2 PUSH20 0xFFFFFFFFFFFFFFFFFFFFFFFFFFFFFFFFFFFFFFFF AND PUSH32 0x8BE0079C531659141344CD1FD0A4F28419497F9722A3DAAFE3B4186F6B6457E0 PUSH1 0x40 MLOAD PUSH1 0x40 MLOAD DUP1 SWAP2 SUB SWAP1 LOG3 POP POP JUMP JUMPDEST PUSH1 0x0 CALLER SWAP1 POP SWAP1 JUMP JUMPDEST PUSH1 0x40 MLOAD DUP1 PUSH2 0x200 ADD PUSH1 0x40 MSTORE DUP1 PUSH1 0x60 DUP2 MSTORE PUSH1 0x20 ADD PUSH1 0x60 DUP2 MSTORE PUSH1 0x20 ADD PUSH1 0x60 DUP2 MSTORE PUSH1 0x20 ADD PUSH1 0x0 DUP2 MSTORE PUSH1 0x20 ADD PUSH1 0x0 DUP2 MSTORE PUSH1 0x20 ADD PUSH1 0x0 DUP2 MSTORE PUSH1 0x20 ADD PUSH1 0x0 DUP2 MSTORE PUSH1 0x20 ADD PUSH1 0x0 DUP2 MSTORE PUSH1 0x20 ADD PUSH1 0x0 DUP2 MSTORE PUSH1 0x20 ADD PUSH1 0x0 DUP2 MSTORE PUSH1 0x20 ADD PUSH1 0x0 DUP2 MSTORE PUSH1 0x20 ADD PUSH1 0x0 ISZERO ISZERO DUP2 MSTORE PUSH1 0x20 ADD PUSH1 0x0 ISZERO ISZERO DUP2 MSTORE PUSH1 0x20 ADD PUSH1 0x0 ISZERO ISZERO DUP2 MSTORE PUSH1 0x20 ADD PUSH1 0x0 ISZERO ISZERO DUP2 MSTORE PUSH1 0x20 ADD PUSH1 0x0 PUSH20 0xFFFFFFFFFFFFFFFFFFFFFFFFFFFFFFFFFFFFFFFF AND DUP2 MSTORE POP SWAP1 JUMP JUMPDEST PUSH2 0x342A DUP1 PUSH3 0x1684 DUP4 CODECOPY ADD SWAP1 JUMP JUMPDEST PUSH1 0x0 PUSH1 0x40 MLOAD SWAP1 POP SWAP1 JUMP JUMPDEST PUSH1 0x0 DUP1 REVERT JUMPDEST PUSH1 0x0 DUP1 REVERT JUMPDEST PUSH1 0x0 DUP2 SWAP1 POP SWAP2 SWAP1 POP JUMP JUMPDEST PUSH3 0x8CD DUP2 PUSH3 0x8B8 JUMP JUMPDEST DUP2 EQ PUSH3 0x8D9 JUMPI PUSH1 0x0 DUP1 REVERT JUMPDEST POP JUMP JUMPDEST PUSH1 0x0 DUP2 CALLDATALOAD SWAP1 POP PUSH3 0x8ED DUP2 PUSH3 0x8C2 JUMP JUMPDEST SWAP3 SWAP2 POP POP JUMP JUMPDEST PUSH1 0x0 PUSH1 0x20 DUP3 DUP5 SUB SLT ISZERO PUSH3 0x90C JUMPI PUSH3 0x90B PUSH3 0x8AE JUMP JUMPDEST JUMPDEST PUSH1 0x0 PUSH3 0x91C DUP5 DUP3 DUP6 ADD PUSH3 0x8DC JUMP JUMPDEST SWAP2 POP POP SWAP3 SWAP2 POP POP JUMP JUMPDEST PUSH1 0x0 PUSH20 0xFFFFFFFFFFFFFFFFFFFFFFFFFFFFFFFFFFFFFFFF DUP3 AND SWAP1 POP SWAP2 SWAP1 POP JUMP JUMPDEST PUSH1 0x0 PUSH3 0x952 DUP3 PUSH3 0x925 JUMP JUMPDEST SWAP1 POP SWAP2 SWAP1 POP JUMP JUMPDEST PUSH3 0x964 DUP2 PUSH3 0x945 JUMP JUMPDEST DUP3 MSTORE POP POP JUMP JUMPDEST PUSH1 0x0 PUSH1 0x20 DUP3 ADD SWAP1 POP PUSH3 0x981 PUSH1 0x0 DUP4 ADD DUP5 PUSH3 0x959 JUMP JUMPDEST SWAP3 SWAP2 POP POP JUMP JUMPDEST PUSH1 0x0 DUP1 PUSH1 0x0 PUSH1 0x60 DUP5 DUP7 SUB SLT ISZERO PUSH3 0x9A3 JUMPI PUSH3 0x9A2 PUSH3 0x8AE JUMP JUMPDEST JUMPDEST PUSH1 0x0 PUSH3 0x9B3 DUP7 DUP3 DUP8 ADD PUSH3 0x8DC JUMP JUMPDEST SWAP4 POP POP PUSH1 0x20 PUSH3 0x9C6 DUP7 DUP3 DUP8 ADD PUSH3 0x8DC JUMP JUMPDEST SWAP3 POP POP PUSH1 0x40 PUSH3 0x9D9 DUP7 DUP3 DUP8 ADD PUSH3 0x8DC JUMP JUMPDEST SWAP2 POP POP SWAP3 POP SWAP3 POP SWAP3 JUMP JUMPDEST PUSH1 0x0 DUP2 MLOAD SWAP1 POP SWAP2 SWAP1 POP JUMP JUMPDEST PUSH1 0x0 DUP3 DUP3 MSTORE PUSH1 0x20 DUP3 ADD SWAP1 POP SWAP3 SWAP2 POP POP JUMP JUMPDEST PUSH1 0x0 DUP2 SWAP1 POP PUSH1 0x20 DUP3 ADD SWAP1 POP SWAP2 SWAP1 POP JUMP JUMPDEST PUSH1 0x0 DUP2 MLOAD SWAP1 POP SWAP2 SWAP1 POP JUMP JUMPDEST PUSH1 0x0 DUP3 DUP3 MSTORE PUSH1 0x20 DUP3 ADD SWAP1 POP SWAP3 SWAP2 POP POP JUMP JUMPDEST PUSH1 0x0 JUMPDEST DUP4 DUP2 LT ISZERO PUSH3 0xA4B JUMPI DUP1 DUP3 ADD MLOAD DUP2 DUP5 ADD MSTORE PUSH1 0x20 DUP2 ADD SWAP1 POP PUSH3 0xA2E JUMP JUMPDEST DUP4 DUP2 GT ISZERO PUSH3 0xA5B JUMPI PUSH1 0x0 DUP5 DUP5 ADD MSTORE JUMPDEST POP POP POP POP JUMP JUMPDEST PUSH1 0x0 PUSH1 0x1F NOT PUSH1 0x1F DUP4 ADD AND SWAP1 POP SWAP2 SWAP1 POP JUMP JUMPDEST PUSH1 0x0 PUSH3 0xA7F DUP3 PUSH3 0xA0F JUMP JUMPDEST PUSH3 0xA8B DUP2 DUP6 PUSH3 0xA1A JUMP JUMPDEST SWAP4 POP PUSH3 0xA9D DUP2 DUP6 PUSH1 0x20 DUP7 ADD PUSH3 0xA2B JUMP JUMPDEST PUSH3 0xAA8 DUP2 PUSH3 0xA61 JUMP JUMPDEST DUP5 ADD SWAP2 POP POP SWAP3 SWAP2 POP POP JUMP JUMPDEST PUSH3 0xABE DUP2 PUSH3 0x8B8 JUMP JUMPDEST DUP3 MSTORE POP POP JUMP JUMPDEST PUSH1 0x0 DUP2 ISZERO ISZERO SWAP1 POP SWAP2 SWAP1 POP JUMP JUMPDEST PUSH3 0xADB DUP2 PUSH3 0xAC4 JUMP JUMPDEST DUP3 MSTORE POP POP JUMP JUMPDEST PUSH3 0xAEC DUP2 PUSH3 0x945 JUMP JUMPDEST DUP3 MSTORE POP POP JUMP JUMPDEST PUSH1 0x0 PUSH2 0x200 DUP4 ADD PUSH1 0x0 DUP4 ADD MLOAD DUP5 DUP3 SUB PUSH1 0x0 DUP7 ADD MSTORE PUSH3 0xB12 DUP3 DUP3 PUSH3 0xA72 JUMP JUMPDEST SWAP2 POP POP PUSH1 0x20 DUP4 ADD MLOAD DUP5 DUP3 SUB PUSH1 0x20 DUP7 ADD MSTORE PUSH3 0xB2E DUP3 DUP3 PUSH3 0xA72 JUMP JUMPDEST SWAP2 POP POP PUSH1 0x40 DUP4 ADD MLOAD DUP5 DUP3 SUB PUSH1 0x40 DUP7 ADD MSTORE PUSH3 0xB4A DUP3 DUP3 PUSH3 0xA72 JUMP JUMPDEST SWAP2 POP POP PUSH1 0x60 DUP4 ADD MLOAD PUSH3 0xB61 PUSH1 0x60 DUP7 ADD DUP3 PUSH3 0xAB3 JUMP JUMPDEST POP PUSH1 0x80 DUP4 ADD MLOAD PUSH3 0xB76 PUSH1 0x80 DUP7 ADD DUP3 PUSH3 0xAB3 JUMP JUMPDEST POP PUSH1 0xA0 DUP4 ADD MLOAD PUSH3 0xB8B PUSH1 0xA0 DUP7 ADD DUP3 PUSH3 0xAB3 JUMP JUMPDEST POP PUSH1 0xC0 DUP4 ADD MLOAD PUSH3 0xBA0 PUSH1 0xC0 DUP7 ADD DUP3 PUSH3 0xAB3 JUMP JUMPDEST POP PUSH1 0xE0 DUP4 ADD MLOAD PUSH3 0xBB5 PUSH1 0xE0 DUP7 ADD DUP3 PUSH3 0xAB3 JUMP JUMPDEST POP PUSH2 0x100 DUP4 ADD MLOAD PUSH3 0xBCC PUSH2 0x100 DUP7 ADD DUP3 PUSH3 0xAB3 JUMP JUMPDEST POP PUSH2 0x120 DUP4 ADD MLOAD PUSH3 0xBE3 PUSH2 0x120 DUP7 ADD DUP3 PUSH3 0xAB3 JUMP JUMPDEST POP PUSH2 0x140 DUP4 ADD MLOAD PUSH3 0xBFA PUSH2 0x140 DUP7 ADD DUP3 PUSH3 0xAB3 JUMP JUMPDEST POP PUSH2 0x160 DUP4 ADD MLOAD PUSH3 0xC11 PUSH2 0x160 DUP7 ADD DUP3 PUSH3 0xAD0 JUMP JUMPDEST POP PUSH2 0x180 DUP4 ADD MLOAD PUSH3 0xC28 PUSH2 0x180 DUP7 ADD DUP3 PUSH3 0xAD0 JUMP JUMPDEST POP PUSH2 0x1A0 DUP4 ADD MLOAD PUSH3 0xC3F PUSH2 0x1A0 DUP7 ADD DUP3 PUSH3 0xAD0 JUMP JUMPDEST POP PUSH2 0x1C0 DUP4 ADD MLOAD PUSH3 0xC56 PUSH2 0x1C0 DUP7 ADD DUP3 PUSH3 0xAD0 JUMP JUMPDEST POP PUSH2 0x1E0 DUP4 ADD MLOAD PUSH3 0xC6D PUSH2 0x1E0 DUP7 ADD DUP3 PUSH3 0xAE1 JUMP JUMPDEST POP DUP1 SWAP2 POP POP SWAP3 SWAP2 POP POP JUMP JUMPDEST PUSH1 0x0 PUSH3 0xC86 DUP4 DUP4 PUSH3 0xAF2 JUMP JUMPDEST SWAP1 POP SWAP3 SWAP2 POP POP JUMP JUMPDEST PUSH1 0x0 PUSH1 0x20 DUP3 ADD SWAP1 POP SWAP2 SWAP1 POP JUMP JUMPDEST PUSH1 0x0 PUSH3 0xCA8 DUP3 PUSH3 0x9E3 JUMP JUMPDEST PUSH3 0xCB4 DUP2 DUP6 PUSH3 0x9EE JUMP JUMPDEST SWAP4 POP DUP4 PUSH1 0x20 DUP3 MUL DUP6 ADD PUSH3 0xCC8 DUP6 PUSH3 0x9FF JUMP JUMPDEST DUP1 PUSH1 0x0 JUMPDEST DUP6 DUP2 LT ISZERO PUSH3 0xD0A JUMPI DUP5 DUP5 SUB DUP10 MSTORE DUP2 MLOAD PUSH3 0xCE8 DUP6 DUP3 PUSH3 0xC78 JUMP JUMPDEST SWAP5 POP PUSH3 0xCF5 DUP4 PUSH3 0xC8E JUMP JUMPDEST SWAP3 POP PUSH1 0x20 DUP11 ADD SWAP10 POP POP PUSH1 0x1 DUP2 ADD SWAP1 POP PUSH3 0xCCC JUMP JUMPDEST POP DUP3 SWAP8 POP DUP8 SWAP6 POP POP POP POP POP POP SWAP3 SWAP2 POP POP JUMP JUMPDEST PUSH1 0x0 PUSH1 0x20 DUP3 ADD SWAP1 POP DUP2 DUP2 SUB PUSH1 0x0 DUP4 ADD MSTORE PUSH3 0xD38 DUP2 DUP5 PUSH3 0xC9B JUMP JUMPDEST SWAP1 POP SWAP3 SWAP2 POP POP JUMP JUMPDEST PUSH1 0x0 DUP1 REVERT JUMPDEST PUSH1 0x0 PUSH2 0x120 DUP3 DUP5 SUB SLT ISZERO PUSH3 0xD5F JUMPI PUSH3 0xD5E PUSH3 0xD40 JUMP JUMPDEST JUMPDEST DUP2 SWAP1 POP SWAP3 SWAP2 POP POP JUMP JUMPDEST PUSH1 0x0 PUSH1 0x20 DUP3 DUP5 SUB SLT ISZERO PUSH3 0xD81 JUMPI PUSH3 0xD80 PUSH3 0x8AE JUMP JUMPDEST JUMPDEST PUSH1 0x0 DUP3 ADD CALLDATALOAD PUSH8 0xFFFFFFFFFFFFFFFF DUP2 GT ISZERO PUSH3 0xDA2 JUMPI PUSH3 0xDA1 PUSH3 0x8B3 JUMP JUMPDEST JUMPDEST PUSH3 0xDB0 DUP5 DUP3 DUP6 ADD PUSH3 0xD45 JUMP JUMPDEST SWAP2 POP POP SWAP3 SWAP2 POP POP JUMP JUMPDEST PUSH3 0xDC4 DUP2 PUSH3 0x8B8 JUMP JUMPDEST DUP3 MSTORE POP POP JUMP JUMPDEST PUSH1 0x0 PUSH1 0x20 DUP3 ADD SWAP1 POP PUSH3 0xDE1 PUSH1 0x0 DUP4 ADD DUP5 PUSH3 0xDB9 JUMP JUMPDEST SWAP3 SWAP2 POP POP JUMP JUMPDEST PUSH3 0xDF2 DUP2 PUSH3 0x945 JUMP JUMPDEST DUP2 EQ PUSH3 0xDFE JUMPI PUSH1 0x0 DUP1 REVERT JUMPDEST POP JUMP JUMPDEST PUSH1 0x0 DUP2 CALLDATALOAD SWAP1 POP PUSH3 0xE12 DUP2 PUSH3 0xDE7 JUMP JUMPDEST SWAP3 SWAP2 POP POP JUMP JUMPDEST PUSH1 0x0 PUSH1 0x20 DUP3 DUP5 SUB SLT ISZERO PUSH3 0xE31 JUMPI PUSH3 0xE30 PUSH3 0x8AE JUMP JUMPDEST JUMPDEST PUSH1 0x0 PUSH3 0xE41 DUP5 DUP3 DUP6 ADD PUSH3 0xE01 JUMP JUMPDEST SWAP2 POP POP SWAP3 SWAP2 POP POP JUMP JUMPDEST PUSH32 0x4E487B7100000000000000000000000000000000000000000000000000000000 PUSH1 0x0 MSTORE PUSH1 0x11 PUSH1 0x4 MSTORE PUSH1 0x24 PUSH1 0x0 REVERT JUMPDEST PUSH1 0x0 PUSH3 0xE86 DUP3 PUSH3 0x8B8 JUMP JUMPDEST SWAP2 POP PUSH3 0xE93 DUP4 PUSH3 0x8B8 JUMP JUMPDEST SWAP3 POP DUP3 DUP3 LT ISZERO PUSH3 0xEA9 JUMPI PUSH3 0xEA8 PUSH3 0xE4A JUMP JUMPDEST JUMPDEST DUP3 DUP3 SUB SWAP1 POP SWAP3 SWAP2 POP POP JUMP JUMPDEST PUSH32 0x4E487B7100000000000000000000000000000000000000000000000000000000 PUSH1 0x0 MSTORE PUSH1 0x41 PUSH1 0x4 MSTORE PUSH1 0x24 PUSH1 0x0 REVERT JUMPDEST PUSH32 0x4E487B7100000000000000000000000000000000000000000000000000000000 PUSH1 0x0 MSTORE PUSH1 0x32 PUSH1 0x4 MSTORE PUSH1 0x24 PUSH1 0x0 REVERT JUMPDEST PUSH1 0x0 DUP1 REVERT JUMPDEST PUSH3 0xF22 DUP3 PUSH3 0xA61 JUMP JUMPDEST DUP2 ADD DUP2 DUP2 LT PUSH8 0xFFFFFFFFFFFFFFFF DUP3 GT OR ISZERO PUSH3 0xF44 JUMPI PUSH3 0xF43 PUSH3 0xEB4 JUMP JUMPDEST JUMPDEST DUP1 PUSH1 0x40 MSTORE POP POP POP JUMP JUMPDEST PUSH1 0x0 PUSH3 0xF59 PUSH3 0x8A4 JUMP JUMPDEST SWAP1 POP PUSH3 0xF67 DUP3 DUP3 PUSH3 0xF17 JUMP JUMPDEST SWAP2 SWAP1 POP JUMP JUMPDEST PUSH1 0x0 DUP1 REVERT JUMPDEST PUSH1 0x0 DUP1 REVERT JUMPDEST PUSH1 0x0 DUP1 REVERT JUMPDEST PUSH1 0x0 PUSH8 0xFFFFFFFFFFFFFFFF DUP3 GT ISZERO PUSH3 0xF99 JUMPI PUSH3 0xF98 PUSH3 0xEB4 JUMP JUMPDEST JUMPDEST PUSH3 0xFA4 DUP3 PUSH3 0xA61 JUMP JUMPDEST SWAP1 POP PUSH1 0x20 DUP2 ADD SWAP1 POP SWAP2 SWAP1 POP JUMP JUMPDEST PUSH1 0x0 PUSH3 0xFC8 PUSH3 0xFC2 DUP5 PUSH3 0xF7B JUMP JUMPDEST PUSH3 0xF4D JUMP JUMPDEST SWAP1 POP DUP3 DUP2 MSTORE PUSH1 0x20 DUP2 ADD DUP5 DUP5 DUP5 ADD GT ISZERO PUSH3 0xFE7 JUMPI PUSH3 0xFE6 PUSH3 0xF76 JUMP JUMPDEST JUMPDEST PUSH3 0xFF4 DUP5 DUP3 DUP6 PUSH3 0xA2B JUMP JUMPDEST POP SWAP4 SWAP3 POP POP POP JUMP JUMPDEST PUSH1 0x0 DUP3 PUSH1 0x1F DUP4 ADD SLT PUSH3 0x1014 JUMPI PUSH3 0x1013 PUSH3 0xF71 JUMP JUMPDEST JUMPDEST DUP2 MLOAD PUSH3 0x1026 DUP5 DUP3 PUSH1 0x20 DUP7 ADD PUSH3 0xFB1 JUMP JUMPDEST SWAP2 POP POP SWAP3 SWAP2 POP POP JUMP JUMPDEST PUSH1 0x0 DUP2 MLOAD SWAP1 POP PUSH3 0x1040 DUP2 PUSH3 0x8C2 JUMP JUMPDEST SWAP3 SWAP2 POP POP JUMP JUMPDEST PUSH3 0x1051 DUP2 PUSH3 0xAC4 JUMP JUMPDEST DUP2 EQ PUSH3 0x105D JUMPI PUSH1 0x0 DUP1 REVERT JUMPDEST POP JUMP JUMPDEST PUSH1 0x0 DUP2 MLOAD SWAP1 POP PUSH3 0x1071 DUP2 PUSH3 0x1046 JUMP JUMPDEST SWAP3 SWAP2 POP POP JUMP JUMPDEST PUSH1 0x0 DUP2 MLOAD SWAP1 POP PUSH3 0x1088 DUP2 PUSH3 0xDE7 JUMP JUMPDEST SWAP3 SWAP2 POP POP JUMP JUMPDEST PUSH1 0x0 PUSH2 0x200 DUP3 DUP5 SUB SLT ISZERO PUSH3 0x10A8 JUMPI PUSH3 0x10A7 PUSH3 0xF12 JUMP JUMPDEST JUMPDEST PUSH3 0x10B5 PUSH2 0x200 PUSH3 0xF4D JUMP JUMPDEST SWAP1 POP PUSH1 0x0 DUP3 ADD MLOAD PUSH8 0xFFFFFFFFFFFFFFFF DUP2 GT ISZERO PUSH3 0x10D8 JUMPI PUSH3 0x10D7 PUSH3 0xF6C JUMP JUMPDEST JUMPDEST PUSH3 0x10E6 DUP5 DUP3 DUP6 ADD PUSH3 0xFFC JUMP JUMPDEST PUSH1 0x0 DUP4 ADD MSTORE POP PUSH1 0x20 DUP3 ADD MLOAD PUSH8 0xFFFFFFFFFFFFFFFF DUP2 GT ISZERO PUSH3 0x110D JUMPI PUSH3 0x110C PUSH3 0xF6C JUMP JUMPDEST JUMPDEST PUSH3 0x111B DUP5 DUP3 DUP6 ADD PUSH3 0xFFC JUMP JUMPDEST PUSH1 0x20 DUP4 ADD MSTORE POP PUSH1 0x40 DUP3 ADD MLOAD PUSH8 0xFFFFFFFFFFFFFFFF DUP2 GT ISZERO PUSH3 0x1142 JUMPI PUSH3 0x1141 PUSH3 0xF6C JUMP JUMPDEST JUMPDEST PUSH3 0x1150 DUP5 DUP3 DUP6 ADD PUSH3 0xFFC JUMP JUMPDEST PUSH1 0x40 DUP4 ADD MSTORE POP PUSH1 0x60 PUSH3 0x1166 DUP5 DUP3 DUP6 ADD PUSH3 0x102F JUMP JUMPDEST PUSH1 0x60 DUP4 ADD MSTORE POP PUSH1 0x80 PUSH3 0x117C DUP5 DUP3 DUP6 ADD PUSH3 0x102F JUMP JUMPDEST PUSH1 0x80 DUP4 ADD MSTORE POP PUSH1 0xA0 PUSH3 0x1192 DUP5 DUP3 DUP6 ADD PUSH3 0x102F JUMP JUMPDEST PUSH1 0xA0 DUP4 ADD MSTORE POP PUSH1 0xC0 PUSH3 0x11A8 DUP5 DUP3 DUP6 ADD PUSH3 0x102F JUMP JUMPDEST PUSH1 0xC0 DUP4 ADD MSTORE POP PUSH1 0xE0 PUSH3 0x11BE DUP5 DUP3 DUP6 ADD PUSH3 0x102F JUMP JUMPDEST PUSH1 0xE0 DUP4 ADD MSTORE POP PUSH2 0x100 PUSH3 0x11D5 DUP5 DUP3 DUP6 ADD PUSH3 0x102F JUMP JUMPDEST PUSH2 0x100 DUP4 ADD MSTORE POP PUSH2 0x120 PUSH3 0x11ED DUP5 DUP3 DUP6 ADD PUSH3 0x102F JUMP JUMPDEST PUSH2 0x120 DUP4 ADD MSTORE POP PUSH2 0x140 PUSH3 0x1205 DUP5 DUP3 DUP6 ADD PUSH3 0x102F JUMP JUMPDEST PUSH2 0x140 DUP4 ADD MSTORE POP PUSH2 0x160 PUSH3 0x121D DUP5 DUP3 DUP6 ADD PUSH3 0x1060 JUMP JUMPDEST PUSH2 0x160 DUP4 ADD MSTORE POP PUSH2 0x180 PUSH3 0x1235 DUP5 DUP3 DUP6 ADD PUSH3 0x1060 JUMP JUMPDEST PUSH2 0x180 DUP4 ADD MSTORE POP PUSH2 0x1A0 PUSH3 0x124D DUP5 DUP3 DUP6 ADD PUSH3 0x1060 JUMP JUMPDEST PUSH2 0x1A0 DUP4 ADD MSTORE POP PUSH2 0x1C0 PUSH3 0x1265 DUP5 DUP3 DUP6 ADD PUSH3 0x1060 JUMP JUMPDEST PUSH2 0x1C0 DUP4 ADD MSTORE POP PUSH2 0x1E0 PUSH3 0x127D DUP5 DUP3 DUP6 ADD PUSH3 0x1077 JUMP JUMPDEST PUSH2 0x1E0 DUP4 ADD MSTORE POP SWAP3 SWAP2 POP POP JUMP JUMPDEST PUSH1 0x0 PUSH1 0x20 DUP3 DUP5 SUB SLT ISZERO PUSH3 0x12A3 JUMPI PUSH3 0x12A2 PUSH3 0x8AE JUMP JUMPDEST JUMPDEST PUSH1 0x0 DUP3 ADD MLOAD PUSH8 0xFFFFFFFFFFFFFFFF DUP2 GT ISZERO PUSH3 0x12C4 JUMPI PUSH3 0x12C3 PUSH3 0x8B3 JUMP JUMPDEST JUMPDEST PUSH3 0x12D2 DUP5 DUP3 DUP6 ADD PUSH3 0x108E JUMP JUMPDEST SWAP2 POP POP SWAP3 SWAP2 POP POP JUMP JUMPDEST PUSH1 0x0 PUSH3 0x12E8 DUP3 PUSH3 0x8B8 JUMP JUMPDEST SWAP2 POP PUSH1 0x0 DUP3 SUB PUSH3 0x12FE JUMPI PUSH3 0x12FD PUSH3 0xE4A JUMP JUMPDEST JUMPDEST PUSH1 0x1 DUP3 SUB SWAP1 POP SWAP2 SWAP1 POP JUMP JUMPDEST PUSH1 0x0 DUP1 REVERT JUMPDEST PUSH1 0x0 DUP1 REVERT JUMPDEST PUSH1 0x0 DUP1 REVERT JUMPDEST PUSH1 0x0 DUP1 DUP4 CALLDATALOAD PUSH1 0x1 PUSH1 0x20 SUB DUP5 CALLDATASIZE SUB SUB DUP2 SLT PUSH3 0x1338 JUMPI PUSH3 0x1337 PUSH3 0x1313 JUMP JUMPDEST JUMPDEST DUP4 DUP2 ADD SWAP3 POP DUP3 CALLDATALOAD SWAP2 POP PUSH1 0x20 DUP4 ADD SWAP3 POP PUSH8 0xFFFFFFFFFFFFFFFF DUP3 GT ISZERO PUSH3 0x1363 JUMPI PUSH3 0x1362 PUSH3 0x1309 JUMP JUMPDEST JUMPDEST PUSH1 0x1 DUP3 MUL CALLDATASIZE SUB DUP5 SGT ISZERO PUSH3 0x137C JUMPI PUSH3 0x137B PUSH3 0x130E JUMP JUMPDEST JUMPDEST POP SWAP3 POP SWAP3 SWAP1 POP JUMP JUMPDEST DUP3 DUP2 DUP4 CALLDATACOPY PUSH1 0x0 DUP4 DUP4 ADD MSTORE POP POP POP JUMP JUMPDEST PUSH1 0x0 PUSH3 0x13A1 DUP4 DUP6 PUSH3 0xA1A JUMP JUMPDEST SWAP4 POP PUSH3 0x13B0 DUP4 DUP6 DUP5 PUSH3 0x1384 JUMP JUMPDEST PUSH3 0x13BB DUP4 PUSH3 0xA61 JUMP JUMPDEST DUP5 ADD SWAP1 POP SWAP4 SWAP3 POP POP POP JUMP JUMPDEST PUSH1 0x0 PUSH3 0x13D7 PUSH1 0x20 DUP5 ADD DUP5 PUSH3 0x8DC JUMP JUMPDEST SWAP1 POP SWAP3 SWAP2 POP POP JUMP JUMPDEST PUSH1 0x0 PUSH2 0x120 DUP4 ADD PUSH3 0x13F5 PUSH1 0x0 DUP5 ADD DUP5 PUSH3 0x1318 JUMP JUMPDEST DUP6 DUP4 SUB PUSH1 0x0 DUP8 ADD MSTORE PUSH3 0x140A DUP4 DUP3 DUP5 PUSH3 0x1393 JUMP JUMPDEST SWAP3 POP POP POP PUSH3 0x141D PUSH1 0x20 DUP5 ADD DUP5 PUSH3 0x1318 JUMP JUMPDEST DUP6 DUP4 SUB PUSH1 0x20 DUP8 ADD MSTORE PUSH3 0x1432 DUP4 DUP3 DUP5 PUSH3 0x1393 JUMP JUMPDEST SWAP3 POP POP POP PUSH3 0x1445 PUSH1 0x40 DUP5 ADD DUP5 PUSH3 0x1318 JUMP JUMPDEST DUP6 DUP4 SUB PUSH1 0x40 DUP8 ADD MSTORE PUSH3 0x145A DUP4 DUP3 DUP5 PUSH3 0x1393 JUMP JUMPDEST SWAP3 POP POP POP PUSH3 0x146D PUSH1 0x60 DUP5 ADD DUP5 PUSH3 0x13C6 JUMP JUMPDEST PUSH3 0x147C PUSH1 0x60 DUP7 ADD DUP3 PUSH3 0xAB3 JUMP JUMPDEST POP PUSH3 0x148C PUSH1 0x80 DUP5 ADD DUP5 PUSH3 0x13C6 JUMP JUMPDEST PUSH3 0x149B PUSH1 0x80 DUP7 ADD DUP3 PUSH3 0xAB3 JUMP JUMPDEST POP PUSH3 0x14AB PUSH1 0xA0 DUP5 ADD DUP5 PUSH3 0x13C6 JUMP JUMPDEST PUSH3 0x14BA PUSH1 0xA0 DUP7 ADD DUP3 PUSH3 0xAB3 JUMP JUMPDEST POP PUSH3 0x14CA PUSH1 0xC0 DUP5 ADD DUP5 PUSH3 0x13C6 JUMP JUMPDEST PUSH3 0x14D9 PUSH1 0xC0 DUP7 ADD DUP3 PUSH3 0xAB3 JUMP JUMPDEST POP PUSH3 0x14E9 PUSH1 0xE0 DUP5 ADD DUP5 PUSH3 0x13C6 JUMP JUMPDEST PUSH3 0x14F8 PUSH1 0xE0 DUP7 ADD DUP3 PUSH3 0xAB3 JUMP JUMPDEST POP PUSH3 0x1509 PUSH2 0x100 DUP5 ADD DUP5 PUSH3 0x13C6 JUMP JUMPDEST PUSH3 0x1519 PUSH2 0x100 DUP7 ADD DUP3 PUSH3 0xAB3 JUMP JUMPDEST POP DUP1 SWAP2 POP POP SWAP3 SWAP2 POP POP JUMP JUMPDEST PUSH1 0x0 PUSH1 0x60 DUP3 ADD SWAP1 POP DUP2 DUP2 SUB PUSH1 0x0 DUP4 ADD MSTORE PUSH3 0x1540 DUP2 DUP7 PUSH3 0x13DF JUMP JUMPDEST SWAP1 POP PUSH3 0x1551 PUSH1 0x20 DUP4 ADD DUP6 PUSH3 0x959 JUMP JUMPDEST PUSH3 0x1560 PUSH1 0x40 DUP4 ADD DUP5 PUSH3 0xDB9 JUMP JUMPDEST SWAP5 SWAP4 POP POP POP POP JUMP JUMPDEST PUSH1 0x0 DUP3 DUP3 MSTORE PUSH1 0x20 DUP3 ADD SWAP1 POP SWAP3 SWAP2 POP POP JUMP JUMPDEST PUSH32 0x4F776E61626C653A206E6577206F776E657220697320746865207A65726F2061 PUSH1 0x0 DUP3 ADD MSTORE PUSH32 0x6464726573730000000000000000000000000000000000000000000000000000 PUSH1 0x20 DUP3 ADD MSTORE POP JUMP JUMPDEST PUSH1 0x0 PUSH3 0x15D7 PUSH1 0x26 DUP4 PUSH3 0x1568 JUMP JUMPDEST SWAP2 POP PUSH3 0x15E4 DUP3 PUSH3 0x1579 JUMP JUMPDEST PUSH1 0x40 DUP3 ADD SWAP1 POP SWAP2 SWAP1 POP JUMP JUMPDEST PUSH1 0x0 PUSH1 0x20 DUP3 ADD SWAP1 POP DUP2 DUP2 SUB PUSH1 0x0 DUP4 ADD MSTORE PUSH3 0x160A DUP2 PUSH3 0x15C8 JUMP JUMPDEST SWAP1 POP SWAP2 SWAP1 POP JUMP JUMPDEST PUSH32 0x4F776E61626C653A2063616C6C6572206973206E6F7420746865206F776E6572 PUSH1 0x0 DUP3 ADD MSTORE POP JUMP JUMPDEST PUSH1 0x0 PUSH3 0x1649 PUSH1 0x20 DUP4 PUSH3 0x1568 JUMP JUMPDEST SWAP2 POP PUSH3 0x1656 DUP3 PUSH3 0x1611 JUMP JUMPDEST PUSH1 0x20 DUP3 ADD SWAP1 POP SWAP2 SWAP1 POP JUMP JUMPDEST PUSH1 0x0 PUSH1 0x20 DUP3 ADD SWAP1 POP DUP2 DUP2 SUB PUSH1 0x0 DUP4 ADD MSTORE PUSH3 0x167C DUP2 PUSH3 0x163A JUMP JUMPDEST SWAP1 POP SWAP2 SWAP1 POP JUMP INVALID PUSH1 0x80 PUSH1 0x40 MSTORE PUSH1 0x1 PUSH1 0x0 PUSH1 0x15 PUSH2 0x100 EXP DUP2 SLOAD DUP2 PUSH1 0xFF MUL NOT AND SWAP1 DUP4 ISZERO ISZERO MUL OR SWAP1 SSTORE POP PUSH32 0x16D95910A21726A3E7B59A8C6166B355396434419809CB902E2063555B8D60DE PUSH1 0x0 SHL PUSH1 0xA SSTORE CALLVALUE DUP1 ISZERO PUSH3 0x53 JUMPI PUSH1 0x0 DUP1 REVERT JUMPDEST POP PUSH1 0x40 MLOAD PUSH3 0x342A CODESIZE SUB DUP1 PUSH3 0x342A DUP4 CODECOPY DUP2 DUP2 ADD PUSH1 0x40 MSTORE DUP2 ADD SWAP1 PUSH3 0x79 SWAP2 SWAP1 PUSH3 0x86B JUMP JUMPDEST PUSH3 0x99 PUSH3 0x8D PUSH3 0x204 PUSH1 0x20 SHL PUSH1 0x20 SHR JUMP JUMPDEST PUSH3 0x20C PUSH1 0x20 SHL PUSH1 0x20 SHR JUMP JUMPDEST PUSH1 0x0 DUP4 PUSH1 0xA0 ADD MLOAD EQ DUP1 PUSH3 0xB1 JUMPI POP PUSH1 0x0 DUP4 PUSH1 0xC0 ADD MLOAD EQ JUMPDEST ISZERO PUSH3 0xE9 JUMPI PUSH1 0x40 MLOAD PUSH32 0x12D0CF0200000000000000000000000000000000000000000000000000000000 DUP2 MSTORE PUSH1 0x4 ADD PUSH1 0x40 MLOAD DUP1 SWAP2 SUB SWAP1 REVERT JUMPDEST DUP3 PUSH1 0x0 ADD MLOAD PUSH1 0xB SWAP1 DUP1 MLOAD SWAP1 PUSH1 0x20 ADD SWAP1 PUSH3 0x105 SWAP3 SWAP2 SWAP1 PUSH3 0x420 JUMP JUMPDEST POP DUP3 PUSH1 0x20 ADD MLOAD PUSH1 0xC SWAP1 DUP1 MLOAD SWAP1 PUSH1 0x20 ADD SWAP1 PUSH3 0x122 SWAP3 SWAP2 SWAP1 PUSH3 0x420 JUMP JUMPDEST POP DUP3 PUSH1 0x40 ADD MLOAD PUSH1 0xD SWAP1 DUP1 MLOAD SWAP1 PUSH1 0x20 ADD SWAP1 PUSH3 0x13F SWAP3 SWAP2 SWAP1 PUSH3 0x420 JUMP JUMPDEST POP DUP3 PUSH1 0x60 ADD MLOAD PUSH1 0x1 DUP2 SWAP1 SSTORE POP DUP3 PUSH1 0xA0 ADD MLOAD PUSH1 0x3 DUP2 SWAP1 SSTORE POP DUP3 PUSH1 0xC0 ADD MLOAD PUSH1 0x4 DUP2 SWAP1 SSTORE POP DUP3 PUSH1 0xE0 ADD MLOAD PUSH1 0x7 DUP2 SWAP1 SSTORE POP DUP3 PUSH2 0x100 ADD MLOAD PUSH1 0x8 DUP2 SWAP1 SSTORE POP PUSH1 0x0 DUP4 PUSH1 0x80 ADD MLOAD SUB PUSH3 0x196 JUMPI DUP3 PUSH1 0xA0 ADD MLOAD PUSH1 0x2 DUP2 SWAP1 SSTORE POP PUSH3 0x1A2 JUMP JUMPDEST DUP3 PUSH1 0x80 ADD MLOAD PUSH1 0x2 DUP2 SWAP1 SSTORE POP JUMPDEST CALLER PUSH1 0x11 PUSH1 0x0 PUSH2 0x100 EXP DUP2 SLOAD DUP2 PUSH20 0xFFFFFFFFFFFFFFFFFFFFFFFFFFFFFFFFFFFFFFFF MUL NOT AND SWAP1 DUP4 PUSH20 0xFFFFFFFFFFFFFFFFFFFFFFFFFFFFFFFFFFFFFFFF AND MUL OR SWAP1 SSTORE POP DUP1 PUSH1 0x9 DUP2 SWAP1 SSTORE POP PUSH3 0x1FB DUP3 PUSH3 0x2D0 PUSH1 0x20 SHL PUSH1 0x20 SHR JUMP JUMPDEST POP POP POP PUSH3 0xA65 JUMP JUMPDEST PUSH1 0x0 CALLER SWAP1 POP SWAP1 JUMP JUMPDEST PUSH1 0x0 DUP1 PUSH1 0x0 SWAP1 SLOAD SWAP1 PUSH2 0x100 EXP SWAP1 DIV PUSH20 0xFFFFFFFFFFFFFFFFFFFFFFFFFFFFFFFFFFFFFFFF AND SWAP1 POP DUP2 PUSH1 0x0 DUP1 PUSH2 0x100 EXP DUP2 SLOAD DUP2 PUSH20 0xFFFFFFFFFFFFFFFFFFFFFFFFFFFFFFFFFFFFFFFF MUL NOT AND SWAP1 DUP4 PUSH20 0xFFFFFFFFFFFFFFFFFFFFFFFFFFFFFFFFFFFFFFFF AND MUL OR SWAP1 SSTORE POP DUP2 PUSH20 0xFFFFFFFFFFFFFFFFFFFFFFFFFFFFFFFFFFFFFFFF AND DUP2 PUSH20 0xFFFFFFFFFFFFFFFFFFFFFFFFFFFFFFFFFFFFFFFF AND PUSH32 0x8BE0079C531659141344CD1FD0A4F28419497F9722A3DAAFE3B4186F6B6457E0 PUSH1 0x40 MLOAD PUSH1 0x40 MLOAD DUP1 SWAP2 SUB SWAP1 LOG3 POP POP JUMP JUMPDEST PUSH3 0x2E0 PUSH3 0x366 PUSH1 0x20 SHL PUSH1 0x20 SHR JUMP JUMPDEST PUSH1 0x0 PUSH20 0xFFFFFFFFFFFFFFFFFFFFFFFFFFFFFFFFFFFFFFFF AND DUP2 PUSH20 0xFFFFFFFFFFFFFFFFFFFFFFFFFFFFFFFFFFFFFFFF AND SUB PUSH3 0x352 JUMPI PUSH1 0x40 MLOAD PUSH32 0x8C379A000000000000000000000000000000000000000000000000000000000 DUP2 MSTORE PUSH1 0x4 ADD PUSH3 0x349 SWAP1 PUSH3 0x96D JUMP JUMPDEST PUSH1 0x40 MLOAD DUP1 SWAP2 SUB SWAP1 REVERT JUMPDEST PUSH3 0x363 DUP2 PUSH3 0x20C PUSH1 0x20 SHL PUSH1 0x20 SHR JUMP JUMPDEST POP JUMP JUMPDEST PUSH3 0x376 PUSH3 0x204 PUSH1 0x20 SHL PUSH1 0x20 SHR JUMP JUMPDEST PUSH20 0xFFFFFFFFFFFFFFFFFFFFFFFFFFFFFFFFFFFFFFFF AND PUSH3 0x39C PUSH3 0x3F7 PUSH1 0x20 SHL PUSH1 0x20 SHR JUMP JUMPDEST PUSH20 0xFFFFFFFFFFFFFFFFFFFFFFFFFFFFFFFFFFFFFFFF AND EQ PUSH3 0x3F5 JUMPI PUSH1 0x40 MLOAD PUSH32 0x8C379A000000000000000000000000000000000000000000000000000000000 DUP2 MSTORE PUSH1 0x4 ADD PUSH3 0x3EC SWAP1 PUSH3 0x9DF JUMP JUMPDEST PUSH1 0x40 MLOAD DUP1 SWAP2 SUB SWAP1 REVERT JUMPDEST JUMP JUMPDEST PUSH1 0x0 DUP1 PUSH1 0x0 SWAP1 SLOAD SWAP1 PUSH2 0x100 EXP SWAP1 DIV PUSH20 0xFFFFFFFFFFFFFFFFFFFFFFFFFFFFFFFFFFFFFFFF AND SWAP1 POP SWAP1 JUMP JUMPDEST DUP3 DUP1 SLOAD PUSH3 0x42E SWAP1 PUSH3 0xA30 JUMP JUMPDEST SWAP1 PUSH1 0x0 MSTORE PUSH1 0x20 PUSH1 0x0 KECCAK256 SWAP1 PUSH1 0x1F ADD PUSH1 0x20 SWAP1 DIV DUP2 ADD SWAP3 DUP3 PUSH3 0x452 JUMPI PUSH1 0x0 DUP6 SSTORE PUSH3 0x49E JUMP JUMPDEST DUP3 PUSH1 0x1F LT PUSH3 0x46D JUMPI DUP1 MLOAD PUSH1 0xFF NOT AND DUP4 DUP1 ADD OR DUP6 SSTORE PUSH3 0x49E JUMP JUMPDEST DUP3 DUP1 ADD PUSH1 0x1 ADD DUP6 SSTORE DUP3 ISZERO PUSH3 0x49E JUMPI SWAP2 DUP3 ADD JUMPDEST DUP3 DUP2 GT ISZERO PUSH3 0x49D JUMPI DUP3 MLOAD DUP3 SSTORE SWAP2 PUSH1 0x20 ADD SWAP2 SWAP1 PUSH1 0x1 ADD SWAP1 PUSH3 0x480 JUMP JUMPDEST JUMPDEST POP SWAP1 POP PUSH3 0x4AD SWAP2 SWAP1 PUSH3 0x4B1 JUMP JUMPDEST POP SWAP1 JUMP JUMPDEST JUMPDEST DUP1 DUP3 GT ISZERO PUSH3 0x4CC JUMPI PUSH1 0x0 DUP2 PUSH1 0x0 SWAP1 SSTORE POP PUSH1 0x1 ADD PUSH3 0x4B2 JUMP JUMPDEST POP SWAP1 JUMP JUMPDEST PUSH1 0x0 PUSH1 0x40 MLOAD SWAP1 POP SWAP1 JUMP JUMPDEST PUSH1 0x0 DUP1 REVERT JUMPDEST PUSH1 0x0 DUP1 REVERT JUMPDEST PUSH1 0x0 DUP1 REVERT JUMPDEST PUSH1 0x0 PUSH1 0x1F NOT PUSH1 0x1F DUP4 ADD AND SWAP1 POP SWAP2 SWAP1 POP JUMP JUMPDEST PUSH32 0x4E487B7100000000000000000000000000000000000000000000000000000000 PUSH1 0x0 MSTORE PUSH1 0x41 PUSH1 0x4 MSTORE PUSH1 0x24 PUSH1 0x0 REVERT JUMPDEST PUSH3 0x534 DUP3 PUSH3 0x4E9 JUMP JUMPDEST DUP2 ADD DUP2 DUP2 LT PUSH8 0xFFFFFFFFFFFFFFFF DUP3 GT OR ISZERO PUSH3 0x556 JUMPI PUSH3 0x555 PUSH3 0x4FA JUMP JUMPDEST JUMPDEST DUP1 PUSH1 0x40 MSTORE POP POP POP JUMP JUMPDEST PUSH1 0x0 PUSH3 0x56B PUSH3 0x4D0 JUMP JUMPDEST SWAP1 POP PUSH3 0x579 DUP3 DUP3 PUSH3 0x529 JUMP JUMPDEST SWAP2 SWAP1 POP JUMP JUMPDEST PUSH1 0x0 DUP1 REVERT JUMPDEST PUSH1 0x0 DUP1 REVERT JUMPDEST PUSH1 0x0 DUP1 REVERT JUMPDEST PUSH1 0x0 PUSH8 0xFFFFFFFFFFFFFFFF DUP3 GT ISZERO PUSH3 0x5AB JUMPI PUSH3 0x5AA PUSH3 0x4FA JUMP JUMPDEST JUMPDEST PUSH3 0x5B6 DUP3 PUSH3 0x4E9 JUMP JUMPDEST SWAP1 POP PUSH1 0x20 DUP2 ADD SWAP1 POP SWAP2 SWAP1 POP JUMP JUMPDEST PUSH1 0x0 JUMPDEST DUP4 DUP2 LT ISZERO PUSH3 0x5E3 JUMPI DUP1 DUP3 ADD MLOAD DUP2 DUP5 ADD MSTORE PUSH1 0x20 DUP2 ADD SWAP1 POP PUSH3 0x5C6 JUMP JUMPDEST DUP4 DUP2 GT ISZERO PUSH3 0x5F3 JUMPI PUSH1 0x0 DUP5 DUP5 ADD MSTORE JUMPDEST POP POP POP POP JUMP JUMPDEST PUSH1 0x0 PUSH3 0x610 PUSH3 0x60A DUP5 PUSH3 0x58D JUMP JUMPDEST PUSH3 0x55F JUMP JUMPDEST SWAP1 POP DUP3 DUP2 MSTORE PUSH1 0x20 DUP2 ADD DUP5 DUP5 DUP5 ADD GT ISZERO PUSH3 0x62F JUMPI PUSH3 0x62E PUSH3 0x588 JUMP JUMPDEST JUMPDEST PUSH3 0x63C DUP5 DUP3 DUP6 PUSH3 0x5C3 JUMP JUMPDEST POP SWAP4 SWAP3 POP POP POP JUMP JUMPDEST PUSH1 0x0 DUP3 PUSH1 0x1F DUP4 ADD SLT PUSH3 0x65C JUMPI PUSH3 0x65B PUSH3 0x583 JUMP JUMPDEST JUMPDEST DUP2 MLOAD PUSH3 0x66E DUP5 DUP3 PUSH1 0x20 DUP7 ADD PUSH3 0x5F9 JUMP JUMPDEST SWAP2 POP POP SWAP3 SWAP2 POP POP JUMP JUMPDEST PUSH1 0x0 DUP2 SWAP1 POP SWAP2 SWAP1 POP JUMP JUMPDEST PUSH3 0x68C DUP2 PUSH3 0x677 JUMP JUMPDEST DUP2 EQ PUSH3 0x698 JUMPI PUSH1 0x0 DUP1 REVERT JUMPDEST POP JUMP JUMPDEST PUSH1 0x0 DUP2 MLOAD SWAP1 POP PUSH3 0x6AC DUP2 PUSH3 0x681 JUMP JUMPDEST SWAP3 SWAP2 POP POP JUMP JUMPDEST PUSH1 0x0 PUSH2 0x120 DUP3 DUP5 SUB SLT ISZERO PUSH3 0x6CC JUMPI PUSH3 0x6CB PUSH3 0x4E4 JUMP JUMPDEST JUMPDEST PUSH3 0x6D9 PUSH2 0x120 PUSH3 0x55F JUMP JUMPDEST SWAP1 POP PUSH1 0x0 DUP3 ADD MLOAD PUSH8 0xFFFFFFFFFFFFFFFF DUP2 GT ISZERO PUSH3 0x6FC JUMPI PUSH3 0x6FB PUSH3 0x57E JUMP JUMPDEST JUMPDEST PUSH3 0x70A DUP5 DUP3 DUP6 ADD PUSH3 0x644 JUMP JUMPDEST PUSH1 0x0 DUP4 ADD MSTORE POP PUSH1 0x20 DUP3 ADD MLOAD PUSH8 0xFFFFFFFFFFFFFFFF DUP2 GT ISZERO PUSH3 0x731 JUMPI PUSH3 0x730 PUSH3 0x57E JUMP JUMPDEST JUMPDEST PUSH3 0x73F DUP5 DUP3 DUP6 ADD PUSH3 0x644 JUMP JUMPDEST PUSH1 0x20 DUP4 ADD MSTORE POP PUSH1 0x40 DUP3 ADD MLOAD PUSH8 0xFFFFFFFFFFFFFFFF DUP2 GT ISZERO PUSH3 0x766 JUMPI PUSH3 0x765 PUSH3 0x57E JUMP JUMPDEST JUMPDEST PUSH3 0x774 DUP5 DUP3 DUP6 ADD PUSH3 0x644 JUMP JUMPDEST PUSH1 0x40 DUP4 ADD MSTORE POP PUSH1 0x60 PUSH3 0x78A DUP5 DUP3 DUP6 ADD PUSH3 0x69B JUMP JUMPDEST PUSH1 0x60 DUP4 ADD MSTORE POP PUSH1 0x80 PUSH3 0x7A0 DUP5 DUP3 DUP6 ADD PUSH3 0x69B JUMP JUMPDEST PUSH1 0x80 DUP4 ADD MSTORE POP PUSH1 0xA0 PUSH3 0x7B6 DUP5 DUP3 DUP6 ADD PUSH3 0x69B JUMP JUMPDEST PUSH1 0xA0 DUP4 ADD MSTORE POP PUSH1 0xC0 PUSH3 0x7CC DUP5 DUP3 DUP6 ADD PUSH3 0x69B JUMP JUMPDEST PUSH1 0xC0 DUP4 ADD MSTORE POP PUSH1 0xE0 PUSH3 0x7E2 DUP5 DUP3 DUP6 ADD PUSH3 0x69B JUMP JUMPDEST PUSH1 0xE0 DUP4 ADD MSTORE POP PUSH2 0x100 PUSH3 0x7F9 DUP5 DUP3 DUP6 ADD PUSH3 0x69B JUMP JUMPDEST PUSH2 0x100 DUP4 ADD MSTORE POP SWAP3 SWAP2 POP POP JUMP JUMPDEST PUSH1 0x0 PUSH20 0xFFFFFFFFFFFFFFFFFFFFFFFFFFFFFFFFFFFFFFFF DUP3 AND SWAP1 POP SWAP2 SWAP1 POP JUMP JUMPDEST PUSH1 0x0 PUSH3 0x833 DUP3 PUSH3 0x806 JUMP JUMPDEST SWAP1 POP SWAP2 SWAP1 POP JUMP JUMPDEST PUSH3 0x845 DUP2 PUSH3 0x826 JUMP JUMPDEST DUP2 EQ PUSH3 0x851 JUMPI PUSH1 0x0 DUP1 REVERT JUMPDEST POP JUMP JUMPDEST PUSH1 0x0 DUP2 MLOAD SWAP1 POP PUSH3 0x865 DUP2 PUSH3 0x83A JUMP JUMPDEST SWAP3 SWAP2 POP POP JUMP JUMPDEST PUSH1 0x0 DUP1 PUSH1 0x0 PUSH1 0x60 DUP5 DUP7 SUB SLT ISZERO PUSH3 0x887 JUMPI PUSH3 0x886 PUSH3 0x4DA JUMP JUMPDEST JUMPDEST PUSH1 0x0 DUP5 ADD MLOAD PUSH8 0xFFFFFFFFFFFFFFFF DUP2 GT ISZERO PUSH3 0x8A8 JUMPI PUSH3 0x8A7 PUSH3 0x4DF JUMP JUMPDEST JUMPDEST PUSH3 0x8B6 DUP7 DUP3 DUP8 ADD PUSH3 0x6B2 JUMP JUMPDEST SWAP4 POP POP PUSH1 0x20 PUSH3 0x8C9 DUP7 DUP3 DUP8 ADD PUSH3 0x854 JUMP JUMPDEST SWAP3 POP POP PUSH1 0x40 PUSH3 0x8DC DUP7 DUP3 DUP8 ADD PUSH3 0x69B JUMP JUMPDEST SWAP2 POP POP SWAP3 POP SWAP3 POP SWAP3 JUMP JUMPDEST PUSH1 0x0 DUP3 DUP3 MSTORE PUSH1 0x20 DUP3 ADD SWAP1 POP SWAP3 SWAP2 POP POP JUMP JUMPDEST PUSH32 0x4F776E61626C653A206E6577206F776E657220697320746865207A65726F2061 PUSH1 0x0 DUP3 ADD MSTORE PUSH32 0x6464726573730000000000000000000000000000000000000000000000000000 PUSH1 0x20 DUP3 ADD MSTORE POP JUMP JUMPDEST PUSH1 0x0 PUSH3 0x955 PUSH1 0x26 DUP4 PUSH3 0x8E6 JUMP JUMPDEST SWAP2 POP PUSH3 0x962 DUP3 PUSH3 0x8F7 JUMP JUMPDEST PUSH1 0x40 DUP3 ADD SWAP1 POP SWAP2 SWAP1 POP JUMP JUMPDEST PUSH1 0x0 PUSH1 0x20 DUP3 ADD SWAP1 POP DUP2 DUP2 SUB PUSH1 0x0 DUP4 ADD MSTORE PUSH3 0x988 DUP2 PUSH3 0x946 JUMP JUMPDEST SWAP1 POP SWAP2 SWAP1 POP JUMP JUMPDEST PUSH32 0x4F776E61626C653A2063616C6C6572206973206E6F7420746865206F776E6572 PUSH1 0x0 DUP3 ADD MSTORE POP JUMP JUMPDEST PUSH1 0x0 PUSH3 0x9C7 PUSH1 0x20 DUP4 PUSH3 0x8E6 JUMP JUMPDEST SWAP2 POP PUSH3 0x9D4 DUP3 PUSH3 0x98F JUMP JUMPDEST PUSH1 0x20 DUP3 ADD SWAP1 POP SWAP2 SWAP1 POP JUMP JUMPDEST PUSH1 0x0 PUSH1 0x20 DUP3 ADD SWAP1 POP DUP2 DUP2 SUB PUSH1 0x0 DUP4 ADD MSTORE PUSH3 0x9FA DUP2 PUSH3 0x9B8 JUMP JUMPDEST SWAP1 POP SWAP2 SWAP1 POP JUMP JUMPDEST PUSH32 0x4E487B7100000000000000000000000000000000000000000000000000000000 PUSH1 0x0 MSTORE PUSH1 0x22 PUSH1 0x4 MSTORE PUSH1 0x24 PUSH1 0x0 REVERT JUMPDEST PUSH1 0x0 PUSH1 0x2 DUP3 DIV SWAP1 POP PUSH1 0x1 DUP3 AND DUP1 PUSH3 0xA49 JUMPI PUSH1 0x7F DUP3 AND SWAP2 POP JUMPDEST PUSH1 0x20 DUP3 LT DUP2 SUB PUSH3 0xA5F JUMPI PUSH3 0xA5E PUSH3 0xA01 JUMP JUMPDEST JUMPDEST POP SWAP2 SWAP1 POP JUMP JUMPDEST PUSH2 0x29B5 DUP1 PUSH3 0xA75 PUSH1 0x0 CODECOPY PUSH1 0x0 RETURN INVALID PUSH1 0x80 PUSH1 0x40 MSTORE PUSH1 0x4 CALLDATASIZE LT PUSH2 0x1F8 JUMPI PUSH1 0x0 CALLDATALOAD PUSH1 0xE0 SHR DUP1 PUSH4 0x7FD34E92 GT PUSH2 0x10D JUMPI DUP1 PUSH4 0xC6A7CBC9 GT PUSH2 0xA0 JUMPI DUP1 PUSH4 0xEAD12111 GT PUSH2 0x6F JUMPI DUP1 PUSH4 0xEAD12111 EQ PUSH2 0x6CD JUMPI DUP1 PUSH4 0xEFBE1C1C EQ PUSH2 0x70A JUMPI DUP1 PUSH4 0xF2FDE38B EQ PUSH2 0x735 JUMPI DUP1 PUSH4 0xF34094A7 EQ PUSH2 0x75E JUMPI DUP1 PUSH4 0xFE1E2F51 EQ PUSH2 0x768 JUMPI PUSH2 0x1F8 JUMP JUMPDEST DUP1 PUSH4 0xC6A7CBC9 EQ PUSH2 0x627 JUMPI DUP1 PUSH4 0xC7CAC600 EQ PUSH2 0x650 JUMPI DUP1 PUSH4 0xD9A59E33 EQ PUSH2 0x67B JUMPI DUP1 PUSH4 0xDAE076C8 EQ PUSH2 0x6A4 JUMPI PUSH2 0x1F8 JUMP JUMPDEST DUP1 PUSH4 0xBE9A6555 GT PUSH2 0xDC JUMPI DUP1 PUSH4 0xBE9A6555 EQ PUSH2 0x58C JUMPI DUP1 PUSH4 0xBFFA3123 EQ PUSH2 0x5B7 JUMPI DUP1 PUSH4 0xC025E686 EQ PUSH2 0x5E0 JUMPI DUP1 PUSH4 0xC4625BA3 EQ PUSH2 0x5FC JUMPI PUSH2 0x1F8 JUMP JUMPDEST DUP1 PUSH4 0x7FD34E92 EQ PUSH2 0x4E2 JUMPI DUP1 PUSH4 0x8121E42D EQ PUSH2 0x50B JUMPI DUP1 PUSH4 0x8818ED38 EQ PUSH2 0x536 JUMPI DUP1 PUSH4 0x8DA5CB5B EQ PUSH2 0x561 JUMPI PUSH2 0x1F8 JUMP JUMPDEST DUP1 PUSH4 0x24924BF7 GT PUSH2 0x190 JUMPI DUP1 PUSH4 0x6C9DE4EF GT PUSH2 0x15F JUMPI DUP1 PUSH4 0x6C9DE4EF EQ PUSH2 0x421 JUMPI DUP1 PUSH4 0x715018A6 EQ PUSH2 0x44A JUMPI DUP1 PUSH4 0x7284E416 EQ PUSH2 0x461 JUMPI DUP1 PUSH4 0x736F88CD EQ PUSH2 0x48C JUMPI DUP1 PUSH4 0x7DE33AEC EQ PUSH2 0x4B7 JUMPI PUSH2 0x1F8 JUMP JUMPDEST DUP1 PUSH4 0x24924BF7 EQ PUSH2 0x38B JUMPI DUP1 PUSH4 0x336DF106 EQ PUSH2 0x3B6 JUMPI DUP1 PUSH4 0x386BFC98 EQ PUSH2 0x3DF JUMPI DUP1 PUSH4 0x3CCFD60B EQ PUSH2 0x40A JUMPI PUSH2 0x1F8 JUMP JUMPDEST DUP1 PUSH4 0x13446A75 GT PUSH2 0x1CC JUMPI DUP1 PUSH4 0x13446A75 EQ PUSH2 0x2BB JUMPI DUP1 PUSH4 0x14D0F1BA EQ PUSH2 0x2E6 JUMPI DUP1 PUSH4 0x1C4695F4 EQ PUSH2 0x323 JUMPI DUP1 PUSH4 0x1D645B12 EQ PUSH2 0x34E JUMPI PUSH2 0x1F8 JUMP JUMPDEST DUP1 PUSH3 0xF4494F EQ PUSH2 0x1FD JUMPI DUP1 PUSH4 0x6FDDE03 EQ PUSH2 0x228 JUMPI DUP1 PUSH4 0x9E69EDE EQ PUSH2 0x253 JUMPI DUP1 PUSH4 0x1209B1F6 EQ PUSH2 0x290 JUMPI JUMPDEST PUSH1 0x0 DUP1 REVERT JUMPDEST CALLVALUE DUP1 ISZERO PUSH2 0x209 JUMPI PUSH1 0x0 DUP1 REVERT JUMPDEST POP PUSH2 0x212 PUSH2 0x7A5 JUMP JUMPDEST PUSH1 0x40 MLOAD PUSH2 0x21F SWAP2 SWAP1 PUSH2 0x1CC1 JUMP JUMPDEST PUSH1 0x40 MLOAD DUP1 SWAP2 SUB SWAP1 RETURN JUMPDEST CALLVALUE DUP1 ISZERO PUSH2 0x234 JUMPI PUSH1 0x0 DUP1 REVERT JUMPDEST POP PUSH2 0x23D PUSH2 0x7AB JUMP JUMPDEST PUSH1 0x40 MLOAD PUSH2 0x24A SWAP2 SWAP1 PUSH2 0x1D75 JUMP JUMPDEST PUSH1 0x40 MLOAD DUP1 SWAP2 SUB SWAP1 RETURN JUMPDEST CALLVALUE DUP1 ISZERO PUSH2 0x25F JUMPI PUSH1 0x0 DUP1 REVERT JUMPDEST POP PUSH2 0x27A PUSH1 0x4 DUP1 CALLDATASIZE SUB DUP2 ADD SWAP1 PUSH2 0x275 SWAP2 SWAP1 PUSH2 0x1E09 JUMP JUMPDEST PUSH2 0x839 JUMP JUMPDEST PUSH1 0x40 MLOAD PUSH2 0x287 SWAP2 SWAP1 PUSH2 0x1E51 JUMP JUMPDEST PUSH1 0x40 MLOAD DUP1 SWAP2 SUB SWAP1 RETURN JUMPDEST CALLVALUE DUP1 ISZERO PUSH2 0x29C JUMPI PUSH1 0x0 DUP1 REVERT JUMPDEST POP PUSH2 0x2A5 PUSH2 0x859 JUMP JUMPDEST PUSH1 0x40 MLOAD PUSH2 0x2B2 SWAP2 SWAP1 PUSH2 0x1CC1 JUMP JUMPDEST PUSH1 0x40 MLOAD DUP1 SWAP2 SUB SWAP1 RETURN JUMPDEST CALLVALUE DUP1 ISZERO PUSH2 0x2C7 JUMPI PUSH1 0x0 DUP1 REVERT JUMPDEST POP PUSH2 0x2D0 PUSH2 0x85F JUMP JUMPDEST PUSH1 0x40 MLOAD PUSH2 0x2DD SWAP2 SWAP1 PUSH2 0x1CC1 JUMP JUMPDEST PUSH1 0x40 MLOAD DUP1 SWAP2 SUB SWAP1 RETURN JUMPDEST CALLVALUE DUP1 ISZERO PUSH2 0x2F2 JUMPI PUSH1 0x0 DUP1 REVERT JUMPDEST POP PUSH2 0x30D PUSH1 0x4 DUP1 CALLDATASIZE SUB DUP2 ADD SWAP1 PUSH2 0x308 SWAP2 SWAP1 PUSH2 0x1E09 JUMP JUMPDEST PUSH2 0x865 JUMP JUMPDEST PUSH1 0x40 MLOAD PUSH2 0x31A SWAP2 SWAP1 PUSH2 0x1E51 JUMP JUMPDEST PUSH1 0x40 MLOAD DUP1 SWAP2 SUB SWAP1 RETURN JUMPDEST CALLVALUE DUP1 ISZERO PUSH2 0x32F JUMPI PUSH1 0x0 DUP1 REVERT JUMPDEST POP PUSH2 0x338 PUSH2 0x885 JUMP JUMPDEST PUSH1 0x40 MLOAD PUSH2 0x345 SWAP2 SWAP1 PUSH2 0x1D75 JUMP JUMPDEST PUSH1 0x40 MLOAD DUP1 SWAP2 SUB SWAP1 RETURN JUMPDEST CALLVALUE DUP1 ISZERO PUSH2 0x35A JUMPI PUSH1 0x0 DUP1 REVERT JUMPDEST POP PUSH2 0x375 PUSH1 0x4 DUP1 CALLDATASIZE SUB DUP2 ADD SWAP1 PUSH2 0x370 SWAP2 SWAP1 PUSH2 0x1E98 JUMP JUMPDEST PUSH2 0x913 JUMP JUMPDEST PUSH1 0x40 MLOAD PUSH2 0x382 SWAP2 SWAP1 PUSH2 0x20A2 JUMP JUMPDEST PUSH1 0x40 MLOAD DUP1 SWAP2 SUB SWAP1 RETURN JUMPDEST CALLVALUE DUP1 ISZERO PUSH2 0x397 JUMPI PUSH1 0x0 DUP1 REVERT JUMPDEST POP PUSH2 0x3A0 PUSH2 0xC5A JUMP JUMPDEST PUSH1 0x40 MLOAD PUSH2 0x3AD SWAP2 SWAP1 PUSH2 0x1CC1 JUMP JUMPDEST PUSH1 0x40 MLOAD DUP1 SWAP2 SUB SWAP1 RETURN JUMPDEST CALLVALUE DUP1 ISZERO PUSH2 0x3C2 JUMPI PUSH1 0x0 DUP1 REVERT JUMPDEST POP PUSH2 0x3DD PUSH1 0x4 DUP1 CALLDATASIZE SUB DUP2 ADD SWAP1 PUSH2 0x3D8 SWAP2 SWAP1 PUSH2 0x20F0 JUMP JUMPDEST PUSH2 0xC60 JUMP JUMPDEST STOP JUMPDEST CALLVALUE DUP1 ISZERO PUSH2 0x3EB JUMPI PUSH1 0x0 DUP1 REVERT JUMPDEST POP PUSH2 0x3F4 PUSH2 0xCC3 JUMP JUMPDEST PUSH1 0x40 MLOAD PUSH2 0x401 SWAP2 SWAP1 PUSH2 0x2149 JUMP JUMPDEST PUSH1 0x40 MLOAD DUP1 SWAP2 SUB SWAP1 RETURN JUMPDEST CALLVALUE DUP1 ISZERO PUSH2 0x416 JUMPI PUSH1 0x0 DUP1 REVERT JUMPDEST POP PUSH2 0x41F PUSH2 0xCC9 JUMP JUMPDEST STOP JUMPDEST CALLVALUE DUP1 ISZERO PUSH2 0x42D JUMPI PUSH1 0x0 DUP1 REVERT JUMPDEST POP PUSH2 0x448 PUSH1 0x4 DUP1 CALLDATASIZE SUB DUP2 ADD SWAP1 PUSH2 0x443 SWAP2 SWAP1 PUSH2 0x2164 JUMP JUMPDEST PUSH2 0xED9 JUMP JUMPDEST STOP JUMPDEST CALLVALUE DUP1 ISZERO PUSH2 0x456 JUMPI PUSH1 0x0 DUP1 REVERT JUMPDEST POP PUSH2 0x45F PUSH2 0xF19 JUMP JUMPDEST STOP JUMPDEST CALLVALUE DUP1 ISZERO PUSH2 0x46D JUMPI PUSH1 0x0 DUP1 REVERT JUMPDEST POP PUSH2 0x476 PUSH2 0xF2D JUMP JUMPDEST PUSH1 0x40 MLOAD PUSH2 0x483 SWAP2 SWAP1 PUSH2 0x1D75 JUMP JUMPDEST PUSH1 0x40 MLOAD DUP1 SWAP2 SUB SWAP1 RETURN JUMPDEST CALLVALUE DUP1 ISZERO PUSH2 0x498 JUMPI PUSH1 0x0 DUP1 REVERT JUMPDEST POP PUSH2 0x4A1 PUSH2 0xFBB JUMP JUMPDEST PUSH1 0x40 MLOAD PUSH2 0x4AE SWAP2 SWAP1 PUSH2 0x1E51 JUMP JUMPDEST PUSH1 0x40 MLOAD DUP1 SWAP2 SUB SWAP1 RETURN JUMPDEST CALLVALUE DUP1 ISZERO PUSH2 0x4C3 JUMPI PUSH1 0x0 DUP1 REVERT JUMPDEST POP PUSH2 0x4CC PUSH2 0xFCE JUMP JUMPDEST PUSH1 0x40 MLOAD PUSH2 0x4D9 SWAP2 SWAP1 PUSH2 0x1CC1 JUMP JUMPDEST PUSH1 0x40 MLOAD DUP1 SWAP2 SUB SWAP1 RETURN JUMPDEST CALLVALUE DUP1 ISZERO PUSH2 0x4EE JUMPI PUSH1 0x0 DUP1 REVERT JUMPDEST POP PUSH2 0x509 PUSH1 0x4 DUP1 CALLDATASIZE SUB DUP2 ADD SWAP1 PUSH2 0x504 SWAP2 SWAP1 PUSH2 0x21A4 JUMP JUMPDEST PUSH2 0xFD4 JUMP JUMPDEST STOP JUMPDEST CALLVALUE DUP1 ISZERO PUSH2 0x517 JUMPI PUSH1 0x0 DUP1 REVERT JUMPDEST POP PUSH2 0x520 PUSH2 0xFEE JUMP JUMPDEST PUSH1 0x40 MLOAD PUSH2 0x52D SWAP2 SWAP1 PUSH2 0x1CC1 JUMP JUMPDEST PUSH1 0x40 MLOAD DUP1 SWAP2 SUB SWAP1 RETURN JUMPDEST CALLVALUE DUP1 ISZERO PUSH2 0x542 JUMPI PUSH1 0x0 DUP1 REVERT JUMPDEST POP PUSH2 0x54B PUSH2 0xFF4 JUMP JUMPDEST PUSH1 0x40 MLOAD PUSH2 0x558 SWAP2 SWAP1 PUSH2 0x21F3 JUMP JUMPDEST PUSH1 0x40 MLOAD DUP1 SWAP2 SUB SWAP1 RETURN JUMPDEST CALLVALUE DUP1 ISZERO PUSH2 0x56D JUMPI PUSH1 0x0 DUP1 REVERT JUMPDEST POP PUSH2 0x576 PUSH2 0x101A JUMP JUMPDEST PUSH1 0x40 MLOAD PUSH2 0x583 SWAP2 SWAP1 PUSH2 0x21F3 JUMP JUMPDEST PUSH1 0x40 MLOAD DUP1 SWAP2 SUB SWAP1 RETURN JUMPDEST CALLVALUE DUP1 ISZERO PUSH2 0x598 JUMPI PUSH1 0x0 DUP1 REVERT JUMPDEST POP PUSH2 0x5A1 PUSH2 0x1043 JUMP JUMPDEST PUSH1 0x40 MLOAD PUSH2 0x5AE SWAP2 SWAP1 PUSH2 0x1CC1 JUMP JUMPDEST PUSH1 0x40 MLOAD DUP1 SWAP2 SUB SWAP1 RETURN JUMPDEST CALLVALUE DUP1 ISZERO PUSH2 0x5C3 JUMPI PUSH1 0x0 DUP1 REVERT JUMPDEST POP PUSH2 0x5DE PUSH1 0x4 DUP1 CALLDATASIZE SUB DUP2 ADD SWAP1 PUSH2 0x5D9 SWAP2 SWAP1 PUSH2 0x220E JUMP JUMPDEST PUSH2 0x1049 JUMP JUMPDEST STOP JUMPDEST PUSH2 0x5FA PUSH1 0x4 DUP1 CALLDATASIZE SUB DUP2 ADD SWAP1 PUSH2 0x5F5 SWAP2 SWAP1 PUSH2 0x22C6 JUMP JUMPDEST PUSH2 0x106B JUMP JUMPDEST STOP JUMPDEST CALLVALUE DUP1 ISZERO PUSH2 0x608 JUMPI PUSH1 0x0 DUP1 REVERT JUMPDEST POP PUSH2 0x611 PUSH2 0x127A JUMP JUMPDEST PUSH1 0x40 MLOAD PUSH2 0x61E SWAP2 SWAP1 PUSH2 0x1CC1 JUMP JUMPDEST PUSH1 0x40 MLOAD DUP1 SWAP2 SUB SWAP1 RETURN JUMPDEST CALLVALUE DUP1 ISZERO PUSH2 0x633 JUMPI PUSH1 0x0 DUP1 REVERT JUMPDEST POP PUSH2 0x64E PUSH1 0x4 DUP1 CALLDATASIZE SUB DUP2 ADD SWAP1 PUSH2 0x649 SWAP2 SWAP1 PUSH2 0x233F JUMP JUMPDEST PUSH2 0x1280 JUMP JUMPDEST STOP JUMPDEST CALLVALUE DUP1 ISZERO PUSH2 0x65C JUMPI PUSH1 0x0 DUP1 REVERT JUMPDEST POP PUSH2 0x665 PUSH2 0x1292 JUMP JUMPDEST PUSH1 0x40 MLOAD PUSH2 0x672 SWAP2 SWAP1 PUSH2 0x1E51 JUMP JUMPDEST PUSH1 0x40 MLOAD DUP1 SWAP2 SUB SWAP1 RETURN JUMPDEST CALLVALUE DUP1 ISZERO PUSH2 0x687 JUMPI PUSH1 0x0 DUP1 REVERT JUMPDEST POP PUSH2 0x6A2 PUSH1 0x4 DUP1 CALLDATASIZE SUB DUP2 ADD SWAP1 PUSH2 0x69D SWAP2 SWAP1 PUSH2 0x1E09 JUMP JUMPDEST PUSH2 0x12A5 JUMP JUMPDEST STOP JUMPDEST CALLVALUE DUP1 ISZERO PUSH2 0x6B0 JUMPI PUSH1 0x0 DUP1 REVERT JUMPDEST POP PUSH2 0x6CB PUSH1 0x4 DUP1 CALLDATASIZE SUB DUP2 ADD SWAP1 PUSH2 0x6C6 SWAP2 SWAP1 PUSH2 0x249C JUMP JUMPDEST PUSH2 0x156A JUMP JUMPDEST STOP JUMPDEST CALLVALUE DUP1 ISZERO PUSH2 0x6D9 JUMPI PUSH1 0x0 DUP1 REVERT JUMPDEST POP PUSH2 0x6F4 PUSH1 0x4 DUP1 CALLDATASIZE SUB DUP2 ADD SWAP1 PUSH2 0x6EF SWAP2 SWAP1 PUSH2 0x1E98 JUMP JUMPDEST PUSH2 0x15C4 JUMP JUMPDEST PUSH1 0x40 MLOAD PUSH2 0x701 SWAP2 SWAP1 PUSH2 0x2573 JUMP JUMPDEST PUSH1 0x40 MLOAD DUP1 SWAP2 SUB SWAP1 RETURN JUMPDEST CALLVALUE DUP1 ISZERO PUSH2 0x716 JUMPI PUSH1 0x0 DUP1 REVERT JUMPDEST POP PUSH2 0x71F PUSH2 0x168C JUMP JUMPDEST PUSH1 0x40 MLOAD PUSH2 0x72C SWAP2 SWAP1 PUSH2 0x1CC1 JUMP JUMPDEST PUSH1 0x40 MLOAD DUP1 SWAP2 SUB SWAP1 RETURN JUMPDEST CALLVALUE DUP1 ISZERO PUSH2 0x741 JUMPI PUSH1 0x0 DUP1 REVERT JUMPDEST POP PUSH2 0x75C PUSH1 0x4 DUP1 CALLDATASIZE SUB DUP2 ADD SWAP1 PUSH2 0x757 SWAP2 SWAP1 PUSH2 0x1E09 JUMP JUMPDEST PUSH2 0x1692 JUMP JUMPDEST STOP JUMPDEST PUSH2 0x766 PUSH2 0x1715 JUMP JUMPDEST STOP JUMPDEST CALLVALUE DUP1 ISZERO PUSH2 0x774 JUMPI PUSH1 0x0 DUP1 REVERT JUMPDEST POP PUSH2 0x78F PUSH1 0x4 DUP1 CALLDATASIZE SUB DUP2 ADD SWAP1 PUSH2 0x78A SWAP2 SWAP1 PUSH2 0x1E09 JUMP JUMPDEST PUSH2 0x18A5 JUMP JUMPDEST PUSH1 0x40 MLOAD PUSH2 0x79C SWAP2 SWAP1 PUSH2 0x1E51 JUMP JUMPDEST PUSH1 0x40 MLOAD DUP1 SWAP2 SUB SWAP1 RETURN JUMPDEST PUSH1 0x9 SLOAD DUP2 JUMP JUMPDEST PUSH1 0xB DUP1 SLOAD PUSH2 0x7B8 SWAP1 PUSH2 0x25BD JUMP JUMPDEST DUP1 PUSH1 0x1F ADD PUSH1 0x20 DUP1 SWAP2 DIV MUL PUSH1 0x20 ADD PUSH1 0x40 MLOAD SWAP1 DUP2 ADD PUSH1 0x40 MSTORE DUP1 SWAP3 SWAP2 SWAP1 DUP2 DUP2 MSTORE PUSH1 0x20 ADD DUP3 DUP1 SLOAD PUSH2 0x7E4 SWAP1 PUSH2 0x25BD JUMP JUMPDEST DUP1 ISZERO PUSH2 0x831 JUMPI DUP1 PUSH1 0x1F LT PUSH2 0x806 JUMPI PUSH2 0x100 DUP1 DUP4 SLOAD DIV MUL DUP4 MSTORE SWAP2 PUSH1 0x20 ADD SWAP2 PUSH2 0x831 JUMP JUMPDEST DUP3 ADD SWAP2 SWAP1 PUSH1 0x0 MSTORE PUSH1 0x20 PUSH1 0x0 KECCAK256 SWAP1 JUMPDEST DUP2 SLOAD DUP2 MSTORE SWAP1 PUSH1 0x1 ADD SWAP1 PUSH1 0x20 ADD DUP1 DUP4 GT PUSH2 0x814 JUMPI DUP3 SWAP1 SUB PUSH1 0x1F AND DUP3 ADD SWAP2 JUMPDEST POP POP POP POP POP DUP2 JUMP JUMPDEST PUSH1 0xE PUSH1 0x20 MSTORE DUP1 PUSH1 0x0 MSTORE PUSH1 0x40 PUSH1 0x0 KECCAK256 PUSH1 0x0 SWAP2 POP SLOAD SWAP1 PUSH2 0x100 EXP SWAP1 DIV PUSH1 0xFF AND DUP2 JUMP JUMPDEST PUSH1 0x7 SLOAD DUP2 JUMP JUMPDEST PUSH1 0x2 SLOAD DUP2 JUMP JUMPDEST PUSH1 0x10 PUSH1 0x20 MSTORE DUP1 PUSH1 0x0 MSTORE PUSH1 0x40 PUSH1 0x0 KECCAK256 PUSH1 0x0 SWAP2 POP SLOAD SWAP1 PUSH2 0x100 EXP SWAP1 DIV PUSH1 0xFF AND DUP2 JUMP JUMPDEST PUSH1 0xD DUP1 SLOAD PUSH2 0x892 SWAP1 PUSH2 0x25BD JUMP JUMPDEST DUP1 PUSH1 0x1F ADD PUSH1 0x20 DUP1 SWAP2 DIV MUL PUSH1 0x20 ADD PUSH1 0x40 MLOAD SWAP1 DUP2 ADD PUSH1 0x40 MSTORE DUP1 SWAP3 SWAP2 SWAP1 DUP2 DUP2 MSTORE PUSH1 0x20 ADD DUP3 DUP1 SLOAD PUSH2 0x8BE SWAP1 PUSH2 0x25BD JUMP JUMPDEST DUP1 ISZERO PUSH2 0x90B JUMPI DUP1 PUSH1 0x1F LT PUSH2 0x8E0 JUMPI PUSH2 0x100 DUP1 DUP4 SLOAD DIV MUL DUP4 MSTORE SWAP2 PUSH1 0x20 ADD SWAP2 PUSH2 0x90B JUMP JUMPDEST DUP3 ADD SWAP2 SWAP1 PUSH1 0x0 MSTORE PUSH1 0x20 PUSH1 0x0 KECCAK256 SWAP1 JUMPDEST DUP2 SLOAD DUP2 MSTORE SWAP1 PUSH1 0x1 ADD SWAP1 PUSH1 0x20 ADD DUP1 DUP4 GT PUSH2 0x8EE JUMPI DUP3 SWAP1 SUB PUSH1 0x1F AND DUP3 ADD SWAP2 JUMPDEST POP POP POP POP POP DUP2 JUMP JUMPDEST PUSH2 0x91B PUSH2 0x1B6A JUMP JUMPDEST PUSH2 0x923 PUSH2 0x1B6A JUMP JUMPDEST PUSH1 0x3 SLOAD DUP2 PUSH1 0xA0 ADD DUP2 DUP2 MSTORE POP POP PUSH1 0x4 SLOAD DUP2 PUSH1 0xC0 ADD DUP2 DUP2 MSTORE POP POP PUSH1 0x2 SLOAD DUP2 PUSH1 0x80 ADD DUP2 DUP2 MSTORE POP POP PUSH1 0xB DUP1 SLOAD PUSH2 0x954 SWAP1 PUSH2 0x25BD JUMP JUMPDEST DUP1 PUSH1 0x1F ADD PUSH1 0x20 DUP1 SWAP2 DIV MUL PUSH1 0x20 ADD PUSH1 0x40 MLOAD SWAP1 DUP2 ADD PUSH1 0x40 MSTORE DUP1 SWAP3 SWAP2 SWAP1 DUP2 DUP2 MSTORE PUSH1 0x20 ADD DUP3 DUP1 SLOAD PUSH2 0x980 SWAP1 PUSH2 0x25BD JUMP JUMPDEST DUP1 ISZERO PUSH2 0x9CD JUMPI DUP1 PUSH1 0x1F LT PUSH2 0x9A2 JUMPI PUSH2 0x100 DUP1 DUP4 SLOAD DIV MUL DUP4 MSTORE SWAP2 PUSH1 0x20 ADD SWAP2 PUSH2 0x9CD JUMP JUMPDEST DUP3 ADD SWAP2 SWAP1 PUSH1 0x0 MSTORE PUSH1 0x20 PUSH1 0x0 KECCAK256 SWAP1 JUMPDEST DUP2 SLOAD DUP2 MSTORE SWAP1 PUSH1 0x1 ADD SWAP1 PUSH1 0x20 ADD DUP1 DUP4 GT PUSH2 0x9B0 JUMPI DUP3 SWAP1 SUB PUSH1 0x1F AND DUP3 ADD SWAP2 JUMPDEST POP POP POP POP POP DUP2 PUSH1 0x0 ADD DUP2 SWAP1 MSTORE POP PUSH1 0xC DUP1 SLOAD PUSH2 0x9E7 SWAP1 PUSH2 0x25BD JUMP JUMPDEST DUP1 PUSH1 0x1F ADD PUSH1 0x20 DUP1 SWAP2 DIV MUL PUSH1 0x20 ADD PUSH1 0x40 MLOAD SWAP1 DUP2 ADD PUSH1 0x40 MSTORE DUP1 SWAP3 SWAP2 SWAP1 DUP2 DUP2 MSTORE PUSH1 0x20 ADD DUP3 DUP1 SLOAD PUSH2 0xA13 SWAP1 PUSH2 0x25BD JUMP JUMPDEST DUP1 ISZERO PUSH2 0xA60 JUMPI DUP1 PUSH1 0x1F LT PUSH2 0xA35 JUMPI PUSH2 0x100 DUP1 DUP4 SLOAD DIV MUL DUP4 MSTORE SWAP2 PUSH1 0x20 ADD SWAP2 PUSH2 0xA60 JUMP JUMPDEST DUP3 ADD SWAP2 SWAP1 PUSH1 0x0 MSTORE PUSH1 0x20 PUSH1 0x0 KECCAK256 SWAP1 JUMPDEST DUP2 SLOAD DUP2 MSTORE SWAP1 PUSH1 0x1 ADD SWAP1 PUSH1 0x20 ADD DUP1 DUP4 GT PUSH2 0xA43 JUMPI DUP3 SWAP1 SUB PUSH1 0x1F AND DUP3 ADD SWAP2 JUMPDEST POP POP POP POP POP DUP2 PUSH1 0x20 ADD DUP2 SWAP1 MSTORE POP PUSH1 0x1 SLOAD DUP2 PUSH1 0x60 ADD DUP2 DUP2 MSTORE POP POP PUSH1 0x7 SLOAD DUP2 PUSH1 0xE0 ADD DUP2 DUP2 MSTORE POP POP PUSH1 0x8 SLOAD DUP2 PUSH2 0x100 ADD DUP2 DUP2 MSTORE POP POP PUSH1 0xD DUP1 SLOAD PUSH2 0xA9F SWAP1 PUSH2 0x25BD JUMP JUMPDEST DUP1 PUSH1 0x1F ADD PUSH1 0x20 DUP1 SWAP2 DIV MUL PUSH1 0x20 ADD PUSH1 0x40 MLOAD SWAP1 DUP2 ADD PUSH1 0x40 MSTORE DUP1 SWAP3 SWAP2 SWAP1 DUP2 DUP2 MSTORE PUSH1 0x20 ADD DUP3 DUP1 SLOAD PUSH2 0xACB SWAP1 PUSH2 0x25BD JUMP JUMPDEST DUP1 ISZERO PUSH2 0xB18 JUMPI DUP1 PUSH1 0x1F LT PUSH2 0xAED JUMPI PUSH2 0x100 DUP1 DUP4 SLOAD DIV MUL DUP4 MSTORE SWAP2 PUSH1 0x20 ADD SWAP2 PUSH2 0xB18 JUMP JUMPDEST DUP3 ADD SWAP2 SWAP1 PUSH1 0x0 MSTORE PUSH1 0x20 PUSH1 0x0 KECCAK256 SWAP1 JUMPDEST DUP2 SLOAD DUP2 MSTORE SWAP1 PUSH1 0x1 ADD SWAP1 PUSH1 0x20 ADD DUP1 DUP4 GT PUSH2 0xAFB JUMPI DUP3 SWAP1 SUB PUSH1 0x1F AND DUP3 ADD SWAP2 JUMPDEST POP POP POP POP POP DUP2 PUSH1 0x40 ADD DUP2 SWAP1 MSTORE POP PUSH1 0x0 PUSH2 0xB30 DUP5 PUSH2 0x15C4 JUMP JUMPDEST PUSH1 0xFF AND EQ DUP2 PUSH2 0x160 ADD SWAP1 ISZERO ISZERO SWAP1 DUP2 ISZERO ISZERO DUP2 MSTORE POP POP PUSH1 0xE PUSH1 0x0 CALLER PUSH20 0xFFFFFFFFFFFFFFFFFFFFFFFFFFFFFFFFFFFFFFFF AND PUSH20 0xFFFFFFFFFFFFFFFFFFFFFFFFFFFFFFFFFFFFFFFF AND DUP2 MSTORE PUSH1 0x20 ADD SWAP1 DUP2 MSTORE PUSH1 0x20 ADD PUSH1 0x0 KECCAK256 PUSH1 0x0 SWAP1 SLOAD SWAP1 PUSH2 0x100 EXP SWAP1 DIV PUSH1 0xFF AND DUP2 PUSH2 0x1A0 ADD SWAP1 ISZERO ISZERO SWAP1 DUP2 ISZERO ISZERO DUP2 MSTORE POP POP PUSH1 0xF PUSH1 0x0 CALLER PUSH20 0xFFFFFFFFFFFFFFFFFFFFFFFFFFFFFFFFFFFFFFFF AND PUSH20 0xFFFFFFFFFFFFFFFFFFFFFFFFFFFFFFFFFFFFFFFF AND DUP2 MSTORE PUSH1 0x20 ADD SWAP1 DUP2 MSTORE PUSH1 0x20 ADD PUSH1 0x0 KECCAK256 PUSH1 0x0 SWAP1 SLOAD SWAP1 PUSH2 0x100 EXP SWAP1 DIV PUSH1 0xFF AND DUP2 PUSH2 0x1C0 ADD SWAP1 ISZERO ISZERO SWAP1 DUP2 ISZERO ISZERO DUP2 MSTORE POP POP PUSH1 0x5 SLOAD DUP2 PUSH2 0x120 ADD DUP2 DUP2 MSTORE POP POP PUSH1 0x6 SLOAD DUP2 PUSH2 0x140 ADD DUP2 DUP2 MSTORE POP POP ADDRESS DUP2 PUSH2 0x1E0 ADD SWAP1 PUSH20 0xFFFFFFFFFFFFFFFFFFFFFFFFFFFFFFFFFFFFFFFF AND SWAP1 DUP2 PUSH20 0xFFFFFFFFFFFFFFFFFFFFFFFFFFFFFFFFFFFFFFFF AND DUP2 MSTORE POP POP DUP1 SWAP2 POP POP SWAP2 SWAP1 POP JUMP JUMPDEST PUSH1 0x1 SLOAD DUP2 JUMP JUMPDEST PUSH2 0xC68 PUSH2 0x18C5 JUMP JUMPDEST DUP1 PUSH1 0x10 PUSH1 0x0 DUP5 PUSH20 0xFFFFFFFFFFFFFFFFFFFFFFFFFFFFFFFFFFFFFFFF AND PUSH20 0xFFFFFFFFFFFFFFFFFFFFFFFFFFFFFFFFFFFFFFFF AND DUP2 MSTORE PUSH1 0x20 ADD SWAP1 DUP2 MSTORE PUSH1 0x20 ADD PUSH1 0x0 KECCAK256 PUSH1 0x0 PUSH2 0x100 EXP DUP2 SLOAD DUP2 PUSH1 0xFF MUL NOT AND SWAP1 DUP4 ISZERO ISZERO MUL OR SWAP1 SSTORE POP POP POP JUMP JUMPDEST PUSH1 0xA SLOAD DUP2 JUMP JUMPDEST PUSH2 0xCD1 PUSH2 0x18C5 JUMP JUMPDEST PUSH1 0x0 SELFBALANCE SWAP1 POP PUSH1 0x0 DUP2 SUB PUSH2 0xD10 JUMPI PUSH1 0x40 MLOAD PUSH32 0x90B8EC1800000000000000000000000000000000000000000000000000000000 DUP2 MSTORE PUSH1 0x4 ADD PUSH1 0x40 MLOAD DUP1 SWAP2 SUB SWAP1 REVERT JUMPDEST PUSH1 0x0 PUSH1 0x1 SWAP1 POP PUSH1 0x0 PUSH1 0x9 SLOAD PUSH1 0x64 PUSH2 0xD27 SWAP2 SWAP1 PUSH2 0x261D JUMP JUMPDEST SWAP1 POP PUSH1 0x0 PUSH1 0x9 SLOAD GT ISZERO PUSH2 0xE13 JUMPI PUSH1 0x11 PUSH1 0x0 SWAP1 SLOAD SWAP1 PUSH2 0x100 EXP SWAP1 DIV PUSH20 0xFFFFFFFFFFFFFFFFFFFFFFFFFFFFFFFFFFFFFFFF AND PUSH20 0xFFFFFFFFFFFFFFFFFFFFFFFFFFFFFFFFFFFFFFFF AND PUSH1 0x64 DUP5 PUSH1 0x9 SLOAD PUSH2 0xD7D SWAP2 SWAP1 PUSH2 0x2651 JUMP JUMPDEST PUSH2 0xD87 SWAP2 SWAP1 PUSH2 0x26DA JUMP JUMPDEST PUSH1 0x40 MLOAD PUSH2 0xD93 SWAP1 PUSH2 0x273C JUMP JUMPDEST PUSH1 0x0 PUSH1 0x40 MLOAD DUP1 DUP4 SUB DUP2 DUP6 DUP8 GAS CALL SWAP3 POP POP POP RETURNDATASIZE DUP1 PUSH1 0x0 DUP2 EQ PUSH2 0xDD0 JUMPI PUSH1 0x40 MLOAD SWAP2 POP PUSH1 0x1F NOT PUSH1 0x3F RETURNDATASIZE ADD AND DUP3 ADD PUSH1 0x40 MSTORE RETURNDATASIZE DUP3 MSTORE RETURNDATASIZE PUSH1 0x0 PUSH1 0x20 DUP5 ADD RETURNDATACOPY PUSH2 0xDD5 JUMP JUMPDEST PUSH1 0x60 SWAP2 POP JUMPDEST POP POP DUP1 SWAP3 POP POP DUP2 PUSH2 0xE12 JUMPI PUSH1 0x40 MLOAD PUSH32 0x90B8EC1800000000000000000000000000000000000000000000000000000000 DUP2 MSTORE PUSH1 0x4 ADD PUSH1 0x40 MLOAD DUP1 SWAP2 SUB SWAP1 REVERT JUMPDEST JUMPDEST PUSH2 0xE1B PUSH2 0x101A JUMP JUMPDEST PUSH20 0xFFFFFFFFFFFFFFFFFFFFFFFFFFFFFFFFFFFFFFFF AND PUSH1 0x64 DUP5 DUP4 PUSH2 0xE3F SWAP2 SWAP1 PUSH2 0x2651 JUMP JUMPDEST PUSH2 0xE49 SWAP2 SWAP1 PUSH2 0x26DA JUMP JUMPDEST PUSH1 0x40 MLOAD PUSH2 0xE55 SWAP1 PUSH2 0x273C JUMP JUMPDEST PUSH1 0x0 PUSH1 0x40 MLOAD DUP1 DUP4 SUB DUP2 DUP6 DUP8 GAS CALL SWAP3 POP POP POP RETURNDATASIZE DUP1 PUSH1 0x0 DUP2 EQ PUSH2 0xE92 JUMPI PUSH1 0x40 MLOAD SWAP2 POP PUSH1 0x1F NOT PUSH1 0x3F RETURNDATASIZE ADD AND DUP3 ADD PUSH1 0x40 MSTORE RETURNDATASIZE DUP3 MSTORE RETURNDATASIZE PUSH1 0x0 PUSH1 0x20 DUP5 ADD RETURNDATACOPY PUSH2 0xE97 JUMP JUMPDEST PUSH1 0x60 SWAP2 POP JUMPDEST POP POP DUP1 SWAP3 POP POP DUP2 PUSH2 0xED4 JUMPI PUSH1 0x40 MLOAD PUSH32 0x90B8EC1800000000000000000000000000000000000000000000000000000000 DUP2 MSTORE PUSH1 0x4 ADD PUSH1 0x40 MLOAD DUP1 SWAP2 SUB SWAP1 REVERT JUMPDEST POP POP POP JUMP JUMPDEST PUSH2 0xEE1 PUSH2 0x18C5 JUMP JUMPDEST DUP2 PUSH1 0x0 PUSH1 0x15 PUSH2 0x100 EXP DUP2 SLOAD DUP2 PUSH1 0xFF MUL NOT AND SWAP1 DUP4 ISZERO ISZERO MUL OR SWAP1 SSTORE POP DUP1 PUSH1 0x0 PUSH1 0x14 PUSH2 0x100 EXP DUP2 SLOAD DUP2 PUSH1 0xFF MUL NOT AND SWAP1 DUP4 ISZERO ISZERO MUL OR SWAP1 SSTORE POP POP POP JUMP JUMPDEST PUSH2 0xF21 PUSH2 0x18C5 JUMP JUMPDEST PUSH2 0xF2B PUSH1 0x0 PUSH2 0x1943 JUMP JUMPDEST JUMP JUMPDEST PUSH1 0xC DUP1 SLOAD PUSH2 0xF3A SWAP1 PUSH2 0x25BD JUMP JUMPDEST DUP1 PUSH1 0x1F ADD PUSH1 0x20 DUP1 SWAP2 DIV MUL PUSH1 0x20 ADD PUSH1 0x40 MLOAD SWAP1 DUP2 ADD PUSH1 0x40 MSTORE DUP1 SWAP3 SWAP2 SWAP1 DUP2 DUP2 MSTORE PUSH1 0x20 ADD DUP3 DUP1 SLOAD PUSH2 0xF66 SWAP1 PUSH2 0x25BD JUMP JUMPDEST DUP1 ISZERO PUSH2 0xFB3 JUMPI DUP1 PUSH1 0x1F LT PUSH2 0xF88 JUMPI PUSH2 0x100 DUP1 DUP4 SLOAD DIV MUL DUP4 MSTORE SWAP2 PUSH1 0x20 ADD SWAP2 PUSH2 0xFB3 JUMP JUMPDEST DUP3 ADD SWAP2 SWAP1 PUSH1 0x0 MSTORE PUSH1 0x20 PUSH1 0x0 KECCAK256 SWAP1 JUMPDEST DUP2 SLOAD DUP2 MSTORE SWAP1 PUSH1 0x1 ADD SWAP1 PUSH1 0x20 ADD DUP1 DUP4 GT PUSH2 0xF96 JUMPI DUP3 SWAP1 SUB PUSH1 0x1F AND DUP3 ADD SWAP2 JUMPDEST POP POP POP POP POP DUP2 JUMP JUMPDEST PUSH1 0x0 PUSH1 0x15 SWAP1 SLOAD SWAP1 PUSH2 0x100 EXP SWAP1 DIV PUSH1 0xFF AND DUP2 JUMP JUMPDEST PUSH1 0x6 SLOAD DUP2 JUMP JUMPDEST PUSH2 0xFDC PUSH2 0x18C5 JUMP JUMPDEST DUP2 PUSH1 0x7 DUP2 SWAP1 SSTORE POP DUP1 PUSH1 0x8 DUP2 SWAP1 SSTORE POP POP POP JUMP JUMPDEST PUSH1 0x8 SLOAD DUP2 JUMP JUMPDEST PUSH1 0x11 PUSH1 0x0 SWAP1 SLOAD SWAP1 PUSH2 0x100 EXP SWAP1 DIV PUSH20 0xFFFFFFFFFFFFFFFFFFFFFFFFFFFFFFFFFFFFFFFF AND DUP2 JUMP JUMPDEST PUSH1 0x0 DUP1 PUSH1 0x0 SWAP1 SLOAD SWAP1 PUSH2 0x100 EXP SWAP1 DIV PUSH20 0xFFFFFFFFFFFFFFFFFFFFFFFFFFFFFFFFFFFFFFFF AND SWAP1 POP SWAP1 JUMP JUMPDEST PUSH1 0x3 SLOAD DUP2 JUMP JUMPDEST PUSH2 0x1051 PUSH2 0x18C5 JUMP JUMPDEST DUP3 PUSH1 0x3 DUP2 SWAP1 SSTORE POP DUP2 PUSH1 0x4 DUP2 SWAP1 SSTORE POP DUP1 PUSH1 0x2 DUP2 SWAP1 SSTORE POP POP POP POP JUMP JUMPDEST PUSH1 0x0 PUSH2 0x1076 TIMESTAMP PUSH2 0x15C4 JUMP JUMPDEST SWAP1 POP PUSH1 0x1 DUP2 PUSH1 0xFF AND SUB PUSH2 0x10B5 JUMPI PUSH1 0x40 MLOAD PUSH32 0xA8AB2D2500000000000000000000000000000000000000000000000000000000 DUP2 MSTORE PUSH1 0x4 ADD PUSH1 0x40 MLOAD DUP1 SWAP2 SUB SWAP1 REVERT JUMPDEST PUSH1 0x2 DUP2 PUSH1 0xFF AND SUB PUSH2 0x10F2 JUMPI PUSH1 0x40 MLOAD PUSH32 0x2FC209F300000000000000000000000000000000000000000000000000000000 DUP2 MSTORE PUSH1 0x4 ADD PUSH1 0x40 MLOAD DUP1 SWAP2 SUB SWAP1 REVERT JUMPDEST PUSH1 0x3 DUP2 PUSH1 0xFF AND SUB PUSH2 0x112F JUMPI PUSH1 0x40 MLOAD PUSH32 0x3A81D6FC00000000000000000000000000000000000000000000000000000000 DUP2 MSTORE PUSH1 0x4 ADD PUSH1 0x40 MLOAD DUP1 SWAP2 SUB SWAP1 REVERT JUMPDEST PUSH1 0x4 DUP2 PUSH1 0xFF AND SUB PUSH2 0x116C JUMPI PUSH1 0x40 MLOAD PUSH32 0x486FFFD200000000000000000000000000000000000000000000000000000000 DUP2 MSTORE PUSH1 0x4 ADD PUSH1 0x40 MLOAD DUP1 SWAP2 SUB SWAP1 REVERT JUMPDEST PUSH1 0x0 PUSH1 0x14 SWAP1 SLOAD SWAP1 PUSH2 0x100 EXP SWAP1 DIV PUSH1 0xFF AND ISZERO DUP1 PUSH2 0x11F9 JUMPI POP PUSH2 0x11F7 DUP4 DUP4 DUP1 DUP1 PUSH1 0x20 MUL PUSH1 0x20 ADD PUSH1 0x40 MLOAD SWAP1 DUP2 ADD PUSH1 0x40 MSTORE DUP1 SWAP4 SWAP3 SWAP2 SWAP1 DUP2 DUP2 MSTORE PUSH1 0x20 ADD DUP4 DUP4 PUSH1 0x20 MUL DUP1 DUP3 DUP5 CALLDATACOPY PUSH1 0x0 DUP2 DUP5 ADD MSTORE PUSH1 0x1F NOT PUSH1 0x1F DUP3 ADD AND SWAP1 POP DUP1 DUP4 ADD SWAP3 POP POP POP POP POP POP POP PUSH1 0xA SLOAD CALLER PUSH1 0x40 MLOAD PUSH1 0x20 ADD PUSH2 0x11DC SWAP2 SWAP1 PUSH2 0x2799 JUMP JUMPDEST PUSH1 0x40 MLOAD PUSH1 0x20 DUP2 DUP4 SUB SUB DUP2 MSTORE SWAP1 PUSH1 0x40 MSTORE DUP1 MLOAD SWAP1 PUSH1 0x20 ADD KECCAK256 PUSH2 0x1A07 JUMP JUMPDEST ISZERO JUMPDEST ISZERO PUSH2 0x1230 JUMPI PUSH1 0x40 MLOAD PUSH32 0xAD7ACB4700000000000000000000000000000000000000000000000000000000 DUP2 MSTORE PUSH1 0x4 ADD PUSH1 0x40 MLOAD DUP1 SWAP2 SUB SWAP1 REVERT JUMPDEST PUSH1 0x8 SLOAD CALLVALUE LT ISZERO PUSH2 0x126C JUMPI PUSH1 0x40 MLOAD PUSH32 0x791266B600000000000000000000000000000000000000000000000000000000 DUP2 MSTORE PUSH1 0x4 ADD PUSH1 0x40 MLOAD DUP1 SWAP2 SUB SWAP1 REVERT JUMPDEST PUSH2 0x1275 CALLER PUSH2 0x1A1E JUMP JUMPDEST POP POP POP JUMP JUMPDEST PUSH1 0x5 SLOAD DUP2 JUMP JUMPDEST PUSH2 0x1288 PUSH2 0x18C5 JUMP JUMPDEST DUP1 PUSH1 0xA DUP2 SWAP1 SSTORE POP POP JUMP JUMPDEST PUSH1 0x0 PUSH1 0x14 SWAP1 SLOAD SWAP1 PUSH2 0x100 EXP SWAP1 DIV PUSH1 0xFF AND DUP2 JUMP JUMPDEST PUSH2 0x12AD PUSH2 0x101A JUMP JUMPDEST PUSH20 0xFFFFFFFFFFFFFFFFFFFFFFFFFFFFFFFFFFFFFFFF AND CALLER PUSH20 0xFFFFFFFFFFFFFFFFFFFFFFFFFFFFFFFFFFFFFFFF AND EQ ISZERO DUP1 ISZERO PUSH2 0x1332 JUMPI POP PUSH1 0x10 PUSH1 0x0 CALLER PUSH20 0xFFFFFFFFFFFFFFFFFFFFFFFFFFFFFFFFFFFFFFFF AND PUSH20 0xFFFFFFFFFFFFFFFFFFFFFFFFFFFFFFFFFFFFFFFF AND DUP2 MSTORE PUSH1 0x20 ADD SWAP1 DUP2 MSTORE PUSH1 0x20 ADD PUSH1 0x0 KECCAK256 PUSH1 0x0 SWAP1 SLOAD SWAP1 PUSH2 0x100 EXP SWAP1 DIV PUSH1 0xFF AND ISZERO JUMPDEST ISZERO PUSH2 0x1369 JUMPI PUSH1 0x40 MLOAD PUSH32 0xEAA45D6A00000000000000000000000000000000000000000000000000000000 DUP2 MSTORE PUSH1 0x4 ADD PUSH1 0x40 MLOAD DUP1 SWAP2 SUB SWAP1 REVERT JUMPDEST PUSH1 0x0 TIMESTAMP SWAP1 POP PUSH1 0x3 SLOAD DUP2 LT DUP1 PUSH2 0x137F JUMPI POP PUSH1 0x4 SLOAD DUP2 GT JUMPDEST ISZERO PUSH2 0x13B6 JUMPI PUSH1 0x40 MLOAD PUSH32 0x91E3BE3900000000000000000000000000000000000000000000000000000000 DUP2 MSTORE PUSH1 0x4 ADD PUSH1 0x40 MLOAD DUP1 SWAP2 SUB SWAP1 REVERT JUMPDEST PUSH1 0xE PUSH1 0x0 DUP4 PUSH20 0xFFFFFFFFFFFFFFFFFFFFFFFFFFFFFFFFFFFFFFFF AND PUSH20 0xFFFFFFFFFFFFFFFFFFFFFFFFFFFFFFFFFFFFFFFF AND DUP2 MSTORE PUSH1 0x20 ADD SWAP1 DUP2 MSTORE PUSH1 0x20 ADD PUSH1 0x0 KECCAK256 PUSH1 0x0 SWAP1 SLOAD SWAP1 PUSH2 0x100 EXP SWAP1 DIV PUSH1 0xFF AND PUSH2 0x1439 JUMPI PUSH1 0x40 MLOAD PUSH32 0xABA4733900000000000000000000000000000000000000000000000000000000 DUP2 MSTORE PUSH1 0x4 ADD PUSH1 0x40 MLOAD DUP1 SWAP2 SUB SWAP1 REVERT JUMPDEST PUSH1 0xF PUSH1 0x0 DUP4 PUSH20 0xFFFFFFFFFFFFFFFFFFFFFFFFFFFFFFFFFFFFFFFF AND PUSH20 0xFFFFFFFFFFFFFFFFFFFFFFFFFFFFFFFFFFFFFFFF AND DUP2 MSTORE PUSH1 0x20 ADD SWAP1 DUP2 MSTORE PUSH1 0x20 ADD PUSH1 0x0 KECCAK256 PUSH1 0x0 SWAP1 SLOAD SWAP1 PUSH2 0x100 EXP SWAP1 DIV PUSH1 0xFF AND ISZERO PUSH2 0x14BD JUMPI PUSH1 0x40 MLOAD PUSH32 0xC98289F000000000000000000000000000000000000000000000000000000000 DUP2 MSTORE PUSH1 0x4 ADD PUSH1 0x40 MLOAD DUP1 SWAP2 SUB SWAP1 REVERT JUMPDEST PUSH1 0x1 PUSH1 0xF PUSH1 0x0 DUP5 PUSH20 0xFFFFFFFFFFFFFFFFFFFFFFFFFFFFFFFFFFFFFFFF AND PUSH20 0xFFFFFFFFFFFFFFFFFFFFFFFFFFFFFFFFFFFFFFFF AND DUP2 MSTORE PUSH1 0x20 ADD SWAP1 DUP2 MSTORE PUSH1 0x20 ADD PUSH1 0x0 KECCAK256 PUSH1 0x0 PUSH2 0x100 EXP DUP2 SLOAD DUP2 PUSH1 0xFF MUL NOT AND SWAP1 DUP4 ISZERO ISZERO MUL OR SWAP1 SSTORE POP PUSH1 0x1 PUSH1 0x6 PUSH1 0x0 DUP3 DUP3 SLOAD PUSH2 0x1528 SWAP2 SWAP1 PUSH2 0x27B4 JUMP JUMPDEST SWAP3 POP POP DUP2 SWAP1 SSTORE POP PUSH32 0xCBF477E63735F8D27F9B668165862D7C6E84E5650EDEC70229523DB18C2F1EFD DUP3 PUSH1 0x40 MLOAD PUSH2 0x155E SWAP2 SWAP1 PUSH2 0x21F3 JUMP JUMPDEST PUSH1 0x40 MLOAD DUP1 SWAP2 SUB SWAP1 LOG1 POP POP JUMP JUMPDEST PUSH2 0x1572 PUSH2 0x18C5 JUMP JUMPDEST DUP4 PUSH1 0xB SWAP1 DUP1 MLOAD SWAP1 PUSH1 0x20 ADD SWAP1 PUSH2 0x1588 SWAP3 SWAP2 SWAP1 PUSH2 0x1C05 JUMP JUMPDEST POP DUP3 PUSH1 0xC SWAP1 DUP1 MLOAD SWAP1 PUSH1 0x20 ADD SWAP1 PUSH2 0x159F SWAP3 SWAP2 SWAP1 PUSH2 0x1C05 JUMP JUMPDEST POP DUP2 PUSH1 0xD SWAP1 DUP1 MLOAD SWAP1 PUSH1 0x20 ADD SWAP1 PUSH2 0x15B6 SWAP3 SWAP2 SWAP1 PUSH2 0x1C05 JUMP JUMPDEST POP DUP1 PUSH1 0x1 DUP2 SWAP1 SSTORE POP POP POP POP POP JUMP JUMPDEST PUSH1 0x0 PUSH1 0x3 SLOAD DUP3 GT ISZERO PUSH2 0x15D9 JUMPI PUSH1 0x1 SWAP1 POP PUSH2 0x1687 JUMP JUMPDEST PUSH1 0x0 PUSH1 0x15 SWAP1 SLOAD SWAP1 PUSH2 0x100 EXP SWAP1 DIV PUSH1 0xFF AND ISZERO DUP1 PUSH2 0x15F6 JUMPI POP PUSH1 0x2 SLOAD DUP3 GT JUMPDEST ISZERO PUSH2 0x1604 JUMPI PUSH1 0x2 SWAP1 POP PUSH2 0x1687 JUMP JUMPDEST PUSH1 0xE PUSH1 0x0 CALLER PUSH20 0xFFFFFFFFFFFFFFFFFFFFFFFFFFFFFFFFFFFFFFFF AND PUSH20 0xFFFFFFFFFFFFFFFFFFFFFFFFFFFFFFFFFFFFFFFF AND DUP2 MSTORE PUSH1 0x20 ADD SWAP1 DUP2 MSTORE PUSH1 0x20 ADD PUSH1 0x0 KECCAK256 PUSH1 0x0 SWAP1 SLOAD SWAP1 PUSH2 0x100 EXP SWAP1 DIV PUSH1 0xFF AND ISZERO PUSH2 0x165F JUMPI PUSH1 0x3 SWAP1 POP PUSH2 0x1687 JUMP JUMPDEST PUSH1 0x0 PUSH1 0x1 SLOAD GT DUP1 ISZERO PUSH2 0x1674 JUMPI POP PUSH1 0x1 SLOAD PUSH1 0x5 SLOAD EQ JUMPDEST ISZERO PUSH2 0x1682 JUMPI PUSH1 0x4 SWAP1 POP PUSH2 0x1687 JUMP JUMPDEST PUSH1 0x0 SWAP1 POP JUMPDEST SWAP2 SWAP1 POP JUMP JUMPDEST PUSH1 0x4 SLOAD DUP2 JUMP JUMPDEST PUSH2 0x169A PUSH2 0x18C5 JUMP JUMPDEST PUSH1 0x0 PUSH20 0xFFFFFFFFFFFFFFFFFFFFFFFFFFFFFFFFFFFFFFFF AND DUP2 PUSH20 0xFFFFFFFFFFFFFFFFFFFFFFFFFFFFFFFFFFFFFFFF AND SUB PUSH2 0x1709 JUMPI PUSH1 0x40 MLOAD PUSH32 0x8C379A000000000000000000000000000000000000000000000000000000000 DUP2 MSTORE PUSH1 0x4 ADD PUSH2 0x1700 SWAP1 PUSH2 0x287C JUMP JUMPDEST PUSH1 0x40 MLOAD DUP1 SWAP2 SUB SWAP1 REVERT JUMPDEST PUSH2 0x1712 DUP2 PUSH2 0x1943 JUMP JUMPDEST POP JUMP JUMPDEST PUSH1 0x0 PUSH2 0x1720 TIMESTAMP PUSH2 0x15C4 JUMP JUMPDEST SWAP1 POP PUSH1 0x1 DUP2 PUSH1 0xFF AND SUB PUSH2 0x175F JUMPI PUSH1 0x40 MLOAD PUSH32 0xA8AB2D2500000000000000000000000000000000000000000000000000000000 DUP2 MSTORE PUSH1 0x4 ADD PUSH1 0x40 MLOAD DUP1 SWAP2 SUB SWAP1 REVERT JUMPDEST PUSH1 0x2 DUP2 PUSH1 0xFF AND SUB PUSH2 0x179C JUMPI PUSH1 0x40 MLOAD PUSH32 0x2FC209F300000000000000000000000000000000000000000000000000000000 DUP2 MSTORE PUSH1 0x4 ADD PUSH1 0x40 MLOAD DUP1 SWAP2 SUB SWAP1 REVERT JUMPDEST PUSH1 0x3 DUP2 PUSH1 0xFF AND SUB PUSH2 0x17D9 JUMPI PUSH1 0x40 MLOAD PUSH32 0x3A81D6FC00000000000000000000000000000000000000000000000000000000 DUP2 MSTORE PUSH1 0x4 ADD PUSH1 0x40 MLOAD DUP1 SWAP2 SUB SWAP1 REVERT JUMPDEST PUSH1 0x4 DUP2 PUSH1 0xFF AND SUB PUSH2 0x1816 JUMPI PUSH1 0x40 MLOAD PUSH32 0x486FFFD200000000000000000000000000000000000000000000000000000000 DUP2 MSTORE PUSH1 0x4 ADD PUSH1 0x40 MLOAD DUP1 SWAP2 SUB SWAP1 REVERT JUMPDEST PUSH1 0x0 PUSH1 0x14 SWAP1 SLOAD SWAP1 PUSH2 0x100 EXP SWAP1 DIV PUSH1 0xFF AND ISZERO PUSH2 0x185D JUMPI PUSH1 0x40 MLOAD PUSH32 0xAD7ACB4700000000000000000000000000000000000000000000000000000000 DUP2 MSTORE PUSH1 0x4 ADD PUSH1 0x40 MLOAD DUP1 SWAP2 SUB SWAP1 REVERT JUMPDEST PUSH1 0x7 SLOAD CALLVALUE LT ISZERO PUSH2 0x1899 JUMPI PUSH1 0x40 MLOAD PUSH32 0x791266B600000000000000000000000000000000000000000000000000000000 DUP2 MSTORE PUSH1 0x4 ADD PUSH1 0x40 MLOAD DUP1 SWAP2 SUB SWAP1 REVERT JUMPDEST PUSH2 0x18A2 CALLER PUSH2 0x1A1E JUMP JUMPDEST POP JUMP JUMPDEST PUSH1 0xF PUSH1 0x20 MSTORE DUP1 PUSH1 0x0 MSTORE PUSH1 0x40 PUSH1 0x0 KECCAK256 PUSH1 0x0 SWAP2 POP SLOAD SWAP1 PUSH2 0x100 EXP SWAP1 DIV PUSH1 0xFF AND DUP2 JUMP JUMPDEST PUSH2 0x18CD PUSH2 0x1ACA JUMP JUMPDEST PUSH20 0xFFFFFFFFFFFFFFFFFFFFFFFFFFFFFFFFFFFFFFFF AND PUSH2 0x18EB PUSH2 0x101A JUMP JUMPDEST PUSH20 0xFFFFFFFFFFFFFFFFFFFFFFFFFFFFFFFFFFFFFFFF AND EQ PUSH2 0x1941 JUMPI PUSH1 0x40 MLOAD PUSH32 0x8C379A000000000000000000000000000000000000000000000000000000000 DUP2 MSTORE PUSH1 0x4 ADD PUSH2 0x1938 SWAP1 PUSH2 0x28E8 JUMP JUMPDEST PUSH1 0x40 MLOAD DUP1 SWAP2 SUB SWAP1 REVERT JUMPDEST JUMP JUMPDEST PUSH1 0x0 DUP1 PUSH1 0x0 SWAP1 SLOAD SWAP1 PUSH2 0x100 EXP SWAP1 DIV PUSH20 0xFFFFFFFFFFFFFFFFFFFFFFFFFFFFFFFFFFFFFFFF AND SWAP1 POP DUP2 PUSH1 0x0 DUP1 PUSH2 0x100 EXP DUP2 SLOAD DUP2 PUSH20 0xFFFFFFFFFFFFFFFFFFFFFFFFFFFFFFFFFFFFFFFF MUL NOT AND SWAP1 DUP4 PUSH20 0xFFFFFFFFFFFFFFFFFFFFFFFFFFFFFFFFFFFFFFFF AND MUL OR SWAP1 SSTORE POP DUP2 PUSH20 0xFFFFFFFFFFFFFFFFFFFFFFFFFFFFFFFFFFFFFFFF AND DUP2 PUSH20 0xFFFFFFFFFFFFFFFFFFFFFFFFFFFFFFFFFFFFFFFF AND PUSH32 0x8BE0079C531659141344CD1FD0A4F28419497F9722A3DAAFE3B4186F6B6457E0 PUSH1 0x40 MLOAD PUSH1 0x40 MLOAD DUP1 SWAP2 SUB SWAP1 LOG3 POP POP JUMP JUMPDEST PUSH1 0x0 DUP3 PUSH2 0x1A14 DUP6 DUP5 PUSH2 0x1AD2 JUMP JUMPDEST EQ SWAP1 POP SWAP4 SWAP3 POP POP POP JUMP JUMPDEST PUSH1 0x1 PUSH1 0xE PUSH1 0x0 DUP4 PUSH20 0xFFFFFFFFFFFFFFFFFFFFFFFFFFFFFFFFFFFFFFFF AND PUSH20 0xFFFFFFFFFFFFFFFFFFFFFFFFFFFFFFFFFFFFFFFF AND DUP2 MSTORE PUSH1 0x20 ADD SWAP1 DUP2 MSTORE PUSH1 0x20 ADD PUSH1 0x0 KECCAK256 PUSH1 0x0 PUSH2 0x100 EXP DUP2 SLOAD DUP2 PUSH1 0xFF MUL NOT AND SWAP1 DUP4 ISZERO ISZERO MUL OR SWAP1 SSTORE POP PUSH1 0x1 PUSH1 0x5 PUSH1 0x0 DUP3 DUP3 SLOAD PUSH2 0x1A89 SWAP2 SWAP1 PUSH2 0x27B4 JUMP JUMPDEST SWAP3 POP POP DUP2 SWAP1 SSTORE POP PUSH32 0xE11711CD714E06FBBBEA301A8E90822F2F2EA4808E37E3ADF06038F33C53FF27 DUP2 PUSH1 0x40 MLOAD PUSH2 0x1ABF SWAP2 SWAP1 PUSH2 0x21F3 JUMP JUMPDEST PUSH1 0x40 MLOAD DUP1 SWAP2 SUB SWAP1 LOG1 POP JUMP JUMPDEST PUSH1 0x0 CALLER SWAP1 POP SWAP1 JUMP JUMPDEST PUSH1 0x0 DUP1 DUP3 SWAP1 POP PUSH1 0x0 JUMPDEST DUP5 MLOAD DUP2 LT ISZERO PUSH2 0x1B1D JUMPI PUSH2 0x1B08 DUP3 DUP7 DUP4 DUP2 MLOAD DUP2 LT PUSH2 0x1AFB JUMPI PUSH2 0x1AFA PUSH2 0x2908 JUMP JUMPDEST JUMPDEST PUSH1 0x20 MUL PUSH1 0x20 ADD ADD MLOAD PUSH2 0x1B28 JUMP JUMPDEST SWAP2 POP DUP1 DUP1 PUSH2 0x1B15 SWAP1 PUSH2 0x2937 JUMP JUMPDEST SWAP2 POP POP PUSH2 0x1ADB JUMP JUMPDEST POP DUP1 SWAP2 POP POP SWAP3 SWAP2 POP POP JUMP JUMPDEST PUSH1 0x0 DUP2 DUP4 LT PUSH2 0x1B40 JUMPI PUSH2 0x1B3B DUP3 DUP5 PUSH2 0x1B53 JUMP JUMPDEST PUSH2 0x1B4B JUMP JUMPDEST PUSH2 0x1B4A DUP4 DUP4 PUSH2 0x1B53 JUMP JUMPDEST JUMPDEST SWAP1 POP SWAP3 SWAP2 POP POP JUMP JUMPDEST PUSH1 0x0 DUP3 PUSH1 0x0 MSTORE DUP2 PUSH1 0x20 MSTORE PUSH1 0x40 PUSH1 0x0 KECCAK256 SWAP1 POP SWAP3 SWAP2 POP POP JUMP JUMPDEST PUSH1 0x40 MLOAD DUP1 PUSH2 0x200 ADD PUSH1 0x40 MSTORE DUP1 PUSH1 0x60 DUP2 MSTORE PUSH1 0x20 ADD PUSH1 0x60 DUP2 MSTORE PUSH1 0x20 ADD PUSH1 0x60 DUP2 MSTORE PUSH1 0x20 ADD PUSH1 0x0 DUP2 MSTORE PUSH1 0x20 ADD PUSH1 0x0 DUP2 MSTORE PUSH1 0x20 ADD PUSH1 0x0 DUP2 MSTORE PUSH1 0x20 ADD PUSH1 0x0 DUP2 MSTORE PUSH1 0x20 ADD PUSH1 0x0 DUP2 MSTORE PUSH1 0x20 ADD PUSH1 0x0 DUP2 MSTORE PUSH1 0x20 ADD PUSH1 0x0 DUP2 MSTORE PUSH1 0x20 ADD PUSH1 0x0 DUP2 MSTORE PUSH1 0x20 ADD PUSH1 0x0 ISZERO ISZERO DUP2 MSTORE PUSH1 0x20 ADD PUSH1 0x0 ISZERO ISZERO DUP2 MSTORE PUSH1 0x20 ADD PUSH1 0x0 ISZERO ISZERO DUP2 MSTORE PUSH1 0x20 ADD PUSH1 0x0 ISZERO ISZERO DUP2 MSTORE PUSH1 0x20 ADD PUSH1 0x0 PUSH20 0xFFFFFFFFFFFFFFFFFFFFFFFFFFFFFFFFFFFFFFFF AND DUP2 MSTORE POP SWAP1 JUMP JUMPDEST DUP3 DUP1 SLOAD PUSH2 0x1C11 SWAP1 PUSH2 0x25BD JUMP JUMPDEST SWAP1 PUSH1 0x0 MSTORE PUSH1 0x20 PUSH1 0x0 KECCAK256 SWAP1 PUSH1 0x1F ADD PUSH1 0x20 SWAP1 DIV DUP2 ADD SWAP3 DUP3 PUSH2 0x1C33 JUMPI PUSH1 0x0 DUP6 SSTORE PUSH2 0x1C7A JUMP JUMPDEST DUP3 PUSH1 0x1F LT PUSH2 0x1C4C JUMPI DUP1 MLOAD PUSH1 0xFF NOT AND DUP4 DUP1 ADD OR DUP6 SSTORE PUSH2 0x1C7A JUMP JUMPDEST DUP3 DUP1 ADD PUSH1 0x1 ADD DUP6 SSTORE DUP3 ISZERO PUSH2 0x1C7A JUMPI SWAP2 DUP3 ADD JUMPDEST DUP3 DUP2 GT ISZERO PUSH2 0x1C79 JUMPI DUP3 MLOAD DUP3 SSTORE SWAP2 PUSH1 0x20 ADD SWAP2 SWAP1 PUSH1 0x1 ADD SWAP1 PUSH2 0x1C5E JUMP JUMPDEST JUMPDEST POP SWAP1 POP PUSH2 0x1C87 SWAP2 SWAP1 PUSH2 0x1C8B JUMP JUMPDEST POP SWAP1 JUMP JUMPDEST JUMPDEST DUP1 DUP3 GT ISZERO PUSH2 0x1CA4 JUMPI PUSH1 0x0 DUP2 PUSH1 0x0 SWAP1 SSTORE POP PUSH1 0x1 ADD PUSH2 0x1C8C JUMP JUMPDEST POP SWAP1 JUMP JUMPDEST PUSH1 0x0 DUP2 SWAP1 POP SWAP2 SWAP1 POP JUMP JUMPDEST PUSH2 0x1CBB DUP2 PUSH2 0x1CA8 JUMP JUMPDEST DUP3 MSTORE POP POP JUMP JUMPDEST PUSH1 0x0 PUSH1 0x20 DUP3 ADD SWAP1 POP PUSH2 0x1CD6 PUSH1 0x0 DUP4 ADD DUP5 PUSH2 0x1CB2 JUMP JUMPDEST SWAP3 SWAP2 POP POP JUMP JUMPDEST PUSH1 0x0 DUP2 MLOAD SWAP1 POP SWAP2 SWAP1 POP JUMP JUMPDEST PUSH1 0x0 DUP3 DUP3 MSTORE PUSH1 0x20 DUP3 ADD SWAP1 POP SWAP3 SWAP2 POP POP JUMP JUMPDEST PUSH1 0x0 JUMPDEST DUP4 DUP2 LT ISZERO PUSH2 0x1D16 JUMPI DUP1 DUP3 ADD MLOAD DUP2 DUP5 ADD MSTORE PUSH1 0x20 DUP2 ADD SWAP1 POP PUSH2 0x1CFB JUMP JUMPDEST DUP4 DUP2 GT ISZERO PUSH2 0x1D25 JUMPI PUSH1 0x0 DUP5 DUP5 ADD MSTORE JUMPDEST POP POP POP POP JUMP JUMPDEST PUSH1 0x0 PUSH1 0x1F NOT PUSH1 0x1F DUP4 ADD AND SWAP1 POP SWAP2 SWAP1 POP JUMP JUMPDEST PUSH1 0x0 PUSH2 0x1D47 DUP3 PUSH2 0x1CDC JUMP JUMPDEST PUSH2 0x1D51 DUP2 DUP6 PUSH2 0x1CE7 JUMP JUMPDEST SWAP4 POP PUSH2 0x1D61 DUP2 DUP6 PUSH1 0x20 DUP7 ADD PUSH2 0x1CF8 JUMP JUMPDEST PUSH2 0x1D6A DUP2 PUSH2 0x1D2B JUMP JUMPDEST DUP5 ADD SWAP2 POP POP SWAP3 SWAP2 POP POP JUMP JUMPDEST PUSH1 0x0 PUSH1 0x20 DUP3 ADD SWAP1 POP DUP2 DUP2 SUB PUSH1 0x0 DUP4 ADD MSTORE PUSH2 0x1D8F DUP2 DUP5 PUSH2 0x1D3C JUMP JUMPDEST SWAP1 POP SWAP3 SWAP2 POP POP JUMP JUMPDEST PUSH1 0x0 PUSH1 0x40 MLOAD SWAP1 POP SWAP1 JUMP JUMPDEST PUSH1 0x0 DUP1 REVERT JUMPDEST PUSH1 0x0 DUP1 REVERT JUMPDEST PUSH1 0x0 PUSH20 0xFFFFFFFFFFFFFFFFFFFFFFFFFFFFFFFFFFFFFFFF DUP3 AND SWAP1 POP SWAP2 SWAP1 POP JUMP JUMPDEST PUSH1 0x0 PUSH2 0x1DD6 DUP3 PUSH2 0x1DAB JUMP JUMPDEST SWAP1 POP SWAP2 SWAP1 POP JUMP JUMPDEST PUSH2 0x1DE6 DUP2 PUSH2 0x1DCB JUMP JUMPDEST DUP2 EQ PUSH2 0x1DF1 JUMPI PUSH1 0x0 DUP1 REVERT JUMPDEST POP JUMP JUMPDEST PUSH1 0x0 DUP2 CALLDATALOAD SWAP1 POP PUSH2 0x1E03 DUP2 PUSH2 0x1DDD JUMP JUMPDEST SWAP3 SWAP2 POP POP JUMP JUMPDEST PUSH1 0x0 PUSH1 0x20 DUP3 DUP5 SUB SLT ISZERO PUSH2 0x1E1F JUMPI PUSH2 0x1E1E PUSH2 0x1DA1 JUMP JUMPDEST JUMPDEST PUSH1 0x0 PUSH2 0x1E2D DUP5 DUP3 DUP6 ADD PUSH2 0x1DF4 JUMP JUMPDEST SWAP2 POP POP SWAP3 SWAP2 POP POP JUMP JUMPDEST PUSH1 0x0 DUP2 ISZERO ISZERO SWAP1 POP SWAP2 SWAP1 POP JUMP JUMPDEST PUSH2 0x1E4B DUP2 PUSH2 0x1E36 JUMP JUMPDEST DUP3 MSTORE POP POP JUMP JUMPDEST PUSH1 0x0 PUSH1 0x20 DUP3 ADD SWAP1 POP PUSH2 0x1E66 PUSH1 0x0 DUP4 ADD DUP5 PUSH2 0x1E42 JUMP JUMPDEST SWAP3 SWAP2 POP POP JUMP JUMPDEST PUSH2 0x1E75 DUP2 PUSH2 0x1CA8 JUMP JUMPDEST DUP2 EQ PUSH2 0x1E80 JUMPI PUSH1 0x0 DUP1 REVERT JUMPDEST POP JUMP JUMPDEST PUSH1 0x0 DUP2 CALLDATALOAD SWAP1 POP PUSH2 0x1E92 DUP2 PUSH2 0x1E6C JUMP JUMPDEST SWAP3 SWAP2 POP POP JUMP JUMPDEST PUSH1 0x0 PUSH1 0x20 DUP3 DUP5 SUB SLT ISZERO PUSH2 0x1EAE JUMPI PUSH2 0x1EAD PUSH2 0x1DA1 JUMP JUMPDEST JUMPDEST PUSH1 0x0 PUSH2 0x1EBC DUP5 DUP3 DUP6 ADD PUSH2 0x1E83 JUMP JUMPDEST SWAP2 POP POP SWAP3 SWAP2 POP POP JUMP JUMPDEST PUSH1 0x0 DUP3 DUP3 MSTORE PUSH1 0x20 DUP3 ADD SWAP1 POP SWAP3 SWAP2 POP POP JUMP JUMPDEST PUSH1 0x0 PUSH2 0x1EE1 DUP3 PUSH2 0x1CDC JUMP JUMPDEST PUSH2 0x1EEB DUP2 DUP6 PUSH2 0x1EC5 JUMP JUMPDEST SWAP4 POP PUSH2 0x1EFB DUP2 DUP6 PUSH1 0x20 DUP7 ADD PUSH2 0x1CF8 JUMP JUMPDEST PUSH2 0x1F04 DUP2 PUSH2 0x1D2B JUMP JUMPDEST DUP5 ADD SWAP2 POP POP SWAP3 SWAP2 POP POP JUMP JUMPDEST PUSH2 0x1F18 DUP2 PUSH2 0x1CA8 JUMP JUMPDEST DUP3 MSTORE POP POP JUMP JUMPDEST PUSH2 0x1F27 DUP2 PUSH2 0x1E36 JUMP JUMPDEST DUP3 MSTORE POP POP JUMP JUMPDEST PUSH2 0x1F36 DUP2 PUSH2 0x1DCB JUMP JUMPDEST DUP3 MSTORE POP POP JUMP JUMPDEST PUSH1 0x0 PUSH2 0x200 DUP4 ADD PUSH1 0x0 DUP4 ADD MLOAD DUP5 DUP3 SUB PUSH1 0x0 DUP7 ADD MSTORE PUSH2 0x1F5A DUP3 DUP3 PUSH2 0x1ED6 JUMP JUMPDEST SWAP2 POP POP PUSH1 0x20 DUP4 ADD MLOAD DUP5 DUP3 SUB PUSH1 0x20 DUP7 ADD MSTORE PUSH2 0x1F74 DUP3 DUP3 PUSH2 0x1ED6 JUMP JUMPDEST SWAP2 POP POP PUSH1 0x40 DUP4 ADD MLOAD DUP5 DUP3 SUB PUSH1 0x40 DUP7 ADD MSTORE PUSH2 0x1F8E DUP3 DUP3 PUSH2 0x1ED6 JUMP JUMPDEST SWAP2 POP POP PUSH1 0x60 DUP4 ADD MLOAD PUSH2 0x1FA3 PUSH1 0x60 DUP7 ADD DUP3 PUSH2 0x1F0F JUMP JUMPDEST POP PUSH1 0x80 DUP4 ADD MLOAD PUSH2 0x1FB6 PUSH1 0x80 DUP7 ADD DUP3 PUSH2 0x1F0F JUMP JUMPDEST POP PUSH1 0xA0 DUP4 ADD MLOAD PUSH2 0x1FC9 PUSH1 0xA0 DUP7 ADD DUP3 PUSH2 0x1F0F JUMP JUMPDEST POP PUSH1 0xC0 DUP4 ADD MLOAD PUSH2 0x1FDC PUSH1 0xC0 DUP7 ADD DUP3 PUSH2 0x1F0F JUMP JUMPDEST POP PUSH1 0xE0 DUP4 ADD MLOAD PUSH2 0x1FEF PUSH1 0xE0 DUP7 ADD DUP3 PUSH2 0x1F0F JUMP JUMPDEST POP PUSH2 0x100 DUP4 ADD MLOAD PUSH2 0x2004 PUSH2 0x100 DUP7 ADD DUP3 PUSH2 0x1F0F JUMP JUMPDEST POP PUSH2 0x120 DUP4 ADD MLOAD PUSH2 0x2019 PUSH2 0x120 DUP7 ADD DUP3 PUSH2 0x1F0F JUMP JUMPDEST POP PUSH2 0x140 DUP4 ADD MLOAD PUSH2 0x202E PUSH2 0x140 DUP7 ADD DUP3 PUSH2 0x1F0F JUMP JUMPDEST POP PUSH2 0x160 DUP4 ADD MLOAD PUSH2 0x2043 PUSH2 0x160 DUP7 ADD DUP3 PUSH2 0x1F1E JUMP JUMPDEST POP PUSH2 0x180 DUP4 ADD MLOAD PUSH2 0x2058 PUSH2 0x180 DUP7 ADD DUP3 PUSH2 0x1F1E JUMP JUMPDEST POP PUSH2 0x1A0 DUP4 ADD MLOAD PUSH2 0x206D PUSH2 0x1A0 DUP7 ADD DUP3 PUSH2 0x1F1E JUMP JUMPDEST POP PUSH2 0x1C0 DUP4 ADD MLOAD PUSH2 0x2082 PUSH2 0x1C0 DUP7 ADD DUP3 PUSH2 0x1F1E JUMP JUMPDEST POP PUSH2 0x1E0 DUP4 ADD MLOAD PUSH2 0x2097 PUSH2 0x1E0 DUP7 ADD DUP3 PUSH2 0x1F2D JUMP JUMPDEST POP DUP1 SWAP2 POP POP SWAP3 SWAP2 POP POP JUMP JUMPDEST PUSH1 0x0 PUSH1 0x20 DUP3 ADD SWAP1 POP DUP2 DUP2 SUB PUSH1 0x0 DUP4 ADD MSTORE PUSH2 0x20BC DUP2 DUP5 PUSH2 0x1F3C JUMP JUMPDEST SWAP1 POP SWAP3 SWAP2 POP POP JUMP JUMPDEST PUSH2 0x20CD DUP2 PUSH2 0x1E36 JUMP JUMPDEST DUP2 EQ PUSH2 0x20D8 JUMPI PUSH1 0x0 DUP1 REVERT JUMPDEST POP JUMP JUMPDEST PUSH1 0x0 DUP2 CALLDATALOAD SWAP1 POP PUSH2 0x20EA DUP2 PUSH2 0x20C4 JUMP JUMPDEST SWAP3 SWAP2 POP POP JUMP JUMPDEST PUSH1 0x0 DUP1 PUSH1 0x40 DUP4 DUP6 SUB SLT ISZERO PUSH2 0x2107 JUMPI PUSH2 0x2106 PUSH2 0x1DA1 JUMP JUMPDEST JUMPDEST PUSH1 0x0 PUSH2 0x2115 DUP6 DUP3 DUP7 ADD PUSH2 0x1DF4 JUMP JUMPDEST SWAP3 POP POP PUSH1 0x20 PUSH2 0x2126 DUP6 DUP3 DUP7 ADD PUSH2 0x20DB JUMP JUMPDEST SWAP2 POP POP SWAP3 POP SWAP3 SWAP1 POP JUMP JUMPDEST PUSH1 0x0 DUP2 SWAP1 POP SWAP2 SWAP1 POP JUMP JUMPDEST PUSH2 0x2143 DUP2 PUSH2 0x2130 JUMP JUMPDEST DUP3 MSTORE POP POP JUMP JUMPDEST PUSH1 0x0 PUSH1 0x20 DUP3 ADD SWAP1 POP PUSH2 0x215E PUSH1 0x0 DUP4 ADD DUP5 PUSH2 0x213A JUMP JUMPDEST SWAP3 SWAP2 POP POP JUMP JUMPDEST PUSH1 0x0 DUP1 PUSH1 0x40 DUP4 DUP6 SUB SLT ISZERO PUSH2 0x217B JUMPI PUSH2 0x217A PUSH2 0x1DA1 JUMP JUMPDEST JUMPDEST PUSH1 0x0 PUSH2 0x2189 DUP6 DUP3 DUP7 ADD PUSH2 0x20DB JUMP JUMPDEST SWAP3 POP POP PUSH1 0x20 PUSH2 0x219A DUP6 DUP3 DUP7 ADD PUSH2 0x20DB JUMP JUMPDEST SWAP2 POP POP SWAP3 POP SWAP3 SWAP1 POP JUMP JUMPDEST PUSH1 0x0 DUP1 PUSH1 0x40 DUP4 DUP6 SUB SLT ISZERO PUSH2 0x21BB JUMPI PUSH2 0x21BA PUSH2 0x1DA1 JUMP JUMPDEST JUMPDEST PUSH1 0x0 PUSH2 0x21C9 DUP6 DUP3 DUP7 ADD PUSH2 0x1E83 JUMP JUMPDEST SWAP3 POP POP PUSH1 0x20 PUSH2 0x21DA DUP6 DUP3 DUP7 ADD PUSH2 0x1E83 JUMP JUMPDEST SWAP2 POP POP SWAP3 POP SWAP3 SWAP1 POP JUMP JUMPDEST PUSH2 0x21ED DUP2 PUSH2 0x1DCB JUMP JUMPDEST DUP3 MSTORE POP POP JUMP JUMPDEST PUSH1 0x0 PUSH1 0x20 DUP3 ADD SWAP1 POP PUSH2 0x2208 PUSH1 0x0 DUP4 ADD DUP5 PUSH2 0x21E4 JUMP JUMPDEST SWAP3 SWAP2 POP POP JUMP JUMPDEST PUSH1 0x0 DUP1 PUSH1 0x0 PUSH1 0x60 DUP5 DUP7 SUB SLT ISZERO PUSH2 0x2227 JUMPI PUSH2 0x2226 PUSH2 0x1DA1 JUMP JUMPDEST JUMPDEST PUSH1 0x0 PUSH2 0x2235 DUP7 DUP3 DUP8 ADD PUSH2 0x1E83 JUMP JUMPDEST SWAP4 POP POP PUSH1 0x20 PUSH2 0x2246 DUP7 DUP3 DUP8 ADD PUSH2 0x1E83 JUMP JUMPDEST SWAP3 POP POP PUSH1 0x40 PUSH2 0x2257 DUP7 DUP3 DUP8 ADD PUSH2 0x1E83 JUMP JUMPDEST SWAP2 POP POP SWAP3 POP SWAP3 POP SWAP3 JUMP JUMPDEST PUSH1 0x0 DUP1 REVERT JUMPDEST PUSH1 0x0 DUP1 REVERT JUMPDEST PUSH1 0x0 DUP1 REVERT JUMPDEST PUSH1 0x0 DUP1 DUP4 PUSH1 0x1F DUP5 ADD SLT PUSH2 0x2286 JUMPI PUSH2 0x2285 PUSH2 0x2261 JUMP JUMPDEST JUMPDEST DUP3 CALLDATALOAD SWAP1 POP PUSH8 0xFFFFFFFFFFFFFFFF DUP2 GT ISZERO PUSH2 0x22A3 JUMPI PUSH2 0x22A2 PUSH2 0x2266 JUMP JUMPDEST JUMPDEST PUSH1 0x20 DUP4 ADD SWAP2 POP DUP4 PUSH1 0x20 DUP3 MUL DUP4 ADD GT ISZERO PUSH2 0x22BF JUMPI PUSH2 0x22BE PUSH2 0x226B JUMP JUMPDEST JUMPDEST SWAP3 POP SWAP3 SWAP1 POP JUMP JUMPDEST PUSH1 0x0 DUP1 PUSH1 0x20 DUP4 DUP6 SUB SLT ISZERO PUSH2 0x22DD JUMPI PUSH2 0x22DC PUSH2 0x1DA1 JUMP JUMPDEST JUMPDEST PUSH1 0x0 DUP4 ADD CALLDATALOAD PUSH8 0xFFFFFFFFFFFFFFFF DUP2 GT ISZERO PUSH2 0x22FB JUMPI PUSH2 0x22FA PUSH2 0x1DA6 JUMP JUMPDEST JUMPDEST PUSH2 0x2307 DUP6 DUP3 DUP7 ADD PUSH2 0x2270 JUMP JUMPDEST SWAP3 POP SWAP3 POP POP SWAP3 POP SWAP3 SWAP1 POP JUMP JUMPDEST PUSH2 0x231C DUP2 PUSH2 0x2130 JUMP JUMPDEST DUP2 EQ PUSH2 0x2327 JUMPI PUSH1 0x0 DUP1 REVERT JUMPDEST POP JUMP JUMPDEST PUSH1 0x0 DUP2 CALLDATALOAD SWAP1 POP PUSH2 0x2339 DUP2 PUSH2 0x2313 JUMP JUMPDEST SWAP3 SWAP2 POP POP JUMP JUMPDEST PUSH1 0x0 PUSH1 0x20 DUP3 DUP5 SUB SLT ISZERO PUSH2 0x2355 JUMPI PUSH2 0x2354 PUSH2 0x1DA1 JUMP JUMPDEST JUMPDEST PUSH1 0x0 PUSH2 0x2363 DUP5 DUP3 DUP6 ADD PUSH2 0x232A JUMP JUMPDEST SWAP2 POP POP SWAP3 SWAP2 POP POP JUMP JUMPDEST PUSH1 0x0 DUP1 REVERT JUMPDEST PUSH32 0x4E487B7100000000000000000000000000000000000000000000000000000000 PUSH1 0x0 MSTORE PUSH1 0x41 PUSH1 0x4 MSTORE PUSH1 0x24 PUSH1 0x0 REVERT JUMPDEST PUSH2 0x23A9 DUP3 PUSH2 0x1D2B JUMP JUMPDEST DUP2 ADD DUP2 DUP2 LT PUSH8 0xFFFFFFFFFFFFFFFF DUP3 GT OR ISZERO PUSH2 0x23C8 JUMPI PUSH2 0x23C7 PUSH2 0x2371 JUMP JUMPDEST JUMPDEST DUP1 PUSH1 0x40 MSTORE POP POP POP JUMP JUMPDEST PUSH1 0x0 PUSH2 0x23DB PUSH2 0x1D97 JUMP JUMPDEST SWAP1 POP PUSH2 0x23E7 DUP3 DUP3 PUSH2 0x23A0 JUMP JUMPDEST SWAP2 SWAP1 POP JUMP JUMPDEST PUSH1 0x0 PUSH8 0xFFFFFFFFFFFFFFFF DUP3 GT ISZERO PUSH2 0x2407 JUMPI PUSH2 0x2406 PUSH2 0x2371 JUMP JUMPDEST JUMPDEST PUSH2 0x2410 DUP3 PUSH2 0x1D2B JUMP JUMPDEST SWAP1 POP PUSH1 0x20 DUP2 ADD SWAP1 POP SWAP2 SWAP1 POP JUMP JUMPDEST DUP3 DUP2 DUP4 CALLDATACOPY PUSH1 0x0 DUP4 DUP4 ADD MSTORE POP POP POP JUMP JUMPDEST PUSH1 0x0 PUSH2 0x243F PUSH2 0x243A DUP5 PUSH2 0x23EC JUMP JUMPDEST PUSH2 0x23D1 JUMP JUMPDEST SWAP1 POP DUP3 DUP2 MSTORE PUSH1 0x20 DUP2 ADD DUP5 DUP5 DUP5 ADD GT ISZERO PUSH2 0x245B JUMPI PUSH2 0x245A PUSH2 0x236C JUMP JUMPDEST JUMPDEST PUSH2 0x2466 DUP5 DUP3 DUP6 PUSH2 0x241D JUMP JUMPDEST POP SWAP4 SWAP3 POP POP POP JUMP JUMPDEST PUSH1 0x0 DUP3 PUSH1 0x1F DUP4 ADD SLT PUSH2 0x2483 JUMPI PUSH2 0x2482 PUSH2 0x2261 JUMP JUMPDEST JUMPDEST DUP2 CALLDATALOAD PUSH2 0x2493 DUP5 DUP3 PUSH1 0x20 DUP7 ADD PUSH2 0x242C JUMP JUMPDEST SWAP2 POP POP SWAP3 SWAP2 POP POP JUMP JUMPDEST PUSH1 0x0 DUP1 PUSH1 0x0 DUP1 PUSH1 0x80 DUP6 DUP8 SUB SLT ISZERO PUSH2 0x24B6 JUMPI PUSH2 0x24B5 PUSH2 0x1DA1 JUMP JUMPDEST JUMPDEST PUSH1 0x0 DUP6 ADD CALLDATALOAD PUSH8 0xFFFFFFFFFFFFFFFF DUP2 GT ISZERO PUSH2 0x24D4 JUMPI PUSH2 0x24D3 PUSH2 0x1DA6 JUMP JUMPDEST JUMPDEST PUSH2 0x24E0 DUP8 DUP3 DUP9 ADD PUSH2 0x246E JUMP JUMPDEST SWAP5 POP POP PUSH1 0x20 DUP6 ADD CALLDATALOAD PUSH8 0xFFFFFFFFFFFFFFFF DUP2 GT ISZERO PUSH2 0x2501 JUMPI PUSH2 0x2500 PUSH2 0x1DA6 JUMP JUMPDEST JUMPDEST PUSH2 0x250D DUP8 DUP3 DUP9 ADD PUSH2 0x246E JUMP JUMPDEST SWAP4 POP POP PUSH1 0x40 DUP6 ADD CALLDATALOAD PUSH8 0xFFFFFFFFFFFFFFFF DUP2 GT ISZERO PUSH2 0x252E JUMPI PUSH2 0x252D PUSH2 0x1DA6 JUMP JUMPDEST JUMPDEST PUSH2 0x253A DUP8 DUP3 DUP9 ADD PUSH2 0x246E JUMP JUMPDEST SWAP3 POP POP PUSH1 0x60 PUSH2 0x254B DUP8 DUP3 DUP9 ADD PUSH2 0x1E83 JUMP JUMPDEST SWAP2 POP POP SWAP3 SWAP6 SWAP2 SWAP5 POP SWAP3 POP JUMP JUMPDEST PUSH1 0x0 PUSH1 0xFF DUP3 AND SWAP1 POP SWAP2 SWAP1 POP JUMP JUMPDEST PUSH2 0x256D DUP2 PUSH2 0x2557 JUMP JUMPDEST DUP3 MSTORE POP POP JUMP JUMPDEST PUSH1 0x0 PUSH1 0x20 DUP3 ADD SWAP1 POP PUSH2 0x2588 PUSH1 0x0 DUP4 ADD DUP5 PUSH2 0x2564 JUMP JUMPDEST SWAP3 SWAP2 POP POP JUMP JUMPDEST PUSH32 0x4E487B7100000000000000000000000000000000000000000000000000000000 PUSH1 0x0 MSTORE PUSH1 0x22 PUSH1 0x4 MSTORE PUSH1 0x24 PUSH1 0x0 REVERT JUMPDEST PUSH1 0x0 PUSH1 0x2 DUP3 DIV SWAP1 POP PUSH1 0x1 DUP3 AND DUP1 PUSH2 0x25D5 JUMPI PUSH1 0x7F DUP3 AND SWAP2 POP JUMPDEST PUSH1 0x20 DUP3 LT DUP2 SUB PUSH2 0x25E8 JUMPI PUSH2 0x25E7 PUSH2 0x258E JUMP JUMPDEST JUMPDEST POP SWAP2 SWAP1 POP JUMP JUMPDEST PUSH32 0x4E487B7100000000000000000000000000000000000000000000000000000000 PUSH1 0x0 MSTORE PUSH1 0x11 PUSH1 0x4 MSTORE PUSH1 0x24 PUSH1 0x0 REVERT JUMPDEST PUSH1 0x0 PUSH2 0x2628 DUP3 PUSH2 0x1CA8 JUMP JUMPDEST SWAP2 POP PUSH2 0x2633 DUP4 PUSH2 0x1CA8 JUMP JUMPDEST SWAP3 POP DUP3 DUP3 LT ISZERO PUSH2 0x2646 JUMPI PUSH2 0x2645 PUSH2 0x25EE JUMP JUMPDEST JUMPDEST DUP3 DUP3 SUB SWAP1 POP SWAP3 SWAP2 POP POP JUMP JUMPDEST PUSH1 0x0 PUSH2 0x265C DUP3 PUSH2 0x1CA8 JUMP JUMPDEST SWAP2 POP PUSH2 0x2667 DUP4 PUSH2 0x1CA8 JUMP JUMPDEST SWAP3 POP DUP2 PUSH32 0xFFFFFFFFFFFFFFFFFFFFFFFFFFFFFFFFFFFFFFFFFFFFFFFFFFFFFFFFFFFFFFFF DIV DUP4 GT DUP3 ISZERO ISZERO AND ISZERO PUSH2 0x26A0 JUMPI PUSH2 0x269F PUSH2 0x25EE JUMP JUMPDEST JUMPDEST DUP3 DUP3 MUL SWAP1 POP SWAP3 SWAP2 POP POP JUMP JUMPDEST PUSH32 0x4E487B7100000000000000000000000000000000000000000000000000000000 PUSH1 0x0 MSTORE PUSH1 0x12 PUSH1 0x4 MSTORE PUSH1 0x24 PUSH1 0x0 REVERT JUMPDEST PUSH1 0x0 PUSH2 0x26E5 DUP3 PUSH2 0x1CA8 JUMP JUMPDEST SWAP2 POP PUSH2 0x26F0 DUP4 PUSH2 0x1CA8 JUMP JUMPDEST SWAP3 POP DUP3 PUSH2 0x2700 JUMPI PUSH2 0x26FF PUSH2 0x26AB JUMP JUMPDEST JUMPDEST DUP3 DUP3 DIV SWAP1 POP SWAP3 SWAP2 POP POP JUMP JUMPDEST PUSH1 0x0 DUP2 SWAP1 POP SWAP3 SWAP2 POP POP JUMP JUMPDEST POP JUMP JUMPDEST PUSH1 0x0 PUSH2 0x2726 PUSH1 0x0 DUP4 PUSH2 0x270B JUMP JUMPDEST SWAP2 POP PUSH2 0x2731 DUP3 PUSH2 0x2716 JUMP JUMPDEST PUSH1 0x0 DUP3 ADD SWAP1 POP SWAP2 SWAP1 POP JUMP JUMPDEST PUSH1 0x0 PUSH2 0x2747 DUP3 PUSH2 0x2719 JUMP JUMPDEST SWAP2 POP DUP2 SWAP1 POP SWAP2 SWAP1 POP JUMP JUMPDEST PUSH1 0x0 DUP2 PUSH1 0x60 SHL SWAP1 POP SWAP2 SWAP1 POP JUMP JUMPDEST PUSH1 0x0 PUSH2 0x2769 DUP3 PUSH2 0x2751 JUMP JUMPDEST SWAP1 POP SWAP2 SWAP1 POP JUMP JUMPDEST PUSH1 0x0 PUSH2 0x277B DUP3 PUSH2 0x275E JUMP JUMPDEST SWAP1 POP SWAP2 SWAP1 POP JUMP JUMPDEST PUSH2 0x2793 PUSH2 0x278E DUP3 PUSH2 0x1DCB JUMP JUMPDEST PUSH2 0x2770 JUMP JUMPDEST DUP3 MSTORE POP POP JUMP JUMPDEST PUSH1 0x0 PUSH2 0x27A5 DUP3 DUP5 PUSH2 0x2782 JUMP JUMPDEST PUSH1 0x14 DUP3 ADD SWAP2 POP DUP2 SWAP1 POP SWAP3 SWAP2 POP POP JUMP JUMPDEST PUSH1 0x0 PUSH2 0x27BF DUP3 PUSH2 0x1CA8 JUMP JUMPDEST SWAP2 POP PUSH2 0x27CA DUP4 PUSH2 0x1CA8 JUMP JUMPDEST SWAP3 POP DUP3 PUSH32 0xFFFFFFFFFFFFFFFFFFFFFFFFFFFFFFFFFFFFFFFFFFFFFFFFFFFFFFFFFFFFFFFF SUB DUP3 GT ISZERO PUSH2 0x27FF JUMPI PUSH2 0x27FE PUSH2 0x25EE JUMP JUMPDEST JUMPDEST DUP3 DUP3 ADD SWAP1 POP SWAP3 SWAP2 POP POP JUMP JUMPDEST PUSH32 0x4F776E61626C653A206E6577206F776E657220697320746865207A65726F2061 PUSH1 0x0 DUP3 ADD MSTORE PUSH32 0x6464726573730000000000000000000000000000000000000000000000000000 PUSH1 0x20 DUP3 ADD MSTORE POP JUMP JUMPDEST PUSH1 0x0 PUSH2 0x2866 PUSH1 0x26 DUP4 PUSH2 0x1CE7 JUMP JUMPDEST SWAP2 POP PUSH2 0x2871 DUP3 PUSH2 0x280A JUMP JUMPDEST PUSH1 0x40 DUP3 ADD SWAP1 POP SWAP2 SWAP1 POP JUMP JUMPDEST PUSH1 0x0 PUSH1 0x20 DUP3 ADD SWAP1 POP DUP2 DUP2 SUB PUSH1 0x0 DUP4 ADD MSTORE PUSH2 0x2895 DUP2 PUSH2 0x2859 JUMP JUMPDEST SWAP1 POP SWAP2 SWAP1 POP JUMP JUMPDEST PUSH32 0x4F776E61626C653A2063616C6C6572206973206E6F7420746865206F776E6572 PUSH1 0x0 DUP3 ADD MSTORE POP JUMP JUMPDEST PUSH1 0x0 PUSH2 0x28D2 PUSH1 0x20 DUP4 PUSH2 0x1CE7 JUMP JUMPDEST SWAP2 POP PUSH2 0x28DD DUP3 PUSH2 0x289C JUMP JUMPDEST PUSH1 0x20 DUP3 ADD SWAP1 POP SWAP2 SWAP1 POP JUMP JUMPDEST PUSH1 0x0 PUSH1 0x20 DUP3 ADD SWAP1 POP DUP2 DUP2 SUB PUSH1 0x0 DUP4 ADD MSTORE PUSH2 0x2901 DUP2 PUSH2 0x28C5 JUMP JUMPDEST SWAP1 POP SWAP2 SWAP1 POP JUMP JUMPDEST PUSH32 0x4E487B7100000000000000000000000000000000000000000000000000000000 PUSH1 0x0 MSTORE PUSH1 0x32 PUSH1 0x4 MSTORE PUSH1 0x24 PUSH1 0x0 REVERT JUMPDEST PUSH1 0x0 PUSH2 0x2942 DUP3 PUSH2 0x1CA8 JUMP JUMPDEST SWAP2 POP PUSH32 0xFFFFFFFFFFFFFFFFFFFFFFFFFFFFFFFFFFFFFFFFFFFFFFFFFFFFFFFFFFFFFFFF DUP3 SUB PUSH2 0x2974 JUMPI PUSH2 0x2973 PUSH2 0x25EE JUMP JUMPDEST JUMPDEST PUSH1 0x1 DUP3 ADD SWAP1 POP SWAP2 SWAP1 POP JUMP INVALID LOG2 PUSH5 0x6970667358 0x22 SLT KECCAK256 0xE7 0x5E PUSH11 0xA677A0C17ECC88CD747E18 DUP4 SLOAD 0xE8 0xE4 SELFDESTRUCT SWAP4 JUMP CHAINID DELEGATECALL 0xAB STOP 0xA8 CALLDATASIZE PUSH23 0xAFBCAD6D64736F6C634300080D0033A264697066735822 SLT KECCAK256 0xFB BASEFEE 0xD4 0xCE SLOAD 0xDD RETURNDATASIZE 0xCD 0xD1 0xF7 DIFFICULTY DUP16 PUSH32 0xCD785661A8BCD3CC1FC3217A2BF7073CCA3AC664736F6C634300080D00330000 "},"methodIdentifiers":{"createEvent((string,string,string,uint256,uint256,uint256,uint256,uint256,uint256))":"2261dca4","events(uint256)":"0b791430","fee()":"ddca3f43","getEvents(uint256,uint256,uint256)":"0ea4e6a0","owner()":"8da5cb5b","renounceOwnership()":"715018a6","transferOwnership(address)":"f2fde38b","withdraw()":"3ccfd60b"}}}}}