{"contracts/EventCreator.sol":{"EventCreator":{"abi":[{"inputs":[],"name":"TransferFailed","type":"error"},{"anonymous":false,"inputs":[{"indexed":false,"internalType":"address","name":"addr","type":"address"}],"name":"EventCreated","type":"event"},{"anonymous":false,"inputs":[{"indexed":true,"internalType":"address","name":"previousOwner","type":"address"},{"indexed":true,"internalType":"address","name":"newOwner","type":"address"}],"name":"OwnershipTransferred","type":"event"},{"anonymous":false,"inputs":[{"indexed":false,"internalType":"address","name":"","type":"address"},{"indexed":false,"internalType":"uint256","name":"","type":"uint256"}],"name":"Received","type":"event"},{"inputs":[{"components":[{"internalType":"uint32","name":"maxParticipants","type":"uint32"},{"internalType":"uint256","name":"registrationEnd","type":"uint256"},{"internalType":"uint256","name":"start","type":"uint256"},{"internalType":"uint256","name":"end","type":"uint256"},{"internalType":"uint256","name":"ticketPrice","type":"uint256"},{"internalType":"uint256","name":"preSaleTicketPrice","type":"uint256"},{"internalType":"string","name":"name","type":"string"},{"internalType":"string","name":"link","type":"string"},{"internalType":"string","name":"image","type":"string"},{"internalType":"string","name":"location","type":"string"},{"internalType":"string","name":"description","type":"string"},{"internalType":"bool","name":"registrationOpen","type":"bool"},{"internalType":"bool","name":"onlyWhitelistRegistration","type":"bool"}],"internalType":"struct Utils.EventStruct","name":"_eventData","type":"tuple"}],"name":"createEvent","outputs":[{"internalType":"address","name":"","type":"address"}],"stateMutability":"nonpayable","type":"function"},{"inputs":[{"internalType":"uint256","name":"","type":"uint256"}],"name":"events","outputs":[{"internalType":"address","name":"","type":"address"}],"stateMutability":"view","type":"function"},{"inputs":[],"name":"fee","outputs":[{"internalType":"uint8","name":"","type":"uint8"}],"stateMutability":"view","type":"function"},{"inputs":[{"internalType":"uint256","name":"offset","type":"uint256"},{"internalType":"uint256","name":"limit","type":"uint256"},{"internalType":"uint256","name":"currTimestamp","type":"uint256"}],"name":"getEvents","outputs":[{"components":[{"internalType":"address","name":"addr","type":"address"},{"internalType":"address","name":"organizer","type":"address"},{"internalType":"bool","name":"registrationOpen","type":"bool"},{"internalType":"bool","name":"onlyWhitelistRegistration","type":"bool"},{"internalType":"bool","name":"isRegistered","type":"bool"},{"internalType":"bool","name":"isChecked","type":"bool"},{"internalType":"uint32","name":"maxParticipants","type":"uint32"},{"internalType":"uint256","name":"registrationEnd","type":"uint256"},{"internalType":"uint256","name":"start","type":"uint256"},{"internalType":"uint256","name":"end","type":"uint256"},{"internalType":"uint256","name":"ticketPrice","type":"uint256"},{"internalType":"uint256","name":"preSaleTicketPrice","type":"uint256"},{"internalType":"uint256","name":"registeredParticipantCount","type":"uint256"},{"internalType":"uint256","name":"checkedParticipantCount","type":"uint256"},{"internalType":"string","name":"description","type":"string"},{"internalType":"string","name":"link","type":"string"},{"internalType":"string","name":"name","type":"string"},{"internalType":"string","name":"image","type":"string"},{"internalType":"string","name":"location","type":"string"}],"internalType":"struct Utils.EventInfoStruct[]","name":"","type":"tuple[]"}],"stateMutability":"view","type":"function"},{"inputs":[],"name":"owner","outputs":[{"internalType":"address","name":"","type":"address"}],"stateMutability":"view","type":"function"},{"inputs":[],"name":"renounceOwnership","outputs":[],"stateMutability":"nonpayable","type":"function"},{"inputs":[{"internalType":"string","name":"uri","type":"string"}],"name":"setTokenUri","outputs":[],"stateMutability":"nonpayable","type":"function"},{"inputs":[],"name":"tokenUriServer","outputs":[{"internalType":"string","name":"","type":"string"}],"stateMutability":"view","type":"function"},{"inputs":[{"internalType":"address","name":"newOwner","type":"address"}],"name":"transferOwnership","outputs":[],"stateMutability":"nonpayable","type":"function"},{"inputs":[],"name":"withdraw","outputs":[],"stateMutability":"nonpayable","type":"function"},{"stateMutability":"payable","type":"receive"}],"evm":{"bytecode":{"linkReferences":{},"object":"6000805460ff60a01b1916600160a01b17905560c0604052601e60809081527f68747470733a2f2f6d657461646174612e63726576656e74732e78797a2f000060a05260019062000051908262000166565b503480156200005f57600080fd5b506200006b3362000071565b62000232565b600080546001600160a01b038381166001600160a01b0319831681178455604051919092169283917f8be0079c531659141344cd1fd0a4f28419497f9722a3daafe3b4186f6b6457e09190a35050565b634e487b7160e01b600052604160045260246000fd5b600181811c90821680620000ec57607f821691505b6020821081036200010d57634e487b7160e01b600052602260045260246000fd5b50919050565b601f8211156200016157600081815260208120601f850160051c810160208610156200013c5750805b601f850160051c820191505b818110156200015d5782815560010162000148565b5050505b505050565b81516001600160401b03811115620001825762000182620000c1565b6200019a81620001938454620000d7565b8462000113565b602080601f831160018114620001d25760008415620001b95750858301515b600019600386901b1c1916600185901b1785556200015d565b600085815260208120601f198616915b828110156200020357888601518255948401946001909101908401620001e2565b5085821015620002225787850151600019600388901b60f8161c191681555b5050505050600190811b01905550565b61453480620002426000396000f3fe608060405260043610620000c35760003560e01c80638da5cb5b1162000071578063ddca3f431162000054578063ddca3f43146200021c578063df25b8a81462000263578063f2fde38b146200028857600080fd5b80638da5cb5b14620001d5578063a2df578a14620001f557600080fd5b80630ea4e6a011620000a65780630ea4e6a014620001715780633ccfd60b14620001a5578063715018a614620001bd57600080fd5b80630675b7c614620001085780630b791430146200012f57600080fd5b366200010357604080513381523460208201527f88a5966d370b9919b20f3e2c13ff65706f196a4e32cc2c12bf57088f88525874910160405180910390a1005b600080fd5b3480156200011557600080fd5b506200012d62000127366004620009f3565b620002ad565b005b3480156200013c57600080fd5b50620001546200014e36600462000a7b565b620002c9565b6040516001600160a01b0390911681526020015b60405180910390f35b3480156200017e57600080fd5b50620001966200019036600462000a95565b620002f4565b60405162000168919062000b16565b348015620001b257600080fd5b506200012d620005b5565b348015620001ca57600080fd5b506200012d6200065c565b348015620001e257600080fd5b506000546001600160a01b031662000154565b3480156200020257600080fd5b506200020d62000674565b60405162000168919062000cb1565b3480156200022957600080fd5b50600054620002509074010000000000000000000000000000000000000000900460ff1681565b60405160ff909116815260200162000168565b3480156200027057600080fd5b50620001546200028236600462000cc6565b6200070a565b3480156200029557600080fd5b506200012d620002a736600462000d1b565b620007f0565b620002b76200088a565b6001620002c5828262000dca565b5050565b60028181548110620002da57600080fd5b6000918252602090912001546001600160a01b0316905081565b600254606090600080808388106200031057600092506200033c565b866200031d898662000ead565b1015620003385762000330888562000ead565b92506200033c565b8692505b60008367ffffffffffffffff8111156200035a576200035a62000951565b6040519080825280602002602001820160405280156200044357816020015b6200042f60405180610260016040528060006001600160a01b0316815260200160006001600160a01b03168152602001600015158152602001600015158152602001600015158152602001600015158152602001600063ffffffff1681526020016000815260200160008152602001600081526020016000815260200160008152602001600081526020016000815260200160608152602001606081526020016060815260200160608152602001606081525090565b815260200190600190039081620003795790505b509050836000036200045c579450620005ae9350505050565b62000468848662000ead565b9250831562000481576200047e60018562000ead565b91505b815b6000600282815481106200049b576200049b62000ec9565b6000918252602090912001546040517f1d645b12000000000000000000000000000000000000000000000000000000008152600481018b90526001600160a01b0390911691508190631d645b1290602401600060405180830381865afa1580156200050a573d6000803e3d6000fd5b505050506040513d6000823e601f3d908101601f1916820160405262000534919081019062000f81565b8362000541848762000ead565b8151811062000554576200055462000ec9565b60209081029190910101526200056c60018762000ead565b62000578838662000ead565b148062000583575081155b15620005905750620005a6565b816200059c8162001170565b9250505062000483565b509450505050505b9392505050565b620005bf6200088a565b476000819003620005e3576040516312171d8360e31b815260040160405180910390fd5b600080546040516001600160a01b039091169083908381818185875af1925050503d806000811462000632576040519150601f19603f3d011682016040523d82523d6000602084013e62000637565b606091505b50508091505080620002c5576040516312171d8360e31b815260040160405180910390fd5b620006666200088a565b620006726000620008e6565b565b60018054620006839062000d3b565b80601f0160208091040260200160405190810160405280929190818152602001828054620006b19062000d3b565b8015620007025780601f10620006d65761010080835404028352916020019162000702565b820191906000526020600020905b815481529060010190602001808311620006e457829003601f168201915b505050505081565b6000808233600060149054906101000a900460ff166040516200072d9062000943565b6200073b939291906200121d565b604051809103906000f08015801562000758573d6000803e3d6000fd5b50600280546001810182556000919091527f405787fa12a823e0f2b7631cc41b3ba8828b3321ca811111fa75cd3aa3bb5ace01805473ffffffffffffffffffffffffffffffffffffffff19166001600160a01b0383169081179091556040519081529091507ffc8a4c0621b9788c4dbe57053a51ce2d22625a067d039f38004df2a07ca755a49060200160405180910390a192915050565b620007fa6200088a565b6001600160a01b0381166200087c5760405162461bcd60e51b815260206004820152602660248201527f4f776e61626c653a206e6577206f776e657220697320746865207a65726f206160448201527f646472657373000000000000000000000000000000000000000000000000000060648201526084015b60405180910390fd5b6200088781620008e6565b50565b6000546001600160a01b03163314620006725760405162461bcd60e51b815260206004820181905260248201527f4f776e61626c653a2063616c6c6572206973206e6f7420746865206f776e6572604482015260640162000873565b600080546001600160a01b0383811673ffffffffffffffffffffffffffffffffffffffff19831681178455604051919092169283917f8be0079c531659141344cd1fd0a4f28419497f9722a3daafe3b4186f6b6457e09190a35050565b61314180620013be83390190565b634e487b7160e01b600052604160045260246000fd5b604051610260810167ffffffffffffffff811182821017156200098e576200098e62000951565b60405290565b604051601f8201601f1916810167ffffffffffffffff81118282101715620009c057620009c062000951565b604052919050565b600067ffffffffffffffff821115620009e557620009e562000951565b50601f01601f191660200190565b60006020828403121562000a0657600080fd5b813567ffffffffffffffff81111562000a1e57600080fd5b8201601f8101841362000a3057600080fd5b803562000a4762000a4182620009c8565b62000994565b81815285602083850101111562000a5d57600080fd5b81602084016020830137600091810160200191909152949350505050565b60006020828403121562000a8e57600080fd5b5035919050565b60008060006060848603121562000aab57600080fd5b505081359360208301359350604090920135919050565b60005b8381101562000adf57818101518382015260200162000ac5565b50506000910152565b6000815180845262000b0281602086016020860162000ac2565b601f01601f19169290920160200192915050565b60006020808301818452808551808352604092508286019150828160051b87010184880160005b8381101562000ca357603f19898403018552815180516001600160a01b0390811685528882015116888501528681015115158785015260608082015115159085015260808082015115159085015260a08082015115159085015260c08082015163ffffffff169085015260e08082015190850152610100808201519085015261012080820151908501526101408082015190850152610160808201519085015261018080820151908501526101a080820151908501526101c080820151610260828701819052919062000c138388018262000ae8565b925050506101e0808301518683038288015262000c31838262000ae8565b92505050610200808301518683038288015262000c4f838262000ae8565b92505050610220808301518683038288015262000c6d838262000ae8565b92505050610240808301519250858203818701525062000c8e818362000ae8565b96890196945050509086019060010162000b3d565b509098975050505050505050565b602081526000620005ae602083018462000ae8565b60006020828403121562000cd957600080fd5b813567ffffffffffffffff81111562000cf157600080fd5b82016101a08185031215620005ae57600080fd5b6001600160a01b03811681146200088757600080fd5b60006020828403121562000d2e57600080fd5b8135620005ae8162000d05565b600181811c9082168062000d5057607f821691505b60208210810362000d7157634e487b7160e01b600052602260045260246000fd5b50919050565b601f82111562000dc557600081815260208120601f850160051c8101602086101562000da05750805b601f850160051c820191505b8181101562000dc15782815560010162000dac565b5050505b505050565b815167ffffffffffffffff81111562000de75762000de762000951565b62000dff8162000df8845462000d3b565b8462000d77565b602080601f83116001811462000e37576000841562000e1e5750858301515b600019600386901b1c1916600185901b17855562000dc1565b600085815260208120601f198616915b8281101562000e685788860151825594840194600190910190840162000e47565b508582101562000e875787850151600019600388901b60f8161c191681555b5050505050600190811b01905550565b634e487b7160e01b600052601160045260246000fd5b8181038181111562000ec35762000ec362000e97565b92915050565b634e487b7160e01b600052603260045260246000fd5b805162000eec8162000d05565b919050565b80151581146200088757600080fd5b805162000eec8162000ef1565b63ffffffff811681146200088757600080fd5b805162000eec8162000f0d565b600082601f83011262000f3f57600080fd5b815162000f5062000a4182620009c8565b81815284602083860101111562000f6657600080fd5b62000f7982602083016020870162000ac2565b949350505050565b60006020828403121562000f9457600080fd5b815167ffffffffffffffff8082111562000fad57600080fd5b90830190610260828603121562000fc357600080fd5b62000fcd62000967565b62000fd88362000edf565b815262000fe86020840162000edf565b602082015262000ffb6040840162000f00565b60408201526200100e6060840162000f00565b6060820152620010216080840162000f00565b60808201526200103460a0840162000f00565b60a08201526200104760c0840162000f20565b60c082015260e08381015190820152610100808401519082015261012080840151908201526101408084015190820152610160808401519082015261018080840151908201526101a080840151908201526101c08084015183811115620010ad57600080fd5b620010bb8882870162000f2d565b8284015250506101e08084015183811115620010d657600080fd5b620010e48882870162000f2d565b8284015250506102008084015183811115620010ff57600080fd5b6200110d8882870162000f2d565b82840152505061022080840151838111156200112857600080fd5b620011368882870162000f2d565b82840152505061024080840151838111156200115157600080fd5b6200115f8882870162000f2d565b918301919091525095945050505050565b60008162001182576200118262000e97565b506000190190565b803562000eec8162000f0d565b6000808335601e19843603018112620011af57600080fd5b830160208101925035905067ffffffffffffffff811115620011d057600080fd5b803603821315620011e057600080fd5b9250929050565b81835281816020850137506000828201602090810191909152601f909101601f19169091010190565b803562000eec8162000ef1565b606081526200123e6060820162001234866200118a565b63ffffffff169052565b60208401356080820152604084013560a0820152606084013560c0820152608084013560e0820152600061010060a0860135818401526200128360c087018762001197565b6101a061012081818801526200129f61020088018486620011e7565b9350620012b060e08b018b62001197565b9350605f19610140818a880301818b0152620012ce878785620011e7565b9650620012de888e018e62001197565b985095506101609250818a880301838b0152620012fd878988620011e7565b97506200130d848e018e62001197565b975095506101809350818a890301848b01526200132c888888620011e7565b97506200133c818e018e62001197565b97509550508089880301848a01525062001358868686620011e7565b955062001367818c0162001210565b9450506200137a6101c088018515159052565b62001387818b0162001210565b93505050506200139c6101e085018215159052565b506001600160a01b0385166020840152905060ff8316604083015262000f7956fe60806040526007805461ff0019166101001790557f16d95910a21726a3e7b59a8c6166b355396434419809cb902e2063555b8d60de6010553480156200004457600080fd5b50604051620031413803806200314183398101604081905262000067916200049f565b60c083015160408051808201909152600481526321a922ab60e11b6020820152620000923362000217565b6003620000a08382620006dd565b506004620000af8282620006dd565b5060018055505060408301511580620000ca57506060830151155b15620000e957604051630968678160e11b815260040160405180910390fd5b610140830151601190620000fe9082620006dd565b5060e0830151601290620001139082620006dd565b50610100830151601390620001299082620006dd565b5082516007805463ffffffff909216620100000265ffffffff00001990921691909117905560408301516009556060830151600a556080830151600d5560a0830151600e55610120830151601490620001839082620006dd565b5061016083015160078054610180860151151560ff19931515610100029390931661ffff19909116179190911790556020830151600003620001cd576040830151600855620001d6565b60208301516008555b60078054600160301b600160d01b03191633660100000000000002179055600f805460ff191660ff83161790556200020e8262000267565b505050620007a9565b600080546001600160a01b038381166001600160a01b0319831681178455604051919092169283917f8be0079c531659141344cd1fd0a4f28419497f9722a3daafe3b4186f6b6457e09190a35050565b62000271620002ea565b6001600160a01b038116620002dc5760405162461bcd60e51b815260206004820152602660248201527f4f776e61626c653a206e6577206f776e657220697320746865207a65726f206160448201526564647265737360d01b60648201526084015b60405180910390fd5b620002e78162000217565b50565b6000546001600160a01b03163314620003465760405162461bcd60e51b815260206004820181905260248201527f4f776e61626c653a2063616c6c6572206973206e6f7420746865206f776e65726044820152606401620002d3565b565b634e487b7160e01b600052604160045260246000fd5b6040516101a081016001600160401b038111828210171562000384576200038462000348565b60405290565b604051601f8201601f191681016001600160401b0381118282101715620003b557620003b562000348565b604052919050565b805163ffffffff81168114620003d257600080fd5b919050565b600082601f830112620003e957600080fd5b81516001600160401b0381111562000405576200040562000348565b60206200041b601f8301601f191682016200038a565b82815285828487010111156200043057600080fd5b60005b838110156200045057858101830151828201840152820162000433565b506000928101909101919091529392505050565b80518015158114620003d257600080fd5b80516001600160a01b0381168114620003d257600080fd5b805160ff81168114620003d257600080fd5b600080600060608486031215620004b557600080fd5b83516001600160401b0380821115620004cd57600080fd5b908501906101a08288031215620004e357600080fd5b620004ed6200035e565b620004f883620003bd565b81526020830151602082015260408301516040820152606083015160608201526080830151608082015260a083015160a082015260c0830151828111156200053f57600080fd5b6200054d89828601620003d7565b60c08301525060e0830151828111156200056657600080fd5b6200057489828601620003d7565b60e08301525061010080840151838111156200058f57600080fd5b6200059d8a828701620003d7565b8284015250506101208084015183811115620005b857600080fd5b620005c68a828701620003d7565b8284015250506101408084015183811115620005e157600080fd5b620005ef8a828701620003d7565b82840152505061016091506200060782840162000464565b8282015261018091506200061d82840162000464565b82820152809550505050620006356020850162000475565b915062000645604085016200048d565b90509250925092565b600181811c908216806200066357607f821691505b6020821081036200068457634e487b7160e01b600052602260045260246000fd5b50919050565b601f821115620006d857600081815260208120601f850160051c81016020861015620006b35750805b601f850160051c820191505b81811015620006d457828155600101620006bf565b5050505b505050565b81516001600160401b03811115620006f957620006f962000348565b62000711816200070a84546200064e565b846200068a565b602080601f831160018114620007495760008415620007305750858301515b600019600386901b1c1916600185901b178555620006d4565b600085815260208120601f198616915b828110156200077a5788860151825594840194600190910190840162000759565b5085821015620007995787850151600019600388901b60f8161c191681555b5050505050600190811b01905550565b61298880620007b96000396000f3fe6080604052600436106102ba5760003560e01c80637284e4161161016e578063c6a7cbc9116100cb578063efbe1c1c1161007f578063f34094a711610064578063f34094a714610767578063f3ccaac01461076f578063fe1e2f511461078457600080fd5b8063efbe1c1c14610731578063f2fde38b1461074757600080fd5b8063c87b56dd116100b0578063c87b56dd146106d1578063d9a59e33146106f1578063ead121111461071157600080fd5b8063c6a7cbc914610697578063c7cac600146106b757600080fd5b80638da5cb5b11610122578063be9a655511610107578063be9a655514610658578063c025e6861461066e578063c4625ba31461068157600080fd5b80638da5cb5b1461062557806395d89b411461064357600080fd5b80637de33aec116101535780637de33aec146105cf5780638121e42d146105e55780638818ed38146105fb57600080fd5b80637284e4161461059b578063736f88cd146105b057600080fd5b80631d645b121161021c578063516f279e116101d05780636352211e116101b55780636352211e1461052e57806370a0823114610566578063715018a61461058657600080fd5b8063516f279e146104f95780635b2a08eb1461050e57600080fd5b8063336df10611610201578063336df106146104ac578063386bfc98146104ce5780633ccfd60b146104e457600080fd5b80631d645b121461044757806324924bf71461047457600080fd5b806313446a7511610273578063158c613411610258578063158c6134146103dc57806318160ddd146104155780631c4695f41461043257600080fd5b806313446a751461039657806314d0f1ba146103ac57600080fd5b806306fdde03116102a457806306fdde031461032057806309e69ede146103425780631209b1f61461037257600080fd5b8062f4494f146102bf57806301ffc9a7146102f0575b600080fd5b3480156102cb57600080fd5b50600f546102d99060ff1681565b60405160ff90911681526020015b60405180910390f35b3480156102fc57600080fd5b5061031061030b3660046120c8565b6107b4565b60405190151581526020016102e7565b34801561032c57600080fd5b50610335610851565b6040516102e79190612135565b34801561034e57600080fd5b5061031061035d366004612164565b60156020526000908152604090205460ff1681565b34801561037e57600080fd5b50610388600d5481565b6040519081526020016102e7565b3480156103a257600080fd5b5061038860085481565b3480156103b857600080fd5b506103106103c7366004612164565b60176020526000908152604090205460ff1681565b3480156103e857600080fd5b506103106103f7366004612164565b6001600160a01b031660009081526015602052604090205460ff1690565b34801561042157600080fd5b506002546001540360001901610388565b34801561043e57600080fd5b506103356108e3565b34801561045357600080fd5b5061046761046236600461217f565b610971565b6040516102e79190612198565b34801561048057600080fd5b506007546104979062010000900463ffffffff1681565b60405163ffffffff90911681526020016102e7565b3480156104b857600080fd5b506104cc6104c7366004612328565b610de3565b005b3480156104da57600080fd5b5061038860105481565b3480156104f057600080fd5b506104cc610e16565b34801561050557600080fd5b50610335610f8e565b34801561051a57600080fd5b506104cc61052936600461245e565b610f9b565b34801561053a57600080fd5b5061054e61054936600461217f565b6110e8565b6040516001600160a01b0390911681526020016102e7565b34801561057257600080fd5b50610388610581366004612164565b6110f3565b34801561059257600080fd5b506104cc61115b565b3480156105a757600080fd5b5061033561116f565b3480156105bc57600080fd5b5060075461031090610100900460ff1681565b3480156105db57600080fd5b50610388600c5481565b3480156105f157600080fd5b50610388600e5481565b34801561060757600080fd5b5060075461054e90660100000000000090046001600160a01b031681565b34801561063157600080fd5b506000546001600160a01b031661054e565b34801561064f57600080fd5b5061033561117c565b34801561066457600080fd5b5061038860095481565b6104cc61067c366004612583565b61118b565b34801561068d57600080fd5b50610388600b5481565b3480156106a357600080fd5b506104cc6106b236600461217f565b6112f6565b3480156106c357600080fd5b506007546103109060ff1681565b3480156106dd57600080fd5b506103356106ec36600461217f565b611303565b3480156106fd57600080fd5b506104cc61070c366004612164565b61140e565b34801561071d57600080fd5b506102d961072c36600461217f565b6115dd565b34801561073d57600080fd5b50610388600a5481565b34801561075357600080fd5b506104cc610762366004612164565b611678565b6104cc61170d565b34801561077b57600080fd5b506103356117fa565b34801561079057600080fd5b5061031061079f366004612164565b60166020526000908152604090205460ff1681565b60007f01ffc9a7000000000000000000000000000000000000000000000000000000006001600160e01b03198316148061081757507f80ac58cd000000000000000000000000000000000000000000000000000000006001600160e01b03198316145b8061084b57507f5b5e139f000000000000000000000000000000000000000000000000000000006001600160e01b03198316145b92915050565b606060038054610860906125f8565b80601f016020809104026020016040519081016040528092919081815260200182805461088c906125f8565b80156108d95780601f106108ae576101008083540402835291602001916108d9565b820191906000526020600020905b8154815290600101906020018083116108bc57829003601f168201915b5050505050905090565b601280546108f0906125f8565b80601f016020809104026020016040519081016040528092919081815260200182805461091c906125f8565b80156109695780601f1061093e57610100808354040283529160200191610969565b820191906000526020600020905b81548152906001019060200180831161094c57829003601f168201915b505050505081565b610a2660405180610260016040528060006001600160a01b0316815260200160006001600160a01b03168152602001600015158152602001600015158152602001600015158152602001600015158152602001600063ffffffff1681526020016000815260200160008152602001600081526020016000815260200160008152602001600081526020016000815260200160608152602001606081526020016060815260200160608152602001606081525090565b610adb60405180610260016040528060006001600160a01b0316815260200160006001600160a01b03168152602001600015158152602001600015158152602001600015158152602001600015158152602001600063ffffffff1681526020016000815260200160008152602001600081526020016000815260200160008152602001600081526020016000815260200160608152602001606081526020016060815260200160608152602001606081525090565b600954610100820152600a5461012082015260085460e0820152610afd610851565b61020082015260118054610b10906125f8565b80601f0160208091040260200160405190810160405280929190818152602001828054610b3c906125f8565b8015610b895780601f10610b5e57610100808354040283529160200191610b89565b820191906000526020600020905b815481529060010190602001808311610b6c57829003601f168201915b50505050506101c082015260075462010000900463ffffffff1660c0820152600d54610140820152600e5461016082015260128054610bc7906125f8565b80601f0160208091040260200160405190810160405280929190818152602001828054610bf3906125f8565b8015610c405780601f10610c1557610100808354040283529160200191610c40565b820191906000526020600020905b815481529060010190602001808311610c2357829003601f168201915b5050505050816101e0018190525060138054610c5b906125f8565b80601f0160208091040260200160405190810160405280929190818152602001828054610c87906125f8565b8015610cd45780601f10610ca957610100808354040283529160200191610cd4565b820191906000526020600020905b815481529060010190602001808311610cb757829003601f168201915b505050505081610220018190525060148054610cef906125f8565b80601f0160208091040260200160405190810160405280929190818152602001828054610d1b906125f8565b8015610d685780601f10610d3d57610100808354040283529160200191610d68565b820191906000526020600020905b815481529060010190602001808311610d4b57829003601f168201915b50505050506102408201526000546001600160a01b03166020820152610d8d836115dd565b60ff9081161560408084019190915233600081815260156020908152838220548516151560808701529181526016909152205416151560a0820152600b54610180820152600c546101a082015230815292915050565b610deb611807565b6001600160a01b03919091166000908152601760205260409020805460ff1916911515919091179055565b610e1e611807565b476000819003610e41576040516312171d8360e31b815260040160405180910390fd5b600f546000908190610e579060ff166064612648565b600f5460ff91821692501615610f0257600754600f5466010000000000009091046001600160a01b031690606490610e9390869060ff16612661565b610e9d9190612678565b604051600081818185875af1925050503d8060008114610ed9576040519150601f19603f3d011682016040523d82523d6000602084013e610ede565b606091505b50508092505081610f02576040516312171d8360e31b815260040160405180910390fd5b6000546001600160a01b03166064610f1a8584612661565b610f249190612678565b604051600081818185875af1925050503d8060008114610f60576040519150601f19603f3d011682016040523d82523d6000602084013e610f65565b606091505b50508092505081610f89576040516312171d8360e31b815260040160405180910390fd5b505050565b601480546108f0906125f8565b610fa3611807565b4281604001511015610fe1576040517f93d9b84f00000000000000000000000000000000000000000000000000000000815260040160405180910390fd5b600b54815163ffffffff161080610fff575080606001518160400151115b15611036576040517f41cc6b2100000000000000000000000000000000000000000000000000000000815260040160405180910390fd5b60c081015160119061104890826126e8565b5060e081015160129061105b90826126e8565b5061010081015160149061106f90826126e8565b508051600780546080840151600d5560a0840151600e5560408401516009556060840151600a55602084015160085561012084015161014090940151151560ff199415156101000261ff001963ffffffff90951662010000029490941665ffffffffff0019909216919091179290921792909216179055565b600061084b82611861565b60006001600160a01b038216611135576040517f8f4eb60400000000000000000000000000000000000000000000000000000000815260040160405180910390fd5b506001600160a01b031660009081526006602052604090205467ffffffffffffffff1690565b611163611807565b61116d60006118f0565b565b601180546108f0906125f8565b606060048054610860906125f8565b6000611196426115dd565b90508060ff166001036111bc5760405163a8ab2d2560e01b815260040160405180910390fd5b8060ff166002036111e057604051632fc209f360e01b815260040160405180910390fd5b8060ff1660030361120457604051630ea075bf60e21b815260040160405180910390fd5b8060ff1660040361122857604051632437ffe960e11b815260040160405180910390fd5b60075460ff1615806112ac57506112aa838380806020026020016040519081016040528093929190818152602001838360200280828437600092019190915250506010546040516bffffffffffffffffffffffff193360601b166020820152909250603401905060405160208183030381529060405280519060200120611958565b155b156112ca5760405163ad7acb4760e01b815260040160405180910390fd5b600e543410156112ed57604051633c89335b60e11b815260040160405180910390fd5b610f893361196e565b6112fe611807565b601055565b606061130e826119f7565b611344576040517fa14c4b5000000000000000000000000000000000000000000000000000000000815260040160405180910390fd5b6000600760069054906101000a90046001600160a01b03166001600160a01b031663a2df578a6040518163ffffffff1660e01b8152600401600060405180830381865afa158015611399573d6000803e3d6000fd5b505050506040513d6000823e601f3d908101601f191682016040526113c191908101906127a8565b90506000816113cf46611a2c565b6113da306014611acc565b6113e387611a2c565b6040516020016113f6949392919061281f565b60408051601f19818403018152919052949350505050565b6000546001600160a01b0316331480159061143957503360009081526017602052604090205460ff16155b15611470576040517feaa45d6a00000000000000000000000000000000000000000000000000000000815260040160405180910390fd5b60095442908110806114835750600a5481115b156114ba576040517f91e3be3900000000000000000000000000000000000000000000000000000000815260040160405180910390fd5b6001600160a01b03821660009081526015602052604090205460ff1661150c576040517faba4733900000000000000000000000000000000000000000000000000000000815260040160405180910390fd5b6001600160a01b03821660009081526016602052604090205460ff161561155f576040517fc98289f000000000000000000000000000000000000000000000000000000000815260040160405180910390fd5b6001600160a01b0382166000908152601660205260408120805460ff19166001908117909155600c8054919290916115989084906128aa565b90915550506040516001600160a01b03831681527fcbf477e63735f8d27f9b668165862d7c6e84e5650edec70229523db18c2f1efd9060200160405180910390a15050565b60006009548211156115f157506001919050565b600754610100900460ff161580611609575060085482115b1561161657506002919050565b3360009081526015602052604090205460ff161561163657506003919050565b60075462010000900463ffffffff16158015906116635750600754600b546201000090910463ffffffff16145b1561167057506004919050565b506000919050565b611680611807565b6001600160a01b0381166117015760405162461bcd60e51b815260206004820152602660248201527f4f776e61626c653a206e6577206f776e657220697320746865207a65726f206160448201527f646472657373000000000000000000000000000000000000000000000000000060648201526084015b60405180910390fd5b61170a816118f0565b50565b6000611718426115dd565b90508060ff1660010361173e5760405163a8ab2d2560e01b815260040160405180910390fd5b8060ff1660020361176257604051632fc209f360e01b815260040160405180910390fd5b8060ff1660030361178657604051630ea075bf60e21b815260040160405180910390fd5b8060ff166004036117aa57604051632437ffe960e11b815260040160405180910390fd5b60075460ff16156117ce5760405163ad7acb4760e01b815260040160405180910390fd5b600d543410156117f157604051633c89335b60e11b815260040160405180910390fd5b61170a3361196e565b601380546108f0906125f8565b6000546001600160a01b0316331461116d5760405162461bcd60e51b815260206004820181905260248201527f4f776e61626c653a2063616c6c6572206973206e6f7420746865206f776e657260448201526064016116f8565b600081806001116118be576001548110156118be5760008181526005602052604081205490600160e01b821690036118bc575b806000036118b5575060001901600081815260056020526040902054611894565b9392505050565b505b6040517fdf2d9b4200000000000000000000000000000000000000000000000000000000815260040160405180910390fd5b600080546001600160a01b038381167fffffffffffffffffffffffff0000000000000000000000000000000000000000831681178455604051919092169283917f8be0079c531659141344cd1fd0a4f28419497f9722a3daafe3b4186f6b6457e09190a35050565b6000826119658584611cad565b14949350505050565b6001600160a01b0381166000908152601560205260408120805460ff19166001908117909155600b8054919290916119a79084906128aa565b909155506119b89050816001611cfa565b6040516001600160a01b03821681527fe11711cd714e06fbbbea301a8e90822f2f2ea4808e37e3adf06038f33c53ff279060200160405180910390a150565b600081600111158015611a0b575060015482105b801561084b575050600090815260056020526040902054600160e01b161590565b60606000611a3983611d18565b600101905060008167ffffffffffffffff811115611a5957611a5961235b565b6040519080825280601f01601f191660200182016040528015611a83576020820181803683370190505b5090508181016020015b600019017f3031323334353637383961626364656600000000000000000000000000000000600a86061a8153600a8504945084611a8d57509392505050565b60606000611adb836002612661565b611ae69060026128aa565b67ffffffffffffffff811115611afe57611afe61235b565b6040519080825280601f01601f191660200182016040528015611b28576020820181803683370190505b5090507f300000000000000000000000000000000000000000000000000000000000000081600081518110611b5f57611b5f6128bd565b60200101906001600160f81b031916908160001a9053507f780000000000000000000000000000000000000000000000000000000000000081600181518110611baa57611baa6128bd565b60200101906001600160f81b031916908160001a9053506000611bce846002612661565b611bd99060016128aa565b90505b6001811115611c5e577f303132333435363738396162636465660000000000000000000000000000000085600f1660108110611c1a57611c1a6128bd565b1a60f81b828281518110611c3057611c306128bd565b60200101906001600160f81b031916908160001a90535060049490941c93611c57816128d3565b9050611bdc565b5083156118b55760405162461bcd60e51b815260206004820181905260248201527f537472696e67733a20686578206c656e67746820696e73756666696369656e7460448201526064016116f8565b600081815b8451811015611cf257611cde82868381518110611cd157611cd16128bd565b6020026020010151611dfa565b915080611cea816128ea565b915050611cb2565b509392505050565b611d14828260405180602001604052806000815250611e29565b5050565b6000807a184f03e93ff9f4daa797ed6e38ed64bf6a1f0100000000000000008310611d61577a184f03e93ff9f4daa797ed6e38ed64bf6a1f010000000000000000830492506040015b6d04ee2d6d415b85acef81000000008310611d8d576d04ee2d6d415b85acef8100000000830492506020015b662386f26fc100008310611dab57662386f26fc10000830492506010015b6305f5e1008310611dc3576305f5e100830492506008015b6127108310611dd757612710830492506004015b60648310611de9576064830492506002015b600a831061084b5760010192915050565b6000818310611e165760008281526020849052604090206118b5565b60008381526020839052604090206118b5565b611e338383611e96565b6001600160a01b0383163b15610f89576001548281035b611e5d6000868380600101945086611fc7565b611e7a576040516368d2bf6b60e11b815260040160405180910390fd5b818110611e4a578160015414611e8f57600080fd5b5050505050565b6001546000829003611ed4576040517fb562e8dd00000000000000000000000000000000000000000000000000000000815260040160405180910390fd5b6001600160a01b03831660008181526006602090815260408083208054680100000000000000018802019055848352600590915281206001851460e11b4260a01b178317905582840190839083907fddf252ad1be2c89b69c2b068fc378daa952ba7f163c4a11628f55a4df523b3ef8180a4600183015b818114611f8357808360007fddf252ad1be2c89b69c2b068fc378daa952ba7f163c4a11628f55a4df523b3ef600080a4600101611f4b565b5081600003611fbe576040517f2e07630000000000000000000000000000000000000000000000000000000000815260040160405180910390fd5b60015550505050565b604051630a85bd0160e11b81526000906001600160a01b0385169063150b7a0290611ffc903390899088908890600401612903565b6020604051808303816000875af1925050508015612037575060408051601f3d908101601f1916820190925261203491810190612935565b60015b612095573d808015612065576040519150601f19603f3d011682016040523d82523d6000602084013e61206a565b606091505b50805160000361208d576040516368d2bf6b60e11b815260040160405180910390fd5b805181602001fd5b6001600160e01b031916630a85bd0160e11b149050949350505050565b6001600160e01b03198116811461170a57600080fd5b6000602082840312156120da57600080fd5b81356118b5816120b2565b60005b838110156121005781810151838201526020016120e8565b50506000910152565b600081518084526121218160208601602086016120e5565b601f01601f19169290920160200192915050565b6020815260006118b56020830184612109565b80356001600160a01b038116811461215f57600080fd5b919050565b60006020828403121561217657600080fd5b6118b582612148565b60006020828403121561219157600080fd5b5035919050565b602081526121b26020820183516001600160a01b03169052565b600060208301516121ce60408401826001600160a01b03169052565b5060408301518015156060840152506060830151801515608084015250608083015180151560a08401525060a083015180151560c08401525060c083015163ffffffff811660e08401525060e083015161010083810191909152830151610120808401919091528301516101408084019190915283015161016080840191909152830151610180808401919091528301516101a0808401919091528301516101c0808401919091528301516102606101e0808501829052612293610280860184612109565b9250808601519050601f196102008187860301818801526122b48584612109565b9450808801519250506102208187860301818801526122d38584612109565b9450808801519250506102408187860301818801526122f28584612109565b90880151878203909201848801529350905061230e8382612109565b9695505050505050565b8035801515811461215f57600080fd5b6000806040838503121561233b57600080fd5b61234483612148565b915061235260208401612318565b90509250929050565b634e487b7160e01b600052604160045260246000fd5b604051610160810167ffffffffffffffff811182821017156123955761239561235b565b60405290565b604051601f8201601f1916810167ffffffffffffffff811182821017156123c4576123c461235b565b604052919050565b803563ffffffff8116811461215f57600080fd5b600067ffffffffffffffff8211156123fa576123fa61235b565b50601f01601f191660200190565b600082601f83011261241957600080fd5b813561242c612427826123e0565b61239b565b81815284602083860101111561244157600080fd5b816020850160208301376000918101602001919091529392505050565b60006020828403121561247057600080fd5b813567ffffffffffffffff8082111561248857600080fd5b90830190610160828603121561249d57600080fd5b6124a5612371565b6124ae836123cc565b81526020830135602082015260408301356040820152606083013560608201526080830135608082015260a083013560a082015260c0830135828111156124f457600080fd5b61250087828601612408565b60c08301525060e08301358281111561251857600080fd5b61252487828601612408565b60e083015250610100808401358381111561253e57600080fd5b61254a88828701612408565b8284015250506101209150612560828401612318565b828201526101409150612574828401612318565b91810191909152949350505050565b6000806020838503121561259657600080fd5b823567ffffffffffffffff808211156125ae57600080fd5b818501915085601f8301126125c257600080fd5b8135818111156125d157600080fd5b8660208260051b85010111156125e657600080fd5b60209290920196919550909350505050565b600181811c9082168061260c57607f821691505b60208210810361262c57634e487b7160e01b600052602260045260246000fd5b50919050565b634e487b7160e01b600052601160045260246000fd5b60ff828116828216039081111561084b5761084b612632565b808202811582820484141761084b5761084b612632565b60008261269557634e487b7160e01b600052601260045260246000fd5b500490565b601f821115610f8957600081815260208120601f850160051c810160208610156126c15750805b601f850160051c820191505b818110156126e0578281556001016126cd565b505050505050565b815167ffffffffffffffff8111156127025761270261235b565b6127168161271084546125f8565b8461269a565b602080601f83116001811461274b57600084156127335750858301515b600019600386901b1c1916600185901b1785556126e0565b600085815260208120601f198616915b8281101561277a5788860151825594840194600190910190840161275b565b50858210156127985787850151600019600388901b60f8161c191681555b5050505050600190811b01905550565b6000602082840312156127ba57600080fd5b815167ffffffffffffffff8111156127d157600080fd5b8201601f810184136127e257600080fd5b80516127f0612427826123e0565b81815285602083850101111561280557600080fd5b6128168260208301602086016120e5565b95945050505050565b60008551612831818460208a016120e5565b855190830190612845818360208a016120e5565b7f2f0000000000000000000000000000000000000000000000000000000000000091018181528551909190612881816001850160208a016120e5565b6001920191820152835161289c8160028401602088016120e5565b016002019695505050505050565b8082018082111561084b5761084b612632565b634e487b7160e01b600052603260045260246000fd5b6000816128e2576128e2612632565b506000190190565b6000600182016128fc576128fc612632565b5060010190565b60006001600160a01b0380871683528086166020840152508360408301526080606083015261230e6080830184612109565b60006020828403121561294757600080fd5b81516118b5816120b256fea2646970667358221220899afb947e59078a5e90a68c86b8950c2e08f6fea099c3f8412b56c670d3442864736f6c63430008110033a26469706673582212205b0f4c1825bcd028e21164aee6bdb411a6ecf290845a76cf8ab4c141220e4c3064736f6c63430008110033","opcodes":"PUSH1 0x0 DUP1 SLOAD PUSH1 0xFF PUSH1 0xA0 SHL NOT AND PUSH1 0x1 PUSH1 0xA0 SHL OR SWAP1 SSTORE PUSH1 0xC0 PUSH1 0x40 MSTORE PUSH1 0x1E PUSH1 0x80 SWAP1 DUP2 MSTORE PUSH32 0x68747470733A2F2F6D657461646174612E63726576656E74732E78797A2F0000 PUSH1 0xA0 MSTORE PUSH1 0x1 SWAP1 PUSH3 0x51 SWAP1 DUP3 PUSH3 0x166 JUMP JUMPDEST POP CALLVALUE DUP1 ISZERO PUSH3 0x5F JUMPI PUSH1 0x0 DUP1 REVERT JUMPDEST POP PUSH3 0x6B CALLER PUSH3 0x71 JUMP JUMPDEST PUSH3 0x232 JUMP JUMPDEST PUSH1 0x0 DUP1 SLOAD PUSH1 0x1 PUSH1 0x1 PUSH1 0xA0 SHL SUB DUP4 DUP2 AND PUSH1 0x1 PUSH1 0x1 PUSH1 0xA0 SHL SUB NOT DUP4 AND DUP2 OR DUP5 SSTORE PUSH1 0x40 MLOAD SWAP2 SWAP1 SWAP3 AND SWAP3 DUP4 SWAP2 PUSH32 0x8BE0079C531659141344CD1FD0A4F28419497F9722A3DAAFE3B4186F6B6457E0 SWAP2 SWAP1 LOG3 POP POP JUMP JUMPDEST PUSH4 0x4E487B71 PUSH1 0xE0 SHL PUSH1 0x0 MSTORE PUSH1 0x41 PUSH1 0x4 MSTORE PUSH1 0x24 PUSH1 0x0 REVERT JUMPDEST PUSH1 0x1 DUP2 DUP2 SHR SWAP1 DUP3 AND DUP1 PUSH3 0xEC JUMPI PUSH1 0x7F DUP3 AND SWAP2 POP JUMPDEST PUSH1 0x20 DUP3 LT DUP2 SUB PUSH3 0x10D JUMPI PUSH4 0x4E487B71 PUSH1 0xE0 SHL PUSH1 0x0 MSTORE PUSH1 0x22 PUSH1 0x4 MSTORE PUSH1 0x24 PUSH1 0x0 REVERT JUMPDEST POP SWAP2 SWAP1 POP JUMP JUMPDEST PUSH1 0x1F DUP3 GT ISZERO PUSH3 0x161 JUMPI PUSH1 0x0 DUP2 DUP2 MSTORE PUSH1 0x20 DUP2 KECCAK256 PUSH1 0x1F DUP6 ADD PUSH1 0x5 SHR DUP2 ADD PUSH1 0x20 DUP7 LT ISZERO PUSH3 0x13C JUMPI POP DUP1 JUMPDEST PUSH1 0x1F DUP6 ADD PUSH1 0x5 SHR DUP3 ADD SWAP2 POP JUMPDEST DUP2 DUP2 LT ISZERO PUSH3 0x15D JUMPI DUP3 DUP2 SSTORE PUSH1 0x1 ADD PUSH3 0x148 JUMP JUMPDEST POP POP POP JUMPDEST POP POP POP JUMP JUMPDEST DUP2 MLOAD PUSH1 0x1 PUSH1 0x1 PUSH1 0x40 SHL SUB DUP2 GT ISZERO PUSH3 0x182 JUMPI PUSH3 0x182 PUSH3 0xC1 JUMP JUMPDEST PUSH3 0x19A DUP2 PUSH3 0x193 DUP5 SLOAD PUSH3 0xD7 JUMP JUMPDEST DUP5 PUSH3 0x113 JUMP JUMPDEST PUSH1 0x20 DUP1 PUSH1 0x1F DUP4 GT PUSH1 0x1 DUP2 EQ PUSH3 0x1D2 JUMPI PUSH1 0x0 DUP5 ISZERO PUSH3 0x1B9 JUMPI POP DUP6 DUP4 ADD MLOAD JUMPDEST PUSH1 0x0 NOT PUSH1 0x3 DUP7 SWAP1 SHL SHR NOT AND PUSH1 0x1 DUP6 SWAP1 SHL OR DUP6 SSTORE PUSH3 0x15D JUMP JUMPDEST PUSH1 0x0 DUP6 DUP2 MSTORE PUSH1 0x20 DUP2 KECCAK256 PUSH1 0x1F NOT DUP7 AND SWAP2 JUMPDEST DUP3 DUP2 LT ISZERO PUSH3 0x203 JUMPI DUP9 DUP7 ADD MLOAD DUP3 SSTORE SWAP5 DUP5 ADD SWAP5 PUSH1 0x1 SWAP1 SWAP2 ADD SWAP1 DUP5 ADD PUSH3 0x1E2 JUMP JUMPDEST POP DUP6 DUP3 LT ISZERO PUSH3 0x222 JUMPI DUP8 DUP6 ADD MLOAD PUSH1 0x0 NOT PUSH1 0x3 DUP9 SWAP1 SHL PUSH1 0xF8 AND SHR NOT AND DUP2 SSTORE JUMPDEST POP POP POP POP POP PUSH1 0x1 SWAP1 DUP2 SHL ADD SWAP1 SSTORE POP JUMP JUMPDEST PUSH2 0x4534 DUP1 PUSH3 0x242 PUSH1 0x0 CODECOPY PUSH1 0x0 RETURN INVALID PUSH1 0x80 PUSH1 0x40 MSTORE PUSH1 0x4 CALLDATASIZE LT PUSH3 0xC3 JUMPI PUSH1 0x0 CALLDATALOAD PUSH1 0xE0 SHR DUP1 PUSH4 0x8DA5CB5B GT PUSH3 0x71 JUMPI DUP1 PUSH4 0xDDCA3F43 GT PUSH3 0x54 JUMPI DUP1 PUSH4 0xDDCA3F43 EQ PUSH3 0x21C JUMPI DUP1 PUSH4 0xDF25B8A8 EQ PUSH3 0x263 JUMPI DUP1 PUSH4 0xF2FDE38B EQ PUSH3 0x288 JUMPI PUSH1 0x0 DUP1 REVERT JUMPDEST DUP1 PUSH4 0x8DA5CB5B EQ PUSH3 0x1D5 JUMPI DUP1 PUSH4 0xA2DF578A EQ PUSH3 0x1F5 JUMPI PUSH1 0x0 DUP1 REVERT JUMPDEST DUP1 PUSH4 0xEA4E6A0 GT PUSH3 0xA6 JUMPI DUP1 PUSH4 0xEA4E6A0 EQ PUSH3 0x171 JUMPI DUP1 PUSH4 0x3CCFD60B EQ PUSH3 0x1A5 JUMPI DUP1 PUSH4 0x715018A6 EQ PUSH3 0x1BD JUMPI PUSH1 0x0 DUP1 REVERT JUMPDEST DUP1 PUSH4 0x675B7C6 EQ PUSH3 0x108 JUMPI DUP1 PUSH4 0xB791430 EQ PUSH3 0x12F JUMPI PUSH1 0x0 DUP1 REVERT JUMPDEST CALLDATASIZE PUSH3 0x103 JUMPI PUSH1 0x40 DUP1 MLOAD CALLER DUP2 MSTORE CALLVALUE PUSH1 0x20 DUP3 ADD MSTORE PUSH32 0x88A5966D370B9919B20F3E2C13FF65706F196A4E32CC2C12BF57088F88525874 SWAP2 ADD PUSH1 0x40 MLOAD DUP1 SWAP2 SUB SWAP1 LOG1 STOP JUMPDEST PUSH1 0x0 DUP1 REVERT JUMPDEST CALLVALUE DUP1 ISZERO PUSH3 0x115 JUMPI PUSH1 0x0 DUP1 REVERT JUMPDEST POP PUSH3 0x12D PUSH3 0x127 CALLDATASIZE PUSH1 0x4 PUSH3 0x9F3 JUMP JUMPDEST PUSH3 0x2AD JUMP JUMPDEST STOP JUMPDEST CALLVALUE DUP1 ISZERO PUSH3 0x13C JUMPI PUSH1 0x0 DUP1 REVERT JUMPDEST POP PUSH3 0x154 PUSH3 0x14E CALLDATASIZE PUSH1 0x4 PUSH3 0xA7B JUMP JUMPDEST PUSH3 0x2C9 JUMP JUMPDEST PUSH1 0x40 MLOAD PUSH1 0x1 PUSH1 0x1 PUSH1 0xA0 SHL SUB SWAP1 SWAP2 AND DUP2 MSTORE PUSH1 0x20 ADD JUMPDEST PUSH1 0x40 MLOAD DUP1 SWAP2 SUB SWAP1 RETURN JUMPDEST CALLVALUE DUP1 ISZERO PUSH3 0x17E JUMPI PUSH1 0x0 DUP1 REVERT JUMPDEST POP PUSH3 0x196 PUSH3 0x190 CALLDATASIZE PUSH1 0x4 PUSH3 0xA95 JUMP JUMPDEST PUSH3 0x2F4 JUMP JUMPDEST PUSH1 0x40 MLOAD PUSH3 0x168 SWAP2 SWAP1 PUSH3 0xB16 JUMP JUMPDEST CALLVALUE DUP1 ISZERO PUSH3 0x1B2 JUMPI PUSH1 0x0 DUP1 REVERT JUMPDEST POP PUSH3 0x12D PUSH3 0x5B5 JUMP JUMPDEST CALLVALUE DUP1 ISZERO PUSH3 0x1CA JUMPI PUSH1 0x0 DUP1 REVERT JUMPDEST POP PUSH3 0x12D PUSH3 0x65C JUMP JUMPDEST CALLVALUE DUP1 ISZERO PUSH3 0x1E2 JUMPI PUSH1 0x0 DUP1 REVERT JUMPDEST POP PUSH1 0x0 SLOAD PUSH1 0x1 PUSH1 0x1 PUSH1 0xA0 SHL SUB AND PUSH3 0x154 JUMP JUMPDEST CALLVALUE DUP1 ISZERO PUSH3 0x202 JUMPI PUSH1 0x0 DUP1 REVERT JUMPDEST POP PUSH3 0x20D PUSH3 0x674 JUMP JUMPDEST PUSH1 0x40 MLOAD PUSH3 0x168 SWAP2 SWAP1 PUSH3 0xCB1 JUMP JUMPDEST CALLVALUE DUP1 ISZERO PUSH3 0x229 JUMPI PUSH1 0x0 DUP1 REVERT JUMPDEST POP PUSH1 0x0 SLOAD PUSH3 0x250 SWAP1 PUSH21 0x10000000000000000000000000000000000000000 SWAP1 DIV PUSH1 0xFF AND DUP2 JUMP JUMPDEST PUSH1 0x40 MLOAD PUSH1 0xFF SWAP1 SWAP2 AND DUP2 MSTORE PUSH1 0x20 ADD PUSH3 0x168 JUMP JUMPDEST CALLVALUE DUP1 ISZERO PUSH3 0x270 JUMPI PUSH1 0x0 DUP1 REVERT JUMPDEST POP PUSH3 0x154 PUSH3 0x282 CALLDATASIZE PUSH1 0x4 PUSH3 0xCC6 JUMP JUMPDEST PUSH3 0x70A JUMP JUMPDEST CALLVALUE DUP1 ISZERO PUSH3 0x295 JUMPI PUSH1 0x0 DUP1 REVERT JUMPDEST POP PUSH3 0x12D PUSH3 0x2A7 CALLDATASIZE PUSH1 0x4 PUSH3 0xD1B JUMP JUMPDEST PUSH3 0x7F0 JUMP JUMPDEST PUSH3 0x2B7 PUSH3 0x88A JUMP JUMPDEST PUSH1 0x1 PUSH3 0x2C5 DUP3 DUP3 PUSH3 0xDCA JUMP JUMPDEST POP POP JUMP JUMPDEST PUSH1 0x2 DUP2 DUP2 SLOAD DUP2 LT PUSH3 0x2DA JUMPI PUSH1 0x0 DUP1 REVERT JUMPDEST PUSH1 0x0 SWAP2 DUP3 MSTORE PUSH1 0x20 SWAP1 SWAP2 KECCAK256 ADD SLOAD PUSH1 0x1 PUSH1 0x1 PUSH1 0xA0 SHL SUB AND SWAP1 POP DUP2 JUMP JUMPDEST PUSH1 0x2 SLOAD PUSH1 0x60 SWAP1 PUSH1 0x0 DUP1 DUP1 DUP4 DUP9 LT PUSH3 0x310 JUMPI PUSH1 0x0 SWAP3 POP PUSH3 0x33C JUMP JUMPDEST DUP7 PUSH3 0x31D DUP10 DUP7 PUSH3 0xEAD JUMP JUMPDEST LT ISZERO PUSH3 0x338 JUMPI PUSH3 0x330 DUP9 DUP6 PUSH3 0xEAD JUMP JUMPDEST SWAP3 POP PUSH3 0x33C JUMP JUMPDEST DUP7 SWAP3 POP JUMPDEST PUSH1 0x0 DUP4 PUSH8 0xFFFFFFFFFFFFFFFF DUP2 GT ISZERO PUSH3 0x35A JUMPI PUSH3 0x35A PUSH3 0x951 JUMP JUMPDEST PUSH1 0x40 MLOAD SWAP1 DUP1 DUP3 MSTORE DUP1 PUSH1 0x20 MUL PUSH1 0x20 ADD DUP3 ADD PUSH1 0x40 MSTORE DUP1 ISZERO PUSH3 0x443 JUMPI DUP2 PUSH1 0x20 ADD JUMPDEST PUSH3 0x42F PUSH1 0x40 MLOAD DUP1 PUSH2 0x260 ADD PUSH1 0x40 MSTORE DUP1 PUSH1 0x0 PUSH1 0x1 PUSH1 0x1 PUSH1 0xA0 SHL SUB AND DUP2 MSTORE PUSH1 0x20 ADD PUSH1 0x0 PUSH1 0x1 PUSH1 0x1 PUSH1 0xA0 SHL SUB AND DUP2 MSTORE PUSH1 0x20 ADD PUSH1 0x0 ISZERO ISZERO DUP2 MSTORE PUSH1 0x20 ADD PUSH1 0x0 ISZERO ISZERO DUP2 MSTORE PUSH1 0x20 ADD PUSH1 0x0 ISZERO ISZERO DUP2 MSTORE PUSH1 0x20 ADD PUSH1 0x0 ISZERO ISZERO DUP2 MSTORE PUSH1 0x20 ADD PUSH1 0x0 PUSH4 0xFFFFFFFF AND DUP2 MSTORE PUSH1 0x20 ADD PUSH1 0x0 DUP2 MSTORE PUSH1 0x20 ADD PUSH1 0x0 DUP2 MSTORE PUSH1 0x20 ADD PUSH1 0x0 DUP2 MSTORE PUSH1 0x20 ADD PUSH1 0x0 DUP2 MSTORE PUSH1 0x20 ADD PUSH1 0x0 DUP2 MSTORE PUSH1 0x20 ADD PUSH1 0x0 DUP2 MSTORE PUSH1 0x20 ADD PUSH1 0x0 DUP2 MSTORE PUSH1 0x20 ADD PUSH1 0x60 DUP2 MSTORE PUSH1 0x20 ADD PUSH1 0x60 DUP2 MSTORE PUSH1 0x20 ADD PUSH1 0x60 DUP2 MSTORE PUSH1 0x20 ADD PUSH1 0x60 DUP2 MSTORE PUSH1 0x20 ADD PUSH1 0x60 DUP2 MSTORE POP SWAP1 JUMP JUMPDEST DUP2 MSTORE PUSH1 0x20 ADD SWAP1 PUSH1 0x1 SWAP1 SUB SWAP1 DUP2 PUSH3 0x379 JUMPI SWAP1 POP JUMPDEST POP SWAP1 POP DUP4 PUSH1 0x0 SUB PUSH3 0x45C JUMPI SWAP5 POP PUSH3 0x5AE SWAP4 POP POP POP POP JUMP JUMPDEST PUSH3 0x468 DUP5 DUP7 PUSH3 0xEAD JUMP JUMPDEST SWAP3 POP DUP4 ISZERO PUSH3 0x481 JUMPI PUSH3 0x47E PUSH1 0x1 DUP6 PUSH3 0xEAD JUMP JUMPDEST SWAP2 POP JUMPDEST DUP2 JUMPDEST PUSH1 0x0 PUSH1 0x2 DUP3 DUP2 SLOAD DUP2 LT PUSH3 0x49B JUMPI PUSH3 0x49B PUSH3 0xEC9 JUMP JUMPDEST PUSH1 0x0 SWAP2 DUP3 MSTORE PUSH1 0x20 SWAP1 SWAP2 KECCAK256 ADD SLOAD PUSH1 0x40 MLOAD PUSH32 0x1D645B1200000000000000000000000000000000000000000000000000000000 DUP2 MSTORE PUSH1 0x4 DUP2 ADD DUP12 SWAP1 MSTORE PUSH1 0x1 PUSH1 0x1 PUSH1 0xA0 SHL SUB SWAP1 SWAP2 AND SWAP2 POP DUP2 SWAP1 PUSH4 0x1D645B12 SWAP1 PUSH1 0x24 ADD PUSH1 0x0 PUSH1 0x40 MLOAD DUP1 DUP4 SUB DUP2 DUP7 GAS STATICCALL ISZERO DUP1 ISZERO PUSH3 0x50A JUMPI RETURNDATASIZE PUSH1 0x0 DUP1 RETURNDATACOPY RETURNDATASIZE PUSH1 0x0 REVERT JUMPDEST POP POP POP POP PUSH1 0x40 MLOAD RETURNDATASIZE PUSH1 0x0 DUP3 RETURNDATACOPY PUSH1 0x1F RETURNDATASIZE SWAP1 DUP2 ADD PUSH1 0x1F NOT AND DUP3 ADD PUSH1 0x40 MSTORE PUSH3 0x534 SWAP2 SWAP1 DUP2 ADD SWAP1 PUSH3 0xF81 JUMP JUMPDEST DUP4 PUSH3 0x541 DUP5 DUP8 PUSH3 0xEAD JUMP JUMPDEST DUP2 MLOAD DUP2 LT PUSH3 0x554 JUMPI PUSH3 0x554 PUSH3 0xEC9 JUMP JUMPDEST PUSH1 0x20 SWAP1 DUP2 MUL SWAP2 SWAP1 SWAP2 ADD ADD MSTORE PUSH3 0x56C PUSH1 0x1 DUP8 PUSH3 0xEAD JUMP JUMPDEST PUSH3 0x578 DUP4 DUP7 PUSH3 0xEAD JUMP JUMPDEST EQ DUP1 PUSH3 0x583 JUMPI POP DUP2 ISZERO JUMPDEST ISZERO PUSH3 0x590 JUMPI POP PUSH3 0x5A6 JUMP JUMPDEST DUP2 PUSH3 0x59C DUP2 PUSH3 0x1170 JUMP JUMPDEST SWAP3 POP POP POP PUSH3 0x483 JUMP JUMPDEST POP SWAP5 POP POP POP POP POP JUMPDEST SWAP4 SWAP3 POP POP POP JUMP JUMPDEST PUSH3 0x5BF PUSH3 0x88A JUMP JUMPDEST SELFBALANCE PUSH1 0x0 DUP2 SWAP1 SUB PUSH3 0x5E3 JUMPI PUSH1 0x40 MLOAD PUSH4 0x12171D83 PUSH1 0xE3 SHL DUP2 MSTORE PUSH1 0x4 ADD PUSH1 0x40 MLOAD DUP1 SWAP2 SUB SWAP1 REVERT JUMPDEST PUSH1 0x0 DUP1 SLOAD PUSH1 0x40 MLOAD PUSH1 0x1 PUSH1 0x1 PUSH1 0xA0 SHL SUB SWAP1 SWAP2 AND SWAP1 DUP4 SWAP1 DUP4 DUP2 DUP2 DUP2 DUP6 DUP8 GAS CALL SWAP3 POP POP POP RETURNDATASIZE DUP1 PUSH1 0x0 DUP2 EQ PUSH3 0x632 JUMPI PUSH1 0x40 MLOAD SWAP2 POP PUSH1 0x1F NOT PUSH1 0x3F RETURNDATASIZE ADD AND DUP3 ADD PUSH1 0x40 MSTORE RETURNDATASIZE DUP3 MSTORE RETURNDATASIZE PUSH1 0x0 PUSH1 0x20 DUP5 ADD RETURNDATACOPY PUSH3 0x637 JUMP JUMPDEST PUSH1 0x60 SWAP2 POP JUMPDEST POP POP DUP1 SWAP2 POP POP DUP1 PUSH3 0x2C5 JUMPI PUSH1 0x40 MLOAD PUSH4 0x12171D83 PUSH1 0xE3 SHL DUP2 MSTORE PUSH1 0x4 ADD PUSH1 0x40 MLOAD DUP1 SWAP2 SUB SWAP1 REVERT JUMPDEST PUSH3 0x666 PUSH3 0x88A JUMP JUMPDEST PUSH3 0x672 PUSH1 0x0 PUSH3 0x8E6 JUMP JUMPDEST JUMP JUMPDEST PUSH1 0x1 DUP1 SLOAD PUSH3 0x683 SWAP1 PUSH3 0xD3B JUMP JUMPDEST DUP1 PUSH1 0x1F ADD PUSH1 0x20 DUP1 SWAP2 DIV MUL PUSH1 0x20 ADD PUSH1 0x40 MLOAD SWAP1 DUP2 ADD PUSH1 0x40 MSTORE DUP1 SWAP3 SWAP2 SWAP1 DUP2 DUP2 MSTORE PUSH1 0x20 ADD DUP3 DUP1 SLOAD PUSH3 0x6B1 SWAP1 PUSH3 0xD3B JUMP JUMPDEST DUP1 ISZERO PUSH3 0x702 JUMPI DUP1 PUSH1 0x1F LT PUSH3 0x6D6 JUMPI PUSH2 0x100 DUP1 DUP4 SLOAD DIV MUL DUP4 MSTORE SWAP2 PUSH1 0x20 ADD SWAP2 PUSH3 0x702 JUMP JUMPDEST DUP3 ADD SWAP2 SWAP1 PUSH1 0x0 MSTORE PUSH1 0x20 PUSH1 0x0 KECCAK256 SWAP1 JUMPDEST DUP2 SLOAD DUP2 MSTORE SWAP1 PUSH1 0x1 ADD SWAP1 PUSH1 0x20 ADD DUP1 DUP4 GT PUSH3 0x6E4 JUMPI DUP3 SWAP1 SUB PUSH1 0x1F AND DUP3 ADD SWAP2 JUMPDEST POP POP POP POP POP DUP2 JUMP JUMPDEST PUSH1 0x0 DUP1 DUP3 CALLER PUSH1 0x0 PUSH1 0x14 SWAP1 SLOAD SWAP1 PUSH2 0x100 EXP SWAP1 DIV PUSH1 0xFF AND PUSH1 0x40 MLOAD PUSH3 0x72D SWAP1 PUSH3 0x943 JUMP JUMPDEST PUSH3 0x73B SWAP4 SWAP3 SWAP2 SWAP1 PUSH3 0x121D JUMP JUMPDEST PUSH1 0x40 MLOAD DUP1 SWAP2 SUB SWAP1 PUSH1 0x0 CREATE DUP1 ISZERO DUP1 ISZERO PUSH3 0x758 JUMPI RETURNDATASIZE PUSH1 0x0 DUP1 RETURNDATACOPY RETURNDATASIZE PUSH1 0x0 REVERT JUMPDEST POP PUSH1 0x2 DUP1 SLOAD PUSH1 0x1 DUP2 ADD DUP3 SSTORE PUSH1 0x0 SWAP2 SWAP1 SWAP2 MSTORE PUSH32 0x405787FA12A823E0F2B7631CC41B3BA8828B3321CA811111FA75CD3AA3BB5ACE ADD DUP1 SLOAD PUSH20 0xFFFFFFFFFFFFFFFFFFFFFFFFFFFFFFFFFFFFFFFF NOT AND PUSH1 0x1 PUSH1 0x1 PUSH1 0xA0 SHL SUB DUP4 AND SWAP1 DUP2 OR SWAP1 SWAP2 SSTORE PUSH1 0x40 MLOAD SWAP1 DUP2 MSTORE SWAP1 SWAP2 POP PUSH32 0xFC8A4C0621B9788C4DBE57053A51CE2D22625A067D039F38004DF2A07CA755A4 SWAP1 PUSH1 0x20 ADD PUSH1 0x40 MLOAD DUP1 SWAP2 SUB SWAP1 LOG1 SWAP3 SWAP2 POP POP JUMP JUMPDEST PUSH3 0x7FA PUSH3 0x88A JUMP JUMPDEST PUSH1 0x1 PUSH1 0x1 PUSH1 0xA0 SHL SUB DUP2 AND PUSH3 0x87C JUMPI PUSH1 0x40 MLOAD PUSH3 0x461BCD PUSH1 0xE5 SHL DUP2 MSTORE PUSH1 0x20 PUSH1 0x4 DUP3 ADD MSTORE PUSH1 0x26 PUSH1 0x24 DUP3 ADD MSTORE PUSH32 0x4F776E61626C653A206E6577206F776E657220697320746865207A65726F2061 PUSH1 0x44 DUP3 ADD MSTORE PUSH32 0x6464726573730000000000000000000000000000000000000000000000000000 PUSH1 0x64 DUP3 ADD MSTORE PUSH1 0x84 ADD JUMPDEST PUSH1 0x40 MLOAD DUP1 SWAP2 SUB SWAP1 REVERT JUMPDEST PUSH3 0x887 DUP2 PUSH3 0x8E6 JUMP JUMPDEST POP JUMP JUMPDEST PUSH1 0x0 SLOAD PUSH1 0x1 PUSH1 0x1 PUSH1 0xA0 SHL SUB AND CALLER EQ PUSH3 0x672 JUMPI PUSH1 0x40 MLOAD PUSH3 0x461BCD PUSH1 0xE5 SHL DUP2 MSTORE PUSH1 0x20 PUSH1 0x4 DUP3 ADD DUP2 SWAP1 MSTORE PUSH1 0x24 DUP3 ADD MSTORE PUSH32 0x4F776E61626C653A2063616C6C6572206973206E6F7420746865206F776E6572 PUSH1 0x44 DUP3 ADD MSTORE PUSH1 0x64 ADD PUSH3 0x873 JUMP JUMPDEST PUSH1 0x0 DUP1 SLOAD PUSH1 0x1 PUSH1 0x1 PUSH1 0xA0 SHL SUB DUP4 DUP2 AND PUSH20 0xFFFFFFFFFFFFFFFFFFFFFFFFFFFFFFFFFFFFFFFF NOT DUP4 AND DUP2 OR DUP5 SSTORE PUSH1 0x40 MLOAD SWAP2 SWAP1 SWAP3 AND SWAP3 DUP4 SWAP2 PUSH32 0x8BE0079C531659141344CD1FD0A4F28419497F9722A3DAAFE3B4186F6B6457E0 SWAP2 SWAP1 LOG3 POP POP JUMP JUMPDEST PUSH2 0x3141 DUP1 PUSH3 0x13BE DUP4 CODECOPY ADD SWAP1 JUMP JUMPDEST PUSH4 0x4E487B71 PUSH1 0xE0 SHL PUSH1 0x0 MSTORE PUSH1 0x41 PUSH1 0x4 MSTORE PUSH1 0x24 PUSH1 0x0 REVERT JUMPDEST PUSH1 0x40 MLOAD PUSH2 0x260 DUP2 ADD PUSH8 0xFFFFFFFFFFFFFFFF DUP2 GT DUP3 DUP3 LT OR ISZERO PUSH3 0x98E JUMPI PUSH3 0x98E PUSH3 0x951 JUMP JUMPDEST PUSH1 0x40 MSTORE SWAP1 JUMP JUMPDEST PUSH1 0x40 MLOAD PUSH1 0x1F DUP3 ADD PUSH1 0x1F NOT AND DUP2 ADD PUSH8 0xFFFFFFFFFFFFFFFF DUP2 GT DUP3 DUP3 LT OR ISZERO PUSH3 0x9C0 JUMPI PUSH3 0x9C0 PUSH3 0x951 JUMP JUMPDEST PUSH1 0x40 MSTORE SWAP2 SWAP1 POP JUMP JUMPDEST PUSH1 0x0 PUSH8 0xFFFFFFFFFFFFFFFF DUP3 GT ISZERO PUSH3 0x9E5 JUMPI PUSH3 0x9E5 PUSH3 0x951 JUMP JUMPDEST POP PUSH1 0x1F ADD PUSH1 0x1F NOT AND PUSH1 0x20 ADD SWAP1 JUMP JUMPDEST PUSH1 0x0 PUSH1 0x20 DUP3 DUP5 SUB SLT ISZERO PUSH3 0xA06 JUMPI PUSH1 0x0 DUP1 REVERT JUMPDEST DUP2 CALLDATALOAD PUSH8 0xFFFFFFFFFFFFFFFF DUP2 GT ISZERO PUSH3 0xA1E JUMPI PUSH1 0x0 DUP1 REVERT JUMPDEST DUP3 ADD PUSH1 0x1F DUP2 ADD DUP5 SGT PUSH3 0xA30 JUMPI PUSH1 0x0 DUP1 REVERT JUMPDEST DUP1 CALLDATALOAD PUSH3 0xA47 PUSH3 0xA41 DUP3 PUSH3 0x9C8 JUMP JUMPDEST PUSH3 0x994 JUMP JUMPDEST DUP2 DUP2 MSTORE DUP6 PUSH1 0x20 DUP4 DUP6 ADD ADD GT ISZERO PUSH3 0xA5D JUMPI PUSH1 0x0 DUP1 REVERT JUMPDEST DUP2 PUSH1 0x20 DUP5 ADD PUSH1 0x20 DUP4 ADD CALLDATACOPY PUSH1 0x0 SWAP2 DUP2 ADD PUSH1 0x20 ADD SWAP2 SWAP1 SWAP2 MSTORE SWAP5 SWAP4 POP POP POP POP JUMP JUMPDEST PUSH1 0x0 PUSH1 0x20 DUP3 DUP5 SUB SLT ISZERO PUSH3 0xA8E JUMPI PUSH1 0x0 DUP1 REVERT JUMPDEST POP CALLDATALOAD SWAP2 SWAP1 POP JUMP JUMPDEST PUSH1 0x0 DUP1 PUSH1 0x0 PUSH1 0x60 DUP5 DUP7 SUB SLT ISZERO PUSH3 0xAAB JUMPI PUSH1 0x0 DUP1 REVERT JUMPDEST POP POP DUP2 CALLDATALOAD SWAP4 PUSH1 0x20 DUP4 ADD CALLDATALOAD SWAP4 POP PUSH1 0x40 SWAP1 SWAP3 ADD CALLDATALOAD SWAP2 SWAP1 POP JUMP JUMPDEST PUSH1 0x0 JUMPDEST DUP4 DUP2 LT ISZERO PUSH3 0xADF JUMPI DUP2 DUP2 ADD MLOAD DUP4 DUP3 ADD MSTORE PUSH1 0x20 ADD PUSH3 0xAC5 JUMP JUMPDEST POP POP PUSH1 0x0 SWAP2 ADD MSTORE JUMP JUMPDEST PUSH1 0x0 DUP2 MLOAD DUP1 DUP5 MSTORE PUSH3 0xB02 DUP2 PUSH1 0x20 DUP7 ADD PUSH1 0x20 DUP7 ADD PUSH3 0xAC2 JUMP JUMPDEST PUSH1 0x1F ADD PUSH1 0x1F NOT AND SWAP3 SWAP1 SWAP3 ADD PUSH1 0x20 ADD SWAP3 SWAP2 POP POP JUMP JUMPDEST PUSH1 0x0 PUSH1 0x20 DUP1 DUP4 ADD DUP2 DUP5 MSTORE DUP1 DUP6 MLOAD DUP1 DUP4 MSTORE PUSH1 0x40 SWAP3 POP DUP3 DUP7 ADD SWAP2 POP DUP3 DUP2 PUSH1 0x5 SHL DUP8 ADD ADD DUP5 DUP9 ADD PUSH1 0x0 JUMPDEST DUP4 DUP2 LT ISZERO PUSH3 0xCA3 JUMPI PUSH1 0x3F NOT DUP10 DUP5 SUB ADD DUP6 MSTORE DUP2 MLOAD DUP1 MLOAD PUSH1 0x1 PUSH1 0x1 PUSH1 0xA0 SHL SUB SWAP1 DUP2 AND DUP6 MSTORE DUP9 DUP3 ADD MLOAD AND DUP9 DUP6 ADD MSTORE DUP7 DUP2 ADD MLOAD ISZERO ISZERO DUP8 DUP6 ADD MSTORE PUSH1 0x60 DUP1 DUP3 ADD MLOAD ISZERO ISZERO SWAP1 DUP6 ADD MSTORE PUSH1 0x80 DUP1 DUP3 ADD MLOAD ISZERO ISZERO SWAP1 DUP6 ADD MSTORE PUSH1 0xA0 DUP1 DUP3 ADD MLOAD ISZERO ISZERO SWAP1 DUP6 ADD MSTORE PUSH1 0xC0 DUP1 DUP3 ADD MLOAD PUSH4 0xFFFFFFFF AND SWAP1 DUP6 ADD MSTORE PUSH1 0xE0 DUP1 DUP3 ADD MLOAD SWAP1 DUP6 ADD MSTORE PUSH2 0x100 DUP1 DUP3 ADD MLOAD SWAP1 DUP6 ADD MSTORE PUSH2 0x120 DUP1 DUP3 ADD MLOAD SWAP1 DUP6 ADD MSTORE PUSH2 0x140 DUP1 DUP3 ADD MLOAD SWAP1 DUP6 ADD MSTORE PUSH2 0x160 DUP1 DUP3 ADD MLOAD SWAP1 DUP6 ADD MSTORE PUSH2 0x180 DUP1 DUP3 ADD MLOAD SWAP1 DUP6 ADD MSTORE PUSH2 0x1A0 DUP1 DUP3 ADD MLOAD SWAP1 DUP6 ADD MSTORE PUSH2 0x1C0 DUP1 DUP3 ADD MLOAD PUSH2 0x260 DUP3 DUP8 ADD DUP2 SWAP1 MSTORE SWAP2 SWAP1 PUSH3 0xC13 DUP4 DUP9 ADD DUP3 PUSH3 0xAE8 JUMP JUMPDEST SWAP3 POP POP POP PUSH2 0x1E0 DUP1 DUP4 ADD MLOAD DUP7 DUP4 SUB DUP3 DUP9 ADD MSTORE PUSH3 0xC31 DUP4 DUP3 PUSH3 0xAE8 JUMP JUMPDEST SWAP3 POP POP POP PUSH2 0x200 DUP1 DUP4 ADD MLOAD DUP7 DUP4 SUB DUP3 DUP9 ADD MSTORE PUSH3 0xC4F DUP4 DUP3 PUSH3 0xAE8 JUMP JUMPDEST SWAP3 POP POP POP PUSH2 0x220 DUP1 DUP4 ADD MLOAD DUP7 DUP4 SUB DUP3 DUP9 ADD MSTORE PUSH3 0xC6D DUP4 DUP3 PUSH3 0xAE8 JUMP JUMPDEST SWAP3 POP POP POP PUSH2 0x240 DUP1 DUP4 ADD MLOAD SWAP3 POP DUP6 DUP3 SUB DUP2 DUP8 ADD MSTORE POP PUSH3 0xC8E DUP2 DUP4 PUSH3 0xAE8 JUMP JUMPDEST SWAP7 DUP10 ADD SWAP7 SWAP5 POP POP POP SWAP1 DUP7 ADD SWAP1 PUSH1 0x1 ADD PUSH3 0xB3D JUMP JUMPDEST POP SWAP1 SWAP9 SWAP8 POP POP POP POP POP POP POP POP JUMP JUMPDEST PUSH1 0x20 DUP2 MSTORE PUSH1 0x0 PUSH3 0x5AE PUSH1 0x20 DUP4 ADD DUP5 PUSH3 0xAE8 JUMP JUMPDEST PUSH1 0x0 PUSH1 0x20 DUP3 DUP5 SUB SLT ISZERO PUSH3 0xCD9 JUMPI PUSH1 0x0 DUP1 REVERT JUMPDEST DUP2 CALLDATALOAD PUSH8 0xFFFFFFFFFFFFFFFF DUP2 GT ISZERO PUSH3 0xCF1 JUMPI PUSH1 0x0 DUP1 REVERT JUMPDEST DUP3 ADD PUSH2 0x1A0 DUP2 DUP6 SUB SLT ISZERO PUSH3 0x5AE JUMPI PUSH1 0x0 DUP1 REVERT JUMPDEST PUSH1 0x1 PUSH1 0x1 PUSH1 0xA0 SHL SUB DUP2 AND DUP2 EQ PUSH3 0x887 JUMPI PUSH1 0x0 DUP1 REVERT JUMPDEST PUSH1 0x0 PUSH1 0x20 DUP3 DUP5 SUB SLT ISZERO PUSH3 0xD2E JUMPI PUSH1 0x0 DUP1 REVERT JUMPDEST DUP2 CALLDATALOAD PUSH3 0x5AE DUP2 PUSH3 0xD05 JUMP JUMPDEST PUSH1 0x1 DUP2 DUP2 SHR SWAP1 DUP3 AND DUP1 PUSH3 0xD50 JUMPI PUSH1 0x7F DUP3 AND SWAP2 POP JUMPDEST PUSH1 0x20 DUP3 LT DUP2 SUB PUSH3 0xD71 JUMPI PUSH4 0x4E487B71 PUSH1 0xE0 SHL PUSH1 0x0 MSTORE PUSH1 0x22 PUSH1 0x4 MSTORE PUSH1 0x24 PUSH1 0x0 REVERT JUMPDEST POP SWAP2 SWAP1 POP JUMP JUMPDEST PUSH1 0x1F DUP3 GT ISZERO PUSH3 0xDC5 JUMPI PUSH1 0x0 DUP2 DUP2 MSTORE PUSH1 0x20 DUP2 KECCAK256 PUSH1 0x1F DUP6 ADD PUSH1 0x5 SHR DUP2 ADD PUSH1 0x20 DUP7 LT ISZERO PUSH3 0xDA0 JUMPI POP DUP1 JUMPDEST PUSH1 0x1F DUP6 ADD PUSH1 0x5 SHR DUP3 ADD SWAP2 POP JUMPDEST DUP2 DUP2 LT ISZERO PUSH3 0xDC1 JUMPI DUP3 DUP2 SSTORE PUSH1 0x1 ADD PUSH3 0xDAC JUMP JUMPDEST POP POP POP JUMPDEST POP POP POP JUMP JUMPDEST DUP2 MLOAD PUSH8 0xFFFFFFFFFFFFFFFF DUP2 GT ISZERO PUSH3 0xDE7 JUMPI PUSH3 0xDE7 PUSH3 0x951 JUMP JUMPDEST PUSH3 0xDFF DUP2 PUSH3 0xDF8 DUP5 SLOAD PUSH3 0xD3B JUMP JUMPDEST DUP5 PUSH3 0xD77 JUMP JUMPDEST PUSH1 0x20 DUP1 PUSH1 0x1F DUP4 GT PUSH1 0x1 DUP2 EQ PUSH3 0xE37 JUMPI PUSH1 0x0 DUP5 ISZERO PUSH3 0xE1E JUMPI POP DUP6 DUP4 ADD MLOAD JUMPDEST PUSH1 0x0 NOT PUSH1 0x3 DUP7 SWAP1 SHL SHR NOT AND PUSH1 0x1 DUP6 SWAP1 SHL OR DUP6 SSTORE PUSH3 0xDC1 JUMP JUMPDEST PUSH1 0x0 DUP6 DUP2 MSTORE PUSH1 0x20 DUP2 KECCAK256 PUSH1 0x1F NOT DUP7 AND SWAP2 JUMPDEST DUP3 DUP2 LT ISZERO PUSH3 0xE68 JUMPI DUP9 DUP7 ADD MLOAD DUP3 SSTORE SWAP5 DUP5 ADD SWAP5 PUSH1 0x1 SWAP1 SWAP2 ADD SWAP1 DUP5 ADD PUSH3 0xE47 JUMP JUMPDEST POP DUP6 DUP3 LT ISZERO PUSH3 0xE87 JUMPI DUP8 DUP6 ADD MLOAD PUSH1 0x0 NOT PUSH1 0x3 DUP9 SWAP1 SHL PUSH1 0xF8 AND SHR NOT AND DUP2 SSTORE JUMPDEST POP POP POP POP POP PUSH1 0x1 SWAP1 DUP2 SHL ADD SWAP1 SSTORE POP JUMP JUMPDEST PUSH4 0x4E487B71 PUSH1 0xE0 SHL PUSH1 0x0 MSTORE PUSH1 0x11 PUSH1 0x4 MSTORE PUSH1 0x24 PUSH1 0x0 REVERT JUMPDEST DUP2 DUP2 SUB DUP2 DUP2 GT ISZERO PUSH3 0xEC3 JUMPI PUSH3 0xEC3 PUSH3 0xE97 JUMP JUMPDEST SWAP3 SWAP2 POP POP JUMP JUMPDEST PUSH4 0x4E487B71 PUSH1 0xE0 SHL PUSH1 0x0 MSTORE PUSH1 0x32 PUSH1 0x4 MSTORE PUSH1 0x24 PUSH1 0x0 REVERT JUMPDEST DUP1 MLOAD PUSH3 0xEEC DUP2 PUSH3 0xD05 JUMP JUMPDEST SWAP2 SWAP1 POP JUMP JUMPDEST DUP1 ISZERO ISZERO DUP2 EQ PUSH3 0x887 JUMPI PUSH1 0x0 DUP1 REVERT JUMPDEST DUP1 MLOAD PUSH3 0xEEC DUP2 PUSH3 0xEF1 JUMP JUMPDEST PUSH4 0xFFFFFFFF DUP2 AND DUP2 EQ PUSH3 0x887 JUMPI PUSH1 0x0 DUP1 REVERT JUMPDEST DUP1 MLOAD PUSH3 0xEEC DUP2 PUSH3 0xF0D JUMP JUMPDEST PUSH1 0x0 DUP3 PUSH1 0x1F DUP4 ADD SLT PUSH3 0xF3F JUMPI PUSH1 0x0 DUP1 REVERT JUMPDEST DUP2 MLOAD PUSH3 0xF50 PUSH3 0xA41 DUP3 PUSH3 0x9C8 JUMP JUMPDEST DUP2 DUP2 MSTORE DUP5 PUSH1 0x20 DUP4 DUP7 ADD ADD GT ISZERO PUSH3 0xF66 JUMPI PUSH1 0x0 DUP1 REVERT JUMPDEST PUSH3 0xF79 DUP3 PUSH1 0x20 DUP4 ADD PUSH1 0x20 DUP8 ADD PUSH3 0xAC2 JUMP JUMPDEST SWAP5 SWAP4 POP POP POP POP JUMP JUMPDEST PUSH1 0x0 PUSH1 0x20 DUP3 DUP5 SUB SLT ISZERO PUSH3 0xF94 JUMPI PUSH1 0x0 DUP1 REVERT JUMPDEST DUP2 MLOAD PUSH8 0xFFFFFFFFFFFFFFFF DUP1 DUP3 GT ISZERO PUSH3 0xFAD JUMPI PUSH1 0x0 DUP1 REVERT JUMPDEST SWAP1 DUP4 ADD SWAP1 PUSH2 0x260 DUP3 DUP7 SUB SLT ISZERO PUSH3 0xFC3 JUMPI PUSH1 0x0 DUP1 REVERT JUMPDEST PUSH3 0xFCD PUSH3 0x967 JUMP JUMPDEST PUSH3 0xFD8 DUP4 PUSH3 0xEDF JUMP JUMPDEST DUP2 MSTORE PUSH3 0xFE8 PUSH1 0x20 DUP5 ADD PUSH3 0xEDF JUMP JUMPDEST PUSH1 0x20 DUP3 ADD MSTORE PUSH3 0xFFB PUSH1 0x40 DUP5 ADD PUSH3 0xF00 JUMP JUMPDEST PUSH1 0x40 DUP3 ADD MSTORE PUSH3 0x100E PUSH1 0x60 DUP5 ADD PUSH3 0xF00 JUMP JUMPDEST PUSH1 0x60 DUP3 ADD MSTORE PUSH3 0x1021 PUSH1 0x80 DUP5 ADD PUSH3 0xF00 JUMP JUMPDEST PUSH1 0x80 DUP3 ADD MSTORE PUSH3 0x1034 PUSH1 0xA0 DUP5 ADD PUSH3 0xF00 JUMP JUMPDEST PUSH1 0xA0 DUP3 ADD MSTORE PUSH3 0x1047 PUSH1 0xC0 DUP5 ADD PUSH3 0xF20 JUMP JUMPDEST PUSH1 0xC0 DUP3 ADD MSTORE PUSH1 0xE0 DUP4 DUP2 ADD MLOAD SWAP1 DUP3 ADD MSTORE PUSH2 0x100 DUP1 DUP5 ADD MLOAD SWAP1 DUP3 ADD MSTORE PUSH2 0x120 DUP1 DUP5 ADD MLOAD SWAP1 DUP3 ADD MSTORE PUSH2 0x140 DUP1 DUP5 ADD MLOAD SWAP1 DUP3 ADD MSTORE PUSH2 0x160 DUP1 DUP5 ADD MLOAD SWAP1 DUP3 ADD MSTORE PUSH2 0x180 DUP1 DUP5 ADD MLOAD SWAP1 DUP3 ADD MSTORE PUSH2 0x1A0 DUP1 DUP5 ADD MLOAD SWAP1 DUP3 ADD MSTORE PUSH2 0x1C0 DUP1 DUP5 ADD MLOAD DUP4 DUP2 GT ISZERO PUSH3 0x10AD JUMPI PUSH1 0x0 DUP1 REVERT JUMPDEST PUSH3 0x10BB DUP9 DUP3 DUP8 ADD PUSH3 0xF2D JUMP JUMPDEST DUP3 DUP5 ADD MSTORE POP POP PUSH2 0x1E0 DUP1 DUP5 ADD MLOAD DUP4 DUP2 GT ISZERO PUSH3 0x10D6 JUMPI PUSH1 0x0 DUP1 REVERT JUMPDEST PUSH3 0x10E4 DUP9 DUP3 DUP8 ADD PUSH3 0xF2D JUMP JUMPDEST DUP3 DUP5 ADD MSTORE POP POP PUSH2 0x200 DUP1 DUP5 ADD MLOAD DUP4 DUP2 GT ISZERO PUSH3 0x10FF JUMPI PUSH1 0x0 DUP1 REVERT JUMPDEST PUSH3 0x110D DUP9 DUP3 DUP8 ADD PUSH3 0xF2D JUMP JUMPDEST DUP3 DUP5 ADD MSTORE POP POP PUSH2 0x220 DUP1 DUP5 ADD MLOAD DUP4 DUP2 GT ISZERO PUSH3 0x1128 JUMPI PUSH1 0x0 DUP1 REVERT JUMPDEST PUSH3 0x1136 DUP9 DUP3 DUP8 ADD PUSH3 0xF2D JUMP JUMPDEST DUP3 DUP5 ADD MSTORE POP POP PUSH2 0x240 DUP1 DUP5 ADD MLOAD DUP4 DUP2 GT ISZERO PUSH3 0x1151 JUMPI PUSH1 0x0 DUP1 REVERT JUMPDEST PUSH3 0x115F DUP9 DUP3 DUP8 ADD PUSH3 0xF2D JUMP JUMPDEST SWAP2 DUP4 ADD SWAP2 SWAP1 SWAP2 MSTORE POP SWAP6 SWAP5 POP POP POP POP POP JUMP JUMPDEST PUSH1 0x0 DUP2 PUSH3 0x1182 JUMPI PUSH3 0x1182 PUSH3 0xE97 JUMP JUMPDEST POP PUSH1 0x0 NOT ADD SWAP1 JUMP JUMPDEST DUP1 CALLDATALOAD PUSH3 0xEEC DUP2 PUSH3 0xF0D JUMP JUMPDEST PUSH1 0x0 DUP1 DUP4 CALLDATALOAD PUSH1 0x1E NOT DUP5 CALLDATASIZE SUB ADD DUP2 SLT PUSH3 0x11AF JUMPI PUSH1 0x0 DUP1 REVERT JUMPDEST DUP4 ADD PUSH1 0x20 DUP2 ADD SWAP3 POP CALLDATALOAD SWAP1 POP PUSH8 0xFFFFFFFFFFFFFFFF DUP2 GT ISZERO PUSH3 0x11D0 JUMPI PUSH1 0x0 DUP1 REVERT JUMPDEST DUP1 CALLDATASIZE SUB DUP3 SGT ISZERO PUSH3 0x11E0 JUMPI PUSH1 0x0 DUP1 REVERT JUMPDEST SWAP3 POP SWAP3 SWAP1 POP JUMP JUMPDEST DUP2 DUP4 MSTORE DUP2 DUP2 PUSH1 0x20 DUP6 ADD CALLDATACOPY POP PUSH1 0x0 DUP3 DUP3 ADD PUSH1 0x20 SWAP1 DUP2 ADD SWAP2 SWAP1 SWAP2 MSTORE PUSH1 0x1F SWAP1 SWAP2 ADD PUSH1 0x1F NOT AND SWAP1 SWAP2 ADD ADD SWAP1 JUMP JUMPDEST DUP1 CALLDATALOAD PUSH3 0xEEC DUP2 PUSH3 0xEF1 JUMP JUMPDEST PUSH1 0x60 DUP2 MSTORE PUSH3 0x123E PUSH1 0x60 DUP3 ADD PUSH3 0x1234 DUP7 PUSH3 0x118A JUMP JUMPDEST PUSH4 0xFFFFFFFF AND SWAP1 MSTORE JUMP JUMPDEST PUSH1 0x20 DUP5 ADD CALLDATALOAD PUSH1 0x80 DUP3 ADD MSTORE PUSH1 0x40 DUP5 ADD CALLDATALOAD PUSH1 0xA0 DUP3 ADD MSTORE PUSH1 0x60 DUP5 ADD CALLDATALOAD PUSH1 0xC0 DUP3 ADD MSTORE PUSH1 0x80 DUP5 ADD CALLDATALOAD PUSH1 0xE0 DUP3 ADD MSTORE PUSH1 0x0 PUSH2 0x100 PUSH1 0xA0 DUP7 ADD CALLDATALOAD DUP2 DUP5 ADD MSTORE PUSH3 0x1283 PUSH1 0xC0 DUP8 ADD DUP8 PUSH3 0x1197 JUMP JUMPDEST PUSH2 0x1A0 PUSH2 0x120 DUP2 DUP2 DUP9 ADD MSTORE PUSH3 0x129F PUSH2 0x200 DUP9 ADD DUP5 DUP7 PUSH3 0x11E7 JUMP JUMPDEST SWAP4 POP PUSH3 0x12B0 PUSH1 0xE0 DUP12 ADD DUP12 PUSH3 0x1197 JUMP JUMPDEST SWAP4 POP PUSH1 0x5F NOT PUSH2 0x140 DUP2 DUP11 DUP9 SUB ADD DUP2 DUP12 ADD MSTORE PUSH3 0x12CE DUP8 DUP8 DUP6 PUSH3 0x11E7 JUMP JUMPDEST SWAP7 POP PUSH3 0x12DE DUP9 DUP15 ADD DUP15 PUSH3 0x1197 JUMP JUMPDEST SWAP9 POP SWAP6 POP PUSH2 0x160 SWAP3 POP DUP2 DUP11 DUP9 SUB ADD DUP4 DUP12 ADD MSTORE PUSH3 0x12FD DUP8 DUP10 DUP9 PUSH3 0x11E7 JUMP JUMPDEST SWAP8 POP PUSH3 0x130D DUP5 DUP15 ADD DUP15 PUSH3 0x1197 JUMP JUMPDEST SWAP8 POP SWAP6 POP PUSH2 0x180 SWAP4 POP DUP2 DUP11 DUP10 SUB ADD DUP5 DUP12 ADD MSTORE PUSH3 0x132C DUP9 DUP9 DUP9 PUSH3 0x11E7 JUMP JUMPDEST SWAP8 POP PUSH3 0x133C DUP2 DUP15 ADD DUP15 PUSH3 0x1197 JUMP JUMPDEST SWAP8 POP SWAP6 POP POP DUP1 DUP10 DUP9 SUB ADD DUP5 DUP11 ADD MSTORE POP PUSH3 0x1358 DUP7 DUP7 DUP7 PUSH3 0x11E7 JUMP JUMPDEST SWAP6 POP PUSH3 0x1367 DUP2 DUP13 ADD PUSH3 0x1210 JUMP JUMPDEST SWAP5 POP POP PUSH3 0x137A PUSH2 0x1C0 DUP9 ADD DUP6 ISZERO ISZERO SWAP1 MSTORE JUMP JUMPDEST PUSH3 0x1387 DUP2 DUP12 ADD PUSH3 0x1210 JUMP JUMPDEST SWAP4 POP POP POP POP PUSH3 0x139C PUSH2 0x1E0 DUP6 ADD DUP3 ISZERO ISZERO SWAP1 MSTORE JUMP JUMPDEST POP PUSH1 0x1 PUSH1 0x1 PUSH1 0xA0 SHL SUB DUP6 AND PUSH1 0x20 DUP5 ADD MSTORE SWAP1 POP PUSH1 0xFF DUP4 AND PUSH1 0x40 DUP4 ADD MSTORE PUSH3 0xF79 JUMP INVALID PUSH1 0x80 PUSH1 0x40 MSTORE PUSH1 0x7 DUP1 SLOAD PUSH2 0xFF00 NOT AND PUSH2 0x100 OR SWAP1 SSTORE PUSH32 0x16D95910A21726A3E7B59A8C6166B355396434419809CB902E2063555B8D60DE PUSH1 0x10 SSTORE CALLVALUE DUP1 ISZERO PUSH3 0x44 JUMPI PUSH1 0x0 DUP1 REVERT JUMPDEST POP PUSH1 0x40 MLOAD PUSH3 0x3141 CODESIZE SUB DUP1 PUSH3 0x3141 DUP4 CODECOPY DUP2 ADD PUSH1 0x40 DUP2 SWAP1 MSTORE PUSH3 0x67 SWAP2 PUSH3 0x49F JUMP JUMPDEST PUSH1 0xC0 DUP4 ADD MLOAD PUSH1 0x40 DUP1 MLOAD DUP1 DUP3 ADD SWAP1 SWAP2 MSTORE PUSH1 0x4 DUP2 MSTORE PUSH4 0x21A922AB PUSH1 0xE1 SHL PUSH1 0x20 DUP3 ADD MSTORE PUSH3 0x92 CALLER PUSH3 0x217 JUMP JUMPDEST PUSH1 0x3 PUSH3 0xA0 DUP4 DUP3 PUSH3 0x6DD JUMP JUMPDEST POP PUSH1 0x4 PUSH3 0xAF DUP3 DUP3 PUSH3 0x6DD JUMP JUMPDEST POP PUSH1 0x1 DUP1 SSTORE POP POP PUSH1 0x40 DUP4 ADD MLOAD ISZERO DUP1 PUSH3 0xCA JUMPI POP PUSH1 0x60 DUP4 ADD MLOAD ISZERO JUMPDEST ISZERO PUSH3 0xE9 JUMPI PUSH1 0x40 MLOAD PUSH4 0x9686781 PUSH1 0xE1 SHL DUP2 MSTORE PUSH1 0x4 ADD PUSH1 0x40 MLOAD DUP1 SWAP2 SUB SWAP1 REVERT JUMPDEST PUSH2 0x140 DUP4 ADD MLOAD PUSH1 0x11 SWAP1 PUSH3 0xFE SWAP1 DUP3 PUSH3 0x6DD JUMP JUMPDEST POP PUSH1 0xE0 DUP4 ADD MLOAD PUSH1 0x12 SWAP1 PUSH3 0x113 SWAP1 DUP3 PUSH3 0x6DD JUMP JUMPDEST POP PUSH2 0x100 DUP4 ADD MLOAD PUSH1 0x13 SWAP1 PUSH3 0x129 SWAP1 DUP3 PUSH3 0x6DD JUMP JUMPDEST POP DUP3 MLOAD PUSH1 0x7 DUP1 SLOAD PUSH4 0xFFFFFFFF SWAP1 SWAP3 AND PUSH3 0x10000 MUL PUSH6 0xFFFFFFFF0000 NOT SWAP1 SWAP3 AND SWAP2 SWAP1 SWAP2 OR SWAP1 SSTORE PUSH1 0x40 DUP4 ADD MLOAD PUSH1 0x9 SSTORE PUSH1 0x60 DUP4 ADD MLOAD PUSH1 0xA SSTORE PUSH1 0x80 DUP4 ADD MLOAD PUSH1 0xD SSTORE PUSH1 0xA0 DUP4 ADD MLOAD PUSH1 0xE SSTORE PUSH2 0x120 DUP4 ADD MLOAD PUSH1 0x14 SWAP1 PUSH3 0x183 SWAP1 DUP3 PUSH3 0x6DD JUMP JUMPDEST POP PUSH2 0x160 DUP4 ADD MLOAD PUSH1 0x7 DUP1 SLOAD PUSH2 0x180 DUP7 ADD MLOAD ISZERO ISZERO PUSH1 0xFF NOT SWAP4 ISZERO ISZERO PUSH2 0x100 MUL SWAP4 SWAP1 SWAP4 AND PUSH2 0xFFFF NOT SWAP1 SWAP2 AND OR SWAP2 SWAP1 SWAP2 OR SWAP1 SSTORE PUSH1 0x20 DUP4 ADD MLOAD PUSH1 0x0 SUB PUSH3 0x1CD JUMPI PUSH1 0x40 DUP4 ADD MLOAD PUSH1 0x8 SSTORE PUSH3 0x1D6 JUMP JUMPDEST PUSH1 0x20 DUP4 ADD MLOAD PUSH1 0x8 SSTORE JUMPDEST PUSH1 0x7 DUP1 SLOAD PUSH1 0x1 PUSH1 0x30 SHL PUSH1 0x1 PUSH1 0xD0 SHL SUB NOT AND CALLER PUSH7 0x1000000000000 MUL OR SWAP1 SSTORE PUSH1 0xF DUP1 SLOAD PUSH1 0xFF NOT AND PUSH1 0xFF DUP4 AND OR SWAP1 SSTORE PUSH3 0x20E DUP3 PUSH3 0x267 JUMP JUMPDEST POP POP POP PUSH3 0x7A9 JUMP JUMPDEST PUSH1 0x0 DUP1 SLOAD PUSH1 0x1 PUSH1 0x1 PUSH1 0xA0 SHL SUB DUP4 DUP2 AND PUSH1 0x1 PUSH1 0x1 PUSH1 0xA0 SHL SUB NOT DUP4 AND DUP2 OR DUP5 SSTORE PUSH1 0x40 MLOAD SWAP2 SWAP1 SWAP3 AND SWAP3 DUP4 SWAP2 PUSH32 0x8BE0079C531659141344CD1FD0A4F28419497F9722A3DAAFE3B4186F6B6457E0 SWAP2 SWAP1 LOG3 POP POP JUMP JUMPDEST PUSH3 0x271 PUSH3 0x2EA JUMP JUMPDEST PUSH1 0x1 PUSH1 0x1 PUSH1 0xA0 SHL SUB DUP2 AND PUSH3 0x2DC JUMPI PUSH1 0x40 MLOAD PUSH3 0x461BCD PUSH1 0xE5 SHL DUP2 MSTORE PUSH1 0x20 PUSH1 0x4 DUP3 ADD MSTORE PUSH1 0x26 PUSH1 0x24 DUP3 ADD MSTORE PUSH32 0x4F776E61626C653A206E6577206F776E657220697320746865207A65726F2061 PUSH1 0x44 DUP3 ADD MSTORE PUSH6 0x646472657373 PUSH1 0xD0 SHL PUSH1 0x64 DUP3 ADD MSTORE PUSH1 0x84 ADD JUMPDEST PUSH1 0x40 MLOAD DUP1 SWAP2 SUB SWAP1 REVERT JUMPDEST PUSH3 0x2E7 DUP2 PUSH3 0x217 JUMP JUMPDEST POP JUMP JUMPDEST PUSH1 0x0 SLOAD PUSH1 0x1 PUSH1 0x1 PUSH1 0xA0 SHL SUB AND CALLER EQ PUSH3 0x346 JUMPI PUSH1 0x40 MLOAD PUSH3 0x461BCD PUSH1 0xE5 SHL DUP2 MSTORE PUSH1 0x20 PUSH1 0x4 DUP3 ADD DUP2 SWAP1 MSTORE PUSH1 0x24 DUP3 ADD MSTORE PUSH32 0x4F776E61626C653A2063616C6C6572206973206E6F7420746865206F776E6572 PUSH1 0x44 DUP3 ADD MSTORE PUSH1 0x64 ADD PUSH3 0x2D3 JUMP JUMPDEST JUMP JUMPDEST PUSH4 0x4E487B71 PUSH1 0xE0 SHL PUSH1 0x0 MSTORE PUSH1 0x41 PUSH1 0x4 MSTORE PUSH1 0x24 PUSH1 0x0 REVERT JUMPDEST PUSH1 0x40 MLOAD PUSH2 0x1A0 DUP2 ADD PUSH1 0x1 PUSH1 0x1 PUSH1 0x40 SHL SUB DUP2 GT DUP3 DUP3 LT OR ISZERO PUSH3 0x384 JUMPI PUSH3 0x384 PUSH3 0x348 JUMP JUMPDEST PUSH1 0x40 MSTORE SWAP1 JUMP JUMPDEST PUSH1 0x40 MLOAD PUSH1 0x1F DUP3 ADD PUSH1 0x1F NOT AND DUP2 ADD PUSH1 0x1 PUSH1 0x1 PUSH1 0x40 SHL SUB DUP2 GT DUP3 DUP3 LT OR ISZERO PUSH3 0x3B5 JUMPI PUSH3 0x3B5 PUSH3 0x348 JUMP JUMPDEST PUSH1 0x40 MSTORE SWAP2 SWAP1 POP JUMP JUMPDEST DUP1 MLOAD PUSH4 0xFFFFFFFF DUP2 AND DUP2 EQ PUSH3 0x3D2 JUMPI PUSH1 0x0 DUP1 REVERT JUMPDEST SWAP2 SWAP1 POP JUMP JUMPDEST PUSH1 0x0 DUP3 PUSH1 0x1F DUP4 ADD SLT PUSH3 0x3E9 JUMPI PUSH1 0x0 DUP1 REVERT JUMPDEST DUP2 MLOAD PUSH1 0x1 PUSH1 0x1 PUSH1 0x40 SHL SUB DUP2 GT ISZERO PUSH3 0x405 JUMPI PUSH3 0x405 PUSH3 0x348 JUMP JUMPDEST PUSH1 0x20 PUSH3 0x41B PUSH1 0x1F DUP4 ADD PUSH1 0x1F NOT AND DUP3 ADD PUSH3 0x38A JUMP JUMPDEST DUP3 DUP2 MSTORE DUP6 DUP3 DUP5 DUP8 ADD ADD GT ISZERO PUSH3 0x430 JUMPI PUSH1 0x0 DUP1 REVERT JUMPDEST PUSH1 0x0 JUMPDEST DUP4 DUP2 LT ISZERO PUSH3 0x450 JUMPI DUP6 DUP2 ADD DUP4 ADD MLOAD DUP3 DUP3 ADD DUP5 ADD MSTORE DUP3 ADD PUSH3 0x433 JUMP JUMPDEST POP PUSH1 0x0 SWAP3 DUP2 ADD SWAP1 SWAP2 ADD SWAP2 SWAP1 SWAP2 MSTORE SWAP4 SWAP3 POP POP POP JUMP JUMPDEST DUP1 MLOAD DUP1 ISZERO ISZERO DUP2 EQ PUSH3 0x3D2 JUMPI PUSH1 0x0 DUP1 REVERT JUMPDEST DUP1 MLOAD PUSH1 0x1 PUSH1 0x1 PUSH1 0xA0 SHL SUB DUP2 AND DUP2 EQ PUSH3 0x3D2 JUMPI PUSH1 0x0 DUP1 REVERT JUMPDEST DUP1 MLOAD PUSH1 0xFF DUP2 AND DUP2 EQ PUSH3 0x3D2 JUMPI PUSH1 0x0 DUP1 REVERT JUMPDEST PUSH1 0x0 DUP1 PUSH1 0x0 PUSH1 0x60 DUP5 DUP7 SUB SLT ISZERO PUSH3 0x4B5 JUMPI PUSH1 0x0 DUP1 REVERT JUMPDEST DUP4 MLOAD PUSH1 0x1 PUSH1 0x1 PUSH1 0x40 SHL SUB DUP1 DUP3 GT ISZERO PUSH3 0x4CD JUMPI PUSH1 0x0 DUP1 REVERT JUMPDEST SWAP1 DUP6 ADD SWAP1 PUSH2 0x1A0 DUP3 DUP9 SUB SLT ISZERO PUSH3 0x4E3 JUMPI PUSH1 0x0 DUP1 REVERT JUMPDEST PUSH3 0x4ED PUSH3 0x35E JUMP JUMPDEST PUSH3 0x4F8 DUP4 PUSH3 0x3BD JUMP JUMPDEST DUP2 MSTORE PUSH1 0x20 DUP4 ADD MLOAD PUSH1 0x20 DUP3 ADD MSTORE PUSH1 0x40 DUP4 ADD MLOAD PUSH1 0x40 DUP3 ADD MSTORE PUSH1 0x60 DUP4 ADD MLOAD PUSH1 0x60 DUP3 ADD MSTORE PUSH1 0x80 DUP4 ADD MLOAD PUSH1 0x80 DUP3 ADD MSTORE PUSH1 0xA0 DUP4 ADD MLOAD PUSH1 0xA0 DUP3 ADD MSTORE PUSH1 0xC0 DUP4 ADD MLOAD DUP3 DUP2 GT ISZERO PUSH3 0x53F JUMPI PUSH1 0x0 DUP1 REVERT JUMPDEST PUSH3 0x54D DUP10 DUP3 DUP7 ADD PUSH3 0x3D7 JUMP JUMPDEST PUSH1 0xC0 DUP4 ADD MSTORE POP PUSH1 0xE0 DUP4 ADD MLOAD DUP3 DUP2 GT ISZERO PUSH3 0x566 JUMPI PUSH1 0x0 DUP1 REVERT JUMPDEST PUSH3 0x574 DUP10 DUP3 DUP7 ADD PUSH3 0x3D7 JUMP JUMPDEST PUSH1 0xE0 DUP4 ADD MSTORE POP PUSH2 0x100 DUP1 DUP5 ADD MLOAD DUP4 DUP2 GT ISZERO PUSH3 0x58F JUMPI PUSH1 0x0 DUP1 REVERT JUMPDEST PUSH3 0x59D DUP11 DUP3 DUP8 ADD PUSH3 0x3D7 JUMP JUMPDEST DUP3 DUP5 ADD MSTORE POP POP PUSH2 0x120 DUP1 DUP5 ADD MLOAD DUP4 DUP2 GT ISZERO PUSH3 0x5B8 JUMPI PUSH1 0x0 DUP1 REVERT JUMPDEST PUSH3 0x5C6 DUP11 DUP3 DUP8 ADD PUSH3 0x3D7 JUMP JUMPDEST DUP3 DUP5 ADD MSTORE POP POP PUSH2 0x140 DUP1 DUP5 ADD MLOAD DUP4 DUP2 GT ISZERO PUSH3 0x5E1 JUMPI PUSH1 0x0 DUP1 REVERT JUMPDEST PUSH3 0x5EF DUP11 DUP3 DUP8 ADD PUSH3 0x3D7 JUMP JUMPDEST DUP3 DUP5 ADD MSTORE POP POP PUSH2 0x160 SWAP2 POP PUSH3 0x607 DUP3 DUP5 ADD PUSH3 0x464 JUMP JUMPDEST DUP3 DUP3 ADD MSTORE PUSH2 0x180 SWAP2 POP PUSH3 0x61D DUP3 DUP5 ADD PUSH3 0x464 JUMP JUMPDEST DUP3 DUP3 ADD MSTORE DUP1 SWAP6 POP POP POP POP PUSH3 0x635 PUSH1 0x20 DUP6 ADD PUSH3 0x475 JUMP JUMPDEST SWAP2 POP PUSH3 0x645 PUSH1 0x40 DUP6 ADD PUSH3 0x48D JUMP JUMPDEST SWAP1 POP SWAP3 POP SWAP3 POP SWAP3 JUMP JUMPDEST PUSH1 0x1 DUP2 DUP2 SHR SWAP1 DUP3 AND DUP1 PUSH3 0x663 JUMPI PUSH1 0x7F DUP3 AND SWAP2 POP JUMPDEST PUSH1 0x20 DUP3 LT DUP2 SUB PUSH3 0x684 JUMPI PUSH4 0x4E487B71 PUSH1 0xE0 SHL PUSH1 0x0 MSTORE PUSH1 0x22 PUSH1 0x4 MSTORE PUSH1 0x24 PUSH1 0x0 REVERT JUMPDEST POP SWAP2 SWAP1 POP JUMP JUMPDEST PUSH1 0x1F DUP3 GT ISZERO PUSH3 0x6D8 JUMPI PUSH1 0x0 DUP2 DUP2 MSTORE PUSH1 0x20 DUP2 KECCAK256 PUSH1 0x1F DUP6 ADD PUSH1 0x5 SHR DUP2 ADD PUSH1 0x20 DUP7 LT ISZERO PUSH3 0x6B3 JUMPI POP DUP1 JUMPDEST PUSH1 0x1F DUP6 ADD PUSH1 0x5 SHR DUP3 ADD SWAP2 POP JUMPDEST DUP2 DUP2 LT ISZERO PUSH3 0x6D4 JUMPI DUP3 DUP2 SSTORE PUSH1 0x1 ADD PUSH3 0x6BF JUMP JUMPDEST POP POP POP JUMPDEST POP POP POP JUMP JUMPDEST DUP2 MLOAD PUSH1 0x1 PUSH1 0x1 PUSH1 0x40 SHL SUB DUP2 GT ISZERO PUSH3 0x6F9 JUMPI PUSH3 0x6F9 PUSH3 0x348 JUMP JUMPDEST PUSH3 0x711 DUP2 PUSH3 0x70A DUP5 SLOAD PUSH3 0x64E JUMP JUMPDEST DUP5 PUSH3 0x68A JUMP JUMPDEST PUSH1 0x20 DUP1 PUSH1 0x1F DUP4 GT PUSH1 0x1 DUP2 EQ PUSH3 0x749 JUMPI PUSH1 0x0 DUP5 ISZERO PUSH3 0x730 JUMPI POP DUP6 DUP4 ADD MLOAD JUMPDEST PUSH1 0x0 NOT PUSH1 0x3 DUP7 SWAP1 SHL SHR NOT AND PUSH1 0x1 DUP6 SWAP1 SHL OR DUP6 SSTORE PUSH3 0x6D4 JUMP JUMPDEST PUSH1 0x0 DUP6 DUP2 MSTORE PUSH1 0x20 DUP2 KECCAK256 PUSH1 0x1F NOT DUP7 AND SWAP2 JUMPDEST DUP3 DUP2 LT ISZERO PUSH3 0x77A JUMPI DUP9 DUP7 ADD MLOAD DUP3 SSTORE SWAP5 DUP5 ADD SWAP5 PUSH1 0x1 SWAP1 SWAP2 ADD SWAP1 DUP5 ADD PUSH3 0x759 JUMP JUMPDEST POP DUP6 DUP3 LT ISZERO PUSH3 0x799 JUMPI DUP8 DUP6 ADD MLOAD PUSH1 0x0 NOT PUSH1 0x3 DUP9 SWAP1 SHL PUSH1 0xF8 AND SHR NOT AND DUP2 SSTORE JUMPDEST POP POP POP POP POP PUSH1 0x1 SWAP1 DUP2 SHL ADD SWAP1 SSTORE POP JUMP JUMPDEST PUSH2 0x2988 DUP1 PUSH3 0x7B9 PUSH1 0x0 CODECOPY PUSH1 0x0 RETURN INVALID PUSH1 0x80 PUSH1 0x40 MSTORE PUSH1 0x4 CALLDATASIZE LT PUSH2 0x2BA JUMPI PUSH1 0x0 CALLDATALOAD PUSH1 0xE0 SHR DUP1 PUSH4 0x7284E416 GT PUSH2 0x16E JUMPI DUP1 PUSH4 0xC6A7CBC9 GT PUSH2 0xCB JUMPI DUP1 PUSH4 0xEFBE1C1C GT PUSH2 0x7F JUMPI DUP1 PUSH4 0xF34094A7 GT PUSH2 0x64 JUMPI DUP1 PUSH4 0xF34094A7 EQ PUSH2 0x767 JUMPI DUP1 PUSH4 0xF3CCAAC0 EQ PUSH2 0x76F JUMPI DUP1 PUSH4 0xFE1E2F51 EQ PUSH2 0x784 JUMPI PUSH1 0x0 DUP1 REVERT JUMPDEST DUP1 PUSH4 0xEFBE1C1C EQ PUSH2 0x731 JUMPI DUP1 PUSH4 0xF2FDE38B EQ PUSH2 0x747 JUMPI PUSH1 0x0 DUP1 REVERT JUMPDEST DUP1 PUSH4 0xC87B56DD GT PUSH2 0xB0 JUMPI DUP1 PUSH4 0xC87B56DD EQ PUSH2 0x6D1 JUMPI DUP1 PUSH4 0xD9A59E33 EQ PUSH2 0x6F1 JUMPI DUP1 PUSH4 0xEAD12111 EQ PUSH2 0x711 JUMPI PUSH1 0x0 DUP1 REVERT JUMPDEST DUP1 PUSH4 0xC6A7CBC9 EQ PUSH2 0x697 JUMPI DUP1 PUSH4 0xC7CAC600 EQ PUSH2 0x6B7 JUMPI PUSH1 0x0 DUP1 REVERT JUMPDEST DUP1 PUSH4 0x8DA5CB5B GT PUSH2 0x122 JUMPI DUP1 PUSH4 0xBE9A6555 GT PUSH2 0x107 JUMPI DUP1 PUSH4 0xBE9A6555 EQ PUSH2 0x658 JUMPI DUP1 PUSH4 0xC025E686 EQ PUSH2 0x66E JUMPI DUP1 PUSH4 0xC4625BA3 EQ PUSH2 0x681 JUMPI PUSH1 0x0 DUP1 REVERT JUMPDEST DUP1 PUSH4 0x8DA5CB5B EQ PUSH2 0x625 JUMPI DUP1 PUSH4 0x95D89B41 EQ PUSH2 0x643 JUMPI PUSH1 0x0 DUP1 REVERT JUMPDEST DUP1 PUSH4 0x7DE33AEC GT PUSH2 0x153 JUMPI DUP1 PUSH4 0x7DE33AEC EQ PUSH2 0x5CF JUMPI DUP1 PUSH4 0x8121E42D EQ PUSH2 0x5E5 JUMPI DUP1 PUSH4 0x8818ED38 EQ PUSH2 0x5FB JUMPI PUSH1 0x0 DUP1 REVERT JUMPDEST DUP1 PUSH4 0x7284E416 EQ PUSH2 0x59B JUMPI DUP1 PUSH4 0x736F88CD EQ PUSH2 0x5B0 JUMPI PUSH1 0x0 DUP1 REVERT JUMPDEST DUP1 PUSH4 0x1D645B12 GT PUSH2 0x21C JUMPI DUP1 PUSH4 0x516F279E GT PUSH2 0x1D0 JUMPI DUP1 PUSH4 0x6352211E GT PUSH2 0x1B5 JUMPI DUP1 PUSH4 0x6352211E EQ PUSH2 0x52E JUMPI DUP1 PUSH4 0x70A08231 EQ PUSH2 0x566 JUMPI DUP1 PUSH4 0x715018A6 EQ PUSH2 0x586 JUMPI PUSH1 0x0 DUP1 REVERT JUMPDEST DUP1 PUSH4 0x516F279E EQ PUSH2 0x4F9 JUMPI DUP1 PUSH4 0x5B2A08EB EQ PUSH2 0x50E JUMPI PUSH1 0x0 DUP1 REVERT JUMPDEST DUP1 PUSH4 0x336DF106 GT PUSH2 0x201 JUMPI DUP1 PUSH4 0x336DF106 EQ PUSH2 0x4AC JUMPI DUP1 PUSH4 0x386BFC98 EQ PUSH2 0x4CE JUMPI DUP1 PUSH4 0x3CCFD60B EQ PUSH2 0x4E4 JUMPI PUSH1 0x0 DUP1 REVERT JUMPDEST DUP1 PUSH4 0x1D645B12 EQ PUSH2 0x447 JUMPI DUP1 PUSH4 0x24924BF7 EQ PUSH2 0x474 JUMPI PUSH1 0x0 DUP1 REVERT JUMPDEST DUP1 PUSH4 0x13446A75 GT PUSH2 0x273 JUMPI DUP1 PUSH4 0x158C6134 GT PUSH2 0x258 JUMPI DUP1 PUSH4 0x158C6134 EQ PUSH2 0x3DC JUMPI DUP1 PUSH4 0x18160DDD EQ PUSH2 0x415 JUMPI DUP1 PUSH4 0x1C4695F4 EQ PUSH2 0x432 JUMPI PUSH1 0x0 DUP1 REVERT JUMPDEST DUP1 PUSH4 0x13446A75 EQ PUSH2 0x396 JUMPI DUP1 PUSH4 0x14D0F1BA EQ PUSH2 0x3AC JUMPI PUSH1 0x0 DUP1 REVERT JUMPDEST DUP1 PUSH4 0x6FDDE03 GT PUSH2 0x2A4 JUMPI DUP1 PUSH4 0x6FDDE03 EQ PUSH2 0x320 JUMPI DUP1 PUSH4 0x9E69EDE EQ PUSH2 0x342 JUMPI DUP1 PUSH4 0x1209B1F6 EQ PUSH2 0x372 JUMPI PUSH1 0x0 DUP1 REVERT JUMPDEST DUP1 PUSH3 0xF4494F EQ PUSH2 0x2BF JUMPI DUP1 PUSH4 0x1FFC9A7 EQ PUSH2 0x2F0 JUMPI JUMPDEST PUSH1 0x0 DUP1 REVERT JUMPDEST CALLVALUE DUP1 ISZERO PUSH2 0x2CB JUMPI PUSH1 0x0 DUP1 REVERT JUMPDEST POP PUSH1 0xF SLOAD PUSH2 0x2D9 SWAP1 PUSH1 0xFF AND DUP2 JUMP JUMPDEST PUSH1 0x40 MLOAD PUSH1 0xFF SWAP1 SWAP2 AND DUP2 MSTORE PUSH1 0x20 ADD JUMPDEST PUSH1 0x40 MLOAD DUP1 SWAP2 SUB SWAP1 RETURN JUMPDEST CALLVALUE DUP1 ISZERO PUSH2 0x2FC JUMPI PUSH1 0x0 DUP1 REVERT JUMPDEST POP PUSH2 0x310 PUSH2 0x30B CALLDATASIZE PUSH1 0x4 PUSH2 0x20C8 JUMP JUMPDEST PUSH2 0x7B4 JUMP JUMPDEST PUSH1 0x40 MLOAD SWAP1 ISZERO ISZERO DUP2 MSTORE PUSH1 0x20 ADD PUSH2 0x2E7 JUMP JUMPDEST CALLVALUE DUP1 ISZERO PUSH2 0x32C JUMPI PUSH1 0x0 DUP1 REVERT JUMPDEST POP PUSH2 0x335 PUSH2 0x851 JUMP JUMPDEST PUSH1 0x40 MLOAD PUSH2 0x2E7 SWAP2 SWAP1 PUSH2 0x2135 JUMP JUMPDEST CALLVALUE DUP1 ISZERO PUSH2 0x34E JUMPI PUSH1 0x0 DUP1 REVERT JUMPDEST POP PUSH2 0x310 PUSH2 0x35D CALLDATASIZE PUSH1 0x4 PUSH2 0x2164 JUMP JUMPDEST PUSH1 0x15 PUSH1 0x20 MSTORE PUSH1 0x0 SWAP1 DUP2 MSTORE PUSH1 0x40 SWAP1 KECCAK256 SLOAD PUSH1 0xFF AND DUP2 JUMP JUMPDEST CALLVALUE DUP1 ISZERO PUSH2 0x37E JUMPI PUSH1 0x0 DUP1 REVERT JUMPDEST POP PUSH2 0x388 PUSH1 0xD SLOAD DUP2 JUMP JUMPDEST PUSH1 0x40 MLOAD SWAP1 DUP2 MSTORE PUSH1 0x20 ADD PUSH2 0x2E7 JUMP JUMPDEST CALLVALUE DUP1 ISZERO PUSH2 0x3A2 JUMPI PUSH1 0x0 DUP1 REVERT JUMPDEST POP PUSH2 0x388 PUSH1 0x8 SLOAD DUP2 JUMP JUMPDEST CALLVALUE DUP1 ISZERO PUSH2 0x3B8 JUMPI PUSH1 0x0 DUP1 REVERT JUMPDEST POP PUSH2 0x310 PUSH2 0x3C7 CALLDATASIZE PUSH1 0x4 PUSH2 0x2164 JUMP JUMPDEST PUSH1 0x17 PUSH1 0x20 MSTORE PUSH1 0x0 SWAP1 DUP2 MSTORE PUSH1 0x40 SWAP1 KECCAK256 SLOAD PUSH1 0xFF AND DUP2 JUMP JUMPDEST CALLVALUE DUP1 ISZERO PUSH2 0x3E8 JUMPI PUSH1 0x0 DUP1 REVERT JUMPDEST POP PUSH2 0x310 PUSH2 0x3F7 CALLDATASIZE PUSH1 0x4 PUSH2 0x2164 JUMP JUMPDEST PUSH1 0x1 PUSH1 0x1 PUSH1 0xA0 SHL SUB AND PUSH1 0x0 SWAP1 DUP2 MSTORE PUSH1 0x15 PUSH1 0x20 MSTORE PUSH1 0x40 SWAP1 KECCAK256 SLOAD PUSH1 0xFF AND SWAP1 JUMP JUMPDEST CALLVALUE DUP1 ISZERO PUSH2 0x421 JUMPI PUSH1 0x0 DUP1 REVERT JUMPDEST POP PUSH1 0x2 SLOAD PUSH1 0x1 SLOAD SUB PUSH1 0x0 NOT ADD PUSH2 0x388 JUMP JUMPDEST CALLVALUE DUP1 ISZERO PUSH2 0x43E JUMPI PUSH1 0x0 DUP1 REVERT JUMPDEST POP PUSH2 0x335 PUSH2 0x8E3 JUMP JUMPDEST CALLVALUE DUP1 ISZERO PUSH2 0x453 JUMPI PUSH1 0x0 DUP1 REVERT JUMPDEST POP PUSH2 0x467 PUSH2 0x462 CALLDATASIZE PUSH1 0x4 PUSH2 0x217F JUMP JUMPDEST PUSH2 0x971 JUMP JUMPDEST PUSH1 0x40 MLOAD PUSH2 0x2E7 SWAP2 SWAP1 PUSH2 0x2198 JUMP JUMPDEST CALLVALUE DUP1 ISZERO PUSH2 0x480 JUMPI PUSH1 0x0 DUP1 REVERT JUMPDEST POP PUSH1 0x7 SLOAD PUSH2 0x497 SWAP1 PUSH3 0x10000 SWAP1 DIV PUSH4 0xFFFFFFFF AND DUP2 JUMP JUMPDEST PUSH1 0x40 MLOAD PUSH4 0xFFFFFFFF SWAP1 SWAP2 AND DUP2 MSTORE PUSH1 0x20 ADD PUSH2 0x2E7 JUMP JUMPDEST CALLVALUE DUP1 ISZERO PUSH2 0x4B8 JUMPI PUSH1 0x0 DUP1 REVERT JUMPDEST POP PUSH2 0x4CC PUSH2 0x4C7 CALLDATASIZE PUSH1 0x4 PUSH2 0x2328 JUMP JUMPDEST PUSH2 0xDE3 JUMP JUMPDEST STOP JUMPDEST CALLVALUE DUP1 ISZERO PUSH2 0x4DA JUMPI PUSH1 0x0 DUP1 REVERT JUMPDEST POP PUSH2 0x388 PUSH1 0x10 SLOAD DUP2 JUMP JUMPDEST CALLVALUE DUP1 ISZERO PUSH2 0x4F0 JUMPI PUSH1 0x0 DUP1 REVERT JUMPDEST POP PUSH2 0x4CC PUSH2 0xE16 JUMP JUMPDEST CALLVALUE DUP1 ISZERO PUSH2 0x505 JUMPI PUSH1 0x0 DUP1 REVERT JUMPDEST POP PUSH2 0x335 PUSH2 0xF8E JUMP JUMPDEST CALLVALUE DUP1 ISZERO PUSH2 0x51A JUMPI PUSH1 0x0 DUP1 REVERT JUMPDEST POP PUSH2 0x4CC PUSH2 0x529 CALLDATASIZE PUSH1 0x4 PUSH2 0x245E JUMP JUMPDEST PUSH2 0xF9B JUMP JUMPDEST CALLVALUE DUP1 ISZERO PUSH2 0x53A JUMPI PUSH1 0x0 DUP1 REVERT JUMPDEST POP PUSH2 0x54E PUSH2 0x549 CALLDATASIZE PUSH1 0x4 PUSH2 0x217F JUMP JUMPDEST PUSH2 0x10E8 JUMP JUMPDEST PUSH1 0x40 MLOAD PUSH1 0x1 PUSH1 0x1 PUSH1 0xA0 SHL SUB SWAP1 SWAP2 AND DUP2 MSTORE PUSH1 0x20 ADD PUSH2 0x2E7 JUMP JUMPDEST CALLVALUE DUP1 ISZERO PUSH2 0x572 JUMPI PUSH1 0x0 DUP1 REVERT JUMPDEST POP PUSH2 0x388 PUSH2 0x581 CALLDATASIZE PUSH1 0x4 PUSH2 0x2164 JUMP JUMPDEST PUSH2 0x10F3 JUMP JUMPDEST CALLVALUE DUP1 ISZERO PUSH2 0x592 JUMPI PUSH1 0x0 DUP1 REVERT JUMPDEST POP PUSH2 0x4CC PUSH2 0x115B JUMP JUMPDEST CALLVALUE DUP1 ISZERO PUSH2 0x5A7 JUMPI PUSH1 0x0 DUP1 REVERT JUMPDEST POP PUSH2 0x335 PUSH2 0x116F JUMP JUMPDEST CALLVALUE DUP1 ISZERO PUSH2 0x5BC JUMPI PUSH1 0x0 DUP1 REVERT JUMPDEST POP PUSH1 0x7 SLOAD PUSH2 0x310 SWAP1 PUSH2 0x100 SWAP1 DIV PUSH1 0xFF AND DUP2 JUMP JUMPDEST CALLVALUE DUP1 ISZERO PUSH2 0x5DB JUMPI PUSH1 0x0 DUP1 REVERT JUMPDEST POP PUSH2 0x388 PUSH1 0xC SLOAD DUP2 JUMP JUMPDEST CALLVALUE DUP1 ISZERO PUSH2 0x5F1 JUMPI PUSH1 0x0 DUP1 REVERT JUMPDEST POP PUSH2 0x388 PUSH1 0xE SLOAD DUP2 JUMP JUMPDEST CALLVALUE DUP1 ISZERO PUSH2 0x607 JUMPI PUSH1 0x0 DUP1 REVERT JUMPDEST POP PUSH1 0x7 SLOAD PUSH2 0x54E SWAP1 PUSH7 0x1000000000000 SWAP1 DIV PUSH1 0x1 PUSH1 0x1 PUSH1 0xA0 SHL SUB AND DUP2 JUMP JUMPDEST CALLVALUE DUP1 ISZERO PUSH2 0x631 JUMPI PUSH1 0x0 DUP1 REVERT JUMPDEST POP PUSH1 0x0 SLOAD PUSH1 0x1 PUSH1 0x1 PUSH1 0xA0 SHL SUB AND PUSH2 0x54E JUMP JUMPDEST CALLVALUE DUP1 ISZERO PUSH2 0x64F JUMPI PUSH1 0x0 DUP1 REVERT JUMPDEST POP PUSH2 0x335 PUSH2 0x117C JUMP JUMPDEST CALLVALUE DUP1 ISZERO PUSH2 0x664 JUMPI PUSH1 0x0 DUP1 REVERT JUMPDEST POP PUSH2 0x388 PUSH1 0x9 SLOAD DUP2 JUMP JUMPDEST PUSH2 0x4CC PUSH2 0x67C CALLDATASIZE PUSH1 0x4 PUSH2 0x2583 JUMP JUMPDEST PUSH2 0x118B JUMP JUMPDEST CALLVALUE DUP1 ISZERO PUSH2 0x68D JUMPI PUSH1 0x0 DUP1 REVERT JUMPDEST POP PUSH2 0x388 PUSH1 0xB SLOAD DUP2 JUMP JUMPDEST CALLVALUE DUP1 ISZERO PUSH2 0x6A3 JUMPI PUSH1 0x0 DUP1 REVERT JUMPDEST POP PUSH2 0x4CC PUSH2 0x6B2 CALLDATASIZE PUSH1 0x4 PUSH2 0x217F JUMP JUMPDEST PUSH2 0x12F6 JUMP JUMPDEST CALLVALUE DUP1 ISZERO PUSH2 0x6C3 JUMPI PUSH1 0x0 DUP1 REVERT JUMPDEST POP PUSH1 0x7 SLOAD PUSH2 0x310 SWAP1 PUSH1 0xFF AND DUP2 JUMP JUMPDEST CALLVALUE DUP1 ISZERO PUSH2 0x6DD JUMPI PUSH1 0x0 DUP1 REVERT JUMPDEST POP PUSH2 0x335 PUSH2 0x6EC CALLDATASIZE PUSH1 0x4 PUSH2 0x217F JUMP JUMPDEST PUSH2 0x1303 JUMP JUMPDEST CALLVALUE DUP1 ISZERO PUSH2 0x6FD JUMPI PUSH1 0x0 DUP1 REVERT JUMPDEST POP PUSH2 0x4CC PUSH2 0x70C CALLDATASIZE PUSH1 0x4 PUSH2 0x2164 JUMP JUMPDEST PUSH2 0x140E JUMP JUMPDEST CALLVALUE DUP1 ISZERO PUSH2 0x71D JUMPI PUSH1 0x0 DUP1 REVERT JUMPDEST POP PUSH2 0x2D9 PUSH2 0x72C CALLDATASIZE PUSH1 0x4 PUSH2 0x217F JUMP JUMPDEST PUSH2 0x15DD JUMP JUMPDEST CALLVALUE DUP1 ISZERO PUSH2 0x73D JUMPI PUSH1 0x0 DUP1 REVERT JUMPDEST POP PUSH2 0x388 PUSH1 0xA SLOAD DUP2 JUMP JUMPDEST CALLVALUE DUP1 ISZERO PUSH2 0x753 JUMPI PUSH1 0x0 DUP1 REVERT JUMPDEST POP PUSH2 0x4CC PUSH2 0x762 CALLDATASIZE PUSH1 0x4 PUSH2 0x2164 JUMP JUMPDEST PUSH2 0x1678 JUMP JUMPDEST PUSH2 0x4CC PUSH2 0x170D JUMP JUMPDEST CALLVALUE DUP1 ISZERO PUSH2 0x77B JUMPI PUSH1 0x0 DUP1 REVERT JUMPDEST POP PUSH2 0x335 PUSH2 0x17FA JUMP JUMPDEST CALLVALUE DUP1 ISZERO PUSH2 0x790 JUMPI PUSH1 0x0 DUP1 REVERT JUMPDEST POP PUSH2 0x310 PUSH2 0x79F CALLDATASIZE PUSH1 0x4 PUSH2 0x2164 JUMP JUMPDEST PUSH1 0x16 PUSH1 0x20 MSTORE PUSH1 0x0 SWAP1 DUP2 MSTORE PUSH1 0x40 SWAP1 KECCAK256 SLOAD PUSH1 0xFF AND DUP2 JUMP JUMPDEST PUSH1 0x0 PUSH32 0x1FFC9A700000000000000000000000000000000000000000000000000000000 PUSH1 0x1 PUSH1 0x1 PUSH1 0xE0 SHL SUB NOT DUP4 AND EQ DUP1 PUSH2 0x817 JUMPI POP PUSH32 0x80AC58CD00000000000000000000000000000000000000000000000000000000 PUSH1 0x1 PUSH1 0x1 PUSH1 0xE0 SHL SUB NOT DUP4 AND EQ JUMPDEST DUP1 PUSH2 0x84B JUMPI POP PUSH32 0x5B5E139F00000000000000000000000000000000000000000000000000000000 PUSH1 0x1 PUSH1 0x1 PUSH1 0xE0 SHL SUB NOT DUP4 AND EQ JUMPDEST SWAP3 SWAP2 POP POP JUMP JUMPDEST PUSH1 0x60 PUSH1 0x3 DUP1 SLOAD PUSH2 0x860 SWAP1 PUSH2 0x25F8 JUMP JUMPDEST DUP1 PUSH1 0x1F ADD PUSH1 0x20 DUP1 SWAP2 DIV MUL PUSH1 0x20 ADD PUSH1 0x40 MLOAD SWAP1 DUP2 ADD PUSH1 0x40 MSTORE DUP1 SWAP3 SWAP2 SWAP1 DUP2 DUP2 MSTORE PUSH1 0x20 ADD DUP3 DUP1 SLOAD PUSH2 0x88C SWAP1 PUSH2 0x25F8 JUMP JUMPDEST DUP1 ISZERO PUSH2 0x8D9 JUMPI DUP1 PUSH1 0x1F LT PUSH2 0x8AE JUMPI PUSH2 0x100 DUP1 DUP4 SLOAD DIV MUL DUP4 MSTORE SWAP2 PUSH1 0x20 ADD SWAP2 PUSH2 0x8D9 JUMP JUMPDEST DUP3 ADD SWAP2 SWAP1 PUSH1 0x0 MSTORE PUSH1 0x20 PUSH1 0x0 KECCAK256 SWAP1 JUMPDEST DUP2 SLOAD DUP2 MSTORE SWAP1 PUSH1 0x1 ADD SWAP1 PUSH1 0x20 ADD DUP1 DUP4 GT PUSH2 0x8BC JUMPI DUP3 SWAP1 SUB PUSH1 0x1F AND DUP3 ADD SWAP2 JUMPDEST POP POP POP POP POP SWAP1 POP SWAP1 JUMP JUMPDEST PUSH1 0x12 DUP1 SLOAD PUSH2 0x8F0 SWAP1 PUSH2 0x25F8 JUMP JUMPDEST DUP1 PUSH1 0x1F ADD PUSH1 0x20 DUP1 SWAP2 DIV MUL PUSH1 0x20 ADD PUSH1 0x40 MLOAD SWAP1 DUP2 ADD PUSH1 0x40 MSTORE DUP1 SWAP3 SWAP2 SWAP1 DUP2 DUP2 MSTORE PUSH1 0x20 ADD DUP3 DUP1 SLOAD PUSH2 0x91C SWAP1 PUSH2 0x25F8 JUMP JUMPDEST DUP1 ISZERO PUSH2 0x969 JUMPI DUP1 PUSH1 0x1F LT PUSH2 0x93E JUMPI PUSH2 0x100 DUP1 DUP4 SLOAD DIV MUL DUP4 MSTORE SWAP2 PUSH1 0x20 ADD SWAP2 PUSH2 0x969 JUMP JUMPDEST DUP3 ADD SWAP2 SWAP1 PUSH1 0x0 MSTORE PUSH1 0x20 PUSH1 0x0 KECCAK256 SWAP1 JUMPDEST DUP2 SLOAD DUP2 MSTORE SWAP1 PUSH1 0x1 ADD SWAP1 PUSH1 0x20 ADD DUP1 DUP4 GT PUSH2 0x94C JUMPI DUP3 SWAP1 SUB PUSH1 0x1F AND DUP3 ADD SWAP2 JUMPDEST POP POP POP POP POP DUP2 JUMP JUMPDEST PUSH2 0xA26 PUSH1 0x40 MLOAD DUP1 PUSH2 0x260 ADD PUSH1 0x40 MSTORE DUP1 PUSH1 0x0 PUSH1 0x1 PUSH1 0x1 PUSH1 0xA0 SHL SUB AND DUP2 MSTORE PUSH1 0x20 ADD PUSH1 0x0 PUSH1 0x1 PUSH1 0x1 PUSH1 0xA0 SHL SUB AND DUP2 MSTORE PUSH1 0x20 ADD PUSH1 0x0 ISZERO ISZERO DUP2 MSTORE PUSH1 0x20 ADD PUSH1 0x0 ISZERO ISZERO DUP2 MSTORE PUSH1 0x20 ADD PUSH1 0x0 ISZERO ISZERO DUP2 MSTORE PUSH1 0x20 ADD PUSH1 0x0 ISZERO ISZERO DUP2 MSTORE PUSH1 0x20 ADD PUSH1 0x0 PUSH4 0xFFFFFFFF AND DUP2 MSTORE PUSH1 0x20 ADD PUSH1 0x0 DUP2 MSTORE PUSH1 0x20 ADD PUSH1 0x0 DUP2 MSTORE PUSH1 0x20 ADD PUSH1 0x0 DUP2 MSTORE PUSH1 0x20 ADD PUSH1 0x0 DUP2 MSTORE PUSH1 0x20 ADD PUSH1 0x0 DUP2 MSTORE PUSH1 0x20 ADD PUSH1 0x0 DUP2 MSTORE PUSH1 0x20 ADD PUSH1 0x0 DUP2 MSTORE PUSH1 0x20 ADD PUSH1 0x60 DUP2 MSTORE PUSH1 0x20 ADD PUSH1 0x60 DUP2 MSTORE PUSH1 0x20 ADD PUSH1 0x60 DUP2 MSTORE PUSH1 0x20 ADD PUSH1 0x60 DUP2 MSTORE PUSH1 0x20 ADD PUSH1 0x60 DUP2 MSTORE POP SWAP1 JUMP JUMPDEST PUSH2 0xADB PUSH1 0x40 MLOAD DUP1 PUSH2 0x260 ADD PUSH1 0x40 MSTORE DUP1 PUSH1 0x0 PUSH1 0x1 PUSH1 0x1 PUSH1 0xA0 SHL SUB AND DUP2 MSTORE PUSH1 0x20 ADD PUSH1 0x0 PUSH1 0x1 PUSH1 0x1 PUSH1 0xA0 SHL SUB AND DUP2 MSTORE PUSH1 0x20 ADD PUSH1 0x0 ISZERO ISZERO DUP2 MSTORE PUSH1 0x20 ADD PUSH1 0x0 ISZERO ISZERO DUP2 MSTORE PUSH1 0x20 ADD PUSH1 0x0 ISZERO ISZERO DUP2 MSTORE PUSH1 0x20 ADD PUSH1 0x0 ISZERO ISZERO DUP2 MSTORE PUSH1 0x20 ADD PUSH1 0x0 PUSH4 0xFFFFFFFF AND DUP2 MSTORE PUSH1 0x20 ADD PUSH1 0x0 DUP2 MSTORE PUSH1 0x20 ADD PUSH1 0x0 DUP2 MSTORE PUSH1 0x20 ADD PUSH1 0x0 DUP2 MSTORE PUSH1 0x20 ADD PUSH1 0x0 DUP2 MSTORE PUSH1 0x20 ADD PUSH1 0x0 DUP2 MSTORE PUSH1 0x20 ADD PUSH1 0x0 DUP2 MSTORE PUSH1 0x20 ADD PUSH1 0x0 DUP2 MSTORE PUSH1 0x20 ADD PUSH1 0x60 DUP2 MSTORE PUSH1 0x20 ADD PUSH1 0x60 DUP2 MSTORE PUSH1 0x20 ADD PUSH1 0x60 DUP2 MSTORE PUSH1 0x20 ADD PUSH1 0x60 DUP2 MSTORE PUSH1 0x20 ADD PUSH1 0x60 DUP2 MSTORE POP SWAP1 JUMP JUMPDEST PUSH1 0x9 SLOAD PUSH2 0x100 DUP3 ADD MSTORE PUSH1 0xA SLOAD PUSH2 0x120 DUP3 ADD MSTORE PUSH1 0x8 SLOAD PUSH1 0xE0 DUP3 ADD MSTORE PUSH2 0xAFD PUSH2 0x851 JUMP JUMPDEST PUSH2 0x200 DUP3 ADD MSTORE PUSH1 0x11 DUP1 SLOAD PUSH2 0xB10 SWAP1 PUSH2 0x25F8 JUMP JUMPDEST DUP1 PUSH1 0x1F ADD PUSH1 0x20 DUP1 SWAP2 DIV MUL PUSH1 0x20 ADD PUSH1 0x40 MLOAD SWAP1 DUP2 ADD PUSH1 0x40 MSTORE DUP1 SWAP3 SWAP2 SWAP1 DUP2 DUP2 MSTORE PUSH1 0x20 ADD DUP3 DUP1 SLOAD PUSH2 0xB3C SWAP1 PUSH2 0x25F8 JUMP JUMPDEST DUP1 ISZERO PUSH2 0xB89 JUMPI DUP1 PUSH1 0x1F LT PUSH2 0xB5E JUMPI PUSH2 0x100 DUP1 DUP4 SLOAD DIV MUL DUP4 MSTORE SWAP2 PUSH1 0x20 ADD SWAP2 PUSH2 0xB89 JUMP JUMPDEST DUP3 ADD SWAP2 SWAP1 PUSH1 0x0 MSTORE PUSH1 0x20 PUSH1 0x0 KECCAK256 SWAP1 JUMPDEST DUP2 SLOAD DUP2 MSTORE SWAP1 PUSH1 0x1 ADD SWAP1 PUSH1 0x20 ADD DUP1 DUP4 GT PUSH2 0xB6C JUMPI DUP3 SWAP1 SUB PUSH1 0x1F AND DUP3 ADD SWAP2 JUMPDEST POP POP POP POP POP PUSH2 0x1C0 DUP3 ADD MSTORE PUSH1 0x7 SLOAD PUSH3 0x10000 SWAP1 DIV PUSH4 0xFFFFFFFF AND PUSH1 0xC0 DUP3 ADD MSTORE PUSH1 0xD SLOAD PUSH2 0x140 DUP3 ADD MSTORE PUSH1 0xE SLOAD PUSH2 0x160 DUP3 ADD MSTORE PUSH1 0x12 DUP1 SLOAD PUSH2 0xBC7 SWAP1 PUSH2 0x25F8 JUMP JUMPDEST DUP1 PUSH1 0x1F ADD PUSH1 0x20 DUP1 SWAP2 DIV MUL PUSH1 0x20 ADD PUSH1 0x40 MLOAD SWAP1 DUP2 ADD PUSH1 0x40 MSTORE DUP1 SWAP3 SWAP2 SWAP1 DUP2 DUP2 MSTORE PUSH1 0x20 ADD DUP3 DUP1 SLOAD PUSH2 0xBF3 SWAP1 PUSH2 0x25F8 JUMP JUMPDEST DUP1 ISZERO PUSH2 0xC40 JUMPI DUP1 PUSH1 0x1F LT PUSH2 0xC15 JUMPI PUSH2 0x100 DUP1 DUP4 SLOAD DIV MUL DUP4 MSTORE SWAP2 PUSH1 0x20 ADD SWAP2 PUSH2 0xC40 JUMP JUMPDEST DUP3 ADD SWAP2 SWAP1 PUSH1 0x0 MSTORE PUSH1 0x20 PUSH1 0x0 KECCAK256 SWAP1 JUMPDEST DUP2 SLOAD DUP2 MSTORE SWAP1 PUSH1 0x1 ADD SWAP1 PUSH1 0x20 ADD DUP1 DUP4 GT PUSH2 0xC23 JUMPI DUP3 SWAP1 SUB PUSH1 0x1F AND DUP3 ADD SWAP2 JUMPDEST POP POP POP POP POP DUP2 PUSH2 0x1E0 ADD DUP2 SWAP1 MSTORE POP PUSH1 0x13 DUP1 SLOAD PUSH2 0xC5B SWAP1 PUSH2 0x25F8 JUMP JUMPDEST DUP1 PUSH1 0x1F ADD PUSH1 0x20 DUP1 SWAP2 DIV MUL PUSH1 0x20 ADD PUSH1 0x40 MLOAD SWAP1 DUP2 ADD PUSH1 0x40 MSTORE DUP1 SWAP3 SWAP2 SWAP1 DUP2 DUP2 MSTORE PUSH1 0x20 ADD DUP3 DUP1 SLOAD PUSH2 0xC87 SWAP1 PUSH2 0x25F8 JUMP JUMPDEST DUP1 ISZERO PUSH2 0xCD4 JUMPI DUP1 PUSH1 0x1F LT PUSH2 0xCA9 JUMPI PUSH2 0x100 DUP1 DUP4 SLOAD DIV MUL DUP4 MSTORE SWAP2 PUSH1 0x20 ADD SWAP2 PUSH2 0xCD4 JUMP JUMPDEST DUP3 ADD SWAP2 SWAP1 PUSH1 0x0 MSTORE PUSH1 0x20 PUSH1 0x0 KECCAK256 SWAP1 JUMPDEST DUP2 SLOAD DUP2 MSTORE SWAP1 PUSH1 0x1 ADD SWAP1 PUSH1 0x20 ADD DUP1 DUP4 GT PUSH2 0xCB7 JUMPI DUP3 SWAP1 SUB PUSH1 0x1F AND DUP3 ADD SWAP2 JUMPDEST POP POP POP POP POP DUP2 PUSH2 0x220 ADD DUP2 SWAP1 MSTORE POP PUSH1 0x14 DUP1 SLOAD PUSH2 0xCEF SWAP1 PUSH2 0x25F8 JUMP JUMPDEST DUP1 PUSH1 0x1F ADD PUSH1 0x20 DUP1 SWAP2 DIV MUL PUSH1 0x20 ADD PUSH1 0x40 MLOAD SWAP1 DUP2 ADD PUSH1 0x40 MSTORE DUP1 SWAP3 SWAP2 SWAP1 DUP2 DUP2 MSTORE PUSH1 0x20 ADD DUP3 DUP1 SLOAD PUSH2 0xD1B SWAP1 PUSH2 0x25F8 JUMP JUMPDEST DUP1 ISZERO PUSH2 0xD68 JUMPI DUP1 PUSH1 0x1F LT PUSH2 0xD3D JUMPI PUSH2 0x100 DUP1 DUP4 SLOAD DIV MUL DUP4 MSTORE SWAP2 PUSH1 0x20 ADD SWAP2 PUSH2 0xD68 JUMP JUMPDEST DUP3 ADD SWAP2 SWAP1 PUSH1 0x0 MSTORE PUSH1 0x20 PUSH1 0x0 KECCAK256 SWAP1 JUMPDEST DUP2 SLOAD DUP2 MSTORE SWAP1 PUSH1 0x1 ADD SWAP1 PUSH1 0x20 ADD DUP1 DUP4 GT PUSH2 0xD4B JUMPI DUP3 SWAP1 SUB PUSH1 0x1F AND DUP3 ADD SWAP2 JUMPDEST POP POP POP POP POP PUSH2 0x240 DUP3 ADD MSTORE PUSH1 0x0 SLOAD PUSH1 0x1 PUSH1 0x1 PUSH1 0xA0 SHL SUB AND PUSH1 0x20 DUP3 ADD MSTORE PUSH2 0xD8D DUP4 PUSH2 0x15DD JUMP JUMPDEST PUSH1 0xFF SWAP1 DUP2 AND ISZERO PUSH1 0x40 DUP1 DUP5 ADD SWAP2 SWAP1 SWAP2 MSTORE CALLER PUSH1 0x0 DUP2 DUP2 MSTORE PUSH1 0x15 PUSH1 0x20 SWAP1 DUP2 MSTORE DUP4 DUP3 KECCAK256 SLOAD DUP6 AND ISZERO ISZERO PUSH1 0x80 DUP8 ADD MSTORE SWAP2 DUP2 MSTORE PUSH1 0x16 SWAP1 SWAP2 MSTORE KECCAK256 SLOAD AND ISZERO ISZERO PUSH1 0xA0 DUP3 ADD MSTORE PUSH1 0xB SLOAD PUSH2 0x180 DUP3 ADD MSTORE PUSH1 0xC SLOAD PUSH2 0x1A0 DUP3 ADD MSTORE ADDRESS DUP2 MSTORE SWAP3 SWAP2 POP POP JUMP JUMPDEST PUSH2 0xDEB PUSH2 0x1807 JUMP JUMPDEST PUSH1 0x1 PUSH1 0x1 PUSH1 0xA0 SHL SUB SWAP2 SWAP1 SWAP2 AND PUSH1 0x0 SWAP1 DUP2 MSTORE PUSH1 0x17 PUSH1 0x20 MSTORE PUSH1 0x40 SWAP1 KECCAK256 DUP1 SLOAD PUSH1 0xFF NOT AND SWAP2 ISZERO ISZERO SWAP2 SWAP1 SWAP2 OR SWAP1 SSTORE JUMP JUMPDEST PUSH2 0xE1E PUSH2 0x1807 JUMP JUMPDEST SELFBALANCE PUSH1 0x0 DUP2 SWAP1 SUB PUSH2 0xE41 JUMPI PUSH1 0x40 MLOAD PUSH4 0x12171D83 PUSH1 0xE3 SHL DUP2 MSTORE PUSH1 0x4 ADD PUSH1 0x40 MLOAD DUP1 SWAP2 SUB SWAP1 REVERT JUMPDEST PUSH1 0xF SLOAD PUSH1 0x0 SWAP1 DUP2 SWAP1 PUSH2 0xE57 SWAP1 PUSH1 0xFF AND PUSH1 0x64 PUSH2 0x2648 JUMP JUMPDEST PUSH1 0xF SLOAD PUSH1 0xFF SWAP2 DUP3 AND SWAP3 POP AND ISZERO PUSH2 0xF02 JUMPI PUSH1 0x7 SLOAD PUSH1 0xF SLOAD PUSH7 0x1000000000000 SWAP1 SWAP2 DIV PUSH1 0x1 PUSH1 0x1 PUSH1 0xA0 SHL SUB AND SWAP1 PUSH1 0x64 SWAP1 PUSH2 0xE93 SWAP1 DUP7 SWAP1 PUSH1 0xFF AND PUSH2 0x2661 JUMP JUMPDEST PUSH2 0xE9D SWAP2 SWAP1 PUSH2 0x2678 JUMP JUMPDEST PUSH1 0x40 MLOAD PUSH1 0x0 DUP2 DUP2 DUP2 DUP6 DUP8 GAS CALL SWAP3 POP POP POP RETURNDATASIZE DUP1 PUSH1 0x0 DUP2 EQ PUSH2 0xED9 JUMPI PUSH1 0x40 MLOAD SWAP2 POP PUSH1 0x1F NOT PUSH1 0x3F RETURNDATASIZE ADD AND DUP3 ADD PUSH1 0x40 MSTORE RETURNDATASIZE DUP3 MSTORE RETURNDATASIZE PUSH1 0x0 PUSH1 0x20 DUP5 ADD RETURNDATACOPY PUSH2 0xEDE JUMP JUMPDEST PUSH1 0x60 SWAP2 POP JUMPDEST POP POP DUP1 SWAP3 POP POP DUP2 PUSH2 0xF02 JUMPI PUSH1 0x40 MLOAD PUSH4 0x12171D83 PUSH1 0xE3 SHL DUP2 MSTORE PUSH1 0x4 ADD PUSH1 0x40 MLOAD DUP1 SWAP2 SUB SWAP1 REVERT JUMPDEST PUSH1 0x0 SLOAD PUSH1 0x1 PUSH1 0x1 PUSH1 0xA0 SHL SUB AND PUSH1 0x64 PUSH2 0xF1A DUP6 DUP5 PUSH2 0x2661 JUMP JUMPDEST PUSH2 0xF24 SWAP2 SWAP1 PUSH2 0x2678 JUMP JUMPDEST PUSH1 0x40 MLOAD PUSH1 0x0 DUP2 DUP2 DUP2 DUP6 DUP8 GAS CALL SWAP3 POP POP POP RETURNDATASIZE DUP1 PUSH1 0x0 DUP2 EQ PUSH2 0xF60 JUMPI PUSH1 0x40 MLOAD SWAP2 POP PUSH1 0x1F NOT PUSH1 0x3F RETURNDATASIZE ADD AND DUP3 ADD PUSH1 0x40 MSTORE RETURNDATASIZE DUP3 MSTORE RETURNDATASIZE PUSH1 0x0 PUSH1 0x20 DUP5 ADD RETURNDATACOPY PUSH2 0xF65 JUMP JUMPDEST PUSH1 0x60 SWAP2 POP JUMPDEST POP POP DUP1 SWAP3 POP POP DUP2 PUSH2 0xF89 JUMPI PUSH1 0x40 MLOAD PUSH4 0x12171D83 PUSH1 0xE3 SHL DUP2 MSTORE PUSH1 0x4 ADD PUSH1 0x40 MLOAD DUP1 SWAP2 SUB SWAP1 REVERT JUMPDEST POP POP POP JUMP JUMPDEST PUSH1 0x14 DUP1 SLOAD PUSH2 0x8F0 SWAP1 PUSH2 0x25F8 JUMP JUMPDEST PUSH2 0xFA3 PUSH2 0x1807 JUMP JUMPDEST TIMESTAMP DUP2 PUSH1 0x40 ADD MLOAD LT ISZERO PUSH2 0xFE1 JUMPI PUSH1 0x40 MLOAD PUSH32 0x93D9B84F00000000000000000000000000000000000000000000000000000000 DUP2 MSTORE PUSH1 0x4 ADD PUSH1 0x40 MLOAD DUP1 SWAP2 SUB SWAP1 REVERT JUMPDEST PUSH1 0xB SLOAD DUP2 MLOAD PUSH4 0xFFFFFFFF AND LT DUP1 PUSH2 0xFFF JUMPI POP DUP1 PUSH1 0x60 ADD MLOAD DUP2 PUSH1 0x40 ADD MLOAD GT JUMPDEST ISZERO PUSH2 0x1036 JUMPI PUSH1 0x40 MLOAD PUSH32 0x41CC6B2100000000000000000000000000000000000000000000000000000000 DUP2 MSTORE PUSH1 0x4 ADD PUSH1 0x40 MLOAD DUP1 SWAP2 SUB SWAP1 REVERT JUMPDEST PUSH1 0xC0 DUP2 ADD MLOAD PUSH1 0x11 SWAP1 PUSH2 0x1048 SWAP1 DUP3 PUSH2 0x26E8 JUMP JUMPDEST POP PUSH1 0xE0 DUP2 ADD MLOAD PUSH1 0x12 SWAP1 PUSH2 0x105B SWAP1 DUP3 PUSH2 0x26E8 JUMP JUMPDEST POP PUSH2 0x100 DUP2 ADD MLOAD PUSH1 0x14 SWAP1 PUSH2 0x106F SWAP1 DUP3 PUSH2 0x26E8 JUMP JUMPDEST POP DUP1 MLOAD PUSH1 0x7 DUP1 SLOAD PUSH1 0x80 DUP5 ADD MLOAD PUSH1 0xD SSTORE PUSH1 0xA0 DUP5 ADD MLOAD PUSH1 0xE SSTORE PUSH1 0x40 DUP5 ADD MLOAD PUSH1 0x9 SSTORE PUSH1 0x60 DUP5 ADD MLOAD PUSH1 0xA SSTORE PUSH1 0x20 DUP5 ADD MLOAD PUSH1 0x8 SSTORE PUSH2 0x120 DUP5 ADD MLOAD PUSH2 0x140 SWAP1 SWAP5 ADD MLOAD ISZERO ISZERO PUSH1 0xFF NOT SWAP5 ISZERO ISZERO PUSH2 0x100 MUL PUSH2 0xFF00 NOT PUSH4 0xFFFFFFFF SWAP1 SWAP6 AND PUSH3 0x10000 MUL SWAP5 SWAP1 SWAP5 AND PUSH6 0xFFFFFFFFFF00 NOT SWAP1 SWAP3 AND SWAP2 SWAP1 SWAP2 OR SWAP3 SWAP1 SWAP3 OR SWAP3 SWAP1 SWAP3 AND OR SWAP1 SSTORE JUMP JUMPDEST PUSH1 0x0 PUSH2 0x84B DUP3 PUSH2 0x1861 JUMP JUMPDEST PUSH1 0x0 PUSH1 0x1 PUSH1 0x1 PUSH1 0xA0 SHL SUB DUP3 AND PUSH2 0x1135 JUMPI PUSH1 0x40 MLOAD PUSH32 0x8F4EB60400000000000000000000000000000000000000000000000000000000 DUP2 MSTORE PUSH1 0x4 ADD PUSH1 0x40 MLOAD DUP1 SWAP2 SUB SWAP1 REVERT JUMPDEST POP PUSH1 0x1 PUSH1 0x1 PUSH1 0xA0 SHL SUB AND PUSH1 0x0 SWAP1 DUP2 MSTORE PUSH1 0x6 PUSH1 0x20 MSTORE PUSH1 0x40 SWAP1 KECCAK256 SLOAD PUSH8 0xFFFFFFFFFFFFFFFF AND SWAP1 JUMP JUMPDEST PUSH2 0x1163 PUSH2 0x1807 JUMP JUMPDEST PUSH2 0x116D PUSH1 0x0 PUSH2 0x18F0 JUMP JUMPDEST JUMP JUMPDEST PUSH1 0x11 DUP1 SLOAD PUSH2 0x8F0 SWAP1 PUSH2 0x25F8 JUMP JUMPDEST PUSH1 0x60 PUSH1 0x4 DUP1 SLOAD PUSH2 0x860 SWAP1 PUSH2 0x25F8 JUMP JUMPDEST PUSH1 0x0 PUSH2 0x1196 TIMESTAMP PUSH2 0x15DD JUMP JUMPDEST SWAP1 POP DUP1 PUSH1 0xFF AND PUSH1 0x1 SUB PUSH2 0x11BC JUMPI PUSH1 0x40 MLOAD PUSH4 0xA8AB2D25 PUSH1 0xE0 SHL DUP2 MSTORE PUSH1 0x4 ADD PUSH1 0x40 MLOAD DUP1 SWAP2 SUB SWAP1 REVERT JUMPDEST DUP1 PUSH1 0xFF AND PUSH1 0x2 SUB PUSH2 0x11E0 JUMPI PUSH1 0x40 MLOAD PUSH4 0x2FC209F3 PUSH1 0xE0 SHL DUP2 MSTORE PUSH1 0x4 ADD PUSH1 0x40 MLOAD DUP1 SWAP2 SUB SWAP1 REVERT JUMPDEST DUP1 PUSH1 0xFF AND PUSH1 0x3 SUB PUSH2 0x1204 JUMPI PUSH1 0x40 MLOAD PUSH4 0xEA075BF PUSH1 0xE2 SHL DUP2 MSTORE PUSH1 0x4 ADD PUSH1 0x40 MLOAD DUP1 SWAP2 SUB SWAP1 REVERT JUMPDEST DUP1 PUSH1 0xFF AND PUSH1 0x4 SUB PUSH2 0x1228 JUMPI PUSH1 0x40 MLOAD PUSH4 0x2437FFE9 PUSH1 0xE1 SHL DUP2 MSTORE PUSH1 0x4 ADD PUSH1 0x40 MLOAD DUP1 SWAP2 SUB SWAP1 REVERT JUMPDEST PUSH1 0x7 SLOAD PUSH1 0xFF AND ISZERO DUP1 PUSH2 0x12AC JUMPI POP PUSH2 0x12AA DUP4 DUP4 DUP1 DUP1 PUSH1 0x20 MUL PUSH1 0x20 ADD PUSH1 0x40 MLOAD SWAP1 DUP2 ADD PUSH1 0x40 MSTORE DUP1 SWAP4 SWAP3 SWAP2 SWAP1 DUP2 DUP2 MSTORE PUSH1 0x20 ADD DUP4 DUP4 PUSH1 0x20 MUL DUP1 DUP3 DUP5 CALLDATACOPY PUSH1 0x0 SWAP3 ADD SWAP2 SWAP1 SWAP2 MSTORE POP POP PUSH1 0x10 SLOAD PUSH1 0x40 MLOAD PUSH12 0xFFFFFFFFFFFFFFFFFFFFFFFF NOT CALLER PUSH1 0x60 SHL AND PUSH1 0x20 DUP3 ADD MSTORE SWAP1 SWAP3 POP PUSH1 0x34 ADD SWAP1 POP PUSH1 0x40 MLOAD PUSH1 0x20 DUP2 DUP4 SUB SUB DUP2 MSTORE SWAP1 PUSH1 0x40 MSTORE DUP1 MLOAD SWAP1 PUSH1 0x20 ADD KECCAK256 PUSH2 0x1958 JUMP JUMPDEST ISZERO JUMPDEST ISZERO PUSH2 0x12CA JUMPI PUSH1 0x40 MLOAD PUSH4 0xAD7ACB47 PUSH1 0xE0 SHL DUP2 MSTORE PUSH1 0x4 ADD PUSH1 0x40 MLOAD DUP1 SWAP2 SUB SWAP1 REVERT JUMPDEST PUSH1 0xE SLOAD CALLVALUE LT ISZERO PUSH2 0x12ED JUMPI PUSH1 0x40 MLOAD PUSH4 0x3C89335B PUSH1 0xE1 SHL DUP2 MSTORE PUSH1 0x4 ADD PUSH1 0x40 MLOAD DUP1 SWAP2 SUB SWAP1 REVERT JUMPDEST PUSH2 0xF89 CALLER PUSH2 0x196E JUMP JUMPDEST PUSH2 0x12FE PUSH2 0x1807 JUMP JUMPDEST PUSH1 0x10 SSTORE JUMP JUMPDEST PUSH1 0x60 PUSH2 0x130E DUP3 PUSH2 0x19F7 JUMP JUMPDEST PUSH2 0x1344 JUMPI PUSH1 0x40 MLOAD PUSH32 0xA14C4B5000000000000000000000000000000000000000000000000000000000 DUP2 MSTORE PUSH1 0x4 ADD PUSH1 0x40 MLOAD DUP1 SWAP2 SUB SWAP1 REVERT JUMPDEST PUSH1 0x0 PUSH1 0x7 PUSH1 0x6 SWAP1 SLOAD SWAP1 PUSH2 0x100 EXP SWAP1 DIV PUSH1 0x1 PUSH1 0x1 PUSH1 0xA0 SHL SUB AND PUSH1 0x1 PUSH1 0x1 PUSH1 0xA0 SHL SUB AND PUSH4 0xA2DF578A PUSH1 0x40 MLOAD DUP2 PUSH4 0xFFFFFFFF AND PUSH1 0xE0 SHL DUP2 MSTORE PUSH1 0x4 ADD PUSH1 0x0 PUSH1 0x40 MLOAD DUP1 DUP4 SUB DUP2 DUP7 GAS STATICCALL ISZERO DUP1 ISZERO PUSH2 0x1399 JUMPI RETURNDATASIZE PUSH1 0x0 DUP1 RETURNDATACOPY RETURNDATASIZE PUSH1 0x0 REVERT JUMPDEST POP POP POP POP PUSH1 0x40 MLOAD RETURNDATASIZE PUSH1 0x0 DUP3 RETURNDATACOPY PUSH1 0x1F RETURNDATASIZE SWAP1 DUP2 ADD PUSH1 0x1F NOT AND DUP3 ADD PUSH1 0x40 MSTORE PUSH2 0x13C1 SWAP2 SWAP1 DUP2 ADD SWAP1 PUSH2 0x27A8 JUMP JUMPDEST SWAP1 POP PUSH1 0x0 DUP2 PUSH2 0x13CF CHAINID PUSH2 0x1A2C JUMP JUMPDEST PUSH2 0x13DA ADDRESS PUSH1 0x14 PUSH2 0x1ACC JUMP JUMPDEST PUSH2 0x13E3 DUP8 PUSH2 0x1A2C JUMP JUMPDEST PUSH1 0x40 MLOAD PUSH1 0x20 ADD PUSH2 0x13F6 SWAP5 SWAP4 SWAP3 SWAP2 SWAP1 PUSH2 0x281F JUMP JUMPDEST PUSH1 0x40 DUP1 MLOAD PUSH1 0x1F NOT DUP2 DUP5 SUB ADD DUP2 MSTORE SWAP2 SWAP1 MSTORE SWAP5 SWAP4 POP POP POP POP JUMP JUMPDEST PUSH1 0x0 SLOAD PUSH1 0x1 PUSH1 0x1 PUSH1 0xA0 SHL SUB AND CALLER EQ DUP1 ISZERO SWAP1 PUSH2 0x1439 JUMPI POP CALLER PUSH1 0x0 SWAP1 DUP2 MSTORE PUSH1 0x17 PUSH1 0x20 MSTORE PUSH1 0x40 SWAP1 KECCAK256 SLOAD PUSH1 0xFF AND ISZERO JUMPDEST ISZERO PUSH2 0x1470 JUMPI PUSH1 0x40 MLOAD PUSH32 0xEAA45D6A00000000000000000000000000000000000000000000000000000000 DUP2 MSTORE PUSH1 0x4 ADD PUSH1 0x40 MLOAD DUP1 SWAP2 SUB SWAP1 REVERT JUMPDEST PUSH1 0x9 SLOAD TIMESTAMP SWAP1 DUP2 LT DUP1 PUSH2 0x1483 JUMPI POP PUSH1 0xA SLOAD DUP2 GT JUMPDEST ISZERO PUSH2 0x14BA JUMPI PUSH1 0x40 MLOAD PUSH32 0x91E3BE3900000000000000000000000000000000000000000000000000000000 DUP2 MSTORE PUSH1 0x4 ADD PUSH1 0x40 MLOAD DUP1 SWAP2 SUB SWAP1 REVERT JUMPDEST PUSH1 0x1 PUSH1 0x1 PUSH1 0xA0 SHL SUB DUP3 AND PUSH1 0x0 SWAP1 DUP2 MSTORE PUSH1 0x15 PUSH1 0x20 MSTORE PUSH1 0x40 SWAP1 KECCAK256 SLOAD PUSH1 0xFF AND PUSH2 0x150C JUMPI PUSH1 0x40 MLOAD PUSH32 0xABA4733900000000000000000000000000000000000000000000000000000000 DUP2 MSTORE PUSH1 0x4 ADD PUSH1 0x40 MLOAD DUP1 SWAP2 SUB SWAP1 REVERT JUMPDEST PUSH1 0x1 PUSH1 0x1 PUSH1 0xA0 SHL SUB DUP3 AND PUSH1 0x0 SWAP1 DUP2 MSTORE PUSH1 0x16 PUSH1 0x20 MSTORE PUSH1 0x40 SWAP1 KECCAK256 SLOAD PUSH1 0xFF AND ISZERO PUSH2 0x155F JUMPI PUSH1 0x40 MLOAD PUSH32 0xC98289F000000000000000000000000000000000000000000000000000000000 DUP2 MSTORE PUSH1 0x4 ADD PUSH1 0x40 MLOAD DUP1 SWAP2 SUB SWAP1 REVERT JUMPDEST PUSH1 0x1 PUSH1 0x1 PUSH1 0xA0 SHL SUB DUP3 AND PUSH1 0x0 SWAP1 DUP2 MSTORE PUSH1 0x16 PUSH1 0x20 MSTORE PUSH1 0x40 DUP2 KECCAK256 DUP1 SLOAD PUSH1 0xFF NOT AND PUSH1 0x1 SWAP1 DUP2 OR SWAP1 SWAP2 SSTORE PUSH1 0xC DUP1 SLOAD SWAP2 SWAP3 SWAP1 SWAP2 PUSH2 0x1598 SWAP1 DUP5 SWAP1 PUSH2 0x28AA JUMP JUMPDEST SWAP1 SWAP2 SSTORE POP POP PUSH1 0x40 MLOAD PUSH1 0x1 PUSH1 0x1 PUSH1 0xA0 SHL SUB DUP4 AND DUP2 MSTORE PUSH32 0xCBF477E63735F8D27F9B668165862D7C6E84E5650EDEC70229523DB18C2F1EFD SWAP1 PUSH1 0x20 ADD PUSH1 0x40 MLOAD DUP1 SWAP2 SUB SWAP1 LOG1 POP POP JUMP JUMPDEST PUSH1 0x0 PUSH1 0x9 SLOAD DUP3 GT ISZERO PUSH2 0x15F1 JUMPI POP PUSH1 0x1 SWAP2 SWAP1 POP JUMP JUMPDEST PUSH1 0x7 SLOAD PUSH2 0x100 SWAP1 DIV PUSH1 0xFF AND ISZERO DUP1 PUSH2 0x1609 JUMPI POP PUSH1 0x8 SLOAD DUP3 GT JUMPDEST ISZERO PUSH2 0x1616 JUMPI POP PUSH1 0x2 SWAP2 SWAP1 POP JUMP JUMPDEST CALLER PUSH1 0x0 SWAP1 DUP2 MSTORE PUSH1 0x15 PUSH1 0x20 MSTORE PUSH1 0x40 SWAP1 KECCAK256 SLOAD PUSH1 0xFF AND ISZERO PUSH2 0x1636 JUMPI POP PUSH1 0x3 SWAP2 SWAP1 POP JUMP JUMPDEST PUSH1 0x7 SLOAD PUSH3 0x10000 SWAP1 DIV PUSH4 0xFFFFFFFF AND ISZERO DUP1 ISZERO SWAP1 PUSH2 0x1663 JUMPI POP PUSH1 0x7 SLOAD PUSH1 0xB SLOAD PUSH3 0x10000 SWAP1 SWAP2 DIV PUSH4 0xFFFFFFFF AND EQ JUMPDEST ISZERO PUSH2 0x1670 JUMPI POP PUSH1 0x4 SWAP2 SWAP1 POP JUMP JUMPDEST POP PUSH1 0x0 SWAP2 SWAP1 POP JUMP JUMPDEST PUSH2 0x1680 PUSH2 0x1807 JUMP JUMPDEST PUSH1 0x1 PUSH1 0x1 PUSH1 0xA0 SHL SUB DUP2 AND PUSH2 0x1701 JUMPI PUSH1 0x40 MLOAD PUSH3 0x461BCD PUSH1 0xE5 SHL DUP2 MSTORE PUSH1 0x20 PUSH1 0x4 DUP3 ADD MSTORE PUSH1 0x26 PUSH1 0x24 DUP3 ADD MSTORE PUSH32 0x4F776E61626C653A206E6577206F776E657220697320746865207A65726F2061 PUSH1 0x44 DUP3 ADD MSTORE PUSH32 0x6464726573730000000000000000000000000000000000000000000000000000 PUSH1 0x64 DUP3 ADD MSTORE PUSH1 0x84 ADD JUMPDEST PUSH1 0x40 MLOAD DUP1 SWAP2 SUB SWAP1 REVERT JUMPDEST PUSH2 0x170A DUP2 PUSH2 0x18F0 JUMP JUMPDEST POP JUMP JUMPDEST PUSH1 0x0 PUSH2 0x1718 TIMESTAMP PUSH2 0x15DD JUMP JUMPDEST SWAP1 POP DUP1 PUSH1 0xFF AND PUSH1 0x1 SUB PUSH2 0x173E JUMPI PUSH1 0x40 MLOAD PUSH4 0xA8AB2D25 PUSH1 0xE0 SHL DUP2 MSTORE PUSH1 0x4 ADD PUSH1 0x40 MLOAD DUP1 SWAP2 SUB SWAP1 REVERT JUMPDEST DUP1 PUSH1 0xFF AND PUSH1 0x2 SUB PUSH2 0x1762 JUMPI PUSH1 0x40 MLOAD PUSH4 0x2FC209F3 PUSH1 0xE0 SHL DUP2 MSTORE PUSH1 0x4 ADD PUSH1 0x40 MLOAD DUP1 SWAP2 SUB SWAP1 REVERT JUMPDEST DUP1 PUSH1 0xFF AND PUSH1 0x3 SUB PUSH2 0x1786 JUMPI PUSH1 0x40 MLOAD PUSH4 0xEA075BF PUSH1 0xE2 SHL DUP2 MSTORE PUSH1 0x4 ADD PUSH1 0x40 MLOAD DUP1 SWAP2 SUB SWAP1 REVERT JUMPDEST DUP1 PUSH1 0xFF AND PUSH1 0x4 SUB PUSH2 0x17AA JUMPI PUSH1 0x40 MLOAD PUSH4 0x2437FFE9 PUSH1 0xE1 SHL DUP2 MSTORE PUSH1 0x4 ADD PUSH1 0x40 MLOAD DUP1 SWAP2 SUB SWAP1 REVERT JUMPDEST PUSH1 0x7 SLOAD PUSH1 0xFF AND ISZERO PUSH2 0x17CE JUMPI PUSH1 0x40 MLOAD PUSH4 0xAD7ACB47 PUSH1 0xE0 SHL DUP2 MSTORE PUSH1 0x4 ADD PUSH1 0x40 MLOAD DUP1 SWAP2 SUB SWAP1 REVERT JUMPDEST PUSH1 0xD SLOAD CALLVALUE LT ISZERO PUSH2 0x17F1 JUMPI PUSH1 0x40 MLOAD PUSH4 0x3C89335B PUSH1 0xE1 SHL DUP2 MSTORE PUSH1 0x4 ADD PUSH1 0x40 MLOAD DUP1 SWAP2 SUB SWAP1 REVERT JUMPDEST PUSH2 0x170A CALLER PUSH2 0x196E JUMP JUMPDEST PUSH1 0x13 DUP1 SLOAD PUSH2 0x8F0 SWAP1 PUSH2 0x25F8 JUMP JUMPDEST PUSH1 0x0 SLOAD PUSH1 0x1 PUSH1 0x1 PUSH1 0xA0 SHL SUB AND CALLER EQ PUSH2 0x116D JUMPI PUSH1 0x40 MLOAD PUSH3 0x461BCD PUSH1 0xE5 SHL DUP2 MSTORE PUSH1 0x20 PUSH1 0x4 DUP3 ADD DUP2 SWAP1 MSTORE PUSH1 0x24 DUP3 ADD MSTORE PUSH32 0x4F776E61626C653A2063616C6C6572206973206E6F7420746865206F776E6572 PUSH1 0x44 DUP3 ADD MSTORE PUSH1 0x64 ADD PUSH2 0x16F8 JUMP JUMPDEST PUSH1 0x0 DUP2 DUP1 PUSH1 0x1 GT PUSH2 0x18BE JUMPI PUSH1 0x1 SLOAD DUP2 LT ISZERO PUSH2 0x18BE JUMPI PUSH1 0x0 DUP2 DUP2 MSTORE PUSH1 0x5 PUSH1 0x20 MSTORE PUSH1 0x40 DUP2 KECCAK256 SLOAD SWAP1 PUSH1 0x1 PUSH1 0xE0 SHL DUP3 AND SWAP1 SUB PUSH2 0x18BC JUMPI JUMPDEST DUP1 PUSH1 0x0 SUB PUSH2 0x18B5 JUMPI POP PUSH1 0x0 NOT ADD PUSH1 0x0 DUP2 DUP2 MSTORE PUSH1 0x5 PUSH1 0x20 MSTORE PUSH1 0x40 SWAP1 KECCAK256 SLOAD PUSH2 0x1894 JUMP JUMPDEST SWAP4 SWAP3 POP POP POP JUMP JUMPDEST POP JUMPDEST PUSH1 0x40 MLOAD PUSH32 0xDF2D9B4200000000000000000000000000000000000000000000000000000000 DUP2 MSTORE PUSH1 0x4 ADD PUSH1 0x40 MLOAD DUP1 SWAP2 SUB SWAP1 REVERT JUMPDEST PUSH1 0x0 DUP1 SLOAD PUSH1 0x1 PUSH1 0x1 PUSH1 0xA0 SHL SUB DUP4 DUP2 AND PUSH32 0xFFFFFFFFFFFFFFFFFFFFFFFF0000000000000000000000000000000000000000 DUP4 AND DUP2 OR DUP5 SSTORE PUSH1 0x40 MLOAD SWAP2 SWAP1 SWAP3 AND SWAP3 DUP4 SWAP2 PUSH32 0x8BE0079C531659141344CD1FD0A4F28419497F9722A3DAAFE3B4186F6B6457E0 SWAP2 SWAP1 LOG3 POP POP JUMP JUMPDEST PUSH1 0x0 DUP3 PUSH2 0x1965 DUP6 DUP5 PUSH2 0x1CAD JUMP JUMPDEST EQ SWAP5 SWAP4 POP POP POP POP JUMP JUMPDEST PUSH1 0x1 PUSH1 0x1 PUSH1 0xA0 SHL SUB DUP2 AND PUSH1 0x0 SWAP1 DUP2 MSTORE PUSH1 0x15 PUSH1 0x20 MSTORE PUSH1 0x40 DUP2 KECCAK256 DUP1 SLOAD PUSH1 0xFF NOT AND PUSH1 0x1 SWAP1 DUP2 OR SWAP1 SWAP2 SSTORE PUSH1 0xB DUP1 SLOAD SWAP2 SWAP3 SWAP1 SWAP2 PUSH2 0x19A7 SWAP1 DUP5 SWAP1 PUSH2 0x28AA JUMP JUMPDEST SWAP1 SWAP2 SSTORE POP PUSH2 0x19B8 SWAP1 POP DUP2 PUSH1 0x1 PUSH2 0x1CFA JUMP JUMPDEST PUSH1 0x40 MLOAD PUSH1 0x1 PUSH1 0x1 PUSH1 0xA0 SHL SUB DUP3 AND DUP2 MSTORE PUSH32 0xE11711CD714E06FBBBEA301A8E90822F2F2EA4808E37E3ADF06038F33C53FF27 SWAP1 PUSH1 0x20 ADD PUSH1 0x40 MLOAD DUP1 SWAP2 SUB SWAP1 LOG1 POP JUMP JUMPDEST PUSH1 0x0 DUP2 PUSH1 0x1 GT ISZERO DUP1 ISZERO PUSH2 0x1A0B JUMPI POP PUSH1 0x1 SLOAD DUP3 LT JUMPDEST DUP1 ISZERO PUSH2 0x84B JUMPI POP POP PUSH1 0x0 SWAP1 DUP2 MSTORE PUSH1 0x5 PUSH1 0x20 MSTORE PUSH1 0x40 SWAP1 KECCAK256 SLOAD PUSH1 0x1 PUSH1 0xE0 SHL AND ISZERO SWAP1 JUMP JUMPDEST PUSH1 0x60 PUSH1 0x0 PUSH2 0x1A39 DUP4 PUSH2 0x1D18 JUMP JUMPDEST PUSH1 0x1 ADD SWAP1 POP PUSH1 0x0 DUP2 PUSH8 0xFFFFFFFFFFFFFFFF DUP2 GT ISZERO PUSH2 0x1A59 JUMPI PUSH2 0x1A59 PUSH2 0x235B JUMP JUMPDEST PUSH1 0x40 MLOAD SWAP1 DUP1 DUP3 MSTORE DUP1 PUSH1 0x1F ADD PUSH1 0x1F NOT AND PUSH1 0x20 ADD DUP3 ADD PUSH1 0x40 MSTORE DUP1 ISZERO PUSH2 0x1A83 JUMPI PUSH1 0x20 DUP3 ADD DUP2 DUP1 CALLDATASIZE DUP4 CALLDATACOPY ADD SWAP1 POP JUMPDEST POP SWAP1 POP DUP2 DUP2 ADD PUSH1 0x20 ADD JUMPDEST PUSH1 0x0 NOT ADD PUSH32 0x3031323334353637383961626364656600000000000000000000000000000000 PUSH1 0xA DUP7 MOD BYTE DUP2 MSTORE8 PUSH1 0xA DUP6 DIV SWAP5 POP DUP5 PUSH2 0x1A8D JUMPI POP SWAP4 SWAP3 POP POP POP JUMP JUMPDEST PUSH1 0x60 PUSH1 0x0 PUSH2 0x1ADB DUP4 PUSH1 0x2 PUSH2 0x2661 JUMP JUMPDEST PUSH2 0x1AE6 SWAP1 PUSH1 0x2 PUSH2 0x28AA JUMP JUMPDEST PUSH8 0xFFFFFFFFFFFFFFFF DUP2 GT ISZERO PUSH2 0x1AFE JUMPI PUSH2 0x1AFE PUSH2 0x235B JUMP JUMPDEST PUSH1 0x40 MLOAD SWAP1 DUP1 DUP3 MSTORE DUP1 PUSH1 0x1F ADD PUSH1 0x1F NOT AND PUSH1 0x20 ADD DUP3 ADD PUSH1 0x40 MSTORE DUP1 ISZERO PUSH2 0x1B28 JUMPI PUSH1 0x20 DUP3 ADD DUP2 DUP1 CALLDATASIZE DUP4 CALLDATACOPY ADD SWAP1 POP JUMPDEST POP SWAP1 POP PUSH32 0x3000000000000000000000000000000000000000000000000000000000000000 DUP2 PUSH1 0x0 DUP2 MLOAD DUP2 LT PUSH2 0x1B5F JUMPI PUSH2 0x1B5F PUSH2 0x28BD JUMP JUMPDEST PUSH1 0x20 ADD ADD SWAP1 PUSH1 0x1 PUSH1 0x1 PUSH1 0xF8 SHL SUB NOT AND SWAP1 DUP2 PUSH1 0x0 BYTE SWAP1 MSTORE8 POP PUSH32 0x7800000000000000000000000000000000000000000000000000000000000000 DUP2 PUSH1 0x1 DUP2 MLOAD DUP2 LT PUSH2 0x1BAA JUMPI PUSH2 0x1BAA PUSH2 0x28BD JUMP JUMPDEST PUSH1 0x20 ADD ADD SWAP1 PUSH1 0x1 PUSH1 0x1 PUSH1 0xF8 SHL SUB NOT AND SWAP1 DUP2 PUSH1 0x0 BYTE SWAP1 MSTORE8 POP PUSH1 0x0 PUSH2 0x1BCE DUP5 PUSH1 0x2 PUSH2 0x2661 JUMP JUMPDEST PUSH2 0x1BD9 SWAP1 PUSH1 0x1 PUSH2 0x28AA JUMP JUMPDEST SWAP1 POP JUMPDEST PUSH1 0x1 DUP2 GT ISZERO PUSH2 0x1C5E JUMPI PUSH32 0x3031323334353637383961626364656600000000000000000000000000000000 DUP6 PUSH1 0xF AND PUSH1 0x10 DUP2 LT PUSH2 0x1C1A JUMPI PUSH2 0x1C1A PUSH2 0x28BD JUMP JUMPDEST BYTE PUSH1 0xF8 SHL DUP3 DUP3 DUP2 MLOAD DUP2 LT PUSH2 0x1C30 JUMPI PUSH2 0x1C30 PUSH2 0x28BD JUMP JUMPDEST PUSH1 0x20 ADD ADD SWAP1 PUSH1 0x1 PUSH1 0x1 PUSH1 0xF8 SHL SUB NOT AND SWAP1 DUP2 PUSH1 0x0 BYTE SWAP1 MSTORE8 POP PUSH1 0x4 SWAP5 SWAP1 SWAP5 SHR SWAP4 PUSH2 0x1C57 DUP2 PUSH2 0x28D3 JUMP JUMPDEST SWAP1 POP PUSH2 0x1BDC JUMP JUMPDEST POP DUP4 ISZERO PUSH2 0x18B5 JUMPI PUSH1 0x40 MLOAD PUSH3 0x461BCD PUSH1 0xE5 SHL DUP2 MSTORE PUSH1 0x20 PUSH1 0x4 DUP3 ADD DUP2 SWAP1 MSTORE PUSH1 0x24 DUP3 ADD MSTORE PUSH32 0x537472696E67733A20686578206C656E67746820696E73756666696369656E74 PUSH1 0x44 DUP3 ADD MSTORE PUSH1 0x64 ADD PUSH2 0x16F8 JUMP JUMPDEST PUSH1 0x0 DUP2 DUP2 JUMPDEST DUP5 MLOAD DUP2 LT ISZERO PUSH2 0x1CF2 JUMPI PUSH2 0x1CDE DUP3 DUP7 DUP4 DUP2 MLOAD DUP2 LT PUSH2 0x1CD1 JUMPI PUSH2 0x1CD1 PUSH2 0x28BD JUMP JUMPDEST PUSH1 0x20 MUL PUSH1 0x20 ADD ADD MLOAD PUSH2 0x1DFA JUMP JUMPDEST SWAP2 POP DUP1 PUSH2 0x1CEA DUP2 PUSH2 0x28EA JUMP JUMPDEST SWAP2 POP POP PUSH2 0x1CB2 JUMP JUMPDEST POP SWAP4 SWAP3 POP POP POP JUMP JUMPDEST PUSH2 0x1D14 DUP3 DUP3 PUSH1 0x40 MLOAD DUP1 PUSH1 0x20 ADD PUSH1 0x40 MSTORE DUP1 PUSH1 0x0 DUP2 MSTORE POP PUSH2 0x1E29 JUMP JUMPDEST POP POP JUMP JUMPDEST PUSH1 0x0 DUP1 PUSH27 0x184F03E93FF9F4DAA797ED6E38ED64BF6A1F010000000000000000 DUP4 LT PUSH2 0x1D61 JUMPI PUSH27 0x184F03E93FF9F4DAA797ED6E38ED64BF6A1F010000000000000000 DUP4 DIV SWAP3 POP PUSH1 0x40 ADD JUMPDEST PUSH14 0x4EE2D6D415B85ACEF8100000000 DUP4 LT PUSH2 0x1D8D JUMPI PUSH14 0x4EE2D6D415B85ACEF8100000000 DUP4 DIV SWAP3 POP PUSH1 0x20 ADD JUMPDEST PUSH7 0x2386F26FC10000 DUP4 LT PUSH2 0x1DAB JUMPI PUSH7 0x2386F26FC10000 DUP4 DIV SWAP3 POP PUSH1 0x10 ADD JUMPDEST PUSH4 0x5F5E100 DUP4 LT PUSH2 0x1DC3 JUMPI PUSH4 0x5F5E100 DUP4 DIV SWAP3 POP PUSH1 0x8 ADD JUMPDEST PUSH2 0x2710 DUP4 LT PUSH2 0x1DD7 JUMPI PUSH2 0x2710 DUP4 DIV SWAP3 POP PUSH1 0x4 ADD JUMPDEST PUSH1 0x64 DUP4 LT PUSH2 0x1DE9 JUMPI PUSH1 0x64 DUP4 DIV SWAP3 POP PUSH1 0x2 ADD JUMPDEST PUSH1 0xA DUP4 LT PUSH2 0x84B JUMPI PUSH1 0x1 ADD SWAP3 SWAP2 POP POP JUMP JUMPDEST PUSH1 0x0 DUP2 DUP4 LT PUSH2 0x1E16 JUMPI PUSH1 0x0 DUP3 DUP2 MSTORE PUSH1 0x20 DUP5 SWAP1 MSTORE PUSH1 0x40 SWAP1 KECCAK256 PUSH2 0x18B5 JUMP JUMPDEST PUSH1 0x0 DUP4 DUP2 MSTORE PUSH1 0x20 DUP4 SWAP1 MSTORE PUSH1 0x40 SWAP1 KECCAK256 PUSH2 0x18B5 JUMP JUMPDEST PUSH2 0x1E33 DUP4 DUP4 PUSH2 0x1E96 JUMP JUMPDEST PUSH1 0x1 PUSH1 0x1 PUSH1 0xA0 SHL SUB DUP4 AND EXTCODESIZE ISZERO PUSH2 0xF89 JUMPI PUSH1 0x1 SLOAD DUP3 DUP2 SUB JUMPDEST PUSH2 0x1E5D PUSH1 0x0 DUP7 DUP4 DUP1 PUSH1 0x1 ADD SWAP5 POP DUP7 PUSH2 0x1FC7 JUMP JUMPDEST PUSH2 0x1E7A JUMPI PUSH1 0x40 MLOAD PUSH4 0x68D2BF6B PUSH1 0xE1 SHL DUP2 MSTORE PUSH1 0x4 ADD PUSH1 0x40 MLOAD DUP1 SWAP2 SUB SWAP1 REVERT JUMPDEST DUP2 DUP2 LT PUSH2 0x1E4A JUMPI DUP2 PUSH1 0x1 SLOAD EQ PUSH2 0x1E8F JUMPI PUSH1 0x0 DUP1 REVERT JUMPDEST POP POP POP POP POP JUMP JUMPDEST PUSH1 0x1 SLOAD PUSH1 0x0 DUP3 SWAP1 SUB PUSH2 0x1ED4 JUMPI PUSH1 0x40 MLOAD PUSH32 0xB562E8DD00000000000000000000000000000000000000000000000000000000 DUP2 MSTORE PUSH1 0x4 ADD PUSH1 0x40 MLOAD DUP1 SWAP2 SUB SWAP1 REVERT JUMPDEST PUSH1 0x1 PUSH1 0x1 PUSH1 0xA0 SHL SUB DUP4 AND PUSH1 0x0 DUP2 DUP2 MSTORE PUSH1 0x6 PUSH1 0x20 SWAP1 DUP2 MSTORE PUSH1 0x40 DUP1 DUP4 KECCAK256 DUP1 SLOAD PUSH9 0x10000000000000001 DUP9 MUL ADD SWAP1 SSTORE DUP5 DUP4 MSTORE PUSH1 0x5 SWAP1 SWAP2 MSTORE DUP2 KECCAK256 PUSH1 0x1 DUP6 EQ PUSH1 0xE1 SHL TIMESTAMP PUSH1 0xA0 SHL OR DUP4 OR SWAP1 SSTORE DUP3 DUP5 ADD SWAP1 DUP4 SWAP1 DUP4 SWAP1 PUSH32 0xDDF252AD1BE2C89B69C2B068FC378DAA952BA7F163C4A11628F55A4DF523B3EF DUP2 DUP1 LOG4 PUSH1 0x1 DUP4 ADD JUMPDEST DUP2 DUP2 EQ PUSH2 0x1F83 JUMPI DUP1 DUP4 PUSH1 0x0 PUSH32 0xDDF252AD1BE2C89B69C2B068FC378DAA952BA7F163C4A11628F55A4DF523B3EF PUSH1 0x0 DUP1 LOG4 PUSH1 0x1 ADD PUSH2 0x1F4B JUMP JUMPDEST POP DUP2 PUSH1 0x0 SUB PUSH2 0x1FBE JUMPI PUSH1 0x40 MLOAD PUSH32 0x2E07630000000000000000000000000000000000000000000000000000000000 DUP2 MSTORE PUSH1 0x4 ADD PUSH1 0x40 MLOAD DUP1 SWAP2 SUB SWAP1 REVERT JUMPDEST PUSH1 0x1 SSTORE POP POP POP POP JUMP JUMPDEST PUSH1 0x40 MLOAD PUSH4 0xA85BD01 PUSH1 0xE1 SHL DUP2 MSTORE PUSH1 0x0 SWAP1 PUSH1 0x1 PUSH1 0x1 PUSH1 0xA0 SHL SUB DUP6 AND SWAP1 PUSH4 0x150B7A02 SWAP1 PUSH2 0x1FFC SWAP1 CALLER SWAP1 DUP10 SWAP1 DUP9 SWAP1 DUP9 SWAP1 PUSH1 0x4 ADD PUSH2 0x2903 JUMP JUMPDEST PUSH1 0x20 PUSH1 0x40 MLOAD DUP1 DUP4 SUB DUP2 PUSH1 0x0 DUP8 GAS CALL SWAP3 POP POP POP DUP1 ISZERO PUSH2 0x2037 JUMPI POP PUSH1 0x40 DUP1 MLOAD PUSH1 0x1F RETURNDATASIZE SWAP1 DUP2 ADD PUSH1 0x1F NOT AND DUP3 ADD SWAP1 SWAP3 MSTORE PUSH2 0x2034 SWAP2 DUP2 ADD SWAP1 PUSH2 0x2935 JUMP JUMPDEST PUSH1 0x1 JUMPDEST PUSH2 0x2095 JUMPI RETURNDATASIZE DUP1 DUP1 ISZERO PUSH2 0x2065 JUMPI PUSH1 0x40 MLOAD SWAP2 POP PUSH1 0x1F NOT PUSH1 0x3F RETURNDATASIZE ADD AND DUP3 ADD PUSH1 0x40 MSTORE RETURNDATASIZE DUP3 MSTORE RETURNDATASIZE PUSH1 0x0 PUSH1 0x20 DUP5 ADD RETURNDATACOPY PUSH2 0x206A JUMP JUMPDEST PUSH1 0x60 SWAP2 POP JUMPDEST POP DUP1 MLOAD PUSH1 0x0 SUB PUSH2 0x208D JUMPI PUSH1 0x40 MLOAD PUSH4 0x68D2BF6B PUSH1 0xE1 SHL DUP2 MSTORE PUSH1 0x4 ADD PUSH1 0x40 MLOAD DUP1 SWAP2 SUB SWAP1 REVERT JUMPDEST DUP1 MLOAD DUP2 PUSH1 0x20 ADD REVERT JUMPDEST PUSH1 0x1 PUSH1 0x1 PUSH1 0xE0 SHL SUB NOT AND PUSH4 0xA85BD01 PUSH1 0xE1 SHL EQ SWAP1 POP SWAP5 SWAP4 POP POP POP POP JUMP JUMPDEST PUSH1 0x1 PUSH1 0x1 PUSH1 0xE0 SHL SUB NOT DUP2 AND DUP2 EQ PUSH2 0x170A JUMPI PUSH1 0x0 DUP1 REVERT JUMPDEST PUSH1 0x0 PUSH1 0x20 DUP3 DUP5 SUB SLT ISZERO PUSH2 0x20DA JUMPI PUSH1 0x0 DUP1 REVERT JUMPDEST DUP2 CALLDATALOAD PUSH2 0x18B5 DUP2 PUSH2 0x20B2 JUMP JUMPDEST PUSH1 0x0 JUMPDEST DUP4 DUP2 LT ISZERO PUSH2 0x2100 JUMPI DUP2 DUP2 ADD MLOAD DUP4 DUP3 ADD MSTORE PUSH1 0x20 ADD PUSH2 0x20E8 JUMP JUMPDEST POP POP PUSH1 0x0 SWAP2 ADD MSTORE JUMP JUMPDEST PUSH1 0x0 DUP2 MLOAD DUP1 DUP5 MSTORE PUSH2 0x2121 DUP2 PUSH1 0x20 DUP7 ADD PUSH1 0x20 DUP7 ADD PUSH2 0x20E5 JUMP JUMPDEST PUSH1 0x1F ADD PUSH1 0x1F NOT AND SWAP3 SWAP1 SWAP3 ADD PUSH1 0x20 ADD SWAP3 SWAP2 POP POP JUMP JUMPDEST PUSH1 0x20 DUP2 MSTORE PUSH1 0x0 PUSH2 0x18B5 PUSH1 0x20 DUP4 ADD DUP5 PUSH2 0x2109 JUMP JUMPDEST DUP1 CALLDATALOAD PUSH1 0x1 PUSH1 0x1 PUSH1 0xA0 SHL SUB DUP2 AND DUP2 EQ PUSH2 0x215F JUMPI PUSH1 0x0 DUP1 REVERT JUMPDEST SWAP2 SWAP1 POP JUMP JUMPDEST PUSH1 0x0 PUSH1 0x20 DUP3 DUP5 SUB SLT ISZERO PUSH2 0x2176 JUMPI PUSH1 0x0 DUP1 REVERT JUMPDEST PUSH2 0x18B5 DUP3 PUSH2 0x2148 JUMP JUMPDEST PUSH1 0x0 PUSH1 0x20 DUP3 DUP5 SUB SLT ISZERO PUSH2 0x2191 JUMPI PUSH1 0x0 DUP1 REVERT JUMPDEST POP CALLDATALOAD SWAP2 SWAP1 POP JUMP JUMPDEST PUSH1 0x20 DUP2 MSTORE PUSH2 0x21B2 PUSH1 0x20 DUP3 ADD DUP4 MLOAD PUSH1 0x1 PUSH1 0x1 PUSH1 0xA0 SHL SUB AND SWAP1 MSTORE JUMP JUMPDEST PUSH1 0x0 PUSH1 0x20 DUP4 ADD MLOAD PUSH2 0x21CE PUSH1 0x40 DUP5 ADD DUP3 PUSH1 0x1 PUSH1 0x1 PUSH1 0xA0 SHL SUB AND SWAP1 MSTORE JUMP JUMPDEST POP PUSH1 0x40 DUP4 ADD MLOAD DUP1 ISZERO ISZERO PUSH1 0x60 DUP5 ADD MSTORE POP PUSH1 0x60 DUP4 ADD MLOAD DUP1 ISZERO ISZERO PUSH1 0x80 DUP5 ADD MSTORE POP PUSH1 0x80 DUP4 ADD MLOAD DUP1 ISZERO ISZERO PUSH1 0xA0 DUP5 ADD MSTORE POP PUSH1 0xA0 DUP4 ADD MLOAD DUP1 ISZERO ISZERO PUSH1 0xC0 DUP5 ADD MSTORE POP PUSH1 0xC0 DUP4 ADD MLOAD PUSH4 0xFFFFFFFF DUP2 AND PUSH1 0xE0 DUP5 ADD MSTORE POP PUSH1 0xE0 DUP4 ADD MLOAD PUSH2 0x100 DUP4 DUP2 ADD SWAP2 SWAP1 SWAP2 MSTORE DUP4 ADD MLOAD PUSH2 0x120 DUP1 DUP5 ADD SWAP2 SWAP1 SWAP2 MSTORE DUP4 ADD MLOAD PUSH2 0x140 DUP1 DUP5 ADD SWAP2 SWAP1 SWAP2 MSTORE DUP4 ADD MLOAD PUSH2 0x160 DUP1 DUP5 ADD SWAP2 SWAP1 SWAP2 MSTORE DUP4 ADD MLOAD PUSH2 0x180 DUP1 DUP5 ADD SWAP2 SWAP1 SWAP2 MSTORE DUP4 ADD MLOAD PUSH2 0x1A0 DUP1 DUP5 ADD SWAP2 SWAP1 SWAP2 MSTORE DUP4 ADD MLOAD PUSH2 0x1C0 DUP1 DUP5 ADD SWAP2 SWAP1 SWAP2 MSTORE DUP4 ADD MLOAD PUSH2 0x260 PUSH2 0x1E0 DUP1 DUP6 ADD DUP3 SWAP1 MSTORE PUSH2 0x2293 PUSH2 0x280 DUP7 ADD DUP5 PUSH2 0x2109 JUMP JUMPDEST SWAP3 POP DUP1 DUP7 ADD MLOAD SWAP1 POP PUSH1 0x1F NOT PUSH2 0x200 DUP2 DUP8 DUP7 SUB ADD DUP2 DUP9 ADD MSTORE PUSH2 0x22B4 DUP6 DUP5 PUSH2 0x2109 JUMP JUMPDEST SWAP5 POP DUP1 DUP9 ADD MLOAD SWAP3 POP POP PUSH2 0x220 DUP2 DUP8 DUP7 SUB ADD DUP2 DUP9 ADD MSTORE PUSH2 0x22D3 DUP6 DUP5 PUSH2 0x2109 JUMP JUMPDEST SWAP5 POP DUP1 DUP9 ADD MLOAD SWAP3 POP POP PUSH2 0x240 DUP2 DUP8 DUP7 SUB ADD DUP2 DUP9 ADD MSTORE PUSH2 0x22F2 DUP6 DUP5 PUSH2 0x2109 JUMP JUMPDEST SWAP1 DUP9 ADD MLOAD DUP8 DUP3 SUB SWAP1 SWAP3 ADD DUP5 DUP9 ADD MSTORE SWAP4 POP SWAP1 POP PUSH2 0x230E DUP4 DUP3 PUSH2 0x2109 JUMP JUMPDEST SWAP7 SWAP6 POP POP POP POP POP POP JUMP JUMPDEST DUP1 CALLDATALOAD DUP1 ISZERO ISZERO DUP2 EQ PUSH2 0x215F JUMPI PUSH1 0x0 DUP1 REVERT JUMPDEST PUSH1 0x0 DUP1 PUSH1 0x40 DUP4 DUP6 SUB SLT ISZERO PUSH2 0x233B JUMPI PUSH1 0x0 DUP1 REVERT JUMPDEST PUSH2 0x2344 DUP4 PUSH2 0x2148 JUMP JUMPDEST SWAP2 POP PUSH2 0x2352 PUSH1 0x20 DUP5 ADD PUSH2 0x2318 JUMP JUMPDEST SWAP1 POP SWAP3 POP SWAP3 SWAP1 POP JUMP JUMPDEST PUSH4 0x4E487B71 PUSH1 0xE0 SHL PUSH1 0x0 MSTORE PUSH1 0x41 PUSH1 0x4 MSTORE PUSH1 0x24 PUSH1 0x0 REVERT JUMPDEST PUSH1 0x40 MLOAD PUSH2 0x160 DUP2 ADD PUSH8 0xFFFFFFFFFFFFFFFF DUP2 GT DUP3 DUP3 LT OR ISZERO PUSH2 0x2395 JUMPI PUSH2 0x2395 PUSH2 0x235B JUMP JUMPDEST PUSH1 0x40 MSTORE SWAP1 JUMP JUMPDEST PUSH1 0x40 MLOAD PUSH1 0x1F DUP3 ADD PUSH1 0x1F NOT AND DUP2 ADD PUSH8 0xFFFFFFFFFFFFFFFF DUP2 GT DUP3 DUP3 LT OR ISZERO PUSH2 0x23C4 JUMPI PUSH2 0x23C4 PUSH2 0x235B JUMP JUMPDEST PUSH1 0x40 MSTORE SWAP2 SWAP1 POP JUMP JUMPDEST DUP1 CALLDATALOAD PUSH4 0xFFFFFFFF DUP2 AND DUP2 EQ PUSH2 0x215F JUMPI PUSH1 0x0 DUP1 REVERT JUMPDEST PUSH1 0x0 PUSH8 0xFFFFFFFFFFFFFFFF DUP3 GT ISZERO PUSH2 0x23FA JUMPI PUSH2 0x23FA PUSH2 0x235B JUMP JUMPDEST POP PUSH1 0x1F ADD PUSH1 0x1F NOT AND PUSH1 0x20 ADD SWAP1 JUMP JUMPDEST PUSH1 0x0 DUP3 PUSH1 0x1F DUP4 ADD SLT PUSH2 0x2419 JUMPI PUSH1 0x0 DUP1 REVERT JUMPDEST DUP2 CALLDATALOAD PUSH2 0x242C PUSH2 0x2427 DUP3 PUSH2 0x23E0 JUMP JUMPDEST PUSH2 0x239B JUMP JUMPDEST DUP2 DUP2 MSTORE DUP5 PUSH1 0x20 DUP4 DUP7 ADD ADD GT ISZERO PUSH2 0x2441 JUMPI PUSH1 0x0 DUP1 REVERT JUMPDEST DUP2 PUSH1 0x20 DUP6 ADD PUSH1 0x20 DUP4 ADD CALLDATACOPY PUSH1 0x0 SWAP2 DUP2 ADD PUSH1 0x20 ADD SWAP2 SWAP1 SWAP2 MSTORE SWAP4 SWAP3 POP POP POP JUMP JUMPDEST PUSH1 0x0 PUSH1 0x20 DUP3 DUP5 SUB SLT ISZERO PUSH2 0x2470 JUMPI PUSH1 0x0 DUP1 REVERT JUMPDEST DUP2 CALLDATALOAD PUSH8 0xFFFFFFFFFFFFFFFF DUP1 DUP3 GT ISZERO PUSH2 0x2488 JUMPI PUSH1 0x0 DUP1 REVERT JUMPDEST SWAP1 DUP4 ADD SWAP1 PUSH2 0x160 DUP3 DUP7 SUB SLT ISZERO PUSH2 0x249D JUMPI PUSH1 0x0 DUP1 REVERT JUMPDEST PUSH2 0x24A5 PUSH2 0x2371 JUMP JUMPDEST PUSH2 0x24AE DUP4 PUSH2 0x23CC JUMP JUMPDEST DUP2 MSTORE PUSH1 0x20 DUP4 ADD CALLDATALOAD PUSH1 0x20 DUP3 ADD MSTORE PUSH1 0x40 DUP4 ADD CALLDATALOAD PUSH1 0x40 DUP3 ADD MSTORE PUSH1 0x60 DUP4 ADD CALLDATALOAD PUSH1 0x60 DUP3 ADD MSTORE PUSH1 0x80 DUP4 ADD CALLDATALOAD PUSH1 0x80 DUP3 ADD MSTORE PUSH1 0xA0 DUP4 ADD CALLDATALOAD PUSH1 0xA0 DUP3 ADD MSTORE PUSH1 0xC0 DUP4 ADD CALLDATALOAD DUP3 DUP2 GT ISZERO PUSH2 0x24F4 JUMPI PUSH1 0x0 DUP1 REVERT JUMPDEST PUSH2 0x2500 DUP8 DUP3 DUP7 ADD PUSH2 0x2408 JUMP JUMPDEST PUSH1 0xC0 DUP4 ADD MSTORE POP PUSH1 0xE0 DUP4 ADD CALLDATALOAD DUP3 DUP2 GT ISZERO PUSH2 0x2518 JUMPI PUSH1 0x0 DUP1 REVERT JUMPDEST PUSH2 0x2524 DUP8 DUP3 DUP7 ADD PUSH2 0x2408 JUMP JUMPDEST PUSH1 0xE0 DUP4 ADD MSTORE POP PUSH2 0x100 DUP1 DUP5 ADD CALLDATALOAD DUP4 DUP2 GT ISZERO PUSH2 0x253E JUMPI PUSH1 0x0 DUP1 REVERT JUMPDEST PUSH2 0x254A DUP9 DUP3 DUP8 ADD PUSH2 0x2408 JUMP JUMPDEST DUP3 DUP5 ADD MSTORE POP POP PUSH2 0x120 SWAP2 POP PUSH2 0x2560 DUP3 DUP5 ADD PUSH2 0x2318 JUMP JUMPDEST DUP3 DUP3 ADD MSTORE PUSH2 0x140 SWAP2 POP PUSH2 0x2574 DUP3 DUP5 ADD PUSH2 0x2318 JUMP JUMPDEST SWAP2 DUP2 ADD SWAP2 SWAP1 SWAP2 MSTORE SWAP5 SWAP4 POP POP POP POP JUMP JUMPDEST PUSH1 0x0 DUP1 PUSH1 0x20 DUP4 DUP6 SUB SLT ISZERO PUSH2 0x2596 JUMPI PUSH1 0x0 DUP1 REVERT JUMPDEST DUP3 CALLDATALOAD PUSH8 0xFFFFFFFFFFFFFFFF DUP1 DUP3 GT ISZERO PUSH2 0x25AE JUMPI PUSH1 0x0 DUP1 REVERT JUMPDEST DUP2 DUP6 ADD SWAP2 POP DUP6 PUSH1 0x1F DUP4 ADD SLT PUSH2 0x25C2 JUMPI PUSH1 0x0 DUP1 REVERT JUMPDEST DUP2 CALLDATALOAD DUP2 DUP2 GT ISZERO PUSH2 0x25D1 JUMPI PUSH1 0x0 DUP1 REVERT JUMPDEST DUP7 PUSH1 0x20 DUP3 PUSH1 0x5 SHL DUP6 ADD ADD GT ISZERO PUSH2 0x25E6 JUMPI PUSH1 0x0 DUP1 REVERT JUMPDEST PUSH1 0x20 SWAP3 SWAP1 SWAP3 ADD SWAP7 SWAP2 SWAP6 POP SWAP1 SWAP4 POP POP POP POP JUMP JUMPDEST PUSH1 0x1 DUP2 DUP2 SHR SWAP1 DUP3 AND DUP1 PUSH2 0x260C JUMPI PUSH1 0x7F DUP3 AND SWAP2 POP JUMPDEST PUSH1 0x20 DUP3 LT DUP2 SUB PUSH2 0x262C JUMPI PUSH4 0x4E487B71 PUSH1 0xE0 SHL PUSH1 0x0 MSTORE PUSH1 0x22 PUSH1 0x4 MSTORE PUSH1 0x24 PUSH1 0x0 REVERT JUMPDEST POP SWAP2 SWAP1 POP JUMP JUMPDEST PUSH4 0x4E487B71 PUSH1 0xE0 SHL PUSH1 0x0 MSTORE PUSH1 0x11 PUSH1 0x4 MSTORE PUSH1 0x24 PUSH1 0x0 REVERT JUMPDEST PUSH1 0xFF DUP3 DUP2 AND DUP3 DUP3 AND SUB SWAP1 DUP2 GT ISZERO PUSH2 0x84B JUMPI PUSH2 0x84B PUSH2 0x2632 JUMP JUMPDEST DUP1 DUP3 MUL DUP2 ISZERO DUP3 DUP3 DIV DUP5 EQ OR PUSH2 0x84B JUMPI PUSH2 0x84B PUSH2 0x2632 JUMP JUMPDEST PUSH1 0x0 DUP3 PUSH2 0x2695 JUMPI PUSH4 0x4E487B71 PUSH1 0xE0 SHL PUSH1 0x0 MSTORE PUSH1 0x12 PUSH1 0x4 MSTORE PUSH1 0x24 PUSH1 0x0 REVERT JUMPDEST POP DIV SWAP1 JUMP JUMPDEST PUSH1 0x1F DUP3 GT ISZERO PUSH2 0xF89 JUMPI PUSH1 0x0 DUP2 DUP2 MSTORE PUSH1 0x20 DUP2 KECCAK256 PUSH1 0x1F DUP6 ADD PUSH1 0x5 SHR DUP2 ADD PUSH1 0x20 DUP7 LT ISZERO PUSH2 0x26C1 JUMPI POP DUP1 JUMPDEST PUSH1 0x1F DUP6 ADD PUSH1 0x5 SHR DUP3 ADD SWAP2 POP JUMPDEST DUP2 DUP2 LT ISZERO PUSH2 0x26E0 JUMPI DUP3 DUP2 SSTORE PUSH1 0x1 ADD PUSH2 0x26CD JUMP JUMPDEST POP POP POP POP POP POP JUMP JUMPDEST DUP2 MLOAD PUSH8 0xFFFFFFFFFFFFFFFF DUP2 GT ISZERO PUSH2 0x2702 JUMPI PUSH2 0x2702 PUSH2 0x235B JUMP JUMPDEST PUSH2 0x2716 DUP2 PUSH2 0x2710 DUP5 SLOAD PUSH2 0x25F8 JUMP JUMPDEST DUP5 PUSH2 0x269A JUMP JUMPDEST PUSH1 0x20 DUP1 PUSH1 0x1F DUP4 GT PUSH1 0x1 DUP2 EQ PUSH2 0x274B JUMPI PUSH1 0x0 DUP5 ISZERO PUSH2 0x2733 JUMPI POP DUP6 DUP4 ADD MLOAD JUMPDEST PUSH1 0x0 NOT PUSH1 0x3 DUP7 SWAP1 SHL SHR NOT AND PUSH1 0x1 DUP6 SWAP1 SHL OR DUP6 SSTORE PUSH2 0x26E0 JUMP JUMPDEST PUSH1 0x0 DUP6 DUP2 MSTORE PUSH1 0x20 DUP2 KECCAK256 PUSH1 0x1F NOT DUP7 AND SWAP2 JUMPDEST DUP3 DUP2 LT ISZERO PUSH2 0x277A JUMPI DUP9 DUP7 ADD MLOAD DUP3 SSTORE SWAP5 DUP5 ADD SWAP5 PUSH1 0x1 SWAP1 SWAP2 ADD SWAP1 DUP5 ADD PUSH2 0x275B JUMP JUMPDEST POP DUP6 DUP3 LT ISZERO PUSH2 0x2798 JUMPI DUP8 DUP6 ADD MLOAD PUSH1 0x0 NOT PUSH1 0x3 DUP9 SWAP1 SHL PUSH1 0xF8 AND SHR NOT AND DUP2 SSTORE JUMPDEST POP POP POP POP POP PUSH1 0x1 SWAP1 DUP2 SHL ADD SWAP1 SSTORE POP JUMP JUMPDEST PUSH1 0x0 PUSH1 0x20 DUP3 DUP5 SUB SLT ISZERO PUSH2 0x27BA JUMPI PUSH1 0x0 DUP1 REVERT JUMPDEST DUP2 MLOAD PUSH8 0xFFFFFFFFFFFFFFFF DUP2 GT ISZERO PUSH2 0x27D1 JUMPI PUSH1 0x0 DUP1 REVERT JUMPDEST DUP3 ADD PUSH1 0x1F DUP2 ADD DUP5 SGT PUSH2 0x27E2 JUMPI PUSH1 0x0 DUP1 REVERT JUMPDEST DUP1 MLOAD PUSH2 0x27F0 PUSH2 0x2427 DUP3 PUSH2 0x23E0 JUMP JUMPDEST DUP2 DUP2 MSTORE DUP6 PUSH1 0x20 DUP4 DUP6 ADD ADD GT ISZERO PUSH2 0x2805 JUMPI PUSH1 0x0 DUP1 REVERT JUMPDEST PUSH2 0x2816 DUP3 PUSH1 0x20 DUP4 ADD PUSH1 0x20 DUP7 ADD PUSH2 0x20E5 JUMP JUMPDEST SWAP6 SWAP5 POP POP POP POP POP JUMP JUMPDEST PUSH1 0x0 DUP6 MLOAD PUSH2 0x2831 DUP2 DUP5 PUSH1 0x20 DUP11 ADD PUSH2 0x20E5 JUMP JUMPDEST DUP6 MLOAD SWAP1 DUP4 ADD SWAP1 PUSH2 0x2845 DUP2 DUP4 PUSH1 0x20 DUP11 ADD PUSH2 0x20E5 JUMP JUMPDEST PUSH32 0x2F00000000000000000000000000000000000000000000000000000000000000 SWAP2 ADD DUP2 DUP2 MSTORE DUP6 MLOAD SWAP1 SWAP2 SWAP1 PUSH2 0x2881 DUP2 PUSH1 0x1 DUP6 ADD PUSH1 0x20 DUP11 ADD PUSH2 0x20E5 JUMP JUMPDEST PUSH1 0x1 SWAP3 ADD SWAP2 DUP3 ADD MSTORE DUP4 MLOAD PUSH2 0x289C DUP2 PUSH1 0x2 DUP5 ADD PUSH1 0x20 DUP9 ADD PUSH2 0x20E5 JUMP JUMPDEST ADD PUSH1 0x2 ADD SWAP7 SWAP6 POP POP POP POP POP POP JUMP JUMPDEST DUP1 DUP3 ADD DUP1 DUP3 GT ISZERO PUSH2 0x84B JUMPI PUSH2 0x84B PUSH2 0x2632 JUMP JUMPDEST PUSH4 0x4E487B71 PUSH1 0xE0 SHL PUSH1 0x0 MSTORE PUSH1 0x32 PUSH1 0x4 MSTORE PUSH1 0x24 PUSH1 0x0 REVERT JUMPDEST PUSH1 0x0 DUP2 PUSH2 0x28E2 JUMPI PUSH2 0x28E2 PUSH2 0x2632 JUMP JUMPDEST POP PUSH1 0x0 NOT ADD SWAP1 JUMP JUMPDEST PUSH1 0x0 PUSH1 0x1 DUP3 ADD PUSH2 0x28FC JUMPI PUSH2 0x28FC PUSH2 0x2632 JUMP JUMPDEST POP PUSH1 0x1 ADD SWAP1 JUMP JUMPDEST PUSH1 0x0 PUSH1 0x1 PUSH1 0x1 PUSH1 0xA0 SHL SUB DUP1 DUP8 AND DUP4 MSTORE DUP1 DUP7 AND PUSH1 0x20 DUP5 ADD MSTORE POP DUP4 PUSH1 0x40 DUP4 ADD MSTORE PUSH1 0x80 PUSH1 0x60 DUP4 ADD MSTORE PUSH2 0x230E PUSH1 0x80 DUP4 ADD DUP5 PUSH2 0x2109 JUMP JUMPDEST PUSH1 0x0 PUSH1 0x20 DUP3 DUP5 SUB SLT ISZERO PUSH2 0x2947 JUMPI PUSH1 0x0 DUP1 REVERT JUMPDEST DUP2 MLOAD PUSH2 0x18B5 DUP2 PUSH2 0x20B2 JUMP INVALID LOG2 PUSH5 0x6970667358 0x22 SLT KECCAK256 DUP10 SWAP11 0xFB SWAP5 PUSH31 0x59078A5E90A68C86B8950C2E08F6FEA099C3F8412B56C670D3442864736F6C PUSH4 0x43000811 STOP CALLER LOG2 PUSH5 0x6970667358 0x22 SLT KECCAK256 JUMPDEST 0xF 0x4C XOR 0x25 0xBC 0xD0 0x28 0xE2 GT PUSH5 0xAEE6BDB411 0xA6 0xEC CALLCODE SWAP1 DUP5 GAS PUSH23 0xCF8AB4C141220E4C3064736F6C63430008110033000000 "},"methodIdentifiers":{"createEvent((uint32,uint256,uint256,uint256,uint256,uint256,string,string,string,string,string,bool,bool))":"df25b8a8","events(uint256)":"0b791430","fee()":"ddca3f43","getEvents(uint256,uint256,uint256)":"0ea4e6a0","owner()":"8da5cb5b","renounceOwnership()":"715018a6","setTokenUri(string)":"0675b7c6","tokenUriServer()":"a2df578a","transferOwnership(address)":"f2fde38b","withdraw()":"3ccfd60b"}}}}}