{"_format":"hh-sol-artifact-1","contractName":"Event","sourceName":"contracts/Event.sol","abi":[{"inputs":[{"components":[{"internalType":"string","name":"name","type":"string"},{"internalType":"string","name":"description","type":"string"},{"internalType":"string","name":"link","type":"string"},{"internalType":"uint256","name":"maxParticipants","type":"uint256"},{"internalType":"uint256","name":"registrationEnd","type":"uint256"},{"internalType":"uint256","name":"start","type":"uint256"},{"internalType":"uint256","name":"end","type":"uint256"},{"internalType":"uint256","name":"ticketPrice","type":"uint256"},{"internalType":"uint256","name":"preSaleTicketPrice","type":"uint256"}],"internalType":"struct Utils.EventStruct","name":"eventData","type":"tuple"},{"internalType":"address","name":"owner","type":"address"},{"internalType":"uint256","name":"fee","type":"uint256"}],"stateMutability":"nonpayable","type":"constructor"},{"inputs":[],"name":"AddressNotWhitelisted","type":"error"},{"inputs":[],"name":"AlreadyCheckedIn","type":"error"},{"inputs":[],"name":"AlreadyRegistered","type":"error"},{"inputs":[],"name":"CheckInNotAvailable","type":"error"},{"inputs":[],"name":"EventAlreadyStarted","type":"error"},{"inputs":[],"name":"NoSeatsAvailable","type":"error"},{"inputs":[],"name":"NotModerator","type":"error"},{"inputs":[],"name":"NotRegistered","type":"error"},{"inputs":[],"name":"ProvideRequiredArguments","type":"error"},{"inputs":[],"name":"RegistrationClosed","type":"error"},{"inputs":[],"name":"TransferFailed","type":"error"},{"inputs":[],"name":"ValueNotEnough","type":"error"},{"anonymous":false,"inputs":[{"indexed":true,"internalType":"address","name":"previousOwner","type":"address"},{"indexed":true,"internalType":"address","name":"newOwner","type":"address"}],"name":"OwnershipTransferred","type":"event"},{"anonymous":false,"inputs":[{"indexed":false,"internalType":"address","name":"participant","type":"address"}],"name":"ParticipantChecked","type":"event"},{"anonymous":false,"inputs":[{"indexed":false,"internalType":"address","name":"participant","type":"address"}],"name":"ParticipantRegistered","type":"event"},{"inputs":[{"internalType":"address","name":"addr","type":"address"},{"internalType":"bool","name":"status","type":"bool"}],"name":"addModerator","outputs":[],"stateMutability":"nonpayable","type":"function"},{"inputs":[{"internalType":"uint256","name":"_start","type":"uint256"},{"internalType":"uint256","name":"_end","type":"uint256"},{"internalType":"uint256","name":"_registrationEnd","type":"uint256"}],"name":"changeEventDates","outputs":[],"stateMutability":"nonpayable","type":"function"},{"inputs":[{"internalType":"string","name":"_name","type":"string"},{"internalType":"string","name":"_description","type":"string"},{"internalType":"string","name":"_link","type":"string"},{"internalType":"uint256","name":"_maxParticipants","type":"uint256"}],"name":"changeEventInfo","outputs":[],"stateMutability":"nonpayable","type":"function"},{"inputs":[{"internalType":"uint256","name":"_ticketPrice","type":"uint256"},{"internalType":"uint256","name":"_preSalePrice","type":"uint256"}],"name":"changeTicketPrices","outputs":[],"stateMutability":"nonpayable","type":"function"},{"inputs":[{"internalType":"bytes32","name":"rootHash","type":"bytes32"}],"name":"changeWhitelistRoot","outputs":[],"stateMutability":"nonpayable","type":"function"},{"inputs":[{"internalType":"address","name":"participant","type":"address"}],"name":"checkIn","outputs":[],"stateMutability":"nonpayable","type":"function"},{"inputs":[],"name":"checkedParticipantCount","outputs":[{"internalType":"uint256","name":"","type":"uint256"}],"stateMutability":"view","type":"function"},{"inputs":[{"internalType":"address","name":"","type":"address"}],"name":"checkedParticipants","outputs":[{"internalType":"bool","name":"","type":"bool"}],"stateMutability":"view","type":"function"},{"inputs":[],"name":"description","outputs":[{"internalType":"string","name":"","type":"string"}],"stateMutability":"view","type":"function"},{"inputs":[],"name":"end","outputs":[{"internalType":"uint256","name":"","type":"uint256"}],"stateMutability":"view","type":"function"},{"inputs":[{"internalType":"uint256","name":"currTimestamp","type":"uint256"}],"name":"getEventInfo","outputs":[{"components":[{"internalType":"string","name":"name","type":"string"},{"internalType":"string","name":"description","type":"string"},{"internalType":"string","name":"link","type":"string"},{"internalType":"uint256","name":"maxParticipants","type":"uint256"},{"internalType":"uint256","name":"registrationEnd","type":"uint256"},{"internalType":"uint256","name":"start","type":"uint256"},{"internalType":"uint256","name":"end","type":"uint256"},{"internalType":"uint256","name":"ticketPrice","type":"uint256"},{"internalType":"uint256","name":"preSaleTicketPrice","type":"uint256"},{"internalType":"uint256","name":"registeredParticipantCount","type":"uint256"},{"internalType":"uint256","name":"checkedParticipantCount","type":"uint256"},{"internalType":"bool","name":"registrationOpen","type":"bool"},{"internalType":"bool","name":"onlyWhitelistRegistration","type":"bool"},{"internalType":"bool","name":"isRegistered","type":"bool"},{"internalType":"bool","name":"isChecked","type":"bool"},{"internalType":"address","name":"addr","type":"address"}],"internalType":"struct Utils.EventInfoStruct","name":"","type":"tuple"}],"stateMutability":"view","type":"function"},{"inputs":[{"internalType":"uint256","name":"currTimestamp","type":"uint256"}],"name":"getRegistrationOpen","outputs":[{"internalType":"uint8","name":"","type":"uint8"}],"stateMutability":"view","type":"function"},{"inputs":[],"name":"link","outputs":[{"internalType":"string","name":"","type":"string"}],"stateMutability":"view","type":"function"},{"inputs":[],"name":"maxParticipants","outputs":[{"internalType":"uint256","name":"","type":"uint256"}],"stateMutability":"view","type":"function"},{"inputs":[{"internalType":"address","name":"","type":"address"}],"name":"moderators","outputs":[{"internalType":"bool","name":"","type":"bool"}],"stateMutability":"view","type":"function"},{"inputs":[],"name":"name","outputs":[{"internalType":"string","name":"","type":"string"}],"stateMutability":"view","type":"function"},{"inputs":[],"name":"onlyWhitelistRegistration","outputs":[{"internalType":"bool","name":"","type":"bool"}],"stateMutability":"view","type":"function"},{"inputs":[],"name":"owner","outputs":[{"internalType":"address","name":"","type":"address"}],"stateMutability":"view","type":"function"},{"inputs":[],"name":"parentContractAddr","outputs":[{"internalType":"address","name":"","type":"address"}],"stateMutability":"view","type":"function"},{"inputs":[],"name":"parentContractFee","outputs":[{"internalType":"uint256","name":"","type":"uint256"}],"stateMutability":"view","type":"function"},{"inputs":[{"internalType":"address","name":"","type":"address"}],"name":"participants","outputs":[{"internalType":"bool","name":"","type":"bool"}],"stateMutability":"view","type":"function"},{"inputs":[],"name":"preSaleTicketPrice","outputs":[{"internalType":"uint256","name":"","type":"uint256"}],"stateMutability":"view","type":"function"},{"inputs":[],"name":"publicRegister","outputs":[],"stateMutability":"payable","type":"function"},{"inputs":[],"name":"registeredParticipantCount","outputs":[{"internalType":"uint256","name":"","type":"uint256"}],"stateMutability":"view","type":"function"},{"inputs":[],"name":"registrationEnd","outputs":[{"internalType":"uint256","name":"","type":"uint256"}],"stateMutability":"view","type":"function"},{"inputs":[],"name":"registrationOpen","outputs":[{"internalType":"bool","name":"","type":"bool"}],"stateMutability":"view","type":"function"},{"inputs":[],"name":"renounceOwnership","outputs":[],"stateMutability":"nonpayable","type":"function"},{"inputs":[],"name":"start","outputs":[{"internalType":"uint256","name":"","type":"uint256"}],"stateMutability":"view","type":"function"},{"inputs":[],"name":"ticketPrice","outputs":[{"internalType":"uint256","name":"","type":"uint256"}],"stateMutability":"view","type":"function"},{"inputs":[{"internalType":"bool","name":"_isOpen","type":"bool"},{"internalType":"bool","name":"_onlyWhitelist","type":"bool"}],"name":"toggleRegistration","outputs":[],"stateMutability":"nonpayable","type":"function"},{"inputs":[{"internalType":"address","name":"newOwner","type":"address"}],"name":"transferOwnership","outputs":[],"stateMutability":"nonpayable","type":"function"},{"inputs":[{"internalType":"bytes32[]","name":"_proof","type":"bytes32[]"}],"name":"whitelistRegister","outputs":[],"stateMutability":"payable","type":"function"},{"inputs":[],"name":"whitelistRoot","outputs":[{"internalType":"bytes32","name":"","type":"bytes32"}],"stateMutability":"view","type":"function"},{"inputs":[],"name":"withdraw","outputs":[],"stateMutability":"nonpayable","type":"function"}],"bytecode":"0x60806040526001600060156101000a81548160ff0219169083151502179055507f16d95910a21726a3e7b59a8c6166b355396434419809cb902e2063555b8d60de60001b600a553480156200005357600080fd5b50604051620037a2380380620037a2833981810160405281019062000079919062000859565b620000996200008d6200020460201b60201c565b6200020c60201b60201c565b60008360a001511480620000b1575060008360c00151145b15620000e9576040517f12d0cf0200000000000000000000000000000000000000000000000000000000815260040160405180910390fd5b8260000151600b9080519060200190620001059291906200040e565b508260200151600c9080519060200190620001229291906200040e565b508260400151600d90805190602001906200013f9291906200040e565b5082606001516001819055508260a001516003819055508260c001516004819055508260e00151600781905550826101000151600881905550600083608001510362000196578260a00151600281905550620001a2565b82608001516002819055505b33601160006101000a81548173ffffffffffffffffffffffffffffffffffffffff021916908373ffffffffffffffffffffffffffffffffffffffff16021790555080600981905550620001fb82620002d060201b60201c565b50505062000a53565b600033905090565b60008060009054906101000a900473ffffffffffffffffffffffffffffffffffffffff169050816000806101000a81548173ffffffffffffffffffffffffffffffffffffffff021916908373ffffffffffffffffffffffffffffffffffffffff1602179055508173ffffffffffffffffffffffffffffffffffffffff168173ffffffffffffffffffffffffffffffffffffffff167f8be0079c531659141344cd1fd0a4f28419497f9722a3daafe3b4186f6b6457e060405160405180910390a35050565b620002e06200020460201b60201c565b73ffffffffffffffffffffffffffffffffffffffff1662000306620003e560201b60201c565b73ffffffffffffffffffffffffffffffffffffffff16146200035f576040517f08c379a0000000000000000000000000000000000000000000000000000000008152600401620003569062000935565b60405180910390fd5b600073ffffffffffffffffffffffffffffffffffffffff168173ffffffffffffffffffffffffffffffffffffffff1603620003d1576040517f08c379a0000000000000000000000000000000000000000000000000000000008152600401620003c890620009cd565b60405180910390fd5b620003e2816200020c60201b60201c565b50565b60008060009054906101000a900473ffffffffffffffffffffffffffffffffffffffff16905090565b8280546200041c9062000a1e565b90600052602060002090601f0160209004810192826200044057600085556200048c565b82601f106200045b57805160ff19168380011785556200048c565b828001600101855582156200048c579182015b828111156200048b5782518255916020019190600101906200046e565b5b5090506200049b91906200049f565b5090565b5b80821115620004ba576000816000905550600101620004a0565b5090565b6000604051905090565b600080fd5b600080fd5b600080fd5b6000601f19601f8301169050919050565b7f4e487b7100000000000000000000000000000000000000000000000000000000600052604160045260246000fd5b6200052282620004d7565b810181811067ffffffffffffffff82111715620005445762000543620004e8565b5b80604052505050565b600062000559620004be565b905062000567828262000517565b919050565b600080fd5b600080fd5b600080fd5b600067ffffffffffffffff821115620005995762000598620004e8565b5b620005a482620004d7565b9050602081019050919050565b60005b83811015620005d1578082015181840152602081019050620005b4565b83811115620005e1576000848401525b50505050565b6000620005fe620005f8846200057b565b6200054d565b9050828152602081018484840111156200061d576200061c62000576565b5b6200062a848285620005b1565b509392505050565b600082601f8301126200064a576200064962000571565b5b81516200065c848260208601620005e7565b91505092915050565b6000819050919050565b6200067a8162000665565b81146200068657600080fd5b50565b6000815190506200069a816200066f565b92915050565b60006101208284031215620006ba57620006b9620004d2565b5b620006c76101206200054d565b9050600082015167ffffffffffffffff811115620006ea57620006e96200056c565b5b620006f88482850162000632565b600083015250602082015167ffffffffffffffff8111156200071f576200071e6200056c565b5b6200072d8482850162000632565b602083015250604082015167ffffffffffffffff8111156200075457620007536200056c565b5b620007628482850162000632565b6040830152506060620007788482850162000689565b60608301525060806200078e8482850162000689565b60808301525060a0620007a48482850162000689565b60a08301525060c0620007ba8482850162000689565b60c08301525060e0620007d08482850162000689565b60e083015250610100620007e78482850162000689565b6101008301525092915050565b600073ffffffffffffffffffffffffffffffffffffffff82169050919050565b60006200082182620007f4565b9050919050565b620008338162000814565b81146200083f57600080fd5b50565b600081519050620008538162000828565b92915050565b600080600060608486031215620008755762000874620004c8565b5b600084015167ffffffffffffffff811115620008965762000895620004cd565b5b620008a486828701620006a0565b9350506020620008b78682870162000842565b9250506040620008ca8682870162000689565b9150509250925092565b600082825260208201905092915050565b7f4f776e61626c653a2063616c6c6572206973206e6f7420746865206f776e6572600082015250565b60006200091d602083620008d4565b91506200092a82620008e5565b602082019050919050565b6000602082019050818103600083015262000950816200090e565b9050919050565b7f4f776e61626c653a206e6577206f776e657220697320746865207a65726f206160008201527f6464726573730000000000000000000000000000000000000000000000000000602082015250565b6000620009b5602683620008d4565b9150620009c28262000957565b604082019050919050565b60006020820190508181036000830152620009e881620009a6565b9050919050565b7f4e487b7100000000000000000000000000000000000000000000000000000000600052602260045260246000fd5b6000600282049050600182168062000a3757607f821691505b60208210810362000a4d5762000a4c620009ef565b5b50919050565b612d3f8062000a636000396000f3fe6080604052600436106101f85760003560e01c80637fd34e921161010d578063c6a7cbc9116100a0578063ead121111161006f578063ead12111146106cd578063efbe1c1c1461070a578063f2fde38b14610735578063f34094a71461075e578063fe1e2f5114610768576101f8565b8063c6a7cbc914610627578063c7cac60014610650578063d9a59e331461067b578063dae076c8146106a4576101f8565b8063be9a6555116100dc578063be9a65551461058c578063bffa3123146105b7578063c025e686146105e0578063c4625ba3146105fc576101f8565b80637fd34e92146104e25780638121e42d1461050b5780638818ed38146105365780638da5cb5b14610561576101f8565b806324924bf7116101905780636c9de4ef1161015f5780636c9de4ef14610421578063715018a61461044a5780637284e41614610461578063736f88cd1461048c5780637de33aec146104b7576101f8565b806324924bf71461038b578063336df106146103b6578063386bfc98146103df5780633ccfd60b1461040a576101f8565b806313446a75116101cc57806313446a75146102bb57806314d0f1ba146102e65780631c4695f4146103235780631d645b121461034e576101f8565b8062f4494f146101fd57806306fdde031461022857806309e69ede146102535780631209b1f614610290575b600080fd5b34801561020957600080fd5b506102126107a5565b60405161021f919061204b565b60405180910390f35b34801561023457600080fd5b5061023d6107ab565b60405161024a91906120ff565b60405180910390f35b34801561025f57600080fd5b5061027a60048036038101906102759190612193565b610839565b60405161028791906121db565b60405180910390f35b34801561029c57600080fd5b506102a5610859565b6040516102b2919061204b565b60405180910390f35b3480156102c757600080fd5b506102d061085f565b6040516102dd919061204b565b60405180910390f35b3480156102f257600080fd5b5061030d60048036038101906103089190612193565b610865565b60405161031a91906121db565b60405180910390f35b34801561032f57600080fd5b50610338610885565b60405161034591906120ff565b60405180910390f35b34801561035a57600080fd5b5061037560048036038101906103709190612222565b610913565b604051610382919061242c565b60405180910390f35b34801561039757600080fd5b506103a0610c5a565b6040516103ad919061204b565b60405180910390f35b3480156103c257600080fd5b506103dd60048036038101906103d8919061247a565b610c60565b005b3480156103eb57600080fd5b506103f4610d37565b60405161040191906124d3565b60405180910390f35b34801561041657600080fd5b5061041f610d3d565b005b34801561042d57600080fd5b50610448600480360381019061044391906124ee565b610fc1565b005b34801561045657600080fd5b5061045f611075565b005b34801561046d57600080fd5b506104766110fd565b60405161048391906120ff565b60405180910390f35b34801561049857600080fd5b506104a161118b565b6040516104ae91906121db565b60405180910390f35b3480156104c357600080fd5b506104cc61119e565b6040516104d9919061204b565b60405180910390f35b3480156104ee57600080fd5b506105096004803603810190610504919061252e565b6111a4565b005b34801561051757600080fd5b50610520611232565b60405161052d919061204b565b60405180910390f35b34801561054257600080fd5b5061054b611238565b604051610558919061257d565b60405180910390f35b34801561056d57600080fd5b5061057661125e565b604051610583919061257d565b60405180910390f35b34801561059857600080fd5b506105a1611287565b6040516105ae919061204b565b60405180910390f35b3480156105c357600080fd5b506105de60048036038101906105d99190612598565b61128d565b005b6105fa60048036038101906105f59190612650565b611323565b005b34801561060857600080fd5b50610611611532565b60405161061e919061204b565b60405180910390f35b34801561063357600080fd5b5061064e600480360381019061064991906126c9565b611538565b005b34801561065c57600080fd5b506106656115be565b60405161067291906121db565b60405180910390f35b34801561068757600080fd5b506106a2600480360381019061069d9190612193565b6115d1565b005b3480156106b057600080fd5b506106cb60048036038101906106c69190612826565b611896565b005b3480156106d957600080fd5b506106f460048036038101906106ef9190612222565b611964565b60405161070191906128fd565b60405180910390f35b34801561071657600080fd5b5061071f611a2c565b60405161072c919061204b565b60405180910390f35b34801561074157600080fd5b5061075c60048036038101906107579190612193565b611a32565b005b610766611b29565b005b34801561077457600080fd5b5061078f600480360381019061078a9190612193565b611cb9565b60405161079c91906121db565b60405180910390f35b60095481565b600b80546107b890612947565b80601f01602080910402602001604051908101604052809291908181526020018280546107e490612947565b80156108315780601f1061080657610100808354040283529160200191610831565b820191906000526020600020905b81548152906001019060200180831161081457829003601f168201915b505050505081565b600e6020528060005260406000206000915054906101000a900460ff1681565b60075481565b60025481565b60106020528060005260406000206000915054906101000a900460ff1681565b600d805461089290612947565b80601f01602080910402602001604051908101604052809291908181526020018280546108be90612947565b801561090b5780601f106108e05761010080835404028352916020019161090b565b820191906000526020600020905b8154815290600101906020018083116108ee57829003601f168201915b505050505081565b61091b611ef4565b610923611ef4565b6003548160a00181815250506004548160c0018181525050600254816080018181525050600b805461095490612947565b80601f016020809104026020016040519081016040528092919081815260200182805461098090612947565b80156109cd5780601f106109a2576101008083540402835291602001916109cd565b820191906000526020600020905b8154815290600101906020018083116109b057829003601f168201915b50505050508160000181905250600c80546109e790612947565b80601f0160208091040260200160405190810160405280929190818152602001828054610a1390612947565b8015610a605780601f10610a3557610100808354040283529160200191610a60565b820191906000526020600020905b815481529060010190602001808311610a4357829003601f168201915b505050505081602001819052506001548160600181815250506007548160e001818152505060085481610100018181525050600d8054610a9f90612947565b80601f0160208091040260200160405190810160405280929190818152602001828054610acb90612947565b8015610b185780601f10610aed57610100808354040283529160200191610b18565b820191906000526020600020905b815481529060010190602001808311610afb57829003601f168201915b505050505081604001819052506000610b3084611964565b60ff161481610160019015159081151581525050600e60003373ffffffffffffffffffffffffffffffffffffffff1673ffffffffffffffffffffffffffffffffffffffff16815260200190815260200160002060009054906101000a900460ff16816101a0019015159081151581525050600f60003373ffffffffffffffffffffffffffffffffffffffff1673ffffffffffffffffffffffffffffffffffffffff16815260200190815260200160002060009054906101000a900460ff16816101c0019015159081151581525050600554816101200181815250506006548161014001818152505030816101e0019073ffffffffffffffffffffffffffffffffffffffff16908173ffffffffffffffffffffffffffffffffffffffff168152505080915050919050565b60015481565b610c68611cd9565b73ffffffffffffffffffffffffffffffffffffffff16610c8661125e565b73ffffffffffffffffffffffffffffffffffffffff1614610cdc576040517f08c379a0000000000000000000000000000000000000000000000000000000008152600401610cd3906129c4565b60405180910390fd5b80601060008473ffffffffffffffffffffffffffffffffffffffff1673ffffffffffffffffffffffffffffffffffffffff16815260200190815260200160002060006101000a81548160ff0219169083151502179055505050565b600a5481565b610d45611cd9565b73ffffffffffffffffffffffffffffffffffffffff16610d6361125e565b73ffffffffffffffffffffffffffffffffffffffff1614610db9576040517f08c379a0000000000000000000000000000000000000000000000000000000008152600401610db0906129c4565b60405180910390fd5b600047905060008103610df8576040517f90b8ec1800000000000000000000000000000000000000000000000000000000815260040160405180910390fd5b60006001905060006009546064610e0f9190612a13565b905060006009541115610efb57601160009054906101000a900473ffffffffffffffffffffffffffffffffffffffff1673ffffffffffffffffffffffffffffffffffffffff16606484600954610e659190612a47565b610e6f9190612ad0565b604051610e7b90612b32565b60006040518083038185875af1925050503d8060008114610eb8576040519150601f19603f3d011682016040523d82523d6000602084013e610ebd565b606091505b50508092505081610efa576040517f90b8ec1800000000000000000000000000000000000000000000000000000000815260040160405180910390fd5b5b610f0361125e565b73ffffffffffffffffffffffffffffffffffffffff1660648483610f279190612a47565b610f319190612ad0565b604051610f3d90612b32565b60006040518083038185875af1925050503d8060008114610f7a576040519150601f19603f3d011682016040523d82523d6000602084013e610f7f565b606091505b50508092505081610fbc576040517f90b8ec1800000000000000000000000000000000000000000000000000000000815260040160405180910390fd5b505050565b610fc9611cd9565b73ffffffffffffffffffffffffffffffffffffffff16610fe761125e565b73ffffffffffffffffffffffffffffffffffffffff161461103d576040517f08c379a0000000000000000000000000000000000000000000000000000000008152600401611034906129c4565b60405180910390fd5b81600060156101000a81548160ff02191690831515021790555080600060146101000a81548160ff0219169083151502179055505050565b61107d611cd9565b73ffffffffffffffffffffffffffffffffffffffff1661109b61125e565b73ffffffffffffffffffffffffffffffffffffffff16146110f1576040517f08c379a00000000000000000000000000000000000000000000000000000000081526004016110e8906129c4565b60405180910390fd5b6110fb6000611ce1565b565b600c805461110a90612947565b80601f016020809104026020016040519081016040528092919081815260200182805461113690612947565b80156111835780601f1061115857610100808354040283529160200191611183565b820191906000526020600020905b81548152906001019060200180831161116657829003601f168201915b505050505081565b600060159054906101000a900460ff1681565b60065481565b6111ac611cd9565b73ffffffffffffffffffffffffffffffffffffffff166111ca61125e565b73ffffffffffffffffffffffffffffffffffffffff1614611220576040517f08c379a0000000000000000000000000000000000000000000000000000000008152600401611217906129c4565b60405180910390fd5b81600781905550806008819055505050565b60085481565b601160009054906101000a900473ffffffffffffffffffffffffffffffffffffffff1681565b60008060009054906101000a900473ffffffffffffffffffffffffffffffffffffffff16905090565b60035481565b611295611cd9565b73ffffffffffffffffffffffffffffffffffffffff166112b361125e565b73ffffffffffffffffffffffffffffffffffffffff1614611309576040517f08c379a0000000000000000000000000000000000000000000000000000000008152600401611300906129c4565b60405180910390fd5b826003819055508160048190555080600281905550505050565b600061132e42611964565b905060018160ff160361136d576040517fa8ab2d2500000000000000000000000000000000000000000000000000000000815260040160405180910390fd5b60028160ff16036113aa576040517f2fc209f300000000000000000000000000000000000000000000000000000000815260040160405180910390fd5b60038160ff16036113e7576040517f3a81d6fc00000000000000000000000000000000000000000000000000000000815260040160405180910390fd5b60048160ff1603611424576040517f486fffd200000000000000000000000000000000000000000000000000000000815260040160405180910390fd5b600060149054906101000a900460ff1615806114b157506114af838380806020026020016040519081016040528093929190818152602001838360200280828437600081840152601f19601f82011690508083019250505050505050600a54336040516020016114949190612b8f565b60405160208183030381529060405280519060200120611da5565b155b156114e8576040517fad7acb4700000000000000000000000000000000000000000000000000000000815260040160405180910390fd5b600854341015611524576040517f791266b600000000000000000000000000000000000000000000000000000000815260040160405180910390fd5b61152d33611dbc565b505050565b60055481565b611540611cd9565b73ffffffffffffffffffffffffffffffffffffffff1661155e61125e565b73ffffffffffffffffffffffffffffffffffffffff16146115b4576040517f08c379a00000000000000000000000000000000000000000000000000000000081526004016115ab906129c4565b60405180910390fd5b80600a8190555050565b600060149054906101000a900460ff1681565b6115d961125e565b73ffffffffffffffffffffffffffffffffffffffff163373ffffffffffffffffffffffffffffffffffffffff161415801561165e5750601060003373ffffffffffffffffffffffffffffffffffffffff1673ffffffffffffffffffffffffffffffffffffffff16815260200190815260200160002060009054906101000a900460ff16155b15611695576040517feaa45d6a00000000000000000000000000000000000000000000000000000000815260040160405180910390fd5b60004290506003548110806116ab575060045481115b156116e2576040517f91e3be3900000000000000000000000000000000000000000000000000000000815260040160405180910390fd5b600e60008373ffffffffffffffffffffffffffffffffffffffff1673ffffffffffffffffffffffffffffffffffffffff16815260200190815260200160002060009054906101000a900460ff16611765576040517faba4733900000000000000000000000000000000000000000000000000000000815260040160405180910390fd5b600f60008373ffffffffffffffffffffffffffffffffffffffff1673ffffffffffffffffffffffffffffffffffffffff16815260200190815260200160002060009054906101000a900460ff16156117e9576040517fc98289f000000000000000000000000000000000000000000000000000000000815260040160405180910390fd5b6001600f60008473ffffffffffffffffffffffffffffffffffffffff1673ffffffffffffffffffffffffffffffffffffffff16815260200190815260200160002060006101000a81548160ff0219169083151502179055506001600660008282546118549190612baa565b925050819055507fcbf477e63735f8d27f9b668165862d7c6e84e5650edec70229523db18c2f1efd8260405161188a919061257d565b60405180910390a15050565b61189e611cd9565b73ffffffffffffffffffffffffffffffffffffffff166118bc61125e565b73ffffffffffffffffffffffffffffffffffffffff1614611912576040517f08c379a0000000000000000000000000000000000000000000000000000000008152600401611909906129c4565b60405180910390fd5b83600b9080519060200190611928929190611f8f565b5082600c908051906020019061193f929190611f8f565b5081600d9080519060200190611956929190611f8f565b508060018190555050505050565b60006003548211156119795760019050611a27565b600060159054906101000a900460ff161580611996575060025482115b156119a45760029050611a27565b600e60003373ffffffffffffffffffffffffffffffffffffffff1673ffffffffffffffffffffffffffffffffffffffff16815260200190815260200160002060009054906101000a900460ff16156119ff5760039050611a27565b6000600154118015611a145750600154600554145b15611a225760049050611a27565b600090505b919050565b60045481565b611a3a611cd9565b73ffffffffffffffffffffffffffffffffffffffff16611a5861125e565b73ffffffffffffffffffffffffffffffffffffffff1614611aae576040517f08c379a0000000000000000000000000000000000000000000000000000000008152600401611aa5906129c4565b60405180910390fd5b600073ffffffffffffffffffffffffffffffffffffffff168173ffffffffffffffffffffffffffffffffffffffff1603611b1d576040517f08c379a0000000000000000000000000000000000000000000000000000000008152600401611b1490612c72565b60405180910390fd5b611b2681611ce1565b50565b6000611b3442611964565b905060018160ff1603611b73576040517fa8ab2d2500000000000000000000000000000000000000000000000000000000815260040160405180910390fd5b60028160ff1603611bb0576040517f2fc209f300000000000000000000000000000000000000000000000000000000815260040160405180910390fd5b60038160ff1603611bed576040517f3a81d6fc00000000000000000000000000000000000000000000000000000000815260040160405180910390fd5b60048160ff1603611c2a576040517f486fffd200000000000000000000000000000000000000000000000000000000815260040160405180910390fd5b600060149054906101000a900460ff1615611c71576040517fad7acb4700000000000000000000000000000000000000000000000000000000815260040160405180910390fd5b600754341015611cad576040517f791266b600000000000000000000000000000000000000000000000000000000815260040160405180910390fd5b611cb633611dbc565b50565b600f6020528060005260406000206000915054906101000a900460ff1681565b600033905090565b60008060009054906101000a900473ffffffffffffffffffffffffffffffffffffffff169050816000806101000a81548173ffffffffffffffffffffffffffffffffffffffff021916908373ffffffffffffffffffffffffffffffffffffffff1602179055508173ffffffffffffffffffffffffffffffffffffffff168173ffffffffffffffffffffffffffffffffffffffff167f8be0079c531659141344cd1fd0a4f28419497f9722a3daafe3b4186f6b6457e060405160405180910390a35050565b600082611db28584611e68565b1490509392505050565b6001600e60008373ffffffffffffffffffffffffffffffffffffffff1673ffffffffffffffffffffffffffffffffffffffff16815260200190815260200160002060006101000a81548160ff021916908315150217905550600160056000828254611e279190612baa565b925050819055507fe11711cd714e06fbbbea301a8e90822f2f2ea4808e37e3adf06038f33c53ff2781604051611e5d919061257d565b60405180910390a150565b60008082905060005b8451811015611ed2576000858281518110611e8f57611e8e612c92565b5b60200260200101519050808311611eb157611eaa8382611edd565b9250611ebe565b611ebb8184611edd565b92505b508080611eca90612cc1565b915050611e71565b508091505092915050565b600082600052816020526040600020905092915050565b6040518061020001604052806060815260200160608152602001606081526020016000815260200160008152602001600081526020016000815260200160008152602001600081526020016000815260200160008152602001600015158152602001600015158152602001600015158152602001600015158152602001600073ffffffffffffffffffffffffffffffffffffffff1681525090565b828054611f9b90612947565b90600052602060002090601f016020900481019282611fbd5760008555612004565b82601f10611fd657805160ff1916838001178555612004565b82800160010185558215612004579182015b82811115612003578251825591602001919060010190611fe8565b5b5090506120119190612015565b5090565b5b8082111561202e576000816000905550600101612016565b5090565b6000819050919050565b61204581612032565b82525050565b6000602082019050612060600083018461203c565b92915050565b600081519050919050565b600082825260208201905092915050565b60005b838110156120a0578082015181840152602081019050612085565b838111156120af576000848401525b50505050565b6000601f19601f8301169050919050565b60006120d182612066565b6120db8185612071565b93506120eb818560208601612082565b6120f4816120b5565b840191505092915050565b6000602082019050818103600083015261211981846120c6565b905092915050565b6000604051905090565b600080fd5b600080fd5b600073ffffffffffffffffffffffffffffffffffffffff82169050919050565b600061216082612135565b9050919050565b61217081612155565b811461217b57600080fd5b50565b60008135905061218d81612167565b92915050565b6000602082840312156121a9576121a861212b565b5b60006121b78482850161217e565b91505092915050565b60008115159050919050565b6121d5816121c0565b82525050565b60006020820190506121f060008301846121cc565b92915050565b6121ff81612032565b811461220a57600080fd5b50565b60008135905061221c816121f6565b92915050565b6000602082840312156122385761223761212b565b5b60006122468482850161220d565b91505092915050565b600082825260208201905092915050565b600061226b82612066565b612275818561224f565b9350612285818560208601612082565b61228e816120b5565b840191505092915050565b6122a281612032565b82525050565b6122b1816121c0565b82525050565b6122c081612155565b82525050565b60006102008301600083015184820360008601526122e48282612260565b915050602083015184820360208601526122fe8282612260565b915050604083015184820360408601526123188282612260565b915050606083015161232d6060860182612299565b5060808301516123406080860182612299565b5060a083015161235360a0860182612299565b5060c083015161236660c0860182612299565b5060e083015161237960e0860182612299565b5061010083015161238e610100860182612299565b506101208301516123a3610120860182612299565b506101408301516123b8610140860182612299565b506101608301516123cd6101608601826122a8565b506101808301516123e26101808601826122a8565b506101a08301516123f76101a08601826122a8565b506101c083015161240c6101c08601826122a8565b506101e08301516124216101e08601826122b7565b508091505092915050565b6000602082019050818103600083015261244681846122c6565b905092915050565b612457816121c0565b811461246257600080fd5b50565b6000813590506124748161244e565b92915050565b600080604083850312156124915761249061212b565b5b600061249f8582860161217e565b92505060206124b085828601612465565b9150509250929050565b6000819050919050565b6124cd816124ba565b82525050565b60006020820190506124e860008301846124c4565b92915050565b600080604083850312156125055761250461212b565b5b600061251385828601612465565b925050602061252485828601612465565b9150509250929050565b600080604083850312156125455761254461212b565b5b60006125538582860161220d565b92505060206125648582860161220d565b9150509250929050565b61257781612155565b82525050565b6000602082019050612592600083018461256e565b92915050565b6000806000606084860312156125b1576125b061212b565b5b60006125bf8682870161220d565b93505060206125d08682870161220d565b92505060406125e18682870161220d565b9150509250925092565b600080fd5b600080fd5b600080fd5b60008083601f8401126126105761260f6125eb565b5b8235905067ffffffffffffffff81111561262d5761262c6125f0565b5b602083019150836020820283011115612649576126486125f5565b5b9250929050565b600080602083850312156126675761266661212b565b5b600083013567ffffffffffffffff81111561268557612684612130565b5b612691858286016125fa565b92509250509250929050565b6126a6816124ba565b81146126b157600080fd5b50565b6000813590506126c38161269d565b92915050565b6000602082840312156126df576126de61212b565b5b60006126ed848285016126b4565b91505092915050565b600080fd5b7f4e487b7100000000000000000000000000000000000000000000000000000000600052604160045260246000fd5b612733826120b5565b810181811067ffffffffffffffff82111715612752576127516126fb565b5b80604052505050565b6000612765612121565b9050612771828261272a565b919050565b600067ffffffffffffffff821115612791576127906126fb565b5b61279a826120b5565b9050602081019050919050565b82818337600083830152505050565b60006127c96127c484612776565b61275b565b9050828152602081018484840111156127e5576127e46126f6565b5b6127f08482856127a7565b509392505050565b600082601f83011261280d5761280c6125eb565b5b813561281d8482602086016127b6565b91505092915050565b600080600080608085870312156128405761283f61212b565b5b600085013567ffffffffffffffff81111561285e5761285d612130565b5b61286a878288016127f8565b945050602085013567ffffffffffffffff81111561288b5761288a612130565b5b612897878288016127f8565b935050604085013567ffffffffffffffff8111156128b8576128b7612130565b5b6128c4878288016127f8565b92505060606128d58782880161220d565b91505092959194509250565b600060ff82169050919050565b6128f7816128e1565b82525050565b600060208201905061291260008301846128ee565b92915050565b7f4e487b7100000000000000000000000000000000000000000000000000000000600052602260045260246000fd5b6000600282049050600182168061295f57607f821691505b60208210810361297257612971612918565b5b50919050565b7f4f776e61626c653a2063616c6c6572206973206e6f7420746865206f776e6572600082015250565b60006129ae602083612071565b91506129b982612978565b602082019050919050565b600060208201905081810360008301526129dd816129a1565b9050919050565b7f4e487b7100000000000000000000000000000000000000000000000000000000600052601160045260246000fd5b6000612a1e82612032565b9150612a2983612032565b925082821015612a3c57612a3b6129e4565b5b828203905092915050565b6000612a5282612032565b9150612a5d83612032565b9250817fffffffffffffffffffffffffffffffffffffffffffffffffffffffffffffffff0483118215151615612a9657612a956129e4565b5b828202905092915050565b7f4e487b7100000000000000000000000000000000000000000000000000000000600052601260045260246000fd5b6000612adb82612032565b9150612ae683612032565b925082612af657612af5612aa1565b5b828204905092915050565b600081905092915050565b50565b6000612b1c600083612b01565b9150612b2782612b0c565b600082019050919050565b6000612b3d82612b0f565b9150819050919050565b60008160601b9050919050565b6000612b5f82612b47565b9050919050565b6000612b7182612b54565b9050919050565b612b89612b8482612155565b612b66565b82525050565b6000612b9b8284612b78565b60148201915081905092915050565b6000612bb582612032565b9150612bc083612032565b9250827fffffffffffffffffffffffffffffffffffffffffffffffffffffffffffffffff03821115612bf557612bf46129e4565b5b828201905092915050565b7f4f776e61626c653a206e6577206f776e657220697320746865207a65726f206160008201527f6464726573730000000000000000000000000000000000000000000000000000602082015250565b6000612c5c602683612071565b9150612c6782612c00565b604082019050919050565b60006020820190508181036000830152612c8b81612c4f565b9050919050565b7f4e487b7100000000000000000000000000000000000000000000000000000000600052603260045260246000fd5b6000612ccc82612032565b91507fffffffffffffffffffffffffffffffffffffffffffffffffffffffffffffffff8203612cfe57612cfd6129e4565b5b60018201905091905056fea2646970667358221220d7928b7090120b6013d563a1e3c75c9f962af1a79913f1c2367a35b43dbb9fc764736f6c634300080d0033","linkReferences":{},"deployedLinkReferences":{}}