{"_format":"hh-sol-artifact-1","contractName":"Event","sourceName":"contracts/Event.sol","abi":[{"inputs":[{"components":[{"internalType":"string","name":"name","type":"string"},{"internalType":"string","name":"description","type":"string"},{"internalType":"string","name":"link","type":"string"},{"internalType":"uint256","name":"maxParticipants","type":"uint256"},{"internalType":"uint256","name":"registrationEnd","type":"uint256"},{"internalType":"uint256","name":"start","type":"uint256"},{"internalType":"uint256","name":"end","type":"uint256"},{"internalType":"uint256","name":"ticketPrice","type":"uint256"},{"internalType":"uint256","name":"preSaleTicketPrice","type":"uint256"}],"internalType":"struct Utils.EventStruct","name":"eventData","type":"tuple"},{"internalType":"address","name":"owner","type":"address"},{"internalType":"uint256","name":"fee","type":"uint256"}],"stateMutability":"nonpayable","type":"constructor"},{"inputs":[],"name":"AddressNotWhitelisted","type":"error"},{"inputs":[],"name":"AlreadyCheckedIn","type":"error"},{"inputs":[],"name":"AlreadyRegistered","type":"error"},{"inputs":[],"name":"CheckInNotAvailable","type":"error"},{"inputs":[],"name":"EventAlreadyStarted","type":"error"},{"inputs":[],"name":"NoSeatsAvailable","type":"error"},{"inputs":[],"name":"NotModerator","type":"error"},{"inputs":[],"name":"NotRegistered","type":"error"},{"inputs":[],"name":"ProvideRequiredArguments","type":"error"},{"inputs":[],"name":"RegistrationClosed","type":"error"},{"inputs":[],"name":"TransferFailed","type":"error"},{"inputs":[],"name":"ValueNotEnough","type":"error"},{"anonymous":false,"inputs":[{"indexed":true,"internalType":"address","name":"previousOwner","type":"address"},{"indexed":true,"internalType":"address","name":"newOwner","type":"address"}],"name":"OwnershipTransferred","type":"event"},{"anonymous":false,"inputs":[{"indexed":false,"internalType":"address","name":"participant","type":"address"}],"name":"ParticipantChecked","type":"event"},{"anonymous":false,"inputs":[{"indexed":false,"internalType":"address","name":"participant","type":"address"}],"name":"ParticipantRegistered","type":"event"},{"inputs":[{"internalType":"address","name":"addr","type":"address"},{"internalType":"bool","name":"status","type":"bool"}],"name":"addModerator","outputs":[],"stateMutability":"nonpayable","type":"function"},{"inputs":[{"internalType":"uint256","name":"_start","type":"uint256"},{"internalType":"uint256","name":"_end","type":"uint256"},{"internalType":"uint256","name":"_registrationEnd","type":"uint256"}],"name":"changeEventDates","outputs":[],"stateMutability":"nonpayable","type":"function"},{"inputs":[{"internalType":"string","name":"_name","type":"string"},{"internalType":"string","name":"_description","type":"string"},{"internalType":"string","name":"_link","type":"string"},{"internalType":"uint256","name":"_maxParticipants","type":"uint256"}],"name":"changeEventInfo","outputs":[],"stateMutability":"nonpayable","type":"function"},{"inputs":[{"internalType":"uint256","name":"_ticketPrice","type":"uint256"},{"internalType":"uint256","name":"_preSalePrice","type":"uint256"}],"name":"changeTicketPrices","outputs":[],"stateMutability":"nonpayable","type":"function"},{"inputs":[{"internalType":"bytes32","name":"rootHash","type":"bytes32"}],"name":"changeWhitelistRoot","outputs":[],"stateMutability":"nonpayable","type":"function"},{"inputs":[{"internalType":"address","name":"participant","type":"address"}],"name":"checkIn","outputs":[],"stateMutability":"nonpayable","type":"function"},{"inputs":[],"name":"checkedParticipantCount","outputs":[{"internalType":"uint256","name":"","type":"uint256"}],"stateMutability":"view","type":"function"},{"inputs":[{"internalType":"address","name":"","type":"address"}],"name":"checkedParticipants","outputs":[{"internalType":"bool","name":"","type":"bool"}],"stateMutability":"view","type":"function"},{"inputs":[],"name":"description","outputs":[{"internalType":"string","name":"","type":"string"}],"stateMutability":"view","type":"function"},{"inputs":[],"name":"end","outputs":[{"internalType":"uint256","name":"","type":"uint256"}],"stateMutability":"view","type":"function"},{"inputs":[],"name":"link","outputs":[{"internalType":"string","name":"","type":"string"}],"stateMutability":"view","type":"function"},{"inputs":[],"name":"maxParticipants","outputs":[{"internalType":"uint256","name":"","type":"uint256"}],"stateMutability":"view","type":"function"},{"inputs":[{"internalType":"address","name":"","type":"address"}],"name":"moderators","outputs":[{"internalType":"bool","name":"","type":"bool"}],"stateMutability":"view","type":"function"},{"inputs":[],"name":"name","outputs":[{"internalType":"string","name":"","type":"string"}],"stateMutability":"view","type":"function"},{"inputs":[],"name":"onlyWhitelistRegistration","outputs":[{"internalType":"bool","name":"","type":"bool"}],"stateMutability":"view","type":"function"},{"inputs":[],"name":"owner","outputs":[{"internalType":"address","name":"","type":"address"}],"stateMutability":"view","type":"function"},{"inputs":[],"name":"parentContractAddr","outputs":[{"internalType":"address","name":"","type":"address"}],"stateMutability":"view","type":"function"},{"inputs":[],"name":"parentContractFee","outputs":[{"internalType":"uint256","name":"","type":"uint256"}],"stateMutability":"view","type":"function"},{"inputs":[{"internalType":"address","name":"","type":"address"}],"name":"participants","outputs":[{"internalType":"bool","name":"","type":"bool"}],"stateMutability":"view","type":"function"},{"inputs":[],"name":"preSaleTicketPrice","outputs":[{"internalType":"uint256","name":"","type":"uint256"}],"stateMutability":"view","type":"function"},{"inputs":[{"internalType":"bytes32","name":"","type":"bytes32"}],"name":"publicRegister","outputs":[],"stateMutability":"payable","type":"function"},{"inputs":[],"name":"registeredParticipantCount","outputs":[{"internalType":"uint256","name":"","type":"uint256"}],"stateMutability":"view","type":"function"},{"inputs":[],"name":"registrationEnd","outputs":[{"internalType":"uint256","name":"","type":"uint256"}],"stateMutability":"view","type":"function"},{"inputs":[],"name":"registrationOpen","outputs":[{"internalType":"bool","name":"","type":"bool"}],"stateMutability":"view","type":"function"},{"inputs":[],"name":"renounceOwnership","outputs":[],"stateMutability":"nonpayable","type":"function"},{"inputs":[],"name":"start","outputs":[{"internalType":"uint256","name":"","type":"uint256"}],"stateMutability":"view","type":"function"},{"inputs":[],"name":"ticketPrice","outputs":[{"internalType":"uint256","name":"","type":"uint256"}],"stateMutability":"view","type":"function"},{"inputs":[{"internalType":"bool","name":"_isOpen","type":"bool"},{"internalType":"bool","name":"_onlyWhitelist","type":"bool"}],"name":"toggleRegistration","outputs":[],"stateMutability":"nonpayable","type":"function"},{"inputs":[{"internalType":"address","name":"newOwner","type":"address"}],"name":"transferOwnership","outputs":[],"stateMutability":"nonpayable","type":"function"},{"inputs":[{"internalType":"bytes32[]","name":"_proof","type":"bytes32[]"}],"name":"whitelistRegister","outputs":[],"stateMutability":"payable","type":"function"},{"inputs":[],"name":"whitelistRoot","outputs":[{"internalType":"bytes32","name":"","type":"bytes32"}],"stateMutability":"view","type":"function"},{"inputs":[],"name":"withdraw","outputs":[],"stateMutability":"nonpayable","type":"function"}],"bytecode":"0x60806040526001600060156101000a81548160ff0219169083151502179055507f16d95910a21726a3e7b59a8c6166b355396434419809cb902e2063555b8d60de60001b600a553480156200005357600080fd5b506040516200333338038062003333833981810160405281019062000079919062000869565b620000996200008d6200021460201b60201c565b6200021c60201b60201c565b600083606001511480620000b1575060008360a00151145b80620000c1575060008360c00151145b15620000f9576040517f12d0cf0200000000000000000000000000000000000000000000000000000000815260040160405180910390fd5b8260000151600b9080519060200190620001159291906200041e565b508260200151600c9080519060200190620001329291906200041e565b508260400151600d90805190602001906200014f9291906200041e565b5082606001516001819055508260a001516003819055508260c001516004819055508260e001516007819055508261010001516008819055506000836080015103620001a6578260a00151600281905550620001b2565b82608001516002819055505b33601160006101000a81548173ffffffffffffffffffffffffffffffffffffffff021916908373ffffffffffffffffffffffffffffffffffffffff160217905550806009819055506200020b82620002e060201b60201c565b50505062000a63565b600033905090565b60008060009054906101000a900473ffffffffffffffffffffffffffffffffffffffff169050816000806101000a81548173ffffffffffffffffffffffffffffffffffffffff021916908373ffffffffffffffffffffffffffffffffffffffff1602179055508173ffffffffffffffffffffffffffffffffffffffff168173ffffffffffffffffffffffffffffffffffffffff167f8be0079c531659141344cd1fd0a4f28419497f9722a3daafe3b4186f6b6457e060405160405180910390a35050565b620002f06200021460201b60201c565b73ffffffffffffffffffffffffffffffffffffffff1662000316620003f560201b60201c565b73ffffffffffffffffffffffffffffffffffffffff16146200036f576040517f08c379a0000000000000000000000000000000000000000000000000000000008152600401620003669062000945565b60405180910390fd5b600073ffffffffffffffffffffffffffffffffffffffff168173ffffffffffffffffffffffffffffffffffffffff1603620003e1576040517f08c379a0000000000000000000000000000000000000000000000000000000008152600401620003d890620009dd565b60405180910390fd5b620003f2816200021c60201b60201c565b50565b60008060009054906101000a900473ffffffffffffffffffffffffffffffffffffffff16905090565b8280546200042c9062000a2e565b90600052602060002090601f0160209004810192826200045057600085556200049c565b82601f106200046b57805160ff19168380011785556200049c565b828001600101855582156200049c579182015b828111156200049b5782518255916020019190600101906200047e565b5b509050620004ab9190620004af565b5090565b5b80821115620004ca576000816000905550600101620004b0565b5090565b6000604051905090565b600080fd5b600080fd5b600080fd5b6000601f19601f8301169050919050565b7f4e487b7100000000000000000000000000000000000000000000000000000000600052604160045260246000fd5b6200053282620004e7565b810181811067ffffffffffffffff82111715620005545762000553620004f8565b5b80604052505050565b600062000569620004ce565b905062000577828262000527565b919050565b600080fd5b600080fd5b600080fd5b600067ffffffffffffffff821115620005a957620005a8620004f8565b5b620005b482620004e7565b9050602081019050919050565b60005b83811015620005e1578082015181840152602081019050620005c4565b83811115620005f1576000848401525b50505050565b60006200060e62000608846200058b565b6200055d565b9050828152602081018484840111156200062d576200062c62000586565b5b6200063a848285620005c1565b509392505050565b600082601f8301126200065a576200065962000581565b5b81516200066c848260208601620005f7565b91505092915050565b6000819050919050565b6200068a8162000675565b81146200069657600080fd5b50565b600081519050620006aa816200067f565b92915050565b60006101208284031215620006ca57620006c9620004e2565b5b620006d76101206200055d565b9050600082015167ffffffffffffffff811115620006fa57620006f96200057c565b5b620007088482850162000642565b600083015250602082015167ffffffffffffffff8111156200072f576200072e6200057c565b5b6200073d8482850162000642565b602083015250604082015167ffffffffffffffff8111156200076457620007636200057c565b5b620007728482850162000642565b6040830152506060620007888482850162000699565b60608301525060806200079e8482850162000699565b60808301525060a0620007b48482850162000699565b60a08301525060c0620007ca8482850162000699565b60c08301525060e0620007e08482850162000699565b60e083015250610100620007f78482850162000699565b6101008301525092915050565b600073ffffffffffffffffffffffffffffffffffffffff82169050919050565b6000620008318262000804565b9050919050565b620008438162000824565b81146200084f57600080fd5b50565b600081519050620008638162000838565b92915050565b600080600060608486031215620008855762000884620004d8565b5b600084015167ffffffffffffffff811115620008a657620008a5620004dd565b5b620008b486828701620006b0565b9350506020620008c78682870162000852565b9250506040620008da8682870162000699565b9150509250925092565b600082825260208201905092915050565b7f4f776e61626c653a2063616c6c6572206973206e6f7420746865206f776e6572600082015250565b60006200092d602083620008e4565b91506200093a82620008f5565b602082019050919050565b6000602082019050818103600083015262000960816200091e565b9050919050565b7f4f776e61626c653a206e6577206f776e657220697320746865207a65726f206160008201527f6464726573730000000000000000000000000000000000000000000000000000602082015250565b6000620009c5602683620008e4565b9150620009d28262000967565b604082019050919050565b60006020820190508181036000830152620009f881620009b6565b9050919050565b7f4e487b7100000000000000000000000000000000000000000000000000000000600052602260045260246000fd5b6000600282049050600182168062000a4757607f821691505b60208210810362000a5d5762000a5c620009ff565b5b50919050565b6128c08062000a736000396000f3fe6080604052600436106101e25760003560e01c80637de33aec11610102578063c4625ba311610095578063dae076c811610064578063dae076c81461066d578063efbe1c1c14610696578063f2fde38b146106c1578063fe1e2f51146106ea576101e2565b8063c4625ba3146105c5578063c6a7cbc9146105f0578063c7cac60014610619578063d9a59e3314610644576101e2565b80638da5cb5b116100d15780638da5cb5b1461052a578063be9a655514610555578063bffa312314610580578063c025e686146105a9576101e2565b80637de33aec146104805780637fd34e92146104ab5780638121e42d146104d45780638818ed38146104ff576101e2565b8063336df1061161017a5780636c9de4ef116101495780636c9de4ef146103ea578063715018a6146104135780637284e4161461042a578063736f88cd14610455576101e2565b8063336df10614610363578063386bfc981461038c5780633ccfd60b146103b75780634ff4720a146103ce576101e2565b806313446a75116101b657806313446a75146102a557806314d0f1ba146102d05780631c4695f41461030d57806324924bf714610338576101e2565b8062f4494f146101e757806306fdde031461021257806309e69ede1461023d5780631209b1f61461027a575b600080fd5b3480156101f357600080fd5b506101fc610727565b6040516102099190611df1565b60405180910390f35b34801561021e57600080fd5b5061022761072d565b6040516102349190611ea5565b60405180910390f35b34801561024957600080fd5b50610264600480360381019061025f9190611f39565b6107bb565b6040516102719190611f81565b60405180910390f35b34801561028657600080fd5b5061028f6107db565b60405161029c9190611df1565b60405180910390f35b3480156102b157600080fd5b506102ba6107e1565b6040516102c79190611df1565b60405180910390f35b3480156102dc57600080fd5b506102f760048036038101906102f29190611f39565b6107e7565b6040516103049190611f81565b60405180910390f35b34801561031957600080fd5b50610322610807565b60405161032f9190611ea5565b60405180910390f35b34801561034457600080fd5b5061034d610895565b60405161035a9190611df1565b60405180910390f35b34801561036f57600080fd5b5061038a60048036038101906103859190611fc8565b61089b565b005b34801561039857600080fd5b506103a1610972565b6040516103ae9190612021565b60405180910390f35b3480156103c357600080fd5b506103cc610978565b005b6103e860048036038101906103e39190612068565b610bfc565b005b3480156103f657600080fd5b50610411600480360381019061040c9190612095565b610e62565b005b34801561041f57600080fd5b50610428610f16565b005b34801561043657600080fd5b5061043f610f9e565b60405161044c9190611ea5565b60405180910390f35b34801561046157600080fd5b5061046a61102c565b6040516104779190611f81565b60405180910390f35b34801561048c57600080fd5b5061049561103f565b6040516104a29190611df1565b60405180910390f35b3480156104b757600080fd5b506104d260048036038101906104cd9190612101565b611045565b005b3480156104e057600080fd5b506104e96110d3565b6040516104f69190611df1565b60405180910390f35b34801561050b57600080fd5b506105146110d9565b6040516105219190612150565b60405180910390f35b34801561053657600080fd5b5061053f6110ff565b60405161054c9190612150565b60405180910390f35b34801561056157600080fd5b5061056a611128565b6040516105779190611df1565b60405180910390f35b34801561058c57600080fd5b506105a760048036038101906105a2919061216b565b61112e565b005b6105c360048036038101906105be9190612223565b6111c4565b005b3480156105d157600080fd5b506105da61146a565b6040516105e79190611df1565b60405180910390f35b3480156105fc57600080fd5b5061061760048036038101906106129190612068565b611470565b005b34801561062557600080fd5b5061062e6114f6565b60405161063b9190611f81565b60405180910390f35b34801561065057600080fd5b5061066b60048036038101906106669190611f39565b611509565b005b34801561067957600080fd5b50610694600480360381019061068f91906123a0565b6117ce565b005b3480156106a257600080fd5b506106ab61189c565b6040516106b89190611df1565b60405180910390f35b3480156106cd57600080fd5b506106e860048036038101906106e39190611f39565b6118a2565b005b3480156106f657600080fd5b50610711600480360381019061070c9190611f39565b611999565b60405161071e9190611f81565b60405180910390f35b60095481565b600b805461073a9061248a565b80601f01602080910402602001604051908101604052809291908181526020018280546107669061248a565b80156107b35780601f10610788576101008083540402835291602001916107b3565b820191906000526020600020905b81548152906001019060200180831161079657829003601f168201915b505050505081565b600e6020528060005260406000206000915054906101000a900460ff1681565b60075481565b60025481565b60106020528060005260406000206000915054906101000a900460ff1681565b600d80546108149061248a565b80601f01602080910402602001604051908101604052809291908181526020018280546108409061248a565b801561088d5780601f106108625761010080835404028352916020019161088d565b820191906000526020600020905b81548152906001019060200180831161087057829003601f168201915b505050505081565b60015481565b6108a36119b9565b73ffffffffffffffffffffffffffffffffffffffff166108c16110ff565b73ffffffffffffffffffffffffffffffffffffffff1614610917576040517f08c379a000000000000000000000000000000000000000000000000000000000815260040161090e90612507565b60405180910390fd5b80601060008473ffffffffffffffffffffffffffffffffffffffff1673ffffffffffffffffffffffffffffffffffffffff16815260200190815260200160002060006101000a81548160ff0219169083151502179055505050565b600a5481565b6109806119b9565b73ffffffffffffffffffffffffffffffffffffffff1661099e6110ff565b73ffffffffffffffffffffffffffffffffffffffff16146109f4576040517f08c379a00000000000000000000000000000000000000000000000000000000081526004016109eb90612507565b60405180910390fd5b600047905060008103610a33576040517f90b8ec1800000000000000000000000000000000000000000000000000000000815260040160405180910390fd5b60006001905060006009546064610a4a9190612556565b905060006009541115610b3657601160009054906101000a900473ffffffffffffffffffffffffffffffffffffffff1673ffffffffffffffffffffffffffffffffffffffff16606484600954610aa0919061258a565b610aaa9190612613565b604051610ab690612675565b60006040518083038185875af1925050503d8060008114610af3576040519150601f19603f3d011682016040523d82523d6000602084013e610af8565b606091505b50508092505081610b35576040517f90b8ec1800000000000000000000000000000000000000000000000000000000815260040160405180910390fd5b5b610b3e6110ff565b73ffffffffffffffffffffffffffffffffffffffff1660648483610b62919061258a565b610b6c9190612613565b604051610b7890612675565b60006040518083038185875af1925050503d8060008114610bb5576040519150601f19603f3d011682016040523d82523d6000602084013e610bba565b606091505b50508092505081610bf7576040517f90b8ec1800000000000000000000000000000000000000000000000000000000815260040160405180910390fd5b505050565b6000429050610c436040518060400160405280600a81526020017f54696d6520257320257300000000000000000000000000000000000000000000815250826003546119c1565b600354811115610c7f576040517fa8ab2d2500000000000000000000000000000000000000000000000000000000815260040160405180910390fd5b600060159054906101000a900460ff161580610c9c575060025481115b15610cd3576040517f2fc209f300000000000000000000000000000000000000000000000000000000815260040160405180910390fd5b600e60003373ffffffffffffffffffffffffffffffffffffffff1673ffffffffffffffffffffffffffffffffffffffff16815260200190815260200160002060009054906101000a900460ff1615610d57576040517f3a81d6fc00000000000000000000000000000000000000000000000000000000815260040160405180910390fd5b60015460055403610d94576040517f486fffd200000000000000000000000000000000000000000000000000000000815260040160405180910390fd5b610dd26040518060400160405280600481526020017f6865726500000000000000000000000000000000000000000000000000000000815250611a60565b600060149054906101000a900460ff1615610e19576040517fad7acb4700000000000000000000000000000000000000000000000000000000815260040160405180910390fd5b600754341015610e55576040517f791266b600000000000000000000000000000000000000000000000000000000815260040160405180910390fd5b610e5e33611af9565b5050565b610e6a6119b9565b73ffffffffffffffffffffffffffffffffffffffff16610e886110ff565b73ffffffffffffffffffffffffffffffffffffffff1614610ede576040517f08c379a0000000000000000000000000000000000000000000000000000000008152600401610ed590612507565b60405180910390fd5b81600060156101000a81548160ff02191690831515021790555080600060146101000a81548160ff0219169083151502179055505050565b610f1e6119b9565b73ffffffffffffffffffffffffffffffffffffffff16610f3c6110ff565b73ffffffffffffffffffffffffffffffffffffffff1614610f92576040517f08c379a0000000000000000000000000000000000000000000000000000000008152600401610f8990612507565b60405180910390fd5b610f9c6000611ba5565b565b600c8054610fab9061248a565b80601f0160208091040260200160405190810160405280929190818152602001828054610fd79061248a565b80156110245780601f10610ff957610100808354040283529160200191611024565b820191906000526020600020905b81548152906001019060200180831161100757829003601f168201915b505050505081565b600060159054906101000a900460ff1681565b60065481565b61104d6119b9565b73ffffffffffffffffffffffffffffffffffffffff1661106b6110ff565b73ffffffffffffffffffffffffffffffffffffffff16146110c1576040517f08c379a00000000000000000000000000000000000000000000000000000000081526004016110b890612507565b60405180910390fd5b81600781905550806008819055505050565b60085481565b601160009054906101000a900473ffffffffffffffffffffffffffffffffffffffff1681565b60008060009054906101000a900473ffffffffffffffffffffffffffffffffffffffff16905090565b60035481565b6111366119b9565b73ffffffffffffffffffffffffffffffffffffffff166111546110ff565b73ffffffffffffffffffffffffffffffffffffffff16146111aa576040517f08c379a00000000000000000000000000000000000000000000000000000000081526004016111a190612507565b60405180910390fd5b826003819055508160048190555080600281905550505050565b600042905061120b6040518060400160405280600a81526020017f54696d6520257320257300000000000000000000000000000000000000000000815250826003546119c1565b600354811115611247576040517fa8ab2d2500000000000000000000000000000000000000000000000000000000815260040160405180910390fd5b600060159054906101000a900460ff161580611264575060025481115b1561129b576040517f2fc209f300000000000000000000000000000000000000000000000000000000815260040160405180910390fd5b600e60003373ffffffffffffffffffffffffffffffffffffffff1673ffffffffffffffffffffffffffffffffffffffff16815260200190815260200160002060009054906101000a900460ff161561131f576040517f3a81d6fc00000000000000000000000000000000000000000000000000000000815260040160405180910390fd5b6001546005540361135c576040517f486fffd200000000000000000000000000000000000000000000000000000000815260040160405180910390fd5b600060149054906101000a900460ff1615806113e957506113e7838380806020026020016040519081016040528093929190818152602001838360200280828437600081840152601f19601f82011690508083019250505050505050600a54336040516020016113cc91906126d2565b60405160208183030381529060405280519060200120611c69565b155b15611420576040517fad7acb4700000000000000000000000000000000000000000000000000000000815260040160405180910390fd5b60085434101561145c576040517f791266b600000000000000000000000000000000000000000000000000000000815260040160405180910390fd5b61146533611af9565b505050565b60055481565b6114786119b9565b73ffffffffffffffffffffffffffffffffffffffff166114966110ff565b73ffffffffffffffffffffffffffffffffffffffff16146114ec576040517f08c379a00000000000000000000000000000000000000000000000000000000081526004016114e390612507565b60405180910390fd5b80600a8190555050565b600060149054906101000a900460ff1681565b6115116110ff565b73ffffffffffffffffffffffffffffffffffffffff163373ffffffffffffffffffffffffffffffffffffffff16141580156115965750601060003373ffffffffffffffffffffffffffffffffffffffff1673ffffffffffffffffffffffffffffffffffffffff16815260200190815260200160002060009054906101000a900460ff16155b156115cd576040517feaa45d6a00000000000000000000000000000000000000000000000000000000815260040160405180910390fd5b60004290506003548110806115e3575060045481115b1561161a576040517f91e3be3900000000000000000000000000000000000000000000000000000000815260040160405180910390fd5b600e60008373ffffffffffffffffffffffffffffffffffffffff1673ffffffffffffffffffffffffffffffffffffffff16815260200190815260200160002060009054906101000a900460ff1661169d576040517faba4733900000000000000000000000000000000000000000000000000000000815260040160405180910390fd5b600f60008373ffffffffffffffffffffffffffffffffffffffff1673ffffffffffffffffffffffffffffffffffffffff16815260200190815260200160002060009054906101000a900460ff1615611721576040517fc98289f000000000000000000000000000000000000000000000000000000000815260040160405180910390fd5b6001600f60008473ffffffffffffffffffffffffffffffffffffffff1673ffffffffffffffffffffffffffffffffffffffff16815260200190815260200160002060006101000a81548160ff02191690831515021790555060016006600082825461178c91906126ed565b925050819055507fcbf477e63735f8d27f9b668165862d7c6e84e5650edec70229523db18c2f1efd826040516117c29190612150565b60405180910390a15050565b6117d66119b9565b73ffffffffffffffffffffffffffffffffffffffff166117f46110ff565b73ffffffffffffffffffffffffffffffffffffffff161461184a576040517f08c379a000000000000000000000000000000000000000000000000000000000815260040161184190612507565b60405180910390fd5b83600b9080519060200190611860929190611d35565b5082600c9080519060200190611877929190611d35565b5081600d908051906020019061188e929190611d35565b508060018190555050505050565b60045481565b6118aa6119b9565b73ffffffffffffffffffffffffffffffffffffffff166118c86110ff565b73ffffffffffffffffffffffffffffffffffffffff161461191e576040517f08c379a000000000000000000000000000000000000000000000000000000000815260040161191590612507565b60405180910390fd5b600073ffffffffffffffffffffffffffffffffffffffff168173ffffffffffffffffffffffffffffffffffffffff160361198d576040517f08c379a0000000000000000000000000000000000000000000000000000000008152600401611984906127b5565b60405180910390fd5b61199681611ba5565b50565b600f6020528060005260406000206000915054906101000a900460ff1681565b600033905090565b611a5b8383836040516024016119d9939291906127d5565b6040516020818303038152906040527f969cdd03000000000000000000000000000000000000000000000000000000007bffffffffffffffffffffffffffffffffffffffffffffffffffffffff19166020820180517bffffffffffffffffffffffffffffffffffffffffffffffffffffffff8381831617835250505050611c80565b505050565b611af681604051602401611a749190611ea5565b6040516020818303038152906040527f41304fac000000000000000000000000000000000000000000000000000000007bffffffffffffffffffffffffffffffffffffffffffffffffffffffff19166020820180517bffffffffffffffffffffffffffffffffffffffffffffffffffffffff8381831617835250505050611c80565b50565b6001600e60008373ffffffffffffffffffffffffffffffffffffffff1673ffffffffffffffffffffffffffffffffffffffff16815260200190815260200160002060006101000a81548160ff021916908315150217905550600160056000828254611b6491906126ed565b925050819055507fe11711cd714e06fbbbea301a8e90822f2f2ea4808e37e3adf06038f33c53ff2781604051611b9a9190612150565b60405180910390a150565b60008060009054906101000a900473ffffffffffffffffffffffffffffffffffffffff169050816000806101000a81548173ffffffffffffffffffffffffffffffffffffffff021916908373ffffffffffffffffffffffffffffffffffffffff1602179055508173ffffffffffffffffffffffffffffffffffffffff168173ffffffffffffffffffffffffffffffffffffffff167f8be0079c531659141344cd1fd0a4f28419497f9722a3daafe3b4186f6b6457e060405160405180910390a35050565b600082611c768584611ca9565b1490509392505050565b60008151905060006a636f6e736f6c652e6c6f679050602083016000808483855afa5050505050565b60008082905060005b8451811015611d13576000858281518110611cd057611ccf612813565b5b60200260200101519050808311611cf257611ceb8382611d1e565b9250611cff565b611cfc8184611d1e565b92505b508080611d0b90612842565b915050611cb2565b508091505092915050565b600082600052816020526040600020905092915050565b828054611d419061248a565b90600052602060002090601f016020900481019282611d635760008555611daa565b82601f10611d7c57805160ff1916838001178555611daa565b82800160010185558215611daa579182015b82811115611da9578251825591602001919060010190611d8e565b5b509050611db79190611dbb565b5090565b5b80821115611dd4576000816000905550600101611dbc565b5090565b6000819050919050565b611deb81611dd8565b82525050565b6000602082019050611e066000830184611de2565b92915050565b600081519050919050565b600082825260208201905092915050565b60005b83811015611e46578082015181840152602081019050611e2b565b83811115611e55576000848401525b50505050565b6000601f19601f8301169050919050565b6000611e7782611e0c565b611e818185611e17565b9350611e91818560208601611e28565b611e9a81611e5b565b840191505092915050565b60006020820190508181036000830152611ebf8184611e6c565b905092915050565b6000604051905090565b600080fd5b600080fd5b600073ffffffffffffffffffffffffffffffffffffffff82169050919050565b6000611f0682611edb565b9050919050565b611f1681611efb565b8114611f2157600080fd5b50565b600081359050611f3381611f0d565b92915050565b600060208284031215611f4f57611f4e611ed1565b5b6000611f5d84828501611f24565b91505092915050565b60008115159050919050565b611f7b81611f66565b82525050565b6000602082019050611f966000830184611f72565b92915050565b611fa581611f66565b8114611fb057600080fd5b50565b600081359050611fc281611f9c565b92915050565b60008060408385031215611fdf57611fde611ed1565b5b6000611fed85828601611f24565b9250506020611ffe85828601611fb3565b9150509250929050565b6000819050919050565b61201b81612008565b82525050565b60006020820190506120366000830184612012565b92915050565b61204581612008565b811461205057600080fd5b50565b6000813590506120628161203c565b92915050565b60006020828403121561207e5761207d611ed1565b5b600061208c84828501612053565b91505092915050565b600080604083850312156120ac576120ab611ed1565b5b60006120ba85828601611fb3565b92505060206120cb85828601611fb3565b9150509250929050565b6120de81611dd8565b81146120e957600080fd5b50565b6000813590506120fb816120d5565b92915050565b6000806040838503121561211857612117611ed1565b5b6000612126858286016120ec565b9250506020612137858286016120ec565b9150509250929050565b61214a81611efb565b82525050565b60006020820190506121656000830184612141565b92915050565b60008060006060848603121561218457612183611ed1565b5b6000612192868287016120ec565b93505060206121a3868287016120ec565b92505060406121b4868287016120ec565b9150509250925092565b600080fd5b600080fd5b600080fd5b60008083601f8401126121e3576121e26121be565b5b8235905067ffffffffffffffff811115612200576121ff6121c3565b5b60208301915083602082028301111561221c5761221b6121c8565b5b9250929050565b6000806020838503121561223a57612239611ed1565b5b600083013567ffffffffffffffff81111561225857612257611ed6565b5b612264858286016121cd565b92509250509250929050565b600080fd5b7f4e487b7100000000000000000000000000000000000000000000000000000000600052604160045260246000fd5b6122ad82611e5b565b810181811067ffffffffffffffff821117156122cc576122cb612275565b5b80604052505050565b60006122df611ec7565b90506122eb82826122a4565b919050565b600067ffffffffffffffff82111561230b5761230a612275565b5b61231482611e5b565b9050602081019050919050565b82818337600083830152505050565b600061234361233e846122f0565b6122d5565b90508281526020810184848401111561235f5761235e612270565b5b61236a848285612321565b509392505050565b600082601f830112612387576123866121be565b5b8135612397848260208601612330565b91505092915050565b600080600080608085870312156123ba576123b9611ed1565b5b600085013567ffffffffffffffff8111156123d8576123d7611ed6565b5b6123e487828801612372565b945050602085013567ffffffffffffffff81111561240557612404611ed6565b5b61241187828801612372565b935050604085013567ffffffffffffffff81111561243257612431611ed6565b5b61243e87828801612372565b925050606061244f878288016120ec565b91505092959194509250565b7f4e487b7100000000000000000000000000000000000000000000000000000000600052602260045260246000fd5b600060028204905060018216806124a257607f821691505b6020821081036124b5576124b461245b565b5b50919050565b7f4f776e61626c653a2063616c6c6572206973206e6f7420746865206f776e6572600082015250565b60006124f1602083611e17565b91506124fc826124bb565b602082019050919050565b60006020820190508181036000830152612520816124e4565b9050919050565b7f4e487b7100000000000000000000000000000000000000000000000000000000600052601160045260246000fd5b600061256182611dd8565b915061256c83611dd8565b92508282101561257f5761257e612527565b5b828203905092915050565b600061259582611dd8565b91506125a083611dd8565b9250817fffffffffffffffffffffffffffffffffffffffffffffffffffffffffffffffff04831182151516156125d9576125d8612527565b5b828202905092915050565b7f4e487b7100000000000000000000000000000000000000000000000000000000600052601260045260246000fd5b600061261e82611dd8565b915061262983611dd8565b925082612639576126386125e4565b5b828204905092915050565b600081905092915050565b50565b600061265f600083612644565b915061266a8261264f565b600082019050919050565b600061268082612652565b9150819050919050565b60008160601b9050919050565b60006126a28261268a565b9050919050565b60006126b482612697565b9050919050565b6126cc6126c782611efb565b6126a9565b82525050565b60006126de82846126bb565b60148201915081905092915050565b60006126f882611dd8565b915061270383611dd8565b9250827fffffffffffffffffffffffffffffffffffffffffffffffffffffffffffffffff0382111561273857612737612527565b5b828201905092915050565b7f4f776e61626c653a206e6577206f776e657220697320746865207a65726f206160008201527f6464726573730000000000000000000000000000000000000000000000000000602082015250565b600061279f602683611e17565b91506127aa82612743565b604082019050919050565b600060208201905081810360008301526127ce81612792565b9050919050565b600060608201905081810360008301526127ef8186611e6c565b90506127fe6020830185611de2565b61280b6040830184611de2565b949350505050565b7f4e487b7100000000000000000000000000000000000000000000000000000000600052603260045260246000fd5b600061284d82611dd8565b91507fffffffffffffffffffffffffffffffffffffffffffffffffffffffffffffffff820361287f5761287e612527565b5b60018201905091905056fea2646970667358221220278ebd4343f4f5e29df4bec66ad3462abf3b6557b099c8266f6c2fe31aa3c1d764736f6c634300080d0033","linkReferences":{},"deployedLinkReferences":{}}