{
  "_format": "hh-sol-artifact-1",
  "contractName": "Event",
  "sourceName": "contracts/Event.sol",
  "abi": [
    {
      "inputs": [
        {
          "components": [
            {
              "internalType": "string",
              "name": "name",
              "type": "string"
            },
            {
              "internalType": "string",
              "name": "description",
              "type": "string"
            },
            {
              "internalType": "string",
              "name": "link",
              "type": "string"
            },
            {
              "internalType": "string",
              "name": "tokenUri",
              "type": "string"
            },
            {
              "internalType": "uint256",
              "name": "maxParticipants",
              "type": "uint256"
            },
            {
              "internalType": "uint256",
              "name": "registrationEnd",
              "type": "uint256"
            },
            {
              "internalType": "uint256",
              "name": "start",
              "type": "uint256"
            },
            {
              "internalType": "uint256",
              "name": "end",
              "type": "uint256"
            },
            {
              "internalType": "uint256",
              "name": "ticketPrice",
              "type": "uint256"
            },
            {
              "internalType": "uint256",
              "name": "preSaleTicketPrice",
              "type": "uint256"
            }
          ],
          "internalType": "struct Utils.EventStruct",
          "name": "eventData",
          "type": "tuple"
        },
        {
          "internalType": "address",
          "name": "owner",
          "type": "address"
        },
        {
          "internalType": "uint256",
          "name": "fee",
          "type": "uint256"
        }
      ],
      "stateMutability": "nonpayable",
      "type": "constructor"
    },
    {
      "inputs": [],
      "name": "AddressNotWhitelisted",
      "type": "error"
    },
    {
      "inputs": [],
      "name": "AlreadyCheckedIn",
      "type": "error"
    },
    {
      "inputs": [],
      "name": "AlreadyRegistered",
      "type": "error"
    },
    {
      "inputs": [],
      "name": "BalanceQueryForZeroAddress",
      "type": "error"
    },
    {
      "inputs": [],
      "name": "CheckInNotAvailable",
      "type": "error"
    },
    {
      "inputs": [],
      "name": "EventAlreadyStarted",
      "type": "error"
    },
    {
      "inputs": [],
      "name": "MintToZeroAddress",
      "type": "error"
    },
    {
      "inputs": [],
      "name": "MintZeroQuantity",
      "type": "error"
    },
    {
      "inputs": [],
      "name": "NoSeatsAvailable",
      "type": "error"
    },
    {
      "inputs": [],
      "name": "NotModerator",
      "type": "error"
    },
    {
      "inputs": [],
      "name": "NotRegistered",
      "type": "error"
    },
    {
      "inputs": [],
      "name": "OwnerQueryForNonexistentToken",
      "type": "error"
    },
    {
      "inputs": [],
      "name": "ProvideRequiredArguments",
      "type": "error"
    },
    {
      "inputs": [],
      "name": "RegistrationClosed",
      "type": "error"
    },
    {
      "inputs": [],
      "name": "TransferFailed",
      "type": "error"
    },
    {
      "inputs": [],
      "name": "TransferToNonERC721ReceiverImplementer",
      "type": "error"
    },
    {
      "inputs": [],
      "name": "URIQueryForNonexistentToken",
      "type": "error"
    },
    {
      "inputs": [],
      "name": "ValueNotEnough",
      "type": "error"
    },
    {
      "anonymous": false,
      "inputs": [
        {
          "indexed": true,
          "internalType": "address",
          "name": "previousOwner",
          "type": "address"
        },
        {
          "indexed": true,
          "internalType": "address",
          "name": "newOwner",
          "type": "address"
        }
      ],
      "name": "OwnershipTransferred",
      "type": "event"
    },
    {
      "anonymous": false,
      "inputs": [
        {
          "indexed": false,
          "internalType": "address",
          "name": "participant",
          "type": "address"
        }
      ],
      "name": "ParticipantChecked",
      "type": "event"
    },
    {
      "anonymous": false,
      "inputs": [
        {
          "indexed": false,
          "internalType": "address",
          "name": "participant",
          "type": "address"
        }
      ],
      "name": "ParticipantRegistered",
      "type": "event"
    },
    {
      "anonymous": false,
      "inputs": [
        {
          "indexed": true,
          "internalType": "address",
          "name": "from",
          "type": "address"
        },
        {
          "indexed": true,
          "internalType": "address",
          "name": "to",
          "type": "address"
        },
        {
          "indexed": true,
          "internalType": "uint256",
          "name": "tokenId",
          "type": "uint256"
        }
      ],
      "name": "Transfer",
      "type": "event"
    },
    {
      "inputs": [
        {
          "internalType": "address",
          "name": "addr",
          "type": "address"
        },
        {
          "internalType": "bool",
          "name": "status",
          "type": "bool"
        }
      ],
      "name": "addModerator",
      "outputs": [],
      "stateMutability": "nonpayable",
      "type": "function"
    },
    {
      "inputs": [
        {
          "internalType": "address",
          "name": "owner",
          "type": "address"
        }
      ],
      "name": "balanceOf",
      "outputs": [
        {
          "internalType": "uint256",
          "name": "",
          "type": "uint256"
        }
      ],
      "stateMutability": "view",
      "type": "function"
    },
    {
      "inputs": [
        {
          "internalType": "uint256",
          "name": "_start",
          "type": "uint256"
        },
        {
          "internalType": "uint256",
          "name": "_end",
          "type": "uint256"
        },
        {
          "internalType": "uint256",
          "name": "_registrationEnd",
          "type": "uint256"
        }
      ],
      "name": "changeEventDates",
      "outputs": [],
      "stateMutability": "nonpayable",
      "type": "function"
    },
    {
      "inputs": [
        {
          "internalType": "string",
          "name": "_description",
          "type": "string"
        },
        {
          "internalType": "string",
          "name": "_link",
          "type": "string"
        },
        {
          "internalType": "uint256",
          "name": "_maxParticipants",
          "type": "uint256"
        }
      ],
      "name": "changeEventInfo",
      "outputs": [],
      "stateMutability": "nonpayable",
      "type": "function"
    },
    {
      "inputs": [
        {
          "internalType": "uint256",
          "name": "_ticketPrice",
          "type": "uint256"
        },
        {
          "internalType": "uint256",
          "name": "_preSalePrice",
          "type": "uint256"
        }
      ],
      "name": "changeTicketPrices",
      "outputs": [],
      "stateMutability": "nonpayable",
      "type": "function"
    },
    {
      "inputs": [
        {
          "internalType": "bytes32",
          "name": "rootHash",
          "type": "bytes32"
        }
      ],
      "name": "changeWhitelistRoot",
      "outputs": [],
      "stateMutability": "nonpayable",
      "type": "function"
    },
    {
      "inputs": [
        {
          "internalType": "address",
          "name": "participant",
          "type": "address"
        }
      ],
      "name": "checkIn",
      "outputs": [],
      "stateMutability": "nonpayable",
      "type": "function"
    },
    {
      "inputs": [],
      "name": "checkedParticipantCount",
      "outputs": [
        {
          "internalType": "uint256",
          "name": "",
          "type": "uint256"
        }
      ],
      "stateMutability": "view",
      "type": "function"
    },
    {
      "inputs": [
        {
          "internalType": "address",
          "name": "",
          "type": "address"
        }
      ],
      "name": "checkedParticipants",
      "outputs": [
        {
          "internalType": "bool",
          "name": "",
          "type": "bool"
        }
      ],
      "stateMutability": "view",
      "type": "function"
    },
    {
      "inputs": [],
      "name": "description",
      "outputs": [
        {
          "internalType": "string",
          "name": "",
          "type": "string"
        }
      ],
      "stateMutability": "view",
      "type": "function"
    },
    {
      "inputs": [],
      "name": "end",
      "outputs": [
        {
          "internalType": "uint256",
          "name": "",
          "type": "uint256"
        }
      ],
      "stateMutability": "view",
      "type": "function"
    },
    {
      "inputs": [
        {
          "internalType": "uint256",
          "name": "currTimestamp",
          "type": "uint256"
        }
      ],
      "name": "getEventInfo",
      "outputs": [
        {
          "components": [
            {
              "internalType": "string",
              "name": "name",
              "type": "string"
            },
            {
              "internalType": "string",
              "name": "description",
              "type": "string"
            },
            {
              "internalType": "string",
              "name": "link",
              "type": "string"
            },
            {
              "internalType": "uint256",
              "name": "maxParticipants",
              "type": "uint256"
            },
            {
              "internalType": "uint256",
              "name": "registrationEnd",
              "type": "uint256"
            },
            {
              "internalType": "uint256",
              "name": "start",
              "type": "uint256"
            },
            {
              "internalType": "uint256",
              "name": "end",
              "type": "uint256"
            },
            {
              "internalType": "uint256",
              "name": "ticketPrice",
              "type": "uint256"
            },
            {
              "internalType": "uint256",
              "name": "preSaleTicketPrice",
              "type": "uint256"
            },
            {
              "internalType": "uint256",
              "name": "registeredParticipantCount",
              "type": "uint256"
            },
            {
              "internalType": "uint256",
              "name": "checkedParticipantCount",
              "type": "uint256"
            },
            {
              "internalType": "bool",
              "name": "registrationOpen",
              "type": "bool"
            },
            {
              "internalType": "bool",
              "name": "onlyWhitelistRegistration",
              "type": "bool"
            },
            {
              "internalType": "bool",
              "name": "isRegistered",
              "type": "bool"
            },
            {
              "internalType": "bool",
              "name": "isChecked",
              "type": "bool"
            },
            {
              "internalType": "address",
              "name": "addr",
              "type": "address"
            }
          ],
          "internalType": "struct Utils.EventInfoStruct",
          "name": "",
          "type": "tuple"
        }
      ],
      "stateMutability": "view",
      "type": "function"
    },
    {
      "inputs": [
        {
          "internalType": "uint256",
          "name": "currTimestamp",
          "type": "uint256"
        }
      ],
      "name": "getRegistrationOpen",
      "outputs": [
        {
          "internalType": "uint8",
          "name": "",
          "type": "uint8"
        }
      ],
      "stateMutability": "view",
      "type": "function"
    },
    {
      "inputs": [],
      "name": "link",
      "outputs": [
        {
          "internalType": "string",
          "name": "",
          "type": "string"
        }
      ],
      "stateMutability": "view",
      "type": "function"
    },
    {
      "inputs": [],
      "name": "maxParticipants",
      "outputs": [
        {
          "internalType": "uint256",
          "name": "",
          "type": "uint256"
        }
      ],
      "stateMutability": "view",
      "type": "function"
    },
    {
      "inputs": [
        {
          "internalType": "address",
          "name": "",
          "type": "address"
        }
      ],
      "name": "moderators",
      "outputs": [
        {
          "internalType": "bool",
          "name": "",
          "type": "bool"
        }
      ],
      "stateMutability": "view",
      "type": "function"
    },
    {
      "inputs": [],
      "name": "name",
      "outputs": [
        {
          "internalType": "string",
          "name": "",
          "type": "string"
        }
      ],
      "stateMutability": "view",
      "type": "function"
    },
    {
      "inputs": [],
      "name": "onlyWhitelistRegistration",
      "outputs": [
        {
          "internalType": "bool",
          "name": "",
          "type": "bool"
        }
      ],
      "stateMutability": "view",
      "type": "function"
    },
    {
      "inputs": [],
      "name": "owner",
      "outputs": [
        {
          "internalType": "address",
          "name": "",
          "type": "address"
        }
      ],
      "stateMutability": "view",
      "type": "function"
    },
    {
      "inputs": [
        {
          "internalType": "uint256",
          "name": "tokenId",
          "type": "uint256"
        }
      ],
      "name": "ownerOf",
      "outputs": [
        {
          "internalType": "address",
          "name": "",
          "type": "address"
        }
      ],
      "stateMutability": "view",
      "type": "function"
    },
    {
      "inputs": [],
      "name": "parentContractAddr",
      "outputs": [
        {
          "internalType": "address",
          "name": "",
          "type": "address"
        }
      ],
      "stateMutability": "view",
      "type": "function"
    },
    {
      "inputs": [],
      "name": "parentContractFee",
      "outputs": [
        {
          "internalType": "uint256",
          "name": "",
          "type": "uint256"
        }
      ],
      "stateMutability": "view",
      "type": "function"
    },
    {
      "inputs": [
        {
          "internalType": "address",
          "name": "",
          "type": "address"
        }
      ],
      "name": "participants",
      "outputs": [
        {
          "internalType": "bool",
          "name": "",
          "type": "bool"
        }
      ],
      "stateMutability": "view",
      "type": "function"
    },
    {
      "inputs": [],
      "name": "preSaleTicketPrice",
      "outputs": [
        {
          "internalType": "uint256",
          "name": "",
          "type": "uint256"
        }
      ],
      "stateMutability": "view",
      "type": "function"
    },
    {
      "inputs": [],
      "name": "publicRegister",
      "outputs": [],
      "stateMutability": "payable",
      "type": "function"
    },
    {
      "inputs": [],
      "name": "registeredParticipantCount",
      "outputs": [
        {
          "internalType": "uint256",
          "name": "",
          "type": "uint256"
        }
      ],
      "stateMutability": "view",
      "type": "function"
    },
    {
      "inputs": [],
      "name": "registrationEnd",
      "outputs": [
        {
          "internalType": "uint256",
          "name": "",
          "type": "uint256"
        }
      ],
      "stateMutability": "view",
      "type": "function"
    },
    {
      "inputs": [],
      "name": "registrationOpen",
      "outputs": [
        {
          "internalType": "bool",
          "name": "",
          "type": "bool"
        }
      ],
      "stateMutability": "view",
      "type": "function"
    },
    {
      "inputs": [],
      "name": "renounceOwnership",
      "outputs": [],
      "stateMutability": "nonpayable",
      "type": "function"
    },
    {
      "inputs": [],
      "name": "start",
      "outputs": [
        {
          "internalType": "uint256",
          "name": "",
          "type": "uint256"
        }
      ],
      "stateMutability": "view",
      "type": "function"
    },
    {
      "inputs": [
        {
          "internalType": "bytes4",
          "name": "interfaceId",
          "type": "bytes4"
        }
      ],
      "name": "supportsInterface",
      "outputs": [
        {
          "internalType": "bool",
          "name": "",
          "type": "bool"
        }
      ],
      "stateMutability": "view",
      "type": "function"
    },
    {
      "inputs": [],
      "name": "symbol",
      "outputs": [
        {
          "internalType": "string",
          "name": "",
          "type": "string"
        }
      ],
      "stateMutability": "view",
      "type": "function"
    },
    {
      "inputs": [],
      "name": "ticketPrice",
      "outputs": [
        {
          "internalType": "uint256",
          "name": "",
          "type": "uint256"
        }
      ],
      "stateMutability": "view",
      "type": "function"
    },
    {
      "inputs": [
        {
          "internalType": "bool",
          "name": "_isOpen",
          "type": "bool"
        },
        {
          "internalType": "bool",
          "name": "_onlyWhitelist",
          "type": "bool"
        }
      ],
      "name": "toggleRegistration",
      "outputs": [],
      "stateMutability": "nonpayable",
      "type": "function"
    },
    {
      "inputs": [
        {
          "internalType": "uint256",
          "name": "tokenId",
          "type": "uint256"
        }
      ],
      "name": "tokenURI",
      "outputs": [
        {
          "internalType": "string",
          "name": "",
          "type": "string"
        }
      ],
      "stateMutability": "view",
      "type": "function"
    },
    {
      "inputs": [],
      "name": "tokenUri",
      "outputs": [
        {
          "internalType": "string",
          "name": "",
          "type": "string"
        }
      ],
      "stateMutability": "view",
      "type": "function"
    },
    {
      "inputs": [],
      "name": "totalSupply",
      "outputs": [
        {
          "internalType": "uint256",
          "name": "",
          "type": "uint256"
        }
      ],
      "stateMutability": "view",
      "type": "function"
    },
    {
      "inputs": [
        {
          "internalType": "address",
          "name": "newOwner",
          "type": "address"
        }
      ],
      "name": "transferOwnership",
      "outputs": [],
      "stateMutability": "nonpayable",
      "type": "function"
    },
    {
      "inputs": [
        {
          "internalType": "bytes32",
          "name": "_hash",
          "type": "bytes32"
        },
        {
          "internalType": "bytes",
          "name": "_signature",
          "type": "bytes"
        }
      ],
      "name": "verifyTicket",
      "outputs": [
        {
          "internalType": "bool",
          "name": "",
          "type": "bool"
        }
      ],
      "stateMutability": "view",
      "type": "function"
    },
    {
      "inputs": [
        {
          "internalType": "bytes32[]",
          "name": "_proof",
          "type": "bytes32[]"
        }
      ],
      "name": "whitelistRegister",
      "outputs": [],
      "stateMutability": "payable",
      "type": "function"
    },
    {
      "inputs": [],
      "name": "whitelistRoot",
      "outputs": [
        {
          "internalType": "bytes32",
          "name": "",
          "type": "bytes32"
        }
      ],
      "stateMutability": "view",
      "type": "function"
    },
    {
      "inputs": [],
      "name": "withdraw",
      "outputs": [],
      "stateMutability": "nonpayable",
      "type": "function"
    }
  ],
  "bytecode": "0x60806040526007805461ff0019166101001790557f16d95910a21726a3e7b59a8c6166b355396434419809cb902e2063555b8d60de6011553480156200004457600080fd5b5060405162002b2338038062002b238339810160408190526200006791620003ed565b825160408051808201909152600381526222ab2760e91b60208201526200008e336200019d565b60036200009c8382620005c6565b506004620000ab8282620005c6565b5060018055505060c08301511580620000c6575060e0830151155b15620000e557604051630968678160e11b815260040160405180910390fd5b6020830151601290620000f99082620005c6565b5060408301516013906200010e9082620005c6565b506060830151601490620001239082620005c6565b50608083015160085560c0830151600a5560e0830151600b55610100830151600e55610120830151600f5560a0830151600003620001695760c083015160095562000172565b60a08301516009555b601880546001600160a01b0319163317905560108190556200019482620001ed565b50505062000692565b600080546001600160a01b038381166001600160a01b0319831681178455604051919092169283917f8be0079c531659141344cd1fd0a4f28419497f9722a3daafe3b4186f6b6457e09190a35050565b620001f762000270565b6001600160a01b038116620002625760405162461bcd60e51b815260206004820152602660248201527f4f776e61626c653a206e6577206f776e657220697320746865207a65726f206160448201526564647265737360d01b60648201526084015b60405180910390fd5b6200026d816200019d565b50565b6000546001600160a01b03163314620002cc5760405162461bcd60e51b815260206004820181905260248201527f4f776e61626c653a2063616c6c6572206973206e6f7420746865206f776e6572604482015260640162000259565b565b634e487b7160e01b600052604160045260246000fd5b60405161014081016001600160401b03811182821017156200030a576200030a620002ce565b60405290565b604051601f8201601f191681016001600160401b03811182821017156200033b576200033b620002ce565b604052919050565b600082601f8301126200035557600080fd5b81516001600160401b03811115620003715762000371620002ce565b602062000387601f8301601f1916820162000310565b82815285828487010111156200039c57600080fd5b60005b83811015620003bc5785810183015182820184015282016200039f565b506000928101909101919091529392505050565b80516001600160a01b0381168114620003e857600080fd5b919050565b6000806000606084860312156200040357600080fd5b83516001600160401b03808211156200041b57600080fd5b9085019061014082880312156200043157600080fd5b6200043b620002e4565b8251828111156200044b57600080fd5b620004598982860162000343565b8252506020830151828111156200046f57600080fd5b6200047d8982860162000343565b6020830152506040830151828111156200049657600080fd5b620004a48982860162000343565b604083015250606083015182811115620004bd57600080fd5b620004cb8982860162000343565b6060830152506080830151608082015260a083015160a082015260c083015160c082015260e083015160e082015261010091508183015182820152610120915081830151828201528095505050506200052760208501620003d0565b9150604084015190509250925092565b600181811c908216806200054c57607f821691505b6020821081036200056d57634e487b7160e01b600052602260045260246000fd5b50919050565b601f821115620005c157600081815260208120601f850160051c810160208610156200059c5750805b601f850160051c820191505b81811015620005bd57828155600101620005a8565b5050505b505050565b81516001600160401b03811115620005e257620005e2620002ce565b620005fa81620005f3845462000537565b8462000573565b602080601f831160018114620006325760008415620006195750858301515b600019600386901b1c1916600185901b178555620005bd565b600085815260208120601f198616915b82811015620006635788860151825594840194600190910190840162000642565b5085821015620006825787850151600019600388901b60f8161c191681555b5050505050600190811b01905550565b61248180620006a26000396000f3fe6080604052600436106102d05760003560e01c80637de33aec11610179578063c4625ba3116100d6578063ead121111161008a578063f34094a711610064578063f34094a714610774578063f3f0bf3f1461077c578063fe1e2f511461079c57600080fd5b8063ead121111461070c578063efbe1c1c1461073e578063f2fde38b1461075457600080fd5b8063c7cac600116100bb578063c7cac600146106b2578063c87b56dd146106cc578063d9a59e33146106ec57600080fd5b8063c4625ba31461067c578063c6a7cbc91461069257600080fd5b806392cc6a681161012d578063be9a655511610112578063be9a655514610633578063bffa312314610649578063c025e6861461066957600080fd5b806392cc6a68146105fe57806395d89b411461061e57600080fd5b80638121e42d1161015e5780638121e42d146105aa5780638818ed38146105c05780638da5cb5b146105e057600080fd5b80637de33aec146105745780637fd34e921461058a57600080fd5b806324924bf7116102325780636352211e116101e6578063715018a6116101c0578063715018a61461052b5780637284e41614610540578063736f88cd1461055557600080fd5b80636352211e146104b35780636c9de4ef146104eb57806370a082311461050b57600080fd5b8063355e0c5d11610217578063355e0c5d14610473578063386bfc98146104885780633ccfd60b1461049e57600080fd5b806324924bf71461043b578063336df1061461045157600080fd5b806313446a751161028957806318160ddd1161026e57806318160ddd146103dc5780631c4695f4146103f95780631d645b121461040e57600080fd5b806313446a751461039657806314d0f1ba146103ac57600080fd5b806306fdde03116102ba57806306fdde031461032e57806309e69ede146103505780631209b1f61461038057600080fd5b8062f4494f146102d557806301ffc9a7146102fe575b600080fd5b3480156102e157600080fd5b506102eb60105481565b6040519081526020015b60405180910390f35b34801561030a57600080fd5b5061031e610319366004611d65565b6107cc565b60405190151581526020016102f5565b34801561033a57600080fd5b50610343610869565b6040516102f59190611dc8565b34801561035c57600080fd5b5061031e61036b366004611df7565b60156020526000908152604090205460ff1681565b34801561038c57600080fd5b506102eb600e5481565b3480156103a257600080fd5b506102eb60095481565b3480156103b857600080fd5b5061031e6103c7366004611df7565b60176020526000908152604090205460ff1681565b3480156103e857600080fd5b5060025460015403600019016102eb565b34801561040557600080fd5b506103436108fb565b34801561041a57600080fd5b5061042e610429366004611e12565b610989565b6040516102f59190611e2b565b34801561044757600080fd5b506102eb60085481565b34801561045d57600080fd5b5061047161046c366004611f6a565b610c6c565b005b34801561047f57600080fd5b50610343610c9f565b34801561049457600080fd5b506102eb60115481565b3480156104aa57600080fd5b50610471610cac565b3480156104bf57600080fd5b506104d36104ce366004611e12565b610e11565b6040516001600160a01b0390911681526020016102f5565b3480156104f757600080fd5b50610471610506366004611f9d565b610e1c565b34801561051757600080fd5b506102eb610526366004611df7565b610e47565b34801561053757600080fd5b50610471610eaf565b34801561054c57600080fd5b50610343610ec3565b34801561056157600080fd5b5060075461031e90610100900460ff1681565b34801561058057600080fd5b506102eb600d5481565b34801561059657600080fd5b506104716105a5366004611fb9565b610ed0565b3480156105b657600080fd5b506102eb600f5481565b3480156105cc57600080fd5b506018546104d3906001600160a01b031681565b3480156105ec57600080fd5b506000546001600160a01b03166104d3565b34801561060a57600080fd5b50610471610619366004612087565b610ee3565b34801561062a57600080fd5b50610343610f0c565b34801561063f57600080fd5b506102eb600a5481565b34801561065557600080fd5b506104716106643660046120f4565b610f1b565b610471610677366004612120565b610f31565b34801561068857600080fd5b506102eb600c5481565b34801561069e57600080fd5b506104716106ad366004611e12565b61109c565b3480156106be57600080fd5b5060075461031e9060ff1681565b3480156106d857600080fd5b506103436106e7366004611e12565b6110a9565b3480156106f857600080fd5b50610471610707366004611df7565b61117c565b34801561071857600080fd5b5061072c610727366004611e12565b61134b565b60405160ff90911681526020016102f5565b34801561074a57600080fd5b506102eb600b5481565b34801561076057600080fd5b5061047161076f366004611df7565b6113ce565b610471611463565b34801561078857600080fd5b5061031e610797366004612195565b611550565b3480156107a857600080fd5b5061031e6107b7366004611df7565b60166020526000908152604090205460ff1681565b60007f01ffc9a7000000000000000000000000000000000000000000000000000000006001600160e01b03198316148061082f57507f80ac58cd000000000000000000000000000000000000000000000000000000006001600160e01b03198316145b8061086357507f5b5e139f000000000000000000000000000000000000000000000000000000006001600160e01b03198316145b92915050565b606060038054610878906121f0565b80601f01602080910402602001604051908101604052809291908181526020018280546108a4906121f0565b80156108f15780601f106108c6576101008083540402835291602001916108f1565b820191906000526020600020905b8154815290600101906020018083116108d457829003601f168201915b5050505050905090565b60138054610908906121f0565b80601f0160208091040260200160405190810160405280929190818152602001828054610934906121f0565b80156109815780601f1061095657610100808354040283529160200191610981565b820191906000526020600020905b81548152906001019060200180831161096457829003601f168201915b505050505081565b610a1a604051806102000160405280606081526020016060815260200160608152602001600081526020016000815260200160008152602001600081526020016000815260200160008152602001600081526020016000815260200160001515815260200160001515815260200160001515815260200160001515815260200160006001600160a01b031681525090565b610aab604051806102000160405280606081526020016060815260200160608152602001600081526020016000815260200160008152602001600081526020016000815260200160008152602001600081526020016000815260200160001515815260200160001515815260200160001515815260200160001515815260200160006001600160a01b031681525090565b600a5460a0820152600b5460c08201526009546080820152610acb610869565b815260128054610ada906121f0565b80601f0160208091040260200160405190810160405280929190818152602001828054610b06906121f0565b8015610b535780601f10610b2857610100808354040283529160200191610b53565b820191906000526020600020905b815481529060010190602001808311610b3657829003601f168201915b505050505060208201526008546060820152600e5460e0820152600f5461010082015260138054610b83906121f0565b80601f0160208091040260200160405190810160405280929190818152602001828054610baf906121f0565b8015610bfc5780601f10610bd157610100808354040283529160200191610bfc565b820191906000526020600020905b815481529060010190602001808311610bdf57829003601f168201915b50505050508160400181905250610c128361134b565b60ff9081161561016083015233600081815260156020908152604080832054851615156101a08701529282526016905220541615156101c0820152600c54610120820152600d54610140820152306101e082015292915050565b610c74611580565b6001600160a01b03919091166000908152601760205260409020805460ff1916911515919091179055565b60148054610908906121f0565b610cb4611580565b476000819003610cd7576040516312171d8360e31b815260040160405180910390fd5b601054600190600090610ceb906064612240565b60105490915015610d85576018546010546001600160a01b0390911690606490610d16908690612253565b610d20919061226a565b604051600081818185875af1925050503d8060008114610d5c576040519150601f19603f3d011682016040523d82523d6000602084013e610d61565b606091505b50508092505081610d85576040516312171d8360e31b815260040160405180910390fd5b6000546001600160a01b03166064610d9d8584612253565b610da7919061226a565b604051600081818185875af1925050503d8060008114610de3576040519150601f19603f3d011682016040523d82523d6000602084013e610de8565b606091505b50508092505081610e0c576040516312171d8360e31b815260040160405180910390fd5b505050565b6000610863826115da565b610e24611580565b6007805461ffff19166101009315159390930260ff191692909217901515179055565b60006001600160a01b038216610e89576040517f8f4eb60400000000000000000000000000000000000000000000000000000000815260040160405180910390fd5b506001600160a01b031660009081526006602052604090205467ffffffffffffffff1690565b610eb7611580565b610ec16000611669565b565b60128054610908906121f0565b610ed8611580565b600e91909155600f55565b610eeb611580565b6012610ef784826122da565b506013610f0483826122da565b506008555050565b606060048054610878906121f0565b610f23611580565b600a92909255600b55600955565b6000610f3c4261134b565b90508060ff16600103610f625760405163a8ab2d2560e01b815260040160405180910390fd5b8060ff16600203610f8657604051632fc209f360e01b815260040160405180910390fd5b8060ff16600303610faa57604051630ea075bf60e21b815260040160405180910390fd5b8060ff16600403610fce57604051632437ffe960e11b815260040160405180910390fd5b60075460ff1615806110525750611050838380806020026020016040519081016040528093929190818152602001838360200280828437600092019190915250506011546040516bffffffffffffffffffffffff193360601b1660208201529092506034019050604051602081830303815290604052805190602001206116d1565b155b156110705760405163ad7acb4760e01b815260040160405180910390fd5b600f5434101561109357604051633c89335b60e11b815260040160405180910390fd5b610e0c336116e7565b6110a4611580565b601155565b60606110b482611770565b6110ea576040517fa14c4b5000000000000000000000000000000000000000000000000000000000815260040160405180910390fd5b601480546110f7906121f0565b80601f0160208091040260200160405190810160405280929190818152602001828054611123906121f0565b80156111705780601f1061114557610100808354040283529160200191611170565b820191906000526020600020905b81548152906001019060200180831161115357829003601f168201915b50505050509050919050565b6000546001600160a01b031633148015906111a757503360009081526017602052604090205460ff16155b156111de576040517feaa45d6a00000000000000000000000000000000000000000000000000000000815260040160405180910390fd5b600a5442908110806111f15750600b5481115b15611228576040517f91e3be3900000000000000000000000000000000000000000000000000000000815260040160405180910390fd5b6001600160a01b03821660009081526015602052604090205460ff1661127a576040517faba4733900000000000000000000000000000000000000000000000000000000815260040160405180910390fd5b6001600160a01b03821660009081526016602052604090205460ff16156112cd576040517fc98289f000000000000000000000000000000000000000000000000000000000815260040160405180910390fd5b6001600160a01b0382166000908152601660205260408120805460ff19166001908117909155600d80549192909161130690849061239a565b90915550506040516001600160a01b03831681527fcbf477e63735f8d27f9b668165862d7c6e84e5650edec70229523db18c2f1efd9060200160405180910390a15050565b6000600a5482111561135f57506001919050565b600754610100900460ff161580611377575060095482115b1561138457506002919050565b3360009081526015602052604090205460ff16156113a457506003919050565b60006008541180156113b95750600854600c54145b156113c657506004919050565b506000919050565b6113d6611580565b6001600160a01b0381166114575760405162461bcd60e51b815260206004820152602660248201527f4f776e61626c653a206e6577206f776e657220697320746865207a65726f206160448201527f646472657373000000000000000000000000000000000000000000000000000060648201526084015b60405180910390fd5b61146081611669565b50565b600061146e4261134b565b90508060ff166001036114945760405163a8ab2d2560e01b815260040160405180910390fd5b8060ff166002036114b857604051632fc209f360e01b815260040160405180910390fd5b8060ff166003036114dc57604051630ea075bf60e21b815260040160405180910390fd5b8060ff1660040361150057604051632437ffe960e11b815260040160405180910390fd5b60075460ff16156115245760405163ad7acb4760e01b815260040160405180910390fd5b600e5434101561154757604051633c89335b60e11b815260040160405180910390fd5b611460336116e7565b60008061155d84846117a5565b6001600160a01b031660009081526015602052604090205460ff16949350505050565b6000546001600160a01b03163314610ec15760405162461bcd60e51b815260206004820181905260248201527f4f776e61626c653a2063616c6c6572206973206e6f7420746865206f776e6572604482015260640161144e565b60008180600111611637576001548110156116375760008181526005602052604081205490600160e01b82169003611635575b8060000361162e57506000190160008181526005602052604090205461160d565b9392505050565b505b6040517fdf2d9b4200000000000000000000000000000000000000000000000000000000815260040160405180910390fd5b600080546001600160a01b038381167fffffffffffffffffffffffff0000000000000000000000000000000000000000831681178455604051919092169283917f8be0079c531659141344cd1fd0a4f28419497f9722a3daafe3b4186f6b6457e09190a35050565b6000826116de85846117c9565b14949350505050565b6001600160a01b0381166000908152601560205260408120805460ff19166001908117909155600c80549192909161172090849061239a565b90915550611731905081600161180e565b6040516001600160a01b03821681527fe11711cd714e06fbbbea301a8e90822f2f2ea4808e37e3adf06038f33c53ff279060200160405180910390a150565b600081600111158015611784575060015482105b8015610863575050600090815260056020526040902054600160e01b161590565b60008060006117b4858561182c565b915091506117c181611871565b509392505050565b600081815b84518110156117c1576117fa828683815181106117ed576117ed6123ad565b60200260200101516119d6565b915080611806816123c3565b9150506117ce565b611828828260405180602001604052806000815250611a02565b5050565b60008082516041036118625760208301516040840151606085015160001a61185687828585611a6f565b9450945050505061186a565b506000905060025b9250929050565b6000816004811115611885576118856123dc565b0361188d5750565b60018160048111156118a1576118a16123dc565b036118ee5760405162461bcd60e51b815260206004820152601860248201527f45434453413a20696e76616c6964207369676e61747572650000000000000000604482015260640161144e565b6002816004811115611902576119026123dc565b0361194f5760405162461bcd60e51b815260206004820152601f60248201527f45434453413a20696e76616c6964207369676e6174757265206c656e67746800604482015260640161144e565b6003816004811115611963576119636123dc565b036114605760405162461bcd60e51b815260206004820152602260248201527f45434453413a20696e76616c6964207369676e6174757265202773272076616c60448201527f7565000000000000000000000000000000000000000000000000000000000000606482015260840161144e565b60008183106119f257600082815260208490526040902061162e565b5060009182526020526040902090565b611a0c8383611b33565b6001600160a01b0383163b15610e0c576001548281035b611a366000868380600101945086611c64565b611a53576040516368d2bf6b60e11b815260040160405180910390fd5b818110611a23578160015414611a6857600080fd5b5050505050565b6000807f7fffffffffffffffffffffffffffffff5d576e7357a4501ddfe92f46681b20a0831115611aa65750600090506003611b2a565b6040805160008082526020820180845289905260ff881692820192909252606081018690526080810185905260019060a0016020604051602081039080840390855afa158015611afa573d6000803e3d6000fd5b5050604051601f1901519150506001600160a01b038116611b2357600060019250925050611b2a565b9150600090505b94509492505050565b6001546000829003611b71576040517fb562e8dd00000000000000000000000000000000000000000000000000000000815260040160405180910390fd5b6001600160a01b03831660008181526006602090815260408083208054680100000000000000018802019055848352600590915281206001851460e11b4260a01b178317905582840190839083907fddf252ad1be2c89b69c2b068fc378daa952ba7f163c4a11628f55a4df523b3ef8180a4600183015b818114611c2057808360007fddf252ad1be2c89b69c2b068fc378daa952ba7f163c4a11628f55a4df523b3ef600080a4600101611be8565b5081600003611c5b576040517f2e07630000000000000000000000000000000000000000000000000000000000815260040160405180910390fd5b60015550505050565b604051630a85bd0160e11b81526000906001600160a01b0385169063150b7a0290611c999033908990889088906004016123f2565b6020604051808303816000875af1925050508015611cd4575060408051601f3d908101601f19168201909252611cd19181019061242e565b60015b611d32573d808015611d02576040519150601f19603f3d011682016040523d82523d6000602084013e611d07565b606091505b508051600003611d2a576040516368d2bf6b60e11b815260040160405180910390fd5b805181602001fd5b6001600160e01b031916630a85bd0160e11b149050949350505050565b6001600160e01b03198116811461146057600080fd5b600060208284031215611d7757600080fd5b813561162e81611d4f565b6000815180845260005b81811015611da857602081850181015186830182015201611d8c565b506000602082860101526020601f19601f83011685010191505092915050565b60208152600061162e6020830184611d82565b80356001600160a01b0381168114611df257600080fd5b919050565b600060208284031215611e0957600080fd5b61162e82611ddb565b600060208284031215611e2457600080fd5b5035919050565b6020815260008251610200806020850152611e4a610220850183611d82565b91506020850151601f1980868503016040870152611e688483611d82565b9350604087015191508086850301606087015250611e868382611d82565b92505060608501516080850152608085015160a085015260a085015160c085015260c085015160e085015260e0850151610100818187015280870151915050610120818187015280870151915050610140818187015280870151915050610160818187015280870151915050610180611f028187018315159052565b86015190506101a0611f178682018315159052565b86015190506101c0611f2c8682018315159052565b86015190506101e0611f418682018315159052565b909501516001600160a01b031693019290925250919050565b80358015158114611df257600080fd5b60008060408385031215611f7d57600080fd5b611f8683611ddb565b9150611f9460208401611f5a565b90509250929050565b60008060408385031215611fb057600080fd5b611f8683611f5a565b60008060408385031215611fcc57600080fd5b50508035926020909101359150565b634e487b7160e01b600052604160045260246000fd5b600067ffffffffffffffff8084111561200c5761200c611fdb565b604051601f8501601f19908116603f0116810190828211818310171561203457612034611fdb565b8160405280935085815286868601111561204d57600080fd5b858560208301376000602087830101525050509392505050565b600082601f83011261207857600080fd5b61162e83833560208501611ff1565b60008060006060848603121561209c57600080fd5b833567ffffffffffffffff808211156120b457600080fd5b6120c087838801612067565b945060208601359150808211156120d657600080fd5b506120e386828701612067565b925050604084013590509250925092565b60008060006060848603121561210957600080fd5b505081359360208301359350604090920135919050565b6000806020838503121561213357600080fd5b823567ffffffffffffffff8082111561214b57600080fd5b818501915085601f83011261215f57600080fd5b81358181111561216e57600080fd5b8660208260051b850101111561218357600080fd5b60209290920196919550909350505050565b600080604083850312156121a857600080fd5b82359150602083013567ffffffffffffffff8111156121c657600080fd5b8301601f810185136121d757600080fd5b6121e685823560208401611ff1565b9150509250929050565b600181811c9082168061220457607f821691505b60208210810361222457634e487b7160e01b600052602260045260246000fd5b50919050565b634e487b7160e01b600052601160045260246000fd5b818103818111156108635761086361222a565b80820281158282048414176108635761086361222a565b60008261228757634e487b7160e01b600052601260045260246000fd5b500490565b601f821115610e0c57600081815260208120601f850160051c810160208610156122b35750805b601f850160051c820191505b818110156122d2578281556001016122bf565b505050505050565b815167ffffffffffffffff8111156122f4576122f4611fdb565b6123088161230284546121f0565b8461228c565b602080601f83116001811461233d57600084156123255750858301515b600019600386901b1c1916600185901b1785556122d2565b600085815260208120601f198616915b8281101561236c5788860151825594840194600190910190840161234d565b508582101561238a5787850151600019600388901b60f8161c191681555b5050505050600190811b01905550565b808201808211156108635761086361222a565b634e487b7160e01b600052603260045260246000fd5b6000600182016123d5576123d561222a565b5060010190565b634e487b7160e01b600052602160045260246000fd5b60006001600160a01b038087168352808616602084015250836040830152608060608301526124246080830184611d82565b9695505050505050565b60006020828403121561244057600080fd5b815161162e81611d4f56fea26469706673582212209b9ba09cda828c424ea0fc521b349215664962b044ddea8fbb63fe468cd1e88464736f6c63430008110033",
  "linkReferences": {},
  "deployedLinkReferences": {}
}