{
  "_format": "hh-sol-artifact-1",
  "contractName": "EventCreator",
  "sourceName": "contracts/EventCreator.sol",
  "abi": [
    {
      "inputs": [],
      "name": "TransferFailed",
      "type": "error"
    },
    {
      "anonymous": false,
      "inputs": [
        {
          "indexed": false,
          "internalType": "address",
          "name": "addr",
          "type": "address"
        }
      ],
      "name": "EventCreated",
      "type": "event"
    },
    {
      "anonymous": false,
      "inputs": [
        {
          "indexed": true,
          "internalType": "address",
          "name": "previousOwner",
          "type": "address"
        },
        {
          "indexed": true,
          "internalType": "address",
          "name": "newOwner",
          "type": "address"
        }
      ],
      "name": "OwnershipTransferred",
      "type": "event"
    },
    {
      "inputs": [
        {
          "components": [
            {
              "internalType": "uint256",
              "name": "maxParticipants",
              "type": "uint256"
            },
            {
              "internalType": "uint256",
              "name": "registrationEnd",
              "type": "uint256"
            },
            {
              "internalType": "uint256",
              "name": "start",
              "type": "uint256"
            },
            {
              "internalType": "uint256",
              "name": "end",
              "type": "uint256"
            },
            {
              "internalType": "uint256",
              "name": "ticketPrice",
              "type": "uint256"
            },
            {
              "internalType": "uint256",
              "name": "preSaleTicketPrice",
              "type": "uint256"
            },
            {
              "internalType": "string",
              "name": "name",
              "type": "string"
            },
            {
              "internalType": "string",
              "name": "description",
              "type": "string"
            },
            {
              "internalType": "string",
              "name": "link",
              "type": "string"
            },
            {
              "internalType": "string",
              "name": "image",
              "type": "string"
            }
          ],
          "internalType": "struct Utils.EventStruct",
          "name": "_eventData",
          "type": "tuple"
        }
      ],
      "name": "createEvent",
      "outputs": [
        {
          "internalType": "address",
          "name": "",
          "type": "address"
        }
      ],
      "stateMutability": "nonpayable",
      "type": "function"
    },
    {
      "inputs": [
        {
          "internalType": "uint256",
          "name": "",
          "type": "uint256"
        }
      ],
      "name": "events",
      "outputs": [
        {
          "internalType": "address",
          "name": "",
          "type": "address"
        }
      ],
      "stateMutability": "view",
      "type": "function"
    },
    {
      "inputs": [],
      "name": "fee",
      "outputs": [
        {
          "internalType": "uint256",
          "name": "",
          "type": "uint256"
        }
      ],
      "stateMutability": "view",
      "type": "function"
    },
    {
      "inputs": [
        {
          "internalType": "uint256",
          "name": "offset",
          "type": "uint256"
        },
        {
          "internalType": "uint256",
          "name": "limit",
          "type": "uint256"
        },
        {
          "internalType": "uint256",
          "name": "currTimestamp",
          "type": "uint256"
        }
      ],
      "name": "getEvents",
      "outputs": [
        {
          "components": [
            {
              "internalType": "address",
              "name": "addr",
              "type": "address"
            },
            {
              "internalType": "address",
              "name": "organizer",
              "type": "address"
            },
            {
              "internalType": "bool",
              "name": "registrationOpen",
              "type": "bool"
            },
            {
              "internalType": "bool",
              "name": "onlyWhitelistRegistration",
              "type": "bool"
            },
            {
              "internalType": "bool",
              "name": "isRegistered",
              "type": "bool"
            },
            {
              "internalType": "bool",
              "name": "isChecked",
              "type": "bool"
            },
            {
              "internalType": "uint256",
              "name": "maxParticipants",
              "type": "uint256"
            },
            {
              "internalType": "uint256",
              "name": "registrationEnd",
              "type": "uint256"
            },
            {
              "internalType": "uint256",
              "name": "start",
              "type": "uint256"
            },
            {
              "internalType": "uint256",
              "name": "end",
              "type": "uint256"
            },
            {
              "internalType": "uint256",
              "name": "ticketPrice",
              "type": "uint256"
            },
            {
              "internalType": "uint256",
              "name": "preSaleTicketPrice",
              "type": "uint256"
            },
            {
              "internalType": "uint256",
              "name": "registeredParticipantCount",
              "type": "uint256"
            },
            {
              "internalType": "uint256",
              "name": "checkedParticipantCount",
              "type": "uint256"
            },
            {
              "internalType": "string",
              "name": "name",
              "type": "string"
            },
            {
              "internalType": "string",
              "name": "description",
              "type": "string"
            },
            {
              "internalType": "string",
              "name": "link",
              "type": "string"
            },
            {
              "internalType": "string",
              "name": "image",
              "type": "string"
            }
          ],
          "internalType": "struct Utils.EventInfoStruct[]",
          "name": "",
          "type": "tuple[]"
        }
      ],
      "stateMutability": "view",
      "type": "function"
    },
    {
      "inputs": [],
      "name": "owner",
      "outputs": [
        {
          "internalType": "address",
          "name": "",
          "type": "address"
        }
      ],
      "stateMutability": "view",
      "type": "function"
    },
    {
      "inputs": [],
      "name": "renounceOwnership",
      "outputs": [],
      "stateMutability": "nonpayable",
      "type": "function"
    },
    {
      "inputs": [
        {
          "internalType": "string",
          "name": "uri",
          "type": "string"
        }
      ],
      "name": "setTokenUri",
      "outputs": [],
      "stateMutability": "nonpayable",
      "type": "function"
    },
    {
      "inputs": [
        {
          "internalType": "address",
          "name": "newOwner",
          "type": "address"
        }
      ],
      "name": "transferOwnership",
      "outputs": [],
      "stateMutability": "nonpayable",
      "type": "function"
    },
    {
      "inputs": [],
      "name": "withdraw",
      "outputs": [],
      "stateMutability": "nonpayable",
      "type": "function"
    }
  ],
  "bytecode": "0x6001805560c0604052601560809081527f687474703a2f2f6c6f63616c686f73743a33333333000000000000000000000060a05260029062000042908262000157565b503480156200005057600080fd5b506200005c3362000062565b62000223565b600080546001600160a01b038381166001600160a01b0319831681178455604051919092169283917f8be0079c531659141344cd1fd0a4f28419497f9722a3daafe3b4186f6b6457e09190a35050565b634e487b7160e01b600052604160045260246000fd5b600181811c90821680620000dd57607f821691505b602082108103620000fe57634e487b7160e01b600052602260045260246000fd5b50919050565b601f8211156200015257600081815260208120601f850160051c810160208610156200012d5750805b601f850160051c820191505b818110156200014e5782815560010162000139565b5050505b505050565b81516001600160401b03811115620001735762000173620000b2565b6200018b81620001848454620000c8565b8462000104565b602080601f831160018114620001c35760008415620001aa5750858301515b600019600386901b1c1916600185901b1785556200014e565b600085815260208120601f198616915b82811015620001f457888601518255948401946001909101908401620001d3565b5085821015620002135787850151600019600388901b60f8161c191681555b5050505050600190811b01905550565b613aec80620002336000396000f3fe60806040523480156200001157600080fd5b5060043610620000b05760003560e01c80633ccfd60b116200007f5780638da5cb5b11620000625780638da5cb5b1462000153578063ddca3f431462000165578063f2fde38b146200017e57600080fd5b80633ccfd60b146200013f578063715018a6146200014957600080fd5b80630675b7c614620000b55780630b79143014620000ce5780630ea4e6a014620001025780632a67b40f1462000128575b600080fd5b620000cc620000c636600462000808565b62000195565b005b620000e5620000df36600462000890565b620001b1565b6040516001600160a01b0390911681526020015b60405180910390f35b6200011962000113366004620008aa565b620001dc565b604051620000f991906200092b565b620000e56200013936600462000aa2565b62000490565b620000cc6200056c565b620000cc620005ed565b6000546001600160a01b0316620000e5565b6200016f60015481565b604051908152602001620000f9565b620000cc6200018f36600462000af7565b62000605565b6200019f6200069f565b6002620001ad828262000ba6565b5050565b60038181548110620001c257600080fd5b6000918252602090912001546001600160a01b0316905081565b60035460609060008080838810620001f8576000925062000224565b8662000205898662000c89565b1015620002205762000218888562000c89565b925062000224565b8692505b60008367ffffffffffffffff81111562000242576200024262000766565b6040519080825280602002602001820160405280156200031e57816020015b6200030a60405180610240016040528060006001600160a01b0316815260200160006001600160a01b031681526020016000151581526020016000151581526020016000151581526020016000151581526020016000815260200160008152602001600081526020016000815260200160008152602001600081526020016000815260200160008152602001606081526020016060815260200160608152602001606081525090565b815260200190600190039081620002615790505b5090508360000362000337579450620004899350505050565b62000343848662000c89565b925083156200035c576200035960018562000c89565b91505b815b60006003828154811062000376576200037662000ca5565b6000918252602090912001546040517f1d645b12000000000000000000000000000000000000000000000000000000008152600481018b90526001600160a01b0390911691508190631d645b1290602401600060405180830381865afa158015620003e5573d6000803e3d6000fd5b505050506040513d6000823e601f3d908101601f191682016040526200040f919081019062000d32565b836200041c848762000c89565b815181106200042f576200042f62000ca5565b60209081029190910101526200044760018762000c89565b62000453838662000c89565b14806200045e575081155b156200046b575062000481565b81620004778162000eef565b925050506200035e565b509450505050505b9392505050565b60008082336001546002604051620004a89062000758565b620004b7949392919062001007565b604051809103906000f080158015620004d4573d6000803e3d6000fd5b50600380546001810182556000919091527fc2575a0e9e593c00f959f8c92f12db2869c3395a3b0502d05e2516446f71f85b01805473ffffffffffffffffffffffffffffffffffffffff19166001600160a01b0383169081179091556040519081529091507ffc8a4c0621b9788c4dbe57053a51ce2d22625a067d039f38004df2a07ca755a49060200160405180910390a192915050565b620005766200069f565b476000819003620005b3576040517f90b8ec1800000000000000000000000000000000000000000000000000000000815260040160405180910390fd5b600080546040516001600160a01b039091169183156108fc02918491818181858888f19350505050158015620001ad573d6000803e3d6000fd5b620005f76200069f565b620006036000620006fb565b565b6200060f6200069f565b6001600160a01b038116620006915760405162461bcd60e51b815260206004820152602660248201527f4f776e61626c653a206e6577206f776e657220697320746865207a65726f206160448201527f646472657373000000000000000000000000000000000000000000000000000060648201526084015b60405180910390fd5b6200069c81620006fb565b50565b6000546001600160a01b03163314620006035760405162461bcd60e51b815260206004820181905260248201527f4f776e61626c653a2063616c6c6572206973206e6f7420746865206f776e6572604482015260640162000688565b600080546001600160a01b0383811673ffffffffffffffffffffffffffffffffffffffff19831681178455604051919092169283917f8be0079c531659141344cd1fd0a4f28419497f9722a3daafe3b4186f6b6457e09190a35050565b61297e806200113983390190565b634e487b7160e01b600052604160045260246000fd5b604051610240810167ffffffffffffffff81118282101715620007a357620007a362000766565b60405290565b604051601f8201601f1916810167ffffffffffffffff81118282101715620007d557620007d562000766565b604052919050565b600067ffffffffffffffff821115620007fa57620007fa62000766565b50601f01601f191660200190565b6000602082840312156200081b57600080fd5b813567ffffffffffffffff8111156200083357600080fd5b8201601f810184136200084557600080fd5b80356200085c6200085682620007dd565b620007a9565b8181528560208385010111156200087257600080fd5b81602084016020830137600091810160200191909152949350505050565b600060208284031215620008a357600080fd5b5035919050565b600080600060608486031215620008c057600080fd5b505081359360208301359350604090920135919050565b60005b83811015620008f4578181015183820152602001620008da565b50506000910152565b6000815180845262000917816020860160208601620008d7565b601f01601f19169290920160200192915050565b60006020808301818452808551808352604092508286019150828160051b87010184880160005b8381101562000a9457603f19898403018552815180516001600160a01b0390811685528882015116888501528681015115158785015260608082015115159085015260808082015115159085015260a08082015115159085015260c0808201519085015260e08082015190850152610100808201519085015261012080820151908501526101408082015190850152610160808201519085015261018080820151908501526101a080820151908501526101c080820151610240828701819052919062000a2283880182620008fd565b925050506101e0808301518683038288015262000a408382620008fd565b92505050610200808301518683038288015262000a5e8382620008fd565b92505050610220808301519250858203818701525062000a7f8183620008fd565b96890196945050509086019060010162000952565b509098975050505050505050565b60006020828403121562000ab557600080fd5b813567ffffffffffffffff81111562000acd57600080fd5b820161014081850312156200048957600080fd5b6001600160a01b03811681146200069c57600080fd5b60006020828403121562000b0a57600080fd5b8135620004898162000ae1565b600181811c9082168062000b2c57607f821691505b60208210810362000b4d57634e487b7160e01b600052602260045260246000fd5b50919050565b601f82111562000ba157600081815260208120601f850160051c8101602086101562000b7c5750805b601f850160051c820191505b8181101562000b9d5782815560010162000b88565b5050505b505050565b815167ffffffffffffffff81111562000bc35762000bc362000766565b62000bdb8162000bd4845462000b17565b8462000b53565b602080601f83116001811462000c13576000841562000bfa5750858301515b600019600386901b1c1916600185901b17855562000b9d565b600085815260208120601f198616915b8281101562000c445788860151825594840194600190910190840162000c23565b508582101562000c635787850151600019600388901b60f8161c191681555b5050505050600190811b01905550565b634e487b7160e01b600052601160045260246000fd5b8181038181111562000c9f5762000c9f62000c73565b92915050565b634e487b7160e01b600052603260045260246000fd5b805162000cc88162000ae1565b919050565b8051801515811462000cc857600080fd5b600082601f83011262000cf057600080fd5b815162000d016200085682620007dd565b81815284602083860101111562000d1757600080fd5b62000d2a826020830160208701620008d7565b949350505050565b60006020828403121562000d4557600080fd5b815167ffffffffffffffff8082111562000d5e57600080fd5b90830190610240828603121562000d7457600080fd5b62000d7e6200077c565b62000d898362000cbb565b815262000d996020840162000cbb565b602082015262000dac6040840162000ccd565b604082015262000dbf6060840162000ccd565b606082015262000dd26080840162000ccd565b608082015262000de560a0840162000ccd565b60a082015260c0838101519082015260e08084015190820152610100808401519082015261012080840151908201526101408084015190820152610160808401519082015261018080840151908201526101a080840151908201526101c0808401518381111562000e5557600080fd5b62000e638882870162000cde565b8284015250506101e0808401518381111562000e7e57600080fd5b62000e8c8882870162000cde565b828401525050610200808401518381111562000ea757600080fd5b62000eb58882870162000cde565b828401525050610220808401518381111562000ed057600080fd5b62000ede8882870162000cde565b918301919091525095945050505050565b60008162000f015762000f0162000c73565b506000190190565b6000808335601e1984360301811262000f2157600080fd5b830160208101925035905067ffffffffffffffff81111562000f4257600080fd5b80360382131562000f5257600080fd5b9250929050565b81835281816020850137506000828201602090810191909152601f909101601f19169091010190565b6000815462000f918162000b17565b80855260206001838116801562000fb1576001811462000fcc5762000ffc565b60ff1985168884015283151560051b88018301955062000ffc565b866000528260002060005b8581101562000ff45781548a820186015290830190840162000fd7565b890184019650505b505050505092915050565b6080815284356080820152602085013560a0820152604085013560c0820152606085013560e0820152600061010060808701358184015261012060a0880135818501526200105960c089018962000f09565b61014086810152620010716101c08701828462000f59565b9150506200108360e08a018a62000f09565b607f1980888503016101608901526200109e84838562000f59565b9350620010ae868d018d62000f09565b965092508088850301610180890152620010ca84878562000f59565b9550620010da858d018d62000f09565b9550935080888703016101a0890152505050620010f983838362000f59565b925050506200111360208401876001600160a01b03169052565b84604084015282810360608401526200112d818562000f82565b97965050505050505056fe60806040526007805461ff0019166101001790557f16d95910a21726a3e7b59a8c6166b355396434419809cb902e2063555b8d60de6011553480156200004457600080fd5b506040516200297e3803806200297e833981016040819052620000679162000404565b60c084015160408051808201909152600381526222ab2760e91b60208201526200009133620001b4565b60036200009f838262000603565b506004620000ae828262000603565b5060018055505060408401511580620000c957506060840151155b15620000e857604051630968678160e11b815260040160405180910390fd5b60e0840151601290620000fc908262000603565b5061010084015160139062000112908262000603565b50601462000121828262000603565b5061012084015160159062000137908262000603565b5083516008556040840151600a556060840151600b556080840151600e5560a0840151600f5560208401516000036200017857604084015160095562000181565b60208401516009555b6007805462010000600160b01b0319163362010000021790556010829055620001aa8362000204565b50505050620006cf565b600080546001600160a01b038381166001600160a01b0319831681178455604051919092169283917f8be0079c531659141344cd1fd0a4f28419497f9722a3daafe3b4186f6b6457e09190a35050565b6200020e62000287565b6001600160a01b038116620002795760405162461bcd60e51b815260206004820152602660248201527f4f776e61626c653a206e6577206f776e657220697320746865207a65726f206160448201526564647265737360d01b60648201526084015b60405180910390fd5b6200028481620001b4565b50565b6000546001600160a01b03163314620002e35760405162461bcd60e51b815260206004820181905260248201527f4f776e61626c653a2063616c6c6572206973206e6f7420746865206f776e6572604482015260640162000270565b565b634e487b7160e01b600052604160045260246000fd5b60405161014081016001600160401b0381118282101715620003215762000321620002e5565b60405290565b604051601f8201601f191681016001600160401b0381118282101715620003525762000352620002e5565b604052919050565b600082601f8301126200036c57600080fd5b81516001600160401b03811115620003885762000388620002e5565b60206200039e601f8301601f1916820162000327565b8281528582848701011115620003b357600080fd5b60005b83811015620003d3578581018301518282018401528201620003b6565b506000928101909101919091529392505050565b80516001600160a01b0381168114620003ff57600080fd5b919050565b600080600080608085870312156200041b57600080fd5b84516001600160401b03808211156200043357600080fd5b9086019061014082890312156200044957600080fd5b62000453620002fb565b825181526020830151602082015260408301516040820152606083015160608201526080830151608082015260a083015160a082015260c0830151828111156200049c57600080fd5b620004aa8a8286016200035a565b60c08301525060e083015182811115620004c357600080fd5b620004d18a8286016200035a565b60e0830152506101008084015183811115620004ec57600080fd5b620004fa8b8287016200035a565b82840152505061012080840151838111156200051557600080fd5b620005238b8287016200035a565b828401525050809650506200053b60208801620003e7565b94506040870151935060608701519150808211156200055957600080fd5b5062000568878288016200035a565b91505092959194509250565b600181811c908216806200058957607f821691505b602082108103620005aa57634e487b7160e01b600052602260045260246000fd5b50919050565b601f821115620005fe57600081815260208120601f850160051c81016020861015620005d95750805b601f850160051c820191505b81811015620005fa57828155600101620005e5565b5050505b505050565b81516001600160401b038111156200061f576200061f620002e5565b620006378162000630845462000574565b84620005b0565b602080601f8311600181146200066f5760008415620006565750858301515b600019600386901b1c1916600185901b178555620005fa565b600085815260208120601f198616915b82811015620006a0578886015182559484019460019091019084016200067f565b5085821015620006bf5787850151600019600388901b60f8161c191681555b5050505050600190811b01905550565b61229f80620006df6000396000f3fe6080604052600436106102db5760003560e01c8063736f88cd11610184578063c4625ba3116100d6578063ead121111161008a578063f34094a711610064578063f34094a7146107be578063f3ccaac0146107c6578063fe1e2f51146107db57600080fd5b8063ead1211114610756578063efbe1c1c14610788578063f2fde38b1461079e57600080fd5b8063c7cac600116100bb578063c7cac600146106fc578063c87b56dd14610716578063d9a59e331461073657600080fd5b8063c4625ba3146106c6578063c6a7cbc9146106dc57600080fd5b80638da5cb5b11610138578063be9a655511610112578063be9a65551461067d578063bffa312314610693578063c025e686146106b357600080fd5b80638da5cb5b1461062a57806392cc6a681461064857806395d89b411461066857600080fd5b80637fd34e92116101695780637fd34e92146105ce5780638121e42d146105ee5780638818ed381461060457600080fd5b8063736f88cd146105995780637de33aec146105b857600080fd5b80631d645b121161023d5780633ccfd60b116101f157806370a08231116101cb57806370a082311461054f578063715018a61461056f5780637284e4161461058457600080fd5b80633ccfd60b146104e25780636352211e146104f75780636c9de4ef1461052f57600080fd5b8063336df10611610222578063336df10614610495578063355e0c5d146104b7578063386bfc98146104cc57600080fd5b80631d645b121461045257806324924bf71461047f57600080fd5b806313446a7511610294578063158c613411610279578063158c6134146103e757806318160ddd146104205780631c4695f41461043d57600080fd5b806313446a75146103a157806314d0f1ba146103b757600080fd5b806306fdde03116102c557806306fdde031461033957806309e69ede1461035b5780631209b1f61461038b57600080fd5b8062f4494f146102e057806301ffc9a714610309575b600080fd5b3480156102ec57600080fd5b506102f660105481565b6040519081526020015b60405180910390f35b34801561031557600080fd5b50610329610324366004611bdb565b61080b565b6040519015158152602001610300565b34801561034557600080fd5b5061034e6108a8565b6040516103009190611c3e565b34801561036757600080fd5b50610329610376366004611c6d565b60166020526000908152604090205460ff1681565b34801561039757600080fd5b506102f6600e5481565b3480156103ad57600080fd5b506102f660095481565b3480156103c357600080fd5b506103296103d2366004611c6d565b60186020526000908152604090205460ff1681565b3480156103f357600080fd5b50610329610402366004611c6d565b6001600160a01b031660009081526016602052604090205460ff1690565b34801561042c57600080fd5b5060025460015403600019016102f6565b34801561044957600080fd5b5061034e61093a565b34801561045e57600080fd5b5061047261046d366004611c88565b6109c8565b6040516103009190611ca1565b34801561048b57600080fd5b506102f660085481565b3480156104a157600080fd5b506104b56104b0366004611e0c565b610d80565b005b3480156104c357600080fd5b5061034e610db3565b3480156104d857600080fd5b506102f660115481565b3480156104ee57600080fd5b506104b5610dc0565b34801561050357600080fd5b50610517610512366004611c88565b610f34565b6040516001600160a01b039091168152602001610300565b34801561053b57600080fd5b506104b561054a366004611e3f565b610f3f565b34801561055b57600080fd5b506102f661056a366004611c6d565b610f6a565b34801561057b57600080fd5b506104b5610fd2565b34801561059057600080fd5b5061034e610fe6565b3480156105a557600080fd5b5060075461032990610100900460ff1681565b3480156105c457600080fd5b506102f6600d5481565b3480156105da57600080fd5b506104b56105e9366004611e5b565b610ff3565b3480156105fa57600080fd5b506102f6600f5481565b34801561061057600080fd5b50600754610517906201000090046001600160a01b031681565b34801561063657600080fd5b506000546001600160a01b0316610517565b34801561065457600080fd5b506104b5610663366004611f20565b611006565b34801561067457600080fd5b5061034e61102f565b34801561068957600080fd5b506102f6600a5481565b34801561069f57600080fd5b506104b56106ae366004611f8d565b61103e565b6104b56106c1366004611fb9565b611054565b3480156106d257600080fd5b506102f6600c5481565b3480156106e857600080fd5b506104b56106f7366004611c88565b6111bf565b34801561070857600080fd5b506007546103299060ff1681565b34801561072257600080fd5b5061034e610731366004611c88565b6111cc565b34801561074257600080fd5b506104b5610751366004611c6d565b61129f565b34801561076257600080fd5b50610776610771366004611c88565b61146e565b60405160ff9091168152602001610300565b34801561079457600080fd5b506102f6600b5481565b3480156107aa57600080fd5b506104b56107b9366004611c6d565b6114f1565b6104b5611586565b3480156107d257600080fd5b5061034e611673565b3480156107e757600080fd5b506103296107f6366004611c6d565b60176020526000908152604090205460ff1681565b60007f01ffc9a7000000000000000000000000000000000000000000000000000000006001600160e01b03198316148061086e57507f80ac58cd000000000000000000000000000000000000000000000000000000006001600160e01b03198316145b806108a257507f5b5e139f000000000000000000000000000000000000000000000000000000006001600160e01b03198316145b92915050565b6060600380546108b79061202e565b80601f01602080910402602001604051908101604052809291908181526020018280546108e39061202e565b80156109305780601f1061090557610100808354040283529160200191610930565b820191906000526020600020905b81548152906001019060200180831161091357829003601f168201915b5050505050905090565b601380546109479061202e565b80601f01602080910402602001604051908101604052809291908181526020018280546109739061202e565b80156109c05780601f10610995576101008083540402835291602001916109c0565b820191906000526020600020905b8154815290600101906020018083116109a357829003601f168201915b505050505081565b610a7060405180610240016040528060006001600160a01b0316815260200160006001600160a01b031681526020016000151581526020016000151581526020016000151581526020016000151581526020016000815260200160008152602001600081526020016000815260200160008152602001600081526020016000815260200160008152602001606081526020016060815260200160608152602001606081525090565b610b1860405180610240016040528060006001600160a01b0316815260200160006001600160a01b031681526020016000151581526020016000151581526020016000151581526020016000151581526020016000815260200160008152602001600081526020016000815260200160008152602001600081526020016000815260200160008152602001606081526020016060815260200160608152602001606081525090565b600a54610100820152600b5461012082015260095460e0820152610b3a6108a8565b6101c082015260128054610b4d9061202e565b80601f0160208091040260200160405190810160405280929190818152602001828054610b799061202e565b8015610bc65780601f10610b9b57610100808354040283529160200191610bc6565b820191906000526020600020905b815481529060010190602001808311610ba957829003601f168201915b50505050506101e082015260085460c0820152600e54610140820152600f5461016082015260138054610bf89061202e565b80601f0160208091040260200160405190810160405280929190818152602001828054610c249061202e565b8015610c715780601f10610c4657610100808354040283529160200191610c71565b820191906000526020600020905b815481529060010190602001808311610c5457829003601f168201915b505050505081610200018190525060158054610c8c9061202e565b80601f0160208091040260200160405190810160405280929190818152602001828054610cb89061202e565b8015610d055780601f10610cda57610100808354040283529160200191610d05565b820191906000526020600020905b815481529060010190602001808311610ce857829003601f168201915b50505050506102208201526000546001600160a01b03166020820152610d2a8361146e565b60ff9081161560408084019190915233600081815260166020908152838220548516151560808701529181526017909152205416151560a0820152600c54610180820152600d546101a082015230815292915050565b610d88611680565b6001600160a01b03919091166000908152601860205260409020805460ff1916911515919091179055565b601480546109479061202e565b610dc8611680565b476000819003610deb576040516312171d8360e31b815260040160405180910390fd5b601054600190600090610dff90606461207e565b60105490915015610ea857600760029054906101000a90046001600160a01b03166001600160a01b0316606484601054610e399190612091565b610e4391906120a8565b604051600081818185875af1925050503d8060008114610e7f576040519150601f19603f3d011682016040523d82523d6000602084013e610e84565b606091505b50508092505081610ea8576040516312171d8360e31b815260040160405180910390fd5b6000546001600160a01b03166064610ec08584612091565b610eca91906120a8565b604051600081818185875af1925050503d8060008114610f06576040519150601f19603f3d011682016040523d82523d6000602084013e610f0b565b606091505b50508092505081610f2f576040516312171d8360e31b815260040160405180910390fd5b505050565b60006108a2826116da565b610f47611680565b6007805461ffff19166101009315159390930260ff191692909217901515179055565b60006001600160a01b038216610fac576040517f8f4eb60400000000000000000000000000000000000000000000000000000000815260040160405180910390fd5b506001600160a01b031660009081526006602052604090205467ffffffffffffffff1690565b610fda611680565b610fe46000611769565b565b601280546109479061202e565b610ffb611680565b600e91909155600f55565b61100e611680565b601261101a8482612118565b5060136110278382612118565b506008555050565b6060600480546108b79061202e565b611046611680565b600a92909255600b55600955565b600061105f4261146e565b90508060ff166001036110855760405163a8ab2d2560e01b815260040160405180910390fd5b8060ff166002036110a957604051632fc209f360e01b815260040160405180910390fd5b8060ff166003036110cd57604051630ea075bf60e21b815260040160405180910390fd5b8060ff166004036110f157604051632437ffe960e11b815260040160405180910390fd5b60075460ff1615806111755750611173838380806020026020016040519081016040528093929190818152602001838360200280828437600092019190915250506011546040516bffffffffffffffffffffffff193360601b1660208201529092506034019050604051602081830303815290604052805190602001206117d1565b155b156111935760405163ad7acb4760e01b815260040160405180910390fd5b600f543410156111b657604051633c89335b60e11b815260040160405180910390fd5b610f2f336117e7565b6111c7611680565b601155565b60606111d782611870565b61120d576040517fa14c4b5000000000000000000000000000000000000000000000000000000000815260040160405180910390fd5b6014805461121a9061202e565b80601f01602080910402602001604051908101604052809291908181526020018280546112469061202e565b80156112935780601f1061126857610100808354040283529160200191611293565b820191906000526020600020905b81548152906001019060200180831161127657829003601f168201915b50505050509050919050565b6000546001600160a01b031633148015906112ca57503360009081526018602052604090205460ff16155b15611301576040517feaa45d6a00000000000000000000000000000000000000000000000000000000815260040160405180910390fd5b600a5442908110806113145750600b5481115b1561134b576040517f91e3be3900000000000000000000000000000000000000000000000000000000815260040160405180910390fd5b6001600160a01b03821660009081526016602052604090205460ff1661139d576040517faba4733900000000000000000000000000000000000000000000000000000000815260040160405180910390fd5b6001600160a01b03821660009081526017602052604090205460ff16156113f0576040517fc98289f000000000000000000000000000000000000000000000000000000000815260040160405180910390fd5b6001600160a01b0382166000908152601760205260408120805460ff19166001908117909155600d8054919290916114299084906121d8565b90915550506040516001600160a01b03831681527fcbf477e63735f8d27f9b668165862d7c6e84e5650edec70229523db18c2f1efd9060200160405180910390a15050565b6000600a5482111561148257506001919050565b600754610100900460ff16158061149a575060095482115b156114a757506002919050565b3360009081526016602052604090205460ff16156114c757506003919050565b60006008541180156114dc5750600854600c54145b156114e957506004919050565b506000919050565b6114f9611680565b6001600160a01b03811661157a5760405162461bcd60e51b815260206004820152602660248201527f4f776e61626c653a206e6577206f776e657220697320746865207a65726f206160448201527f646472657373000000000000000000000000000000000000000000000000000060648201526084015b60405180910390fd5b61158381611769565b50565b60006115914261146e565b90508060ff166001036115b75760405163a8ab2d2560e01b815260040160405180910390fd5b8060ff166002036115db57604051632fc209f360e01b815260040160405180910390fd5b8060ff166003036115ff57604051630ea075bf60e21b815260040160405180910390fd5b8060ff1660040361162357604051632437ffe960e11b815260040160405180910390fd5b60075460ff16156116475760405163ad7acb4760e01b815260040160405180910390fd5b600e5434101561166a57604051633c89335b60e11b815260040160405180910390fd5b611583336117e7565b601580546109479061202e565b6000546001600160a01b03163314610fe45760405162461bcd60e51b815260206004820181905260248201527f4f776e61626c653a2063616c6c6572206973206e6f7420746865206f776e65726044820152606401611571565b60008180600111611737576001548110156117375760008181526005602052604081205490600160e01b82169003611735575b8060000361172e57506000190160008181526005602052604090205461170d565b9392505050565b505b6040517fdf2d9b4200000000000000000000000000000000000000000000000000000000815260040160405180910390fd5b600080546001600160a01b038381167fffffffffffffffffffffffff0000000000000000000000000000000000000000831681178455604051919092169283917f8be0079c531659141344cd1fd0a4f28419497f9722a3daafe3b4186f6b6457e09190a35050565b6000826117de85846118a5565b14949350505050565b6001600160a01b0381166000908152601660205260408120805460ff19166001908117909155600c8054919290916118209084906121d8565b9091555061183190508160016118f2565b6040516001600160a01b03821681527fe11711cd714e06fbbbea301a8e90822f2f2ea4808e37e3adf06038f33c53ff279060200160405180910390a150565b600081600111158015611884575060015482105b80156108a2575050600090815260056020526040902054600160e01b161590565b600081815b84518110156118ea576118d6828683815181106118c9576118c96121eb565b6020026020010151611910565b9150806118e281612201565b9150506118aa565b509392505050565b61190c82826040518060200160405280600081525061193c565b5050565b600081831061192c57600082815260208490526040902061172e565b5060009182526020526040902090565b61194683836119a9565b6001600160a01b0383163b15610f2f576001548281035b6119706000868380600101945086611ada565b61198d576040516368d2bf6b60e11b815260040160405180910390fd5b81811061195d5781600154146119a257600080fd5b5050505050565b60015460008290036119e7576040517fb562e8dd00000000000000000000000000000000000000000000000000000000815260040160405180910390fd5b6001600160a01b03831660008181526006602090815260408083208054680100000000000000018802019055848352600590915281206001851460e11b4260a01b178317905582840190839083907fddf252ad1be2c89b69c2b068fc378daa952ba7f163c4a11628f55a4df523b3ef8180a4600183015b818114611a9657808360007fddf252ad1be2c89b69c2b068fc378daa952ba7f163c4a11628f55a4df523b3ef600080a4600101611a5e565b5081600003611ad1576040517f2e07630000000000000000000000000000000000000000000000000000000000815260040160405180910390fd5b60015550505050565b604051630a85bd0160e11b81526000906001600160a01b0385169063150b7a0290611b0f90339089908890889060040161221a565b6020604051808303816000875af1925050508015611b4a575060408051601f3d908101601f19168201909252611b479181019061224c565b60015b611ba8573d808015611b78576040519150601f19603f3d011682016040523d82523d6000602084013e611b7d565b606091505b508051600003611ba0576040516368d2bf6b60e11b815260040160405180910390fd5b805181602001fd5b6001600160e01b031916630a85bd0160e11b149050949350505050565b6001600160e01b03198116811461158357600080fd5b600060208284031215611bed57600080fd5b813561172e81611bc5565b6000815180845260005b81811015611c1e57602081850181015186830182015201611c02565b506000602082860101526020601f19601f83011685010191505092915050565b60208152600061172e6020830184611bf8565b80356001600160a01b0381168114611c6857600080fd5b919050565b600060208284031215611c7f57600080fd5b61172e82611c51565b600060208284031215611c9a57600080fd5b5035919050565b60208152611cbb6020820183516001600160a01b03169052565b60006020830151611cd760408401826001600160a01b03169052565b5060408301518015156060840152506060830151801515608084015250608083015180151560a08401525060a083015180151560c08401525060c083015160e08381019190915283015161010080840191909152830151610120808401919091528301516101408084019190915283015161016080840191909152830151610180808401919091528301516101a0808401919091528301516101c0808401919091528301516102406101e0808501829052611d96610260860184611bf8565b9250808601519050601f19610200818786030181880152611db78584611bf8565b945080880151925050610220818786030181880152611dd68584611bf8565b908801518782039092018488015293509050611df28382611bf8565b9695505050505050565b80358015158114611c6857600080fd5b60008060408385031215611e1f57600080fd5b611e2883611c51565b9150611e3660208401611dfc565b90509250929050565b60008060408385031215611e5257600080fd5b611e2883611dfc565b60008060408385031215611e6e57600080fd5b50508035926020909101359150565b634e487b7160e01b600052604160045260246000fd5b600082601f830112611ea457600080fd5b813567ffffffffffffffff80821115611ebf57611ebf611e7d565b604051601f8301601f19908116603f01168101908282118183101715611ee757611ee7611e7d565b81604052838152866020858801011115611f0057600080fd5b836020870160208301376000602085830101528094505050505092915050565b600080600060608486031215611f3557600080fd5b833567ffffffffffffffff80821115611f4d57600080fd5b611f5987838801611e93565b94506020860135915080821115611f6f57600080fd5b50611f7c86828701611e93565b925050604084013590509250925092565b600080600060608486031215611fa257600080fd5b505081359360208301359350604090920135919050565b60008060208385031215611fcc57600080fd5b823567ffffffffffffffff80821115611fe457600080fd5b818501915085601f830112611ff857600080fd5b81358181111561200757600080fd5b8660208260051b850101111561201c57600080fd5b60209290920196919550909350505050565b600181811c9082168061204257607f821691505b60208210810361206257634e487b7160e01b600052602260045260246000fd5b50919050565b634e487b7160e01b600052601160045260246000fd5b818103818111156108a2576108a2612068565b80820281158282048414176108a2576108a2612068565b6000826120c557634e487b7160e01b600052601260045260246000fd5b500490565b601f821115610f2f57600081815260208120601f850160051c810160208610156120f15750805b601f850160051c820191505b81811015612110578281556001016120fd565b505050505050565b815167ffffffffffffffff81111561213257612132611e7d565b61214681612140845461202e565b846120ca565b602080601f83116001811461217b57600084156121635750858301515b600019600386901b1c1916600185901b178555612110565b600085815260208120601f198616915b828110156121aa5788860151825594840194600190910190840161218b565b50858210156121c85787850151600019600388901b60f8161c191681555b5050505050600190811b01905550565b808201808211156108a2576108a2612068565b634e487b7160e01b600052603260045260246000fd5b60006001820161221357612213612068565b5060010190565b60006001600160a01b03808716835280861660208401525083604083015260806060830152611df26080830184611bf8565b60006020828403121561225e57600080fd5b815161172e81611bc556fea2646970667358221220dcb80b1ab71caf55383f762940061a64b20bcc9907f9a773e86103882f9181e064736f6c63430008110033a2646970667358221220b64a80b3bb19530d983dae284df7c09aab63fa8ac453461581c692824058ee6564736f6c63430008110033",
  "linkReferences": {},
  "deployedLinkReferences": {}
}