{
  "_format": "hh-sol-artifact-1",
  "contractName": "ERC721A_SBT",
  "sourceName": "erc721a-sbt/ERC721A-SBT.sol",
  "abi": [
    {
      "inputs": [
        {
          "internalType": "string",
          "name": "name_",
          "type": "string"
        },
        {
          "internalType": "string",
          "name": "symbol_",
          "type": "string"
        }
      ],
      "stateMutability": "nonpayable",
      "type": "constructor"
    },
    {
      "inputs": [],
      "name": "BalanceQueryForZeroAddress",
      "type": "error"
    },
    {
      "inputs": [],
      "name": "MintToZeroAddress",
      "type": "error"
    },
    {
      "inputs": [],
      "name": "MintZeroQuantity",
      "type": "error"
    },
    {
      "inputs": [],
      "name": "OwnerQueryForNonexistentToken",
      "type": "error"
    },
    {
      "inputs": [],
      "name": "TransferToNonERC721ReceiverImplementer",
      "type": "error"
    },
    {
      "inputs": [],
      "name": "URIQueryForNonexistentToken",
      "type": "error"
    },
    {
      "anonymous": false,
      "inputs": [
        {
          "indexed": true,
          "internalType": "address",
          "name": "from",
          "type": "address"
        },
        {
          "indexed": true,
          "internalType": "address",
          "name": "to",
          "type": "address"
        },
        {
          "indexed": true,
          "internalType": "uint256",
          "name": "tokenId",
          "type": "uint256"
        }
      ],
      "name": "Transfer",
      "type": "event"
    },
    {
      "inputs": [
        {
          "internalType": "address",
          "name": "owner",
          "type": "address"
        }
      ],
      "name": "balanceOf",
      "outputs": [
        {
          "internalType": "uint256",
          "name": "",
          "type": "uint256"
        }
      ],
      "stateMutability": "view",
      "type": "function"
    },
    {
      "inputs": [],
      "name": "name",
      "outputs": [
        {
          "internalType": "string",
          "name": "",
          "type": "string"
        }
      ],
      "stateMutability": "view",
      "type": "function"
    },
    {
      "inputs": [
        {
          "internalType": "uint256",
          "name": "tokenId",
          "type": "uint256"
        }
      ],
      "name": "ownerOf",
      "outputs": [
        {
          "internalType": "address",
          "name": "",
          "type": "address"
        }
      ],
      "stateMutability": "view",
      "type": "function"
    },
    {
      "inputs": [
        {
          "internalType": "bytes4",
          "name": "interfaceId",
          "type": "bytes4"
        }
      ],
      "name": "supportsInterface",
      "outputs": [
        {
          "internalType": "bool",
          "name": "",
          "type": "bool"
        }
      ],
      "stateMutability": "view",
      "type": "function"
    },
    {
      "inputs": [],
      "name": "symbol",
      "outputs": [
        {
          "internalType": "string",
          "name": "",
          "type": "string"
        }
      ],
      "stateMutability": "view",
      "type": "function"
    },
    {
      "inputs": [
        {
          "internalType": "uint256",
          "name": "tokenId",
          "type": "uint256"
        }
      ],
      "name": "tokenURI",
      "outputs": [
        {
          "internalType": "string",
          "name": "",
          "type": "string"
        }
      ],
      "stateMutability": "view",
      "type": "function"
    },
    {
      "inputs": [],
      "name": "totalSupply",
      "outputs": [
        {
          "internalType": "uint256",
          "name": "",
          "type": "uint256"
        }
      ],
      "stateMutability": "view",
      "type": "function"
    }
  ],
  "bytecode": "0x60806040523480156200001157600080fd5b506040516200092638038062000926833981016040819052620000349162000123565b60026200004283826200021c565b5060036200005182826200021c565b50506000805550620002e8565b634e487b7160e01b600052604160045260246000fd5b600082601f8301126200008657600080fd5b81516001600160401b0380821115620000a357620000a36200005e565b604051601f8301601f19908116603f01168101908282118183101715620000ce57620000ce6200005e565b81604052838152602092508683858801011115620000eb57600080fd5b600091505b838210156200010f5785820183015181830184015290820190620000f0565b600093810190920192909252949350505050565b600080604083850312156200013757600080fd5b82516001600160401b03808211156200014f57600080fd5b6200015d8683870162000074565b935060208501519150808211156200017457600080fd5b50620001838582860162000074565b9150509250929050565b600181811c90821680620001a257607f821691505b602082108103620001c357634e487b7160e01b600052602260045260246000fd5b50919050565b601f8211156200021757600081815260208120601f850160051c81016020861015620001f25750805b601f850160051c820191505b818110156200021357828155600101620001fe565b5050505b505050565b81516001600160401b038111156200023857620002386200005e565b62000250816200024984546200018d565b84620001c9565b602080601f8311600181146200028857600084156200026f5750858301515b600019600386901b1c1916600185901b17855562000213565b600085815260208120601f198616915b82811015620002b95788860151825594840194600190910190840162000298565b5085821015620002d85787850151600019600388901b60f8161c191681555b5050505050600190811b01905550565b61062e80620002f86000396000f3fe608060405234801561001057600080fd5b506004361061007d5760003560e01c80636352211e1161005b5780636352211e146100d557806370a082311461010d57806395d89b4114610120578063c87b56dd1461012857600080fd5b806301ffc9a71461008257806306fdde03146100aa57806318160ddd146100bf575b600080fd5b6100956100903660046104a6565b61013b565b60405190151581526020015b60405180910390f35b6100b26101d8565b6040516100a191906104f4565b600154600054035b6040519081526020016100a1565b6100e86100e3366004610527565b61026a565b60405173ffffffffffffffffffffffffffffffffffffffff90911681526020016100a1565b6100c761011b366004610540565b610275565b6100b26102f7565b6100b2610136366004610527565b610306565b60007f01ffc9a7000000000000000000000000000000000000000000000000000000006001600160e01b03198316148061019e57507f80ac58cd000000000000000000000000000000000000000000000000000000006001600160e01b03198316145b806101d257507f5b5e139f000000000000000000000000000000000000000000000000000000006001600160e01b03198316145b92915050565b6060600280546101e790610576565b80601f016020809104026020016040519081016040528092919081815260200182805461021390610576565b80156102605780601f1061023557610100808354040283529160200191610260565b820191906000526020600020905b81548152906001019060200180831161024357829003601f168201915b5050505050905090565b60006101d2826103b0565b600073ffffffffffffffffffffffffffffffffffffffff82166102c4576040517f8f4eb60400000000000000000000000000000000000000000000000000000000815260040160405180910390fd5b5073ffffffffffffffffffffffffffffffffffffffff1660009081526005602052604090205467ffffffffffffffff1690565b6060600380546101e790610576565b606061031182610430565b610347576040517fa14c4b5000000000000000000000000000000000000000000000000000000000815260040160405180910390fd5b600061035e60408051602081019091526000815290565b9050805160000361037e57604051806020016040528060008152506103a9565b8061038884610457565b6040516020016103999291906105c9565b6040516020818303038152906040525b9392505050565b6000816000548110156103fe5760008181526004602052604081205490600160e01b821690036103fc575b806000036103a95750600019016000818152600460205260409020546103db565b505b6040517fdf2d9b4200000000000000000000000000000000000000000000000000000000815260040160405180910390fd5b60008054821080156101d2575050600090815260046020526040902054600160e01b161590565b604080516080810191829052607f0190826030600a8206018353600a90045b801561049457600183039250600a81066030018353600a9004610476565b50819003601f19909101908152919050565b6000602082840312156104b857600080fd5b81356001600160e01b0319811681146103a957600080fd5b60005b838110156104eb5781810151838201526020016104d3565b50506000910152565b60208152600082518060208401526105138160408501602087016104d0565b601f01601f19169190910160400192915050565b60006020828403121561053957600080fd5b5035919050565b60006020828403121561055257600080fd5b813573ffffffffffffffffffffffffffffffffffffffff811681146103a957600080fd5b600181811c9082168061058a57607f821691505b6020821081036105c3577f4e487b7100000000000000000000000000000000000000000000000000000000600052602260045260246000fd5b50919050565b600083516105db8184602088016104d0565b8351908301906105ef8183602088016104d0565b0194935050505056fea264697066735822122042e2915ea84d96e86f439cac762748e4a9e1588d4f54c8680705b9d903b2251f64736f6c63430008110033",
  "linkReferences": {},
  "deployedLinkReferences": {}
}