{"_format":"hh-sol-artifact-1","contractName":"Event","sourceName":"contracts/Event.sol","abi":[{"inputs":[{"components":[{"internalType":"string","name":"name","type":"string"},{"internalType":"string","name":"description","type":"string"},{"internalType":"string","name":"link","type":"string"},{"internalType":"string","name":"image","type":"string"},{"internalType":"uint256","name":"maxParticipants","type":"uint256"},{"internalType":"uint256","name":"registrationEnd","type":"uint256"},{"internalType":"uint256","name":"start","type":"uint256"},{"internalType":"uint256","name":"end","type":"uint256"},{"internalType":"uint256","name":"ticketPrice","type":"uint256"},{"internalType":"uint256","name":"preSaleTicketPrice","type":"uint256"}],"internalType":"struct Utils.EventStruct","name":"eventData","type":"tuple"},{"internalType":"address","name":"owner","type":"address"},{"internalType":"uint256","name":"fee","type":"uint256"},{"internalType":"string","name":"_tokenUri","type":"string"}],"stateMutability":"nonpayable","type":"constructor"},{"inputs":[],"name":"AddressNotWhitelisted","type":"error"},{"inputs":[],"name":"AlreadyCheckedIn","type":"error"},{"inputs":[],"name":"AlreadyRegistered","type":"error"},{"inputs":[],"name":"BalanceQueryForZeroAddress","type":"error"},{"inputs":[],"name":"CheckInNotAvailable","type":"error"},{"inputs":[],"name":"EventAlreadyStarted","type":"error"},{"inputs":[],"name":"MintToZeroAddress","type":"error"},{"inputs":[],"name":"MintZeroQuantity","type":"error"},{"inputs":[],"name":"NoSeatsAvailable","type":"error"},{"inputs":[],"name":"NotModerator","type":"error"},{"inputs":[],"name":"NotRegistered","type":"error"},{"inputs":[],"name":"OwnerQueryForNonexistentToken","type":"error"},{"inputs":[],"name":"ProvideRequiredArguments","type":"error"},{"inputs":[],"name":"RegistrationClosed","type":"error"},{"inputs":[],"name":"TransferFailed","type":"error"},{"inputs":[],"name":"TransferToNonERC721ReceiverImplementer","type":"error"},{"inputs":[],"name":"URIQueryForNonexistentToken","type":"error"},{"inputs":[],"name":"ValueNotEnough","type":"error"},{"anonymous":false,"inputs":[{"indexed":true,"internalType":"address","name":"previousOwner","type":"address"},{"indexed":true,"internalType":"address","name":"newOwner","type":"address"}],"name":"OwnershipTransferred","type":"event"},{"anonymous":false,"inputs":[{"indexed":false,"internalType":"address","name":"participant","type":"address"}],"name":"ParticipantChecked","type":"event"},{"anonymous":false,"inputs":[{"indexed":false,"internalType":"address","name":"participant","type":"address"}],"name":"ParticipantRegistered","type":"event"},{"anonymous":false,"inputs":[{"indexed":true,"internalType":"address","name":"from","type":"address"},{"indexed":true,"internalType":"address","name":"to","type":"address"},{"indexed":true,"internalType":"uint256","name":"tokenId","type":"uint256"}],"name":"Transfer","type":"event"},{"inputs":[{"internalType":"address","name":"addr","type":"address"},{"internalType":"bool","name":"status","type":"bool"}],"name":"addModerator","outputs":[],"stateMutability":"nonpayable","type":"function"},{"inputs":[{"internalType":"address","name":"owner","type":"address"}],"name":"balanceOf","outputs":[{"internalType":"uint256","name":"","type":"uint256"}],"stateMutability":"view","type":"function"},{"inputs":[{"internalType":"uint256","name":"_start","type":"uint256"},{"internalType":"uint256","name":"_end","type":"uint256"},{"internalType":"uint256","name":"_registrationEnd","type":"uint256"}],"name":"changeEventDates","outputs":[],"stateMutability":"nonpayable","type":"function"},{"inputs":[{"internalType":"string","name":"_description","type":"string"},{"internalType":"string","name":"_link","type":"string"},{"internalType":"uint256","name":"_maxParticipants","type":"uint256"}],"name":"changeEventInfo","outputs":[],"stateMutability":"nonpayable","type":"function"},{"inputs":[{"internalType":"uint256","name":"_ticketPrice","type":"uint256"},{"internalType":"uint256","name":"_preSalePrice","type":"uint256"}],"name":"changeTicketPrices","outputs":[],"stateMutability":"nonpayable","type":"function"},{"inputs":[{"internalType":"bytes32","name":"rootHash","type":"bytes32"}],"name":"changeWhitelistRoot","outputs":[],"stateMutability":"nonpayable","type":"function"},{"inputs":[{"internalType":"address","name":"participant","type":"address"}],"name":"checkIn","outputs":[],"stateMutability":"nonpayable","type":"function"},{"inputs":[],"name":"checkedParticipantCount","outputs":[{"internalType":"uint256","name":"","type":"uint256"}],"stateMutability":"view","type":"function"},{"inputs":[{"internalType":"address","name":"","type":"address"}],"name":"checkedParticipants","outputs":[{"internalType":"bool","name":"","type":"bool"}],"stateMutability":"view","type":"function"},{"inputs":[],"name":"description","outputs":[{"internalType":"string","name":"","type":"string"}],"stateMutability":"view","type":"function"},{"inputs":[],"name":"end","outputs":[{"internalType":"uint256","name":"","type":"uint256"}],"stateMutability":"view","type":"function"},{"inputs":[{"internalType":"uint256","name":"currTimestamp","type":"uint256"}],"name":"getEventInfo","outputs":[{"components":[{"internalType":"string","name":"name","type":"string"},{"internalType":"string","name":"description","type":"string"},{"internalType":"string","name":"link","type":"string"},{"internalType":"string","name":"image","type":"string"},{"internalType":"uint256","name":"maxParticipants","type":"uint256"},{"internalType":"uint256","name":"registrationEnd","type":"uint256"},{"internalType":"uint256","name":"start","type":"uint256"},{"internalType":"uint256","name":"end","type":"uint256"},{"internalType":"uint256","name":"ticketPrice","type":"uint256"},{"internalType":"uint256","name":"preSaleTicketPrice","type":"uint256"},{"internalType":"uint256","name":"registeredParticipantCount","type":"uint256"},{"internalType":"uint256","name":"checkedParticipantCount","type":"uint256"},{"internalType":"bool","name":"registrationOpen","type":"bool"},{"internalType":"bool","name":"onlyWhitelistRegistration","type":"bool"},{"internalType":"bool","name":"isRegistered","type":"bool"},{"internalType":"bool","name":"isChecked","type":"bool"},{"internalType":"address","name":"addr","type":"address"},{"internalType":"address","name":"organizer","type":"address"}],"internalType":"struct Utils.EventInfoStruct","name":"","type":"tuple"}],"stateMutability":"view","type":"function"},{"inputs":[{"internalType":"uint256","name":"currTimestamp","type":"uint256"}],"name":"getRegistrationOpen","outputs":[{"internalType":"uint8","name":"","type":"uint8"}],"stateMutability":"view","type":"function"},{"inputs":[],"name":"image","outputs":[{"internalType":"string","name":"","type":"string"}],"stateMutability":"view","type":"function"},{"inputs":[],"name":"link","outputs":[{"internalType":"string","name":"","type":"string"}],"stateMutability":"view","type":"function"},{"inputs":[],"name":"maxParticipants","outputs":[{"internalType":"uint256","name":"","type":"uint256"}],"stateMutability":"view","type":"function"},{"inputs":[{"internalType":"address","name":"","type":"address"}],"name":"moderators","outputs":[{"internalType":"bool","name":"","type":"bool"}],"stateMutability":"view","type":"function"},{"inputs":[],"name":"name","outputs":[{"internalType":"string","name":"","type":"string"}],"stateMutability":"view","type":"function"},{"inputs":[],"name":"onlyWhitelistRegistration","outputs":[{"internalType":"bool","name":"","type":"bool"}],"stateMutability":"view","type":"function"},{"inputs":[],"name":"owner","outputs":[{"internalType":"address","name":"","type":"address"}],"stateMutability":"view","type":"function"},{"inputs":[{"internalType":"uint256","name":"tokenId","type":"uint256"}],"name":"ownerOf","outputs":[{"internalType":"address","name":"","type":"address"}],"stateMutability":"view","type":"function"},{"inputs":[],"name":"parentContractAddr","outputs":[{"internalType":"address","name":"","type":"address"}],"stateMutability":"view","type":"function"},{"inputs":[],"name":"parentContractFee","outputs":[{"internalType":"uint256","name":"","type":"uint256"}],"stateMutability":"view","type":"function"},{"inputs":[{"internalType":"address","name":"","type":"address"}],"name":"participants","outputs":[{"internalType":"bool","name":"","type":"bool"}],"stateMutability":"view","type":"function"},{"inputs":[],"name":"preSaleTicketPrice","outputs":[{"internalType":"uint256","name":"","type":"uint256"}],"stateMutability":"view","type":"function"},{"inputs":[],"name":"publicRegister","outputs":[],"stateMutability":"payable","type":"function"},{"inputs":[],"name":"registeredParticipantCount","outputs":[{"internalType":"uint256","name":"","type":"uint256"}],"stateMutability":"view","type":"function"},{"inputs":[],"name":"registrationEnd","outputs":[{"internalType":"uint256","name":"","type":"uint256"}],"stateMutability":"view","type":"function"},{"inputs":[],"name":"registrationOpen","outputs":[{"internalType":"bool","name":"","type":"bool"}],"stateMutability":"view","type":"function"},{"inputs":[],"name":"renounceOwnership","outputs":[],"stateMutability":"nonpayable","type":"function"},{"inputs":[],"name":"start","outputs":[{"internalType":"uint256","name":"","type":"uint256"}],"stateMutability":"view","type":"function"},{"inputs":[{"internalType":"bytes4","name":"interfaceId","type":"bytes4"}],"name":"supportsInterface","outputs":[{"internalType":"bool","name":"","type":"bool"}],"stateMutability":"view","type":"function"},{"inputs":[],"name":"symbol","outputs":[{"internalType":"string","name":"","type":"string"}],"stateMutability":"view","type":"function"},{"inputs":[],"name":"ticketPrice","outputs":[{"internalType":"uint256","name":"","type":"uint256"}],"stateMutability":"view","type":"function"},{"inputs":[{"internalType":"bool","name":"_isOpen","type":"bool"},{"internalType":"bool","name":"_onlyWhitelist","type":"bool"}],"name":"toggleRegistration","outputs":[],"stateMutability":"nonpayable","type":"function"},{"inputs":[{"internalType":"uint256","name":"tokenId","type":"uint256"}],"name":"tokenURI","outputs":[{"internalType":"string","name":"","type":"string"}],"stateMutability":"view","type":"function"},{"inputs":[],"name":"tokenUri","outputs":[{"internalType":"string","name":"","type":"string"}],"stateMutability":"view","type":"function"},{"inputs":[],"name":"totalSupply","outputs":[{"internalType":"uint256","name":"","type":"uint256"}],"stateMutability":"view","type":"function"},{"inputs":[{"internalType":"address","name":"newOwner","type":"address"}],"name":"transferOwnership","outputs":[],"stateMutability":"nonpayable","type":"function"},{"inputs":[{"internalType":"address","name":"owner","type":"address"}],"name":"verifyTicket","outputs":[{"internalType":"bool","name":"","type":"bool"}],"stateMutability":"view","type":"function"},{"inputs":[{"internalType":"bytes32[]","name":"_proof","type":"bytes32[]"}],"name":"whitelistRegister","outputs":[],"stateMutability":"payable","type":"function"},{"inputs":[],"name":"whitelistRoot","outputs":[{"internalType":"bytes32","name":"","type":"bytes32"}],"stateMutability":"view","type":"function"},{"inputs":[],"name":"withdraw","outputs":[],"stateMutability":"nonpayable","type":"function"}],"bytecode":"0x60806040526007805461ff0019166101001790557f16d95910a21726a3e7b59a8c6166b355396434419809cb902e2063555b8d60de6011553480156200004457600080fd5b506040516200297a3803806200297a8339810160408190526200006791620003fd565b835160408051808201909152600381526222ab2760e91b60208201526200008e33620001ad565b60036200009c8382620005fc565b506004620000ab8282620005fc565b5060018055505060c08401511580620000c6575060e0840151155b15620000e557604051630968678160e11b815260040160405180910390fd5b6020840151601290620000f99082620005fc565b5060408401516013906200010e9082620005fc565b5060146200011d8282620005fc565b506060840151601590620001329082620005fc565b50608084015160085560c0840151600a5560e0840151600b55610100840151600e55610120840151600f5560a0840151600003620001785760c084015160095562000181565b60a08401516009555b601980546001600160a01b031916331790556010829055620001a383620001fd565b50505050620006c8565b600080546001600160a01b038381166001600160a01b0319831681178455604051919092169283917f8be0079c531659141344cd1fd0a4f28419497f9722a3daafe3b4186f6b6457e09190a35050565b6200020762000280565b6001600160a01b038116620002725760405162461bcd60e51b815260206004820152602660248201527f4f776e61626c653a206e6577206f776e657220697320746865207a65726f206160448201526564647265737360d01b60648201526084015b60405180910390fd5b6200027d81620001ad565b50565b6000546001600160a01b03163314620002dc5760405162461bcd60e51b815260206004820181905260248201527f4f776e61626c653a2063616c6c6572206973206e6f7420746865206f776e6572604482015260640162000269565b565b634e487b7160e01b600052604160045260246000fd5b60405161014081016001600160401b03811182821017156200031a576200031a620002de565b60405290565b604051601f8201601f191681016001600160401b03811182821017156200034b576200034b620002de565b604052919050565b600082601f8301126200036557600080fd5b81516001600160401b03811115620003815762000381620002de565b602062000397601f8301601f1916820162000320565b8281528582848701011115620003ac57600080fd5b60005b83811015620003cc578581018301518282018401528201620003af565b506000928101909101919091529392505050565b80516001600160a01b0381168114620003f857600080fd5b919050565b600080600080608085870312156200041457600080fd5b84516001600160401b03808211156200042c57600080fd5b9086019061014082890312156200044257600080fd5b6200044c620002f4565b8251828111156200045c57600080fd5b6200046a8a82860162000353565b8252506020830151828111156200048057600080fd5b6200048e8a82860162000353565b602083015250604083015182811115620004a757600080fd5b620004b58a82860162000353565b604083015250606083015182811115620004ce57600080fd5b620004dc8a82860162000353565b6060830152506080830151608082015260a083015160a082015260c083015160c082015260e083015160e0820152610100808401518183015250610120808401518183015250809650506200053460208801620003e0565b94506040870151935060608701519150808211156200055257600080fd5b50620005618782880162000353565b91505092959194509250565b600181811c908216806200058257607f821691505b602082108103620005a357634e487b7160e01b600052602260045260246000fd5b50919050565b601f821115620005f757600081815260208120601f850160051c81016020861015620005d25750805b601f850160051c820191505b81811015620005f357828155600101620005de565b5050505b505050565b81516001600160401b03811115620006185762000618620002de565b62000630816200062984546200056d565b84620005a9565b602080601f8311600181146200066857600084156200064f5750858301515b600019600386901b1c1916600185901b178555620005f3565b600085815260208120601f198616915b82811015620006995788860151825594840194600190910190840162000678565b5085821015620006b85787850151600019600388901b60f8161c191681555b5050505050600190811b01905550565b6122a280620006d86000396000f3fe6080604052600436106102db5760003560e01c8063736f88cd11610184578063c4625ba3116100d6578063ead121111161008a578063f34094a711610064578063f34094a7146107b8578063f3ccaac0146107c0578063fe1e2f51146107d557600080fd5b8063ead1211114610750578063efbe1c1c14610782578063f2fde38b1461079857600080fd5b8063c7cac600116100bb578063c7cac600146106f6578063c87b56dd14610710578063d9a59e331461073057600080fd5b8063c4625ba3146106c0578063c6a7cbc9146106d657600080fd5b80638da5cb5b11610138578063be9a655511610112578063be9a655514610677578063bffa31231461068d578063c025e686146106ad57600080fd5b80638da5cb5b1461062457806392cc6a681461064257806395d89b411461066257600080fd5b80637fd34e92116101695780637fd34e92146105ce5780638121e42d146105ee5780638818ed381461060457600080fd5b8063736f88cd146105995780637de33aec146105b857600080fd5b80631d645b121161023d5780633ccfd60b116101f157806370a08231116101cb57806370a082311461054f578063715018a61461056f5780637284e4161461058457600080fd5b80633ccfd60b146104e25780636352211e146104f75780636c9de4ef1461052f57600080fd5b8063336df10611610222578063336df10614610495578063355e0c5d146104b7578063386bfc98146104cc57600080fd5b80631d645b121461045257806324924bf71461047f57600080fd5b806313446a7511610294578063158c613411610279578063158c6134146103e757806318160ddd146104205780631c4695f41461043d57600080fd5b806313446a75146103a157806314d0f1ba146103b757600080fd5b806306fdde03116102c557806306fdde031461033957806309e69ede1461035b5780631209b1f61461038b57600080fd5b8062f4494f146102e057806301ffc9a714610309575b600080fd5b3480156102ec57600080fd5b506102f660105481565b6040519081526020015b60405180910390f35b34801561031557600080fd5b50610329610324366004611bc2565b610805565b6040519015158152602001610300565b34801561034557600080fd5b5061034e6108a2565b6040516103009190611c25565b34801561036757600080fd5b50610329610376366004611c54565b60166020526000908152604090205460ff1681565b34801561039757600080fd5b506102f6600e5481565b3480156103ad57600080fd5b506102f660095481565b3480156103c357600080fd5b506103296103d2366004611c54565b60186020526000908152604090205460ff1681565b3480156103f357600080fd5b50610329610402366004611c54565b6001600160a01b031660009081526016602052604090205460ff1690565b34801561042c57600080fd5b5060025460015403600019016102f6565b34801561044957600080fd5b5061034e610934565b34801561045e57600080fd5b5061047261046d366004611c6f565b6109c2565b6040516103009190611c88565b34801561048b57600080fd5b506102f660085481565b3480156104a157600080fd5b506104b56104b0366004611e05565b610d76565b005b3480156104c357600080fd5b5061034e610da9565b3480156104d857600080fd5b506102f660115481565b3480156104ee57600080fd5b506104b5610db6565b34801561050357600080fd5b50610517610512366004611c6f565b610f1b565b6040516001600160a01b039091168152602001610300565b34801561053b57600080fd5b506104b561054a366004611e38565b610f26565b34801561055b57600080fd5b506102f661056a366004611c54565b610f51565b34801561057b57600080fd5b506104b5610fb9565b34801561059057600080fd5b5061034e610fcd565b3480156105a557600080fd5b5060075461032990610100900460ff1681565b3480156105c457600080fd5b506102f6600d5481565b3480156105da57600080fd5b506104b56105e9366004611e54565b610fda565b3480156105fa57600080fd5b506102f6600f5481565b34801561061057600080fd5b50601954610517906001600160a01b031681565b34801561063057600080fd5b506000546001600160a01b0316610517565b34801561064e57600080fd5b506104b561065d366004611f19565b610fed565b34801561066e57600080fd5b5061034e611016565b34801561068357600080fd5b506102f6600a5481565b34801561069957600080fd5b506104b56106a8366004611f86565b611025565b6104b56106bb366004611fb2565b61103b565b3480156106cc57600080fd5b506102f6600c5481565b3480156106e257600080fd5b506104b56106f1366004611c6f565b6111a6565b34801561070257600080fd5b506007546103299060ff1681565b34801561071c57600080fd5b5061034e61072b366004611c6f565b6111b3565b34801561073c57600080fd5b506104b561074b366004611c54565b611286565b34801561075c57600080fd5b5061077061076b366004611c6f565b611455565b60405160ff9091168152602001610300565b34801561078e57600080fd5b506102f6600b5481565b3480156107a457600080fd5b506104b56107b3366004611c54565b6114d8565b6104b561156d565b3480156107cc57600080fd5b5061034e61165a565b3480156107e157600080fd5b506103296107f0366004611c54565b60176020526000908152604090205460ff1681565b60007f01ffc9a7000000000000000000000000000000000000000000000000000000006001600160e01b03198316148061086857507f80ac58cd000000000000000000000000000000000000000000000000000000006001600160e01b03198316145b8061089c57507f5b5e139f000000000000000000000000000000000000000000000000000000006001600160e01b03198316145b92915050565b6060600380546108b190612027565b80601f01602080910402602001604051908101604052809291908181526020018280546108dd90612027565b801561092a5780601f106108ff5761010080835404028352916020019161092a565b820191906000526020600020905b81548152906001019060200180831161090d57829003601f168201915b5050505050905090565b6013805461094190612027565b80601f016020809104026020016040519081016040528092919081815260200182805461096d90612027565b80156109ba5780601f1061098f576101008083540402835291602001916109ba565b820191906000526020600020905b81548152906001019060200180831161099d57829003601f168201915b505050505081565b610a6a60405180610240016040528060608152602001606081526020016060815260200160608152602001600081526020016000815260200160008152602001600081526020016000815260200160008152602001600081526020016000815260200160001515815260200160001515815260200160001515815260200160001515815260200160006001600160a01b0316815260200160006001600160a01b031681525090565b610b1260405180610240016040528060608152602001606081526020016060815260200160608152602001600081526020016000815260200160008152602001600081526020016000815260200160008152602001600081526020016000815260200160001515815260200160001515815260200160001515815260200160001515815260200160006001600160a01b0316815260200160006001600160a01b031681525090565b600a5460c0820152600b5460e082015260095460a0820152610b326108a2565b815260128054610b4190612027565b80601f0160208091040260200160405190810160405280929190818152602001828054610b6d90612027565b8015610bba5780601f10610b8f57610100808354040283529160200191610bba565b820191906000526020600020905b815481529060010190602001808311610b9d57829003601f168201915b505050505060208201526008546080820152600e54610100820152600f5461012082015260138054610beb90612027565b80601f0160208091040260200160405190810160405280929190818152602001828054610c1790612027565b8015610c645780601f10610c3957610100808354040283529160200191610c64565b820191906000526020600020905b815481529060010190602001808311610c4757829003601f168201915b5050505050816040018190525060158054610c7e90612027565b80601f0160208091040260200160405190810160405280929190818152602001828054610caa90612027565b8015610cf75780601f10610ccc57610100808354040283529160200191610cf7565b820191906000526020600020905b815481529060010190602001808311610cda57829003601f168201915b505050505060608201526000546001600160a01b0316610220820152610d1c83611455565b60ff9081161561018083015233600081815260166020908152604080832054851615156101c08701529282526017905220541615156101e0820152600c54610140820152600d546101608201523061020082015292915050565b610d7e611667565b6001600160a01b03919091166000908152601860205260409020805460ff1916911515919091179055565b6014805461094190612027565b610dbe611667565b476000819003610de1576040516312171d8360e31b815260040160405180910390fd5b601054600190600090610df5906064612077565b60105490915015610e8f576019546010546001600160a01b0390911690606490610e2090869061208a565b610e2a91906120a1565b604051600081818185875af1925050503d8060008114610e66576040519150601f19603f3d011682016040523d82523d6000602084013e610e6b565b606091505b50508092505081610e8f576040516312171d8360e31b815260040160405180910390fd5b6000546001600160a01b03166064610ea7858461208a565b610eb191906120a1565b604051600081818185875af1925050503d8060008114610eed576040519150601f19603f3d011682016040523d82523d6000602084013e610ef2565b606091505b50508092505081610f16576040516312171d8360e31b815260040160405180910390fd5b505050565b600061089c826116c1565b610f2e611667565b6007805461ffff19166101009315159390930260ff191692909217901515179055565b60006001600160a01b038216610f93576040517f8f4eb60400000000000000000000000000000000000000000000000000000000815260040160405180910390fd5b506001600160a01b031660009081526006602052604090205467ffffffffffffffff1690565b610fc1611667565b610fcb6000611750565b565b6012805461094190612027565b610fe2611667565b600e91909155600f55565b610ff5611667565b60126110018482612111565b50601361100e8382612111565b506008555050565b6060600480546108b190612027565b61102d611667565b600a92909255600b55600955565b600061104642611455565b90508060ff1660010361106c5760405163a8ab2d2560e01b815260040160405180910390fd5b8060ff1660020361109057604051632fc209f360e01b815260040160405180910390fd5b8060ff166003036110b457604051630ea075bf60e21b815260040160405180910390fd5b8060ff166004036110d857604051632437ffe960e11b815260040160405180910390fd5b60075460ff16158061115c575061115a838380806020026020016040519081016040528093929190818152602001838360200280828437600092019190915250506011546040516bffffffffffffffffffffffff193360601b1660208201529092506034019050604051602081830303815290604052805190602001206117b8565b155b1561117a5760405163ad7acb4760e01b815260040160405180910390fd5b600f5434101561119d57604051633c89335b60e11b815260040160405180910390fd5b610f16336117ce565b6111ae611667565b601155565b60606111be82611857565b6111f4576040517fa14c4b5000000000000000000000000000000000000000000000000000000000815260040160405180910390fd5b6014805461120190612027565b80601f016020809104026020016040519081016040528092919081815260200182805461122d90612027565b801561127a5780601f1061124f5761010080835404028352916020019161127a565b820191906000526020600020905b81548152906001019060200180831161125d57829003601f168201915b50505050509050919050565b6000546001600160a01b031633148015906112b157503360009081526018602052604090205460ff16155b156112e8576040517feaa45d6a00000000000000000000000000000000000000000000000000000000815260040160405180910390fd5b600a5442908110806112fb5750600b5481115b15611332576040517f91e3be3900000000000000000000000000000000000000000000000000000000815260040160405180910390fd5b6001600160a01b03821660009081526016602052604090205460ff16611384576040517faba4733900000000000000000000000000000000000000000000000000000000815260040160405180910390fd5b6001600160a01b03821660009081526017602052604090205460ff16156113d7576040517fc98289f000000000000000000000000000000000000000000000000000000000815260040160405180910390fd5b6001600160a01b0382166000908152601760205260408120805460ff19166001908117909155600d8054919290916114109084906121d1565b90915550506040516001600160a01b03831681527fcbf477e63735f8d27f9b668165862d7c6e84e5650edec70229523db18c2f1efd9060200160405180910390a15050565b6000600a5482111561146957506001919050565b600754610100900460ff161580611481575060095482115b1561148e57506002919050565b3360009081526016602052604090205460ff16156114ae57506003919050565b60006008541180156114c35750600854600c54145b156114d057506004919050565b506000919050565b6114e0611667565b6001600160a01b0381166115615760405162461bcd60e51b815260206004820152602660248201527f4f776e61626c653a206e6577206f776e657220697320746865207a65726f206160448201527f646472657373000000000000000000000000000000000000000000000000000060648201526084015b60405180910390fd5b61156a81611750565b50565b600061157842611455565b90508060ff1660010361159e5760405163a8ab2d2560e01b815260040160405180910390fd5b8060ff166002036115c257604051632fc209f360e01b815260040160405180910390fd5b8060ff166003036115e657604051630ea075bf60e21b815260040160405180910390fd5b8060ff1660040361160a57604051632437ffe960e11b815260040160405180910390fd5b60075460ff161561162e5760405163ad7acb4760e01b815260040160405180910390fd5b600e5434101561165157604051633c89335b60e11b815260040160405180910390fd5b61156a336117ce565b6015805461094190612027565b6000546001600160a01b03163314610fcb5760405162461bcd60e51b815260206004820181905260248201527f4f776e61626c653a2063616c6c6572206973206e6f7420746865206f776e65726044820152606401611558565b6000818060011161171e5760015481101561171e5760008181526005602052604081205490600160e01b8216900361171c575b806000036117155750600019016000818152600560205260409020546116f4565b9392505050565b505b6040517fdf2d9b4200000000000000000000000000000000000000000000000000000000815260040160405180910390fd5b600080546001600160a01b038381167fffffffffffffffffffffffff0000000000000000000000000000000000000000831681178455604051919092169283917f8be0079c531659141344cd1fd0a4f28419497f9722a3daafe3b4186f6b6457e09190a35050565b6000826117c5858461188c565b14949350505050565b6001600160a01b0381166000908152601660205260408120805460ff19166001908117909155600c8054919290916118079084906121d1565b9091555061181890508160016118d9565b6040516001600160a01b03821681527fe11711cd714e06fbbbea301a8e90822f2f2ea4808e37e3adf06038f33c53ff279060200160405180910390a150565b60008160011115801561186b575060015482105b801561089c575050600090815260056020526040902054600160e01b161590565b600081815b84518110156118d1576118bd828683815181106118b0576118b06121e4565b60200260200101516118f7565b9150806118c9816121fa565b915050611891565b509392505050565b6118f3828260405180602001604052806000815250611923565b5050565b6000818310611913576000828152602084905260409020611715565b5060009182526020526040902090565b61192d8383611990565b6001600160a01b0383163b15610f16576001548281035b6119576000868380600101945086611ac1565b611974576040516368d2bf6b60e11b815260040160405180910390fd5b81811061194457816001541461198957600080fd5b5050505050565b60015460008290036119ce576040517fb562e8dd00000000000000000000000000000000000000000000000000000000815260040160405180910390fd5b6001600160a01b03831660008181526006602090815260408083208054680100000000000000018802019055848352600590915281206001851460e11b4260a01b178317905582840190839083907fddf252ad1be2c89b69c2b068fc378daa952ba7f163c4a11628f55a4df523b3ef8180a4600183015b818114611a7d57808360007fddf252ad1be2c89b69c2b068fc378daa952ba7f163c4a11628f55a4df523b3ef600080a4600101611a45565b5081600003611ab8576040517f2e07630000000000000000000000000000000000000000000000000000000000815260040160405180910390fd5b60015550505050565b604051630a85bd0160e11b81526000906001600160a01b0385169063150b7a0290611af6903390899088908890600401612213565b6020604051808303816000875af1925050508015611b31575060408051601f3d908101601f19168201909252611b2e9181019061224f565b60015b611b8f573d808015611b5f576040519150601f19603f3d011682016040523d82523d6000602084013e611b64565b606091505b508051600003611b87576040516368d2bf6b60e11b815260040160405180910390fd5b805181602001fd5b6001600160e01b031916630a85bd0160e11b149050949350505050565b6001600160e01b03198116811461156a57600080fd5b600060208284031215611bd457600080fd5b813561171581611bac565b6000815180845260005b81811015611c0557602081850181015186830182015201611be9565b506000602082860101526020601f19601f83011685010191505092915050565b6020815260006117156020830184611bdf565b80356001600160a01b0381168114611c4f57600080fd5b919050565b600060208284031215611c6657600080fd5b61171582611c38565b600060208284031215611c8157600080fd5b5035919050565b6020815260008251610240806020850152611ca7610260850183611bdf565b91506020850151601f1980868503016040870152611cc58483611bdf565b93506040870151915080868503016060870152611ce28483611bdf565b9350606087015191508086850301608087015250611d008382611bdf565b925050608085015160a085015260a085015160c085015260c085015160e085015260e08501516101008181870152808701519150506101208181870152808701519150506101408181870152808701519150506101608181870152808701519150506101808181870152808701519150506101a0611d818187018315159052565b86015190506101c0611d968682018315159052565b86015190506101e0611dab8682018315159052565b8601519050610200611dc08682018315159052565b8601519050610220611ddc868201836001600160a01b03169052565b909501516001600160a01b031693019290925250919050565b80358015158114611c4f57600080fd5b60008060408385031215611e1857600080fd5b611e2183611c38565b9150611e2f60208401611df5565b90509250929050565b60008060408385031215611e4b57600080fd5b611e2183611df5565b60008060408385031215611e6757600080fd5b50508035926020909101359150565b634e487b7160e01b600052604160045260246000fd5b600082601f830112611e9d57600080fd5b813567ffffffffffffffff80821115611eb857611eb8611e76565b604051601f8301601f19908116603f01168101908282118183101715611ee057611ee0611e76565b81604052838152866020858801011115611ef957600080fd5b836020870160208301376000602085830101528094505050505092915050565b600080600060608486031215611f2e57600080fd5b833567ffffffffffffffff80821115611f4657600080fd5b611f5287838801611e8c565b94506020860135915080821115611f6857600080fd5b50611f7586828701611e8c565b925050604084013590509250925092565b600080600060608486031215611f9b57600080fd5b505081359360208301359350604090920135919050565b60008060208385031215611fc557600080fd5b823567ffffffffffffffff80821115611fdd57600080fd5b818501915085601f830112611ff157600080fd5b81358181111561200057600080fd5b8660208260051b850101111561201557600080fd5b60209290920196919550909350505050565b600181811c9082168061203b57607f821691505b60208210810361205b57634e487b7160e01b600052602260045260246000fd5b50919050565b634e487b7160e01b600052601160045260246000fd5b8181038181111561089c5761089c612061565b808202811582820484141761089c5761089c612061565b6000826120be57634e487b7160e01b600052601260045260246000fd5b500490565b601f821115610f1657600081815260208120601f850160051c810160208610156120ea5750805b601f850160051c820191505b81811015612109578281556001016120f6565b505050505050565b815167ffffffffffffffff81111561212b5761212b611e76565b61213f816121398454612027565b846120c3565b602080601f831160018114612174576000841561215c5750858301515b600019600386901b1c1916600185901b178555612109565b600085815260208120601f198616915b828110156121a357888601518255948401946001909101908401612184565b50858210156121c15787850151600019600388901b60f8161c191681555b5050505050600190811b01905550565b8082018082111561089c5761089c612061565b634e487b7160e01b600052603260045260246000fd5b60006001820161220c5761220c612061565b5060010190565b60006001600160a01b038087168352808616602084015250836040830152608060608301526122456080830184611bdf565b9695505050505050565b60006020828403121561226157600080fd5b815161171581611bac56fea26469706673582212203777e152cc7b13e797f340da7a59b1d537235d40a2ca3c99de1d540efe1b2f2164736f6c63430008110033","linkReferences":{},"deployedLinkReferences":{}}