{"_format":"hh-sol-artifact-1","contractName":"Event","sourceName":"contracts/Event.sol","abi":[{"inputs":[{"components":[{"internalType":"uint256","name":"maxParticipants","type":"uint256"},{"internalType":"uint256","name":"registrationEnd","type":"uint256"},{"internalType":"uint256","name":"start","type":"uint256"},{"internalType":"uint256","name":"end","type":"uint256"},{"internalType":"uint256","name":"ticketPrice","type":"uint256"},{"internalType":"uint256","name":"preSaleTicketPrice","type":"uint256"},{"internalType":"string","name":"name","type":"string"},{"internalType":"string","name":"description","type":"string"},{"internalType":"string","name":"link","type":"string"},{"internalType":"string","name":"image","type":"string"},{"internalType":"string","name":"location","type":"string"},{"internalType":"bool","name":"registrationOpen","type":"bool"},{"internalType":"bool","name":"onlyWhitelistRegistration","type":"bool"}],"internalType":"struct Utils.EventStruct","name":"eventData","type":"tuple"},{"internalType":"address","name":"owner","type":"address"},{"internalType":"uint256","name":"fee","type":"uint256"},{"internalType":"string","name":"_tokenUri","type":"string"}],"stateMutability":"nonpayable","type":"constructor"},{"inputs":[],"name":"AddressNotWhitelisted","type":"error"},{"inputs":[],"name":"AlreadyCheckedIn","type":"error"},{"inputs":[],"name":"AlreadyRegistered","type":"error"},{"inputs":[],"name":"BadRequest","type":"error"},{"inputs":[],"name":"BalanceQueryForZeroAddress","type":"error"},{"inputs":[],"name":"CanNotModifyStartedEvent","type":"error"},{"inputs":[],"name":"CheckInNotAvailable","type":"error"},{"inputs":[],"name":"EventAlreadyStarted","type":"error"},{"inputs":[],"name":"MintToZeroAddress","type":"error"},{"inputs":[],"name":"MintZeroQuantity","type":"error"},{"inputs":[],"name":"NoSeatsAvailable","type":"error"},{"inputs":[],"name":"NotModerator","type":"error"},{"inputs":[],"name":"NotRegistered","type":"error"},{"inputs":[],"name":"OwnerQueryForNonexistentToken","type":"error"},{"inputs":[],"name":"ProvideRequiredArguments","type":"error"},{"inputs":[],"name":"RegistrationClosed","type":"error"},{"inputs":[],"name":"TransferFailed","type":"error"},{"inputs":[],"name":"TransferToNonERC721ReceiverImplementer","type":"error"},{"inputs":[],"name":"URIQueryForNonexistentToken","type":"error"},{"inputs":[],"name":"ValueNotEnough","type":"error"},{"anonymous":false,"inputs":[{"indexed":true,"internalType":"address","name":"previousOwner","type":"address"},{"indexed":true,"internalType":"address","name":"newOwner","type":"address"}],"name":"OwnershipTransferred","type":"event"},{"anonymous":false,"inputs":[{"indexed":false,"internalType":"address","name":"participant","type":"address"}],"name":"ParticipantChecked","type":"event"},{"anonymous":false,"inputs":[{"indexed":false,"internalType":"address","name":"participant","type":"address"}],"name":"ParticipantRegistered","type":"event"},{"anonymous":false,"inputs":[{"indexed":true,"internalType":"address","name":"from","type":"address"},{"indexed":true,"internalType":"address","name":"to","type":"address"},{"indexed":true,"internalType":"uint256","name":"tokenId","type":"uint256"}],"name":"Transfer","type":"event"},{"inputs":[{"internalType":"address","name":"addr","type":"address"},{"internalType":"bool","name":"status","type":"bool"}],"name":"addModerator","outputs":[],"stateMutability":"nonpayable","type":"function"},{"inputs":[{"internalType":"address","name":"owner","type":"address"}],"name":"balanceOf","outputs":[{"internalType":"uint256","name":"","type":"uint256"}],"stateMutability":"view","type":"function"},{"inputs":[{"components":[{"internalType":"uint256","name":"maxParticipants","type":"uint256"},{"internalType":"uint256","name":"registrationEnd","type":"uint256"},{"internalType":"uint256","name":"start","type":"uint256"},{"internalType":"uint256","name":"end","type":"uint256"},{"internalType":"uint256","name":"ticketPrice","type":"uint256"},{"internalType":"uint256","name":"preSaleTicketPrice","type":"uint256"},{"internalType":"string","name":"description","type":"string"},{"internalType":"string","name":"link","type":"string"},{"internalType":"string","name":"location","type":"string"},{"internalType":"bool","name":"registrationOpen","type":"bool"},{"internalType":"bool","name":"onlyWhitelistRegistration","type":"bool"}],"internalType":"struct Utils.EventUpdateStruct","name":"eventData","type":"tuple"}],"name":"changeEventInfo","outputs":[],"stateMutability":"nonpayable","type":"function"},{"inputs":[{"internalType":"bytes32","name":"rootHash","type":"bytes32"}],"name":"changeWhitelistRoot","outputs":[],"stateMutability":"nonpayable","type":"function"},{"inputs":[{"internalType":"address","name":"participant","type":"address"}],"name":"checkIn","outputs":[],"stateMutability":"nonpayable","type":"function"},{"inputs":[],"name":"checkedParticipantCount","outputs":[{"internalType":"uint256","name":"","type":"uint256"}],"stateMutability":"view","type":"function"},{"inputs":[{"internalType":"address","name":"","type":"address"}],"name":"checkedParticipants","outputs":[{"internalType":"bool","name":"","type":"bool"}],"stateMutability":"view","type":"function"},{"inputs":[],"name":"description","outputs":[{"internalType":"string","name":"","type":"string"}],"stateMutability":"view","type":"function"},{"inputs":[],"name":"end","outputs":[{"internalType":"uint256","name":"","type":"uint256"}],"stateMutability":"view","type":"function"},{"inputs":[{"internalType":"uint256","name":"currTimestamp","type":"uint256"}],"name":"getEventInfo","outputs":[{"components":[{"internalType":"address","name":"addr","type":"address"},{"internalType":"address","name":"organizer","type":"address"},{"internalType":"bool","name":"registrationOpen","type":"bool"},{"internalType":"bool","name":"onlyWhitelistRegistration","type":"bool"},{"internalType":"bool","name":"isRegistered","type":"bool"},{"internalType":"bool","name":"isChecked","type":"bool"},{"internalType":"uint256","name":"maxParticipants","type":"uint256"},{"internalType":"uint256","name":"registrationEnd","type":"uint256"},{"internalType":"uint256","name":"start","type":"uint256"},{"internalType":"uint256","name":"end","type":"uint256"},{"internalType":"uint256","name":"ticketPrice","type":"uint256"},{"internalType":"uint256","name":"preSaleTicketPrice","type":"uint256"},{"internalType":"uint256","name":"registeredParticipantCount","type":"uint256"},{"internalType":"uint256","name":"checkedParticipantCount","type":"uint256"},{"internalType":"string","name":"name","type":"string"},{"internalType":"string","name":"description","type":"string"},{"internalType":"string","name":"link","type":"string"},{"internalType":"string","name":"image","type":"string"},{"internalType":"string","name":"location","type":"string"}],"internalType":"struct Utils.EventInfoStruct","name":"","type":"tuple"}],"stateMutability":"view","type":"function"},{"inputs":[{"internalType":"uint256","name":"currTimestamp","type":"uint256"}],"name":"getRegistrationOpen","outputs":[{"internalType":"uint8","name":"","type":"uint8"}],"stateMutability":"view","type":"function"},{"inputs":[],"name":"image","outputs":[{"internalType":"string","name":"","type":"string"}],"stateMutability":"view","type":"function"},{"inputs":[],"name":"link","outputs":[{"internalType":"string","name":"","type":"string"}],"stateMutability":"view","type":"function"},{"inputs":[],"name":"location","outputs":[{"internalType":"string","name":"","type":"string"}],"stateMutability":"view","type":"function"},{"inputs":[],"name":"maxParticipants","outputs":[{"internalType":"uint256","name":"","type":"uint256"}],"stateMutability":"view","type":"function"},{"inputs":[{"internalType":"address","name":"","type":"address"}],"name":"moderators","outputs":[{"internalType":"bool","name":"","type":"bool"}],"stateMutability":"view","type":"function"},{"inputs":[],"name":"name","outputs":[{"internalType":"string","name":"","type":"string"}],"stateMutability":"view","type":"function"},{"inputs":[],"name":"onlyWhitelistRegistration","outputs":[{"internalType":"bool","name":"","type":"bool"}],"stateMutability":"view","type":"function"},{"inputs":[],"name":"owner","outputs":[{"internalType":"address","name":"","type":"address"}],"stateMutability":"view","type":"function"},{"inputs":[{"internalType":"uint256","name":"tokenId","type":"uint256"}],"name":"ownerOf","outputs":[{"internalType":"address","name":"","type":"address"}],"stateMutability":"view","type":"function"},{"inputs":[],"name":"parentContractAddr","outputs":[{"internalType":"address","name":"","type":"address"}],"stateMutability":"view","type":"function"},{"inputs":[],"name":"parentContractFee","outputs":[{"internalType":"uint256","name":"","type":"uint256"}],"stateMutability":"view","type":"function"},{"inputs":[{"internalType":"address","name":"","type":"address"}],"name":"participants","outputs":[{"internalType":"bool","name":"","type":"bool"}],"stateMutability":"view","type":"function"},{"inputs":[],"name":"preSaleTicketPrice","outputs":[{"internalType":"uint256","name":"","type":"uint256"}],"stateMutability":"view","type":"function"},{"inputs":[],"name":"publicRegister","outputs":[],"stateMutability":"payable","type":"function"},{"inputs":[],"name":"registeredParticipantCount","outputs":[{"internalType":"uint256","name":"","type":"uint256"}],"stateMutability":"view","type":"function"},{"inputs":[],"name":"registrationEnd","outputs":[{"internalType":"uint256","name":"","type":"uint256"}],"stateMutability":"view","type":"function"},{"inputs":[],"name":"registrationOpen","outputs":[{"internalType":"bool","name":"","type":"bool"}],"stateMutability":"view","type":"function"},{"inputs":[],"name":"renounceOwnership","outputs":[],"stateMutability":"nonpayable","type":"function"},{"inputs":[],"name":"start","outputs":[{"internalType":"uint256","name":"","type":"uint256"}],"stateMutability":"view","type":"function"},{"inputs":[{"internalType":"bytes4","name":"interfaceId","type":"bytes4"}],"name":"supportsInterface","outputs":[{"internalType":"bool","name":"","type":"bool"}],"stateMutability":"view","type":"function"},{"inputs":[],"name":"symbol","outputs":[{"internalType":"string","name":"","type":"string"}],"stateMutability":"view","type":"function"},{"inputs":[],"name":"ticketPrice","outputs":[{"internalType":"uint256","name":"","type":"uint256"}],"stateMutability":"view","type":"function"},{"inputs":[{"internalType":"uint256","name":"tokenId","type":"uint256"}],"name":"tokenURI","outputs":[{"internalType":"string","name":"","type":"string"}],"stateMutability":"view","type":"function"},{"inputs":[],"name":"tokenUri","outputs":[{"internalType":"string","name":"","type":"string"}],"stateMutability":"view","type":"function"},{"inputs":[],"name":"totalSupply","outputs":[{"internalType":"uint256","name":"","type":"uint256"}],"stateMutability":"view","type":"function"},{"inputs":[{"internalType":"address","name":"newOwner","type":"address"}],"name":"transferOwnership","outputs":[],"stateMutability":"nonpayable","type":"function"},{"inputs":[{"internalType":"address","name":"owner","type":"address"}],"name":"verifyTicket","outputs":[{"internalType":"bool","name":"","type":"bool"}],"stateMutability":"view","type":"function"},{"inputs":[{"internalType":"bytes32[]","name":"_proof","type":"bytes32[]"}],"name":"whitelistRegister","outputs":[],"stateMutability":"payable","type":"function"},{"inputs":[],"name":"whitelistRoot","outputs":[{"internalType":"bytes32","name":"","type":"bytes32"}],"stateMutability":"view","type":"function"},{"inputs":[],"name":"withdraw","outputs":[],"stateMutability":"nonpayable","type":"function"}],"bytecode":"0x60806040526007805461ff0019166101001790557f16d95910a21726a3e7b59a8c6166b355396434419809cb902e2063555b8d60de6011553480156200004457600080fd5b5060405162002bb138038062002bb183398101604081905262000067916200045a565b60c084015160408051808201909152600481526321a922ab60e11b60208201526200009233620001f9565b6003620000a08382620006a8565b506004620000af8282620006a8565b5060018055505060408401511580620000ca57506060840151155b15620000e957604051630968678160e11b815260040160405180910390fd5b60e0840151601290620000fd9082620006a8565b50610100840151601390620001139082620006a8565b506014620001228282620006a8565b50610120840151601590620001389082620006a8565b5083516008556040840151600a556060840151600b556080840151600e5560a0840151600f55610140840151601690620001739082620006a8565b5061016084015160078054610180870151151560ff19931515610100029390931661ffff19909116179190911790556020840151600003620001bd576040840151600955620001c6565b60208401516009555b6007805462010000600160b01b0319163362010000021790556010829055620001ef8362000249565b5050505062000774565b600080546001600160a01b038381166001600160a01b0319831681178455604051919092169283917f8be0079c531659141344cd1fd0a4f28419497f9722a3daafe3b4186f6b6457e09190a35050565b62000253620002cc565b6001600160a01b038116620002be5760405162461bcd60e51b815260206004820152602660248201527f4f776e61626c653a206e6577206f776e657220697320746865207a65726f206160448201526564647265737360d01b60648201526084015b60405180910390fd5b620002c981620001f9565b50565b6000546001600160a01b03163314620003285760405162461bcd60e51b815260206004820181905260248201527f4f776e61626c653a2063616c6c6572206973206e6f7420746865206f776e65726044820152606401620002b5565b565b634e487b7160e01b600052604160045260246000fd5b6040516101a081016001600160401b03811182821017156200036657620003666200032a565b60405290565b604051601f8201601f191681016001600160401b03811182821017156200039757620003976200032a565b604052919050565b600082601f830112620003b157600080fd5b81516001600160401b03811115620003cd57620003cd6200032a565b6020620003e3601f8301601f191682016200036c565b8281528582848701011115620003f857600080fd5b60005b8381101562000418578581018301518282018401528201620003fb565b506000928101909101919091529392505050565b805180151581146200043d57600080fd5b919050565b80516001600160a01b03811681146200043d57600080fd5b600080600080608085870312156200047157600080fd5b84516001600160401b03808211156200048957600080fd5b908601906101a082890312156200049f57600080fd5b620004a962000340565b825181526020830151602082015260408301516040820152606083015160608201526080830151608082015260a083015160a082015260c083015182811115620004f257600080fd5b620005008a8286016200039f565b60c08301525060e0830151828111156200051957600080fd5b620005278a8286016200039f565b60e08301525061010080840151838111156200054257600080fd5b620005508b8287016200039f565b82840152505061012080840151838111156200056b57600080fd5b620005798b8287016200039f565b82840152505061014080840151838111156200059457600080fd5b620005a28b8287016200039f565b828401525050610160620005b88185016200042c565b90820152610180620005cc8482016200042c565b908201529550620005e06020880162000442565b9450604087015193506060870151915080821115620005fe57600080fd5b506200060d878288016200039f565b91505092959194509250565b600181811c908216806200062e57607f821691505b6020821081036200064f57634e487b7160e01b600052602260045260246000fd5b50919050565b601f821115620006a357600081815260208120601f850160051c810160208610156200067e5750805b601f850160051c820191505b818110156200069f578281556001016200068a565b5050505b505050565b81516001600160401b03811115620006c457620006c46200032a565b620006dc81620006d5845462000619565b8462000655565b602080601f831160018114620007145760008415620006fb5750858301515b600019600386901b1c1916600185901b1785556200069f565b600085815260208120601f198616915b82811015620007455788860151825594840194600190910190840162000724565b5085821015620007645787850151600019600388901b60f8161c191681555b5050505050600190811b01905550565b61242d80620007846000396000f3fe6080604052600436106102c55760003560e01c8063715018a611610179578063c4625ba3116100d6578063ead121111161008a578063f34094a711610064578063f34094a71461075d578063f3ccaac014610765578063fe1e2f511461077a57600080fd5b8063ead12111146106f5578063efbe1c1c14610727578063f2fde38b1461073d57600080fd5b8063c7cac600116100bb578063c7cac6001461069b578063c87b56dd146106b5578063d9a59e33146106d557600080fd5b8063c4625ba314610665578063c6a7cbc91461067b57600080fd5b80638818ed381161012d57806395d89b411161011257806395d89b4114610627578063be9a65551461063c578063c025e6861461065257600080fd5b80638818ed38146105e35780638da5cb5b1461060957600080fd5b8063736f88cd1161015e578063736f88cd146105985780637de33aec146105b75780638121e42d146105cd57600080fd5b8063715018a61461056e5780637284e4161461058357600080fd5b80631d645b12116102275780633ccfd60b116101db578063622c40ce116101c0578063622c40ce146104f65780636352211e1461051657806370a082311461054e57600080fd5b80633ccfd60b146104cc578063516f279e146104e157600080fd5b8063336df1061161020c578063336df1061461047f578063355e0c5d146104a1578063386bfc98146104b657600080fd5b80631d645b121461043c57806324924bf71461046957600080fd5b806313446a751161027e578063158c613411610263578063158c6134146103d157806318160ddd1461040a5780631c4695f41461042757600080fd5b806313446a751461038b57806314d0f1ba146103a157600080fd5b806306fdde03116102af57806306fdde031461032357806309e69ede146103455780631209b1f61461037557600080fd5b8062f4494f146102ca57806301ffc9a7146102f3575b600080fd5b3480156102d657600080fd5b506102e060105481565b6040519081526020015b60405180910390f35b3480156102ff57600080fd5b5061031361030e366004611cd9565b6107aa565b60405190151581526020016102ea565b34801561032f57600080fd5b50610338610847565b6040516102ea9190611d3c565b34801561035157600080fd5b50610313610360366004611d6b565b60176020526000908152604090205460ff1681565b34801561038157600080fd5b506102e0600e5481565b34801561039757600080fd5b506102e060095481565b3480156103ad57600080fd5b506103136103bc366004611d6b565b60196020526000908152604090205460ff1681565b3480156103dd57600080fd5b506103136103ec366004611d6b565b6001600160a01b031660009081526017602052604090205460ff1690565b34801561041657600080fd5b5060025460015403600019016102e0565b34801561043357600080fd5b506103386108d9565b34801561044857600080fd5b5061045c610457366004611d86565b610967565b6040516102ea9190611d9f565b34801561047557600080fd5b506102e060085481565b34801561048b57600080fd5b5061049f61049a366004611f29565b610dc1565b005b3480156104ad57600080fd5b50610338610df4565b3480156104c257600080fd5b506102e060115481565b3480156104d857600080fd5b5061049f610e01565b3480156104ed57600080fd5b50610338610f75565b34801561050257600080fd5b5061049f610511366004612029565b610f82565b34801561052257600080fd5b50610536610531366004611d86565b6110af565b6040516001600160a01b0390911681526020016102ea565b34801561055a57600080fd5b506102e0610569366004611d6b565b6110ba565b34801561057a57600080fd5b5061049f611122565b34801561058f57600080fd5b50610338611136565b3480156105a457600080fd5b5060075461031390610100900460ff1681565b3480156105c357600080fd5b506102e0600d5481565b3480156105d957600080fd5b506102e0600f5481565b3480156105ef57600080fd5b50600754610536906201000090046001600160a01b031681565b34801561061557600080fd5b506000546001600160a01b0316610536565b34801561063357600080fd5b50610338611143565b34801561064857600080fd5b506102e0600a5481565b61049f610660366004612147565b611152565b34801561067157600080fd5b506102e0600c5481565b34801561068757600080fd5b5061049f610696366004611d86565b6112bd565b3480156106a757600080fd5b506007546103139060ff1681565b3480156106c157600080fd5b506103386106d0366004611d86565b6112ca565b3480156106e157600080fd5b5061049f6106f0366004611d6b565b61139d565b34801561070157600080fd5b50610715610710366004611d86565b61156c565b60405160ff90911681526020016102ea565b34801561073357600080fd5b506102e0600b5481565b34801561074957600080fd5b5061049f610758366004611d6b565b6115ef565b61049f611684565b34801561077157600080fd5b50610338611771565b34801561078657600080fd5b50610313610795366004611d6b565b60186020526000908152604090205460ff1681565b60007f01ffc9a7000000000000000000000000000000000000000000000000000000006001600160e01b03198316148061080d57507f80ac58cd000000000000000000000000000000000000000000000000000000006001600160e01b03198316145b8061084157507f5b5e139f000000000000000000000000000000000000000000000000000000006001600160e01b03198316145b92915050565b606060038054610856906121bc565b80601f0160208091040260200160405190810160405280929190818152602001828054610882906121bc565b80156108cf5780601f106108a4576101008083540402835291602001916108cf565b820191906000526020600020905b8154815290600101906020018083116108b257829003601f168201915b5050505050905090565b601380546108e6906121bc565b80601f0160208091040260200160405190810160405280929190818152602001828054610912906121bc565b801561095f5780601f106109345761010080835404028352916020019161095f565b820191906000526020600020905b81548152906001019060200180831161094257829003601f168201915b505050505081565b610a1660405180610260016040528060006001600160a01b0316815260200160006001600160a01b03168152602001600015158152602001600015158152602001600015158152602001600015158152602001600081526020016000815260200160008152602001600081526020016000815260200160008152602001600081526020016000815260200160608152602001606081526020016060815260200160608152602001606081525090565b610ac560405180610260016040528060006001600160a01b0316815260200160006001600160a01b03168152602001600015158152602001600015158152602001600015158152602001600015158152602001600081526020016000815260200160008152602001600081526020016000815260200160008152602001600081526020016000815260200160608152602001606081526020016060815260200160608152602001606081525090565b600a54610100820152600b5461012082015260095460e0820152610ae7610847565b6101c082015260128054610afa906121bc565b80601f0160208091040260200160405190810160405280929190818152602001828054610b26906121bc565b8015610b735780601f10610b4857610100808354040283529160200191610b73565b820191906000526020600020905b815481529060010190602001808311610b5657829003601f168201915b50505050506101e082015260085460c0820152600e54610140820152600f5461016082015260138054610ba5906121bc565b80601f0160208091040260200160405190810160405280929190818152602001828054610bd1906121bc565b8015610c1e5780601f10610bf357610100808354040283529160200191610c1e565b820191906000526020600020905b815481529060010190602001808311610c0157829003601f168201915b505050505081610200018190525060158054610c39906121bc565b80601f0160208091040260200160405190810160405280929190818152602001828054610c65906121bc565b8015610cb25780601f10610c8757610100808354040283529160200191610cb2565b820191906000526020600020905b815481529060010190602001808311610c9557829003601f168201915b505050505081610220018190525060168054610ccd906121bc565b80601f0160208091040260200160405190810160405280929190818152602001828054610cf9906121bc565b8015610d465780601f10610d1b57610100808354040283529160200191610d46565b820191906000526020600020905b815481529060010190602001808311610d2957829003601f168201915b50505050506102408201526000546001600160a01b03166020820152610d6b8361156c565b60ff9081161560408084019190915233600081815260176020908152838220548516151560808701529181526018909152205416151560a0820152600c54610180820152600d546101a082015230815292915050565b610dc961177e565b6001600160a01b03919091166000908152601960205260409020805460ff1916911515919091179055565b601480546108e6906121bc565b610e0961177e565b476000819003610e2c576040516312171d8360e31b815260040160405180910390fd5b601054600190600090610e4090606461220c565b60105490915015610ee957600760029054906101000a90046001600160a01b03166001600160a01b0316606484601054610e7a919061221f565b610e849190612236565b604051600081818185875af1925050503d8060008114610ec0576040519150601f19603f3d011682016040523d82523d6000602084013e610ec5565b606091505b50508092505081610ee9576040516312171d8360e31b815260040160405180910390fd5b6000546001600160a01b03166064610f01858461221f565b610f0b9190612236565b604051600081818185875af1925050503d8060008114610f47576040519150601f19603f3d011682016040523d82523d6000602084013e610f4c565b606091505b50508092505081610f70576040516312171d8360e31b815260040160405180910390fd5b505050565b601680546108e6906121bc565b610f8a61177e565b4281604001511015610fc8576040517f93d9b84f00000000000000000000000000000000000000000000000000000000815260040160405180910390fd5b600c5481511080610fe0575080606001518160400151115b15611017576040517f41cc6b2100000000000000000000000000000000000000000000000000000000815260040160405180910390fd5b60c081015160129061102990826122a6565b5060e081015160139061103c90826122a6565b5061010081015160169061105090826122a6565b5080516008556080810151600e5560a0810151600f556040810151600a556060810151600b5560208101516009556101208101516007805461014090930151151560ff19921515610100029290921661ffff1990931692909217179055565b6000610841826117d8565b60006001600160a01b0382166110fc576040517f8f4eb60400000000000000000000000000000000000000000000000000000000815260040160405180910390fd5b506001600160a01b031660009081526006602052604090205467ffffffffffffffff1690565b61112a61177e565b6111346000611867565b565b601280546108e6906121bc565b606060048054610856906121bc565b600061115d4261156c565b90508060ff166001036111835760405163a8ab2d2560e01b815260040160405180910390fd5b8060ff166002036111a757604051632fc209f360e01b815260040160405180910390fd5b8060ff166003036111cb57604051630ea075bf60e21b815260040160405180910390fd5b8060ff166004036111ef57604051632437ffe960e11b815260040160405180910390fd5b60075460ff1615806112735750611271838380806020026020016040519081016040528093929190818152602001838360200280828437600092019190915250506011546040516bffffffffffffffffffffffff193360601b1660208201529092506034019050604051602081830303815290604052805190602001206118cf565b155b156112915760405163ad7acb4760e01b815260040160405180910390fd5b600f543410156112b457604051633c89335b60e11b815260040160405180910390fd5b610f70336118e5565b6112c561177e565b601155565b60606112d58261196e565b61130b576040517fa14c4b5000000000000000000000000000000000000000000000000000000000815260040160405180910390fd5b60148054611318906121bc565b80601f0160208091040260200160405190810160405280929190818152602001828054611344906121bc565b80156113915780601f1061136657610100808354040283529160200191611391565b820191906000526020600020905b81548152906001019060200180831161137457829003601f168201915b50505050509050919050565b6000546001600160a01b031633148015906113c857503360009081526019602052604090205460ff16155b156113ff576040517feaa45d6a00000000000000000000000000000000000000000000000000000000815260040160405180910390fd5b600a5442908110806114125750600b5481115b15611449576040517f91e3be3900000000000000000000000000000000000000000000000000000000815260040160405180910390fd5b6001600160a01b03821660009081526017602052604090205460ff1661149b576040517faba4733900000000000000000000000000000000000000000000000000000000815260040160405180910390fd5b6001600160a01b03821660009081526018602052604090205460ff16156114ee576040517fc98289f000000000000000000000000000000000000000000000000000000000815260040160405180910390fd5b6001600160a01b0382166000908152601860205260408120805460ff19166001908117909155600d805491929091611527908490612366565b90915550506040516001600160a01b03831681527fcbf477e63735f8d27f9b668165862d7c6e84e5650edec70229523db18c2f1efd9060200160405180910390a15050565b6000600a5482111561158057506001919050565b600754610100900460ff161580611598575060095482115b156115a557506002919050565b3360009081526017602052604090205460ff16156115c557506003919050565b60006008541180156115da5750600854600c54145b156115e757506004919050565b506000919050565b6115f761177e565b6001600160a01b0381166116785760405162461bcd60e51b815260206004820152602660248201527f4f776e61626c653a206e6577206f776e657220697320746865207a65726f206160448201527f646472657373000000000000000000000000000000000000000000000000000060648201526084015b60405180910390fd5b61168181611867565b50565b600061168f4261156c565b90508060ff166001036116b55760405163a8ab2d2560e01b815260040160405180910390fd5b8060ff166002036116d957604051632fc209f360e01b815260040160405180910390fd5b8060ff166003036116fd57604051630ea075bf60e21b815260040160405180910390fd5b8060ff1660040361172157604051632437ffe960e11b815260040160405180910390fd5b60075460ff16156117455760405163ad7acb4760e01b815260040160405180910390fd5b600e5434101561176857604051633c89335b60e11b815260040160405180910390fd5b611681336118e5565b601580546108e6906121bc565b6000546001600160a01b031633146111345760405162461bcd60e51b815260206004820181905260248201527f4f776e61626c653a2063616c6c6572206973206e6f7420746865206f776e6572604482015260640161166f565b60008180600111611835576001548110156118355760008181526005602052604081205490600160e01b82169003611833575b8060000361182c57506000190160008181526005602052604090205461180b565b9392505050565b505b6040517fdf2d9b4200000000000000000000000000000000000000000000000000000000815260040160405180910390fd5b600080546001600160a01b038381167fffffffffffffffffffffffff0000000000000000000000000000000000000000831681178455604051919092169283917f8be0079c531659141344cd1fd0a4f28419497f9722a3daafe3b4186f6b6457e09190a35050565b6000826118dc85846119a3565b14949350505050565b6001600160a01b0381166000908152601760205260408120805460ff19166001908117909155600c80549192909161191e908490612366565b9091555061192f90508160016119f0565b6040516001600160a01b03821681527fe11711cd714e06fbbbea301a8e90822f2f2ea4808e37e3adf06038f33c53ff279060200160405180910390a150565b600081600111158015611982575060015482105b8015610841575050600090815260056020526040902054600160e01b161590565b600081815b84518110156119e8576119d4828683815181106119c7576119c7612379565b6020026020010151611a0e565b9150806119e08161238f565b9150506119a8565b509392505050565b611a0a828260405180602001604052806000815250611a3a565b5050565b6000818310611a2a57600082815260208490526040902061182c565b5060009182526020526040902090565b611a448383611aa7565b6001600160a01b0383163b15610f70576001548281035b611a6e6000868380600101945086611bd8565b611a8b576040516368d2bf6b60e11b815260040160405180910390fd5b818110611a5b578160015414611aa057600080fd5b5050505050565b6001546000829003611ae5576040517fb562e8dd00000000000000000000000000000000000000000000000000000000815260040160405180910390fd5b6001600160a01b03831660008181526006602090815260408083208054680100000000000000018802019055848352600590915281206001851460e11b4260a01b178317905582840190839083907fddf252ad1be2c89b69c2b068fc378daa952ba7f163c4a11628f55a4df523b3ef8180a4600183015b818114611b9457808360007fddf252ad1be2c89b69c2b068fc378daa952ba7f163c4a11628f55a4df523b3ef600080a4600101611b5c565b5081600003611bcf576040517f2e07630000000000000000000000000000000000000000000000000000000000815260040160405180910390fd5b60015550505050565b604051630a85bd0160e11b81526000906001600160a01b0385169063150b7a0290611c0d9033908990889088906004016123a8565b6020604051808303816000875af1925050508015611c48575060408051601f3d908101601f19168201909252611c45918101906123da565b60015b611ca6573d808015611c76576040519150601f19603f3d011682016040523d82523d6000602084013e611c7b565b606091505b508051600003611c9e576040516368d2bf6b60e11b815260040160405180910390fd5b805181602001fd5b6001600160e01b031916630a85bd0160e11b149050949350505050565b6001600160e01b03198116811461168157600080fd5b600060208284031215611ceb57600080fd5b813561182c81611cc3565b6000815180845260005b81811015611d1c57602081850181015186830182015201611d00565b506000602082860101526020601f19601f83011685010191505092915050565b60208152600061182c6020830184611cf6565b80356001600160a01b0381168114611d6657600080fd5b919050565b600060208284031215611d7d57600080fd5b61182c82611d4f565b600060208284031215611d9857600080fd5b5035919050565b60208152611db96020820183516001600160a01b03169052565b60006020830151611dd560408401826001600160a01b03169052565b5060408301518015156060840152506060830151801515608084015250608083015180151560a08401525060a083015180151560c08401525060c083015160e08381019190915283015161010080840191909152830151610120808401919091528301516101408084019190915283015161016080840191909152830151610180808401919091528301516101a0808401919091528301516101c0808401919091528301516102606101e0808501829052611e94610280860184611cf6565b9250808601519050601f19610200818786030181880152611eb58584611cf6565b945080880151925050610220818786030181880152611ed48584611cf6565b945080880151925050610240818786030181880152611ef38584611cf6565b908801518782039092018488015293509050611f0f8382611cf6565b9695505050505050565b80358015158114611d6657600080fd5b60008060408385031215611f3c57600080fd5b611f4583611d4f565b9150611f5360208401611f19565b90509250929050565b634e487b7160e01b600052604160045260246000fd5b604051610160810167ffffffffffffffff81118282101715611f9657611f96611f5c565b60405290565b600082601f830112611fad57600080fd5b813567ffffffffffffffff80821115611fc857611fc8611f5c565b604051601f8301601f19908116603f01168101908282118183101715611ff057611ff0611f5c565b8160405283815286602085880101111561200957600080fd5b836020870160208301376000602085830101528094505050505092915050565b60006020828403121561203b57600080fd5b813567ffffffffffffffff8082111561205357600080fd5b90830190610160828603121561206857600080fd5b612070611f72565b823581526020830135602082015260408301356040820152606083013560608201526080830135608082015260a083013560a082015260c0830135828111156120b857600080fd5b6120c487828601611f9c565b60c08301525060e0830135828111156120dc57600080fd5b6120e887828601611f9c565b60e083015250610100808401358381111561210257600080fd5b61210e88828701611f9c565b8284015250506101209150612124828401611f19565b828201526101409150612138828401611f19565b91810191909152949350505050565b6000806020838503121561215a57600080fd5b823567ffffffffffffffff8082111561217257600080fd5b818501915085601f83011261218657600080fd5b81358181111561219557600080fd5b8660208260051b85010111156121aa57600080fd5b60209290920196919550909350505050565b600181811c908216806121d057607f821691505b6020821081036121f057634e487b7160e01b600052602260045260246000fd5b50919050565b634e487b7160e01b600052601160045260246000fd5b81810381811115610841576108416121f6565b8082028115828204841417610841576108416121f6565b60008261225357634e487b7160e01b600052601260045260246000fd5b500490565b601f821115610f7057600081815260208120601f850160051c8101602086101561227f5750805b601f850160051c820191505b8181101561229e5782815560010161228b565b505050505050565b815167ffffffffffffffff8111156122c0576122c0611f5c565b6122d4816122ce84546121bc565b84612258565b602080601f83116001811461230957600084156122f15750858301515b600019600386901b1c1916600185901b17855561229e565b600085815260208120601f198616915b8281101561233857888601518255948401946001909101908401612319565b50858210156123565787850151600019600388901b60f8161c191681555b5050505050600190811b01905550565b80820180821115610841576108416121f6565b634e487b7160e01b600052603260045260246000fd5b6000600182016123a1576123a16121f6565b5060010190565b60006001600160a01b03808716835280861660208401525083604083015260806060830152611f0f6080830184611cf6565b6000602082840312156123ec57600080fd5b815161182c81611cc356fea2646970667358221220cf8f066d9bad9e8f348d33b2224648487d5b21062b509c71ccff004b8fc67be464736f6c63430008110033","linkReferences":{},"deployedLinkReferences":{}}